{
	"contracts/staking.sol": {
		"Staking": {
			"abi": [
				{
					"inputs": [
						{
							"internalType": "address",
							"name": "_stakeToken",
							"type": "address"
						},
						{
							"internalType": "address",
							"name": "_rewardsToken",
							"type": "address"
						}
					],
					"stateMutability": "nonpayable",
					"type": "constructor"
				},
				{
					"inputs": [
						{
							"internalType": "address",
							"name": "",
							"type": "address"
						},
						{
							"internalType": "string",
							"name": "",
							"type": "string"
						}
					],
					"name": "_balance",
					"outputs": [
						{
							"internalType": "uint256",
							"name": "",
							"type": "uint256"
						}
					],
					"stateMutability": "view",
					"type": "function"
				},
				{
					"inputs": [],
					"name": "balance",
					"outputs": [
						{
							"internalType": "uint256",
							"name": "",
							"type": "uint256"
						}
					],
					"stateMutability": "view",
					"type": "function"
				},
				{
					"inputs": [],
					"name": "calculateRewards",
					"outputs": [
						{
							"internalType": "uint256",
							"name": "",
							"type": "uint256"
						}
					],
					"stateMutability": "view",
					"type": "function"
				},
				{
					"inputs": [
						{
							"internalType": "uint256",
							"name": "amount",
							"type": "uint256"
						}
					],
					"name": "depositStake",
					"outputs": [],
					"stateMutability": "nonpayable",
					"type": "function"
				},
				{
					"inputs": [],
					"name": "duration",
					"outputs": [
						{
							"internalType": "uint256",
							"name": "",
							"type": "uint256"
						}
					],
					"stateMutability": "view",
					"type": "function"
				},
				{
					"inputs": [],
					"name": "earned",
					"outputs": [
						{
							"internalType": "uint256",
							"name": "",
							"type": "uint256"
						}
					],
					"stateMutability": "view",
					"type": "function"
				},
				{
					"inputs": [],
					"name": "finishAt",
					"outputs": [
						{
							"internalType": "uint256",
							"name": "",
							"type": "uint256"
						}
					],
					"stateMutability": "view",
					"type": "function"
				},
				{
					"inputs": [],
					"name": "getDuration",
					"outputs": [
						{
							"internalType": "uint256",
							"name": "",
							"type": "uint256"
						}
					],
					"stateMutability": "view",
					"type": "function"
				},
				{
					"inputs": [],
					"name": "lockStakes",
					"outputs": [],
					"stateMutability": "nonpayable",
					"type": "function"
				},
				{
					"inputs": [],
					"name": "rate",
					"outputs": [
						{
							"internalType": "uint256",
							"name": "",
							"type": "uint256"
						}
					],
					"stateMutability": "view",
					"type": "function"
				},
				{
					"inputs": [],
					"name": "rewardsToken",
					"outputs": [
						{
							"internalType": "contract IERC20",
							"name": "",
							"type": "address"
						}
					],
					"stateMutability": "view",
					"type": "function"
				},
				{
					"inputs": [
						{
							"internalType": "uint256",
							"name": "_duration",
							"type": "uint256"
						}
					],
					"name": "setDuration",
					"outputs": [],
					"stateMutability": "nonpayable",
					"type": "function"
				},
				{
					"inputs": [
						{
							"internalType": "uint256",
							"name": "_rate",
							"type": "uint256"
						}
					],
					"name": "setRewardRate",
					"outputs": [],
					"stateMutability": "nonpayable",
					"type": "function"
				},
				{
					"inputs": [],
					"name": "stakingToken",
					"outputs": [
						{
							"internalType": "contract IERC20",
							"name": "",
							"type": "address"
						}
					],
					"stateMutability": "view",
					"type": "function"
				},
				{
					"inputs": [],
					"name": "totalStake",
					"outputs": [
						{
							"internalType": "uint256",
							"name": "",
							"type": "uint256"
						}
					],
					"stateMutability": "view",
					"type": "function"
				},
				{
					"inputs": [],
					"name": "totalStakeRewards",
					"outputs": [
						{
							"internalType": "uint256",
							"name": "",
							"type": "uint256"
						}
					],
					"stateMutability": "view",
					"type": "function"
				},
				{
					"inputs": [],
					"name": "updatedAt",
					"outputs": [
						{
							"internalType": "uint256",
							"name": "",
							"type": "uint256"
						}
					],
					"stateMutability": "view",
					"type": "function"
				},
				{
					"inputs": [
						{
							"internalType": "uint256",
							"name": "_amount",
							"type": "uint256"
						}
					],
					"name": "withdrawReward",
					"outputs": [],
					"stateMutability": "nonpayable",
					"type": "function"
				},
				{
					"inputs": [],
					"name": "withdrawStakes",
					"outputs": [],
					"stateMutability": "nonpayable",
					"type": "function"
				}
			],
			"devdoc": {
				"kind": "dev",
				"methods": {},
				"version": 1
			},
			"evm": {
				"assembly": "    /* \"contracts/staking.sol\":617:4242  contract Staking{... */\n  mstore(0x40, 0x80)\n    /* \"contracts/staking.sol\":1194:1346  constructor(address _stakeToken, address _rewardsToken){... */\n  callvalue\n  dup1\n  iszero\n  tag_1\n  jumpi\n  0x00\n  dup1\n  revert\ntag_1:\n  pop\n  mload(0x40)\n  sub(codesize, bytecodeSize)\n  dup1\n  bytecodeSize\n  dup4\n  codecopy\n  dup2\n  dup2\n  add\n  0x40\n  mstore\n  dup2\n  add\n  swap1\n  tag_2\n  swap2\n  swap1\n  tag_3\n  jump\t// in\ntag_2:\n    /* \"contracts/staking.sol\":1281:1292  _stakeToken */\n  dup2\n    /* \"contracts/staking.sol\":1259:1271  stakingToken */\n  0x00\n  dup1\n    /* \"contracts/staking.sol\":1259:1293  stakingToken = IERC20(_stakeToken) */\n  0x0100\n  exp\n  dup2\n  sload\n  dup2\n  0xffffffffffffffffffffffffffffffffffffffff\n  mul\n  not\n  and\n  swap1\n  dup4\n  0xffffffffffffffffffffffffffffffffffffffff\n  and\n  mul\n  or\n  swap1\n  sstore\n  pop\n    /* \"contracts/staking.sol\":1325:1338  _rewardsToken */\n  dup1\n    /* \"contracts/staking.sol\":1303:1315  rewardsToken */\n  0x01\n  0x00\n    /* \"contracts/staking.sol\":1303:1339  rewardsToken = IERC20(_rewardsToken) */\n  0x0100\n  exp\n  dup2\n  sload\n  dup2\n  0xffffffffffffffffffffffffffffffffffffffff\n  mul\n  not\n  and\n  swap1\n  dup4\n  0xffffffffffffffffffffffffffffffffffffffff\n  and\n  mul\n  or\n  swap1\n  sstore\n  pop\n    /* \"contracts/staking.sol\":1194:1346  constructor(address _stakeToken, address _rewardsToken){... */\n  pop\n  pop\n    /* \"contracts/staking.sol\":617:4242  contract Staking{... */\n  jump(tag_6)\n    /* \"#utility.yul\":88:205   */\ntag_8:\n    /* \"#utility.yul\":197:198   */\n  0x00\n    /* \"#utility.yul\":194:195   */\n  dup1\n    /* \"#utility.yul\":187:199   */\n  revert\n    /* \"#utility.yul\":334:460   */\ntag_10:\n    /* \"#utility.yul\":371:378   */\n  0x00\n    /* \"#utility.yul\":411:453   */\n  0xffffffffffffffffffffffffffffffffffffffff\n    /* \"#utility.yul\":404:409   */\n  dup3\n    /* \"#utility.yul\":400:454   */\n  and\n    /* \"#utility.yul\":389:454   */\n  swap1\n  pop\n    /* \"#utility.yul\":334:460   */\n  swap2\n  swap1\n  pop\n  jump\t// out\n    /* \"#utility.yul\":466:562   */\ntag_11:\n    /* \"#utility.yul\":503:510   */\n  0x00\n    /* \"#utility.yul\":532:556   */\n  tag_20\n    /* \"#utility.yul\":550:555   */\n  dup3\n    /* \"#utility.yul\":532:556   */\n  tag_10\n  jump\t// in\ntag_20:\n    /* \"#utility.yul\":521:556   */\n  swap1\n  pop\n    /* \"#utility.yul\":466:562   */\n  swap2\n  swap1\n  pop\n  jump\t// out\n    /* \"#utility.yul\":568:690   */\ntag_12:\n    /* \"#utility.yul\":641:665   */\n  tag_22\n    /* \"#utility.yul\":659:664   */\n  dup2\n    /* \"#utility.yul\":641:665   */\n  tag_11\n  jump\t// in\ntag_22:\n    /* \"#utility.yul\":634:639   */\n  dup2\n    /* \"#utility.yul\":631:666   */\n  eq\n    /* \"#utility.yul\":621:684   */\n  tag_23\n  jumpi\n    /* \"#utility.yul\":680:681   */\n  0x00\n    /* \"#utility.yul\":677:678   */\n  dup1\n    /* \"#utility.yul\":670:682   */\n  revert\n    /* \"#utility.yul\":621:684   */\ntag_23:\n    /* \"#utility.yul\":568:690   */\n  pop\n  jump\t// out\n    /* \"#utility.yul\":696:839   */\ntag_13:\n    /* \"#utility.yul\":753:758   */\n  0x00\n    /* \"#utility.yul\":784:790   */\n  dup2\n    /* \"#utility.yul\":778:791   */\n  mload\n    /* \"#utility.yul\":769:791   */\n  swap1\n  pop\n    /* \"#utility.yul\":800:833   */\n  tag_25\n    /* \"#utility.yul\":827:832   */\n  dup2\n    /* \"#utility.yul\":800:833   */\n  tag_12\n  jump\t// in\ntag_25:\n    /* \"#utility.yul\":696:839   */\n  swap3\n  swap2\n  pop\n  pop\n  jump\t// out\n    /* \"#utility.yul\":845:1352   */\ntag_3:\n    /* \"#utility.yul\":924:930   */\n  0x00\n    /* \"#utility.yul\":932:938   */\n  dup1\n    /* \"#utility.yul\":981:983   */\n  0x40\n    /* \"#utility.yul\":969:978   */\n  dup4\n    /* \"#utility.yul\":960:967   */\n  dup6\n    /* \"#utility.yul\":956:979   */\n  sub\n    /* \"#utility.yul\":952:984   */\n  slt\n    /* \"#utility.yul\":949:1068   */\n  iszero\n  tag_27\n  jumpi\n    /* \"#utility.yul\":987:1066   */\n  tag_28\n  tag_8\n  jump\t// in\ntag_28:\n    /* \"#utility.yul\":949:1068   */\ntag_27:\n    /* \"#utility.yul\":1107:1108   */\n  0x00\n    /* \"#utility.yul\":1132:1196   */\n  tag_29\n    /* \"#utility.yul\":1188:1195   */\n  dup6\n    /* \"#utility.yul\":1179:1185   */\n  dup3\n    /* \"#utility.yul\":1168:1177   */\n  dup7\n    /* \"#utility.yul\":1164:1186   */\n  add\n    /* \"#utility.yul\":1132:1196   */\n  tag_13\n  jump\t// in\ntag_29:\n    /* \"#utility.yul\":1122:1196   */\n  swap3\n  pop\n    /* \"#utility.yul\":1078:1206   */\n  pop\n    /* \"#utility.yul\":1245:1247   */\n  0x20\n    /* \"#utility.yul\":1271:1335   */\n  tag_30\n    /* \"#utility.yul\":1327:1334   */\n  dup6\n    /* \"#utility.yul\":1318:1324   */\n  dup3\n    /* \"#utility.yul\":1307:1316   */\n  dup7\n    /* \"#utility.yul\":1303:1325   */\n  add\n    /* \"#utility.yul\":1271:1335   */\n  tag_13\n  jump\t// in\ntag_30:\n    /* \"#utility.yul\":1261:1335   */\n  swap2\n  pop\n    /* \"#utility.yul\":1216:1345   */\n  pop\n    /* \"#utility.yul\":845:1352   */\n  swap3\n  pop\n  swap3\n  swap1\n  pop\n  jump\t// out\n    /* \"contracts/staking.sol\":617:4242  contract Staking{... */\ntag_6:\n  dataSize(sub_0)\n  dup1\n  dataOffset(sub_0)\n  0x00\n  codecopy\n  0x00\n  return\nstop\n\nsub_0: assembly {\n        /* \"contracts/staking.sol\":617:4242  contract Staking{... */\n      mstore(0x40, 0x80)\n      callvalue\n      dup1\n      iszero\n      tag_1\n      jumpi\n      0x00\n      dup1\n      revert\n    tag_1:\n      pop\n      jumpi(tag_2, lt(calldatasize, 0x04))\n      shr(0xe0, calldataload(0x00))\n      dup1\n      0x72f702f3\n      gt\n      tag_22\n      jumpi\n      dup1\n      0xb69ef8a8\n      gt\n      tag_23\n      jumpi\n      dup1\n      0xb69ef8a8\n      eq\n      tag_17\n      jumpi\n      dup1\n      0xcb82cc8f\n      eq\n      tag_18\n      jumpi\n      dup1\n      0xd1af0c7d\n      eq\n      tag_19\n      jumpi\n      dup1\n      0xd6f19262\n      eq\n      tag_20\n      jumpi\n      dup1\n      0xf6be71d1\n      eq\n      tag_21\n      jumpi\n      jump(tag_2)\n    tag_23:\n      dup1\n      0x72f702f3\n      eq\n      tag_12\n      jumpi\n      dup1\n      0x7519ab50\n      eq\n      tag_13\n      jumpi\n      dup1\n      0x8b0e9f3f\n      eq\n      tag_14\n      jumpi\n      dup1\n      0x9e447fc6\n      eq\n      tag_15\n      jumpi\n      dup1\n      0xad2e8c9b\n      eq\n      tag_16\n      jumpi\n      jump(tag_2)\n    tag_22:\n      dup1\n      0x3e50de30\n      gt\n      tag_24\n      jumpi\n      dup1\n      0x3e50de30\n      eq\n      tag_7\n      jumpi\n      dup1\n      0x4a618297\n      eq\n      tag_8\n      jumpi\n      dup1\n      0x50d56aba\n      eq\n      tag_9\n      jumpi\n      dup1\n      0x523a3f08\n      eq\n      tag_10\n      jumpi\n      dup1\n      0x67d3b488\n      eq\n      tag_11\n      jumpi\n      jump(tag_2)\n    tag_24:\n      dup1\n      0x0fb5a6b4\n      eq\n      tag_3\n      jumpi\n      dup1\n      0x289ed738\n      eq\n      tag_4\n      jumpi\n      dup1\n      0x2c4e722e\n      eq\n      tag_5\n      jumpi\n      dup1\n      0x327bcac5\n      eq\n      tag_6\n      jumpi\n    tag_2:\n      0x00\n      dup1\n      revert\n        /* \"contracts/staking.sol\":833:853  uint public duration */\n    tag_3:\n      tag_25\n      tag_26\n      jump\t// in\n    tag_25:\n      mload(0x40)\n      tag_27\n      swap2\n      swap1\n      tag_28\n      jump\t// in\n    tag_27:\n      mload(0x40)\n      dup1\n      swap2\n      sub\n      swap1\n      return\n        /* \"contracts/staking.sol\":3948:4240  function withdrawStakes() external{... */\n    tag_4:\n      tag_29\n      tag_30\n      jump\t// in\n    tag_29:\n      stop\n        /* \"contracts/staking.sol\":931:947  uint public rate */\n    tag_5:\n      tag_31\n      tag_32\n      jump\t// in\n    tag_31:\n      mload(0x40)\n      tag_33\n      swap2\n      swap1\n      tag_28\n      jump\t// in\n    tag_33:\n      mload(0x40)\n      dup1\n      swap2\n      sub\n      swap1\n      return\n        /* \"contracts/staking.sol\":793:822  uint public totalStakeRewards */\n    tag_6:\n      tag_34\n      tag_35\n      jump\t// in\n    tag_34:\n      mload(0x40)\n      tag_36\n      swap2\n      swap1\n      tag_28\n      jump\t// in\n    tag_36:\n      mload(0x40)\n      dup1\n      swap2\n      sub\n      swap1\n      return\n        /* \"contracts/staking.sol\":3131:3337  function calculateRewards() view public returns(uint256){... */\n    tag_7:\n      tag_37\n      tag_38\n      jump\t// in\n    tag_37:\n      mload(0x40)\n      tag_39\n      swap2\n      swap1\n      tag_28\n      jump\t// in\n    tag_39:\n      mload(0x40)\n      dup1\n      swap2\n      sub\n      swap1\n      return\n        /* \"contracts/staking.sol\":3771:3942  function lockStakes() external{... */\n    tag_8:\n      tag_40\n      tag_41\n      jump\t// in\n    tag_40:\n      stop\n        /* \"contracts/staking.sol\":968:1031  mapping (address => mapping(string => uint256)) public _balance */\n    tag_9:\n      tag_42\n      0x04\n      dup1\n      calldatasize\n      sub\n      dup2\n      add\n      swap1\n      tag_43\n      swap2\n      swap1\n      tag_44\n      jump\t// in\n    tag_43:\n      tag_45\n      jump\t// in\n    tag_42:\n      mload(0x40)\n      tag_46\n      swap2\n      swap1\n      tag_28\n      jump\t// in\n    tag_46:\n      mload(0x40)\n      dup1\n      swap2\n      sub\n      swap1\n      return\n        /* \"contracts/staking.sol\":3343:3765  function withdrawReward(uint256 _amount) external{... */\n    tag_10:\n      tag_47\n      0x04\n      dup1\n      calldatasize\n      sub\n      dup2\n      add\n      swap1\n      tag_48\n      swap2\n      swap1\n      tag_49\n      jump\t// in\n    tag_48:\n      tag_50\n      jump\t// in\n    tag_47:\n      stop\n        /* \"contracts/staking.sol\":877:897  uint public finishAt */\n    tag_11:\n      tag_51\n      tag_52\n      jump\t// in\n    tag_51:\n      mload(0x40)\n      tag_53\n      swap2\n      swap1\n      tag_28\n      jump\t// in\n    tag_53:\n      mload(0x40)\n      dup1\n      swap2\n      sub\n      swap1\n      return\n        /* \"contracts/staking.sol\":700:726  IERC20 public stakingToken */\n    tag_12:\n      tag_54\n      tag_55\n      jump\t// in\n    tag_54:\n      mload(0x40)\n      tag_56\n      swap2\n      swap1\n      tag_57\n      jump\t// in\n    tag_56:\n      mload(0x40)\n      dup1\n      swap2\n      sub\n      swap1\n      return\n        /* \"contracts/staking.sol\":903:924  uint public updatedAt */\n    tag_13:\n      tag_58\n      tag_59\n      jump\t// in\n    tag_58:\n      mload(0x40)\n      tag_60\n      swap2\n      swap1\n      tag_28\n      jump\t// in\n    tag_60:\n      mload(0x40)\n      dup1\n      swap2\n      sub\n      swap1\n      return\n        /* \"contracts/staking.sol\":765:787  uint public totalStake */\n    tag_14:\n      tag_61\n      tag_62\n      jump\t// in\n    tag_61:\n      mload(0x40)\n      tag_63\n      swap2\n      swap1\n      tag_28\n      jump\t// in\n    tag_63:\n      mload(0x40)\n      dup1\n      swap2\n      sub\n      swap1\n      return\n        /* \"contracts/staking.sol\":2284:2432  function setRewardRate(uint _rate) external {... */\n    tag_15:\n      tag_64\n      0x04\n      dup1\n      calldatasize\n      sub\n      dup2\n      add\n      swap1\n      tag_65\n      swap2\n      swap1\n      tag_49\n      jump\t// in\n    tag_65:\n      tag_66\n      jump\t// in\n    tag_64:\n      stop\n        /* \"contracts/staking.sol\":2781:2866  function getDuration() view external returns(uint256){... */\n    tag_16:\n      tag_67\n      tag_68\n      jump\t// in\n    tag_67:\n      mload(0x40)\n      tag_69\n      swap2\n      swap1\n      tag_28\n      jump\t// in\n    tag_69:\n      mload(0x40)\n      dup1\n      swap2\n      sub\n      swap1\n      return\n        /* \"contracts/staking.sol\":2174:2278  function balance() external view returns (uint256){... */\n    tag_17:\n      tag_70\n      tag_71\n      jump\t// in\n    tag_70:\n      mload(0x40)\n      tag_72\n      swap2\n      swap1\n      tag_28\n      jump\t// in\n    tag_72:\n      mload(0x40)\n      dup1\n      swap2\n      sub\n      swap1\n      return\n        /* \"contracts/staking.sol\":1352:2169  function depositStake (uint amount) external {... */\n    tag_18:\n      tag_73\n      0x04\n      dup1\n      calldatasize\n      sub\n      dup2\n      add\n      swap1\n      tag_74\n      swap2\n      swap1\n      tag_49\n      jump\t// in\n    tag_74:\n      tag_75\n      jump\t// in\n    tag_73:\n      stop\n        /* \"contracts/staking.sol\":732:758  IERC20 public rewardsToken */\n    tag_19:\n      tag_76\n      tag_77\n      jump\t// in\n    tag_76:\n      mload(0x40)\n      tag_78\n      swap2\n      swap1\n      tag_57\n      jump\t// in\n    tag_78:\n      mload(0x40)\n      dup1\n      swap2\n      sub\n      swap1\n      return\n        /* \"contracts/staking.sol\":2872:3125  function earned() view public returns(uint256){... */\n    tag_20:\n      tag_79\n      tag_80\n      jump\t// in\n    tag_79:\n      mload(0x40)\n      tag_81\n      swap2\n      swap1\n      tag_28\n      jump\t// in\n    tag_81:\n      mload(0x40)\n      dup1\n      swap2\n      sub\n      swap1\n      return\n        /* \"contracts/staking.sol\":2438:2775  function setDuration(uint256 _duration) external{... */\n    tag_21:\n      tag_82\n      0x04\n      dup1\n      calldatasize\n      sub\n      dup2\n      add\n      swap1\n      tag_83\n      swap2\n      swap1\n      tag_49\n      jump\t// in\n    tag_83:\n      tag_84\n      jump\t// in\n    tag_82:\n      stop\n        /* \"contracts/staking.sol\":833:853  uint public duration */\n    tag_26:\n      sload(0x04)\n      dup2\n      jump\t// out\n        /* \"contracts/staking.sol\":3948:4240  function withdrawStakes() external{... */\n    tag_30:\n        /* \"contracts/staking.sol\":4033:4034  0 */\n      0x00\n        /* \"contracts/staking.sol\":4000:4008  _balance */\n      0x08\n        /* \"contracts/staking.sol\":4000:4020  _balance[msg.sender] */\n      0x00\n        /* \"contracts/staking.sol\":4009:4019  msg.sender */\n      caller\n        /* \"contracts/staking.sol\":4000:4020  _balance[msg.sender] */\n      0xffffffffffffffffffffffffffffffffffffffff\n      and\n      0xffffffffffffffffffffffffffffffffffffffff\n      and\n      dup2\n      mstore\n      0x20\n      add\n      swap1\n      dup2\n      mstore\n      0x20\n      add\n      0x00\n      keccak256\n        /* \"contracts/staking.sol\":4000:4030  _balance[msg.sender][\"amount\"] */\n      mload(0x40)\n      tag_86\n      swap1\n      tag_87\n      jump\t// in\n    tag_86:\n      swap1\n      dup2\n      mstore\n      0x20\n      add\n      mload(0x40)\n      dup1\n      swap2\n      sub\n      swap1\n      keccak256\n      sload\n        /* \"contracts/staking.sol\":4000:4034  _balance[msg.sender][\"amount\"] > 0 */\n      gt\n        /* \"contracts/staking.sol\":3992:4077  require(_balance[msg.sender][\"amount\"] > 0, \"User does not have stakes in this pool\") */\n      tag_88\n      jumpi\n      mload(0x40)\n      0x08c379a000000000000000000000000000000000000000000000000000000000\n      dup2\n      mstore\n      0x04\n      add\n      tag_89\n      swap1\n      tag_90\n      jump\t// in\n    tag_89:\n      mload(0x40)\n      dup1\n      swap2\n      sub\n      swap1\n      revert\n    tag_88:\n        /* \"contracts/staking.sol\":4095:4107  stakingToken */\n      0x00\n      dup1\n      sload\n      swap1\n      0x0100\n      exp\n      swap1\n      div\n      0xffffffffffffffffffffffffffffffffffffffff\n      and\n        /* \"contracts/staking.sol\":4095:4116  stakingToken.transfer */\n      0xffffffffffffffffffffffffffffffffffffffff\n      and\n      0xa9059cbb\n        /* \"contracts/staking.sol\":4117:4127  msg.sender */\n      caller\n        /* \"contracts/staking.sol\":4128:4136  _balance */\n      0x08\n        /* \"contracts/staking.sol\":4128:4148  _balance[msg.sender] */\n      0x00\n        /* \"contracts/staking.sol\":4137:4147  msg.sender */\n      caller\n        /* \"contracts/staking.sol\":4128:4148  _balance[msg.sender] */\n      0xffffffffffffffffffffffffffffffffffffffff\n      and\n      0xffffffffffffffffffffffffffffffffffffffff\n      and\n      dup2\n      mstore\n      0x20\n      add\n      swap1\n      dup2\n      mstore\n      0x20\n      add\n      0x00\n      keccak256\n        /* \"contracts/staking.sol\":4128:4158  _balance[msg.sender][\"amount\"] */\n      mload(0x40)\n      tag_91\n      swap1\n      tag_87\n      jump\t// in\n    tag_91:\n      swap1\n      dup2\n      mstore\n      0x20\n      add\n      mload(0x40)\n      dup1\n      swap2\n      sub\n      swap1\n      keccak256\n      sload\n        /* \"contracts/staking.sol\":4095:4159  stakingToken.transfer(msg.sender,_balance[msg.sender][\"amount\"]) */\n      mload(0x40)\n      dup4\n      0xffffffff\n      and\n      0xe0\n      shl\n      dup2\n      mstore\n      0x04\n      add\n      tag_92\n      swap3\n      swap2\n      swap1\n      tag_93\n      jump\t// in\n    tag_92:\n      0x20\n      mload(0x40)\n      dup1\n      dup4\n      sub\n      dup2\n      0x00\n      dup8\n      gas\n      call\n      iszero\n      dup1\n      iszero\n      tag_95\n      jumpi\n      returndatasize\n      0x00\n      dup1\n      returndatacopy\n      revert(0x00, returndatasize)\n    tag_95:\n      pop\n      pop\n      pop\n      pop\n      mload(0x40)\n      returndatasize\n      not(0x1f)\n      0x1f\n      dup3\n      add\n      and\n      dup3\n      add\n      dup1\n      0x40\n      mstore\n      pop\n      dup2\n      add\n      swap1\n      tag_96\n      swap2\n      swap1\n      tag_97\n      jump\t// in\n    tag_96:\n        /* \"contracts/staking.sol\":4087:4189  require(stakingToken.transfer(msg.sender,_balance[msg.sender][\"amount\"]), \"Failed to transfer tokens\") */\n      tag_98\n      jumpi\n      mload(0x40)\n      0x08c379a000000000000000000000000000000000000000000000000000000000\n      dup2\n      mstore\n      0x04\n      add\n      tag_99\n      swap1\n      tag_100\n      jump\t// in\n    tag_99:\n      mload(0x40)\n      dup1\n      swap2\n      sub\n      swap1\n      revert\n    tag_98:\n        /* \"contracts/staking.sol\":4232:4233  0 */\n      0x00\n        /* \"contracts/staking.sol\":4199:4207  _balance */\n      0x08\n        /* \"contracts/staking.sol\":4199:4219  _balance[msg.sender] */\n      0x00\n        /* \"contracts/staking.sol\":4208:4218  msg.sender */\n      caller\n        /* \"contracts/staking.sol\":4199:4219  _balance[msg.sender] */\n      0xffffffffffffffffffffffffffffffffffffffff\n      and\n      0xffffffffffffffffffffffffffffffffffffffff\n      and\n      dup2\n      mstore\n      0x20\n      add\n      swap1\n      dup2\n      mstore\n      0x20\n      add\n      0x00\n      keccak256\n        /* \"contracts/staking.sol\":4199:4229  _balance[msg.sender][\"amount\"] */\n      mload(0x40)\n      tag_101\n      swap1\n      tag_87\n      jump\t// in\n    tag_101:\n      swap1\n      dup2\n      mstore\n      0x20\n      add\n      mload(0x40)\n      dup1\n      swap2\n      sub\n      swap1\n      keccak256\n        /* \"contracts/staking.sol\":4199:4233  _balance[msg.sender][\"amount\"] = 0 */\n      dup2\n      swap1\n      sstore\n      pop\n        /* \"contracts/staking.sol\":3948:4240  function withdrawStakes() external{... */\n      jump\t// out\n        /* \"contracts/staking.sol\":931:947  uint public rate */\n    tag_32:\n      sload(0x07)\n      dup2\n      jump\t// out\n        /* \"contracts/staking.sol\":793:822  uint public totalStakeRewards */\n    tag_35:\n      sload(0x03)\n      dup2\n      jump\t// out\n        /* \"contracts/staking.sol\":3131:3337  function calculateRewards() view public returns(uint256){... */\n    tag_38:\n        /* \"contracts/staking.sol\":3179:3186  uint256 */\n      0x00\n        /* \"contracts/staking.sol\":3238:3239  0 */\n      dup1\n        /* \"contracts/staking.sol\":3205:3213  _balance */\n      0x08\n        /* \"contracts/staking.sol\":3205:3225  _balance[msg.sender] */\n      0x00\n        /* \"contracts/staking.sol\":3214:3224  msg.sender */\n      caller\n        /* \"contracts/staking.sol\":3205:3225  _balance[msg.sender] */\n      0xffffffffffffffffffffffffffffffffffffffff\n      and\n      0xffffffffffffffffffffffffffffffffffffffff\n      and\n      dup2\n      mstore\n      0x20\n      add\n      swap1\n      dup2\n      mstore\n      0x20\n      add\n      0x00\n      keccak256\n        /* \"contracts/staking.sol\":3205:3235  _balance[msg.sender][\"amount\"] */\n      mload(0x40)\n      tag_103\n      swap1\n      tag_87\n      jump\t// in\n    tag_103:\n      swap1\n      dup2\n      mstore\n      0x20\n      add\n      mload(0x40)\n      dup1\n      swap2\n      sub\n      swap1\n      keccak256\n      sload\n        /* \"contracts/staking.sol\":3205:3239  _balance[msg.sender][\"amount\"] > 0 */\n      gt\n        /* \"contracts/staking.sol\":3197:3274  require(_balance[msg.sender][\"amount\"] > 0, \"You have not staked any tokens\") */\n      tag_104\n      jumpi\n      mload(0x40)\n      0x08c379a000000000000000000000000000000000000000000000000000000000\n      dup2\n      mstore\n      0x04\n      add\n      tag_105\n      swap1\n      tag_106\n      jump\t// in\n    tag_105:\n      mload(0x40)\n      dup1\n      swap2\n      sub\n      swap1\n      revert\n    tag_104:\n        /* \"contracts/staking.sol\":3303:3318  accBeforeUpdate */\n      0x0a\n        /* \"contracts/staking.sol\":3303:3330  accBeforeUpdate[msg.sender] */\n      0x00\n        /* \"contracts/staking.sol\":3319:3329  msg.sender */\n      caller\n        /* \"contracts/staking.sol\":3303:3330  accBeforeUpdate[msg.sender] */\n      0xffffffffffffffffffffffffffffffffffffffff\n      and\n      0xffffffffffffffffffffffffffffffffffffffff\n      and\n      dup2\n      mstore\n      0x20\n      add\n      swap1\n      dup2\n      mstore\n      0x20\n      add\n      0x00\n      keccak256\n      sload\n        /* \"contracts/staking.sol\":3292:3300  earned() */\n      tag_107\n        /* \"contracts/staking.sol\":3292:3298  earned */\n      tag_80\n        /* \"contracts/staking.sol\":3292:3300  earned() */\n      jump\t// in\n    tag_107:\n        /* \"contracts/staking.sol\":3292:3330  earned() + accBeforeUpdate[msg.sender] */\n      tag_108\n      swap2\n      swap1\n      tag_109\n      jump\t// in\n    tag_108:\n        /* \"contracts/staking.sol\":3285:3330  return earned() + accBeforeUpdate[msg.sender] */\n      swap1\n      pop\n        /* \"contracts/staking.sol\":3131:3337  function calculateRewards() view public returns(uint256){... */\n      swap1\n      jump\t// out\n        /* \"contracts/staking.sol\":3771:3942  function lockStakes() external{... */\n    tag_41:\n        /* \"contracts/staking.sol\":3857:3858  1 */\n      0x01\n        /* \"contracts/staking.sol\":3819:3827  _balance */\n      0x08\n        /* \"contracts/staking.sol\":3819:3839  _balance[msg.sender] */\n      0x00\n        /* \"contracts/staking.sol\":3828:3838  msg.sender */\n      caller\n        /* \"contracts/staking.sol\":3819:3839  _balance[msg.sender] */\n      0xffffffffffffffffffffffffffffffffffffffff\n      and\n      0xffffffffffffffffffffffffffffffffffffffff\n      and\n      dup2\n      mstore\n      0x20\n      add\n      swap1\n      dup2\n      mstore\n      0x20\n      add\n      0x00\n      keccak256\n        /* \"contracts/staking.sol\":3819:3853  _balance[msg.sender][\"lockStakes\"] */\n      mload(0x40)\n      tag_111\n      swap1\n      tag_112\n      jump\t// in\n    tag_111:\n      swap1\n      dup2\n      mstore\n      0x20\n      add\n      mload(0x40)\n      dup1\n      swap2\n      sub\n      swap1\n      keccak256\n      sload\n        /* \"contracts/staking.sol\":3819:3858  _balance[msg.sender][\"lockStakes\"] != 1 */\n      sub\n        /* \"contracts/staking.sol\":3811:3886  require(_balance[msg.sender][\"lockStakes\"] != 1, \"Stakes have been locked\") */\n      tag_113\n      jumpi\n      mload(0x40)\n      0x08c379a000000000000000000000000000000000000000000000000000000000\n      dup2\n      mstore\n      0x04\n      add\n      tag_114\n      swap1\n      tag_115\n      jump\t// in\n    tag_114:\n      mload(0x40)\n      dup1\n      swap2\n      sub\n      swap1\n      revert\n    tag_113:\n        /* \"contracts/staking.sol\":3934:3935  1 */\n      0x01\n        /* \"contracts/staking.sol\":3897:3905  _balance */\n      0x08\n        /* \"contracts/staking.sol\":3897:3917  _balance[msg.sender] */\n      0x00\n        /* \"contracts/staking.sol\":3906:3916  msg.sender */\n      caller\n        /* \"contracts/staking.sol\":3897:3917  _balance[msg.sender] */\n      0xffffffffffffffffffffffffffffffffffffffff\n      and\n      0xffffffffffffffffffffffffffffffffffffffff\n      and\n      dup2\n      mstore\n      0x20\n      add\n      swap1\n      dup2\n      mstore\n      0x20\n      add\n      0x00\n      keccak256\n        /* \"contracts/staking.sol\":3897:3931  _balance[msg.sender][\"lockStakes\"] */\n      mload(0x40)\n      tag_116\n      swap1\n      tag_112\n      jump\t// in\n    tag_116:\n      swap1\n      dup2\n      mstore\n      0x20\n      add\n      mload(0x40)\n      dup1\n      swap2\n      sub\n      swap1\n      keccak256\n        /* \"contracts/staking.sol\":3897:3935  _balance[msg.sender][\"lockStakes\"] = 1 */\n      dup2\n      swap1\n      sstore\n      pop\n        /* \"contracts/staking.sol\":3771:3942  function lockStakes() external{... */\n      jump\t// out\n        /* \"contracts/staking.sol\":968:1031  mapping (address => mapping(string => uint256)) public _balance */\n    tag_45:\n      mstore(0x20, 0x08)\n      dup2\n      0x00\n      mstore\n      keccak256(0x00, 0x40)\n      dup2\n      dup1\n      mload\n      0x20\n      dup2\n      add\n      dup3\n      add\n      dup1\n      mload\n      dup5\n      dup3\n      mstore\n      0x20\n      dup4\n      add\n      0x20\n      dup6\n      add\n      keccak256\n      dup2\n      dup4\n      mstore\n      dup1\n      swap6\n      pop\n      pop\n      pop\n      pop\n      pop\n      pop\n      0x00\n      swap2\n      pop\n      swap2\n      pop\n      pop\n      sload\n      dup2\n      jump\t// out\n        /* \"contracts/staking.sol\":3343:3765  function withdrawReward(uint256 _amount) external{... */\n    tag_50:\n        /* \"contracts/staking.sol\":3402:3412  uint total */\n      0x00\n        /* \"contracts/staking.sol\":3415:3433  calculateRewards() */\n      tag_118\n        /* \"contracts/staking.sol\":3415:3431  calculateRewards */\n      tag_38\n        /* \"contracts/staking.sol\":3415:3433  calculateRewards() */\n      jump\t// in\n    tag_118:\n        /* \"contracts/staking.sol\":3402:3433  uint total = calculateRewards() */\n      swap1\n      pop\n        /* \"contracts/staking.sol\":3459:3460  0 */\n      0x00\n        /* \"contracts/staking.sol\":3451:3456  total */\n      dup2\n        /* \"contracts/staking.sol\":3451:3460  total > 0 */\n      gt\n        /* \"contracts/staking.sol\":3451:3475  total > 0 && _amount > 0 */\n      dup1\n      iszero\n      tag_119\n      jumpi\n      pop\n        /* \"contracts/staking.sol\":3474:3475  0 */\n      0x00\n        /* \"contracts/staking.sol\":3464:3471  _amount */\n      dup3\n        /* \"contracts/staking.sol\":3464:3475  _amount > 0 */\n      gt\n        /* \"contracts/staking.sol\":3451:3475  total > 0 && _amount > 0 */\n    tag_119:\n        /* \"contracts/staking.sol\":3443:3511  require(total > 0 && _amount > 0, \"You have not earned any rewards\") */\n      tag_120\n      jumpi\n      mload(0x40)\n      0x08c379a000000000000000000000000000000000000000000000000000000000\n      dup2\n      mstore\n      0x04\n      add\n      tag_121\n      swap1\n      tag_122\n      jump\t// in\n    tag_121:\n      mload(0x40)\n      dup1\n      swap2\n      sub\n      swap1\n      revert\n    tag_120:\n        /* \"contracts/staking.sol\":3571:3578  _amount */\n      dup2\n        /* \"contracts/staking.sol\":3537:3556  _rewardsWithdrawals */\n      0x09\n        /* \"contracts/staking.sol\":3537:3568  _rewardsWithdrawals[msg.sender] */\n      0x00\n        /* \"contracts/staking.sol\":3557:3567  msg.sender */\n      caller\n        /* \"contracts/staking.sol\":3537:3568  _rewardsWithdrawals[msg.sender] */\n      0xffffffffffffffffffffffffffffffffffffffff\n      and\n      0xffffffffffffffffffffffffffffffffffffffff\n      and\n      dup2\n      mstore\n      0x20\n      add\n      swap1\n      dup2\n      mstore\n      0x20\n      add\n      0x00\n      keccak256\n      sload\n        /* \"contracts/staking.sol\":3529:3534  total */\n      dup3\n        /* \"contracts/staking.sol\":3529:3568  total - _rewardsWithdrawals[msg.sender] */\n      tag_123\n      swap2\n      swap1\n      tag_124\n      jump\t// in\n    tag_123:\n        /* \"contracts/staking.sol\":3529:3578  total - _rewardsWithdrawals[msg.sender] > _amount */\n      gt\n        /* \"contracts/staking.sol\":3521:3616  require(total - _rewardsWithdrawals[msg.sender] > _amount, \"You don't have enough to withdraw\") */\n      tag_125\n      jumpi\n      mload(0x40)\n      0x08c379a000000000000000000000000000000000000000000000000000000000\n      dup2\n      mstore\n      0x04\n      add\n      tag_126\n      swap1\n      tag_127\n      jump\t// in\n    tag_126:\n      mload(0x40)\n      dup1\n      swap2\n      sub\n      swap1\n      revert\n    tag_125:\n        /* \"contracts/staking.sol\":3634:3646  rewardsToken */\n      0x01\n      0x00\n      swap1\n      sload\n      swap1\n      0x0100\n      exp\n      swap1\n      div\n      0xffffffffffffffffffffffffffffffffffffffff\n      and\n        /* \"contracts/staking.sol\":3634:3655  rewardsToken.transfer */\n      0xffffffffffffffffffffffffffffffffffffffff\n      and\n      0xa9059cbb\n        /* \"contracts/staking.sol\":3656:3666  msg.sender */\n      caller\n        /* \"contracts/staking.sol\":3668:3675  _amount */\n      dup5\n        /* \"contracts/staking.sol\":3634:3676  rewardsToken.transfer(msg.sender, _amount) */\n      mload(0x40)\n      dup4\n      0xffffffff\n      and\n      0xe0\n      shl\n      dup2\n      mstore\n      0x04\n      add\n      tag_128\n      swap3\n      swap2\n      swap1\n      tag_93\n      jump\t// in\n    tag_128:\n      0x20\n      mload(0x40)\n      dup1\n      dup4\n      sub\n      dup2\n      0x00\n      dup8\n      gas\n      call\n      iszero\n      dup1\n      iszero\n      tag_130\n      jumpi\n      returndatasize\n      0x00\n      dup1\n      returndatacopy\n      revert(0x00, returndatasize)\n    tag_130:\n      pop\n      pop\n      pop\n      pop\n      mload(0x40)\n      returndatasize\n      not(0x1f)\n      0x1f\n      dup3\n      add\n      and\n      dup3\n      add\n      dup1\n      0x40\n      mstore\n      pop\n      dup2\n      add\n      swap1\n      tag_131\n      swap2\n      swap1\n      tag_97\n      jump\t// in\n    tag_131:\n        /* \"contracts/staking.sol\":3626:3706  require(rewardsToken.transfer(msg.sender, _amount), \"Failed to transfer tokens\") */\n      tag_132\n      jumpi\n      mload(0x40)\n      0x08c379a000000000000000000000000000000000000000000000000000000000\n      dup2\n      mstore\n      0x04\n      add\n      tag_133\n      swap1\n      tag_100\n      jump\t// in\n    tag_133:\n      mload(0x40)\n      dup1\n      swap2\n      sub\n      swap1\n      revert\n    tag_132:\n        /* \"contracts/staking.sol\":3751:3758  _amount */\n      dup2\n        /* \"contracts/staking.sol\":3716:3735  _rewardsWithdrawals */\n      0x09\n        /* \"contracts/staking.sol\":3716:3747  _rewardsWithdrawals[msg.sender] */\n      0x00\n        /* \"contracts/staking.sol\":3736:3746  msg.sender */\n      caller\n        /* \"contracts/staking.sol\":3716:3747  _rewardsWithdrawals[msg.sender] */\n      0xffffffffffffffffffffffffffffffffffffffff\n      and\n      0xffffffffffffffffffffffffffffffffffffffff\n      and\n      dup2\n      mstore\n      0x20\n      add\n      swap1\n      dup2\n      mstore\n      0x20\n      add\n      0x00\n      keccak256\n      0x00\n        /* \"contracts/staking.sol\":3716:3758  _rewardsWithdrawals[msg.sender] += _amount */\n      dup3\n      dup3\n      sload\n      tag_134\n      swap2\n      swap1\n      tag_109\n      jump\t// in\n    tag_134:\n      swap3\n      pop\n      pop\n      dup2\n      swap1\n      sstore\n      pop\n        /* \"contracts/staking.sol\":3392:3765  {... */\n      pop\n        /* \"contracts/staking.sol\":3343:3765  function withdrawReward(uint256 _amount) external{... */\n      pop\n      jump\t// out\n        /* \"contracts/staking.sol\":877:897  uint public finishAt */\n    tag_52:\n      sload(0x05)\n      dup2\n      jump\t// out\n        /* \"contracts/staking.sol\":700:726  IERC20 public stakingToken */\n    tag_55:\n      0x00\n      dup1\n      sload\n      swap1\n      0x0100\n      exp\n      swap1\n      div\n      0xffffffffffffffffffffffffffffffffffffffff\n      and\n      dup2\n      jump\t// out\n        /* \"contracts/staking.sol\":903:924  uint public updatedAt */\n    tag_59:\n      sload(0x06)\n      dup2\n      jump\t// out\n        /* \"contracts/staking.sol\":765:787  uint public totalStake */\n    tag_62:\n      sload(0x02)\n      dup2\n      jump\t// out\n        /* \"contracts/staking.sol\":2284:2432  function setRewardRate(uint _rate) external {... */\n    tag_66:\n        /* \"contracts/staking.sol\":2357:2372  block.timestamp */\n      timestamp\n        /* \"contracts/staking.sol\":2346:2354  finishAt */\n      sload(0x05)\n        /* \"contracts/staking.sol\":2346:2372  finishAt < block.timestamp */\n      lt\n        /* \"contracts/staking.sol\":2338:2402  require(finishAt < block.timestamp, \"Staking still in progress\") */\n      tag_136\n      jumpi\n      mload(0x40)\n      0x08c379a000000000000000000000000000000000000000000000000000000000\n      dup2\n      mstore\n      0x04\n      add\n      tag_137\n      swap1\n      tag_138\n      jump\t// in\n    tag_137:\n      mload(0x40)\n      dup1\n      swap2\n      sub\n      swap1\n      revert\n    tag_136:\n        /* \"contracts/staking.sol\":2420:2425  _rate */\n      dup1\n        /* \"contracts/staking.sol\":2413:2417  rate */\n      0x07\n        /* \"contracts/staking.sol\":2413:2425  rate = _rate */\n      dup2\n      swap1\n      sstore\n      pop\n        /* \"contracts/staking.sol\":2284:2432  function setRewardRate(uint _rate) external {... */\n      pop\n      jump\t// out\n        /* \"contracts/staking.sol\":2781:2866  function getDuration() view external returns(uint256){... */\n    tag_68:\n        /* \"contracts/staking.sol\":2826:2833  uint256 */\n      0x00\n        /* \"contracts/staking.sol\":2851:2859  duration */\n      sload(0x04)\n        /* \"contracts/staking.sol\":2844:2859  return duration */\n      swap1\n      pop\n        /* \"contracts/staking.sol\":2781:2866  function getDuration() view external returns(uint256){... */\n      swap1\n      jump\t// out\n        /* \"contracts/staking.sol\":2174:2278  function balance() external view returns (uint256){... */\n    tag_71:\n        /* \"contracts/staking.sol\":2216:2223  uint256 */\n      0x00\n        /* \"contracts/staking.sol\":2241:2249  _balance */\n      0x08\n        /* \"contracts/staking.sol\":2241:2261  _balance[msg.sender] */\n      0x00\n        /* \"contracts/staking.sol\":2250:2260  msg.sender */\n      caller\n        /* \"contracts/staking.sol\":2241:2261  _balance[msg.sender] */\n      0xffffffffffffffffffffffffffffffffffffffff\n      and\n      0xffffffffffffffffffffffffffffffffffffffff\n      and\n      dup2\n      mstore\n      0x20\n      add\n      swap1\n      dup2\n      mstore\n      0x20\n      add\n      0x00\n      keccak256\n        /* \"contracts/staking.sol\":2241:2271  _balance[msg.sender][\"amount\"] */\n      mload(0x40)\n      tag_141\n      swap1\n      tag_87\n      jump\t// in\n    tag_141:\n      swap1\n      dup2\n      mstore\n      0x20\n      add\n      mload(0x40)\n      dup1\n      swap2\n      sub\n      swap1\n      keccak256\n      sload\n        /* \"contracts/staking.sol\":2234:2271  return _balance[msg.sender][\"amount\"] */\n      swap1\n      pop\n        /* \"contracts/staking.sol\":2174:2278  function balance() external view returns (uint256){... */\n      swap1\n      jump\t// out\n        /* \"contracts/staking.sol\":1352:2169  function depositStake (uint amount) external {... */\n    tag_75:\n        /* \"contracts/staking.sol\":1426:1427  0 */\n      0x00\n        /* \"contracts/staking.sol\":1415:1423  duration */\n      sload(0x04)\n        /* \"contracts/staking.sol\":1415:1427  duration > 0 */\n      gt\n        /* \"contracts/staking.sol\":1407:1454  require(duration > 0, \".No staking period yet\") */\n      tag_143\n      jumpi\n      mload(0x40)\n      0x08c379a000000000000000000000000000000000000000000000000000000000\n      dup2\n      mstore\n      0x04\n      add\n      tag_144\n      swap1\n      tag_145\n      jump\t// in\n    tag_144:\n      mload(0x40)\n      dup1\n      swap2\n      sub\n      swap1\n      revert\n    tag_143:\n        /* \"contracts/staking.sol\":1510:1511  1 */\n      0x01\n        /* \"contracts/staking.sol\":1472:1480  _balance */\n      0x08\n        /* \"contracts/staking.sol\":1472:1492  _balance[msg.sender] */\n      0x00\n        /* \"contracts/staking.sol\":1481:1491  msg.sender */\n      caller\n        /* \"contracts/staking.sol\":1472:1492  _balance[msg.sender] */\n      0xffffffffffffffffffffffffffffffffffffffff\n      and\n      0xffffffffffffffffffffffffffffffffffffffff\n      and\n      dup2\n      mstore\n      0x20\n      add\n      swap1\n      dup2\n      mstore\n      0x20\n      add\n      0x00\n      keccak256\n        /* \"contracts/staking.sol\":1472:1506  _balance[msg.sender][\"lockStakes\"] */\n      mload(0x40)\n      tag_146\n      swap1\n      tag_112\n      jump\t// in\n    tag_146:\n      swap1\n      dup2\n      mstore\n      0x20\n      add\n      mload(0x40)\n      dup1\n      swap2\n      sub\n      swap1\n      keccak256\n      sload\n        /* \"contracts/staking.sol\":1472:1511  _balance[msg.sender][\"lockStakes\"] != 1 */\n      sub\n        /* \"contracts/staking.sol\":1464:1570  require(_balance[msg.sender][\"lockStakes\"] != 1, \"This user canno longer deposit for this staking period\") */\n      tag_147\n      jumpi\n      mload(0x40)\n      0x08c379a000000000000000000000000000000000000000000000000000000000\n      dup2\n      mstore\n      0x04\n      add\n      tag_148\n      swap1\n      tag_149\n      jump\t// in\n    tag_148:\n      mload(0x40)\n      dup1\n      swap2\n      sub\n      swap1\n      revert\n    tag_147:\n        /* \"contracts/staking.sol\":1626:1632  amount */\n      dup1\n        /* \"contracts/staking.sol\":1588:1600  stakingToken */\n      0x00\n      dup1\n      sload\n      swap1\n      0x0100\n      exp\n      swap1\n      div\n      0xffffffffffffffffffffffffffffffffffffffff\n      and\n        /* \"contracts/staking.sol\":1588:1610  stakingToken.balanceOf */\n      0xffffffffffffffffffffffffffffffffffffffff\n      and\n      0x70a08231\n        /* \"contracts/staking.sol\":1611:1621  msg.sender */\n      caller\n        /* \"contracts/staking.sol\":1588:1622  stakingToken.balanceOf(msg.sender) */\n      mload(0x40)\n      dup3\n      0xffffffff\n      and\n      0xe0\n      shl\n      dup2\n      mstore\n      0x04\n      add\n      tag_150\n      swap2\n      swap1\n      tag_151\n      jump\t// in\n    tag_150:\n      0x20\n      mload(0x40)\n      dup1\n      dup4\n      sub\n      dup2\n      dup7\n      gas\n      staticcall\n      iszero\n      dup1\n      iszero\n      tag_153\n      jumpi\n      returndatasize\n      0x00\n      dup1\n      returndatacopy\n      revert(0x00, returndatasize)\n    tag_153:\n      pop\n      pop\n      pop\n      pop\n      mload(0x40)\n      returndatasize\n      not(0x1f)\n      0x1f\n      dup3\n      add\n      and\n      dup3\n      add\n      dup1\n      0x40\n      mstore\n      pop\n      dup2\n      add\n      swap1\n      tag_154\n      swap2\n      swap1\n      tag_155\n      jump\t// in\n    tag_154:\n        /* \"contracts/staking.sol\":1588:1632  stakingToken.balanceOf(msg.sender) >= amount */\n      lt\n      iszero\n        /* \"contracts/staking.sol\":1580:1664  require(stakingToken.balanceOf(msg.sender) >= amount, \"Not enough tokens for stake\") */\n      tag_156\n      jumpi\n      mload(0x40)\n      0x08c379a000000000000000000000000000000000000000000000000000000000\n      dup2\n      mstore\n      0x04\n      add\n      tag_157\n      swap1\n      tag_158\n      jump\t// in\n    tag_157:\n      mload(0x40)\n      dup1\n      swap2\n      sub\n      swap1\n      revert\n    tag_156:\n        /* \"contracts/staking.sol\":1682:1694  stakingToken */\n      0x00\n      dup1\n      sload\n      swap1\n      0x0100\n      exp\n      swap1\n      div\n      0xffffffffffffffffffffffffffffffffffffffff\n      and\n        /* \"contracts/staking.sol\":1682:1707  stakingToken.transferFrom */\n      0xffffffffffffffffffffffffffffffffffffffff\n      and\n      0x23b872dd\n        /* \"contracts/staking.sol\":1708:1718  msg.sender */\n      caller\n        /* \"contracts/staking.sol\":1728:1732  this */\n      address\n        /* \"contracts/staking.sol\":1735:1741  amount */\n      dup5\n        /* \"contracts/staking.sol\":1682:1742  stakingToken.transferFrom(msg.sender, address(this), amount) */\n      mload(0x40)\n      dup5\n      0xffffffff\n      and\n      0xe0\n      shl\n      dup2\n      mstore\n      0x04\n      add\n      tag_159\n      swap4\n      swap3\n      swap2\n      swap1\n      tag_160\n      jump\t// in\n    tag_159:\n      0x20\n      mload(0x40)\n      dup1\n      dup4\n      sub\n      dup2\n      0x00\n      dup8\n      gas\n      call\n      iszero\n      dup1\n      iszero\n      tag_162\n      jumpi\n      returndatasize\n      0x00\n      dup1\n      returndatacopy\n      revert(0x00, returndatasize)\n    tag_162:\n      pop\n      pop\n      pop\n      pop\n      mload(0x40)\n      returndatasize\n      not(0x1f)\n      0x1f\n      dup3\n      add\n      and\n      dup3\n      add\n      dup1\n      0x40\n      mstore\n      pop\n      dup2\n      add\n      swap1\n      tag_163\n      swap2\n      swap1\n      tag_97\n      jump\t// in\n    tag_163:\n        /* \"contracts/staking.sol\":1674:1767  require(stakingToken.transferFrom(msg.sender, address(this), amount),\"Failed to stake token\") */\n      tag_164\n      jumpi\n      mload(0x40)\n      0x08c379a000000000000000000000000000000000000000000000000000000000\n      dup2\n      mstore\n      0x04\n      add\n      tag_165\n      swap1\n      tag_166\n      jump\t// in\n    tag_165:\n      mload(0x40)\n      dup1\n      swap2\n      sub\n      swap1\n      revert\n    tag_164:\n        /* \"contracts/staking.sol\":1819:1861  _balance[msg.sender][\"amount\"].add(amount) */\n      tag_167\n        /* \"contracts/staking.sol\":1854:1860  amount */\n      dup2\n        /* \"contracts/staking.sol\":1819:1827  _balance */\n      0x08\n        /* \"contracts/staking.sol\":1819:1839  _balance[msg.sender] */\n      0x00\n        /* \"contracts/staking.sol\":1828:1838  msg.sender */\n      caller\n        /* \"contracts/staking.sol\":1819:1839  _balance[msg.sender] */\n      0xffffffffffffffffffffffffffffffffffffffff\n      and\n      0xffffffffffffffffffffffffffffffffffffffff\n      and\n      dup2\n      mstore\n      0x20\n      add\n      swap1\n      dup2\n      mstore\n      0x20\n      add\n      0x00\n      keccak256\n        /* \"contracts/staking.sol\":1819:1849  _balance[msg.sender][\"amount\"] */\n      mload(0x40)\n      tag_168\n      swap1\n      tag_87\n      jump\t// in\n    tag_168:\n      swap1\n      dup2\n      mstore\n      0x20\n      add\n      mload(0x40)\n      dup1\n      swap2\n      sub\n      swap1\n      keccak256\n      sload\n        /* \"contracts/staking.sol\":1819:1853  _balance[msg.sender][\"amount\"].add */\n      tag_169\n      swap1\n        /* \"contracts/staking.sol\":1819:1861  _balance[msg.sender][\"amount\"].add(amount) */\n      swap2\n      swap1\n      0xffffffff\n      and\n      jump\t// in\n    tag_167:\n        /* \"contracts/staking.sol\":1786:1794  _balance */\n      0x08\n        /* \"contracts/staking.sol\":1786:1806  _balance[msg.sender] */\n      0x00\n        /* \"contracts/staking.sol\":1795:1805  msg.sender */\n      caller\n        /* \"contracts/staking.sol\":1786:1806  _balance[msg.sender] */\n      0xffffffffffffffffffffffffffffffffffffffff\n      and\n      0xffffffffffffffffffffffffffffffffffffffff\n      and\n      dup2\n      mstore\n      0x20\n      add\n      swap1\n      dup2\n      mstore\n      0x20\n      add\n      0x00\n      keccak256\n        /* \"contracts/staking.sol\":1786:1816  _balance[msg.sender][\"amount\"] */\n      mload(0x40)\n      tag_170\n      swap1\n      tag_87\n      jump\t// in\n    tag_170:\n      swap1\n      dup2\n      mstore\n      0x20\n      add\n      mload(0x40)\n      dup1\n      swap2\n      sub\n      swap1\n      keccak256\n        /* \"contracts/staking.sol\":1786:1861  _balance[msg.sender][\"amount\"] = _balance[msg.sender][\"amount\"].add(amount) */\n      dup2\n      swap1\n      sstore\n      pop\n        /* \"contracts/staking.sol\":1912:1913  0 */\n      0x00\n        /* \"contracts/staking.sol\":1875:1883  _balance */\n      0x08\n        /* \"contracts/staking.sol\":1875:1895  _balance[msg.sender] */\n      0x00\n        /* \"contracts/staking.sol\":1884:1894  msg.sender */\n      caller\n        /* \"contracts/staking.sol\":1875:1895  _balance[msg.sender] */\n      0xffffffffffffffffffffffffffffffffffffffff\n      and\n      0xffffffffffffffffffffffffffffffffffffffff\n      and\n      dup2\n      mstore\n      0x20\n      add\n      swap1\n      dup2\n      mstore\n      0x20\n      add\n      0x00\n      keccak256\n        /* \"contracts/staking.sol\":1875:1908  _balance[msg.sender][\"updatedAt\"] */\n      mload(0x40)\n      tag_171\n      swap1\n      tag_172\n      jump\t// in\n    tag_171:\n      swap1\n      dup2\n      mstore\n      0x20\n      add\n      mload(0x40)\n      dup1\n      swap2\n      sub\n      swap1\n      keccak256\n      sload\n        /* \"contracts/staking.sol\":1875:1913  _balance[msg.sender][\"updatedAt\"] == 0 */\n      sub\n        /* \"contracts/staking.sol\":1871:2118  if (_balance[msg.sender][\"updatedAt\"] == 0) {... */\n      tag_173\n      jumpi\n        /* \"contracts/staking.sol\":1960:1975  block.timestamp */\n      timestamp\n        /* \"contracts/staking.sol\":1925:1933  _balance */\n      0x08\n        /* \"contracts/staking.sol\":1925:1945  _balance[msg.sender] */\n      0x00\n        /* \"contracts/staking.sol\":1934:1944  msg.sender */\n      caller\n        /* \"contracts/staking.sol\":1925:1945  _balance[msg.sender] */\n      0xffffffffffffffffffffffffffffffffffffffff\n      and\n      0xffffffffffffffffffffffffffffffffffffffff\n      and\n      dup2\n      mstore\n      0x20\n      add\n      swap1\n      dup2\n      mstore\n      0x20\n      add\n      0x00\n      keccak256\n        /* \"contracts/staking.sol\":1925:1958  _balance[msg.sender][\"updatedAt\"] */\n      mload(0x40)\n      tag_174\n      swap1\n      tag_172\n      jump\t// in\n    tag_174:\n      swap1\n      dup2\n      mstore\n      0x20\n      add\n      mload(0x40)\n      dup1\n      swap2\n      sub\n      swap1\n      keccak256\n        /* \"contracts/staking.sol\":1925:1975  _balance[msg.sender][\"updatedAt\"]= block.timestamp */\n      dup2\n      swap1\n      sstore\n      pop\n        /* \"contracts/staking.sol\":1871:2118  if (_balance[msg.sender][\"updatedAt\"] == 0) {... */\n      jump(tag_175)\n    tag_173:\n        /* \"contracts/staking.sol\":2035:2043  earned() */\n      tag_176\n        /* \"contracts/staking.sol\":2035:2041  earned */\n      tag_80\n        /* \"contracts/staking.sol\":2035:2043  earned() */\n      jump\t// in\n    tag_176:\n        /* \"contracts/staking.sol\":2004:2019  accBeforeUpdate */\n      0x0a\n        /* \"contracts/staking.sol\":2004:2031  accBeforeUpdate[msg.sender] */\n      0x00\n        /* \"contracts/staking.sol\":2020:2030  msg.sender */\n      caller\n        /* \"contracts/staking.sol\":2004:2031  accBeforeUpdate[msg.sender] */\n      0xffffffffffffffffffffffffffffffffffffffff\n      and\n      0xffffffffffffffffffffffffffffffffffffffff\n      and\n      dup2\n      mstore\n      0x20\n      add\n      swap1\n      dup2\n      mstore\n      0x20\n      add\n      0x00\n      keccak256\n      0x00\n        /* \"contracts/staking.sol\":2004:2043  accBeforeUpdate[msg.sender] += earned() */\n      dup3\n      dup3\n      sload\n      tag_177\n      swap2\n      swap1\n      tag_109\n      jump\t// in\n    tag_177:\n      swap3\n      pop\n      pop\n      dup2\n      swap1\n      sstore\n      pop\n        /* \"contracts/staking.sol\":2092:2107  block.timestamp */\n      timestamp\n        /* \"contracts/staking.sol\":2057:2065  _balance */\n      0x08\n        /* \"contracts/staking.sol\":2057:2077  _balance[msg.sender] */\n      0x00\n        /* \"contracts/staking.sol\":2066:2076  msg.sender */\n      caller\n        /* \"contracts/staking.sol\":2057:2077  _balance[msg.sender] */\n      0xffffffffffffffffffffffffffffffffffffffff\n      and\n      0xffffffffffffffffffffffffffffffffffffffff\n      and\n      dup2\n      mstore\n      0x20\n      add\n      swap1\n      dup2\n      mstore\n      0x20\n      add\n      0x00\n      keccak256\n        /* \"contracts/staking.sol\":2057:2090  _balance[msg.sender][\"updatedAt\"] */\n      mload(0x40)\n      tag_178\n      swap1\n      tag_172\n      jump\t// in\n    tag_178:\n      swap1\n      dup2\n      mstore\n      0x20\n      add\n      mload(0x40)\n      dup1\n      swap2\n      sub\n      swap1\n      keccak256\n        /* \"contracts/staking.sol\":2057:2107  _balance[msg.sender][\"updatedAt\"]= block.timestamp */\n      dup2\n      swap1\n      sstore\n      pop\n        /* \"contracts/staking.sol\":1871:2118  if (_balance[msg.sender][\"updatedAt\"] == 0) {... */\n    tag_175:\n        /* \"contracts/staking.sol\":2140:2162  totalStake.add(amount) */\n      tag_179\n        /* \"contracts/staking.sol\":2155:2161  amount */\n      dup2\n        /* \"contracts/staking.sol\":2140:2150  totalStake */\n      sload(0x02)\n        /* \"contracts/staking.sol\":2140:2154  totalStake.add */\n      tag_169\n      swap1\n        /* \"contracts/staking.sol\":2140:2162  totalStake.add(amount) */\n      swap2\n      swap1\n      0xffffffff\n      and\n      jump\t// in\n    tag_179:\n        /* \"contracts/staking.sol\":2127:2137  totalStake */\n      0x02\n        /* \"contracts/staking.sol\":2127:2162  totalStake = totalStake.add(amount) */\n      dup2\n      swap1\n      sstore\n      pop\n        /* \"contracts/staking.sol\":1352:2169  function depositStake (uint amount) external {... */\n      pop\n      jump\t// out\n        /* \"contracts/staking.sol\":732:758  IERC20 public rewardsToken */\n    tag_77:\n      0x01\n      0x00\n      swap1\n      sload\n      swap1\n      0x0100\n      exp\n      swap1\n      div\n      0xffffffffffffffffffffffffffffffffffffffff\n      and\n      dup2\n      jump\t// out\n        /* \"contracts/staking.sol\":2872:3125  function earned() view public returns(uint256){... */\n    tag_80:\n        /* \"contracts/staking.sol\":2910:2917  uint256 */\n      0x00\n        /* \"contracts/staking.sol\":2969:2970  0 */\n      dup1\n        /* \"contracts/staking.sol\":2936:2944  _balance */\n      0x08\n        /* \"contracts/staking.sol\":2936:2956  _balance[msg.sender] */\n      0x00\n        /* \"contracts/staking.sol\":2945:2955  msg.sender */\n      caller\n        /* \"contracts/staking.sol\":2936:2956  _balance[msg.sender] */\n      0xffffffffffffffffffffffffffffffffffffffff\n      and\n      0xffffffffffffffffffffffffffffffffffffffff\n      and\n      dup2\n      mstore\n      0x20\n      add\n      swap1\n      dup2\n      mstore\n      0x20\n      add\n      0x00\n      keccak256\n        /* \"contracts/staking.sol\":2936:2966  _balance[msg.sender][\"amount\"] */\n      mload(0x40)\n      tag_181\n      swap1\n      tag_87\n      jump\t// in\n    tag_181:\n      swap1\n      dup2\n      mstore\n      0x20\n      add\n      mload(0x40)\n      dup1\n      swap2\n      sub\n      swap1\n      keccak256\n      sload\n        /* \"contracts/staking.sol\":2936:2970  _balance[msg.sender][\"amount\"] > 0 */\n      gt\n        /* \"contracts/staking.sol\":2928:3005  require(_balance[msg.sender][\"amount\"] > 0, \"You have not staked any tokens\") */\n      tag_182\n      jumpi\n      mload(0x40)\n      0x08c379a000000000000000000000000000000000000000000000000000000000\n      dup2\n      mstore\n      0x04\n      add\n      tag_183\n      swap1\n      tag_106\n      jump\t// in\n    tag_183:\n      mload(0x40)\n      dup1\n      swap2\n      sub\n      swap1\n      revert\n    tag_182:\n        /* \"contracts/staking.sol\":3083:3091  _balance */\n      0x08\n        /* \"contracts/staking.sol\":3083:3103  _balance[msg.sender] */\n      0x00\n        /* \"contracts/staking.sol\":3092:3102  msg.sender */\n      caller\n        /* \"contracts/staking.sol\":3083:3103  _balance[msg.sender] */\n      0xffffffffffffffffffffffffffffffffffffffff\n      and\n      0xffffffffffffffffffffffffffffffffffffffff\n      and\n      dup2\n      mstore\n      0x20\n      add\n      swap1\n      dup2\n      mstore\n      0x20\n      add\n      0x00\n      keccak256\n        /* \"contracts/staking.sol\":3083:3116  _balance[msg.sender][\"updatedAt\"] */\n      mload(0x40)\n      tag_184\n      swap1\n      tag_172\n      jump\t// in\n    tag_184:\n      swap1\n      dup2\n      mstore\n      0x20\n      add\n      mload(0x40)\n      dup1\n      swap2\n      sub\n      swap1\n      keccak256\n      sload\n        /* \"contracts/staking.sol\":3065:3080  block.timestamp */\n      timestamp\n        /* \"contracts/staking.sol\":3065:3116  block.timestamp - _balance[msg.sender][\"updatedAt\"] */\n      tag_185\n      swap2\n      swap1\n      tag_124\n      jump\t// in\n    tag_185:\n        /* \"contracts/staking.sol\":3057:3061  rate */\n      sload(0x07)\n        /* \"contracts/staking.sol\":3024:3032  _balance */\n      0x08\n        /* \"contracts/staking.sol\":3024:3044  _balance[msg.sender] */\n      0x00\n        /* \"contracts/staking.sol\":3033:3043  msg.sender */\n      caller\n        /* \"contracts/staking.sol\":3024:3044  _balance[msg.sender] */\n      0xffffffffffffffffffffffffffffffffffffffff\n      and\n      0xffffffffffffffffffffffffffffffffffffffff\n      and\n      dup2\n      mstore\n      0x20\n      add\n      swap1\n      dup2\n      mstore\n      0x20\n      add\n      0x00\n      keccak256\n        /* \"contracts/staking.sol\":3024:3054  _balance[msg.sender][\"amount\"] */\n      mload(0x40)\n      tag_186\n      swap1\n      tag_87\n      jump\t// in\n    tag_186:\n      swap1\n      dup2\n      mstore\n      0x20\n      add\n      mload(0x40)\n      dup1\n      swap2\n      sub\n      swap1\n      keccak256\n      sload\n        /* \"contracts/staking.sol\":3024:3061  _balance[msg.sender][\"amount\"] * rate */\n      tag_187\n      swap2\n      swap1\n      tag_188\n      jump\t// in\n    tag_187:\n        /* \"contracts/staking.sol\":3024:3117  _balance[msg.sender][\"amount\"] * rate * (block.timestamp - _balance[msg.sender][\"updatedAt\"]) */\n      tag_189\n      swap2\n      swap1\n      tag_188\n      jump\t// in\n    tag_189:\n        /* \"contracts/staking.sol\":3016:3118  return (_balance[msg.sender][\"amount\"] * rate * (block.timestamp - _balance[msg.sender][\"updatedAt\"])) */\n      swap1\n      pop\n        /* \"contracts/staking.sol\":2872:3125  function earned() view public returns(uint256){... */\n      swap1\n      jump\t// out\n        /* \"contracts/staking.sol\":2438:2775  function setDuration(uint256 _duration) external{... */\n    tag_84:\n        /* \"contracts/staking.sol\":2515:2530  block.timestamp */\n      timestamp\n        /* \"contracts/staking.sol\":2504:2512  finishAt */\n      sload(0x05)\n        /* \"contracts/staking.sol\":2504:2530  finishAt < block.timestamp */\n      lt\n        /* \"contracts/staking.sol\":2496:2573  require(finishAt < block.timestamp, \"can't set date to a previous timestamp\") */\n      tag_191\n      jumpi\n      mload(0x40)\n      0x08c379a000000000000000000000000000000000000000000000000000000000\n      dup2\n      mstore\n      0x04\n      add\n      tag_192\n      swap1\n      tag_193\n      jump\t// in\n    tag_192:\n      mload(0x40)\n      dup1\n      swap2\n      sub\n      swap1\n      revert\n    tag_191:\n        /* \"contracts/staking.sol\":2598:2599  0 */\n      0x00\n        /* \"contracts/staking.sol\":2591:2595  rate */\n      sload(0x07)\n        /* \"contracts/staking.sol\":2591:2599  rate > 0 */\n      gt\n        /* \"contracts/staking.sol\":2583:2650  require(rate > 0, \"set reward rate before starting staking period\") */\n      tag_194\n      jumpi\n      mload(0x40)\n      0x08c379a000000000000000000000000000000000000000000000000000000000\n      dup2\n      mstore\n      0x04\n      add\n      tag_195\n      swap1\n      tag_196\n      jump\t// in\n    tag_195:\n      mload(0x40)\n      dup1\n      swap2\n      sub\n      swap1\n      revert\n    tag_194:\n        /* \"contracts/staking.sol\":2671:2680  _duration */\n      dup1\n        /* \"contracts/staking.sol\":2660:2668  duration */\n      0x04\n        /* \"contracts/staking.sol\":2660:2680  duration = _duration */\n      dup2\n      swap1\n      sstore\n      pop\n        /* \"contracts/staking.sol\":2701:2731  _duration.add(block.timestamp) */\n      tag_197\n        /* \"contracts/staking.sol\":2715:2730  block.timestamp */\n      timestamp\n        /* \"contracts/staking.sol\":2701:2710  _duration */\n      dup3\n        /* \"contracts/staking.sol\":2701:2714  _duration.add */\n      tag_169\n      swap1\n        /* \"contracts/staking.sol\":2701:2731  _duration.add(block.timestamp) */\n      swap2\n      swap1\n      0xffffffff\n      and\n      jump\t// in\n    tag_197:\n        /* \"contracts/staking.sol\":2690:2698  finishAt */\n      0x05\n        /* \"contracts/staking.sol\":2690:2731  finishAt = _duration.add(block.timestamp) */\n      dup2\n      swap1\n      sstore\n      pop\n        /* \"contracts/staking.sol\":2753:2768  block.timestamp */\n      timestamp\n        /* \"contracts/staking.sol\":2741:2750  updatedAt */\n      0x06\n        /* \"contracts/staking.sol\":2741:2768  updatedAt = block.timestamp */\n      dup2\n      swap1\n      sstore\n      pop\n        /* \"contracts/staking.sol\":2438:2775  function setDuration(uint256 _duration) external{... */\n      pop\n      jump\t// out\n        /* \"https://github.com/OpenZeppelin/openzeppelin-contracts/blob/master/contracts/utils/math/SafeMath.sol\":2755:2851  function add(uint256 a, uint256 b) internal pure returns (uint256) {... */\n    tag_169:\n        /* \"https://github.com/OpenZeppelin/openzeppelin-contracts/blob/master/contracts/utils/math/SafeMath.sol\":2813:2820  uint256 */\n      0x00\n        /* \"https://github.com/OpenZeppelin/openzeppelin-contracts/blob/master/contracts/utils/math/SafeMath.sol\":2843:2844  b */\n      dup2\n        /* \"https://github.com/OpenZeppelin/openzeppelin-contracts/blob/master/contracts/utils/math/SafeMath.sol\":2839:2840  a */\n      dup4\n        /* \"https://github.com/OpenZeppelin/openzeppelin-contracts/blob/master/contracts/utils/math/SafeMath.sol\":2839:2844  a + b */\n      tag_199\n      swap2\n      swap1\n      tag_109\n      jump\t// in\n    tag_199:\n        /* \"https://github.com/OpenZeppelin/openzeppelin-contracts/blob/master/contracts/utils/math/SafeMath.sol\":2832:2844  return a + b */\n      swap1\n      pop\n        /* \"https://github.com/OpenZeppelin/openzeppelin-contracts/blob/master/contracts/utils/math/SafeMath.sol\":2755:2851  function add(uint256 a, uint256 b) internal pure returns (uint256) {... */\n      swap3\n      swap2\n      pop\n      pop\n      jump\t// out\n        /* \"#utility.yul\":7:84   */\n    tag_200:\n        /* \"#utility.yul\":44:51   */\n      0x00\n        /* \"#utility.yul\":73:78   */\n      dup2\n        /* \"#utility.yul\":62:78   */\n      swap1\n      pop\n        /* \"#utility.yul\":7:84   */\n      swap2\n      swap1\n      pop\n      jump\t// out\n        /* \"#utility.yul\":90:208   */\n    tag_201:\n        /* \"#utility.yul\":177:201   */\n      tag_269\n        /* \"#utility.yul\":195:200   */\n      dup2\n        /* \"#utility.yul\":177:201   */\n      tag_200\n      jump\t// in\n    tag_269:\n        /* \"#utility.yul\":172:175   */\n      dup3\n        /* \"#utility.yul\":165:202   */\n      mstore\n        /* \"#utility.yul\":90:208   */\n      pop\n      pop\n      jump\t// out\n        /* \"#utility.yul\":214:436   */\n    tag_28:\n        /* \"#utility.yul\":307:311   */\n      0x00\n        /* \"#utility.yul\":345:347   */\n      0x20\n        /* \"#utility.yul\":334:343   */\n      dup3\n        /* \"#utility.yul\":330:348   */\n      add\n        /* \"#utility.yul\":322:348   */\n      swap1\n      pop\n        /* \"#utility.yul\":358:429   */\n      tag_271\n        /* \"#utility.yul\":426:427   */\n      0x00\n        /* \"#utility.yul\":415:424   */\n      dup4\n        /* \"#utility.yul\":411:428   */\n      add\n        /* \"#utility.yul\":402:408   */\n      dup5\n        /* \"#utility.yul\":358:429   */\n      tag_201\n      jump\t// in\n    tag_271:\n        /* \"#utility.yul\":214:436   */\n      swap3\n      swap2\n      pop\n      pop\n      jump\t// out\n        /* \"#utility.yul\":442:517   */\n    tag_202:\n        /* \"#utility.yul\":475:481   */\n      0x00\n        /* \"#utility.yul\":508:510   */\n      0x40\n        /* \"#utility.yul\":502:511   */\n      mload\n        /* \"#utility.yul\":492:511   */\n      swap1\n      pop\n        /* \"#utility.yul\":442:517   */\n      swap1\n      jump\t// out\n        /* \"#utility.yul\":523:640   */\n    tag_203:\n        /* \"#utility.yul\":632:633   */\n      0x00\n        /* \"#utility.yul\":629:630   */\n      dup1\n        /* \"#utility.yul\":622:634   */\n      revert\n        /* \"#utility.yul\":646:763   */\n    tag_204:\n        /* \"#utility.yul\":755:756   */\n      0x00\n        /* \"#utility.yul\":752:753   */\n      dup1\n        /* \"#utility.yul\":745:757   */\n      revert\n        /* \"#utility.yul\":769:895   */\n    tag_205:\n        /* \"#utility.yul\":806:813   */\n      0x00\n        /* \"#utility.yul\":846:888   */\n      0xffffffffffffffffffffffffffffffffffffffff\n        /* \"#utility.yul\":839:844   */\n      dup3\n        /* \"#utility.yul\":835:889   */\n      and\n        /* \"#utility.yul\":824:889   */\n      swap1\n      pop\n        /* \"#utility.yul\":769:895   */\n      swap2\n      swap1\n      pop\n      jump\t// out\n        /* \"#utility.yul\":901:997   */\n    tag_206:\n        /* \"#utility.yul\":938:945   */\n      0x00\n        /* \"#utility.yul\":967:991   */\n      tag_277\n        /* \"#utility.yul\":985:990   */\n      dup3\n        /* \"#utility.yul\":967:991   */\n      tag_205\n      jump\t// in\n    tag_277:\n        /* \"#utility.yul\":956:991   */\n      swap1\n      pop\n        /* \"#utility.yul\":901:997   */\n      swap2\n      swap1\n      pop\n      jump\t// out\n        /* \"#utility.yul\":1003:1125   */\n    tag_207:\n        /* \"#utility.yul\":1076:1100   */\n      tag_279\n        /* \"#utility.yul\":1094:1099   */\n      dup2\n        /* \"#utility.yul\":1076:1100   */\n      tag_206\n      jump\t// in\n    tag_279:\n        /* \"#utility.yul\":1069:1074   */\n      dup2\n        /* \"#utility.yul\":1066:1101   */\n      eq\n        /* \"#utility.yul\":1056:1119   */\n      tag_280\n      jumpi\n        /* \"#utility.yul\":1115:1116   */\n      0x00\n        /* \"#utility.yul\":1112:1113   */\n      dup1\n        /* \"#utility.yul\":1105:1117   */\n      revert\n        /* \"#utility.yul\":1056:1119   */\n    tag_280:\n        /* \"#utility.yul\":1003:1125   */\n      pop\n      jump\t// out\n        /* \"#utility.yul\":1131:1270   */\n    tag_208:\n        /* \"#utility.yul\":1177:1182   */\n      0x00\n        /* \"#utility.yul\":1215:1221   */\n      dup2\n        /* \"#utility.yul\":1202:1222   */\n      calldataload\n        /* \"#utility.yul\":1193:1222   */\n      swap1\n      pop\n        /* \"#utility.yul\":1231:1264   */\n      tag_282\n        /* \"#utility.yul\":1258:1263   */\n      dup2\n        /* \"#utility.yul\":1231:1264   */\n      tag_207\n      jump\t// in\n    tag_282:\n        /* \"#utility.yul\":1131:1270   */\n      swap3\n      swap2\n      pop\n      pop\n      jump\t// out\n        /* \"#utility.yul\":1276:1393   */\n    tag_209:\n        /* \"#utility.yul\":1385:1386   */\n      0x00\n        /* \"#utility.yul\":1382:1383   */\n      dup1\n        /* \"#utility.yul\":1375:1387   */\n      revert\n        /* \"#utility.yul\":1399:1516   */\n    tag_210:\n        /* \"#utility.yul\":1508:1509   */\n      0x00\n        /* \"#utility.yul\":1505:1506   */\n      dup1\n        /* \"#utility.yul\":1498:1510   */\n      revert\n        /* \"#utility.yul\":1522:1624   */\n    tag_211:\n        /* \"#utility.yul\":1563:1569   */\n      0x00\n        /* \"#utility.yul\":1614:1616   */\n      0x1f\n        /* \"#utility.yul\":1610:1617   */\n      not\n        /* \"#utility.yul\":1605:1607   */\n      0x1f\n        /* \"#utility.yul\":1598:1603   */\n      dup4\n        /* \"#utility.yul\":1594:1608   */\n      add\n        /* \"#utility.yul\":1590:1618   */\n      and\n        /* \"#utility.yul\":1580:1618   */\n      swap1\n      pop\n        /* \"#utility.yul\":1522:1624   */\n      swap2\n      swap1\n      pop\n      jump\t// out\n        /* \"#utility.yul\":1630:1810   */\n    tag_212:\n        /* \"#utility.yul\":1678:1755   */\n      0x4e487b7100000000000000000000000000000000000000000000000000000000\n        /* \"#utility.yul\":1675:1676   */\n      0x00\n        /* \"#utility.yul\":1668:1756   */\n      mstore\n        /* \"#utility.yul\":1775:1779   */\n      0x41\n        /* \"#utility.yul\":1772:1773   */\n      0x04\n        /* \"#utility.yul\":1765:1780   */\n      mstore\n        /* \"#utility.yul\":1799:1803   */\n      0x24\n        /* \"#utility.yul\":1796:1797   */\n      0x00\n        /* \"#utility.yul\":1789:1804   */\n      revert\n        /* \"#utility.yul\":1816:2097   */\n    tag_213:\n        /* \"#utility.yul\":1899:1926   */\n      tag_288\n        /* \"#utility.yul\":1921:1925   */\n      dup3\n        /* \"#utility.yul\":1899:1926   */\n      tag_211\n      jump\t// in\n    tag_288:\n        /* \"#utility.yul\":1891:1897   */\n      dup2\n        /* \"#utility.yul\":1887:1927   */\n      add\n        /* \"#utility.yul\":2029:2035   */\n      dup2\n        /* \"#utility.yul\":2017:2027   */\n      dup2\n        /* \"#utility.yul\":2014:2036   */\n      lt\n        /* \"#utility.yul\":1993:2011   */\n      0xffffffffffffffff\n        /* \"#utility.yul\":1981:1991   */\n      dup3\n        /* \"#utility.yul\":1978:2012   */\n      gt\n        /* \"#utility.yul\":1975:2037   */\n      or\n        /* \"#utility.yul\":1972:2060   */\n      iszero\n      tag_289\n      jumpi\n        /* \"#utility.yul\":2040:2058   */\n      tag_290\n      tag_212\n      jump\t// in\n    tag_290:\n        /* \"#utility.yul\":1972:2060   */\n    tag_289:\n        /* \"#utility.yul\":2080:2090   */\n      dup1\n        /* \"#utility.yul\":2076:2078   */\n      0x40\n        /* \"#utility.yul\":2069:2091   */\n      mstore\n        /* \"#utility.yul\":1859:2097   */\n      pop\n        /* \"#utility.yul\":1816:2097   */\n      pop\n      pop\n      jump\t// out\n        /* \"#utility.yul\":2103:2232   */\n    tag_214:\n        /* \"#utility.yul\":2137:2143   */\n      0x00\n        /* \"#utility.yul\":2164:2184   */\n      tag_292\n      tag_202\n      jump\t// in\n    tag_292:\n        /* \"#utility.yul\":2154:2184   */\n      swap1\n      pop\n        /* \"#utility.yul\":2193:2226   */\n      tag_293\n        /* \"#utility.yul\":2221:2225   */\n      dup3\n        /* \"#utility.yul\":2213:2219   */\n      dup3\n        /* \"#utility.yul\":2193:2226   */\n      tag_213\n      jump\t// in\n    tag_293:\n        /* \"#utility.yul\":2103:2232   */\n      swap2\n      swap1\n      pop\n      jump\t// out\n        /* \"#utility.yul\":2238:2546   */\n    tag_215:\n        /* \"#utility.yul\":2300:2304   */\n      0x00\n        /* \"#utility.yul\":2390:2408   */\n      0xffffffffffffffff\n        /* \"#utility.yul\":2382:2388   */\n      dup3\n        /* \"#utility.yul\":2379:2409   */\n      gt\n        /* \"#utility.yul\":2376:2432   */\n      iszero\n      tag_295\n      jumpi\n        /* \"#utility.yul\":2412:2430   */\n      tag_296\n      tag_212\n      jump\t// in\n    tag_296:\n        /* \"#utility.yul\":2376:2432   */\n    tag_295:\n        /* \"#utility.yul\":2450:2479   */\n      tag_297\n        /* \"#utility.yul\":2472:2478   */\n      dup3\n        /* \"#utility.yul\":2450:2479   */\n      tag_211\n      jump\t// in\n    tag_297:\n        /* \"#utility.yul\":2442:2479   */\n      swap1\n      pop\n        /* \"#utility.yul\":2534:2538   */\n      0x20\n        /* \"#utility.yul\":2528:2532   */\n      dup2\n        /* \"#utility.yul\":2524:2539   */\n      add\n        /* \"#utility.yul\":2516:2539   */\n      swap1\n      pop\n        /* \"#utility.yul\":2238:2546   */\n      swap2\n      swap1\n      pop\n      jump\t// out\n        /* \"#utility.yul\":2552:2698   */\n    tag_216:\n        /* \"#utility.yul\":2649:2655   */\n      dup3\n        /* \"#utility.yul\":2644:2647   */\n      dup2\n        /* \"#utility.yul\":2639:2642   */\n      dup4\n        /* \"#utility.yul\":2626:2656   */\n      calldatacopy\n        /* \"#utility.yul\":2690:2691   */\n      0x00\n        /* \"#utility.yul\":2681:2687   */\n      dup4\n        /* \"#utility.yul\":2676:2679   */\n      dup4\n        /* \"#utility.yul\":2672:2688   */\n      add\n        /* \"#utility.yul\":2665:2692   */\n      mstore\n        /* \"#utility.yul\":2552:2698   */\n      pop\n      pop\n      pop\n      jump\t// out\n        /* \"#utility.yul\":2704:3129   */\n    tag_217:\n        /* \"#utility.yul\":2782:2787   */\n      0x00\n        /* \"#utility.yul\":2807:2873   */\n      tag_300\n        /* \"#utility.yul\":2823:2872   */\n      tag_301\n        /* \"#utility.yul\":2865:2871   */\n      dup5\n        /* \"#utility.yul\":2823:2872   */\n      tag_215\n      jump\t// in\n    tag_301:\n        /* \"#utility.yul\":2807:2873   */\n      tag_214\n      jump\t// in\n    tag_300:\n        /* \"#utility.yul\":2798:2873   */\n      swap1\n      pop\n        /* \"#utility.yul\":2896:2902   */\n      dup3\n        /* \"#utility.yul\":2889:2894   */\n      dup2\n        /* \"#utility.yul\":2882:2903   */\n      mstore\n        /* \"#utility.yul\":2934:2938   */\n      0x20\n        /* \"#utility.yul\":2927:2932   */\n      dup2\n        /* \"#utility.yul\":2923:2939   */\n      add\n        /* \"#utility.yul\":2972:2975   */\n      dup5\n        /* \"#utility.yul\":2963:2969   */\n      dup5\n        /* \"#utility.yul\":2958:2961   */\n      dup5\n        /* \"#utility.yul\":2954:2970   */\n      add\n        /* \"#utility.yul\":2951:2976   */\n      gt\n        /* \"#utility.yul\":2948:3060   */\n      iszero\n      tag_302\n      jumpi\n        /* \"#utility.yul\":2979:3058   */\n      tag_303\n      tag_210\n      jump\t// in\n    tag_303:\n        /* \"#utility.yul\":2948:3060   */\n    tag_302:\n        /* \"#utility.yul\":3069:3123   */\n      tag_304\n        /* \"#utility.yul\":3116:3122   */\n      dup5\n        /* \"#utility.yul\":3111:3114   */\n      dup3\n        /* \"#utility.yul\":3106:3109   */\n      dup6\n        /* \"#utility.yul\":3069:3123   */\n      tag_216\n      jump\t// in\n    tag_304:\n        /* \"#utility.yul\":2788:3129   */\n      pop\n        /* \"#utility.yul\":2704:3129   */\n      swap4\n      swap3\n      pop\n      pop\n      pop\n      jump\t// out\n        /* \"#utility.yul\":3149:3489   */\n    tag_218:\n        /* \"#utility.yul\":3205:3210   */\n      0x00\n        /* \"#utility.yul\":3254:3257   */\n      dup3\n        /* \"#utility.yul\":3247:3251   */\n      0x1f\n        /* \"#utility.yul\":3239:3245   */\n      dup4\n        /* \"#utility.yul\":3235:3252   */\n      add\n        /* \"#utility.yul\":3231:3258   */\n      slt\n        /* \"#utility.yul\":3221:3343   */\n      tag_306\n      jumpi\n        /* \"#utility.yul\":3262:3341   */\n      tag_307\n      tag_209\n      jump\t// in\n    tag_307:\n        /* \"#utility.yul\":3221:3343   */\n    tag_306:\n        /* \"#utility.yul\":3379:3385   */\n      dup2\n        /* \"#utility.yul\":3366:3386   */\n      calldataload\n        /* \"#utility.yul\":3404:3483   */\n      tag_308\n        /* \"#utility.yul\":3479:3482   */\n      dup5\n        /* \"#utility.yul\":3471:3477   */\n      dup3\n        /* \"#utility.yul\":3464:3468   */\n      0x20\n        /* \"#utility.yul\":3456:3462   */\n      dup7\n        /* \"#utility.yul\":3452:3469   */\n      add\n        /* \"#utility.yul\":3404:3483   */\n      tag_217\n      jump\t// in\n    tag_308:\n        /* \"#utility.yul\":3395:3483   */\n      swap2\n      pop\n        /* \"#utility.yul\":3211:3489   */\n      pop\n        /* \"#utility.yul\":3149:3489   */\n      swap3\n      swap2\n      pop\n      pop\n      jump\t// out\n        /* \"#utility.yul\":3495:4149   */\n    tag_44:\n        /* \"#utility.yul\":3573:3579   */\n      0x00\n        /* \"#utility.yul\":3581:3587   */\n      dup1\n        /* \"#utility.yul\":3630:3632   */\n      0x40\n        /* \"#utility.yul\":3618:3627   */\n      dup4\n        /* \"#utility.yul\":3609:3616   */\n      dup6\n        /* \"#utility.yul\":3605:3628   */\n      sub\n        /* \"#utility.yul\":3601:3633   */\n      slt\n        /* \"#utility.yul\":3598:3717   */\n      iszero\n      tag_310\n      jumpi\n        /* \"#utility.yul\":3636:3715   */\n      tag_311\n      tag_203\n      jump\t// in\n    tag_311:\n        /* \"#utility.yul\":3598:3717   */\n    tag_310:\n        /* \"#utility.yul\":3756:3757   */\n      0x00\n        /* \"#utility.yul\":3781:3834   */\n      tag_312\n        /* \"#utility.yul\":3826:3833   */\n      dup6\n        /* \"#utility.yul\":3817:3823   */\n      dup3\n        /* \"#utility.yul\":3806:3815   */\n      dup7\n        /* \"#utility.yul\":3802:3824   */\n      add\n        /* \"#utility.yul\":3781:3834   */\n      tag_208\n      jump\t// in\n    tag_312:\n        /* \"#utility.yul\":3771:3834   */\n      swap3\n      pop\n        /* \"#utility.yul\":3727:3844   */\n      pop\n        /* \"#utility.yul\":3911:3913   */\n      0x20\n        /* \"#utility.yul\":3900:3909   */\n      dup4\n        /* \"#utility.yul\":3896:3914   */\n      add\n        /* \"#utility.yul\":3883:3915   */\n      calldataload\n        /* \"#utility.yul\":3942:3960   */\n      0xffffffffffffffff\n        /* \"#utility.yul\":3934:3940   */\n      dup2\n        /* \"#utility.yul\":3931:3961   */\n      gt\n        /* \"#utility.yul\":3928:4045   */\n      iszero\n      tag_313\n      jumpi\n        /* \"#utility.yul\":3964:4043   */\n      tag_314\n      tag_204\n      jump\t// in\n    tag_314:\n        /* \"#utility.yul\":3928:4045   */\n    tag_313:\n        /* \"#utility.yul\":4069:4132   */\n      tag_315\n        /* \"#utility.yul\":4124:4131   */\n      dup6\n        /* \"#utility.yul\":4115:4121   */\n      dup3\n        /* \"#utility.yul\":4104:4113   */\n      dup7\n        /* \"#utility.yul\":4100:4122   */\n      add\n        /* \"#utility.yul\":4069:4132   */\n      tag_218\n      jump\t// in\n    tag_315:\n        /* \"#utility.yul\":4059:4132   */\n      swap2\n      pop\n        /* \"#utility.yul\":3854:4142   */\n      pop\n        /* \"#utility.yul\":3495:4149   */\n      swap3\n      pop\n      swap3\n      swap1\n      pop\n      jump\t// out\n        /* \"#utility.yul\":4155:4277   */\n    tag_219:\n        /* \"#utility.yul\":4228:4252   */\n      tag_317\n        /* \"#utility.yul\":4246:4251   */\n      dup2\n        /* \"#utility.yul\":4228:4252   */\n      tag_200\n      jump\t// in\n    tag_317:\n        /* \"#utility.yul\":4221:4226   */\n      dup2\n        /* \"#utility.yul\":4218:4253   */\n      eq\n        /* \"#utility.yul\":4208:4271   */\n      tag_318\n      jumpi\n        /* \"#utility.yul\":4267:4268   */\n      0x00\n        /* \"#utility.yul\":4264:4265   */\n      dup1\n        /* \"#utility.yul\":4257:4269   */\n      revert\n        /* \"#utility.yul\":4208:4271   */\n    tag_318:\n        /* \"#utility.yul\":4155:4277   */\n      pop\n      jump\t// out\n        /* \"#utility.yul\":4283:4422   */\n    tag_220:\n        /* \"#utility.yul\":4329:4334   */\n      0x00\n        /* \"#utility.yul\":4367:4373   */\n      dup2\n        /* \"#utility.yul\":4354:4374   */\n      calldataload\n        /* \"#utility.yul\":4345:4374   */\n      swap1\n      pop\n        /* \"#utility.yul\":4383:4416   */\n      tag_320\n        /* \"#utility.yul\":4410:4415   */\n      dup2\n        /* \"#utility.yul\":4383:4416   */\n      tag_219\n      jump\t// in\n    tag_320:\n        /* \"#utility.yul\":4283:4422   */\n      swap3\n      swap2\n      pop\n      pop\n      jump\t// out\n        /* \"#utility.yul\":4428:4757   */\n    tag_49:\n        /* \"#utility.yul\":4487:4493   */\n      0x00\n        /* \"#utility.yul\":4536:4538   */\n      0x20\n        /* \"#utility.yul\":4524:4533   */\n      dup3\n        /* \"#utility.yul\":4515:4522   */\n      dup5\n        /* \"#utility.yul\":4511:4534   */\n      sub\n        /* \"#utility.yul\":4507:4539   */\n      slt\n        /* \"#utility.yul\":4504:4623   */\n      iszero\n      tag_322\n      jumpi\n        /* \"#utility.yul\":4542:4621   */\n      tag_323\n      tag_203\n      jump\t// in\n    tag_323:\n        /* \"#utility.yul\":4504:4623   */\n    tag_322:\n        /* \"#utility.yul\":4662:4663   */\n      0x00\n        /* \"#utility.yul\":4687:4740   */\n      tag_324\n        /* \"#utility.yul\":4732:4739   */\n      dup5\n        /* \"#utility.yul\":4723:4729   */\n      dup3\n        /* \"#utility.yul\":4712:4721   */\n      dup6\n        /* \"#utility.yul\":4708:4730   */\n      add\n        /* \"#utility.yul\":4687:4740   */\n      tag_220\n      jump\t// in\n    tag_324:\n        /* \"#utility.yul\":4677:4740   */\n      swap2\n      pop\n        /* \"#utility.yul\":4633:4750   */\n      pop\n        /* \"#utility.yul\":4428:4757   */\n      swap3\n      swap2\n      pop\n      pop\n      jump\t// out\n        /* \"#utility.yul\":4763:4823   */\n    tag_221:\n        /* \"#utility.yul\":4791:4794   */\n      0x00\n        /* \"#utility.yul\":4812:4817   */\n      dup2\n        /* \"#utility.yul\":4805:4817   */\n      swap1\n      pop\n        /* \"#utility.yul\":4763:4823   */\n      swap2\n      swap1\n      pop\n      jump\t// out\n        /* \"#utility.yul\":4829:4971   */\n    tag_222:\n        /* \"#utility.yul\":4879:4888   */\n      0x00\n        /* \"#utility.yul\":4912:4965   */\n      tag_327\n        /* \"#utility.yul\":4930:4964   */\n      tag_328\n        /* \"#utility.yul\":4939:4963   */\n      tag_329\n        /* \"#utility.yul\":4957:4962   */\n      dup5\n        /* \"#utility.yul\":4939:4963   */\n      tag_205\n      jump\t// in\n    tag_329:\n        /* \"#utility.yul\":4930:4964   */\n      tag_221\n      jump\t// in\n    tag_328:\n        /* \"#utility.yul\":4912:4965   */\n      tag_205\n      jump\t// in\n    tag_327:\n        /* \"#utility.yul\":4899:4965   */\n      swap1\n      pop\n        /* \"#utility.yul\":4829:4971   */\n      swap2\n      swap1\n      pop\n      jump\t// out\n        /* \"#utility.yul\":4977:5103   */\n    tag_223:\n        /* \"#utility.yul\":5027:5036   */\n      0x00\n        /* \"#utility.yul\":5060:5097   */\n      tag_331\n        /* \"#utility.yul\":5091:5096   */\n      dup3\n        /* \"#utility.yul\":5060:5097   */\n      tag_222\n      jump\t// in\n    tag_331:\n        /* \"#utility.yul\":5047:5097   */\n      swap1\n      pop\n        /* \"#utility.yul\":4977:5103   */\n      swap2\n      swap1\n      pop\n      jump\t// out\n        /* \"#utility.yul\":5109:5249   */\n    tag_224:\n        /* \"#utility.yul\":5173:5182   */\n      0x00\n        /* \"#utility.yul\":5206:5243   */\n      tag_333\n        /* \"#utility.yul\":5237:5242   */\n      dup3\n        /* \"#utility.yul\":5206:5243   */\n      tag_223\n      jump\t// in\n    tag_333:\n        /* \"#utility.yul\":5193:5243   */\n      swap1\n      pop\n        /* \"#utility.yul\":5109:5249   */\n      swap2\n      swap1\n      pop\n      jump\t// out\n        /* \"#utility.yul\":5255:5414   */\n    tag_225:\n        /* \"#utility.yul\":5356:5407   */\n      tag_335\n        /* \"#utility.yul\":5401:5406   */\n      dup2\n        /* \"#utility.yul\":5356:5407   */\n      tag_224\n      jump\t// in\n    tag_335:\n        /* \"#utility.yul\":5351:5354   */\n      dup3\n        /* \"#utility.yul\":5344:5408   */\n      mstore\n        /* \"#utility.yul\":5255:5414   */\n      pop\n      pop\n      jump\t// out\n        /* \"#utility.yul\":5420:5670   */\n    tag_57:\n        /* \"#utility.yul\":5527:5531   */\n      0x00\n        /* \"#utility.yul\":5565:5567   */\n      0x20\n        /* \"#utility.yul\":5554:5563   */\n      dup3\n        /* \"#utility.yul\":5550:5568   */\n      add\n        /* \"#utility.yul\":5542:5568   */\n      swap1\n      pop\n        /* \"#utility.yul\":5578:5663   */\n      tag_337\n        /* \"#utility.yul\":5660:5661   */\n      0x00\n        /* \"#utility.yul\":5649:5658   */\n      dup4\n        /* \"#utility.yul\":5645:5662   */\n      add\n        /* \"#utility.yul\":5636:5642   */\n      dup5\n        /* \"#utility.yul\":5578:5663   */\n      tag_225\n      jump\t// in\n    tag_337:\n        /* \"#utility.yul\":5420:5670   */\n      swap3\n      swap2\n      pop\n      pop\n      jump\t// out\n        /* \"#utility.yul\":5676:5824   */\n    tag_226:\n        /* \"#utility.yul\":5778:5789   */\n      0x00\n        /* \"#utility.yul\":5815:5818   */\n      dup2\n        /* \"#utility.yul\":5800:5818   */\n      swap1\n      pop\n        /* \"#utility.yul\":5676:5824   */\n      swap3\n      swap2\n      pop\n      pop\n      jump\t// out\n        /* \"#utility.yul\":5830:5986   */\n    tag_227:\n        /* \"#utility.yul\":5970:5978   */\n      0x616d6f756e740000000000000000000000000000000000000000000000000000\n        /* \"#utility.yul\":5966:5967   */\n      0x00\n        /* \"#utility.yul\":5958:5964   */\n      dup3\n        /* \"#utility.yul\":5954:5968   */\n      add\n        /* \"#utility.yul\":5947:5979   */\n      mstore\n        /* \"#utility.yul\":5830:5986   */\n      pop\n      jump\t// out\n        /* \"#utility.yul\":5992:6392   */\n    tag_228:\n        /* \"#utility.yul\":6152:6155   */\n      0x00\n        /* \"#utility.yul\":6173:6257   */\n      tag_341\n        /* \"#utility.yul\":6255:6256   */\n      0x06\n        /* \"#utility.yul\":6250:6253   */\n      dup4\n        /* \"#utility.yul\":6173:6257   */\n      tag_226\n      jump\t// in\n    tag_341:\n        /* \"#utility.yul\":6166:6257   */\n      swap2\n      pop\n        /* \"#utility.yul\":6266:6359   */\n      tag_342\n        /* \"#utility.yul\":6355:6358   */\n      dup3\n        /* \"#utility.yul\":6266:6359   */\n      tag_227\n      jump\t// in\n    tag_342:\n        /* \"#utility.yul\":6384:6385   */\n      0x06\n        /* \"#utility.yul\":6379:6382   */\n      dup3\n        /* \"#utility.yul\":6375:6386   */\n      add\n        /* \"#utility.yul\":6368:6386   */\n      swap1\n      pop\n        /* \"#utility.yul\":5992:6392   */\n      swap2\n      swap1\n      pop\n      jump\t// out\n        /* \"#utility.yul\":6398:6779   */\n    tag_87:\n        /* \"#utility.yul\":6583:6586   */\n      0x00\n        /* \"#utility.yul\":6605:6753   */\n      tag_344\n        /* \"#utility.yul\":6749:6752   */\n      dup3\n        /* \"#utility.yul\":6605:6753   */\n      tag_228\n      jump\t// in\n    tag_344:\n        /* \"#utility.yul\":6598:6753   */\n      swap2\n      pop\n        /* \"#utility.yul\":6770:6773   */\n      dup2\n        /* \"#utility.yul\":6763:6773   */\n      swap1\n      pop\n        /* \"#utility.yul\":6398:6779   */\n      swap2\n      swap1\n      pop\n      jump\t// out\n        /* \"#utility.yul\":6785:6954   */\n    tag_229:\n        /* \"#utility.yul\":6869:6880   */\n      0x00\n        /* \"#utility.yul\":6903:6909   */\n      dup3\n        /* \"#utility.yul\":6898:6901   */\n      dup3\n        /* \"#utility.yul\":6891:6910   */\n      mstore\n        /* \"#utility.yul\":6943:6947   */\n      0x20\n        /* \"#utility.yul\":6938:6941   */\n      dup3\n        /* \"#utility.yul\":6934:6948   */\n      add\n        /* \"#utility.yul\":6919:6948   */\n      swap1\n      pop\n        /* \"#utility.yul\":6785:6954   */\n      swap3\n      swap2\n      pop\n      pop\n      jump\t// out\n        /* \"#utility.yul\":6960:7185   */\n    tag_230:\n        /* \"#utility.yul\":7100:7134   */\n      0x5573657220646f6573206e6f742068617665207374616b657320696e20746869\n        /* \"#utility.yul\":7096:7097   */\n      0x00\n        /* \"#utility.yul\":7088:7094   */\n      dup3\n        /* \"#utility.yul\":7084:7098   */\n      add\n        /* \"#utility.yul\":7077:7135   */\n      mstore\n        /* \"#utility.yul\":7169:7177   */\n      0x7320706f6f6c0000000000000000000000000000000000000000000000000000\n        /* \"#utility.yul\":7164:7166   */\n      0x20\n        /* \"#utility.yul\":7156:7162   */\n      dup3\n        /* \"#utility.yul\":7152:7167   */\n      add\n        /* \"#utility.yul\":7145:7178   */\n      mstore\n        /* \"#utility.yul\":6960:7185   */\n      pop\n      jump\t// out\n        /* \"#utility.yul\":7191:7557   */\n    tag_231:\n        /* \"#utility.yul\":7333:7336   */\n      0x00\n        /* \"#utility.yul\":7354:7421   */\n      tag_348\n        /* \"#utility.yul\":7418:7420   */\n      0x26\n        /* \"#utility.yul\":7413:7416   */\n      dup4\n        /* \"#utility.yul\":7354:7421   */\n      tag_229\n      jump\t// in\n    tag_348:\n        /* \"#utility.yul\":7347:7421   */\n      swap2\n      pop\n        /* \"#utility.yul\":7430:7523   */\n      tag_349\n        /* \"#utility.yul\":7519:7522   */\n      dup3\n        /* \"#utility.yul\":7430:7523   */\n      tag_230\n      jump\t// in\n    tag_349:\n        /* \"#utility.yul\":7548:7550   */\n      0x40\n        /* \"#utility.yul\":7543:7546   */\n      dup3\n        /* \"#utility.yul\":7539:7551   */\n      add\n        /* \"#utility.yul\":7532:7551   */\n      swap1\n      pop\n        /* \"#utility.yul\":7191:7557   */\n      swap2\n      swap1\n      pop\n      jump\t// out\n        /* \"#utility.yul\":7563:7982   */\n    tag_90:\n        /* \"#utility.yul\":7729:7733   */\n      0x00\n        /* \"#utility.yul\":7767:7769   */\n      0x20\n        /* \"#utility.yul\":7756:7765   */\n      dup3\n        /* \"#utility.yul\":7752:7770   */\n      add\n        /* \"#utility.yul\":7744:7770   */\n      swap1\n      pop\n        /* \"#utility.yul\":7816:7825   */\n      dup2\n        /* \"#utility.yul\":7810:7814   */\n      dup2\n        /* \"#utility.yul\":7806:7826   */\n      sub\n        /* \"#utility.yul\":7802:7803   */\n      0x00\n        /* \"#utility.yul\":7791:7800   */\n      dup4\n        /* \"#utility.yul\":7787:7804   */\n      add\n        /* \"#utility.yul\":7780:7827   */\n      mstore\n        /* \"#utility.yul\":7844:7975   */\n      tag_351\n        /* \"#utility.yul\":7970:7974   */\n      dup2\n        /* \"#utility.yul\":7844:7975   */\n      tag_231\n      jump\t// in\n    tag_351:\n        /* \"#utility.yul\":7836:7975   */\n      swap1\n      pop\n        /* \"#utility.yul\":7563:7982   */\n      swap2\n      swap1\n      pop\n      jump\t// out\n        /* \"#utility.yul\":7988:8106   */\n    tag_232:\n        /* \"#utility.yul\":8075:8099   */\n      tag_353\n        /* \"#utility.yul\":8093:8098   */\n      dup2\n        /* \"#utility.yul\":8075:8099   */\n      tag_206\n      jump\t// in\n    tag_353:\n        /* \"#utility.yul\":8070:8073   */\n      dup3\n        /* \"#utility.yul\":8063:8100   */\n      mstore\n        /* \"#utility.yul\":7988:8106   */\n      pop\n      pop\n      jump\t// out\n        /* \"#utility.yul\":8112:8444   */\n    tag_93:\n        /* \"#utility.yul\":8233:8237   */\n      0x00\n        /* \"#utility.yul\":8271:8273   */\n      0x40\n        /* \"#utility.yul\":8260:8269   */\n      dup3\n        /* \"#utility.yul\":8256:8274   */\n      add\n        /* \"#utility.yul\":8248:8274   */\n      swap1\n      pop\n        /* \"#utility.yul\":8284:8355   */\n      tag_355\n        /* \"#utility.yul\":8352:8353   */\n      0x00\n        /* \"#utility.yul\":8341:8350   */\n      dup4\n        /* \"#utility.yul\":8337:8354   */\n      add\n        /* \"#utility.yul\":8328:8334   */\n      dup6\n        /* \"#utility.yul\":8284:8355   */\n      tag_232\n      jump\t// in\n    tag_355:\n        /* \"#utility.yul\":8365:8437   */\n      tag_356\n        /* \"#utility.yul\":8433:8435   */\n      0x20\n        /* \"#utility.yul\":8422:8431   */\n      dup4\n        /* \"#utility.yul\":8418:8436   */\n      add\n        /* \"#utility.yul\":8409:8415   */\n      dup5\n        /* \"#utility.yul\":8365:8437   */\n      tag_201\n      jump\t// in\n    tag_356:\n        /* \"#utility.yul\":8112:8444   */\n      swap4\n      swap3\n      pop\n      pop\n      pop\n      jump\t// out\n        /* \"#utility.yul\":8450:8540   */\n    tag_233:\n        /* \"#utility.yul\":8484:8491   */\n      0x00\n        /* \"#utility.yul\":8527:8532   */\n      dup2\n        /* \"#utility.yul\":8520:8533   */\n      iszero\n        /* \"#utility.yul\":8513:8534   */\n      iszero\n        /* \"#utility.yul\":8502:8534   */\n      swap1\n      pop\n        /* \"#utility.yul\":8450:8540   */\n      swap2\n      swap1\n      pop\n      jump\t// out\n        /* \"#utility.yul\":8546:8662   */\n    tag_234:\n        /* \"#utility.yul\":8616:8637   */\n      tag_359\n        /* \"#utility.yul\":8631:8636   */\n      dup2\n        /* \"#utility.yul\":8616:8637   */\n      tag_233\n      jump\t// in\n    tag_359:\n        /* \"#utility.yul\":8609:8614   */\n      dup2\n        /* \"#utility.yul\":8606:8638   */\n      eq\n        /* \"#utility.yul\":8596:8656   */\n      tag_360\n      jumpi\n        /* \"#utility.yul\":8652:8653   */\n      0x00\n        /* \"#utility.yul\":8649:8650   */\n      dup1\n        /* \"#utility.yul\":8642:8654   */\n      revert\n        /* \"#utility.yul\":8596:8656   */\n    tag_360:\n        /* \"#utility.yul\":8546:8662   */\n      pop\n      jump\t// out\n        /* \"#utility.yul\":8668:8805   */\n    tag_235:\n        /* \"#utility.yul\":8722:8727   */\n      0x00\n        /* \"#utility.yul\":8753:8759   */\n      dup2\n        /* \"#utility.yul\":8747:8760   */\n      mload\n        /* \"#utility.yul\":8738:8760   */\n      swap1\n      pop\n        /* \"#utility.yul\":8769:8799   */\n      tag_362\n        /* \"#utility.yul\":8793:8798   */\n      dup2\n        /* \"#utility.yul\":8769:8799   */\n      tag_234\n      jump\t// in\n    tag_362:\n        /* \"#utility.yul\":8668:8805   */\n      swap3\n      swap2\n      pop\n      pop\n      jump\t// out\n        /* \"#utility.yul\":8811:9156   */\n    tag_97:\n        /* \"#utility.yul\":8878:8884   */\n      0x00\n        /* \"#utility.yul\":8927:8929   */\n      0x20\n        /* \"#utility.yul\":8915:8924   */\n      dup3\n        /* \"#utility.yul\":8906:8913   */\n      dup5\n        /* \"#utility.yul\":8902:8925   */\n      sub\n        /* \"#utility.yul\":8898:8930   */\n      slt\n        /* \"#utility.yul\":8895:9014   */\n      iszero\n      tag_364\n      jumpi\n        /* \"#utility.yul\":8933:9012   */\n      tag_365\n      tag_203\n      jump\t// in\n    tag_365:\n        /* \"#utility.yul\":8895:9014   */\n    tag_364:\n        /* \"#utility.yul\":9053:9054   */\n      0x00\n        /* \"#utility.yul\":9078:9139   */\n      tag_366\n        /* \"#utility.yul\":9131:9138   */\n      dup5\n        /* \"#utility.yul\":9122:9128   */\n      dup3\n        /* \"#utility.yul\":9111:9120   */\n      dup6\n        /* \"#utility.yul\":9107:9129   */\n      add\n        /* \"#utility.yul\":9078:9139   */\n      tag_235\n      jump\t// in\n    tag_366:\n        /* \"#utility.yul\":9068:9139   */\n      swap2\n      pop\n        /* \"#utility.yul\":9024:9149   */\n      pop\n        /* \"#utility.yul\":8811:9156   */\n      swap3\n      swap2\n      pop\n      pop\n      jump\t// out\n        /* \"#utility.yul\":9162:9337   */\n    tag_236:\n        /* \"#utility.yul\":9302:9329   */\n      0x4661696c656420746f207472616e7366657220746f6b656e7300000000000000\n        /* \"#utility.yul\":9298:9299   */\n      0x00\n        /* \"#utility.yul\":9290:9296   */\n      dup3\n        /* \"#utility.yul\":9286:9300   */\n      add\n        /* \"#utility.yul\":9279:9330   */\n      mstore\n        /* \"#utility.yul\":9162:9337   */\n      pop\n      jump\t// out\n        /* \"#utility.yul\":9343:9709   */\n    tag_237:\n        /* \"#utility.yul\":9485:9488   */\n      0x00\n        /* \"#utility.yul\":9506:9573   */\n      tag_369\n        /* \"#utility.yul\":9570:9572   */\n      0x19\n        /* \"#utility.yul\":9565:9568   */\n      dup4\n        /* \"#utility.yul\":9506:9573   */\n      tag_229\n      jump\t// in\n    tag_369:\n        /* \"#utility.yul\":9499:9573   */\n      swap2\n      pop\n        /* \"#utility.yul\":9582:9675   */\n      tag_370\n        /* \"#utility.yul\":9671:9674   */\n      dup3\n        /* \"#utility.yul\":9582:9675   */\n      tag_236\n      jump\t// in\n    tag_370:\n        /* \"#utility.yul\":9700:9702   */\n      0x20\n        /* \"#utility.yul\":9695:9698   */\n      dup3\n        /* \"#utility.yul\":9691:9703   */\n      add\n        /* \"#utility.yul\":9684:9703   */\n      swap1\n      pop\n        /* \"#utility.yul\":9343:9709   */\n      swap2\n      swap1\n      pop\n      jump\t// out\n        /* \"#utility.yul\":9715:10134   */\n    tag_100:\n        /* \"#utility.yul\":9881:9885   */\n      0x00\n        /* \"#utility.yul\":9919:9921   */\n      0x20\n        /* \"#utility.yul\":9908:9917   */\n      dup3\n        /* \"#utility.yul\":9904:9922   */\n      add\n        /* \"#utility.yul\":9896:9922   */\n      swap1\n      pop\n        /* \"#utility.yul\":9968:9977   */\n      dup2\n        /* \"#utility.yul\":9962:9966   */\n      dup2\n        /* \"#utility.yul\":9958:9978   */\n      sub\n        /* \"#utility.yul\":9954:9955   */\n      0x00\n        /* \"#utility.yul\":9943:9952   */\n      dup4\n        /* \"#utility.yul\":9939:9956   */\n      add\n        /* \"#utility.yul\":9932:9979   */\n      mstore\n        /* \"#utility.yul\":9996:10127   */\n      tag_372\n        /* \"#utility.yul\":10122:10126   */\n      dup2\n        /* \"#utility.yul\":9996:10127   */\n      tag_237\n      jump\t// in\n    tag_372:\n        /* \"#utility.yul\":9988:10127   */\n      swap1\n      pop\n        /* \"#utility.yul\":9715:10134   */\n      swap2\n      swap1\n      pop\n      jump\t// out\n        /* \"#utility.yul\":10140:10320   */\n    tag_238:\n        /* \"#utility.yul\":10280:10312   */\n      0x596f752068617665206e6f74207374616b656420616e7920746f6b656e730000\n        /* \"#utility.yul\":10276:10277   */\n      0x00\n        /* \"#utility.yul\":10268:10274   */\n      dup3\n        /* \"#utility.yul\":10264:10278   */\n      add\n        /* \"#utility.yul\":10257:10313   */\n      mstore\n        /* \"#utility.yul\":10140:10320   */\n      pop\n      jump\t// out\n        /* \"#utility.yul\":10326:10692   */\n    tag_239:\n        /* \"#utility.yul\":10468:10471   */\n      0x00\n        /* \"#utility.yul\":10489:10556   */\n      tag_375\n        /* \"#utility.yul\":10553:10555   */\n      0x1e\n        /* \"#utility.yul\":10548:10551   */\n      dup4\n        /* \"#utility.yul\":10489:10556   */\n      tag_229\n      jump\t// in\n    tag_375:\n        /* \"#utility.yul\":10482:10556   */\n      swap2\n      pop\n        /* \"#utility.yul\":10565:10658   */\n      tag_376\n        /* \"#utility.yul\":10654:10657   */\n      dup3\n        /* \"#utility.yul\":10565:10658   */\n      tag_238\n      jump\t// in\n    tag_376:\n        /* \"#utility.yul\":10683:10685   */\n      0x20\n        /* \"#utility.yul\":10678:10681   */\n      dup3\n        /* \"#utility.yul\":10674:10686   */\n      add\n        /* \"#utility.yul\":10667:10686   */\n      swap1\n      pop\n        /* \"#utility.yul\":10326:10692   */\n      swap2\n      swap1\n      pop\n      jump\t// out\n        /* \"#utility.yul\":10698:11117   */\n    tag_106:\n        /* \"#utility.yul\":10864:10868   */\n      0x00\n        /* \"#utility.yul\":10902:10904   */\n      0x20\n        /* \"#utility.yul\":10891:10900   */\n      dup3\n        /* \"#utility.yul\":10887:10905   */\n      add\n        /* \"#utility.yul\":10879:10905   */\n      swap1\n      pop\n        /* \"#utility.yul\":10951:10960   */\n      dup2\n        /* \"#utility.yul\":10945:10949   */\n      dup2\n        /* \"#utility.yul\":10941:10961   */\n      sub\n        /* \"#utility.yul\":10937:10938   */\n      0x00\n        /* \"#utility.yul\":10926:10935   */\n      dup4\n        /* \"#utility.yul\":10922:10939   */\n      add\n        /* \"#utility.yul\":10915:10962   */\n      mstore\n        /* \"#utility.yul\":10979:11110   */\n      tag_378\n        /* \"#utility.yul\":11105:11109   */\n      dup2\n        /* \"#utility.yul\":10979:11110   */\n      tag_239\n      jump\t// in\n    tag_378:\n        /* \"#utility.yul\":10971:11110   */\n      swap1\n      pop\n        /* \"#utility.yul\":10698:11117   */\n      swap2\n      swap1\n      pop\n      jump\t// out\n        /* \"#utility.yul\":11123:11303   */\n    tag_240:\n        /* \"#utility.yul\":11171:11248   */\n      0x4e487b7100000000000000000000000000000000000000000000000000000000\n        /* \"#utility.yul\":11168:11169   */\n      0x00\n        /* \"#utility.yul\":11161:11249   */\n      mstore\n        /* \"#utility.yul\":11268:11272   */\n      0x11\n        /* \"#utility.yul\":11265:11266   */\n      0x04\n        /* \"#utility.yul\":11258:11273   */\n      mstore\n        /* \"#utility.yul\":11292:11296   */\n      0x24\n        /* \"#utility.yul\":11289:11290   */\n      0x00\n        /* \"#utility.yul\":11282:11297   */\n      revert\n        /* \"#utility.yul\":11309:11500   */\n    tag_109:\n        /* \"#utility.yul\":11349:11352   */\n      0x00\n        /* \"#utility.yul\":11368:11388   */\n      tag_381\n        /* \"#utility.yul\":11386:11387   */\n      dup3\n        /* \"#utility.yul\":11368:11388   */\n      tag_200\n      jump\t// in\n    tag_381:\n        /* \"#utility.yul\":11363:11388   */\n      swap2\n      pop\n        /* \"#utility.yul\":11402:11422   */\n      tag_382\n        /* \"#utility.yul\":11420:11421   */\n      dup4\n        /* \"#utility.yul\":11402:11422   */\n      tag_200\n      jump\t// in\n    tag_382:\n        /* \"#utility.yul\":11397:11422   */\n      swap3\n      pop\n        /* \"#utility.yul\":11445:11446   */\n      dup3\n        /* \"#utility.yul\":11442:11443   */\n      dup3\n        /* \"#utility.yul\":11438:11447   */\n      add\n        /* \"#utility.yul\":11431:11447   */\n      swap1\n      pop\n        /* \"#utility.yul\":11466:11469   */\n      dup1\n        /* \"#utility.yul\":11463:11464   */\n      dup3\n        /* \"#utility.yul\":11460:11470   */\n      gt\n        /* \"#utility.yul\":11457:11493   */\n      iszero\n      tag_383\n      jumpi\n        /* \"#utility.yul\":11473:11491   */\n      tag_384\n      tag_240\n      jump\t// in\n    tag_384:\n        /* \"#utility.yul\":11457:11493   */\n    tag_383:\n        /* \"#utility.yul\":11309:11500   */\n      swap3\n      swap2\n      pop\n      pop\n      jump\t// out\n        /* \"#utility.yul\":11506:11666   */\n    tag_241:\n        /* \"#utility.yul\":11646:11658   */\n      0x6c6f636b5374616b657300000000000000000000000000000000000000000000\n        /* \"#utility.yul\":11642:11643   */\n      0x00\n        /* \"#utility.yul\":11634:11640   */\n      dup3\n        /* \"#utility.yul\":11630:11644   */\n      add\n        /* \"#utility.yul\":11623:11659   */\n      mstore\n        /* \"#utility.yul\":11506:11666   */\n      pop\n      jump\t// out\n        /* \"#utility.yul\":11672:12074   */\n    tag_242:\n        /* \"#utility.yul\":11832:11835   */\n      0x00\n        /* \"#utility.yul\":11853:11938   */\n      tag_387\n        /* \"#utility.yul\":11935:11937   */\n      0x0a\n        /* \"#utility.yul\":11930:11933   */\n      dup4\n        /* \"#utility.yul\":11853:11938   */\n      tag_226\n      jump\t// in\n    tag_387:\n        /* \"#utility.yul\":11846:11938   */\n      swap2\n      pop\n        /* \"#utility.yul\":11947:12040   */\n      tag_388\n        /* \"#utility.yul\":12036:12039   */\n      dup3\n        /* \"#utility.yul\":11947:12040   */\n      tag_241\n      jump\t// in\n    tag_388:\n        /* \"#utility.yul\":12065:12067   */\n      0x0a\n        /* \"#utility.yul\":12060:12063   */\n      dup3\n        /* \"#utility.yul\":12056:12068   */\n      add\n        /* \"#utility.yul\":12049:12068   */\n      swap1\n      pop\n        /* \"#utility.yul\":11672:12074   */\n      swap2\n      swap1\n      pop\n      jump\t// out\n        /* \"#utility.yul\":12080:12461   */\n    tag_112:\n        /* \"#utility.yul\":12265:12268   */\n      0x00\n        /* \"#utility.yul\":12287:12435   */\n      tag_390\n        /* \"#utility.yul\":12431:12434   */\n      dup3\n        /* \"#utility.yul\":12287:12435   */\n      tag_242\n      jump\t// in\n    tag_390:\n        /* \"#utility.yul\":12280:12435   */\n      swap2\n      pop\n        /* \"#utility.yul\":12452:12455   */\n      dup2\n        /* \"#utility.yul\":12445:12455   */\n      swap1\n      pop\n        /* \"#utility.yul\":12080:12461   */\n      swap2\n      swap1\n      pop\n      jump\t// out\n        /* \"#utility.yul\":12467:12640   */\n    tag_243:\n        /* \"#utility.yul\":12607:12632   */\n      0x5374616b65732068617665206265656e206c6f636b6564000000000000000000\n        /* \"#utility.yul\":12603:12604   */\n      0x00\n        /* \"#utility.yul\":12595:12601   */\n      dup3\n        /* \"#utility.yul\":12591:12605   */\n      add\n        /* \"#utility.yul\":12584:12633   */\n      mstore\n        /* \"#utility.yul\":12467:12640   */\n      pop\n      jump\t// out\n        /* \"#utility.yul\":12646:13012   */\n    tag_244:\n        /* \"#utility.yul\":12788:12791   */\n      0x00\n        /* \"#utility.yul\":12809:12876   */\n      tag_393\n        /* \"#utility.yul\":12873:12875   */\n      0x17\n        /* \"#utility.yul\":12868:12871   */\n      dup4\n        /* \"#utility.yul\":12809:12876   */\n      tag_229\n      jump\t// in\n    tag_393:\n        /* \"#utility.yul\":12802:12876   */\n      swap2\n      pop\n        /* \"#utility.yul\":12885:12978   */\n      tag_394\n        /* \"#utility.yul\":12974:12977   */\n      dup3\n        /* \"#utility.yul\":12885:12978   */\n      tag_243\n      jump\t// in\n    tag_394:\n        /* \"#utility.yul\":13003:13005   */\n      0x20\n        /* \"#utility.yul\":12998:13001   */\n      dup3\n        /* \"#utility.yul\":12994:13006   */\n      add\n        /* \"#utility.yul\":12987:13006   */\n      swap1\n      pop\n        /* \"#utility.yul\":12646:13012   */\n      swap2\n      swap1\n      pop\n      jump\t// out\n        /* \"#utility.yul\":13018:13437   */\n    tag_115:\n        /* \"#utility.yul\":13184:13188   */\n      0x00\n        /* \"#utility.yul\":13222:13224   */\n      0x20\n        /* \"#utility.yul\":13211:13220   */\n      dup3\n        /* \"#utility.yul\":13207:13225   */\n      add\n        /* \"#utility.yul\":13199:13225   */\n      swap1\n      pop\n        /* \"#utility.yul\":13271:13280   */\n      dup2\n        /* \"#utility.yul\":13265:13269   */\n      dup2\n        /* \"#utility.yul\":13261:13281   */\n      sub\n        /* \"#utility.yul\":13257:13258   */\n      0x00\n        /* \"#utility.yul\":13246:13255   */\n      dup4\n        /* \"#utility.yul\":13242:13259   */\n      add\n        /* \"#utility.yul\":13235:13282   */\n      mstore\n        /* \"#utility.yul\":13299:13430   */\n      tag_396\n        /* \"#utility.yul\":13425:13429   */\n      dup2\n        /* \"#utility.yul\":13299:13430   */\n      tag_244\n      jump\t// in\n    tag_396:\n        /* \"#utility.yul\":13291:13430   */\n      swap1\n      pop\n        /* \"#utility.yul\":13018:13437   */\n      swap2\n      swap1\n      pop\n      jump\t// out\n        /* \"#utility.yul\":13443:13624   */\n    tag_245:\n        /* \"#utility.yul\":13583:13616   */\n      0x596f752068617665206e6f74206561726e656420616e79207265776172647300\n        /* \"#utility.yul\":13579:13580   */\n      0x00\n        /* \"#utility.yul\":13571:13577   */\n      dup3\n        /* \"#utility.yul\":13567:13581   */\n      add\n        /* \"#utility.yul\":13560:13617   */\n      mstore\n        /* \"#utility.yul\":13443:13624   */\n      pop\n      jump\t// out\n        /* \"#utility.yul\":13630:13996   */\n    tag_246:\n        /* \"#utility.yul\":13772:13775   */\n      0x00\n        /* \"#utility.yul\":13793:13860   */\n      tag_399\n        /* \"#utility.yul\":13857:13859   */\n      0x1f\n        /* \"#utility.yul\":13852:13855   */\n      dup4\n        /* \"#utility.yul\":13793:13860   */\n      tag_229\n      jump\t// in\n    tag_399:\n        /* \"#utility.yul\":13786:13860   */\n      swap2\n      pop\n        /* \"#utility.yul\":13869:13962   */\n      tag_400\n        /* \"#utility.yul\":13958:13961   */\n      dup3\n        /* \"#utility.yul\":13869:13962   */\n      tag_245\n      jump\t// in\n    tag_400:\n        /* \"#utility.yul\":13987:13989   */\n      0x20\n        /* \"#utility.yul\":13982:13985   */\n      dup3\n        /* \"#utility.yul\":13978:13990   */\n      add\n        /* \"#utility.yul\":13971:13990   */\n      swap1\n      pop\n        /* \"#utility.yul\":13630:13996   */\n      swap2\n      swap1\n      pop\n      jump\t// out\n        /* \"#utility.yul\":14002:14421   */\n    tag_122:\n        /* \"#utility.yul\":14168:14172   */\n      0x00\n        /* \"#utility.yul\":14206:14208   */\n      0x20\n        /* \"#utility.yul\":14195:14204   */\n      dup3\n        /* \"#utility.yul\":14191:14209   */\n      add\n        /* \"#utility.yul\":14183:14209   */\n      swap1\n      pop\n        /* \"#utility.yul\":14255:14264   */\n      dup2\n        /* \"#utility.yul\":14249:14253   */\n      dup2\n        /* \"#utility.yul\":14245:14265   */\n      sub\n        /* \"#utility.yul\":14241:14242   */\n      0x00\n        /* \"#utility.yul\":14230:14239   */\n      dup4\n        /* \"#utility.yul\":14226:14243   */\n      add\n        /* \"#utility.yul\":14219:14266   */\n      mstore\n        /* \"#utility.yul\":14283:14414   */\n      tag_402\n        /* \"#utility.yul\":14409:14413   */\n      dup2\n        /* \"#utility.yul\":14283:14414   */\n      tag_246\n      jump\t// in\n    tag_402:\n        /* \"#utility.yul\":14275:14414   */\n      swap1\n      pop\n        /* \"#utility.yul\":14002:14421   */\n      swap2\n      swap1\n      pop\n      jump\t// out\n        /* \"#utility.yul\":14427:14621   */\n    tag_124:\n        /* \"#utility.yul\":14467:14471   */\n      0x00\n        /* \"#utility.yul\":14487:14507   */\n      tag_404\n        /* \"#utility.yul\":14505:14506   */\n      dup3\n        /* \"#utility.yul\":14487:14507   */\n      tag_200\n      jump\t// in\n    tag_404:\n        /* \"#utility.yul\":14482:14507   */\n      swap2\n      pop\n        /* \"#utility.yul\":14521:14541   */\n      tag_405\n        /* \"#utility.yul\":14539:14540   */\n      dup4\n        /* \"#utility.yul\":14521:14541   */\n      tag_200\n      jump\t// in\n    tag_405:\n        /* \"#utility.yul\":14516:14541   */\n      swap3\n      pop\n        /* \"#utility.yul\":14565:14566   */\n      dup3\n        /* \"#utility.yul\":14562:14563   */\n      dup3\n        /* \"#utility.yul\":14558:14567   */\n      sub\n        /* \"#utility.yul\":14550:14567   */\n      swap1\n      pop\n        /* \"#utility.yul\":14589:14590   */\n      dup2\n        /* \"#utility.yul\":14583:14587   */\n      dup2\n        /* \"#utility.yul\":14580:14591   */\n      gt\n        /* \"#utility.yul\":14577:14614   */\n      iszero\n      tag_406\n      jumpi\n        /* \"#utility.yul\":14594:14612   */\n      tag_407\n      tag_240\n      jump\t// in\n    tag_407:\n        /* \"#utility.yul\":14577:14614   */\n    tag_406:\n        /* \"#utility.yul\":14427:14621   */\n      swap3\n      swap2\n      pop\n      pop\n      jump\t// out\n        /* \"#utility.yul\":14627:14847   */\n    tag_247:\n        /* \"#utility.yul\":14767:14801   */\n      0x596f7520646f6e2774206861766520656e6f75676820746f2077697468647261\n        /* \"#utility.yul\":14763:14764   */\n      0x00\n        /* \"#utility.yul\":14755:14761   */\n      dup3\n        /* \"#utility.yul\":14751:14765   */\n      add\n        /* \"#utility.yul\":14744:14802   */\n      mstore\n        /* \"#utility.yul\":14836:14839   */\n      0x7700000000000000000000000000000000000000000000000000000000000000\n        /* \"#utility.yul\":14831:14833   */\n      0x20\n        /* \"#utility.yul\":14823:14829   */\n      dup3\n        /* \"#utility.yul\":14819:14834   */\n      add\n        /* \"#utility.yul\":14812:14840   */\n      mstore\n        /* \"#utility.yul\":14627:14847   */\n      pop\n      jump\t// out\n        /* \"#utility.yul\":14853:15219   */\n    tag_248:\n        /* \"#utility.yul\":14995:14998   */\n      0x00\n        /* \"#utility.yul\":15016:15083   */\n      tag_410\n        /* \"#utility.yul\":15080:15082   */\n      0x21\n        /* \"#utility.yul\":15075:15078   */\n      dup4\n        /* \"#utility.yul\":15016:15083   */\n      tag_229\n      jump\t// in\n    tag_410:\n        /* \"#utility.yul\":15009:15083   */\n      swap2\n      pop\n        /* \"#utility.yul\":15092:15185   */\n      tag_411\n        /* \"#utility.yul\":15181:15184   */\n      dup3\n        /* \"#utility.yul\":15092:15185   */\n      tag_247\n      jump\t// in\n    tag_411:\n        /* \"#utility.yul\":15210:15212   */\n      0x40\n        /* \"#utility.yul\":15205:15208   */\n      dup3\n        /* \"#utility.yul\":15201:15213   */\n      add\n        /* \"#utility.yul\":15194:15213   */\n      swap1\n      pop\n        /* \"#utility.yul\":14853:15219   */\n      swap2\n      swap1\n      pop\n      jump\t// out\n        /* \"#utility.yul\":15225:15644   */\n    tag_127:\n        /* \"#utility.yul\":15391:15395   */\n      0x00\n        /* \"#utility.yul\":15429:15431   */\n      0x20\n        /* \"#utility.yul\":15418:15427   */\n      dup3\n        /* \"#utility.yul\":15414:15432   */\n      add\n        /* \"#utility.yul\":15406:15432   */\n      swap1\n      pop\n        /* \"#utility.yul\":15478:15487   */\n      dup2\n        /* \"#utility.yul\":15472:15476   */\n      dup2\n        /* \"#utility.yul\":15468:15488   */\n      sub\n        /* \"#utility.yul\":15464:15465   */\n      0x00\n        /* \"#utility.yul\":15453:15462   */\n      dup4\n        /* \"#utility.yul\":15449:15466   */\n      add\n        /* \"#utility.yul\":15442:15489   */\n      mstore\n        /* \"#utility.yul\":15506:15637   */\n      tag_413\n        /* \"#utility.yul\":15632:15636   */\n      dup2\n        /* \"#utility.yul\":15506:15637   */\n      tag_248\n      jump\t// in\n    tag_413:\n        /* \"#utility.yul\":15498:15637   */\n      swap1\n      pop\n        /* \"#utility.yul\":15225:15644   */\n      swap2\n      swap1\n      pop\n      jump\t// out\n        /* \"#utility.yul\":15650:15825   */\n    tag_249:\n        /* \"#utility.yul\":15790:15817   */\n      0x5374616b696e67207374696c6c20696e2070726f677265737300000000000000\n        /* \"#utility.yul\":15786:15787   */\n      0x00\n        /* \"#utility.yul\":15778:15784   */\n      dup3\n        /* \"#utility.yul\":15774:15788   */\n      add\n        /* \"#utility.yul\":15767:15818   */\n      mstore\n        /* \"#utility.yul\":15650:15825   */\n      pop\n      jump\t// out\n        /* \"#utility.yul\":15831:16197   */\n    tag_250:\n        /* \"#utility.yul\":15973:15976   */\n      0x00\n        /* \"#utility.yul\":15994:16061   */\n      tag_416\n        /* \"#utility.yul\":16058:16060   */\n      0x19\n        /* \"#utility.yul\":16053:16056   */\n      dup4\n        /* \"#utility.yul\":15994:16061   */\n      tag_229\n      jump\t// in\n    tag_416:\n        /* \"#utility.yul\":15987:16061   */\n      swap2\n      pop\n        /* \"#utility.yul\":16070:16163   */\n      tag_417\n        /* \"#utility.yul\":16159:16162   */\n      dup3\n        /* \"#utility.yul\":16070:16163   */\n      tag_249\n      jump\t// in\n    tag_417:\n        /* \"#utility.yul\":16188:16190   */\n      0x20\n        /* \"#utility.yul\":16183:16186   */\n      dup3\n        /* \"#utility.yul\":16179:16191   */\n      add\n        /* \"#utility.yul\":16172:16191   */\n      swap1\n      pop\n        /* \"#utility.yul\":15831:16197   */\n      swap2\n      swap1\n      pop\n      jump\t// out\n        /* \"#utility.yul\":16203:16622   */\n    tag_138:\n        /* \"#utility.yul\":16369:16373   */\n      0x00\n        /* \"#utility.yul\":16407:16409   */\n      0x20\n        /* \"#utility.yul\":16396:16405   */\n      dup3\n        /* \"#utility.yul\":16392:16410   */\n      add\n        /* \"#utility.yul\":16384:16410   */\n      swap1\n      pop\n        /* \"#utility.yul\":16456:16465   */\n      dup2\n        /* \"#utility.yul\":16450:16454   */\n      dup2\n        /* \"#utility.yul\":16446:16466   */\n      sub\n        /* \"#utility.yul\":16442:16443   */\n      0x00\n        /* \"#utility.yul\":16431:16440   */\n      dup4\n        /* \"#utility.yul\":16427:16444   */\n      add\n        /* \"#utility.yul\":16420:16467   */\n      mstore\n        /* \"#utility.yul\":16484:16615   */\n      tag_419\n        /* \"#utility.yul\":16610:16614   */\n      dup2\n        /* \"#utility.yul\":16484:16615   */\n      tag_250\n      jump\t// in\n    tag_419:\n        /* \"#utility.yul\":16476:16615   */\n      swap1\n      pop\n        /* \"#utility.yul\":16203:16622   */\n      swap2\n      swap1\n      pop\n      jump\t// out\n        /* \"#utility.yul\":16628:16800   */\n    tag_251:\n        /* \"#utility.yul\":16768:16792   */\n      0x2e4e6f207374616b696e6720706572696f642079657400000000000000000000\n        /* \"#utility.yul\":16764:16765   */\n      0x00\n        /* \"#utility.yul\":16756:16762   */\n      dup3\n        /* \"#utility.yul\":16752:16766   */\n      add\n        /* \"#utility.yul\":16745:16793   */\n      mstore\n        /* \"#utility.yul\":16628:16800   */\n      pop\n      jump\t// out\n        /* \"#utility.yul\":16806:17172   */\n    tag_252:\n        /* \"#utility.yul\":16948:16951   */\n      0x00\n        /* \"#utility.yul\":16969:17036   */\n      tag_422\n        /* \"#utility.yul\":17033:17035   */\n      0x16\n        /* \"#utility.yul\":17028:17031   */\n      dup4\n        /* \"#utility.yul\":16969:17036   */\n      tag_229\n      jump\t// in\n    tag_422:\n        /* \"#utility.yul\":16962:17036   */\n      swap2\n      pop\n        /* \"#utility.yul\":17045:17138   */\n      tag_423\n        /* \"#utility.yul\":17134:17137   */\n      dup3\n        /* \"#utility.yul\":17045:17138   */\n      tag_251\n      jump\t// in\n    tag_423:\n        /* \"#utility.yul\":17163:17165   */\n      0x20\n        /* \"#utility.yul\":17158:17161   */\n      dup3\n        /* \"#utility.yul\":17154:17166   */\n      add\n        /* \"#utility.yul\":17147:17166   */\n      swap1\n      pop\n        /* \"#utility.yul\":16806:17172   */\n      swap2\n      swap1\n      pop\n      jump\t// out\n        /* \"#utility.yul\":17178:17597   */\n    tag_145:\n        /* \"#utility.yul\":17344:17348   */\n      0x00\n        /* \"#utility.yul\":17382:17384   */\n      0x20\n        /* \"#utility.yul\":17371:17380   */\n      dup3\n        /* \"#utility.yul\":17367:17385   */\n      add\n        /* \"#utility.yul\":17359:17385   */\n      swap1\n      pop\n        /* \"#utility.yul\":17431:17440   */\n      dup2\n        /* \"#utility.yul\":17425:17429   */\n      dup2\n        /* \"#utility.yul\":17421:17441   */\n      sub\n        /* \"#utility.yul\":17417:17418   */\n      0x00\n        /* \"#utility.yul\":17406:17415   */\n      dup4\n        /* \"#utility.yul\":17402:17419   */\n      add\n        /* \"#utility.yul\":17395:17442   */\n      mstore\n        /* \"#utility.yul\":17459:17590   */\n      tag_425\n        /* \"#utility.yul\":17585:17589   */\n      dup2\n        /* \"#utility.yul\":17459:17590   */\n      tag_252\n      jump\t// in\n    tag_425:\n        /* \"#utility.yul\":17451:17590   */\n      swap1\n      pop\n        /* \"#utility.yul\":17178:17597   */\n      swap2\n      swap1\n      pop\n      jump\t// out\n        /* \"#utility.yul\":17603:17844   */\n    tag_253:\n        /* \"#utility.yul\":17743:17777   */\n      0x5468697320757365722063616e6e6f206c6f6e676572206465706f7369742066\n        /* \"#utility.yul\":17739:17740   */\n      0x00\n        /* \"#utility.yul\":17731:17737   */\n      dup3\n        /* \"#utility.yul\":17727:17741   */\n      add\n        /* \"#utility.yul\":17720:17778   */\n      mstore\n        /* \"#utility.yul\":17812:17836   */\n      0x6f722074686973207374616b696e6720706572696f6400000000000000000000\n        /* \"#utility.yul\":17807:17809   */\n      0x20\n        /* \"#utility.yul\":17799:17805   */\n      dup3\n        /* \"#utility.yul\":17795:17810   */\n      add\n        /* \"#utility.yul\":17788:17837   */\n      mstore\n        /* \"#utility.yul\":17603:17844   */\n      pop\n      jump\t// out\n        /* \"#utility.yul\":17850:18216   */\n    tag_254:\n        /* \"#utility.yul\":17992:17995   */\n      0x00\n        /* \"#utility.yul\":18013:18080   */\n      tag_428\n        /* \"#utility.yul\":18077:18079   */\n      0x36\n        /* \"#utility.yul\":18072:18075   */\n      dup4\n        /* \"#utility.yul\":18013:18080   */\n      tag_229\n      jump\t// in\n    tag_428:\n        /* \"#utility.yul\":18006:18080   */\n      swap2\n      pop\n        /* \"#utility.yul\":18089:18182   */\n      tag_429\n        /* \"#utility.yul\":18178:18181   */\n      dup3\n        /* \"#utility.yul\":18089:18182   */\n      tag_253\n      jump\t// in\n    tag_429:\n        /* \"#utility.yul\":18207:18209   */\n      0x40\n        /* \"#utility.yul\":18202:18205   */\n      dup3\n        /* \"#utility.yul\":18198:18210   */\n      add\n        /* \"#utility.yul\":18191:18210   */\n      swap1\n      pop\n        /* \"#utility.yul\":17850:18216   */\n      swap2\n      swap1\n      pop\n      jump\t// out\n        /* \"#utility.yul\":18222:18641   */\n    tag_149:\n        /* \"#utility.yul\":18388:18392   */\n      0x00\n        /* \"#utility.yul\":18426:18428   */\n      0x20\n        /* \"#utility.yul\":18415:18424   */\n      dup3\n        /* \"#utility.yul\":18411:18429   */\n      add\n        /* \"#utility.yul\":18403:18429   */\n      swap1\n      pop\n        /* \"#utility.yul\":18475:18484   */\n      dup2\n        /* \"#utility.yul\":18469:18473   */\n      dup2\n        /* \"#utility.yul\":18465:18485   */\n      sub\n        /* \"#utility.yul\":18461:18462   */\n      0x00\n        /* \"#utility.yul\":18450:18459   */\n      dup4\n        /* \"#utility.yul\":18446:18463   */\n      add\n        /* \"#utility.yul\":18439:18486   */\n      mstore\n        /* \"#utility.yul\":18503:18634   */\n      tag_431\n        /* \"#utility.yul\":18629:18633   */\n      dup2\n        /* \"#utility.yul\":18503:18634   */\n      tag_254\n      jump\t// in\n    tag_431:\n        /* \"#utility.yul\":18495:18634   */\n      swap1\n      pop\n        /* \"#utility.yul\":18222:18641   */\n      swap2\n      swap1\n      pop\n      jump\t// out\n        /* \"#utility.yul\":18647:18869   */\n    tag_151:\n        /* \"#utility.yul\":18740:18744   */\n      0x00\n        /* \"#utility.yul\":18778:18780   */\n      0x20\n        /* \"#utility.yul\":18767:18776   */\n      dup3\n        /* \"#utility.yul\":18763:18781   */\n      add\n        /* \"#utility.yul\":18755:18781   */\n      swap1\n      pop\n        /* \"#utility.yul\":18791:18862   */\n      tag_433\n        /* \"#utility.yul\":18859:18860   */\n      0x00\n        /* \"#utility.yul\":18848:18857   */\n      dup4\n        /* \"#utility.yul\":18844:18861   */\n      add\n        /* \"#utility.yul\":18835:18841   */\n      dup5\n        /* \"#utility.yul\":18791:18862   */\n      tag_232\n      jump\t// in\n    tag_433:\n        /* \"#utility.yul\":18647:18869   */\n      swap3\n      swap2\n      pop\n      pop\n      jump\t// out\n        /* \"#utility.yul\":18875:19018   */\n    tag_255:\n        /* \"#utility.yul\":18932:18937   */\n      0x00\n        /* \"#utility.yul\":18963:18969   */\n      dup2\n        /* \"#utility.yul\":18957:18970   */\n      mload\n        /* \"#utility.yul\":18948:18970   */\n      swap1\n      pop\n        /* \"#utility.yul\":18979:19012   */\n      tag_435\n        /* \"#utility.yul\":19006:19011   */\n      dup2\n        /* \"#utility.yul\":18979:19012   */\n      tag_219\n      jump\t// in\n    tag_435:\n        /* \"#utility.yul\":18875:19018   */\n      swap3\n      swap2\n      pop\n      pop\n      jump\t// out\n        /* \"#utility.yul\":19024:19375   */\n    tag_155:\n        /* \"#utility.yul\":19094:19100   */\n      0x00\n        /* \"#utility.yul\":19143:19145   */\n      0x20\n        /* \"#utility.yul\":19131:19140   */\n      dup3\n        /* \"#utility.yul\":19122:19129   */\n      dup5\n        /* \"#utility.yul\":19118:19141   */\n      sub\n        /* \"#utility.yul\":19114:19146   */\n      slt\n        /* \"#utility.yul\":19111:19230   */\n      iszero\n      tag_437\n      jumpi\n        /* \"#utility.yul\":19149:19228   */\n      tag_438\n      tag_203\n      jump\t// in\n    tag_438:\n        /* \"#utility.yul\":19111:19230   */\n    tag_437:\n        /* \"#utility.yul\":19269:19270   */\n      0x00\n        /* \"#utility.yul\":19294:19358   */\n      tag_439\n        /* \"#utility.yul\":19350:19357   */\n      dup5\n        /* \"#utility.yul\":19341:19347   */\n      dup3\n        /* \"#utility.yul\":19330:19339   */\n      dup6\n        /* \"#utility.yul\":19326:19348   */\n      add\n        /* \"#utility.yul\":19294:19358   */\n      tag_255\n      jump\t// in\n    tag_439:\n        /* \"#utility.yul\":19284:19358   */\n      swap2\n      pop\n        /* \"#utility.yul\":19240:19368   */\n      pop\n        /* \"#utility.yul\":19024:19375   */\n      swap3\n      swap2\n      pop\n      pop\n      jump\t// out\n        /* \"#utility.yul\":19381:19558   */\n    tag_256:\n        /* \"#utility.yul\":19521:19550   */\n      0x4e6f7420656e6f75676820746f6b656e7320666f72207374616b650000000000\n        /* \"#utility.yul\":19517:19518   */\n      0x00\n        /* \"#utility.yul\":19509:19515   */\n      dup3\n        /* \"#utility.yul\":19505:19519   */\n      add\n        /* \"#utility.yul\":19498:19551   */\n      mstore\n        /* \"#utility.yul\":19381:19558   */\n      pop\n      jump\t// out\n        /* \"#utility.yul\":19564:19930   */\n    tag_257:\n        /* \"#utility.yul\":19706:19709   */\n      0x00\n        /* \"#utility.yul\":19727:19794   */\n      tag_442\n        /* \"#utility.yul\":19791:19793   */\n      0x1b\n        /* \"#utility.yul\":19786:19789   */\n      dup4\n        /* \"#utility.yul\":19727:19794   */\n      tag_229\n      jump\t// in\n    tag_442:\n        /* \"#utility.yul\":19720:19794   */\n      swap2\n      pop\n        /* \"#utility.yul\":19803:19896   */\n      tag_443\n        /* \"#utility.yul\":19892:19895   */\n      dup3\n        /* \"#utility.yul\":19803:19896   */\n      tag_256\n      jump\t// in\n    tag_443:\n        /* \"#utility.yul\":19921:19923   */\n      0x20\n        /* \"#utility.yul\":19916:19919   */\n      dup3\n        /* \"#utility.yul\":19912:19924   */\n      add\n        /* \"#utility.yul\":19905:19924   */\n      swap1\n      pop\n        /* \"#utility.yul\":19564:19930   */\n      swap2\n      swap1\n      pop\n      jump\t// out\n        /* \"#utility.yul\":19936:20355   */\n    tag_158:\n        /* \"#utility.yul\":20102:20106   */\n      0x00\n        /* \"#utility.yul\":20140:20142   */\n      0x20\n        /* \"#utility.yul\":20129:20138   */\n      dup3\n        /* \"#utility.yul\":20125:20143   */\n      add\n        /* \"#utility.yul\":20117:20143   */\n      swap1\n      pop\n        /* \"#utility.yul\":20189:20198   */\n      dup2\n        /* \"#utility.yul\":20183:20187   */\n      dup2\n        /* \"#utility.yul\":20179:20199   */\n      sub\n        /* \"#utility.yul\":20175:20176   */\n      0x00\n        /* \"#utility.yul\":20164:20173   */\n      dup4\n        /* \"#utility.yul\":20160:20177   */\n      add\n        /* \"#utility.yul\":20153:20200   */\n      mstore\n        /* \"#utility.yul\":20217:20348   */\n      tag_445\n        /* \"#utility.yul\":20343:20347   */\n      dup2\n        /* \"#utility.yul\":20217:20348   */\n      tag_257\n      jump\t// in\n    tag_445:\n        /* \"#utility.yul\":20209:20348   */\n      swap1\n      pop\n        /* \"#utility.yul\":19936:20355   */\n      swap2\n      swap1\n      pop\n      jump\t// out\n        /* \"#utility.yul\":20361:20803   */\n    tag_160:\n        /* \"#utility.yul\":20510:20514   */\n      0x00\n        /* \"#utility.yul\":20548:20550   */\n      0x60\n        /* \"#utility.yul\":20537:20546   */\n      dup3\n        /* \"#utility.yul\":20533:20551   */\n      add\n        /* \"#utility.yul\":20525:20551   */\n      swap1\n      pop\n        /* \"#utility.yul\":20561:20632   */\n      tag_447\n        /* \"#utility.yul\":20629:20630   */\n      0x00\n        /* \"#utility.yul\":20618:20627   */\n      dup4\n        /* \"#utility.yul\":20614:20631   */\n      add\n        /* \"#utility.yul\":20605:20611   */\n      dup7\n        /* \"#utility.yul\":20561:20632   */\n      tag_232\n      jump\t// in\n    tag_447:\n        /* \"#utility.yul\":20642:20714   */\n      tag_448\n        /* \"#utility.yul\":20710:20712   */\n      0x20\n        /* \"#utility.yul\":20699:20708   */\n      dup4\n        /* \"#utility.yul\":20695:20713   */\n      add\n        /* \"#utility.yul\":20686:20692   */\n      dup6\n        /* \"#utility.yul\":20642:20714   */\n      tag_232\n      jump\t// in\n    tag_448:\n        /* \"#utility.yul\":20724:20796   */\n      tag_449\n        /* \"#utility.yul\":20792:20794   */\n      0x40\n        /* \"#utility.yul\":20781:20790   */\n      dup4\n        /* \"#utility.yul\":20777:20795   */\n      add\n        /* \"#utility.yul\":20768:20774   */\n      dup5\n        /* \"#utility.yul\":20724:20796   */\n      tag_201\n      jump\t// in\n    tag_449:\n        /* \"#utility.yul\":20361:20803   */\n      swap5\n      swap4\n      pop\n      pop\n      pop\n      pop\n      jump\t// out\n        /* \"#utility.yul\":20809:20980   */\n    tag_258:\n        /* \"#utility.yul\":20949:20972   */\n      0x4661696c656420746f207374616b6520746f6b656e0000000000000000000000\n        /* \"#utility.yul\":20945:20946   */\n      0x00\n        /* \"#utility.yul\":20937:20943   */\n      dup3\n        /* \"#utility.yul\":20933:20947   */\n      add\n        /* \"#utility.yul\":20926:20973   */\n      mstore\n        /* \"#utility.yul\":20809:20980   */\n      pop\n      jump\t// out\n        /* \"#utility.yul\":20986:21352   */\n    tag_259:\n        /* \"#utility.yul\":21128:21131   */\n      0x00\n        /* \"#utility.yul\":21149:21216   */\n      tag_452\n        /* \"#utility.yul\":21213:21215   */\n      0x15\n        /* \"#utility.yul\":21208:21211   */\n      dup4\n        /* \"#utility.yul\":21149:21216   */\n      tag_229\n      jump\t// in\n    tag_452:\n        /* \"#utility.yul\":21142:21216   */\n      swap2\n      pop\n        /* \"#utility.yul\":21225:21318   */\n      tag_453\n        /* \"#utility.yul\":21314:21317   */\n      dup3\n        /* \"#utility.yul\":21225:21318   */\n      tag_258\n      jump\t// in\n    tag_453:\n        /* \"#utility.yul\":21343:21345   */\n      0x20\n        /* \"#utility.yul\":21338:21341   */\n      dup3\n        /* \"#utility.yul\":21334:21346   */\n      add\n        /* \"#utility.yul\":21327:21346   */\n      swap1\n      pop\n        /* \"#utility.yul\":20986:21352   */\n      swap2\n      swap1\n      pop\n      jump\t// out\n        /* \"#utility.yul\":21358:21777   */\n    tag_166:\n        /* \"#utility.yul\":21524:21528   */\n      0x00\n        /* \"#utility.yul\":21562:21564   */\n      0x20\n        /* \"#utility.yul\":21551:21560   */\n      dup3\n        /* \"#utility.yul\":21547:21565   */\n      add\n        /* \"#utility.yul\":21539:21565   */\n      swap1\n      pop\n        /* \"#utility.yul\":21611:21620   */\n      dup2\n        /* \"#utility.yul\":21605:21609   */\n      dup2\n        /* \"#utility.yul\":21601:21621   */\n      sub\n        /* \"#utility.yul\":21597:21598   */\n      0x00\n        /* \"#utility.yul\":21586:21595   */\n      dup4\n        /* \"#utility.yul\":21582:21599   */\n      add\n        /* \"#utility.yul\":21575:21622   */\n      mstore\n        /* \"#utility.yul\":21639:21770   */\n      tag_455\n        /* \"#utility.yul\":21765:21769   */\n      dup2\n        /* \"#utility.yul\":21639:21770   */\n      tag_259\n      jump\t// in\n    tag_455:\n        /* \"#utility.yul\":21631:21770   */\n      swap1\n      pop\n        /* \"#utility.yul\":21358:21777   */\n      swap2\n      swap1\n      pop\n      jump\t// out\n        /* \"#utility.yul\":21783:21942   */\n    tag_260:\n        /* \"#utility.yul\":21923:21934   */\n      0x7570646174656441740000000000000000000000000000000000000000000000\n        /* \"#utility.yul\":21919:21920   */\n      0x00\n        /* \"#utility.yul\":21911:21917   */\n      dup3\n        /* \"#utility.yul\":21907:21921   */\n      add\n        /* \"#utility.yul\":21900:21935   */\n      mstore\n        /* \"#utility.yul\":21783:21942   */\n      pop\n      jump\t// out\n        /* \"#utility.yul\":21948:22348   */\n    tag_261:\n        /* \"#utility.yul\":22108:22111   */\n      0x00\n        /* \"#utility.yul\":22129:22213   */\n      tag_458\n        /* \"#utility.yul\":22211:22212   */\n      0x09\n        /* \"#utility.yul\":22206:22209   */\n      dup4\n        /* \"#utility.yul\":22129:22213   */\n      tag_226\n      jump\t// in\n    tag_458:\n        /* \"#utility.yul\":22122:22213   */\n      swap2\n      pop\n        /* \"#utility.yul\":22222:22315   */\n      tag_459\n        /* \"#utility.yul\":22311:22314   */\n      dup3\n        /* \"#utility.yul\":22222:22315   */\n      tag_260\n      jump\t// in\n    tag_459:\n        /* \"#utility.yul\":22340:22341   */\n      0x09\n        /* \"#utility.yul\":22335:22338   */\n      dup3\n        /* \"#utility.yul\":22331:22342   */\n      add\n        /* \"#utility.yul\":22324:22342   */\n      swap1\n      pop\n        /* \"#utility.yul\":21948:22348   */\n      swap2\n      swap1\n      pop\n      jump\t// out\n        /* \"#utility.yul\":22354:22735   */\n    tag_172:\n        /* \"#utility.yul\":22539:22542   */\n      0x00\n        /* \"#utility.yul\":22561:22709   */\n      tag_461\n        /* \"#utility.yul\":22705:22708   */\n      dup3\n        /* \"#utility.yul\":22561:22709   */\n      tag_261\n      jump\t// in\n    tag_461:\n        /* \"#utility.yul\":22554:22709   */\n      swap2\n      pop\n        /* \"#utility.yul\":22726:22729   */\n      dup2\n        /* \"#utility.yul\":22719:22729   */\n      swap1\n      pop\n        /* \"#utility.yul\":22354:22735   */\n      swap2\n      swap1\n      pop\n      jump\t// out\n        /* \"#utility.yul\":22741:23151   */\n    tag_188:\n        /* \"#utility.yul\":22781:22788   */\n      0x00\n        /* \"#utility.yul\":22804:22824   */\n      tag_463\n        /* \"#utility.yul\":22822:22823   */\n      dup3\n        /* \"#utility.yul\":22804:22824   */\n      tag_200\n      jump\t// in\n    tag_463:\n        /* \"#utility.yul\":22799:22824   */\n      swap2\n      pop\n        /* \"#utility.yul\":22838:22858   */\n      tag_464\n        /* \"#utility.yul\":22856:22857   */\n      dup4\n        /* \"#utility.yul\":22838:22858   */\n      tag_200\n      jump\t// in\n    tag_464:\n        /* \"#utility.yul\":22833:22858   */\n      swap3\n      pop\n        /* \"#utility.yul\":22893:22894   */\n      dup3\n        /* \"#utility.yul\":22890:22891   */\n      dup3\n        /* \"#utility.yul\":22886:22895   */\n      mul\n        /* \"#utility.yul\":22915:22945   */\n      tag_465\n        /* \"#utility.yul\":22933:22944   */\n      dup2\n        /* \"#utility.yul\":22915:22945   */\n      tag_200\n      jump\t// in\n    tag_465:\n        /* \"#utility.yul\":22904:22945   */\n      swap2\n      pop\n        /* \"#utility.yul\":23094:23095   */\n      dup3\n        /* \"#utility.yul\":23085:23092   */\n      dup3\n        /* \"#utility.yul\":23081:23096   */\n      div\n        /* \"#utility.yul\":23078:23079   */\n      dup5\n        /* \"#utility.yul\":23075:23097   */\n      eq\n        /* \"#utility.yul\":23055:23056   */\n      dup4\n        /* \"#utility.yul\":23048:23057   */\n      iszero\n        /* \"#utility.yul\":23028:23111   */\n      or\n        /* \"#utility.yul\":23005:23144   */\n      tag_466\n      jumpi\n        /* \"#utility.yul\":23124:23142   */\n      tag_467\n      tag_240\n      jump\t// in\n    tag_467:\n        /* \"#utility.yul\":23005:23144   */\n    tag_466:\n        /* \"#utility.yul\":22789:23151   */\n      pop\n        /* \"#utility.yul\":22741:23151   */\n      swap3\n      swap2\n      pop\n      pop\n      jump\t// out\n        /* \"#utility.yul\":23157:23382   */\n    tag_262:\n        /* \"#utility.yul\":23297:23331   */\n      0x63616e277420736574206461746520746f20612070726576696f75732074696d\n        /* \"#utility.yul\":23293:23294   */\n      0x00\n        /* \"#utility.yul\":23285:23291   */\n      dup3\n        /* \"#utility.yul\":23281:23295   */\n      add\n        /* \"#utility.yul\":23274:23332   */\n      mstore\n        /* \"#utility.yul\":23366:23374   */\n      0x657374616d700000000000000000000000000000000000000000000000000000\n        /* \"#utility.yul\":23361:23363   */\n      0x20\n        /* \"#utility.yul\":23353:23359   */\n      dup3\n        /* \"#utility.yul\":23349:23364   */\n      add\n        /* \"#utility.yul\":23342:23375   */\n      mstore\n        /* \"#utility.yul\":23157:23382   */\n      pop\n      jump\t// out\n        /* \"#utility.yul\":23388:23754   */\n    tag_263:\n        /* \"#utility.yul\":23530:23533   */\n      0x00\n        /* \"#utility.yul\":23551:23618   */\n      tag_470\n        /* \"#utility.yul\":23615:23617   */\n      0x26\n        /* \"#utility.yul\":23610:23613   */\n      dup4\n        /* \"#utility.yul\":23551:23618   */\n      tag_229\n      jump\t// in\n    tag_470:\n        /* \"#utility.yul\":23544:23618   */\n      swap2\n      pop\n        /* \"#utility.yul\":23627:23720   */\n      tag_471\n        /* \"#utility.yul\":23716:23719   */\n      dup3\n        /* \"#utility.yul\":23627:23720   */\n      tag_262\n      jump\t// in\n    tag_471:\n        /* \"#utility.yul\":23745:23747   */\n      0x40\n        /* \"#utility.yul\":23740:23743   */\n      dup3\n        /* \"#utility.yul\":23736:23748   */\n      add\n        /* \"#utility.yul\":23729:23748   */\n      swap1\n      pop\n        /* \"#utility.yul\":23388:23754   */\n      swap2\n      swap1\n      pop\n      jump\t// out\n        /* \"#utility.yul\":23760:24179   */\n    tag_193:\n        /* \"#utility.yul\":23926:23930   */\n      0x00\n        /* \"#utility.yul\":23964:23966   */\n      0x20\n        /* \"#utility.yul\":23953:23962   */\n      dup3\n        /* \"#utility.yul\":23949:23967   */\n      add\n        /* \"#utility.yul\":23941:23967   */\n      swap1\n      pop\n        /* \"#utility.yul\":24013:24022   */\n      dup2\n        /* \"#utility.yul\":24007:24011   */\n      dup2\n        /* \"#utility.yul\":24003:24023   */\n      sub\n        /* \"#utility.yul\":23999:24000   */\n      0x00\n        /* \"#utility.yul\":23988:23997   */\n      dup4\n        /* \"#utility.yul\":23984:24001   */\n      add\n        /* \"#utility.yul\":23977:24024   */\n      mstore\n        /* \"#utility.yul\":24041:24172   */\n      tag_473\n        /* \"#utility.yul\":24167:24171   */\n      dup2\n        /* \"#utility.yul\":24041:24172   */\n      tag_263\n      jump\t// in\n    tag_473:\n        /* \"#utility.yul\":24033:24172   */\n      swap1\n      pop\n        /* \"#utility.yul\":23760:24179   */\n      swap2\n      swap1\n      pop\n      jump\t// out\n        /* \"#utility.yul\":24185:24418   */\n    tag_264:\n        /* \"#utility.yul\":24325:24359   */\n      0x736574207265776172642072617465206265666f7265207374617274696e6720\n        /* \"#utility.yul\":24321:24322   */\n      0x00\n        /* \"#utility.yul\":24313:24319   */\n      dup3\n        /* \"#utility.yul\":24309:24323   */\n      add\n        /* \"#utility.yul\":24302:24360   */\n      mstore\n        /* \"#utility.yul\":24394:24410   */\n      0x7374616b696e6720706572696f64000000000000000000000000000000000000\n        /* \"#utility.yul\":24389:24391   */\n      0x20\n        /* \"#utility.yul\":24381:24387   */\n      dup3\n        /* \"#utility.yul\":24377:24392   */\n      add\n        /* \"#utility.yul\":24370:24411   */\n      mstore\n        /* \"#utility.yul\":24185:24418   */\n      pop\n      jump\t// out\n        /* \"#utility.yul\":24424:24790   */\n    tag_265:\n        /* \"#utility.yul\":24566:24569   */\n      0x00\n        /* \"#utility.yul\":24587:24654   */\n      tag_476\n        /* \"#utility.yul\":24651:24653   */\n      0x2e\n        /* \"#utility.yul\":24646:24649   */\n      dup4\n        /* \"#utility.yul\":24587:24654   */\n      tag_229\n      jump\t// in\n    tag_476:\n        /* \"#utility.yul\":24580:24654   */\n      swap2\n      pop\n        /* \"#utility.yul\":24663:24756   */\n      tag_477\n        /* \"#utility.yul\":24752:24755   */\n      dup3\n        /* \"#utility.yul\":24663:24756   */\n      tag_264\n      jump\t// in\n    tag_477:\n        /* \"#utility.yul\":24781:24783   */\n      0x40\n        /* \"#utility.yul\":24776:24779   */\n      dup3\n        /* \"#utility.yul\":24772:24784   */\n      add\n        /* \"#utility.yul\":24765:24784   */\n      swap1\n      pop\n        /* \"#utility.yul\":24424:24790   */\n      swap2\n      swap1\n      pop\n      jump\t// out\n        /* \"#utility.yul\":24796:25215   */\n    tag_196:\n        /* \"#utility.yul\":24962:24966   */\n      0x00\n        /* \"#utility.yul\":25000:25002   */\n      0x20\n        /* \"#utility.yul\":24989:24998   */\n      dup3\n        /* \"#utility.yul\":24985:25003   */\n      add\n        /* \"#utility.yul\":24977:25003   */\n      swap1\n      pop\n        /* \"#utility.yul\":25049:25058   */\n      dup2\n        /* \"#utility.yul\":25043:25047   */\n      dup2\n        /* \"#utility.yul\":25039:25059   */\n      sub\n        /* \"#utility.yul\":25035:25036   */\n      0x00\n        /* \"#utility.yul\":25024:25033   */\n      dup4\n        /* \"#utility.yul\":25020:25037   */\n      add\n        /* \"#utility.yul\":25013:25060   */\n      mstore\n        /* \"#utility.yul\":25077:25208   */\n      tag_479\n        /* \"#utility.yul\":25203:25207   */\n      dup2\n        /* \"#utility.yul\":25077:25208   */\n      tag_265\n      jump\t// in\n    tag_479:\n        /* \"#utility.yul\":25069:25208   */\n      swap1\n      pop\n        /* \"#utility.yul\":24796:25215   */\n      swap2\n      swap1\n      pop\n      jump\t// out\n\n    auxdata: 0xa26469706673582212206cfd4ec8636a3aa3f4f14826e491f431cad3598b29c6a6792aa78867294d065364736f6c63430008140033\n}\n",
				"bytecode": {
					"linkReferences": {},
					"object": "608060405234801562000010575f80fd5b5060405162001fb538038062001fb5833981810160405281019062000036919062000122565b815f806101000a81548173ffffffffffffffffffffffffffffffffffffffff021916908373ffffffffffffffffffffffffffffffffffffffff1602179055508060015f6101000a81548173ffffffffffffffffffffffffffffffffffffffff021916908373ffffffffffffffffffffffffffffffffffffffff160217905550505062000167565b5f80fd5b5f73ffffffffffffffffffffffffffffffffffffffff82169050919050565b5f620000ec82620000c1565b9050919050565b620000fe81620000e0565b811462000109575f80fd5b50565b5f815190506200011c81620000f3565b92915050565b5f80604083850312156200013b576200013a620000bd565b5b5f6200014a858286016200010c565b92505060206200015d858286016200010c565b9150509250929050565b611e4080620001755f395ff3fe608060405234801561000f575f80fd5b506004361061011f575f3560e01c806372f702f3116100ab578063b69ef8a81161006f578063b69ef8a8146102ad578063cb82cc8f146102cb578063d1af0c7d146102e7578063d6f1926214610305578063f6be71d1146103235761011f565b806372f702f3146102195780637519ab50146102375780638b0e9f3f146102555780639e447fc614610273578063ad2e8c9b1461028f5761011f565b80633e50de30116100f25780633e50de30146101875780634a618297146101a557806350d56aba146101af578063523a3f08146101df57806367d3b488146101fb5761011f565b80630fb5a6b414610123578063289ed738146101415780632c4e722e1461014b578063327bcac514610169575b5f80fd5b61012b61033f565b60405161013891906111f6565b60405180910390f35b610149610345565b005b61015361056c565b60405161016091906111f6565b60405180910390f35b610171610572565b60405161017e91906111f6565b60405180910390f35b61018f610578565b60405161019c91906111f6565b60405180910390f35b6101ad610667565b005b6101c960048036038101906101c491906113b6565b610760565b6040516101d691906111f6565b60405180910390f35b6101f960048036038101906101f4919061143a565b610798565b005b6102036109ac565b60405161021091906111f6565b60405180910390f35b6102216109b2565b60405161022e91906114c0565b60405180910390f35b61023f6109d5565b60405161024c91906111f6565b60405180910390f35b61025d6109db565b60405161026a91906111f6565b60405180910390f35b61028d6004803603810190610288919061143a565b6109e1565b005b610297610a2f565b6040516102a491906111f6565b60405180910390f35b6102b5610a38565b6040516102c291906111f6565b60405180910390f35b6102e560048036038101906102e0919061143a565b610a96565b005b6102ef610f81565b6040516102fc91906114c0565b60405180910390f35b61030d610fa6565b60405161031a91906111f6565b60405180910390f35b61033d6004803603810190610338919061143a565b611117565b005b60045481565b5f60085f3373ffffffffffffffffffffffffffffffffffffffff1673ffffffffffffffffffffffffffffffffffffffff1681526020019081526020015f2060405161038f9061152d565b908152602001604051809103902054116103de576040517f08c379a00000000000000000000000000000000000000000000000000000000081526004016103d5906115c1565b60405180910390fd5b5f8054906101000a900473ffffffffffffffffffffffffffffffffffffffff1673ffffffffffffffffffffffffffffffffffffffff1663a9059cbb3360085f3373ffffffffffffffffffffffffffffffffffffffff1673ffffffffffffffffffffffffffffffffffffffff1681526020019081526020015f206040516104639061152d565b9081526020016040518091039020546040518363ffffffff1660e01b815260040161048f9291906115ee565b6020604051808303815f875af11580156104ab573d5f803e3d5ffd5b505050506040513d601f19601f820116820180604052508101906104cf919061164a565b61050e576040517f08c379a0000000000000000000000000000000000000000000000000000000008152600401610505906116bf565b60405180910390fd5b5f60085f3373ffffffffffffffffffffffffffffffffffffffff1673ffffffffffffffffffffffffffffffffffffffff1681526020019081526020015f206040516105589061152d565b908152602001604051809103902081905550565b60075481565b60035481565b5f8060085f3373ffffffffffffffffffffffffffffffffffffffff1673ffffffffffffffffffffffffffffffffffffffff1681526020019081526020015f206040516105c39061152d565b90815260200160405180910390205411610612576040517f08c379a000000000000000000000000000000000000000000000000000000000815260040161060990611727565b60405180910390fd5b600a5f3373ffffffffffffffffffffffffffffffffffffffff1673ffffffffffffffffffffffffffffffffffffffff1681526020019081526020015f2054610658610fa6565b6106629190611772565b905090565b600160085f3373ffffffffffffffffffffffffffffffffffffffff1673ffffffffffffffffffffffffffffffffffffffff1681526020019081526020015f206040516106b2906117ef565b90815260200160405180910390205403610701576040517f08c379a00000000000000000000000000000000000000000000000000000000081526004016106f89061184d565b60405180910390fd5b600160085f3373ffffffffffffffffffffffffffffffffffffffff1673ffffffffffffffffffffffffffffffffffffffff1681526020019081526020015f2060405161074c906117ef565b908152602001604051809103902081905550565b6008602052815f5260405f20818051602081018201805184825260208301602085012081835280955050505050505f91509150505481565b5f6107a1610578565b90505f811180156107b157505f82115b6107f0576040517f08c379a00000000000000000000000000000000000000000000000000000000081526004016107e7906118b5565b60405180910390fd5b8160095f3373ffffffffffffffffffffffffffffffffffffffff1673ffffffffffffffffffffffffffffffffffffffff1681526020019081526020015f20548261083a91906118d3565b1161087a576040517f08c379a000000000000000000000000000000000000000000000000000000000815260040161087190611976565b60405180910390fd5b60015f9054906101000a900473ffffffffffffffffffffffffffffffffffffffff1673ffffffffffffffffffffffffffffffffffffffff1663a9059cbb33846040518363ffffffff1660e01b81526004016108d69291906115ee565b6020604051808303815f875af11580156108f2573d5f803e3d5ffd5b505050506040513d601f19601f82011682018060405250810190610916919061164a565b610955576040517f08c379a000000000000000000000000000000000000000000000000000000000815260040161094c906116bf565b60405180910390fd5b8160095f3373ffffffffffffffffffffffffffffffffffffffff1673ffffffffffffffffffffffffffffffffffffffff1681526020019081526020015f205f8282546109a19190611772565b925050819055505050565b60055481565b5f8054906101000a900473ffffffffffffffffffffffffffffffffffffffff1681565b60065481565b60025481565b4260055410610a25576040517f08c379a0000000000000000000000000000000000000000000000000000000008152600401610a1c906119de565b60405180910390fd5b8060078190555050565b5f600454905090565b5f60085f3373ffffffffffffffffffffffffffffffffffffffff1673ffffffffffffffffffffffffffffffffffffffff1681526020019081526020015f20604051610a829061152d565b908152602001604051809103902054905090565b5f60045411610ada576040517f08c379a0000000000000000000000000000000000000000000000000000000008152600401610ad190611a46565b60405180910390fd5b600160085f3373ffffffffffffffffffffffffffffffffffffffff1673ffffffffffffffffffffffffffffffffffffffff1681526020019081526020015f20604051610b25906117ef565b90815260200160405180910390205403610b74576040517f08c379a0000000000000000000000000000000000000000000000000000000008152600401610b6b90611ad4565b60405180910390fd5b805f8054906101000a900473ffffffffffffffffffffffffffffffffffffffff1673ffffffffffffffffffffffffffffffffffffffff166370a08231336040518263ffffffff1660e01b8152600401610bcd9190611af2565b602060405180830381865afa158015610be8573d5f803e3d5ffd5b505050506040513d601f19601f82011682018060405250810190610c0c9190611b1f565b1015610c4d576040517f08c379a0000000000000000000000000000000000000000000000000000000008152600401610c4490611b94565b60405180910390fd5b5f8054906101000a900473ffffffffffffffffffffffffffffffffffffffff1673ffffffffffffffffffffffffffffffffffffffff166323b872dd3330846040518463ffffffff1660e01b8152600401610ca993929190611bb2565b6020604051808303815f875af1158015610cc5573d5f803e3d5ffd5b505050506040513d601f19601f82011682018060405250810190610ce9919061164a565b610d28576040517f08c379a0000000000000000000000000000000000000000000000000000000008152600401610d1f90611c31565b60405180910390fd5b610d928160085f3373ffffffffffffffffffffffffffffffffffffffff1673ffffffffffffffffffffffffffffffffffffffff1681526020019081526020015f20604051610d759061152d565b9081526020016040518091039020546111c990919063ffffffff16565b60085f3373ffffffffffffffffffffffffffffffffffffffff1673ffffffffffffffffffffffffffffffffffffffff1681526020019081526020015f20604051610ddb9061152d565b9081526020016040518091039020819055505f60085f3373ffffffffffffffffffffffffffffffffffffffff1673ffffffffffffffffffffffffffffffffffffffff1681526020019081526020015f20604051610e3790611c99565b90815260200160405180910390205403610eac574260085f3373ffffffffffffffffffffffffffffffffffffffff1673ffffffffffffffffffffffffffffffffffffffff1681526020019081526020015f20604051610e9590611c99565b908152602001604051809103902081905550610f63565b610eb4610fa6565b600a5f3373ffffffffffffffffffffffffffffffffffffffff1673ffffffffffffffffffffffffffffffffffffffff1681526020019081526020015f205f828254610eff9190611772565b925050819055504260085f3373ffffffffffffffffffffffffffffffffffffffff1673ffffffffffffffffffffffffffffffffffffffff1681526020019081526020015f20604051610f5090611c99565b9081526020016040518091039020819055505b610f78816002546111c990919063ffffffff16565b60028190555050565b60015f9054906101000a900473ffffffffffffffffffffffffffffffffffffffff1681565b5f8060085f3373ffffffffffffffffffffffffffffffffffffffff1673ffffffffffffffffffffffffffffffffffffffff1681526020019081526020015f20604051610ff19061152d565b90815260200160405180910390205411611040576040517f08c379a000000000000000000000000000000000000000000000000000000000815260040161103790611727565b60405180910390fd5b60085f3373ffffffffffffffffffffffffffffffffffffffff1673ffffffffffffffffffffffffffffffffffffffff1681526020019081526020015f2060405161108990611c99565b908152602001604051809103902054426110a391906118d3565b60075460085f3373ffffffffffffffffffffffffffffffffffffffff1673ffffffffffffffffffffffffffffffffffffffff1681526020019081526020015f206040516110ef9061152d565b9081526020016040518091039020546111089190611cad565b6111129190611cad565b905090565b426005541061115b576040517f08c379a000000000000000000000000000000000000000000000000000000000815260040161115290611d5e565b60405180910390fd5b5f6007541161119f576040517f08c379a000000000000000000000000000000000000000000000000000000000815260040161119690611dec565b60405180910390fd5b806004819055506111b942826111c990919063ffffffff16565b6005819055504260068190555050565b5f81836111d69190611772565b905092915050565b5f819050919050565b6111f0816111de565b82525050565b5f6020820190506112095f8301846111e7565b92915050565b5f604051905090565b5f80fd5b5f80fd5b5f73ffffffffffffffffffffffffffffffffffffffff82169050919050565b5f61124982611220565b9050919050565b6112598161123f565b8114611263575f80fd5b50565b5f8135905061127481611250565b92915050565b5f80fd5b5f80fd5b5f601f19601f8301169050919050565b7f4e487b71000000000000000000000000000000000000000000000000000000005f52604160045260245ffd5b6112c882611282565b810181811067ffffffffffffffff821117156112e7576112e6611292565b5b80604052505050565b5f6112f961120f565b905061130582826112bf565b919050565b5f67ffffffffffffffff82111561132457611323611292565b5b61132d82611282565b9050602081019050919050565b828183375f83830152505050565b5f61135a6113558461130a565b6112f0565b9050828152602081018484840111156113765761137561127e565b5b61138184828561133a565b509392505050565b5f82601f83011261139d5761139c61127a565b5b81356113ad848260208601611348565b91505092915050565b5f80604083850312156113cc576113cb611218565b5b5f6113d985828601611266565b925050602083013567ffffffffffffffff8111156113fa576113f961121c565b5b61140685828601611389565b9150509250929050565b611419816111de565b8114611423575f80fd5b50565b5f8135905061143481611410565b92915050565b5f6020828403121561144f5761144e611218565b5b5f61145c84828501611426565b91505092915050565b5f819050919050565b5f61148861148361147e84611220565b611465565b611220565b9050919050565b5f6114998261146e565b9050919050565b5f6114aa8261148f565b9050919050565b6114ba816114a0565b82525050565b5f6020820190506114d35f8301846114b1565b92915050565b5f81905092915050565b7f616d6f756e7400000000000000000000000000000000000000000000000000005f82015250565b5f6115176006836114d9565b9150611522826114e3565b600682019050919050565b5f6115378261150b565b9150819050919050565b5f82825260208201905092915050565b7f5573657220646f6573206e6f742068617665207374616b657320696e207468695f8201527f7320706f6f6c0000000000000000000000000000000000000000000000000000602082015250565b5f6115ab602683611541565b91506115b682611551565b604082019050919050565b5f6020820190508181035f8301526115d88161159f565b9050919050565b6115e88161123f565b82525050565b5f6040820190506116015f8301856115df565b61160e60208301846111e7565b9392505050565b5f8115159050919050565b61162981611615565b8114611633575f80fd5b50565b5f8151905061164481611620565b92915050565b5f6020828403121561165f5761165e611218565b5b5f61166c84828501611636565b91505092915050565b7f4661696c656420746f207472616e7366657220746f6b656e73000000000000005f82015250565b5f6116a9601983611541565b91506116b482611675565b602082019050919050565b5f6020820190508181035f8301526116d68161169d565b9050919050565b7f596f752068617665206e6f74207374616b656420616e7920746f6b656e7300005f82015250565b5f611711601e83611541565b915061171c826116dd565b602082019050919050565b5f6020820190508181035f83015261173e81611705565b9050919050565b7f4e487b71000000000000000000000000000000000000000000000000000000005f52601160045260245ffd5b5f61177c826111de565b9150611787836111de565b925082820190508082111561179f5761179e611745565b5b92915050565b7f6c6f636b5374616b6573000000000000000000000000000000000000000000005f82015250565b5f6117d9600a836114d9565b91506117e4826117a5565b600a82019050919050565b5f6117f9826117cd565b9150819050919050565b7f5374616b65732068617665206265656e206c6f636b65640000000000000000005f82015250565b5f611837601783611541565b915061184282611803565b602082019050919050565b5f6020820190508181035f8301526118648161182b565b9050919050565b7f596f752068617665206e6f74206561726e656420616e792072657761726473005f82015250565b5f61189f601f83611541565b91506118aa8261186b565b602082019050919050565b5f6020820190508181035f8301526118cc81611893565b9050919050565b5f6118dd826111de565b91506118e8836111de565b9250828203905081811115611900576118ff611745565b5b92915050565b7f596f7520646f6e2774206861766520656e6f75676820746f20776974686472615f8201527f7700000000000000000000000000000000000000000000000000000000000000602082015250565b5f611960602183611541565b915061196b82611906565b604082019050919050565b5f6020820190508181035f83015261198d81611954565b9050919050565b7f5374616b696e67207374696c6c20696e2070726f6772657373000000000000005f82015250565b5f6119c8601983611541565b91506119d382611994565b602082019050919050565b5f6020820190508181035f8301526119f5816119bc565b9050919050565b7f2e4e6f207374616b696e6720706572696f6420796574000000000000000000005f82015250565b5f611a30601683611541565b9150611a3b826119fc565b602082019050919050565b5f6020820190508181035f830152611a5d81611a24565b9050919050565b7f5468697320757365722063616e6e6f206c6f6e676572206465706f73697420665f8201527f6f722074686973207374616b696e6720706572696f6400000000000000000000602082015250565b5f611abe603683611541565b9150611ac982611a64565b604082019050919050565b5f6020820190508181035f830152611aeb81611ab2565b9050919050565b5f602082019050611b055f8301846115df565b92915050565b5f81519050611b1981611410565b92915050565b5f60208284031215611b3457611b33611218565b5b5f611b4184828501611b0b565b91505092915050565b7f4e6f7420656e6f75676820746f6b656e7320666f72207374616b6500000000005f82015250565b5f611b7e601b83611541565b9150611b8982611b4a565b602082019050919050565b5f6020820190508181035f830152611bab81611b72565b9050919050565b5f606082019050611bc55f8301866115df565b611bd260208301856115df565b611bdf60408301846111e7565b949350505050565b7f4661696c656420746f207374616b6520746f6b656e00000000000000000000005f82015250565b5f611c1b601583611541565b9150611c2682611be7565b602082019050919050565b5f6020820190508181035f830152611c4881611c0f565b9050919050565b7f75706461746564417400000000000000000000000000000000000000000000005f82015250565b5f611c836009836114d9565b9150611c8e82611c4f565b600982019050919050565b5f611ca382611c77565b9150819050919050565b5f611cb7826111de565b9150611cc2836111de565b9250828202611cd0816111de565b91508282048414831517611ce757611ce6611745565b5b5092915050565b7f63616e277420736574206461746520746f20612070726576696f75732074696d5f8201527f657374616d700000000000000000000000000000000000000000000000000000602082015250565b5f611d48602683611541565b9150611d5382611cee565b604082019050919050565b5f6020820190508181035f830152611d7581611d3c565b9050919050565b7f736574207265776172642072617465206265666f7265207374617274696e67205f8201527f7374616b696e6720706572696f64000000000000000000000000000000000000602082015250565b5f611dd6602e83611541565b9150611de182611d7c565b604082019050919050565b5f6020820190508181035f830152611e0381611dca565b905091905056fea26469706673582212206cfd4ec8636a3aa3f4f14826e491f431cad3598b29c6a6792aa78867294d065364736f6c63430008140033",
					"opcodes": "PUSH1 0x80 PUSH1 0x40 MSTORE CALLVALUE DUP1 ISZERO PUSH3 0x10 JUMPI PUSH0 DUP1 REVERT JUMPDEST POP PUSH1 0x40 MLOAD PUSH3 0x1FB5 CODESIZE SUB DUP1 PUSH3 0x1FB5 DUP4 CODECOPY DUP2 DUP2 ADD PUSH1 0x40 MSTORE DUP2 ADD SWAP1 PUSH3 0x36 SWAP2 SWAP1 PUSH3 0x122 JUMP JUMPDEST DUP2 PUSH0 DUP1 PUSH2 0x100 EXP DUP2 SLOAD DUP2 PUSH20 0xFFFFFFFFFFFFFFFFFFFFFFFFFFFFFFFFFFFFFFFF MUL NOT AND SWAP1 DUP4 PUSH20 0xFFFFFFFFFFFFFFFFFFFFFFFFFFFFFFFFFFFFFFFF AND MUL OR SWAP1 SSTORE POP DUP1 PUSH1 0x1 PUSH0 PUSH2 0x100 EXP DUP2 SLOAD DUP2 PUSH20 0xFFFFFFFFFFFFFFFFFFFFFFFFFFFFFFFFFFFFFFFF MUL NOT AND SWAP1 DUP4 PUSH20 0xFFFFFFFFFFFFFFFFFFFFFFFFFFFFFFFFFFFFFFFF AND MUL OR SWAP1 SSTORE POP POP POP PUSH3 0x167 JUMP JUMPDEST PUSH0 DUP1 REVERT JUMPDEST PUSH0 PUSH20 0xFFFFFFFFFFFFFFFFFFFFFFFFFFFFFFFFFFFFFFFF DUP3 AND SWAP1 POP SWAP2 SWAP1 POP JUMP JUMPDEST PUSH0 PUSH3 0xEC DUP3 PUSH3 0xC1 JUMP JUMPDEST SWAP1 POP SWAP2 SWAP1 POP JUMP JUMPDEST PUSH3 0xFE DUP2 PUSH3 0xE0 JUMP JUMPDEST DUP2 EQ PUSH3 0x109 JUMPI PUSH0 DUP1 REVERT JUMPDEST POP JUMP JUMPDEST PUSH0 DUP2 MLOAD SWAP1 POP PUSH3 0x11C DUP2 PUSH3 0xF3 JUMP JUMPDEST SWAP3 SWAP2 POP POP JUMP JUMPDEST PUSH0 DUP1 PUSH1 0x40 DUP4 DUP6 SUB SLT ISZERO PUSH3 0x13B JUMPI PUSH3 0x13A PUSH3 0xBD JUMP JUMPDEST JUMPDEST PUSH0 PUSH3 0x14A DUP6 DUP3 DUP7 ADD PUSH3 0x10C JUMP JUMPDEST SWAP3 POP POP PUSH1 0x20 PUSH3 0x15D DUP6 DUP3 DUP7 ADD PUSH3 0x10C JUMP JUMPDEST SWAP2 POP POP SWAP3 POP SWAP3 SWAP1 POP JUMP JUMPDEST PUSH2 0x1E40 DUP1 PUSH3 0x175 PUSH0 CODECOPY PUSH0 RETURN INVALID PUSH1 0x80 PUSH1 0x40 MSTORE CALLVALUE DUP1 ISZERO PUSH2 0xF JUMPI PUSH0 DUP1 REVERT JUMPDEST POP PUSH1 0x4 CALLDATASIZE LT PUSH2 0x11F JUMPI PUSH0 CALLDATALOAD PUSH1 0xE0 SHR DUP1 PUSH4 0x72F702F3 GT PUSH2 0xAB JUMPI DUP1 PUSH4 0xB69EF8A8 GT PUSH2 0x6F JUMPI DUP1 PUSH4 0xB69EF8A8 EQ PUSH2 0x2AD JUMPI DUP1 PUSH4 0xCB82CC8F EQ PUSH2 0x2CB JUMPI DUP1 PUSH4 0xD1AF0C7D EQ PUSH2 0x2E7 JUMPI DUP1 PUSH4 0xD6F19262 EQ PUSH2 0x305 JUMPI DUP1 PUSH4 0xF6BE71D1 EQ PUSH2 0x323 JUMPI PUSH2 0x11F JUMP JUMPDEST DUP1 PUSH4 0x72F702F3 EQ PUSH2 0x219 JUMPI DUP1 PUSH4 0x7519AB50 EQ PUSH2 0x237 JUMPI DUP1 PUSH4 0x8B0E9F3F EQ PUSH2 0x255 JUMPI DUP1 PUSH4 0x9E447FC6 EQ PUSH2 0x273 JUMPI DUP1 PUSH4 0xAD2E8C9B EQ PUSH2 0x28F JUMPI PUSH2 0x11F JUMP JUMPDEST DUP1 PUSH4 0x3E50DE30 GT PUSH2 0xF2 JUMPI DUP1 PUSH4 0x3E50DE30 EQ PUSH2 0x187 JUMPI DUP1 PUSH4 0x4A618297 EQ PUSH2 0x1A5 JUMPI DUP1 PUSH4 0x50D56ABA EQ PUSH2 0x1AF JUMPI DUP1 PUSH4 0x523A3F08 EQ PUSH2 0x1DF JUMPI DUP1 PUSH4 0x67D3B488 EQ PUSH2 0x1FB JUMPI PUSH2 0x11F JUMP JUMPDEST DUP1 PUSH4 0xFB5A6B4 EQ PUSH2 0x123 JUMPI DUP1 PUSH4 0x289ED738 EQ PUSH2 0x141 JUMPI DUP1 PUSH4 0x2C4E722E EQ PUSH2 0x14B JUMPI DUP1 PUSH4 0x327BCAC5 EQ PUSH2 0x169 JUMPI JUMPDEST PUSH0 DUP1 REVERT JUMPDEST PUSH2 0x12B PUSH2 0x33F JUMP JUMPDEST PUSH1 0x40 MLOAD PUSH2 0x138 SWAP2 SWAP1 PUSH2 0x11F6 JUMP JUMPDEST PUSH1 0x40 MLOAD DUP1 SWAP2 SUB SWAP1 RETURN JUMPDEST PUSH2 0x149 PUSH2 0x345 JUMP JUMPDEST STOP JUMPDEST PUSH2 0x153 PUSH2 0x56C JUMP JUMPDEST PUSH1 0x40 MLOAD PUSH2 0x160 SWAP2 SWAP1 PUSH2 0x11F6 JUMP JUMPDEST PUSH1 0x40 MLOAD DUP1 SWAP2 SUB SWAP1 RETURN JUMPDEST PUSH2 0x171 PUSH2 0x572 JUMP JUMPDEST PUSH1 0x40 MLOAD PUSH2 0x17E SWAP2 SWAP1 PUSH2 0x11F6 JUMP JUMPDEST PUSH1 0x40 MLOAD DUP1 SWAP2 SUB SWAP1 RETURN JUMPDEST PUSH2 0x18F PUSH2 0x578 JUMP JUMPDEST PUSH1 0x40 MLOAD PUSH2 0x19C SWAP2 SWAP1 PUSH2 0x11F6 JUMP JUMPDEST PUSH1 0x40 MLOAD DUP1 SWAP2 SUB SWAP1 RETURN JUMPDEST PUSH2 0x1AD PUSH2 0x667 JUMP JUMPDEST STOP JUMPDEST PUSH2 0x1C9 PUSH1 0x4 DUP1 CALLDATASIZE SUB DUP2 ADD SWAP1 PUSH2 0x1C4 SWAP2 SWAP1 PUSH2 0x13B6 JUMP JUMPDEST PUSH2 0x760 JUMP JUMPDEST PUSH1 0x40 MLOAD PUSH2 0x1D6 SWAP2 SWAP1 PUSH2 0x11F6 JUMP JUMPDEST PUSH1 0x40 MLOAD DUP1 SWAP2 SUB SWAP1 RETURN JUMPDEST PUSH2 0x1F9 PUSH1 0x4 DUP1 CALLDATASIZE SUB DUP2 ADD SWAP1 PUSH2 0x1F4 SWAP2 SWAP1 PUSH2 0x143A JUMP JUMPDEST PUSH2 0x798 JUMP JUMPDEST STOP JUMPDEST PUSH2 0x203 PUSH2 0x9AC JUMP JUMPDEST PUSH1 0x40 MLOAD PUSH2 0x210 SWAP2 SWAP1 PUSH2 0x11F6 JUMP JUMPDEST PUSH1 0x40 MLOAD DUP1 SWAP2 SUB SWAP1 RETURN JUMPDEST PUSH2 0x221 PUSH2 0x9B2 JUMP JUMPDEST PUSH1 0x40 MLOAD PUSH2 0x22E SWAP2 SWAP1 PUSH2 0x14C0 JUMP JUMPDEST PUSH1 0x40 MLOAD DUP1 SWAP2 SUB SWAP1 RETURN JUMPDEST PUSH2 0x23F PUSH2 0x9D5 JUMP JUMPDEST PUSH1 0x40 MLOAD PUSH2 0x24C SWAP2 SWAP1 PUSH2 0x11F6 JUMP JUMPDEST PUSH1 0x40 MLOAD DUP1 SWAP2 SUB SWAP1 RETURN JUMPDEST PUSH2 0x25D PUSH2 0x9DB JUMP JUMPDEST PUSH1 0x40 MLOAD PUSH2 0x26A SWAP2 SWAP1 PUSH2 0x11F6 JUMP JUMPDEST PUSH1 0x40 MLOAD DUP1 SWAP2 SUB SWAP1 RETURN JUMPDEST PUSH2 0x28D PUSH1 0x4 DUP1 CALLDATASIZE SUB DUP2 ADD SWAP1 PUSH2 0x288 SWAP2 SWAP1 PUSH2 0x143A JUMP JUMPDEST PUSH2 0x9E1 JUMP JUMPDEST STOP JUMPDEST PUSH2 0x297 PUSH2 0xA2F JUMP JUMPDEST PUSH1 0x40 MLOAD PUSH2 0x2A4 SWAP2 SWAP1 PUSH2 0x11F6 JUMP JUMPDEST PUSH1 0x40 MLOAD DUP1 SWAP2 SUB SWAP1 RETURN JUMPDEST PUSH2 0x2B5 PUSH2 0xA38 JUMP JUMPDEST PUSH1 0x40 MLOAD PUSH2 0x2C2 SWAP2 SWAP1 PUSH2 0x11F6 JUMP JUMPDEST PUSH1 0x40 MLOAD DUP1 SWAP2 SUB SWAP1 RETURN JUMPDEST PUSH2 0x2E5 PUSH1 0x4 DUP1 CALLDATASIZE SUB DUP2 ADD SWAP1 PUSH2 0x2E0 SWAP2 SWAP1 PUSH2 0x143A JUMP JUMPDEST PUSH2 0xA96 JUMP JUMPDEST STOP JUMPDEST PUSH2 0x2EF PUSH2 0xF81 JUMP JUMPDEST PUSH1 0x40 MLOAD PUSH2 0x2FC SWAP2 SWAP1 PUSH2 0x14C0 JUMP JUMPDEST PUSH1 0x40 MLOAD DUP1 SWAP2 SUB SWAP1 RETURN JUMPDEST PUSH2 0x30D PUSH2 0xFA6 JUMP JUMPDEST PUSH1 0x40 MLOAD PUSH2 0x31A SWAP2 SWAP1 PUSH2 0x11F6 JUMP JUMPDEST PUSH1 0x40 MLOAD DUP1 SWAP2 SUB SWAP1 RETURN JUMPDEST PUSH2 0x33D PUSH1 0x4 DUP1 CALLDATASIZE SUB DUP2 ADD SWAP1 PUSH2 0x338 SWAP2 SWAP1 PUSH2 0x143A JUMP JUMPDEST PUSH2 0x1117 JUMP JUMPDEST STOP JUMPDEST PUSH1 0x4 SLOAD DUP2 JUMP JUMPDEST PUSH0 PUSH1 0x8 PUSH0 CALLER PUSH20 0xFFFFFFFFFFFFFFFFFFFFFFFFFFFFFFFFFFFFFFFF AND PUSH20 0xFFFFFFFFFFFFFFFFFFFFFFFFFFFFFFFFFFFFFFFF AND DUP2 MSTORE PUSH1 0x20 ADD SWAP1 DUP2 MSTORE PUSH1 0x20 ADD PUSH0 KECCAK256 PUSH1 0x40 MLOAD PUSH2 0x38F SWAP1 PUSH2 0x152D JUMP JUMPDEST SWAP1 DUP2 MSTORE PUSH1 0x20 ADD PUSH1 0x40 MLOAD DUP1 SWAP2 SUB SWAP1 KECCAK256 SLOAD GT PUSH2 0x3DE JUMPI PUSH1 0x40 MLOAD PUSH32 0x8C379A000000000000000000000000000000000000000000000000000000000 DUP2 MSTORE PUSH1 0x4 ADD PUSH2 0x3D5 SWAP1 PUSH2 0x15C1 JUMP JUMPDEST PUSH1 0x40 MLOAD DUP1 SWAP2 SUB SWAP1 REVERT JUMPDEST PUSH0 DUP1 SLOAD SWAP1 PUSH2 0x100 EXP SWAP1 DIV PUSH20 0xFFFFFFFFFFFFFFFFFFFFFFFFFFFFFFFFFFFFFFFF AND PUSH20 0xFFFFFFFFFFFFFFFFFFFFFFFFFFFFFFFFFFFFFFFF AND PUSH4 0xA9059CBB CALLER PUSH1 0x8 PUSH0 CALLER PUSH20 0xFFFFFFFFFFFFFFFFFFFFFFFFFFFFFFFFFFFFFFFF AND PUSH20 0xFFFFFFFFFFFFFFFFFFFFFFFFFFFFFFFFFFFFFFFF AND DUP2 MSTORE PUSH1 0x20 ADD SWAP1 DUP2 MSTORE PUSH1 0x20 ADD PUSH0 KECCAK256 PUSH1 0x40 MLOAD PUSH2 0x463 SWAP1 PUSH2 0x152D JUMP JUMPDEST SWAP1 DUP2 MSTORE PUSH1 0x20 ADD PUSH1 0x40 MLOAD DUP1 SWAP2 SUB SWAP1 KECCAK256 SLOAD PUSH1 0x40 MLOAD DUP4 PUSH4 0xFFFFFFFF AND PUSH1 0xE0 SHL DUP2 MSTORE PUSH1 0x4 ADD PUSH2 0x48F SWAP3 SWAP2 SWAP1 PUSH2 0x15EE JUMP JUMPDEST PUSH1 0x20 PUSH1 0x40 MLOAD DUP1 DUP4 SUB DUP2 PUSH0 DUP8 GAS CALL ISZERO DUP1 ISZERO PUSH2 0x4AB JUMPI RETURNDATASIZE PUSH0 DUP1 RETURNDATACOPY RETURNDATASIZE PUSH0 REVERT JUMPDEST POP POP POP POP PUSH1 0x40 MLOAD RETURNDATASIZE PUSH1 0x1F NOT PUSH1 0x1F DUP3 ADD AND DUP3 ADD DUP1 PUSH1 0x40 MSTORE POP DUP2 ADD SWAP1 PUSH2 0x4CF SWAP2 SWAP1 PUSH2 0x164A JUMP JUMPDEST PUSH2 0x50E JUMPI PUSH1 0x40 MLOAD PUSH32 0x8C379A000000000000000000000000000000000000000000000000000000000 DUP2 MSTORE PUSH1 0x4 ADD PUSH2 0x505 SWAP1 PUSH2 0x16BF JUMP JUMPDEST PUSH1 0x40 MLOAD DUP1 SWAP2 SUB SWAP1 REVERT JUMPDEST PUSH0 PUSH1 0x8 PUSH0 CALLER PUSH20 0xFFFFFFFFFFFFFFFFFFFFFFFFFFFFFFFFFFFFFFFF AND PUSH20 0xFFFFFFFFFFFFFFFFFFFFFFFFFFFFFFFFFFFFFFFF AND DUP2 MSTORE PUSH1 0x20 ADD SWAP1 DUP2 MSTORE PUSH1 0x20 ADD PUSH0 KECCAK256 PUSH1 0x40 MLOAD PUSH2 0x558 SWAP1 PUSH2 0x152D JUMP JUMPDEST SWAP1 DUP2 MSTORE PUSH1 0x20 ADD PUSH1 0x40 MLOAD DUP1 SWAP2 SUB SWAP1 KECCAK256 DUP2 SWAP1 SSTORE POP JUMP JUMPDEST PUSH1 0x7 SLOAD DUP2 JUMP JUMPDEST PUSH1 0x3 SLOAD DUP2 JUMP JUMPDEST PUSH0 DUP1 PUSH1 0x8 PUSH0 CALLER PUSH20 0xFFFFFFFFFFFFFFFFFFFFFFFFFFFFFFFFFFFFFFFF AND PUSH20 0xFFFFFFFFFFFFFFFFFFFFFFFFFFFFFFFFFFFFFFFF AND DUP2 MSTORE PUSH1 0x20 ADD SWAP1 DUP2 MSTORE PUSH1 0x20 ADD PUSH0 KECCAK256 PUSH1 0x40 MLOAD PUSH2 0x5C3 SWAP1 PUSH2 0x152D JUMP JUMPDEST SWAP1 DUP2 MSTORE PUSH1 0x20 ADD PUSH1 0x40 MLOAD DUP1 SWAP2 SUB SWAP1 KECCAK256 SLOAD GT PUSH2 0x612 JUMPI PUSH1 0x40 MLOAD PUSH32 0x8C379A000000000000000000000000000000000000000000000000000000000 DUP2 MSTORE PUSH1 0x4 ADD PUSH2 0x609 SWAP1 PUSH2 0x1727 JUMP JUMPDEST PUSH1 0x40 MLOAD DUP1 SWAP2 SUB SWAP1 REVERT JUMPDEST PUSH1 0xA PUSH0 CALLER PUSH20 0xFFFFFFFFFFFFFFFFFFFFFFFFFFFFFFFFFFFFFFFF AND PUSH20 0xFFFFFFFFFFFFFFFFFFFFFFFFFFFFFFFFFFFFFFFF AND DUP2 MSTORE PUSH1 0x20 ADD SWAP1 DUP2 MSTORE PUSH1 0x20 ADD PUSH0 KECCAK256 SLOAD PUSH2 0x658 PUSH2 0xFA6 JUMP JUMPDEST PUSH2 0x662 SWAP2 SWAP1 PUSH2 0x1772 JUMP JUMPDEST SWAP1 POP SWAP1 JUMP JUMPDEST PUSH1 0x1 PUSH1 0x8 PUSH0 CALLER PUSH20 0xFFFFFFFFFFFFFFFFFFFFFFFFFFFFFFFFFFFFFFFF AND PUSH20 0xFFFFFFFFFFFFFFFFFFFFFFFFFFFFFFFFFFFFFFFF AND DUP2 MSTORE PUSH1 0x20 ADD SWAP1 DUP2 MSTORE PUSH1 0x20 ADD PUSH0 KECCAK256 PUSH1 0x40 MLOAD PUSH2 0x6B2 SWAP1 PUSH2 0x17EF JUMP JUMPDEST SWAP1 DUP2 MSTORE PUSH1 0x20 ADD PUSH1 0x40 MLOAD DUP1 SWAP2 SUB SWAP1 KECCAK256 SLOAD SUB PUSH2 0x701 JUMPI PUSH1 0x40 MLOAD PUSH32 0x8C379A000000000000000000000000000000000000000000000000000000000 DUP2 MSTORE PUSH1 0x4 ADD PUSH2 0x6F8 SWAP1 PUSH2 0x184D JUMP JUMPDEST PUSH1 0x40 MLOAD DUP1 SWAP2 SUB SWAP1 REVERT JUMPDEST PUSH1 0x1 PUSH1 0x8 PUSH0 CALLER PUSH20 0xFFFFFFFFFFFFFFFFFFFFFFFFFFFFFFFFFFFFFFFF AND PUSH20 0xFFFFFFFFFFFFFFFFFFFFFFFFFFFFFFFFFFFFFFFF AND DUP2 MSTORE PUSH1 0x20 ADD SWAP1 DUP2 MSTORE PUSH1 0x20 ADD PUSH0 KECCAK256 PUSH1 0x40 MLOAD PUSH2 0x74C SWAP1 PUSH2 0x17EF JUMP JUMPDEST SWAP1 DUP2 MSTORE PUSH1 0x20 ADD PUSH1 0x40 MLOAD DUP1 SWAP2 SUB SWAP1 KECCAK256 DUP2 SWAP1 SSTORE POP JUMP JUMPDEST PUSH1 0x8 PUSH1 0x20 MSTORE DUP2 PUSH0 MSTORE PUSH1 0x40 PUSH0 KECCAK256 DUP2 DUP1 MLOAD PUSH1 0x20 DUP2 ADD DUP3 ADD DUP1 MLOAD DUP5 DUP3 MSTORE PUSH1 0x20 DUP4 ADD PUSH1 0x20 DUP6 ADD KECCAK256 DUP2 DUP4 MSTORE DUP1 SWAP6 POP POP POP POP POP POP PUSH0 SWAP2 POP SWAP2 POP POP SLOAD DUP2 JUMP JUMPDEST PUSH0 PUSH2 0x7A1 PUSH2 0x578 JUMP JUMPDEST SWAP1 POP PUSH0 DUP2 GT DUP1 ISZERO PUSH2 0x7B1 JUMPI POP PUSH0 DUP3 GT JUMPDEST PUSH2 0x7F0 JUMPI PUSH1 0x40 MLOAD PUSH32 0x8C379A000000000000000000000000000000000000000000000000000000000 DUP2 MSTORE PUSH1 0x4 ADD PUSH2 0x7E7 SWAP1 PUSH2 0x18B5 JUMP JUMPDEST PUSH1 0x40 MLOAD DUP1 SWAP2 SUB SWAP1 REVERT JUMPDEST DUP2 PUSH1 0x9 PUSH0 CALLER PUSH20 0xFFFFFFFFFFFFFFFFFFFFFFFFFFFFFFFFFFFFFFFF AND PUSH20 0xFFFFFFFFFFFFFFFFFFFFFFFFFFFFFFFFFFFFFFFF AND DUP2 MSTORE PUSH1 0x20 ADD SWAP1 DUP2 MSTORE PUSH1 0x20 ADD PUSH0 KECCAK256 SLOAD DUP3 PUSH2 0x83A SWAP2 SWAP1 PUSH2 0x18D3 JUMP JUMPDEST GT PUSH2 0x87A JUMPI PUSH1 0x40 MLOAD PUSH32 0x8C379A000000000000000000000000000000000000000000000000000000000 DUP2 MSTORE PUSH1 0x4 ADD PUSH2 0x871 SWAP1 PUSH2 0x1976 JUMP JUMPDEST PUSH1 0x40 MLOAD DUP1 SWAP2 SUB SWAP1 REVERT JUMPDEST PUSH1 0x1 PUSH0 SWAP1 SLOAD SWAP1 PUSH2 0x100 EXP SWAP1 DIV PUSH20 0xFFFFFFFFFFFFFFFFFFFFFFFFFFFFFFFFFFFFFFFF AND PUSH20 0xFFFFFFFFFFFFFFFFFFFFFFFFFFFFFFFFFFFFFFFF AND PUSH4 0xA9059CBB CALLER DUP5 PUSH1 0x40 MLOAD DUP4 PUSH4 0xFFFFFFFF AND PUSH1 0xE0 SHL DUP2 MSTORE PUSH1 0x4 ADD PUSH2 0x8D6 SWAP3 SWAP2 SWAP1 PUSH2 0x15EE JUMP JUMPDEST PUSH1 0x20 PUSH1 0x40 MLOAD DUP1 DUP4 SUB DUP2 PUSH0 DUP8 GAS CALL ISZERO DUP1 ISZERO PUSH2 0x8F2 JUMPI RETURNDATASIZE PUSH0 DUP1 RETURNDATACOPY RETURNDATASIZE PUSH0 REVERT JUMPDEST POP POP POP POP PUSH1 0x40 MLOAD RETURNDATASIZE PUSH1 0x1F NOT PUSH1 0x1F DUP3 ADD AND DUP3 ADD DUP1 PUSH1 0x40 MSTORE POP DUP2 ADD SWAP1 PUSH2 0x916 SWAP2 SWAP1 PUSH2 0x164A JUMP JUMPDEST PUSH2 0x955 JUMPI PUSH1 0x40 MLOAD PUSH32 0x8C379A000000000000000000000000000000000000000000000000000000000 DUP2 MSTORE PUSH1 0x4 ADD PUSH2 0x94C SWAP1 PUSH2 0x16BF JUMP JUMPDEST PUSH1 0x40 MLOAD DUP1 SWAP2 SUB SWAP1 REVERT JUMPDEST DUP2 PUSH1 0x9 PUSH0 CALLER PUSH20 0xFFFFFFFFFFFFFFFFFFFFFFFFFFFFFFFFFFFFFFFF AND PUSH20 0xFFFFFFFFFFFFFFFFFFFFFFFFFFFFFFFFFFFFFFFF AND DUP2 MSTORE PUSH1 0x20 ADD SWAP1 DUP2 MSTORE PUSH1 0x20 ADD PUSH0 KECCAK256 PUSH0 DUP3 DUP3 SLOAD PUSH2 0x9A1 SWAP2 SWAP1 PUSH2 0x1772 JUMP JUMPDEST SWAP3 POP POP DUP2 SWAP1 SSTORE POP POP POP JUMP JUMPDEST PUSH1 0x5 SLOAD DUP2 JUMP JUMPDEST PUSH0 DUP1 SLOAD SWAP1 PUSH2 0x100 EXP SWAP1 DIV PUSH20 0xFFFFFFFFFFFFFFFFFFFFFFFFFFFFFFFFFFFFFFFF AND DUP2 JUMP JUMPDEST PUSH1 0x6 SLOAD DUP2 JUMP JUMPDEST PUSH1 0x2 SLOAD DUP2 JUMP JUMPDEST TIMESTAMP PUSH1 0x5 SLOAD LT PUSH2 0xA25 JUMPI PUSH1 0x40 MLOAD PUSH32 0x8C379A000000000000000000000000000000000000000000000000000000000 DUP2 MSTORE PUSH1 0x4 ADD PUSH2 0xA1C SWAP1 PUSH2 0x19DE JUMP JUMPDEST PUSH1 0x40 MLOAD DUP1 SWAP2 SUB SWAP1 REVERT JUMPDEST DUP1 PUSH1 0x7 DUP2 SWAP1 SSTORE POP POP JUMP JUMPDEST PUSH0 PUSH1 0x4 SLOAD SWAP1 POP SWAP1 JUMP JUMPDEST PUSH0 PUSH1 0x8 PUSH0 CALLER PUSH20 0xFFFFFFFFFFFFFFFFFFFFFFFFFFFFFFFFFFFFFFFF AND PUSH20 0xFFFFFFFFFFFFFFFFFFFFFFFFFFFFFFFFFFFFFFFF AND DUP2 MSTORE PUSH1 0x20 ADD SWAP1 DUP2 MSTORE PUSH1 0x20 ADD PUSH0 KECCAK256 PUSH1 0x40 MLOAD PUSH2 0xA82 SWAP1 PUSH2 0x152D JUMP JUMPDEST SWAP1 DUP2 MSTORE PUSH1 0x20 ADD PUSH1 0x40 MLOAD DUP1 SWAP2 SUB SWAP1 KECCAK256 SLOAD SWAP1 POP SWAP1 JUMP JUMPDEST PUSH0 PUSH1 0x4 SLOAD GT PUSH2 0xADA JUMPI PUSH1 0x40 MLOAD PUSH32 0x8C379A000000000000000000000000000000000000000000000000000000000 DUP2 MSTORE PUSH1 0x4 ADD PUSH2 0xAD1 SWAP1 PUSH2 0x1A46 JUMP JUMPDEST PUSH1 0x40 MLOAD DUP1 SWAP2 SUB SWAP1 REVERT JUMPDEST PUSH1 0x1 PUSH1 0x8 PUSH0 CALLER PUSH20 0xFFFFFFFFFFFFFFFFFFFFFFFFFFFFFFFFFFFFFFFF AND PUSH20 0xFFFFFFFFFFFFFFFFFFFFFFFFFFFFFFFFFFFFFFFF AND DUP2 MSTORE PUSH1 0x20 ADD SWAP1 DUP2 MSTORE PUSH1 0x20 ADD PUSH0 KECCAK256 PUSH1 0x40 MLOAD PUSH2 0xB25 SWAP1 PUSH2 0x17EF JUMP JUMPDEST SWAP1 DUP2 MSTORE PUSH1 0x20 ADD PUSH1 0x40 MLOAD DUP1 SWAP2 SUB SWAP1 KECCAK256 SLOAD SUB PUSH2 0xB74 JUMPI PUSH1 0x40 MLOAD PUSH32 0x8C379A000000000000000000000000000000000000000000000000000000000 DUP2 MSTORE PUSH1 0x4 ADD PUSH2 0xB6B SWAP1 PUSH2 0x1AD4 JUMP JUMPDEST PUSH1 0x40 MLOAD DUP1 SWAP2 SUB SWAP1 REVERT JUMPDEST DUP1 PUSH0 DUP1 SLOAD SWAP1 PUSH2 0x100 EXP SWAP1 DIV PUSH20 0xFFFFFFFFFFFFFFFFFFFFFFFFFFFFFFFFFFFFFFFF AND PUSH20 0xFFFFFFFFFFFFFFFFFFFFFFFFFFFFFFFFFFFFFFFF AND PUSH4 0x70A08231 CALLER PUSH1 0x40 MLOAD DUP3 PUSH4 0xFFFFFFFF AND PUSH1 0xE0 SHL DUP2 MSTORE PUSH1 0x4 ADD PUSH2 0xBCD SWAP2 SWAP1 PUSH2 0x1AF2 JUMP JUMPDEST PUSH1 0x20 PUSH1 0x40 MLOAD DUP1 DUP4 SUB DUP2 DUP7 GAS STATICCALL ISZERO DUP1 ISZERO PUSH2 0xBE8 JUMPI RETURNDATASIZE PUSH0 DUP1 RETURNDATACOPY RETURNDATASIZE PUSH0 REVERT JUMPDEST POP POP POP POP PUSH1 0x40 MLOAD RETURNDATASIZE PUSH1 0x1F NOT PUSH1 0x1F DUP3 ADD AND DUP3 ADD DUP1 PUSH1 0x40 MSTORE POP DUP2 ADD SWAP1 PUSH2 0xC0C SWAP2 SWAP1 PUSH2 0x1B1F JUMP JUMPDEST LT ISZERO PUSH2 0xC4D JUMPI PUSH1 0x40 MLOAD PUSH32 0x8C379A000000000000000000000000000000000000000000000000000000000 DUP2 MSTORE PUSH1 0x4 ADD PUSH2 0xC44 SWAP1 PUSH2 0x1B94 JUMP JUMPDEST PUSH1 0x40 MLOAD DUP1 SWAP2 SUB SWAP1 REVERT JUMPDEST PUSH0 DUP1 SLOAD SWAP1 PUSH2 0x100 EXP SWAP1 DIV PUSH20 0xFFFFFFFFFFFFFFFFFFFFFFFFFFFFFFFFFFFFFFFF AND PUSH20 0xFFFFFFFFFFFFFFFFFFFFFFFFFFFFFFFFFFFFFFFF AND PUSH4 0x23B872DD CALLER ADDRESS DUP5 PUSH1 0x40 MLOAD DUP5 PUSH4 0xFFFFFFFF AND PUSH1 0xE0 SHL DUP2 MSTORE PUSH1 0x4 ADD PUSH2 0xCA9 SWAP4 SWAP3 SWAP2 SWAP1 PUSH2 0x1BB2 JUMP JUMPDEST PUSH1 0x20 PUSH1 0x40 MLOAD DUP1 DUP4 SUB DUP2 PUSH0 DUP8 GAS CALL ISZERO DUP1 ISZERO PUSH2 0xCC5 JUMPI RETURNDATASIZE PUSH0 DUP1 RETURNDATACOPY RETURNDATASIZE PUSH0 REVERT JUMPDEST POP POP POP POP PUSH1 0x40 MLOAD RETURNDATASIZE PUSH1 0x1F NOT PUSH1 0x1F DUP3 ADD AND DUP3 ADD DUP1 PUSH1 0x40 MSTORE POP DUP2 ADD SWAP1 PUSH2 0xCE9 SWAP2 SWAP1 PUSH2 0x164A JUMP JUMPDEST PUSH2 0xD28 JUMPI PUSH1 0x40 MLOAD PUSH32 0x8C379A000000000000000000000000000000000000000000000000000000000 DUP2 MSTORE PUSH1 0x4 ADD PUSH2 0xD1F SWAP1 PUSH2 0x1C31 JUMP JUMPDEST PUSH1 0x40 MLOAD DUP1 SWAP2 SUB SWAP1 REVERT JUMPDEST PUSH2 0xD92 DUP2 PUSH1 0x8 PUSH0 CALLER PUSH20 0xFFFFFFFFFFFFFFFFFFFFFFFFFFFFFFFFFFFFFFFF AND PUSH20 0xFFFFFFFFFFFFFFFFFFFFFFFFFFFFFFFFFFFFFFFF AND DUP2 MSTORE PUSH1 0x20 ADD SWAP1 DUP2 MSTORE PUSH1 0x20 ADD PUSH0 KECCAK256 PUSH1 0x40 MLOAD PUSH2 0xD75 SWAP1 PUSH2 0x152D JUMP JUMPDEST SWAP1 DUP2 MSTORE PUSH1 0x20 ADD PUSH1 0x40 MLOAD DUP1 SWAP2 SUB SWAP1 KECCAK256 SLOAD PUSH2 0x11C9 SWAP1 SWAP2 SWAP1 PUSH4 0xFFFFFFFF AND JUMP JUMPDEST PUSH1 0x8 PUSH0 CALLER PUSH20 0xFFFFFFFFFFFFFFFFFFFFFFFFFFFFFFFFFFFFFFFF AND PUSH20 0xFFFFFFFFFFFFFFFFFFFFFFFFFFFFFFFFFFFFFFFF AND DUP2 MSTORE PUSH1 0x20 ADD SWAP1 DUP2 MSTORE PUSH1 0x20 ADD PUSH0 KECCAK256 PUSH1 0x40 MLOAD PUSH2 0xDDB SWAP1 PUSH2 0x152D JUMP JUMPDEST SWAP1 DUP2 MSTORE PUSH1 0x20 ADD PUSH1 0x40 MLOAD DUP1 SWAP2 SUB SWAP1 KECCAK256 DUP2 SWAP1 SSTORE POP PUSH0 PUSH1 0x8 PUSH0 CALLER PUSH20 0xFFFFFFFFFFFFFFFFFFFFFFFFFFFFFFFFFFFFFFFF AND PUSH20 0xFFFFFFFFFFFFFFFFFFFFFFFFFFFFFFFFFFFFFFFF AND DUP2 MSTORE PUSH1 0x20 ADD SWAP1 DUP2 MSTORE PUSH1 0x20 ADD PUSH0 KECCAK256 PUSH1 0x40 MLOAD PUSH2 0xE37 SWAP1 PUSH2 0x1C99 JUMP JUMPDEST SWAP1 DUP2 MSTORE PUSH1 0x20 ADD PUSH1 0x40 MLOAD DUP1 SWAP2 SUB SWAP1 KECCAK256 SLOAD SUB PUSH2 0xEAC JUMPI TIMESTAMP PUSH1 0x8 PUSH0 CALLER PUSH20 0xFFFFFFFFFFFFFFFFFFFFFFFFFFFFFFFFFFFFFFFF AND PUSH20 0xFFFFFFFFFFFFFFFFFFFFFFFFFFFFFFFFFFFFFFFF AND DUP2 MSTORE PUSH1 0x20 ADD SWAP1 DUP2 MSTORE PUSH1 0x20 ADD PUSH0 KECCAK256 PUSH1 0x40 MLOAD PUSH2 0xE95 SWAP1 PUSH2 0x1C99 JUMP JUMPDEST SWAP1 DUP2 MSTORE PUSH1 0x20 ADD PUSH1 0x40 MLOAD DUP1 SWAP2 SUB SWAP1 KECCAK256 DUP2 SWAP1 SSTORE POP PUSH2 0xF63 JUMP JUMPDEST PUSH2 0xEB4 PUSH2 0xFA6 JUMP JUMPDEST PUSH1 0xA PUSH0 CALLER PUSH20 0xFFFFFFFFFFFFFFFFFFFFFFFFFFFFFFFFFFFFFFFF AND PUSH20 0xFFFFFFFFFFFFFFFFFFFFFFFFFFFFFFFFFFFFFFFF AND DUP2 MSTORE PUSH1 0x20 ADD SWAP1 DUP2 MSTORE PUSH1 0x20 ADD PUSH0 KECCAK256 PUSH0 DUP3 DUP3 SLOAD PUSH2 0xEFF SWAP2 SWAP1 PUSH2 0x1772 JUMP JUMPDEST SWAP3 POP POP DUP2 SWAP1 SSTORE POP TIMESTAMP PUSH1 0x8 PUSH0 CALLER PUSH20 0xFFFFFFFFFFFFFFFFFFFFFFFFFFFFFFFFFFFFFFFF AND PUSH20 0xFFFFFFFFFFFFFFFFFFFFFFFFFFFFFFFFFFFFFFFF AND DUP2 MSTORE PUSH1 0x20 ADD SWAP1 DUP2 MSTORE PUSH1 0x20 ADD PUSH0 KECCAK256 PUSH1 0x40 MLOAD PUSH2 0xF50 SWAP1 PUSH2 0x1C99 JUMP JUMPDEST SWAP1 DUP2 MSTORE PUSH1 0x20 ADD PUSH1 0x40 MLOAD DUP1 SWAP2 SUB SWAP1 KECCAK256 DUP2 SWAP1 SSTORE POP JUMPDEST PUSH2 0xF78 DUP2 PUSH1 0x2 SLOAD PUSH2 0x11C9 SWAP1 SWAP2 SWAP1 PUSH4 0xFFFFFFFF AND JUMP JUMPDEST PUSH1 0x2 DUP2 SWAP1 SSTORE POP POP JUMP JUMPDEST PUSH1 0x1 PUSH0 SWAP1 SLOAD SWAP1 PUSH2 0x100 EXP SWAP1 DIV PUSH20 0xFFFFFFFFFFFFFFFFFFFFFFFFFFFFFFFFFFFFFFFF AND DUP2 JUMP JUMPDEST PUSH0 DUP1 PUSH1 0x8 PUSH0 CALLER PUSH20 0xFFFFFFFFFFFFFFFFFFFFFFFFFFFFFFFFFFFFFFFF AND PUSH20 0xFFFFFFFFFFFFFFFFFFFFFFFFFFFFFFFFFFFFFFFF AND DUP2 MSTORE PUSH1 0x20 ADD SWAP1 DUP2 MSTORE PUSH1 0x20 ADD PUSH0 KECCAK256 PUSH1 0x40 MLOAD PUSH2 0xFF1 SWAP1 PUSH2 0x152D JUMP JUMPDEST SWAP1 DUP2 MSTORE PUSH1 0x20 ADD PUSH1 0x40 MLOAD DUP1 SWAP2 SUB SWAP1 KECCAK256 SLOAD GT PUSH2 0x1040 JUMPI PUSH1 0x40 MLOAD PUSH32 0x8C379A000000000000000000000000000000000000000000000000000000000 DUP2 MSTORE PUSH1 0x4 ADD PUSH2 0x1037 SWAP1 PUSH2 0x1727 JUMP JUMPDEST PUSH1 0x40 MLOAD DUP1 SWAP2 SUB SWAP1 REVERT JUMPDEST PUSH1 0x8 PUSH0 CALLER PUSH20 0xFFFFFFFFFFFFFFFFFFFFFFFFFFFFFFFFFFFFFFFF AND PUSH20 0xFFFFFFFFFFFFFFFFFFFFFFFFFFFFFFFFFFFFFFFF AND DUP2 MSTORE PUSH1 0x20 ADD SWAP1 DUP2 MSTORE PUSH1 0x20 ADD PUSH0 KECCAK256 PUSH1 0x40 MLOAD PUSH2 0x1089 SWAP1 PUSH2 0x1C99 JUMP JUMPDEST SWAP1 DUP2 MSTORE PUSH1 0x20 ADD PUSH1 0x40 MLOAD DUP1 SWAP2 SUB SWAP1 KECCAK256 SLOAD TIMESTAMP PUSH2 0x10A3 SWAP2 SWAP1 PUSH2 0x18D3 JUMP JUMPDEST PUSH1 0x7 SLOAD PUSH1 0x8 PUSH0 CALLER PUSH20 0xFFFFFFFFFFFFFFFFFFFFFFFFFFFFFFFFFFFFFFFF AND PUSH20 0xFFFFFFFFFFFFFFFFFFFFFFFFFFFFFFFFFFFFFFFF AND DUP2 MSTORE PUSH1 0x20 ADD SWAP1 DUP2 MSTORE PUSH1 0x20 ADD PUSH0 KECCAK256 PUSH1 0x40 MLOAD PUSH2 0x10EF SWAP1 PUSH2 0x152D JUMP JUMPDEST SWAP1 DUP2 MSTORE PUSH1 0x20 ADD PUSH1 0x40 MLOAD DUP1 SWAP2 SUB SWAP1 KECCAK256 SLOAD PUSH2 0x1108 SWAP2 SWAP1 PUSH2 0x1CAD JUMP JUMPDEST PUSH2 0x1112 SWAP2 SWAP1 PUSH2 0x1CAD JUMP JUMPDEST SWAP1 POP SWAP1 JUMP JUMPDEST TIMESTAMP PUSH1 0x5 SLOAD LT PUSH2 0x115B JUMPI PUSH1 0x40 MLOAD PUSH32 0x8C379A000000000000000000000000000000000000000000000000000000000 DUP2 MSTORE PUSH1 0x4 ADD PUSH2 0x1152 SWAP1 PUSH2 0x1D5E JUMP JUMPDEST PUSH1 0x40 MLOAD DUP1 SWAP2 SUB SWAP1 REVERT JUMPDEST PUSH0 PUSH1 0x7 SLOAD GT PUSH2 0x119F JUMPI PUSH1 0x40 MLOAD PUSH32 0x8C379A000000000000000000000000000000000000000000000000000000000 DUP2 MSTORE PUSH1 0x4 ADD PUSH2 0x1196 SWAP1 PUSH2 0x1DEC JUMP JUMPDEST PUSH1 0x40 MLOAD DUP1 SWAP2 SUB SWAP1 REVERT JUMPDEST DUP1 PUSH1 0x4 DUP2 SWAP1 SSTORE POP PUSH2 0x11B9 TIMESTAMP DUP3 PUSH2 0x11C9 SWAP1 SWAP2 SWAP1 PUSH4 0xFFFFFFFF AND JUMP JUMPDEST PUSH1 0x5 DUP2 SWAP1 SSTORE POP TIMESTAMP PUSH1 0x6 DUP2 SWAP1 SSTORE POP POP JUMP JUMPDEST PUSH0 DUP2 DUP4 PUSH2 0x11D6 SWAP2 SWAP1 PUSH2 0x1772 JUMP JUMPDEST SWAP1 POP SWAP3 SWAP2 POP POP JUMP JUMPDEST PUSH0 DUP2 SWAP1 POP SWAP2 SWAP1 POP JUMP JUMPDEST PUSH2 0x11F0 DUP2 PUSH2 0x11DE JUMP JUMPDEST DUP3 MSTORE POP POP JUMP JUMPDEST PUSH0 PUSH1 0x20 DUP3 ADD SWAP1 POP PUSH2 0x1209 PUSH0 DUP4 ADD DUP5 PUSH2 0x11E7 JUMP JUMPDEST SWAP3 SWAP2 POP POP JUMP JUMPDEST PUSH0 PUSH1 0x40 MLOAD SWAP1 POP SWAP1 JUMP JUMPDEST PUSH0 DUP1 REVERT JUMPDEST PUSH0 DUP1 REVERT JUMPDEST PUSH0 PUSH20 0xFFFFFFFFFFFFFFFFFFFFFFFFFFFFFFFFFFFFFFFF DUP3 AND SWAP1 POP SWAP2 SWAP1 POP JUMP JUMPDEST PUSH0 PUSH2 0x1249 DUP3 PUSH2 0x1220 JUMP JUMPDEST SWAP1 POP SWAP2 SWAP1 POP JUMP JUMPDEST PUSH2 0x1259 DUP2 PUSH2 0x123F JUMP JUMPDEST DUP2 EQ PUSH2 0x1263 JUMPI PUSH0 DUP1 REVERT JUMPDEST POP JUMP JUMPDEST PUSH0 DUP2 CALLDATALOAD SWAP1 POP PUSH2 0x1274 DUP2 PUSH2 0x1250 JUMP JUMPDEST SWAP3 SWAP2 POP POP JUMP JUMPDEST PUSH0 DUP1 REVERT JUMPDEST PUSH0 DUP1 REVERT JUMPDEST PUSH0 PUSH1 0x1F NOT PUSH1 0x1F DUP4 ADD AND SWAP1 POP SWAP2 SWAP1 POP JUMP JUMPDEST PUSH32 0x4E487B7100000000000000000000000000000000000000000000000000000000 PUSH0 MSTORE PUSH1 0x41 PUSH1 0x4 MSTORE PUSH1 0x24 PUSH0 REVERT JUMPDEST PUSH2 0x12C8 DUP3 PUSH2 0x1282 JUMP JUMPDEST DUP2 ADD DUP2 DUP2 LT PUSH8 0xFFFFFFFFFFFFFFFF DUP3 GT OR ISZERO PUSH2 0x12E7 JUMPI PUSH2 0x12E6 PUSH2 0x1292 JUMP JUMPDEST JUMPDEST DUP1 PUSH1 0x40 MSTORE POP POP POP JUMP JUMPDEST PUSH0 PUSH2 0x12F9 PUSH2 0x120F JUMP JUMPDEST SWAP1 POP PUSH2 0x1305 DUP3 DUP3 PUSH2 0x12BF JUMP JUMPDEST SWAP2 SWAP1 POP JUMP JUMPDEST PUSH0 PUSH8 0xFFFFFFFFFFFFFFFF DUP3 GT ISZERO PUSH2 0x1324 JUMPI PUSH2 0x1323 PUSH2 0x1292 JUMP JUMPDEST JUMPDEST PUSH2 0x132D DUP3 PUSH2 0x1282 JUMP JUMPDEST SWAP1 POP PUSH1 0x20 DUP2 ADD SWAP1 POP SWAP2 SWAP1 POP JUMP JUMPDEST DUP3 DUP2 DUP4 CALLDATACOPY PUSH0 DUP4 DUP4 ADD MSTORE POP POP POP JUMP JUMPDEST PUSH0 PUSH2 0x135A PUSH2 0x1355 DUP5 PUSH2 0x130A JUMP JUMPDEST PUSH2 0x12F0 JUMP JUMPDEST SWAP1 POP DUP3 DUP2 MSTORE PUSH1 0x20 DUP2 ADD DUP5 DUP5 DUP5 ADD GT ISZERO PUSH2 0x1376 JUMPI PUSH2 0x1375 PUSH2 0x127E JUMP JUMPDEST JUMPDEST PUSH2 0x1381 DUP5 DUP3 DUP6 PUSH2 0x133A JUMP JUMPDEST POP SWAP4 SWAP3 POP POP POP JUMP JUMPDEST PUSH0 DUP3 PUSH1 0x1F DUP4 ADD SLT PUSH2 0x139D JUMPI PUSH2 0x139C PUSH2 0x127A JUMP JUMPDEST JUMPDEST DUP2 CALLDATALOAD PUSH2 0x13AD DUP5 DUP3 PUSH1 0x20 DUP7 ADD PUSH2 0x1348 JUMP JUMPDEST SWAP2 POP POP SWAP3 SWAP2 POP POP JUMP JUMPDEST PUSH0 DUP1 PUSH1 0x40 DUP4 DUP6 SUB SLT ISZERO PUSH2 0x13CC JUMPI PUSH2 0x13CB PUSH2 0x1218 JUMP JUMPDEST JUMPDEST PUSH0 PUSH2 0x13D9 DUP6 DUP3 DUP7 ADD PUSH2 0x1266 JUMP JUMPDEST SWAP3 POP POP PUSH1 0x20 DUP4 ADD CALLDATALOAD PUSH8 0xFFFFFFFFFFFFFFFF DUP2 GT ISZERO PUSH2 0x13FA JUMPI PUSH2 0x13F9 PUSH2 0x121C JUMP JUMPDEST JUMPDEST PUSH2 0x1406 DUP6 DUP3 DUP7 ADD PUSH2 0x1389 JUMP JUMPDEST SWAP2 POP POP SWAP3 POP SWAP3 SWAP1 POP JUMP JUMPDEST PUSH2 0x1419 DUP2 PUSH2 0x11DE JUMP JUMPDEST DUP2 EQ PUSH2 0x1423 JUMPI PUSH0 DUP1 REVERT JUMPDEST POP JUMP JUMPDEST PUSH0 DUP2 CALLDATALOAD SWAP1 POP PUSH2 0x1434 DUP2 PUSH2 0x1410 JUMP JUMPDEST SWAP3 SWAP2 POP POP JUMP JUMPDEST PUSH0 PUSH1 0x20 DUP3 DUP5 SUB SLT ISZERO PUSH2 0x144F JUMPI PUSH2 0x144E PUSH2 0x1218 JUMP JUMPDEST JUMPDEST PUSH0 PUSH2 0x145C DUP5 DUP3 DUP6 ADD PUSH2 0x1426 JUMP JUMPDEST SWAP2 POP POP SWAP3 SWAP2 POP POP JUMP JUMPDEST PUSH0 DUP2 SWAP1 POP SWAP2 SWAP1 POP JUMP JUMPDEST PUSH0 PUSH2 0x1488 PUSH2 0x1483 PUSH2 0x147E DUP5 PUSH2 0x1220 JUMP JUMPDEST PUSH2 0x1465 JUMP JUMPDEST PUSH2 0x1220 JUMP JUMPDEST SWAP1 POP SWAP2 SWAP1 POP JUMP JUMPDEST PUSH0 PUSH2 0x1499 DUP3 PUSH2 0x146E JUMP JUMPDEST SWAP1 POP SWAP2 SWAP1 POP JUMP JUMPDEST PUSH0 PUSH2 0x14AA DUP3 PUSH2 0x148F JUMP JUMPDEST SWAP1 POP SWAP2 SWAP1 POP JUMP JUMPDEST PUSH2 0x14BA DUP2 PUSH2 0x14A0 JUMP JUMPDEST DUP3 MSTORE POP POP JUMP JUMPDEST PUSH0 PUSH1 0x20 DUP3 ADD SWAP1 POP PUSH2 0x14D3 PUSH0 DUP4 ADD DUP5 PUSH2 0x14B1 JUMP JUMPDEST SWAP3 SWAP2 POP POP JUMP JUMPDEST PUSH0 DUP2 SWAP1 POP SWAP3 SWAP2 POP POP JUMP JUMPDEST PUSH32 0x616D6F756E740000000000000000000000000000000000000000000000000000 PUSH0 DUP3 ADD MSTORE POP JUMP JUMPDEST PUSH0 PUSH2 0x1517 PUSH1 0x6 DUP4 PUSH2 0x14D9 JUMP JUMPDEST SWAP2 POP PUSH2 0x1522 DUP3 PUSH2 0x14E3 JUMP JUMPDEST PUSH1 0x6 DUP3 ADD SWAP1 POP SWAP2 SWAP1 POP JUMP JUMPDEST PUSH0 PUSH2 0x1537 DUP3 PUSH2 0x150B JUMP JUMPDEST SWAP2 POP DUP2 SWAP1 POP SWAP2 SWAP1 POP JUMP JUMPDEST PUSH0 DUP3 DUP3 MSTORE PUSH1 0x20 DUP3 ADD SWAP1 POP SWAP3 SWAP2 POP POP JUMP JUMPDEST PUSH32 0x5573657220646F6573206E6F742068617665207374616B657320696E20746869 PUSH0 DUP3 ADD MSTORE PUSH32 0x7320706F6F6C0000000000000000000000000000000000000000000000000000 PUSH1 0x20 DUP3 ADD MSTORE POP JUMP JUMPDEST PUSH0 PUSH2 0x15AB PUSH1 0x26 DUP4 PUSH2 0x1541 JUMP JUMPDEST SWAP2 POP PUSH2 0x15B6 DUP3 PUSH2 0x1551 JUMP JUMPDEST PUSH1 0x40 DUP3 ADD SWAP1 POP SWAP2 SWAP1 POP JUMP JUMPDEST PUSH0 PUSH1 0x20 DUP3 ADD SWAP1 POP DUP2 DUP2 SUB PUSH0 DUP4 ADD MSTORE PUSH2 0x15D8 DUP2 PUSH2 0x159F JUMP JUMPDEST SWAP1 POP SWAP2 SWAP1 POP JUMP JUMPDEST PUSH2 0x15E8 DUP2 PUSH2 0x123F JUMP JUMPDEST DUP3 MSTORE POP POP JUMP JUMPDEST PUSH0 PUSH1 0x40 DUP3 ADD SWAP1 POP PUSH2 0x1601 PUSH0 DUP4 ADD DUP6 PUSH2 0x15DF JUMP JUMPDEST PUSH2 0x160E PUSH1 0x20 DUP4 ADD DUP5 PUSH2 0x11E7 JUMP JUMPDEST SWAP4 SWAP3 POP POP POP JUMP JUMPDEST PUSH0 DUP2 ISZERO ISZERO SWAP1 POP SWAP2 SWAP1 POP JUMP JUMPDEST PUSH2 0x1629 DUP2 PUSH2 0x1615 JUMP JUMPDEST DUP2 EQ PUSH2 0x1633 JUMPI PUSH0 DUP1 REVERT JUMPDEST POP JUMP JUMPDEST PUSH0 DUP2 MLOAD SWAP1 POP PUSH2 0x1644 DUP2 PUSH2 0x1620 JUMP JUMPDEST SWAP3 SWAP2 POP POP JUMP JUMPDEST PUSH0 PUSH1 0x20 DUP3 DUP5 SUB SLT ISZERO PUSH2 0x165F JUMPI PUSH2 0x165E PUSH2 0x1218 JUMP JUMPDEST JUMPDEST PUSH0 PUSH2 0x166C DUP5 DUP3 DUP6 ADD PUSH2 0x1636 JUMP JUMPDEST SWAP2 POP POP SWAP3 SWAP2 POP POP JUMP JUMPDEST PUSH32 0x4661696C656420746F207472616E7366657220746F6B656E7300000000000000 PUSH0 DUP3 ADD MSTORE POP JUMP JUMPDEST PUSH0 PUSH2 0x16A9 PUSH1 0x19 DUP4 PUSH2 0x1541 JUMP JUMPDEST SWAP2 POP PUSH2 0x16B4 DUP3 PUSH2 0x1675 JUMP JUMPDEST PUSH1 0x20 DUP3 ADD SWAP1 POP SWAP2 SWAP1 POP JUMP JUMPDEST PUSH0 PUSH1 0x20 DUP3 ADD SWAP1 POP DUP2 DUP2 SUB PUSH0 DUP4 ADD MSTORE PUSH2 0x16D6 DUP2 PUSH2 0x169D JUMP JUMPDEST SWAP1 POP SWAP2 SWAP1 POP JUMP JUMPDEST PUSH32 0x596F752068617665206E6F74207374616B656420616E7920746F6B656E730000 PUSH0 DUP3 ADD MSTORE POP JUMP JUMPDEST PUSH0 PUSH2 0x1711 PUSH1 0x1E DUP4 PUSH2 0x1541 JUMP JUMPDEST SWAP2 POP PUSH2 0x171C DUP3 PUSH2 0x16DD JUMP JUMPDEST PUSH1 0x20 DUP3 ADD SWAP1 POP SWAP2 SWAP1 POP JUMP JUMPDEST PUSH0 PUSH1 0x20 DUP3 ADD SWAP1 POP DUP2 DUP2 SUB PUSH0 DUP4 ADD MSTORE PUSH2 0x173E DUP2 PUSH2 0x1705 JUMP JUMPDEST SWAP1 POP SWAP2 SWAP1 POP JUMP JUMPDEST PUSH32 0x4E487B7100000000000000000000000000000000000000000000000000000000 PUSH0 MSTORE PUSH1 0x11 PUSH1 0x4 MSTORE PUSH1 0x24 PUSH0 REVERT JUMPDEST PUSH0 PUSH2 0x177C DUP3 PUSH2 0x11DE JUMP JUMPDEST SWAP2 POP PUSH2 0x1787 DUP4 PUSH2 0x11DE JUMP JUMPDEST SWAP3 POP DUP3 DUP3 ADD SWAP1 POP DUP1 DUP3 GT ISZERO PUSH2 0x179F JUMPI PUSH2 0x179E PUSH2 0x1745 JUMP JUMPDEST JUMPDEST SWAP3 SWAP2 POP POP JUMP JUMPDEST PUSH32 0x6C6F636B5374616B657300000000000000000000000000000000000000000000 PUSH0 DUP3 ADD MSTORE POP JUMP JUMPDEST PUSH0 PUSH2 0x17D9 PUSH1 0xA DUP4 PUSH2 0x14D9 JUMP JUMPDEST SWAP2 POP PUSH2 0x17E4 DUP3 PUSH2 0x17A5 JUMP JUMPDEST PUSH1 0xA DUP3 ADD SWAP1 POP SWAP2 SWAP1 POP JUMP JUMPDEST PUSH0 PUSH2 0x17F9 DUP3 PUSH2 0x17CD JUMP JUMPDEST SWAP2 POP DUP2 SWAP1 POP SWAP2 SWAP1 POP JUMP JUMPDEST PUSH32 0x5374616B65732068617665206265656E206C6F636B6564000000000000000000 PUSH0 DUP3 ADD MSTORE POP JUMP JUMPDEST PUSH0 PUSH2 0x1837 PUSH1 0x17 DUP4 PUSH2 0x1541 JUMP JUMPDEST SWAP2 POP PUSH2 0x1842 DUP3 PUSH2 0x1803 JUMP JUMPDEST PUSH1 0x20 DUP3 ADD SWAP1 POP SWAP2 SWAP1 POP JUMP JUMPDEST PUSH0 PUSH1 0x20 DUP3 ADD SWAP1 POP DUP2 DUP2 SUB PUSH0 DUP4 ADD MSTORE PUSH2 0x1864 DUP2 PUSH2 0x182B JUMP JUMPDEST SWAP1 POP SWAP2 SWAP1 POP JUMP JUMPDEST PUSH32 0x596F752068617665206E6F74206561726E656420616E79207265776172647300 PUSH0 DUP3 ADD MSTORE POP JUMP JUMPDEST PUSH0 PUSH2 0x189F PUSH1 0x1F DUP4 PUSH2 0x1541 JUMP JUMPDEST SWAP2 POP PUSH2 0x18AA DUP3 PUSH2 0x186B JUMP JUMPDEST PUSH1 0x20 DUP3 ADD SWAP1 POP SWAP2 SWAP1 POP JUMP JUMPDEST PUSH0 PUSH1 0x20 DUP3 ADD SWAP1 POP DUP2 DUP2 SUB PUSH0 DUP4 ADD MSTORE PUSH2 0x18CC DUP2 PUSH2 0x1893 JUMP JUMPDEST SWAP1 POP SWAP2 SWAP1 POP JUMP JUMPDEST PUSH0 PUSH2 0x18DD DUP3 PUSH2 0x11DE JUMP JUMPDEST SWAP2 POP PUSH2 0x18E8 DUP4 PUSH2 0x11DE JUMP JUMPDEST SWAP3 POP DUP3 DUP3 SUB SWAP1 POP DUP2 DUP2 GT ISZERO PUSH2 0x1900 JUMPI PUSH2 0x18FF PUSH2 0x1745 JUMP JUMPDEST JUMPDEST SWAP3 SWAP2 POP POP JUMP JUMPDEST PUSH32 0x596F7520646F6E2774206861766520656E6F75676820746F2077697468647261 PUSH0 DUP3 ADD MSTORE PUSH32 0x7700000000000000000000000000000000000000000000000000000000000000 PUSH1 0x20 DUP3 ADD MSTORE POP JUMP JUMPDEST PUSH0 PUSH2 0x1960 PUSH1 0x21 DUP4 PUSH2 0x1541 JUMP JUMPDEST SWAP2 POP PUSH2 0x196B DUP3 PUSH2 0x1906 JUMP JUMPDEST PUSH1 0x40 DUP3 ADD SWAP1 POP SWAP2 SWAP1 POP JUMP JUMPDEST PUSH0 PUSH1 0x20 DUP3 ADD SWAP1 POP DUP2 DUP2 SUB PUSH0 DUP4 ADD MSTORE PUSH2 0x198D DUP2 PUSH2 0x1954 JUMP JUMPDEST SWAP1 POP SWAP2 SWAP1 POP JUMP JUMPDEST PUSH32 0x5374616B696E67207374696C6C20696E2070726F677265737300000000000000 PUSH0 DUP3 ADD MSTORE POP JUMP JUMPDEST PUSH0 PUSH2 0x19C8 PUSH1 0x19 DUP4 PUSH2 0x1541 JUMP JUMPDEST SWAP2 POP PUSH2 0x19D3 DUP3 PUSH2 0x1994 JUMP JUMPDEST PUSH1 0x20 DUP3 ADD SWAP1 POP SWAP2 SWAP1 POP JUMP JUMPDEST PUSH0 PUSH1 0x20 DUP3 ADD SWAP1 POP DUP2 DUP2 SUB PUSH0 DUP4 ADD MSTORE PUSH2 0x19F5 DUP2 PUSH2 0x19BC JUMP JUMPDEST SWAP1 POP SWAP2 SWAP1 POP JUMP JUMPDEST PUSH32 0x2E4E6F207374616B696E6720706572696F642079657400000000000000000000 PUSH0 DUP3 ADD MSTORE POP JUMP JUMPDEST PUSH0 PUSH2 0x1A30 PUSH1 0x16 DUP4 PUSH2 0x1541 JUMP JUMPDEST SWAP2 POP PUSH2 0x1A3B DUP3 PUSH2 0x19FC JUMP JUMPDEST PUSH1 0x20 DUP3 ADD SWAP1 POP SWAP2 SWAP1 POP JUMP JUMPDEST PUSH0 PUSH1 0x20 DUP3 ADD SWAP1 POP DUP2 DUP2 SUB PUSH0 DUP4 ADD MSTORE PUSH2 0x1A5D DUP2 PUSH2 0x1A24 JUMP JUMPDEST SWAP1 POP SWAP2 SWAP1 POP JUMP JUMPDEST PUSH32 0x5468697320757365722063616E6E6F206C6F6E676572206465706F7369742066 PUSH0 DUP3 ADD MSTORE PUSH32 0x6F722074686973207374616B696E6720706572696F6400000000000000000000 PUSH1 0x20 DUP3 ADD MSTORE POP JUMP JUMPDEST PUSH0 PUSH2 0x1ABE PUSH1 0x36 DUP4 PUSH2 0x1541 JUMP JUMPDEST SWAP2 POP PUSH2 0x1AC9 DUP3 PUSH2 0x1A64 JUMP JUMPDEST PUSH1 0x40 DUP3 ADD SWAP1 POP SWAP2 SWAP1 POP JUMP JUMPDEST PUSH0 PUSH1 0x20 DUP3 ADD SWAP1 POP DUP2 DUP2 SUB PUSH0 DUP4 ADD MSTORE PUSH2 0x1AEB DUP2 PUSH2 0x1AB2 JUMP JUMPDEST SWAP1 POP SWAP2 SWAP1 POP JUMP JUMPDEST PUSH0 PUSH1 0x20 DUP3 ADD SWAP1 POP PUSH2 0x1B05 PUSH0 DUP4 ADD DUP5 PUSH2 0x15DF JUMP JUMPDEST SWAP3 SWAP2 POP POP JUMP JUMPDEST PUSH0 DUP2 MLOAD SWAP1 POP PUSH2 0x1B19 DUP2 PUSH2 0x1410 JUMP JUMPDEST SWAP3 SWAP2 POP POP JUMP JUMPDEST PUSH0 PUSH1 0x20 DUP3 DUP5 SUB SLT ISZERO PUSH2 0x1B34 JUMPI PUSH2 0x1B33 PUSH2 0x1218 JUMP JUMPDEST JUMPDEST PUSH0 PUSH2 0x1B41 DUP5 DUP3 DUP6 ADD PUSH2 0x1B0B JUMP JUMPDEST SWAP2 POP POP SWAP3 SWAP2 POP POP JUMP JUMPDEST PUSH32 0x4E6F7420656E6F75676820746F6B656E7320666F72207374616B650000000000 PUSH0 DUP3 ADD MSTORE POP JUMP JUMPDEST PUSH0 PUSH2 0x1B7E PUSH1 0x1B DUP4 PUSH2 0x1541 JUMP JUMPDEST SWAP2 POP PUSH2 0x1B89 DUP3 PUSH2 0x1B4A JUMP JUMPDEST PUSH1 0x20 DUP3 ADD SWAP1 POP SWAP2 SWAP1 POP JUMP JUMPDEST PUSH0 PUSH1 0x20 DUP3 ADD SWAP1 POP DUP2 DUP2 SUB PUSH0 DUP4 ADD MSTORE PUSH2 0x1BAB DUP2 PUSH2 0x1B72 JUMP JUMPDEST SWAP1 POP SWAP2 SWAP1 POP JUMP JUMPDEST PUSH0 PUSH1 0x60 DUP3 ADD SWAP1 POP PUSH2 0x1BC5 PUSH0 DUP4 ADD DUP7 PUSH2 0x15DF JUMP JUMPDEST PUSH2 0x1BD2 PUSH1 0x20 DUP4 ADD DUP6 PUSH2 0x15DF JUMP JUMPDEST PUSH2 0x1BDF PUSH1 0x40 DUP4 ADD DUP5 PUSH2 0x11E7 JUMP JUMPDEST SWAP5 SWAP4 POP POP POP POP JUMP JUMPDEST PUSH32 0x4661696C656420746F207374616B6520746F6B656E0000000000000000000000 PUSH0 DUP3 ADD MSTORE POP JUMP JUMPDEST PUSH0 PUSH2 0x1C1B PUSH1 0x15 DUP4 PUSH2 0x1541 JUMP JUMPDEST SWAP2 POP PUSH2 0x1C26 DUP3 PUSH2 0x1BE7 JUMP JUMPDEST PUSH1 0x20 DUP3 ADD SWAP1 POP SWAP2 SWAP1 POP JUMP JUMPDEST PUSH0 PUSH1 0x20 DUP3 ADD SWAP1 POP DUP2 DUP2 SUB PUSH0 DUP4 ADD MSTORE PUSH2 0x1C48 DUP2 PUSH2 0x1C0F JUMP JUMPDEST SWAP1 POP SWAP2 SWAP1 POP JUMP JUMPDEST PUSH32 0x7570646174656441740000000000000000000000000000000000000000000000 PUSH0 DUP3 ADD MSTORE POP JUMP JUMPDEST PUSH0 PUSH2 0x1C83 PUSH1 0x9 DUP4 PUSH2 0x14D9 JUMP JUMPDEST SWAP2 POP PUSH2 0x1C8E DUP3 PUSH2 0x1C4F JUMP JUMPDEST PUSH1 0x9 DUP3 ADD SWAP1 POP SWAP2 SWAP1 POP JUMP JUMPDEST PUSH0 PUSH2 0x1CA3 DUP3 PUSH2 0x1C77 JUMP JUMPDEST SWAP2 POP DUP2 SWAP1 POP SWAP2 SWAP1 POP JUMP JUMPDEST PUSH0 PUSH2 0x1CB7 DUP3 PUSH2 0x11DE JUMP JUMPDEST SWAP2 POP PUSH2 0x1CC2 DUP4 PUSH2 0x11DE JUMP JUMPDEST SWAP3 POP DUP3 DUP3 MUL PUSH2 0x1CD0 DUP2 PUSH2 0x11DE JUMP JUMPDEST SWAP2 POP DUP3 DUP3 DIV DUP5 EQ DUP4 ISZERO OR PUSH2 0x1CE7 JUMPI PUSH2 0x1CE6 PUSH2 0x1745 JUMP JUMPDEST JUMPDEST POP SWAP3 SWAP2 POP POP JUMP JUMPDEST PUSH32 0x63616E277420736574206461746520746F20612070726576696F75732074696D PUSH0 DUP3 ADD MSTORE PUSH32 0x657374616D700000000000000000000000000000000000000000000000000000 PUSH1 0x20 DUP3 ADD MSTORE POP JUMP JUMPDEST PUSH0 PUSH2 0x1D48 PUSH1 0x26 DUP4 PUSH2 0x1541 JUMP JUMPDEST SWAP2 POP PUSH2 0x1D53 DUP3 PUSH2 0x1CEE JUMP JUMPDEST PUSH1 0x40 DUP3 ADD SWAP1 POP SWAP2 SWAP1 POP JUMP JUMPDEST PUSH0 PUSH1 0x20 DUP3 ADD SWAP1 POP DUP2 DUP2 SUB PUSH0 DUP4 ADD MSTORE PUSH2 0x1D75 DUP2 PUSH2 0x1D3C JUMP JUMPDEST SWAP1 POP SWAP2 SWAP1 POP JUMP JUMPDEST PUSH32 0x736574207265776172642072617465206265666F7265207374617274696E6720 PUSH0 DUP3 ADD MSTORE PUSH32 0x7374616B696E6720706572696F64000000000000000000000000000000000000 PUSH1 0x20 DUP3 ADD MSTORE POP JUMP JUMPDEST PUSH0 PUSH2 0x1DD6 PUSH1 0x2E DUP4 PUSH2 0x1541 JUMP JUMPDEST SWAP2 POP PUSH2 0x1DE1 DUP3 PUSH2 0x1D7C JUMP JUMPDEST PUSH1 0x40 DUP3 ADD SWAP1 POP SWAP2 SWAP1 POP JUMP JUMPDEST PUSH0 PUSH1 0x20 DUP3 ADD SWAP1 POP DUP2 DUP2 SUB PUSH0 DUP4 ADD MSTORE PUSH2 0x1E03 DUP2 PUSH2 0x1DCA JUMP JUMPDEST SWAP1 POP SWAP2 SWAP1 POP JUMP INVALID LOG2 PUSH5 0x6970667358 0x22 SLT KECCAK256 PUSH13 0xFD4EC8636A3AA3F4F14826E491 DELEGATECALL BALANCE 0xCA 0xD3 MSIZE DUP12 0x29 0xC6 0xA6 PUSH26 0x2AA78867294D065364736F6C6343000814003300000000000000 "
				},
				"gasEstimates": {
					"creation": {
						"codeDepositCost": "1548800",
						"executionCost": "infinite",
						"totalCost": "infinite"
					},
					"external": {
						"_balance(address,string)": "infinite",
						"balance()": "2824",
						"calculateRewards()": "infinite",
						"depositStake(uint256)": "infinite",
						"duration()": "2449",
						"earned()": "infinite",
						"finishAt()": "2536",
						"getDuration()": "2543",
						"lockStakes()": "infinite",
						"rate()": "2493",
						"rewardsToken()": "infinite",
						"setDuration(uint256)": "infinite",
						"setRewardRate(uint256)": "24726",
						"stakingToken()": "infinite",
						"totalStake()": "2492",
						"totalStakeRewards()": "2515",
						"updatedAt()": "2470",
						"withdrawReward(uint256)": "infinite",
						"withdrawStakes()": "infinite"
					}
				},
				"methodIdentifiers": {
					"_balance(address,string)": "50d56aba",
					"balance()": "b69ef8a8",
					"calculateRewards()": "3e50de30",
					"depositStake(uint256)": "cb82cc8f",
					"duration()": "0fb5a6b4",
					"earned()": "d6f19262",
					"finishAt()": "67d3b488",
					"getDuration()": "ad2e8c9b",
					"lockStakes()": "4a618297",
					"rate()": "2c4e722e",
					"rewardsToken()": "d1af0c7d",
					"setDuration(uint256)": "f6be71d1",
					"setRewardRate(uint256)": "9e447fc6",
					"stakingToken()": "72f702f3",
					"totalStake()": "8b0e9f3f",
					"totalStakeRewards()": "327bcac5",
					"updatedAt()": "7519ab50",
					"withdrawReward(uint256)": "523a3f08",
					"withdrawStakes()": "289ed738"
				}
			},
			"storageLayout": {
				"storage": [
					{
						"astId": 43,
						"contract": "contracts/staking.sol:Staking",
						"label": "stakingToken",
						"offset": 0,
						"slot": "0",
						"type": "t_contract(IERC20)542"
					},
					{
						"astId": 46,
						"contract": "contracts/staking.sol:Staking",
						"label": "rewardsToken",
						"offset": 0,
						"slot": "1",
						"type": "t_contract(IERC20)542"
					},
					{
						"astId": 48,
						"contract": "contracts/staking.sol:Staking",
						"label": "totalStake",
						"offset": 0,
						"slot": "2",
						"type": "t_uint256"
					},
					{
						"astId": 50,
						"contract": "contracts/staking.sol:Staking",
						"label": "totalStakeRewards",
						"offset": 0,
						"slot": "3",
						"type": "t_uint256"
					},
					{
						"astId": 52,
						"contract": "contracts/staking.sol:Staking",
						"label": "duration",
						"offset": 0,
						"slot": "4",
						"type": "t_uint256"
					},
					{
						"astId": 54,
						"contract": "contracts/staking.sol:Staking",
						"label": "finishAt",
						"offset": 0,
						"slot": "5",
						"type": "t_uint256"
					},
					{
						"astId": 56,
						"contract": "contracts/staking.sol:Staking",
						"label": "updatedAt",
						"offset": 0,
						"slot": "6",
						"type": "t_uint256"
					},
					{
						"astId": 58,
						"contract": "contracts/staking.sol:Staking",
						"label": "rate",
						"offset": 0,
						"slot": "7",
						"type": "t_uint256"
					},
					{
						"astId": 64,
						"contract": "contracts/staking.sol:Staking",
						"label": "_balance",
						"offset": 0,
						"slot": "8",
						"type": "t_mapping(t_address,t_mapping(t_string_memory_ptr,t_uint256))"
					},
					{
						"astId": 68,
						"contract": "contracts/staking.sol:Staking",
						"label": "_rewardsWithdrawals",
						"offset": 0,
						"slot": "9",
						"type": "t_mapping(t_address,t_uint256)"
					},
					{
						"astId": 72,
						"contract": "contracts/staking.sol:Staking",
						"label": "accBeforeUpdate",
						"offset": 0,
						"slot": "10",
						"type": "t_mapping(t_address,t_uint256)"
					}
				],
				"types": {
					"t_address": {
						"encoding": "inplace",
						"label": "address",
						"numberOfBytes": "20"
					},
					"t_contract(IERC20)542": {
						"encoding": "inplace",
						"label": "contract IERC20",
						"numberOfBytes": "20"
					},
					"t_mapping(t_address,t_mapping(t_string_memory_ptr,t_uint256))": {
						"encoding": "mapping",
						"key": "t_address",
						"label": "mapping(address => mapping(string => uint256))",
						"numberOfBytes": "32",
						"value": "t_mapping(t_string_memory_ptr,t_uint256)"
					},
					"t_mapping(t_address,t_uint256)": {
						"encoding": "mapping",
						"key": "t_address",
						"label": "mapping(address => uint256)",
						"numberOfBytes": "32",
						"value": "t_uint256"
					},
					"t_mapping(t_string_memory_ptr,t_uint256)": {
						"encoding": "mapping",
						"key": "t_string_memory_ptr",
						"label": "mapping(string => uint256)",
						"numberOfBytes": "32",
						"value": "t_uint256"
					},
					"t_string_memory_ptr": {
						"encoding": "bytes",
						"label": "string",
						"numberOfBytes": "32"
					},
					"t_uint256": {
						"encoding": "inplace",
						"label": "uint256",
						"numberOfBytes": "32"
					}
				}
			},
			"userdoc": {
				"kind": "user",
				"methods": {},
				"version": 1
			}
		}
	}
}