{
	"contracts/staking.sol": {
		"Staking": {
			"abi": [
				{
					"inputs": [
						{
							"internalType": "address",
							"name": "_stakeToken",
							"type": "address"
						},
						{
							"internalType": "address",
							"name": "_rewardsToken",
							"type": "address"
						}
					],
					"stateMutability": "nonpayable",
					"type": "constructor"
				},
				{
					"inputs": [
						{
							"internalType": "address",
							"name": "",
							"type": "address"
						}
					],
					"name": "_balance",
					"outputs": [
						{
							"internalType": "uint256",
							"name": "",
							"type": "uint256"
						}
					],
					"stateMutability": "view",
					"type": "function"
				},
				{
					"inputs": [
						{
							"internalType": "address",
							"name": "",
							"type": "address"
						}
					],
					"name": "_rewards",
					"outputs": [
						{
							"internalType": "uint256",
							"name": "",
							"type": "uint256"
						}
					],
					"stateMutability": "view",
					"type": "function"
				},
				{
					"inputs": [],
					"name": "balance",
					"outputs": [
						{
							"internalType": "uint256",
							"name": "",
							"type": "uint256"
						}
					],
					"stateMutability": "view",
					"type": "function"
				},
				{
					"inputs": [],
					"name": "calculateRewards",
					"outputs": [
						{
							"internalType": "uint256",
							"name": "",
							"type": "uint256"
						}
					],
					"stateMutability": "view",
					"type": "function"
				},
				{
					"inputs": [
						{
							"internalType": "uint256",
							"name": "amount",
							"type": "uint256"
						}
					],
					"name": "depositStake",
					"outputs": [],
					"stateMutability": "nonpayable",
					"type": "function"
				},
				{
					"inputs": [],
					"name": "duration",
					"outputs": [
						{
							"internalType": "uint256",
							"name": "",
							"type": "uint256"
						}
					],
					"stateMutability": "view",
					"type": "function"
				},
				{
					"inputs": [],
					"name": "finishAt",
					"outputs": [
						{
							"internalType": "uint256",
							"name": "",
							"type": "uint256"
						}
					],
					"stateMutability": "view",
					"type": "function"
				},
				{
					"inputs": [],
					"name": "getDuration",
					"outputs": [
						{
							"internalType": "uint256",
							"name": "",
							"type": "uint256"
						}
					],
					"stateMutability": "view",
					"type": "function"
				},
				{
					"inputs": [],
					"name": "rate",
					"outputs": [
						{
							"internalType": "uint256",
							"name": "",
							"type": "uint256"
						}
					],
					"stateMutability": "view",
					"type": "function"
				},
				{
					"inputs": [],
					"name": "rewardsToken",
					"outputs": [
						{
							"internalType": "contract IERC20",
							"name": "",
							"type": "address"
						}
					],
					"stateMutability": "view",
					"type": "function"
				},
				{
					"inputs": [
						{
							"internalType": "uint256",
							"name": "_duration",
							"type": "uint256"
						}
					],
					"name": "setDuration",
					"outputs": [],
					"stateMutability": "nonpayable",
					"type": "function"
				},
				{
					"inputs": [
						{
							"internalType": "uint256",
							"name": "_rate",
							"type": "uint256"
						}
					],
					"name": "setRewardRate",
					"outputs": [],
					"stateMutability": "nonpayable",
					"type": "function"
				},
				{
					"inputs": [],
					"name": "stakingToken",
					"outputs": [
						{
							"internalType": "contract IERC20",
							"name": "",
							"type": "address"
						}
					],
					"stateMutability": "view",
					"type": "function"
				},
				{
					"inputs": [],
					"name": "totalStake",
					"outputs": [
						{
							"internalType": "uint256",
							"name": "",
							"type": "uint256"
						}
					],
					"stateMutability": "view",
					"type": "function"
				},
				{
					"inputs": [],
					"name": "totalStakeRewards",
					"outputs": [
						{
							"internalType": "uint256",
							"name": "",
							"type": "uint256"
						}
					],
					"stateMutability": "view",
					"type": "function"
				},
				{
					"inputs": [],
					"name": "updatedAt",
					"outputs": [
						{
							"internalType": "uint256",
							"name": "",
							"type": "uint256"
						}
					],
					"stateMutability": "view",
					"type": "function"
				}
			],
			"devdoc": {
				"kind": "dev",
				"methods": {},
				"version": 1
			},
			"evm": {
				"assembly": "    /* \"contracts/staking.sol\":617:2468  contract Staking{... */\n  mstore(0x40, 0x80)\n    /* \"contracts/staking.sol\":1103:1255  constructor(address _stakeToken, address _rewardsToken){... */\n  callvalue\n  dup1\n  iszero\n  tag_1\n  jumpi\n  0x00\n  dup1\n  revert\ntag_1:\n  pop\n  mload(0x40)\n  sub(codesize, bytecodeSize)\n  dup1\n  bytecodeSize\n  dup4\n  codecopy\n  dup2\n  dup2\n  add\n  0x40\n  mstore\n  dup2\n  add\n  swap1\n  tag_2\n  swap2\n  swap1\n  tag_3\n  jump\t// in\ntag_2:\n    /* \"contracts/staking.sol\":1190:1201  _stakeToken */\n  dup2\n    /* \"contracts/staking.sol\":1168:1180  stakingToken */\n  0x00\n  dup1\n    /* \"contracts/staking.sol\":1168:1202  stakingToken = IERC20(_stakeToken) */\n  0x0100\n  exp\n  dup2\n  sload\n  dup2\n  0xffffffffffffffffffffffffffffffffffffffff\n  mul\n  not\n  and\n  swap1\n  dup4\n  0xffffffffffffffffffffffffffffffffffffffff\n  and\n  mul\n  or\n  swap1\n  sstore\n  pop\n    /* \"contracts/staking.sol\":1234:1247  _rewardsToken */\n  dup1\n    /* \"contracts/staking.sol\":1212:1224  rewardsToken */\n  0x01\n  0x00\n    /* \"contracts/staking.sol\":1212:1248  rewardsToken = IERC20(_rewardsToken) */\n  0x0100\n  exp\n  dup2\n  sload\n  dup2\n  0xffffffffffffffffffffffffffffffffffffffff\n  mul\n  not\n  and\n  swap1\n  dup4\n  0xffffffffffffffffffffffffffffffffffffffff\n  and\n  mul\n  or\n  swap1\n  sstore\n  pop\n    /* \"contracts/staking.sol\":1103:1255  constructor(address _stakeToken, address _rewardsToken){... */\n  pop\n  pop\n    /* \"contracts/staking.sol\":617:2468  contract Staking{... */\n  jump(tag_6)\n    /* \"#utility.yul\":88:205   */\ntag_8:\n    /* \"#utility.yul\":197:198   */\n  0x00\n    /* \"#utility.yul\":194:195   */\n  dup1\n    /* \"#utility.yul\":187:199   */\n  revert\n    /* \"#utility.yul\":334:460   */\ntag_10:\n    /* \"#utility.yul\":371:378   */\n  0x00\n    /* \"#utility.yul\":411:453   */\n  0xffffffffffffffffffffffffffffffffffffffff\n    /* \"#utility.yul\":404:409   */\n  dup3\n    /* \"#utility.yul\":400:454   */\n  and\n    /* \"#utility.yul\":389:454   */\n  swap1\n  pop\n    /* \"#utility.yul\":334:460   */\n  swap2\n  swap1\n  pop\n  jump\t// out\n    /* \"#utility.yul\":466:562   */\ntag_11:\n    /* \"#utility.yul\":503:510   */\n  0x00\n    /* \"#utility.yul\":532:556   */\n  tag_20\n    /* \"#utility.yul\":550:555   */\n  dup3\n    /* \"#utility.yul\":532:556   */\n  tag_10\n  jump\t// in\ntag_20:\n    /* \"#utility.yul\":521:556   */\n  swap1\n  pop\n    /* \"#utility.yul\":466:562   */\n  swap2\n  swap1\n  pop\n  jump\t// out\n    /* \"#utility.yul\":568:690   */\ntag_12:\n    /* \"#utility.yul\":641:665   */\n  tag_22\n    /* \"#utility.yul\":659:664   */\n  dup2\n    /* \"#utility.yul\":641:665   */\n  tag_11\n  jump\t// in\ntag_22:\n    /* \"#utility.yul\":634:639   */\n  dup2\n    /* \"#utility.yul\":631:666   */\n  eq\n    /* \"#utility.yul\":621:684   */\n  tag_23\n  jumpi\n    /* \"#utility.yul\":680:681   */\n  0x00\n    /* \"#utility.yul\":677:678   */\n  dup1\n    /* \"#utility.yul\":670:682   */\n  revert\n    /* \"#utility.yul\":621:684   */\ntag_23:\n    /* \"#utility.yul\":568:690   */\n  pop\n  jump\t// out\n    /* \"#utility.yul\":696:839   */\ntag_13:\n    /* \"#utility.yul\":753:758   */\n  0x00\n    /* \"#utility.yul\":784:790   */\n  dup2\n    /* \"#utility.yul\":778:791   */\n  mload\n    /* \"#utility.yul\":769:791   */\n  swap1\n  pop\n    /* \"#utility.yul\":800:833   */\n  tag_25\n    /* \"#utility.yul\":827:832   */\n  dup2\n    /* \"#utility.yul\":800:833   */\n  tag_12\n  jump\t// in\ntag_25:\n    /* \"#utility.yul\":696:839   */\n  swap3\n  swap2\n  pop\n  pop\n  jump\t// out\n    /* \"#utility.yul\":845:1352   */\ntag_3:\n    /* \"#utility.yul\":924:930   */\n  0x00\n    /* \"#utility.yul\":932:938   */\n  dup1\n    /* \"#utility.yul\":981:983   */\n  0x40\n    /* \"#utility.yul\":969:978   */\n  dup4\n    /* \"#utility.yul\":960:967   */\n  dup6\n    /* \"#utility.yul\":956:979   */\n  sub\n    /* \"#utility.yul\":952:984   */\n  slt\n    /* \"#utility.yul\":949:1068   */\n  iszero\n  tag_27\n  jumpi\n    /* \"#utility.yul\":987:1066   */\n  tag_28\n  tag_8\n  jump\t// in\ntag_28:\n    /* \"#utility.yul\":949:1068   */\ntag_27:\n    /* \"#utility.yul\":1107:1108   */\n  0x00\n    /* \"#utility.yul\":1132:1196   */\n  tag_29\n    /* \"#utility.yul\":1188:1195   */\n  dup6\n    /* \"#utility.yul\":1179:1185   */\n  dup3\n    /* \"#utility.yul\":1168:1177   */\n  dup7\n    /* \"#utility.yul\":1164:1186   */\n  add\n    /* \"#utility.yul\":1132:1196   */\n  tag_13\n  jump\t// in\ntag_29:\n    /* \"#utility.yul\":1122:1196   */\n  swap3\n  pop\n    /* \"#utility.yul\":1078:1206   */\n  pop\n    /* \"#utility.yul\":1245:1247   */\n  0x20\n    /* \"#utility.yul\":1271:1335   */\n  tag_30\n    /* \"#utility.yul\":1327:1334   */\n  dup6\n    /* \"#utility.yul\":1318:1324   */\n  dup3\n    /* \"#utility.yul\":1307:1316   */\n  dup7\n    /* \"#utility.yul\":1303:1325   */\n  add\n    /* \"#utility.yul\":1271:1335   */\n  tag_13\n  jump\t// in\ntag_30:\n    /* \"#utility.yul\":1261:1335   */\n  swap2\n  pop\n    /* \"#utility.yul\":1216:1345   */\n  pop\n    /* \"#utility.yul\":845:1352   */\n  swap3\n  pop\n  swap3\n  swap1\n  pop\n  jump\t// out\n    /* \"contracts/staking.sol\":617:2468  contract Staking{... */\ntag_6:\n  dataSize(sub_0)\n  dup1\n  dataOffset(sub_0)\n  0x00\n  codecopy\n  0x00\n  return\nstop\n\nsub_0: assembly {\n        /* \"contracts/staking.sol\":617:2468  contract Staking{... */\n      mstore(0x40, 0x80)\n      callvalue\n      dup1\n      iszero\n      tag_1\n      jumpi\n      0x00\n      dup1\n      revert\n    tag_1:\n      pop\n      jumpi(tag_2, lt(calldatasize, 0x04))\n      shr(0xe0, calldataload(0x00))\n      dup1\n      0x8b0e9f3f\n      gt\n      tag_19\n      jumpi\n      dup1\n      0xcb82cc8f\n      gt\n      tag_20\n      jumpi\n      dup1\n      0xcb82cc8f\n      eq\n      tag_15\n      jumpi\n      dup1\n      0xd1af0c7d\n      eq\n      tag_16\n      jumpi\n      dup1\n      0xd3aceae2\n      eq\n      tag_17\n      jumpi\n      dup1\n      0xf6be71d1\n      eq\n      tag_18\n      jumpi\n      jump(tag_2)\n    tag_20:\n      dup1\n      0x8b0e9f3f\n      eq\n      tag_11\n      jumpi\n      dup1\n      0x9e447fc6\n      eq\n      tag_12\n      jumpi\n      dup1\n      0xad2e8c9b\n      eq\n      tag_13\n      jumpi\n      dup1\n      0xb69ef8a8\n      eq\n      tag_14\n      jumpi\n      jump(tag_2)\n    tag_19:\n      dup1\n      0x67d3b488\n      gt\n      tag_21\n      jumpi\n      dup1\n      0x67d3b488\n      eq\n      tag_7\n      jumpi\n      dup1\n      0x72f702f3\n      eq\n      tag_8\n      jumpi\n      dup1\n      0x7519ab50\n      eq\n      tag_9\n      jumpi\n      dup1\n      0x7d6dfb7e\n      eq\n      tag_10\n      jumpi\n      jump(tag_2)\n    tag_21:\n      dup1\n      0x0fb5a6b4\n      eq\n      tag_3\n      jumpi\n      dup1\n      0x2c4e722e\n      eq\n      tag_4\n      jumpi\n      dup1\n      0x327bcac5\n      eq\n      tag_5\n      jumpi\n      dup1\n      0x3e50de30\n      eq\n      tag_6\n      jumpi\n    tag_2:\n      0x00\n      dup1\n      revert\n        /* \"contracts/staking.sol\":833:853  uint public duration */\n    tag_3:\n      tag_22\n      tag_23\n      jump\t// in\n    tag_22:\n      mload(0x40)\n      tag_24\n      swap2\n      swap1\n      tag_25\n      jump\t// in\n    tag_24:\n      mload(0x40)\n      dup1\n      swap2\n      sub\n      swap1\n      return\n        /* \"contracts/staking.sol\":931:947  uint public rate */\n    tag_4:\n      tag_26\n      tag_27\n      jump\t// in\n    tag_26:\n      mload(0x40)\n      tag_28\n      swap2\n      swap1\n      tag_25\n      jump\t// in\n    tag_28:\n      mload(0x40)\n      dup1\n      swap2\n      sub\n      swap1\n      return\n        /* \"contracts/staking.sol\":793:822  uint public totalStakeRewards */\n    tag_5:\n      tag_29\n      tag_30\n      jump\t// in\n    tag_29:\n      mload(0x40)\n      tag_31\n      swap2\n      swap1\n      tag_25\n      jump\t// in\n    tag_31:\n      mload(0x40)\n      dup1\n      swap2\n      sub\n      swap1\n      return\n        /* \"contracts/staking.sol\":2233:2459  function calculateRewards() view external returns(uint256){... */\n    tag_6:\n      tag_32\n      tag_33\n      jump\t// in\n    tag_32:\n      mload(0x40)\n      tag_34\n      swap2\n      swap1\n      tag_25\n      jump\t// in\n    tag_34:\n      mload(0x40)\n      dup1\n      swap2\n      sub\n      swap1\n      return\n        /* \"contracts/staking.sol\":877:897  uint public finishAt */\n    tag_7:\n      tag_35\n      tag_36\n      jump\t// in\n    tag_35:\n      mload(0x40)\n      tag_37\n      swap2\n      swap1\n      tag_25\n      jump\t// in\n    tag_37:\n      mload(0x40)\n      dup1\n      swap2\n      sub\n      swap1\n      return\n        /* \"contracts/staking.sol\":700:726  IERC20 public stakingToken */\n    tag_8:\n      tag_38\n      tag_39\n      jump\t// in\n    tag_38:\n      mload(0x40)\n      tag_40\n      swap2\n      swap1\n      tag_41\n      jump\t// in\n    tag_40:\n      mload(0x40)\n      dup1\n      swap2\n      sub\n      swap1\n      return\n        /* \"contracts/staking.sol\":903:924  uint public updatedAt */\n    tag_9:\n      tag_42\n      tag_43\n      jump\t// in\n    tag_42:\n      mload(0x40)\n      tag_44\n      swap2\n      swap1\n      tag_25\n      jump\t// in\n    tag_44:\n      mload(0x40)\n      dup1\n      swap2\n      sub\n      swap1\n      return\n        /* \"contracts/staking.sol\":1014:1055  mapping (address => uint) public _rewards */\n    tag_10:\n      tag_45\n      0x04\n      dup1\n      calldatasize\n      sub\n      dup2\n      add\n      swap1\n      tag_46\n      swap2\n      swap1\n      tag_47\n      jump\t// in\n    tag_46:\n      tag_48\n      jump\t// in\n    tag_45:\n      mload(0x40)\n      tag_49\n      swap2\n      swap1\n      tag_25\n      jump\t// in\n    tag_49:\n      mload(0x40)\n      dup1\n      swap2\n      sub\n      swap1\n      return\n        /* \"contracts/staking.sol\":765:787  uint public totalStake */\n    tag_11:\n      tag_50\n      tag_51\n      jump\t// in\n    tag_50:\n      mload(0x40)\n      tag_52\n      swap2\n      swap1\n      tag_25\n      jump\t// in\n    tag_52:\n      mload(0x40)\n      dup1\n      swap2\n      sub\n      swap1\n      return\n        /* \"contracts/staking.sol\":2077:2227  function setRewardRate(uint256 _rate) external{... */\n    tag_12:\n      tag_53\n      0x04\n      dup1\n      calldatasize\n      sub\n      dup2\n      add\n      swap1\n      tag_54\n      swap2\n      swap1\n      tag_55\n      jump\t// in\n    tag_54:\n      tag_56\n      jump\t// in\n    tag_53:\n      stop\n        /* \"contracts/staking.sol\":1986:2071  function getDuration() view external returns(uint256){... */\n    tag_13:\n      tag_57\n      tag_58\n      jump\t// in\n    tag_57:\n      mload(0x40)\n      tag_59\n      swap2\n      swap1\n      tag_25\n      jump\t// in\n    tag_59:\n      mload(0x40)\n      dup1\n      swap2\n      sub\n      swap1\n      return\n        /* \"contracts/staking.sol\":1626:1720  function balance() external view returns (uint256){... */\n    tag_14:\n      tag_60\n      tag_61\n      jump\t// in\n    tag_60:\n      mload(0x40)\n      tag_62\n      swap2\n      swap1\n      tag_25\n      jump\t// in\n    tag_62:\n      mload(0x40)\n      dup1\n      swap2\n      sub\n      swap1\n      return\n        /* \"contracts/staking.sol\":1261:1621  function depositStake (uint amount) external {... */\n    tag_15:\n      tag_63\n      0x04\n      dup1\n      calldatasize\n      sub\n      dup2\n      add\n      swap1\n      tag_64\n      swap2\n      swap1\n      tag_55\n      jump\t// in\n    tag_64:\n      tag_65\n      jump\t// in\n    tag_63:\n      stop\n        /* \"contracts/staking.sol\":732:758  IERC20 public rewardsToken */\n    tag_16:\n      tag_66\n      tag_67\n      jump\t// in\n    tag_66:\n      mload(0x40)\n      tag_68\n      swap2\n      swap1\n      tag_41\n      jump\t// in\n    tag_68:\n      mload(0x40)\n      dup1\n      swap2\n      sub\n      swap1\n      return\n        /* \"contracts/staking.sol\":967:1008  mapping (address => uint) public _balance */\n    tag_17:\n      tag_69\n      0x04\n      dup1\n      calldatasize\n      sub\n      dup2\n      add\n      swap1\n      tag_70\n      swap2\n      swap1\n      tag_47\n      jump\t// in\n    tag_70:\n      tag_71\n      jump\t// in\n    tag_69:\n      mload(0x40)\n      tag_72\n      swap2\n      swap1\n      tag_25\n      jump\t// in\n    tag_72:\n      mload(0x40)\n      dup1\n      swap2\n      sub\n      swap1\n      return\n        /* \"contracts/staking.sol\":1726:1980  function setDuration(uint256 _duration) external{... */\n    tag_18:\n      tag_73\n      0x04\n      dup1\n      calldatasize\n      sub\n      dup2\n      add\n      swap1\n      tag_74\n      swap2\n      swap1\n      tag_55\n      jump\t// in\n    tag_74:\n      tag_75\n      jump\t// in\n    tag_73:\n      stop\n        /* \"contracts/staking.sol\":833:853  uint public duration */\n    tag_23:\n      sload(0x04)\n      dup2\n      jump\t// out\n        /* \"contracts/staking.sol\":931:947  uint public rate */\n    tag_27:\n      sload(0x07)\n      dup2\n      jump\t// out\n        /* \"contracts/staking.sol\":793:822  uint public totalStakeRewards */\n    tag_30:\n      sload(0x03)\n      dup2\n      jump\t// out\n        /* \"contracts/staking.sol\":2233:2459  function calculateRewards() view external returns(uint256){... */\n    tag_33:\n        /* \"contracts/staking.sol\":2283:2290  uint256 */\n      0x00\n        /* \"contracts/staking.sol\":2332:2333  0 */\n      dup1\n        /* \"contracts/staking.sol\":2309:2317  _balance */\n      0x08\n        /* \"contracts/staking.sol\":2309:2329  _balance[msg.sender] */\n      0x00\n        /* \"contracts/staking.sol\":2318:2328  msg.sender */\n      caller\n        /* \"contracts/staking.sol\":2309:2329  _balance[msg.sender] */\n      0xffffffffffffffffffffffffffffffffffffffff\n      and\n      0xffffffffffffffffffffffffffffffffffffffff\n      and\n      dup2\n      mstore\n      0x20\n      add\n      swap1\n      dup2\n      mstore\n      0x20\n      add\n      0x00\n      keccak256\n      sload\n        /* \"contracts/staking.sol\":2309:2333  _balance[msg.sender] > 0 */\n      gt\n        /* \"contracts/staking.sol\":2301:2368  require(_balance[msg.sender] > 0, \"You have not staked any tokens\") */\n      tag_77\n      jumpi\n      mload(0x40)\n      0x08c379a000000000000000000000000000000000000000000000000000000000\n      dup2\n      mstore\n      0x04\n      add\n      tag_78\n      swap1\n      tag_79\n      jump\t// in\n    tag_78:\n      mload(0x40)\n      dup1\n      swap2\n      sub\n      swap1\n      revert\n    tag_77:\n        /* \"contracts/staking.sol\":2441:2450  updatedAt */\n      sload(0x06)\n        /* \"contracts/staking.sol\":2423:2438  block.timestamp */\n      timestamp\n        /* \"contracts/staking.sol\":2423:2450  block.timestamp - updatedAt */\n      tag_80\n      swap2\n      swap1\n      tag_81\n      jump\t// in\n    tag_80:\n        /* \"contracts/staking.sol\":2415:2418  100 */\n      0x64\n        /* \"contracts/staking.sol\":2410:2414  rate */\n      sload(0x07)\n        /* \"contracts/staking.sol\":2410:2418  rate/100 */\n      tag_82\n      swap2\n      swap1\n      tag_83\n      jump\t// in\n    tag_82:\n        /* \"contracts/staking.sol\":2386:2394  _balance */\n      0x08\n        /* \"contracts/staking.sol\":2386:2406  _balance[msg.sender] */\n      0x00\n        /* \"contracts/staking.sol\":2395:2405  msg.sender */\n      caller\n        /* \"contracts/staking.sol\":2386:2406  _balance[msg.sender] */\n      0xffffffffffffffffffffffffffffffffffffffff\n      and\n      0xffffffffffffffffffffffffffffffffffffffff\n      and\n      dup2\n      mstore\n      0x20\n      add\n      swap1\n      dup2\n      mstore\n      0x20\n      add\n      0x00\n      keccak256\n      sload\n        /* \"contracts/staking.sol\":2386:2419  _balance[msg.sender] * (rate/100) */\n      tag_84\n      swap2\n      swap1\n      tag_85\n      jump\t// in\n    tag_84:\n        /* \"contracts/staking.sol\":2386:2452  _balance[msg.sender] * (rate/100) * (block.timestamp - updatedAt ) */\n      tag_86\n      swap2\n      swap1\n      tag_85\n      jump\t// in\n    tag_86:\n        /* \"contracts/staking.sol\":2379:2452  return _balance[msg.sender] * (rate/100) * (block.timestamp - updatedAt ) */\n      swap1\n      pop\n        /* \"contracts/staking.sol\":2233:2459  function calculateRewards() view external returns(uint256){... */\n      swap1\n      jump\t// out\n        /* \"contracts/staking.sol\":877:897  uint public finishAt */\n    tag_36:\n      sload(0x05)\n      dup2\n      jump\t// out\n        /* \"contracts/staking.sol\":700:726  IERC20 public stakingToken */\n    tag_39:\n      0x00\n      dup1\n      sload\n      swap1\n      0x0100\n      exp\n      swap1\n      div\n      0xffffffffffffffffffffffffffffffffffffffff\n      and\n      dup2\n      jump\t// out\n        /* \"contracts/staking.sol\":903:924  uint public updatedAt */\n    tag_43:\n      sload(0x06)\n      dup2\n      jump\t// out\n        /* \"contracts/staking.sol\":1014:1055  mapping (address => uint) public _rewards */\n    tag_48:\n      mstore(0x20, 0x09)\n      dup1\n      0x00\n      mstore\n      keccak256(0x00, 0x40)\n      0x00\n      swap2\n      pop\n      swap1\n      pop\n      sload\n      dup2\n      jump\t// out\n        /* \"contracts/staking.sol\":765:787  uint public totalStake */\n    tag_51:\n      sload(0x02)\n      dup2\n      jump\t// out\n        /* \"contracts/staking.sol\":2077:2227  function setRewardRate(uint256 _rate) external{... */\n    tag_56:\n        /* \"contracts/staking.sol\":2152:2167  block.timestamp */\n      timestamp\n        /* \"contracts/staking.sol\":2141:2149  finishAt */\n      sload(0x05)\n        /* \"contracts/staking.sol\":2141:2167  finishAt < block.timestamp */\n      lt\n        /* \"contracts/staking.sol\":2133:2197  require(finishAt < block.timestamp, \"Staking still in progress\") */\n      tag_88\n      jumpi\n      mload(0x40)\n      0x08c379a000000000000000000000000000000000000000000000000000000000\n      dup2\n      mstore\n      0x04\n      add\n      tag_89\n      swap1\n      tag_90\n      jump\t// in\n    tag_89:\n      mload(0x40)\n      dup1\n      swap2\n      sub\n      swap1\n      revert\n    tag_88:\n        /* \"contracts/staking.sol\":2215:2220  _rate */\n      dup1\n        /* \"contracts/staking.sol\":2208:2212  rate */\n      0x07\n        /* \"contracts/staking.sol\":2208:2220  rate = _rate */\n      dup2\n      swap1\n      sstore\n      pop\n        /* \"contracts/staking.sol\":2077:2227  function setRewardRate(uint256 _rate) external{... */\n      pop\n      jump\t// out\n        /* \"contracts/staking.sol\":1986:2071  function getDuration() view external returns(uint256){... */\n    tag_58:\n        /* \"contracts/staking.sol\":2031:2038  uint256 */\n      0x00\n        /* \"contracts/staking.sol\":2056:2064  duration */\n      sload(0x04)\n        /* \"contracts/staking.sol\":2049:2064  return duration */\n      swap1\n      pop\n        /* \"contracts/staking.sol\":1986:2071  function getDuration() view external returns(uint256){... */\n      swap1\n      jump\t// out\n        /* \"contracts/staking.sol\":1626:1720  function balance() external view returns (uint256){... */\n    tag_61:\n        /* \"contracts/staking.sol\":1668:1675  uint256 */\n      0x00\n        /* \"contracts/staking.sol\":1693:1701  _balance */\n      0x08\n        /* \"contracts/staking.sol\":1693:1713  _balance[msg.sender] */\n      0x00\n        /* \"contracts/staking.sol\":1702:1712  msg.sender */\n      caller\n        /* \"contracts/staking.sol\":1693:1713  _balance[msg.sender] */\n      0xffffffffffffffffffffffffffffffffffffffff\n      and\n      0xffffffffffffffffffffffffffffffffffffffff\n      and\n      dup2\n      mstore\n      0x20\n      add\n      swap1\n      dup2\n      mstore\n      0x20\n      add\n      0x00\n      keccak256\n      sload\n        /* \"contracts/staking.sol\":1686:1713  return _balance[msg.sender] */\n      swap1\n      pop\n        /* \"contracts/staking.sol\":1626:1720  function balance() external view returns (uint256){... */\n      swap1\n      jump\t// out\n        /* \"contracts/staking.sol\":1261:1621  function depositStake (uint amount) external {... */\n    tag_65:\n        /* \"contracts/staking.sol\":1362:1368  amount */\n      dup1\n        /* \"contracts/staking.sol\":1324:1336  stakingToken */\n      0x00\n      dup1\n      sload\n      swap1\n      0x0100\n      exp\n      swap1\n      div\n      0xffffffffffffffffffffffffffffffffffffffff\n      and\n        /* \"contracts/staking.sol\":1324:1346  stakingToken.balanceOf */\n      0xffffffffffffffffffffffffffffffffffffffff\n      and\n      0x70a08231\n        /* \"contracts/staking.sol\":1347:1357  msg.sender */\n      caller\n        /* \"contracts/staking.sol\":1324:1358  stakingToken.balanceOf(msg.sender) */\n      mload(0x40)\n      dup3\n      0xffffffff\n      and\n      0xe0\n      shl\n      dup2\n      mstore\n      0x04\n      add\n      tag_94\n      swap2\n      swap1\n      tag_95\n      jump\t// in\n    tag_94:\n      0x20\n      mload(0x40)\n      dup1\n      dup4\n      sub\n      dup2\n      dup7\n      gas\n      staticcall\n      iszero\n      dup1\n      iszero\n      tag_97\n      jumpi\n      returndatasize\n      0x00\n      dup1\n      returndatacopy\n      revert(0x00, returndatasize)\n    tag_97:\n      pop\n      pop\n      pop\n      pop\n      mload(0x40)\n      returndatasize\n      not(0x1f)\n      0x1f\n      dup3\n      add\n      and\n      dup3\n      add\n      dup1\n      0x40\n      mstore\n      pop\n      dup2\n      add\n      swap1\n      tag_98\n      swap2\n      swap1\n      tag_99\n      jump\t// in\n    tag_98:\n        /* \"contracts/staking.sol\":1324:1368  stakingToken.balanceOf(msg.sender) >= amount */\n      lt\n      iszero\n        /* \"contracts/staking.sol\":1316:1400  require(stakingToken.balanceOf(msg.sender) >= amount, \"Not enough tokens for stake\") */\n      tag_100\n      jumpi\n      mload(0x40)\n      0x08c379a000000000000000000000000000000000000000000000000000000000\n      dup2\n      mstore\n      0x04\n      add\n      tag_101\n      swap1\n      tag_102\n      jump\t// in\n    tag_101:\n      mload(0x40)\n      dup1\n      swap2\n      sub\n      swap1\n      revert\n    tag_100:\n        /* \"contracts/staking.sol\":1418:1430  stakingToken */\n      0x00\n      dup1\n      sload\n      swap1\n      0x0100\n      exp\n      swap1\n      div\n      0xffffffffffffffffffffffffffffffffffffffff\n      and\n        /* \"contracts/staking.sol\":1418:1443  stakingToken.transferFrom */\n      0xffffffffffffffffffffffffffffffffffffffff\n      and\n      0x23b872dd\n        /* \"contracts/staking.sol\":1444:1454  msg.sender */\n      caller\n        /* \"contracts/staking.sol\":1464:1468  this */\n      address\n        /* \"contracts/staking.sol\":1471:1477  amount */\n      dup5\n        /* \"contracts/staking.sol\":1418:1478  stakingToken.transferFrom(msg.sender, address(this), amount) */\n      mload(0x40)\n      dup5\n      0xffffffff\n      and\n      0xe0\n      shl\n      dup2\n      mstore\n      0x04\n      add\n      tag_103\n      swap4\n      swap3\n      swap2\n      swap1\n      tag_104\n      jump\t// in\n    tag_103:\n      0x20\n      mload(0x40)\n      dup1\n      dup4\n      sub\n      dup2\n      0x00\n      dup8\n      gas\n      call\n      iszero\n      dup1\n      iszero\n      tag_106\n      jumpi\n      returndatasize\n      0x00\n      dup1\n      returndatacopy\n      revert(0x00, returndatasize)\n    tag_106:\n      pop\n      pop\n      pop\n      pop\n      mload(0x40)\n      returndatasize\n      not(0x1f)\n      0x1f\n      dup3\n      add\n      and\n      dup3\n      add\n      dup1\n      0x40\n      mstore\n      pop\n      dup2\n      add\n      swap1\n      tag_107\n      swap2\n      swap1\n      tag_108\n      jump\t// in\n    tag_107:\n        /* \"contracts/staking.sol\":1410:1503  require(stakingToken.transferFrom(msg.sender, address(this), amount),\"Failed to stake token\") */\n      tag_109\n      jumpi\n      mload(0x40)\n      0x08c379a000000000000000000000000000000000000000000000000000000000\n      dup2\n      mstore\n      0x04\n      add\n      tag_110\n      swap1\n      tag_111\n      jump\t// in\n    tag_110:\n      mload(0x40)\n      dup1\n      swap2\n      sub\n      swap1\n      revert\n    tag_109:\n        /* \"contracts/staking.sol\":1537:1569  _balance[msg.sender].add(amount) */\n      tag_112\n        /* \"contracts/staking.sol\":1562:1568  amount */\n      dup2\n        /* \"contracts/staking.sol\":1537:1545  _balance */\n      0x08\n        /* \"contracts/staking.sol\":1537:1557  _balance[msg.sender] */\n      0x00\n        /* \"contracts/staking.sol\":1546:1556  msg.sender */\n      caller\n        /* \"contracts/staking.sol\":1537:1557  _balance[msg.sender] */\n      0xffffffffffffffffffffffffffffffffffffffff\n      and\n      0xffffffffffffffffffffffffffffffffffffffff\n      and\n      dup2\n      mstore\n      0x20\n      add\n      swap1\n      dup2\n      mstore\n      0x20\n      add\n      0x00\n      keccak256\n      sload\n        /* \"contracts/staking.sol\":1537:1561  _balance[msg.sender].add */\n      tag_113\n      swap1\n        /* \"contracts/staking.sol\":1537:1569  _balance[msg.sender].add(amount) */\n      swap2\n      swap1\n      0xffffffff\n      and\n      jump\t// in\n    tag_112:\n        /* \"contracts/staking.sol\":1514:1522  _balance */\n      0x08\n        /* \"contracts/staking.sol\":1514:1534  _balance[msg.sender] */\n      0x00\n        /* \"contracts/staking.sol\":1523:1533  msg.sender */\n      caller\n        /* \"contracts/staking.sol\":1514:1534  _balance[msg.sender] */\n      0xffffffffffffffffffffffffffffffffffffffff\n      and\n      0xffffffffffffffffffffffffffffffffffffffff\n      and\n      dup2\n      mstore\n      0x20\n      add\n      swap1\n      dup2\n      mstore\n      0x20\n      add\n      0x00\n      keccak256\n        /* \"contracts/staking.sol\":1514:1569  _balance[msg.sender] = _balance[msg.sender].add(amount) */\n      dup2\n      swap1\n      sstore\n      pop\n        /* \"contracts/staking.sol\":1592:1614  totalStake.add(amount) */\n      tag_114\n        /* \"contracts/staking.sol\":1607:1613  amount */\n      dup2\n        /* \"contracts/staking.sol\":1592:1602  totalStake */\n      sload(0x02)\n        /* \"contracts/staking.sol\":1592:1606  totalStake.add */\n      tag_113\n      swap1\n        /* \"contracts/staking.sol\":1592:1614  totalStake.add(amount) */\n      swap2\n      swap1\n      0xffffffff\n      and\n      jump\t// in\n    tag_114:\n        /* \"contracts/staking.sol\":1579:1589  totalStake */\n      0x02\n        /* \"contracts/staking.sol\":1579:1614  totalStake = totalStake.add(amount) */\n      dup2\n      swap1\n      sstore\n      pop\n        /* \"contracts/staking.sol\":1261:1621  function depositStake (uint amount) external {... */\n      pop\n      jump\t// out\n        /* \"contracts/staking.sol\":732:758  IERC20 public rewardsToken */\n    tag_67:\n      0x01\n      0x00\n      swap1\n      sload\n      swap1\n      0x0100\n      exp\n      swap1\n      div\n      0xffffffffffffffffffffffffffffffffffffffff\n      and\n      dup2\n      jump\t// out\n        /* \"contracts/staking.sol\":967:1008  mapping (address => uint) public _balance */\n    tag_71:\n      mstore(0x20, 0x08)\n      dup1\n      0x00\n      mstore\n      keccak256(0x00, 0x40)\n      0x00\n      swap2\n      pop\n      swap1\n      pop\n      sload\n      dup2\n      jump\t// out\n        /* \"contracts/staking.sol\":1726:1980  function setDuration(uint256 _duration) external{... */\n    tag_75:\n        /* \"contracts/staking.sol\":1803:1818  block.timestamp */\n      timestamp\n        /* \"contracts/staking.sol\":1792:1800  finishAt */\n      sload(0x05)\n        /* \"contracts/staking.sol\":1792:1818  finishAt < block.timestamp */\n      lt\n        /* \"contracts/staking.sol\":1784:1861  require(finishAt < block.timestamp, \"can't set date to a previous timestamp\") */\n      tag_116\n      jumpi\n      mload(0x40)\n      0x08c379a000000000000000000000000000000000000000000000000000000000\n      dup2\n      mstore\n      0x04\n      add\n      tag_117\n      swap1\n      tag_118\n      jump\t// in\n    tag_117:\n      mload(0x40)\n      dup1\n      swap2\n      sub\n      swap1\n      revert\n    tag_116:\n        /* \"contracts/staking.sol\":1883:1892  _duration */\n      dup1\n        /* \"contracts/staking.sol\":1872:1880  duration */\n      0x04\n        /* \"contracts/staking.sol\":1872:1892  duration = _duration */\n      dup2\n      swap1\n      sstore\n      pop\n        /* \"contracts/staking.sol\":1913:1936  finishAt.add(_duration) */\n      tag_119\n        /* \"contracts/staking.sol\":1926:1935  _duration */\n      dup2\n        /* \"contracts/staking.sol\":1913:1921  finishAt */\n      sload(0x05)\n        /* \"contracts/staking.sol\":1913:1925  finishAt.add */\n      tag_113\n      swap1\n        /* \"contracts/staking.sol\":1913:1936  finishAt.add(_duration) */\n      swap2\n      swap1\n      0xffffffff\n      and\n      jump\t// in\n    tag_119:\n        /* \"contracts/staking.sol\":1902:1910  finishAt */\n      0x05\n        /* \"contracts/staking.sol\":1902:1936  finishAt = finishAt.add(_duration) */\n      dup2\n      swap1\n      sstore\n      pop\n        /* \"contracts/staking.sol\":1958:1973  block.timestamp */\n      timestamp\n        /* \"contracts/staking.sol\":1946:1955  updatedAt */\n      0x06\n        /* \"contracts/staking.sol\":1946:1973  updatedAt = block.timestamp */\n      dup2\n      swap1\n      sstore\n      pop\n        /* \"contracts/staking.sol\":1726:1980  function setDuration(uint256 _duration) external{... */\n      pop\n      jump\t// out\n        /* \"https://github.com/OpenZeppelin/openzeppelin-contracts/blob/master/contracts/utils/math/SafeMath.sol\":2755:2851  function add(uint256 a, uint256 b) internal pure returns (uint256) {... */\n    tag_113:\n        /* \"https://github.com/OpenZeppelin/openzeppelin-contracts/blob/master/contracts/utils/math/SafeMath.sol\":2813:2820  uint256 */\n      0x00\n        /* \"https://github.com/OpenZeppelin/openzeppelin-contracts/blob/master/contracts/utils/math/SafeMath.sol\":2843:2844  b */\n      dup2\n        /* \"https://github.com/OpenZeppelin/openzeppelin-contracts/blob/master/contracts/utils/math/SafeMath.sol\":2839:2840  a */\n      dup4\n        /* \"https://github.com/OpenZeppelin/openzeppelin-contracts/blob/master/contracts/utils/math/SafeMath.sol\":2839:2844  a + b */\n      tag_121\n      swap2\n      swap1\n      tag_122\n      jump\t// in\n    tag_121:\n        /* \"https://github.com/OpenZeppelin/openzeppelin-contracts/blob/master/contracts/utils/math/SafeMath.sol\":2832:2844  return a + b */\n      swap1\n      pop\n        /* \"https://github.com/OpenZeppelin/openzeppelin-contracts/blob/master/contracts/utils/math/SafeMath.sol\":2755:2851  function add(uint256 a, uint256 b) internal pure returns (uint256) {... */\n      swap3\n      swap2\n      pop\n      pop\n      jump\t// out\n        /* \"#utility.yul\":7:84   */\n    tag_123:\n        /* \"#utility.yul\":44:51   */\n      0x00\n        /* \"#utility.yul\":73:78   */\n      dup2\n        /* \"#utility.yul\":62:78   */\n      swap1\n      pop\n        /* \"#utility.yul\":7:84   */\n      swap2\n      swap1\n      pop\n      jump\t// out\n        /* \"#utility.yul\":90:208   */\n    tag_124:\n        /* \"#utility.yul\":177:201   */\n      tag_160\n        /* \"#utility.yul\":195:200   */\n      dup2\n        /* \"#utility.yul\":177:201   */\n      tag_123\n      jump\t// in\n    tag_160:\n        /* \"#utility.yul\":172:175   */\n      dup3\n        /* \"#utility.yul\":165:202   */\n      mstore\n        /* \"#utility.yul\":90:208   */\n      pop\n      pop\n      jump\t// out\n        /* \"#utility.yul\":214:436   */\n    tag_25:\n        /* \"#utility.yul\":307:311   */\n      0x00\n        /* \"#utility.yul\":345:347   */\n      0x20\n        /* \"#utility.yul\":334:343   */\n      dup3\n        /* \"#utility.yul\":330:348   */\n      add\n        /* \"#utility.yul\":322:348   */\n      swap1\n      pop\n        /* \"#utility.yul\":358:429   */\n      tag_162\n        /* \"#utility.yul\":426:427   */\n      0x00\n        /* \"#utility.yul\":415:424   */\n      dup4\n        /* \"#utility.yul\":411:428   */\n      add\n        /* \"#utility.yul\":402:408   */\n      dup5\n        /* \"#utility.yul\":358:429   */\n      tag_124\n      jump\t// in\n    tag_162:\n        /* \"#utility.yul\":214:436   */\n      swap3\n      swap2\n      pop\n      pop\n      jump\t// out\n        /* \"#utility.yul\":442:568   */\n    tag_125:\n        /* \"#utility.yul\":479:486   */\n      0x00\n        /* \"#utility.yul\":519:561   */\n      0xffffffffffffffffffffffffffffffffffffffff\n        /* \"#utility.yul\":512:517   */\n      dup3\n        /* \"#utility.yul\":508:562   */\n      and\n        /* \"#utility.yul\":497:562   */\n      swap1\n      pop\n        /* \"#utility.yul\":442:568   */\n      swap2\n      swap1\n      pop\n      jump\t// out\n        /* \"#utility.yul\":574:634   */\n    tag_126:\n        /* \"#utility.yul\":602:605   */\n      0x00\n        /* \"#utility.yul\":623:628   */\n      dup2\n        /* \"#utility.yul\":616:628   */\n      swap1\n      pop\n        /* \"#utility.yul\":574:634   */\n      swap2\n      swap1\n      pop\n      jump\t// out\n        /* \"#utility.yul\":640:782   */\n    tag_127:\n        /* \"#utility.yul\":690:699   */\n      0x00\n        /* \"#utility.yul\":723:776   */\n      tag_166\n        /* \"#utility.yul\":741:775   */\n      tag_167\n        /* \"#utility.yul\":750:774   */\n      tag_168\n        /* \"#utility.yul\":768:773   */\n      dup5\n        /* \"#utility.yul\":750:774   */\n      tag_125\n      jump\t// in\n    tag_168:\n        /* \"#utility.yul\":741:775   */\n      tag_126\n      jump\t// in\n    tag_167:\n        /* \"#utility.yul\":723:776   */\n      tag_125\n      jump\t// in\n    tag_166:\n        /* \"#utility.yul\":710:776   */\n      swap1\n      pop\n        /* \"#utility.yul\":640:782   */\n      swap2\n      swap1\n      pop\n      jump\t// out\n        /* \"#utility.yul\":788:914   */\n    tag_128:\n        /* \"#utility.yul\":838:847   */\n      0x00\n        /* \"#utility.yul\":871:908   */\n      tag_170\n        /* \"#utility.yul\":902:907   */\n      dup3\n        /* \"#utility.yul\":871:908   */\n      tag_127\n      jump\t// in\n    tag_170:\n        /* \"#utility.yul\":858:908   */\n      swap1\n      pop\n        /* \"#utility.yul\":788:914   */\n      swap2\n      swap1\n      pop\n      jump\t// out\n        /* \"#utility.yul\":920:1060   */\n    tag_129:\n        /* \"#utility.yul\":984:993   */\n      0x00\n        /* \"#utility.yul\":1017:1054   */\n      tag_172\n        /* \"#utility.yul\":1048:1053   */\n      dup3\n        /* \"#utility.yul\":1017:1054   */\n      tag_128\n      jump\t// in\n    tag_172:\n        /* \"#utility.yul\":1004:1054   */\n      swap1\n      pop\n        /* \"#utility.yul\":920:1060   */\n      swap2\n      swap1\n      pop\n      jump\t// out\n        /* \"#utility.yul\":1066:1225   */\n    tag_130:\n        /* \"#utility.yul\":1167:1218   */\n      tag_174\n        /* \"#utility.yul\":1212:1217   */\n      dup2\n        /* \"#utility.yul\":1167:1218   */\n      tag_129\n      jump\t// in\n    tag_174:\n        /* \"#utility.yul\":1162:1165   */\n      dup3\n        /* \"#utility.yul\":1155:1219   */\n      mstore\n        /* \"#utility.yul\":1066:1225   */\n      pop\n      pop\n      jump\t// out\n        /* \"#utility.yul\":1231:1481   */\n    tag_41:\n        /* \"#utility.yul\":1338:1342   */\n      0x00\n        /* \"#utility.yul\":1376:1378   */\n      0x20\n        /* \"#utility.yul\":1365:1374   */\n      dup3\n        /* \"#utility.yul\":1361:1379   */\n      add\n        /* \"#utility.yul\":1353:1379   */\n      swap1\n      pop\n        /* \"#utility.yul\":1389:1474   */\n      tag_176\n        /* \"#utility.yul\":1471:1472   */\n      0x00\n        /* \"#utility.yul\":1460:1469   */\n      dup4\n        /* \"#utility.yul\":1456:1473   */\n      add\n        /* \"#utility.yul\":1447:1453   */\n      dup5\n        /* \"#utility.yul\":1389:1474   */\n      tag_130\n      jump\t// in\n    tag_176:\n        /* \"#utility.yul\":1231:1481   */\n      swap3\n      swap2\n      pop\n      pop\n      jump\t// out\n        /* \"#utility.yul\":1568:1685   */\n    tag_132:\n        /* \"#utility.yul\":1677:1678   */\n      0x00\n        /* \"#utility.yul\":1674:1675   */\n      dup1\n        /* \"#utility.yul\":1667:1679   */\n      revert\n        /* \"#utility.yul\":1814:1910   */\n    tag_134:\n        /* \"#utility.yul\":1851:1858   */\n      0x00\n        /* \"#utility.yul\":1880:1904   */\n      tag_181\n        /* \"#utility.yul\":1898:1903   */\n      dup3\n        /* \"#utility.yul\":1880:1904   */\n      tag_125\n      jump\t// in\n    tag_181:\n        /* \"#utility.yul\":1869:1904   */\n      swap1\n      pop\n        /* \"#utility.yul\":1814:1910   */\n      swap2\n      swap1\n      pop\n      jump\t// out\n        /* \"#utility.yul\":1916:2038   */\n    tag_135:\n        /* \"#utility.yul\":1989:2013   */\n      tag_183\n        /* \"#utility.yul\":2007:2012   */\n      dup2\n        /* \"#utility.yul\":1989:2013   */\n      tag_134\n      jump\t// in\n    tag_183:\n        /* \"#utility.yul\":1982:1987   */\n      dup2\n        /* \"#utility.yul\":1979:2014   */\n      eq\n        /* \"#utility.yul\":1969:2032   */\n      tag_184\n      jumpi\n        /* \"#utility.yul\":2028:2029   */\n      0x00\n        /* \"#utility.yul\":2025:2026   */\n      dup1\n        /* \"#utility.yul\":2018:2030   */\n      revert\n        /* \"#utility.yul\":1969:2032   */\n    tag_184:\n        /* \"#utility.yul\":1916:2038   */\n      pop\n      jump\t// out\n        /* \"#utility.yul\":2044:2183   */\n    tag_136:\n        /* \"#utility.yul\":2090:2095   */\n      0x00\n        /* \"#utility.yul\":2128:2134   */\n      dup2\n        /* \"#utility.yul\":2115:2135   */\n      calldataload\n        /* \"#utility.yul\":2106:2135   */\n      swap1\n      pop\n        /* \"#utility.yul\":2144:2177   */\n      tag_186\n        /* \"#utility.yul\":2171:2176   */\n      dup2\n        /* \"#utility.yul\":2144:2177   */\n      tag_135\n      jump\t// in\n    tag_186:\n        /* \"#utility.yul\":2044:2183   */\n      swap3\n      swap2\n      pop\n      pop\n      jump\t// out\n        /* \"#utility.yul\":2189:2518   */\n    tag_47:\n        /* \"#utility.yul\":2248:2254   */\n      0x00\n        /* \"#utility.yul\":2297:2299   */\n      0x20\n        /* \"#utility.yul\":2285:2294   */\n      dup3\n        /* \"#utility.yul\":2276:2283   */\n      dup5\n        /* \"#utility.yul\":2272:2295   */\n      sub\n        /* \"#utility.yul\":2268:2300   */\n      slt\n        /* \"#utility.yul\":2265:2384   */\n      iszero\n      tag_188\n      jumpi\n        /* \"#utility.yul\":2303:2382   */\n      tag_189\n      tag_132\n      jump\t// in\n    tag_189:\n        /* \"#utility.yul\":2265:2384   */\n    tag_188:\n        /* \"#utility.yul\":2423:2424   */\n      0x00\n        /* \"#utility.yul\":2448:2501   */\n      tag_190\n        /* \"#utility.yul\":2493:2500   */\n      dup5\n        /* \"#utility.yul\":2484:2490   */\n      dup3\n        /* \"#utility.yul\":2473:2482   */\n      dup6\n        /* \"#utility.yul\":2469:2491   */\n      add\n        /* \"#utility.yul\":2448:2501   */\n      tag_136\n      jump\t// in\n    tag_190:\n        /* \"#utility.yul\":2438:2501   */\n      swap2\n      pop\n        /* \"#utility.yul\":2394:2511   */\n      pop\n        /* \"#utility.yul\":2189:2518   */\n      swap3\n      swap2\n      pop\n      pop\n      jump\t// out\n        /* \"#utility.yul\":2524:2646   */\n    tag_137:\n        /* \"#utility.yul\":2597:2621   */\n      tag_192\n        /* \"#utility.yul\":2615:2620   */\n      dup2\n        /* \"#utility.yul\":2597:2621   */\n      tag_123\n      jump\t// in\n    tag_192:\n        /* \"#utility.yul\":2590:2595   */\n      dup2\n        /* \"#utility.yul\":2587:2622   */\n      eq\n        /* \"#utility.yul\":2577:2640   */\n      tag_193\n      jumpi\n        /* \"#utility.yul\":2636:2637   */\n      0x00\n        /* \"#utility.yul\":2633:2634   */\n      dup1\n        /* \"#utility.yul\":2626:2638   */\n      revert\n        /* \"#utility.yul\":2577:2640   */\n    tag_193:\n        /* \"#utility.yul\":2524:2646   */\n      pop\n      jump\t// out\n        /* \"#utility.yul\":2652:2791   */\n    tag_138:\n        /* \"#utility.yul\":2698:2703   */\n      0x00\n        /* \"#utility.yul\":2736:2742   */\n      dup2\n        /* \"#utility.yul\":2723:2743   */\n      calldataload\n        /* \"#utility.yul\":2714:2743   */\n      swap1\n      pop\n        /* \"#utility.yul\":2752:2785   */\n      tag_195\n        /* \"#utility.yul\":2779:2784   */\n      dup2\n        /* \"#utility.yul\":2752:2785   */\n      tag_137\n      jump\t// in\n    tag_195:\n        /* \"#utility.yul\":2652:2791   */\n      swap3\n      swap2\n      pop\n      pop\n      jump\t// out\n        /* \"#utility.yul\":2797:3126   */\n    tag_55:\n        /* \"#utility.yul\":2856:2862   */\n      0x00\n        /* \"#utility.yul\":2905:2907   */\n      0x20\n        /* \"#utility.yul\":2893:2902   */\n      dup3\n        /* \"#utility.yul\":2884:2891   */\n      dup5\n        /* \"#utility.yul\":2880:2903   */\n      sub\n        /* \"#utility.yul\":2876:2908   */\n      slt\n        /* \"#utility.yul\":2873:2992   */\n      iszero\n      tag_197\n      jumpi\n        /* \"#utility.yul\":2911:2990   */\n      tag_198\n      tag_132\n      jump\t// in\n    tag_198:\n        /* \"#utility.yul\":2873:2992   */\n    tag_197:\n        /* \"#utility.yul\":3031:3032   */\n      0x00\n        /* \"#utility.yul\":3056:3109   */\n      tag_199\n        /* \"#utility.yul\":3101:3108   */\n      dup5\n        /* \"#utility.yul\":3092:3098   */\n      dup3\n        /* \"#utility.yul\":3081:3090   */\n      dup6\n        /* \"#utility.yul\":3077:3099   */\n      add\n        /* \"#utility.yul\":3056:3109   */\n      tag_138\n      jump\t// in\n    tag_199:\n        /* \"#utility.yul\":3046:3109   */\n      swap2\n      pop\n        /* \"#utility.yul\":3002:3119   */\n      pop\n        /* \"#utility.yul\":2797:3126   */\n      swap3\n      swap2\n      pop\n      pop\n      jump\t// out\n        /* \"#utility.yul\":3132:3301   */\n    tag_139:\n        /* \"#utility.yul\":3216:3227   */\n      0x00\n        /* \"#utility.yul\":3250:3256   */\n      dup3\n        /* \"#utility.yul\":3245:3248   */\n      dup3\n        /* \"#utility.yul\":3238:3257   */\n      mstore\n        /* \"#utility.yul\":3290:3294   */\n      0x20\n        /* \"#utility.yul\":3285:3288   */\n      dup3\n        /* \"#utility.yul\":3281:3295   */\n      add\n        /* \"#utility.yul\":3266:3295   */\n      swap1\n      pop\n        /* \"#utility.yul\":3132:3301   */\n      swap3\n      swap2\n      pop\n      pop\n      jump\t// out\n        /* \"#utility.yul\":3307:3487   */\n    tag_140:\n        /* \"#utility.yul\":3447:3479   */\n      0x596f752068617665206e6f74207374616b656420616e7920746f6b656e730000\n        /* \"#utility.yul\":3443:3444   */\n      0x00\n        /* \"#utility.yul\":3435:3441   */\n      dup3\n        /* \"#utility.yul\":3431:3445   */\n      add\n        /* \"#utility.yul\":3424:3480   */\n      mstore\n        /* \"#utility.yul\":3307:3487   */\n      pop\n      jump\t// out\n        /* \"#utility.yul\":3493:3859   */\n    tag_141:\n        /* \"#utility.yul\":3635:3638   */\n      0x00\n        /* \"#utility.yul\":3656:3723   */\n      tag_203\n        /* \"#utility.yul\":3720:3722   */\n      0x1e\n        /* \"#utility.yul\":3715:3718   */\n      dup4\n        /* \"#utility.yul\":3656:3723   */\n      tag_139\n      jump\t// in\n    tag_203:\n        /* \"#utility.yul\":3649:3723   */\n      swap2\n      pop\n        /* \"#utility.yul\":3732:3825   */\n      tag_204\n        /* \"#utility.yul\":3821:3824   */\n      dup3\n        /* \"#utility.yul\":3732:3825   */\n      tag_140\n      jump\t// in\n    tag_204:\n        /* \"#utility.yul\":3850:3852   */\n      0x20\n        /* \"#utility.yul\":3845:3848   */\n      dup3\n        /* \"#utility.yul\":3841:3853   */\n      add\n        /* \"#utility.yul\":3834:3853   */\n      swap1\n      pop\n        /* \"#utility.yul\":3493:3859   */\n      swap2\n      swap1\n      pop\n      jump\t// out\n        /* \"#utility.yul\":3865:4284   */\n    tag_79:\n        /* \"#utility.yul\":4031:4035   */\n      0x00\n        /* \"#utility.yul\":4069:4071   */\n      0x20\n        /* \"#utility.yul\":4058:4067   */\n      dup3\n        /* \"#utility.yul\":4054:4072   */\n      add\n        /* \"#utility.yul\":4046:4072   */\n      swap1\n      pop\n        /* \"#utility.yul\":4118:4127   */\n      dup2\n        /* \"#utility.yul\":4112:4116   */\n      dup2\n        /* \"#utility.yul\":4108:4128   */\n      sub\n        /* \"#utility.yul\":4104:4105   */\n      0x00\n        /* \"#utility.yul\":4093:4102   */\n      dup4\n        /* \"#utility.yul\":4089:4106   */\n      add\n        /* \"#utility.yul\":4082:4129   */\n      mstore\n        /* \"#utility.yul\":4146:4277   */\n      tag_206\n        /* \"#utility.yul\":4272:4276   */\n      dup2\n        /* \"#utility.yul\":4146:4277   */\n      tag_141\n      jump\t// in\n    tag_206:\n        /* \"#utility.yul\":4138:4277   */\n      swap1\n      pop\n        /* \"#utility.yul\":3865:4284   */\n      swap2\n      swap1\n      pop\n      jump\t// out\n        /* \"#utility.yul\":4290:4470   */\n    tag_142:\n        /* \"#utility.yul\":4338:4415   */\n      0x4e487b7100000000000000000000000000000000000000000000000000000000\n        /* \"#utility.yul\":4335:4336   */\n      0x00\n        /* \"#utility.yul\":4328:4416   */\n      mstore\n        /* \"#utility.yul\":4435:4439   */\n      0x11\n        /* \"#utility.yul\":4432:4433   */\n      0x04\n        /* \"#utility.yul\":4425:4440   */\n      mstore\n        /* \"#utility.yul\":4459:4463   */\n      0x24\n        /* \"#utility.yul\":4456:4457   */\n      0x00\n        /* \"#utility.yul\":4449:4464   */\n      revert\n        /* \"#utility.yul\":4476:4670   */\n    tag_81:\n        /* \"#utility.yul\":4516:4520   */\n      0x00\n        /* \"#utility.yul\":4536:4556   */\n      tag_209\n        /* \"#utility.yul\":4554:4555   */\n      dup3\n        /* \"#utility.yul\":4536:4556   */\n      tag_123\n      jump\t// in\n    tag_209:\n        /* \"#utility.yul\":4531:4556   */\n      swap2\n      pop\n        /* \"#utility.yul\":4570:4590   */\n      tag_210\n        /* \"#utility.yul\":4588:4589   */\n      dup4\n        /* \"#utility.yul\":4570:4590   */\n      tag_123\n      jump\t// in\n    tag_210:\n        /* \"#utility.yul\":4565:4590   */\n      swap3\n      pop\n        /* \"#utility.yul\":4614:4615   */\n      dup3\n        /* \"#utility.yul\":4611:4612   */\n      dup3\n        /* \"#utility.yul\":4607:4616   */\n      sub\n        /* \"#utility.yul\":4599:4616   */\n      swap1\n      pop\n        /* \"#utility.yul\":4638:4639   */\n      dup2\n        /* \"#utility.yul\":4632:4636   */\n      dup2\n        /* \"#utility.yul\":4629:4640   */\n      gt\n        /* \"#utility.yul\":4626:4663   */\n      iszero\n      tag_211\n      jumpi\n        /* \"#utility.yul\":4643:4661   */\n      tag_212\n      tag_142\n      jump\t// in\n    tag_212:\n        /* \"#utility.yul\":4626:4663   */\n    tag_211:\n        /* \"#utility.yul\":4476:4670   */\n      swap3\n      swap2\n      pop\n      pop\n      jump\t// out\n        /* \"#utility.yul\":4676:4856   */\n    tag_143:\n        /* \"#utility.yul\":4724:4801   */\n      0x4e487b7100000000000000000000000000000000000000000000000000000000\n        /* \"#utility.yul\":4721:4722   */\n      0x00\n        /* \"#utility.yul\":4714:4802   */\n      mstore\n        /* \"#utility.yul\":4821:4825   */\n      0x12\n        /* \"#utility.yul\":4818:4819   */\n      0x04\n        /* \"#utility.yul\":4811:4826   */\n      mstore\n        /* \"#utility.yul\":4845:4849   */\n      0x24\n        /* \"#utility.yul\":4842:4843   */\n      0x00\n        /* \"#utility.yul\":4835:4850   */\n      revert\n        /* \"#utility.yul\":4862:5047   */\n    tag_83:\n        /* \"#utility.yul\":4902:4903   */\n      0x00\n        /* \"#utility.yul\":4919:4939   */\n      tag_215\n        /* \"#utility.yul\":4937:4938   */\n      dup3\n        /* \"#utility.yul\":4919:4939   */\n      tag_123\n      jump\t// in\n    tag_215:\n        /* \"#utility.yul\":4914:4939   */\n      swap2\n      pop\n        /* \"#utility.yul\":4953:4973   */\n      tag_216\n        /* \"#utility.yul\":4971:4972   */\n      dup4\n        /* \"#utility.yul\":4953:4973   */\n      tag_123\n      jump\t// in\n    tag_216:\n        /* \"#utility.yul\":4948:4973   */\n      swap3\n      pop\n        /* \"#utility.yul\":4992:4993   */\n      dup3\n        /* \"#utility.yul\":4982:5017   */\n      tag_217\n      jumpi\n        /* \"#utility.yul\":4997:5015   */\n      tag_218\n      tag_143\n      jump\t// in\n    tag_218:\n        /* \"#utility.yul\":4982:5017   */\n    tag_217:\n        /* \"#utility.yul\":5039:5040   */\n      dup3\n        /* \"#utility.yul\":5036:5037   */\n      dup3\n        /* \"#utility.yul\":5032:5041   */\n      div\n        /* \"#utility.yul\":5027:5041   */\n      swap1\n      pop\n        /* \"#utility.yul\":4862:5047   */\n      swap3\n      swap2\n      pop\n      pop\n      jump\t// out\n        /* \"#utility.yul\":5053:5463   */\n    tag_85:\n        /* \"#utility.yul\":5093:5100   */\n      0x00\n        /* \"#utility.yul\":5116:5136   */\n      tag_220\n        /* \"#utility.yul\":5134:5135   */\n      dup3\n        /* \"#utility.yul\":5116:5136   */\n      tag_123\n      jump\t// in\n    tag_220:\n        /* \"#utility.yul\":5111:5136   */\n      swap2\n      pop\n        /* \"#utility.yul\":5150:5170   */\n      tag_221\n        /* \"#utility.yul\":5168:5169   */\n      dup4\n        /* \"#utility.yul\":5150:5170   */\n      tag_123\n      jump\t// in\n    tag_221:\n        /* \"#utility.yul\":5145:5170   */\n      swap3\n      pop\n        /* \"#utility.yul\":5205:5206   */\n      dup3\n        /* \"#utility.yul\":5202:5203   */\n      dup3\n        /* \"#utility.yul\":5198:5207   */\n      mul\n        /* \"#utility.yul\":5227:5257   */\n      tag_222\n        /* \"#utility.yul\":5245:5256   */\n      dup2\n        /* \"#utility.yul\":5227:5257   */\n      tag_123\n      jump\t// in\n    tag_222:\n        /* \"#utility.yul\":5216:5257   */\n      swap2\n      pop\n        /* \"#utility.yul\":5406:5407   */\n      dup3\n        /* \"#utility.yul\":5397:5404   */\n      dup3\n        /* \"#utility.yul\":5393:5408   */\n      div\n        /* \"#utility.yul\":5390:5391   */\n      dup5\n        /* \"#utility.yul\":5387:5409   */\n      eq\n        /* \"#utility.yul\":5367:5368   */\n      dup4\n        /* \"#utility.yul\":5360:5369   */\n      iszero\n        /* \"#utility.yul\":5340:5423   */\n      or\n        /* \"#utility.yul\":5317:5456   */\n      tag_223\n      jumpi\n        /* \"#utility.yul\":5436:5454   */\n      tag_224\n      tag_142\n      jump\t// in\n    tag_224:\n        /* \"#utility.yul\":5317:5456   */\n    tag_223:\n        /* \"#utility.yul\":5101:5463   */\n      pop\n        /* \"#utility.yul\":5053:5463   */\n      swap3\n      swap2\n      pop\n      pop\n      jump\t// out\n        /* \"#utility.yul\":5469:5644   */\n    tag_144:\n        /* \"#utility.yul\":5609:5636   */\n      0x5374616b696e67207374696c6c20696e2070726f677265737300000000000000\n        /* \"#utility.yul\":5605:5606   */\n      0x00\n        /* \"#utility.yul\":5597:5603   */\n      dup3\n        /* \"#utility.yul\":5593:5607   */\n      add\n        /* \"#utility.yul\":5586:5637   */\n      mstore\n        /* \"#utility.yul\":5469:5644   */\n      pop\n      jump\t// out\n        /* \"#utility.yul\":5650:6016   */\n    tag_145:\n        /* \"#utility.yul\":5792:5795   */\n      0x00\n        /* \"#utility.yul\":5813:5880   */\n      tag_227\n        /* \"#utility.yul\":5877:5879   */\n      0x19\n        /* \"#utility.yul\":5872:5875   */\n      dup4\n        /* \"#utility.yul\":5813:5880   */\n      tag_139\n      jump\t// in\n    tag_227:\n        /* \"#utility.yul\":5806:5880   */\n      swap2\n      pop\n        /* \"#utility.yul\":5889:5982   */\n      tag_228\n        /* \"#utility.yul\":5978:5981   */\n      dup3\n        /* \"#utility.yul\":5889:5982   */\n      tag_144\n      jump\t// in\n    tag_228:\n        /* \"#utility.yul\":6007:6009   */\n      0x20\n        /* \"#utility.yul\":6002:6005   */\n      dup3\n        /* \"#utility.yul\":5998:6010   */\n      add\n        /* \"#utility.yul\":5991:6010   */\n      swap1\n      pop\n        /* \"#utility.yul\":5650:6016   */\n      swap2\n      swap1\n      pop\n      jump\t// out\n        /* \"#utility.yul\":6022:6441   */\n    tag_90:\n        /* \"#utility.yul\":6188:6192   */\n      0x00\n        /* \"#utility.yul\":6226:6228   */\n      0x20\n        /* \"#utility.yul\":6215:6224   */\n      dup3\n        /* \"#utility.yul\":6211:6229   */\n      add\n        /* \"#utility.yul\":6203:6229   */\n      swap1\n      pop\n        /* \"#utility.yul\":6275:6284   */\n      dup2\n        /* \"#utility.yul\":6269:6273   */\n      dup2\n        /* \"#utility.yul\":6265:6285   */\n      sub\n        /* \"#utility.yul\":6261:6262   */\n      0x00\n        /* \"#utility.yul\":6250:6259   */\n      dup4\n        /* \"#utility.yul\":6246:6263   */\n      add\n        /* \"#utility.yul\":6239:6286   */\n      mstore\n        /* \"#utility.yul\":6303:6434   */\n      tag_230\n        /* \"#utility.yul\":6429:6433   */\n      dup2\n        /* \"#utility.yul\":6303:6434   */\n      tag_145\n      jump\t// in\n    tag_230:\n        /* \"#utility.yul\":6295:6434   */\n      swap1\n      pop\n        /* \"#utility.yul\":6022:6441   */\n      swap2\n      swap1\n      pop\n      jump\t// out\n        /* \"#utility.yul\":6447:6565   */\n    tag_146:\n        /* \"#utility.yul\":6534:6558   */\n      tag_232\n        /* \"#utility.yul\":6552:6557   */\n      dup2\n        /* \"#utility.yul\":6534:6558   */\n      tag_134\n      jump\t// in\n    tag_232:\n        /* \"#utility.yul\":6529:6532   */\n      dup3\n        /* \"#utility.yul\":6522:6559   */\n      mstore\n        /* \"#utility.yul\":6447:6565   */\n      pop\n      pop\n      jump\t// out\n        /* \"#utility.yul\":6571:6793   */\n    tag_95:\n        /* \"#utility.yul\":6664:6668   */\n      0x00\n        /* \"#utility.yul\":6702:6704   */\n      0x20\n        /* \"#utility.yul\":6691:6700   */\n      dup3\n        /* \"#utility.yul\":6687:6705   */\n      add\n        /* \"#utility.yul\":6679:6705   */\n      swap1\n      pop\n        /* \"#utility.yul\":6715:6786   */\n      tag_234\n        /* \"#utility.yul\":6783:6784   */\n      0x00\n        /* \"#utility.yul\":6772:6781   */\n      dup4\n        /* \"#utility.yul\":6768:6785   */\n      add\n        /* \"#utility.yul\":6759:6765   */\n      dup5\n        /* \"#utility.yul\":6715:6786   */\n      tag_146\n      jump\t// in\n    tag_234:\n        /* \"#utility.yul\":6571:6793   */\n      swap3\n      swap2\n      pop\n      pop\n      jump\t// out\n        /* \"#utility.yul\":6799:6942   */\n    tag_147:\n        /* \"#utility.yul\":6856:6861   */\n      0x00\n        /* \"#utility.yul\":6887:6893   */\n      dup2\n        /* \"#utility.yul\":6881:6894   */\n      mload\n        /* \"#utility.yul\":6872:6894   */\n      swap1\n      pop\n        /* \"#utility.yul\":6903:6936   */\n      tag_236\n        /* \"#utility.yul\":6930:6935   */\n      dup2\n        /* \"#utility.yul\":6903:6936   */\n      tag_137\n      jump\t// in\n    tag_236:\n        /* \"#utility.yul\":6799:6942   */\n      swap3\n      swap2\n      pop\n      pop\n      jump\t// out\n        /* \"#utility.yul\":6948:7299   */\n    tag_99:\n        /* \"#utility.yul\":7018:7024   */\n      0x00\n        /* \"#utility.yul\":7067:7069   */\n      0x20\n        /* \"#utility.yul\":7055:7064   */\n      dup3\n        /* \"#utility.yul\":7046:7053   */\n      dup5\n        /* \"#utility.yul\":7042:7065   */\n      sub\n        /* \"#utility.yul\":7038:7070   */\n      slt\n        /* \"#utility.yul\":7035:7154   */\n      iszero\n      tag_238\n      jumpi\n        /* \"#utility.yul\":7073:7152   */\n      tag_239\n      tag_132\n      jump\t// in\n    tag_239:\n        /* \"#utility.yul\":7035:7154   */\n    tag_238:\n        /* \"#utility.yul\":7193:7194   */\n      0x00\n        /* \"#utility.yul\":7218:7282   */\n      tag_240\n        /* \"#utility.yul\":7274:7281   */\n      dup5\n        /* \"#utility.yul\":7265:7271   */\n      dup3\n        /* \"#utility.yul\":7254:7263   */\n      dup6\n        /* \"#utility.yul\":7250:7272   */\n      add\n        /* \"#utility.yul\":7218:7282   */\n      tag_147\n      jump\t// in\n    tag_240:\n        /* \"#utility.yul\":7208:7282   */\n      swap2\n      pop\n        /* \"#utility.yul\":7164:7292   */\n      pop\n        /* \"#utility.yul\":6948:7299   */\n      swap3\n      swap2\n      pop\n      pop\n      jump\t// out\n        /* \"#utility.yul\":7305:7482   */\n    tag_148:\n        /* \"#utility.yul\":7445:7474   */\n      0x4e6f7420656e6f75676820746f6b656e7320666f72207374616b650000000000\n        /* \"#utility.yul\":7441:7442   */\n      0x00\n        /* \"#utility.yul\":7433:7439   */\n      dup3\n        /* \"#utility.yul\":7429:7443   */\n      add\n        /* \"#utility.yul\":7422:7475   */\n      mstore\n        /* \"#utility.yul\":7305:7482   */\n      pop\n      jump\t// out\n        /* \"#utility.yul\":7488:7854   */\n    tag_149:\n        /* \"#utility.yul\":7630:7633   */\n      0x00\n        /* \"#utility.yul\":7651:7718   */\n      tag_243\n        /* \"#utility.yul\":7715:7717   */\n      0x1b\n        /* \"#utility.yul\":7710:7713   */\n      dup4\n        /* \"#utility.yul\":7651:7718   */\n      tag_139\n      jump\t// in\n    tag_243:\n        /* \"#utility.yul\":7644:7718   */\n      swap2\n      pop\n        /* \"#utility.yul\":7727:7820   */\n      tag_244\n        /* \"#utility.yul\":7816:7819   */\n      dup3\n        /* \"#utility.yul\":7727:7820   */\n      tag_148\n      jump\t// in\n    tag_244:\n        /* \"#utility.yul\":7845:7847   */\n      0x20\n        /* \"#utility.yul\":7840:7843   */\n      dup3\n        /* \"#utility.yul\":7836:7848   */\n      add\n        /* \"#utility.yul\":7829:7848   */\n      swap1\n      pop\n        /* \"#utility.yul\":7488:7854   */\n      swap2\n      swap1\n      pop\n      jump\t// out\n        /* \"#utility.yul\":7860:8279   */\n    tag_102:\n        /* \"#utility.yul\":8026:8030   */\n      0x00\n        /* \"#utility.yul\":8064:8066   */\n      0x20\n        /* \"#utility.yul\":8053:8062   */\n      dup3\n        /* \"#utility.yul\":8049:8067   */\n      add\n        /* \"#utility.yul\":8041:8067   */\n      swap1\n      pop\n        /* \"#utility.yul\":8113:8122   */\n      dup2\n        /* \"#utility.yul\":8107:8111   */\n      dup2\n        /* \"#utility.yul\":8103:8123   */\n      sub\n        /* \"#utility.yul\":8099:8100   */\n      0x00\n        /* \"#utility.yul\":8088:8097   */\n      dup4\n        /* \"#utility.yul\":8084:8101   */\n      add\n        /* \"#utility.yul\":8077:8124   */\n      mstore\n        /* \"#utility.yul\":8141:8272   */\n      tag_246\n        /* \"#utility.yul\":8267:8271   */\n      dup2\n        /* \"#utility.yul\":8141:8272   */\n      tag_149\n      jump\t// in\n    tag_246:\n        /* \"#utility.yul\":8133:8272   */\n      swap1\n      pop\n        /* \"#utility.yul\":7860:8279   */\n      swap2\n      swap1\n      pop\n      jump\t// out\n        /* \"#utility.yul\":8285:8727   */\n    tag_104:\n        /* \"#utility.yul\":8434:8438   */\n      0x00\n        /* \"#utility.yul\":8472:8474   */\n      0x60\n        /* \"#utility.yul\":8461:8470   */\n      dup3\n        /* \"#utility.yul\":8457:8475   */\n      add\n        /* \"#utility.yul\":8449:8475   */\n      swap1\n      pop\n        /* \"#utility.yul\":8485:8556   */\n      tag_248\n        /* \"#utility.yul\":8553:8554   */\n      0x00\n        /* \"#utility.yul\":8542:8551   */\n      dup4\n        /* \"#utility.yul\":8538:8555   */\n      add\n        /* \"#utility.yul\":8529:8535   */\n      dup7\n        /* \"#utility.yul\":8485:8556   */\n      tag_146\n      jump\t// in\n    tag_248:\n        /* \"#utility.yul\":8566:8638   */\n      tag_249\n        /* \"#utility.yul\":8634:8636   */\n      0x20\n        /* \"#utility.yul\":8623:8632   */\n      dup4\n        /* \"#utility.yul\":8619:8637   */\n      add\n        /* \"#utility.yul\":8610:8616   */\n      dup6\n        /* \"#utility.yul\":8566:8638   */\n      tag_146\n      jump\t// in\n    tag_249:\n        /* \"#utility.yul\":8648:8720   */\n      tag_250\n        /* \"#utility.yul\":8716:8718   */\n      0x40\n        /* \"#utility.yul\":8705:8714   */\n      dup4\n        /* \"#utility.yul\":8701:8719   */\n      add\n        /* \"#utility.yul\":8692:8698   */\n      dup5\n        /* \"#utility.yul\":8648:8720   */\n      tag_124\n      jump\t// in\n    tag_250:\n        /* \"#utility.yul\":8285:8727   */\n      swap5\n      swap4\n      pop\n      pop\n      pop\n      pop\n      jump\t// out\n        /* \"#utility.yul\":8733:8823   */\n    tag_150:\n        /* \"#utility.yul\":8767:8774   */\n      0x00\n        /* \"#utility.yul\":8810:8815   */\n      dup2\n        /* \"#utility.yul\":8803:8816   */\n      iszero\n        /* \"#utility.yul\":8796:8817   */\n      iszero\n        /* \"#utility.yul\":8785:8817   */\n      swap1\n      pop\n        /* \"#utility.yul\":8733:8823   */\n      swap2\n      swap1\n      pop\n      jump\t// out\n        /* \"#utility.yul\":8829:8945   */\n    tag_151:\n        /* \"#utility.yul\":8899:8920   */\n      tag_253\n        /* \"#utility.yul\":8914:8919   */\n      dup2\n        /* \"#utility.yul\":8899:8920   */\n      tag_150\n      jump\t// in\n    tag_253:\n        /* \"#utility.yul\":8892:8897   */\n      dup2\n        /* \"#utility.yul\":8889:8921   */\n      eq\n        /* \"#utility.yul\":8879:8939   */\n      tag_254\n      jumpi\n        /* \"#utility.yul\":8935:8936   */\n      0x00\n        /* \"#utility.yul\":8932:8933   */\n      dup1\n        /* \"#utility.yul\":8925:8937   */\n      revert\n        /* \"#utility.yul\":8879:8939   */\n    tag_254:\n        /* \"#utility.yul\":8829:8945   */\n      pop\n      jump\t// out\n        /* \"#utility.yul\":8951:9088   */\n    tag_152:\n        /* \"#utility.yul\":9005:9010   */\n      0x00\n        /* \"#utility.yul\":9036:9042   */\n      dup2\n        /* \"#utility.yul\":9030:9043   */\n      mload\n        /* \"#utility.yul\":9021:9043   */\n      swap1\n      pop\n        /* \"#utility.yul\":9052:9082   */\n      tag_256\n        /* \"#utility.yul\":9076:9081   */\n      dup2\n        /* \"#utility.yul\":9052:9082   */\n      tag_151\n      jump\t// in\n    tag_256:\n        /* \"#utility.yul\":8951:9088   */\n      swap3\n      swap2\n      pop\n      pop\n      jump\t// out\n        /* \"#utility.yul\":9094:9439   */\n    tag_108:\n        /* \"#utility.yul\":9161:9167   */\n      0x00\n        /* \"#utility.yul\":9210:9212   */\n      0x20\n        /* \"#utility.yul\":9198:9207   */\n      dup3\n        /* \"#utility.yul\":9189:9196   */\n      dup5\n        /* \"#utility.yul\":9185:9208   */\n      sub\n        /* \"#utility.yul\":9181:9213   */\n      slt\n        /* \"#utility.yul\":9178:9297   */\n      iszero\n      tag_258\n      jumpi\n        /* \"#utility.yul\":9216:9295   */\n      tag_259\n      tag_132\n      jump\t// in\n    tag_259:\n        /* \"#utility.yul\":9178:9297   */\n    tag_258:\n        /* \"#utility.yul\":9336:9337   */\n      0x00\n        /* \"#utility.yul\":9361:9422   */\n      tag_260\n        /* \"#utility.yul\":9414:9421   */\n      dup5\n        /* \"#utility.yul\":9405:9411   */\n      dup3\n        /* \"#utility.yul\":9394:9403   */\n      dup6\n        /* \"#utility.yul\":9390:9412   */\n      add\n        /* \"#utility.yul\":9361:9422   */\n      tag_152\n      jump\t// in\n    tag_260:\n        /* \"#utility.yul\":9351:9422   */\n      swap2\n      pop\n        /* \"#utility.yul\":9307:9432   */\n      pop\n        /* \"#utility.yul\":9094:9439   */\n      swap3\n      swap2\n      pop\n      pop\n      jump\t// out\n        /* \"#utility.yul\":9445:9616   */\n    tag_153:\n        /* \"#utility.yul\":9585:9608   */\n      0x4661696c656420746f207374616b6520746f6b656e0000000000000000000000\n        /* \"#utility.yul\":9581:9582   */\n      0x00\n        /* \"#utility.yul\":9573:9579   */\n      dup3\n        /* \"#utility.yul\":9569:9583   */\n      add\n        /* \"#utility.yul\":9562:9609   */\n      mstore\n        /* \"#utility.yul\":9445:9616   */\n      pop\n      jump\t// out\n        /* \"#utility.yul\":9622:9988   */\n    tag_154:\n        /* \"#utility.yul\":9764:9767   */\n      0x00\n        /* \"#utility.yul\":9785:9852   */\n      tag_263\n        /* \"#utility.yul\":9849:9851   */\n      0x15\n        /* \"#utility.yul\":9844:9847   */\n      dup4\n        /* \"#utility.yul\":9785:9852   */\n      tag_139\n      jump\t// in\n    tag_263:\n        /* \"#utility.yul\":9778:9852   */\n      swap2\n      pop\n        /* \"#utility.yul\":9861:9954   */\n      tag_264\n        /* \"#utility.yul\":9950:9953   */\n      dup3\n        /* \"#utility.yul\":9861:9954   */\n      tag_153\n      jump\t// in\n    tag_264:\n        /* \"#utility.yul\":9979:9981   */\n      0x20\n        /* \"#utility.yul\":9974:9977   */\n      dup3\n        /* \"#utility.yul\":9970:9982   */\n      add\n        /* \"#utility.yul\":9963:9982   */\n      swap1\n      pop\n        /* \"#utility.yul\":9622:9988   */\n      swap2\n      swap1\n      pop\n      jump\t// out\n        /* \"#utility.yul\":9994:10413   */\n    tag_111:\n        /* \"#utility.yul\":10160:10164   */\n      0x00\n        /* \"#utility.yul\":10198:10200   */\n      0x20\n        /* \"#utility.yul\":10187:10196   */\n      dup3\n        /* \"#utility.yul\":10183:10201   */\n      add\n        /* \"#utility.yul\":10175:10201   */\n      swap1\n      pop\n        /* \"#utility.yul\":10247:10256   */\n      dup2\n        /* \"#utility.yul\":10241:10245   */\n      dup2\n        /* \"#utility.yul\":10237:10257   */\n      sub\n        /* \"#utility.yul\":10233:10234   */\n      0x00\n        /* \"#utility.yul\":10222:10231   */\n      dup4\n        /* \"#utility.yul\":10218:10235   */\n      add\n        /* \"#utility.yul\":10211:10258   */\n      mstore\n        /* \"#utility.yul\":10275:10406   */\n      tag_266\n        /* \"#utility.yul\":10401:10405   */\n      dup2\n        /* \"#utility.yul\":10275:10406   */\n      tag_154\n      jump\t// in\n    tag_266:\n        /* \"#utility.yul\":10267:10406   */\n      swap1\n      pop\n        /* \"#utility.yul\":9994:10413   */\n      swap2\n      swap1\n      pop\n      jump\t// out\n        /* \"#utility.yul\":10419:10644   */\n    tag_155:\n        /* \"#utility.yul\":10559:10593   */\n      0x63616e277420736574206461746520746f20612070726576696f75732074696d\n        /* \"#utility.yul\":10555:10556   */\n      0x00\n        /* \"#utility.yul\":10547:10553   */\n      dup3\n        /* \"#utility.yul\":10543:10557   */\n      add\n        /* \"#utility.yul\":10536:10594   */\n      mstore\n        /* \"#utility.yul\":10628:10636   */\n      0x657374616d700000000000000000000000000000000000000000000000000000\n        /* \"#utility.yul\":10623:10625   */\n      0x20\n        /* \"#utility.yul\":10615:10621   */\n      dup3\n        /* \"#utility.yul\":10611:10626   */\n      add\n        /* \"#utility.yul\":10604:10637   */\n      mstore\n        /* \"#utility.yul\":10419:10644   */\n      pop\n      jump\t// out\n        /* \"#utility.yul\":10650:11016   */\n    tag_156:\n        /* \"#utility.yul\":10792:10795   */\n      0x00\n        /* \"#utility.yul\":10813:10880   */\n      tag_269\n        /* \"#utility.yul\":10877:10879   */\n      0x26\n        /* \"#utility.yul\":10872:10875   */\n      dup4\n        /* \"#utility.yul\":10813:10880   */\n      tag_139\n      jump\t// in\n    tag_269:\n        /* \"#utility.yul\":10806:10880   */\n      swap2\n      pop\n        /* \"#utility.yul\":10889:10982   */\n      tag_270\n        /* \"#utility.yul\":10978:10981   */\n      dup3\n        /* \"#utility.yul\":10889:10982   */\n      tag_155\n      jump\t// in\n    tag_270:\n        /* \"#utility.yul\":11007:11009   */\n      0x40\n        /* \"#utility.yul\":11002:11005   */\n      dup3\n        /* \"#utility.yul\":10998:11010   */\n      add\n        /* \"#utility.yul\":10991:11010   */\n      swap1\n      pop\n        /* \"#utility.yul\":10650:11016   */\n      swap2\n      swap1\n      pop\n      jump\t// out\n        /* \"#utility.yul\":11022:11441   */\n    tag_118:\n        /* \"#utility.yul\":11188:11192   */\n      0x00\n        /* \"#utility.yul\":11226:11228   */\n      0x20\n        /* \"#utility.yul\":11215:11224   */\n      dup3\n        /* \"#utility.yul\":11211:11229   */\n      add\n        /* \"#utility.yul\":11203:11229   */\n      swap1\n      pop\n        /* \"#utility.yul\":11275:11284   */\n      dup2\n        /* \"#utility.yul\":11269:11273   */\n      dup2\n        /* \"#utility.yul\":11265:11285   */\n      sub\n        /* \"#utility.yul\":11261:11262   */\n      0x00\n        /* \"#utility.yul\":11250:11259   */\n      dup4\n        /* \"#utility.yul\":11246:11263   */\n      add\n        /* \"#utility.yul\":11239:11286   */\n      mstore\n        /* \"#utility.yul\":11303:11434   */\n      tag_272\n        /* \"#utility.yul\":11429:11433   */\n      dup2\n        /* \"#utility.yul\":11303:11434   */\n      tag_156\n      jump\t// in\n    tag_272:\n        /* \"#utility.yul\":11295:11434   */\n      swap1\n      pop\n        /* \"#utility.yul\":11022:11441   */\n      swap2\n      swap1\n      pop\n      jump\t// out\n        /* \"#utility.yul\":11447:11638   */\n    tag_122:\n        /* \"#utility.yul\":11487:11490   */\n      0x00\n        /* \"#utility.yul\":11506:11526   */\n      tag_274\n        /* \"#utility.yul\":11524:11525   */\n      dup3\n        /* \"#utility.yul\":11506:11526   */\n      tag_123\n      jump\t// in\n    tag_274:\n        /* \"#utility.yul\":11501:11526   */\n      swap2\n      pop\n        /* \"#utility.yul\":11540:11560   */\n      tag_275\n        /* \"#utility.yul\":11558:11559   */\n      dup4\n        /* \"#utility.yul\":11540:11560   */\n      tag_123\n      jump\t// in\n    tag_275:\n        /* \"#utility.yul\":11535:11560   */\n      swap3\n      pop\n        /* \"#utility.yul\":11583:11584   */\n      dup3\n        /* \"#utility.yul\":11580:11581   */\n      dup3\n        /* \"#utility.yul\":11576:11585   */\n      add\n        /* \"#utility.yul\":11569:11585   */\n      swap1\n      pop\n        /* \"#utility.yul\":11604:11607   */\n      dup1\n        /* \"#utility.yul\":11601:11602   */\n      dup3\n        /* \"#utility.yul\":11598:11608   */\n      gt\n        /* \"#utility.yul\":11595:11631   */\n      iszero\n      tag_276\n      jumpi\n        /* \"#utility.yul\":11611:11629   */\n      tag_277\n      tag_142\n      jump\t// in\n    tag_277:\n        /* \"#utility.yul\":11595:11631   */\n    tag_276:\n        /* \"#utility.yul\":11447:11638   */\n      swap3\n      swap2\n      pop\n      pop\n      jump\t// out\n\n    auxdata: 0xa264697066735822122040ac17087ac7df14721bed8ba8eae01fb27ac8be98f2cdf03c237a646d77082c64736f6c63430008120033\n}\n",
				"bytecode": {
					"linkReferences": {},
					"object": "60806040523480156200001157600080fd5b506040516200100f3803806200100f83398181016040528101906200003791906200012a565b816000806101000a81548173ffffffffffffffffffffffffffffffffffffffff021916908373ffffffffffffffffffffffffffffffffffffffff16021790555080600160006101000a81548173ffffffffffffffffffffffffffffffffffffffff021916908373ffffffffffffffffffffffffffffffffffffffff160217905550505062000171565b600080fd5b600073ffffffffffffffffffffffffffffffffffffffff82169050919050565b6000620000f282620000c5565b9050919050565b6200010481620000e5565b81146200011057600080fd5b50565b6000815190506200012481620000f9565b92915050565b60008060408385031215620001445762000143620000c0565b5b6000620001548582860162000113565b9250506020620001678582860162000113565b9150509250929050565b610e8e80620001816000396000f3fe608060405234801561001057600080fd5b50600436106101005760003560e01c80638b0e9f3f11610097578063cb82cc8f11610066578063cb82cc8f1461027d578063d1af0c7d14610299578063d3aceae2146102b7578063f6be71d1146102e757610100565b80638b0e9f3f146102075780639e447fc614610225578063ad2e8c9b14610241578063b69ef8a81461025f57610100565b806367d3b488116100d357806367d3b4881461017d57806372f702f31461019b5780637519ab50146101b95780637d6dfb7e146101d757610100565b80630fb5a6b4146101055780632c4e722e14610123578063327bcac5146101415780633e50de301461015f575b600080fd5b61010d610303565b60405161011a9190610846565b60405180910390f35b61012b610309565b6040516101389190610846565b60405180910390f35b61014961030f565b6040516101569190610846565b60405180910390f35b610167610315565b6040516101749190610846565b60405180910390f35b61018561040e565b6040516101929190610846565b60405180910390f35b6101a3610414565b6040516101b091906108e0565b60405180910390f35b6101c1610438565b6040516101ce9190610846565b60405180910390f35b6101f160048036038101906101ec919061093e565b61043e565b6040516101fe9190610846565b60405180910390f35b61020f610456565b60405161021c9190610846565b60405180910390f35b61023f600480360381019061023a9190610997565b61045c565b005b6102496104aa565b6040516102569190610846565b60405180910390f35b6102676104b4565b6040516102749190610846565b60405180910390f35b61029760048036038101906102929190610997565b6104fb565b005b6102a1610769565b6040516102ae91906108e0565b60405180910390f35b6102d160048036038101906102cc919061093e565b61078f565b6040516102de9190610846565b60405180910390f35b61030160048036038101906102fc9190610997565b6107a7565b005b60045481565b60075481565b60035481565b600080600860003373ffffffffffffffffffffffffffffffffffffffff1673ffffffffffffffffffffffffffffffffffffffff1681526020019081526020016000205411610398576040517f08c379a000000000000000000000000000000000000000000000000000000000815260040161038f90610a21565b60405180910390fd5b600654426103a69190610a70565b60646007546103b59190610ad3565b600860003373ffffffffffffffffffffffffffffffffffffffff1673ffffffffffffffffffffffffffffffffffffffff168152602001908152602001600020546103ff9190610b04565b6104099190610b04565b905090565b60055481565b60008054906101000a900473ffffffffffffffffffffffffffffffffffffffff1681565b60065481565b60096020528060005260406000206000915090505481565b60025481565b42600554106104a0576040517f08c379a000000000000000000000000000000000000000000000000000000000815260040161049790610b92565b60405180910390fd5b8060078190555050565b6000600454905090565b6000600860003373ffffffffffffffffffffffffffffffffffffffff1673ffffffffffffffffffffffffffffffffffffffff16815260200190815260200160002054905090565b8060008054906101000a900473ffffffffffffffffffffffffffffffffffffffff1673ffffffffffffffffffffffffffffffffffffffff166370a08231336040518263ffffffff1660e01b81526004016105559190610bc1565b602060405180830381865afa158015610572573d6000803e3d6000fd5b505050506040513d601f19601f820116820180604052508101906105969190610bf1565b10156105d7576040517f08c379a00000000000000000000000000000000000000000000000000000000081526004016105ce90610c6a565b60405180910390fd5b60008054906101000a900473ffffffffffffffffffffffffffffffffffffffff1673ffffffffffffffffffffffffffffffffffffffff166323b872dd3330846040518463ffffffff1660e01b815260040161063493929190610c8a565b6020604051808303816000875af1158015610653573d6000803e3d6000fd5b505050506040513d601f19601f820116820180604052508101906106779190610cf9565b6106b6576040517f08c379a00000000000000000000000000000000000000000000000000000000081526004016106ad90610d72565b60405180910390fd5b61070881600860003373ffffffffffffffffffffffffffffffffffffffff1673ffffffffffffffffffffffffffffffffffffffff1681526020019081526020016000205461081790919063ffffffff16565b600860003373ffffffffffffffffffffffffffffffffffffffff1673ffffffffffffffffffffffffffffffffffffffff168152602001908152602001600020819055506107608160025461081790919063ffffffff16565b60028190555050565b600160009054906101000a900473ffffffffffffffffffffffffffffffffffffffff1681565b60086020528060005260406000206000915090505481565b42600554106107eb576040517f08c379a00000000000000000000000000000000000000000000000000000000081526004016107e290610e04565b60405180910390fd5b806004819055506108078160055461081790919063ffffffff16565b6005819055504260068190555050565b600081836108259190610e24565b905092915050565b6000819050919050565b6108408161082d565b82525050565b600060208201905061085b6000830184610837565b92915050565b600073ffffffffffffffffffffffffffffffffffffffff82169050919050565b6000819050919050565b60006108a66108a161089c84610861565b610881565b610861565b9050919050565b60006108b88261088b565b9050919050565b60006108ca826108ad565b9050919050565b6108da816108bf565b82525050565b60006020820190506108f560008301846108d1565b92915050565b600080fd5b600061090b82610861565b9050919050565b61091b81610900565b811461092657600080fd5b50565b60008135905061093881610912565b92915050565b600060208284031215610954576109536108fb565b5b600061096284828501610929565b91505092915050565b6109748161082d565b811461097f57600080fd5b50565b6000813590506109918161096b565b92915050565b6000602082840312156109ad576109ac6108fb565b5b60006109bb84828501610982565b91505092915050565b600082825260208201905092915050565b7f596f752068617665206e6f74207374616b656420616e7920746f6b656e730000600082015250565b6000610a0b601e836109c4565b9150610a16826109d5565b602082019050919050565b60006020820190508181036000830152610a3a816109fe565b9050919050565b7f4e487b7100000000000000000000000000000000000000000000000000000000600052601160045260246000fd5b6000610a7b8261082d565b9150610a868361082d565b9250828203905081811115610a9e57610a9d610a41565b5b92915050565b7f4e487b7100000000000000000000000000000000000000000000000000000000600052601260045260246000fd5b6000610ade8261082d565b9150610ae98361082d565b925082610af957610af8610aa4565b5b828204905092915050565b6000610b0f8261082d565b9150610b1a8361082d565b9250828202610b288161082d565b91508282048414831517610b3f57610b3e610a41565b5b5092915050565b7f5374616b696e67207374696c6c20696e2070726f677265737300000000000000600082015250565b6000610b7c6019836109c4565b9150610b8782610b46565b602082019050919050565b60006020820190508181036000830152610bab81610b6f565b9050919050565b610bbb81610900565b82525050565b6000602082019050610bd66000830184610bb2565b92915050565b600081519050610beb8161096b565b92915050565b600060208284031215610c0757610c066108fb565b5b6000610c1584828501610bdc565b91505092915050565b7f4e6f7420656e6f75676820746f6b656e7320666f72207374616b650000000000600082015250565b6000610c54601b836109c4565b9150610c5f82610c1e565b602082019050919050565b60006020820190508181036000830152610c8381610c47565b9050919050565b6000606082019050610c9f6000830186610bb2565b610cac6020830185610bb2565b610cb96040830184610837565b949350505050565b60008115159050919050565b610cd681610cc1565b8114610ce157600080fd5b50565b600081519050610cf381610ccd565b92915050565b600060208284031215610d0f57610d0e6108fb565b5b6000610d1d84828501610ce4565b91505092915050565b7f4661696c656420746f207374616b6520746f6b656e0000000000000000000000600082015250565b6000610d5c6015836109c4565b9150610d6782610d26565b602082019050919050565b60006020820190508181036000830152610d8b81610d4f565b9050919050565b7f63616e277420736574206461746520746f20612070726576696f75732074696d60008201527f657374616d700000000000000000000000000000000000000000000000000000602082015250565b6000610dee6026836109c4565b9150610df982610d92565b604082019050919050565b60006020820190508181036000830152610e1d81610de1565b9050919050565b6000610e2f8261082d565b9150610e3a8361082d565b9250828201905080821115610e5257610e51610a41565b5b9291505056fea264697066735822122040ac17087ac7df14721bed8ba8eae01fb27ac8be98f2cdf03c237a646d77082c64736f6c63430008120033",
					"opcodes": "PUSH1 0x80 PUSH1 0x40 MSTORE CALLVALUE DUP1 ISZERO PUSH3 0x11 JUMPI PUSH1 0x0 DUP1 REVERT JUMPDEST POP PUSH1 0x40 MLOAD PUSH3 0x100F CODESIZE SUB DUP1 PUSH3 0x100F DUP4 CODECOPY DUP2 DUP2 ADD PUSH1 0x40 MSTORE DUP2 ADD SWAP1 PUSH3 0x37 SWAP2 SWAP1 PUSH3 0x12A JUMP JUMPDEST DUP2 PUSH1 0x0 DUP1 PUSH2 0x100 EXP DUP2 SLOAD DUP2 PUSH20 0xFFFFFFFFFFFFFFFFFFFFFFFFFFFFFFFFFFFFFFFF MUL NOT AND SWAP1 DUP4 PUSH20 0xFFFFFFFFFFFFFFFFFFFFFFFFFFFFFFFFFFFFFFFF AND MUL OR SWAP1 SSTORE POP DUP1 PUSH1 0x1 PUSH1 0x0 PUSH2 0x100 EXP DUP2 SLOAD DUP2 PUSH20 0xFFFFFFFFFFFFFFFFFFFFFFFFFFFFFFFFFFFFFFFF MUL NOT AND SWAP1 DUP4 PUSH20 0xFFFFFFFFFFFFFFFFFFFFFFFFFFFFFFFFFFFFFFFF AND MUL OR SWAP1 SSTORE POP POP POP PUSH3 0x171 JUMP JUMPDEST PUSH1 0x0 DUP1 REVERT JUMPDEST PUSH1 0x0 PUSH20 0xFFFFFFFFFFFFFFFFFFFFFFFFFFFFFFFFFFFFFFFF DUP3 AND SWAP1 POP SWAP2 SWAP1 POP JUMP JUMPDEST PUSH1 0x0 PUSH3 0xF2 DUP3 PUSH3 0xC5 JUMP JUMPDEST SWAP1 POP SWAP2 SWAP1 POP JUMP JUMPDEST PUSH3 0x104 DUP2 PUSH3 0xE5 JUMP JUMPDEST DUP2 EQ PUSH3 0x110 JUMPI PUSH1 0x0 DUP1 REVERT JUMPDEST POP JUMP JUMPDEST PUSH1 0x0 DUP2 MLOAD SWAP1 POP PUSH3 0x124 DUP2 PUSH3 0xF9 JUMP JUMPDEST SWAP3 SWAP2 POP POP JUMP JUMPDEST PUSH1 0x0 DUP1 PUSH1 0x40 DUP4 DUP6 SUB SLT ISZERO PUSH3 0x144 JUMPI PUSH3 0x143 PUSH3 0xC0 JUMP JUMPDEST JUMPDEST PUSH1 0x0 PUSH3 0x154 DUP6 DUP3 DUP7 ADD PUSH3 0x113 JUMP JUMPDEST SWAP3 POP POP PUSH1 0x20 PUSH3 0x167 DUP6 DUP3 DUP7 ADD PUSH3 0x113 JUMP JUMPDEST SWAP2 POP POP SWAP3 POP SWAP3 SWAP1 POP JUMP JUMPDEST PUSH2 0xE8E DUP1 PUSH3 0x181 PUSH1 0x0 CODECOPY PUSH1 0x0 RETURN INVALID PUSH1 0x80 PUSH1 0x40 MSTORE CALLVALUE DUP1 ISZERO PUSH2 0x10 JUMPI PUSH1 0x0 DUP1 REVERT JUMPDEST POP PUSH1 0x4 CALLDATASIZE LT PUSH2 0x100 JUMPI PUSH1 0x0 CALLDATALOAD PUSH1 0xE0 SHR DUP1 PUSH4 0x8B0E9F3F GT PUSH2 0x97 JUMPI DUP1 PUSH4 0xCB82CC8F GT PUSH2 0x66 JUMPI DUP1 PUSH4 0xCB82CC8F EQ PUSH2 0x27D JUMPI DUP1 PUSH4 0xD1AF0C7D EQ PUSH2 0x299 JUMPI DUP1 PUSH4 0xD3ACEAE2 EQ PUSH2 0x2B7 JUMPI DUP1 PUSH4 0xF6BE71D1 EQ PUSH2 0x2E7 JUMPI PUSH2 0x100 JUMP JUMPDEST DUP1 PUSH4 0x8B0E9F3F EQ PUSH2 0x207 JUMPI DUP1 PUSH4 0x9E447FC6 EQ PUSH2 0x225 JUMPI DUP1 PUSH4 0xAD2E8C9B EQ PUSH2 0x241 JUMPI DUP1 PUSH4 0xB69EF8A8 EQ PUSH2 0x25F JUMPI PUSH2 0x100 JUMP JUMPDEST DUP1 PUSH4 0x67D3B488 GT PUSH2 0xD3 JUMPI DUP1 PUSH4 0x67D3B488 EQ PUSH2 0x17D JUMPI DUP1 PUSH4 0x72F702F3 EQ PUSH2 0x19B JUMPI DUP1 PUSH4 0x7519AB50 EQ PUSH2 0x1B9 JUMPI DUP1 PUSH4 0x7D6DFB7E EQ PUSH2 0x1D7 JUMPI PUSH2 0x100 JUMP JUMPDEST DUP1 PUSH4 0xFB5A6B4 EQ PUSH2 0x105 JUMPI DUP1 PUSH4 0x2C4E722E EQ PUSH2 0x123 JUMPI DUP1 PUSH4 0x327BCAC5 EQ PUSH2 0x141 JUMPI DUP1 PUSH4 0x3E50DE30 EQ PUSH2 0x15F JUMPI JUMPDEST PUSH1 0x0 DUP1 REVERT JUMPDEST PUSH2 0x10D PUSH2 0x303 JUMP JUMPDEST PUSH1 0x40 MLOAD PUSH2 0x11A SWAP2 SWAP1 PUSH2 0x846 JUMP JUMPDEST PUSH1 0x40 MLOAD DUP1 SWAP2 SUB SWAP1 RETURN JUMPDEST PUSH2 0x12B PUSH2 0x309 JUMP JUMPDEST PUSH1 0x40 MLOAD PUSH2 0x138 SWAP2 SWAP1 PUSH2 0x846 JUMP JUMPDEST PUSH1 0x40 MLOAD DUP1 SWAP2 SUB SWAP1 RETURN JUMPDEST PUSH2 0x149 PUSH2 0x30F JUMP JUMPDEST PUSH1 0x40 MLOAD PUSH2 0x156 SWAP2 SWAP1 PUSH2 0x846 JUMP JUMPDEST PUSH1 0x40 MLOAD DUP1 SWAP2 SUB SWAP1 RETURN JUMPDEST PUSH2 0x167 PUSH2 0x315 JUMP JUMPDEST PUSH1 0x40 MLOAD PUSH2 0x174 SWAP2 SWAP1 PUSH2 0x846 JUMP JUMPDEST PUSH1 0x40 MLOAD DUP1 SWAP2 SUB SWAP1 RETURN JUMPDEST PUSH2 0x185 PUSH2 0x40E JUMP JUMPDEST PUSH1 0x40 MLOAD PUSH2 0x192 SWAP2 SWAP1 PUSH2 0x846 JUMP JUMPDEST PUSH1 0x40 MLOAD DUP1 SWAP2 SUB SWAP1 RETURN JUMPDEST PUSH2 0x1A3 PUSH2 0x414 JUMP JUMPDEST PUSH1 0x40 MLOAD PUSH2 0x1B0 SWAP2 SWAP1 PUSH2 0x8E0 JUMP JUMPDEST PUSH1 0x40 MLOAD DUP1 SWAP2 SUB SWAP1 RETURN JUMPDEST PUSH2 0x1C1 PUSH2 0x438 JUMP JUMPDEST PUSH1 0x40 MLOAD PUSH2 0x1CE SWAP2 SWAP1 PUSH2 0x846 JUMP JUMPDEST PUSH1 0x40 MLOAD DUP1 SWAP2 SUB SWAP1 RETURN JUMPDEST PUSH2 0x1F1 PUSH1 0x4 DUP1 CALLDATASIZE SUB DUP2 ADD SWAP1 PUSH2 0x1EC SWAP2 SWAP1 PUSH2 0x93E JUMP JUMPDEST PUSH2 0x43E JUMP JUMPDEST PUSH1 0x40 MLOAD PUSH2 0x1FE SWAP2 SWAP1 PUSH2 0x846 JUMP JUMPDEST PUSH1 0x40 MLOAD DUP1 SWAP2 SUB SWAP1 RETURN JUMPDEST PUSH2 0x20F PUSH2 0x456 JUMP JUMPDEST PUSH1 0x40 MLOAD PUSH2 0x21C SWAP2 SWAP1 PUSH2 0x846 JUMP JUMPDEST PUSH1 0x40 MLOAD DUP1 SWAP2 SUB SWAP1 RETURN JUMPDEST PUSH2 0x23F PUSH1 0x4 DUP1 CALLDATASIZE SUB DUP2 ADD SWAP1 PUSH2 0x23A SWAP2 SWAP1 PUSH2 0x997 JUMP JUMPDEST PUSH2 0x45C JUMP JUMPDEST STOP JUMPDEST PUSH2 0x249 PUSH2 0x4AA JUMP JUMPDEST PUSH1 0x40 MLOAD PUSH2 0x256 SWAP2 SWAP1 PUSH2 0x846 JUMP JUMPDEST PUSH1 0x40 MLOAD DUP1 SWAP2 SUB SWAP1 RETURN JUMPDEST PUSH2 0x267 PUSH2 0x4B4 JUMP JUMPDEST PUSH1 0x40 MLOAD PUSH2 0x274 SWAP2 SWAP1 PUSH2 0x846 JUMP JUMPDEST PUSH1 0x40 MLOAD DUP1 SWAP2 SUB SWAP1 RETURN JUMPDEST PUSH2 0x297 PUSH1 0x4 DUP1 CALLDATASIZE SUB DUP2 ADD SWAP1 PUSH2 0x292 SWAP2 SWAP1 PUSH2 0x997 JUMP JUMPDEST PUSH2 0x4FB JUMP JUMPDEST STOP JUMPDEST PUSH2 0x2A1 PUSH2 0x769 JUMP JUMPDEST PUSH1 0x40 MLOAD PUSH2 0x2AE SWAP2 SWAP1 PUSH2 0x8E0 JUMP JUMPDEST PUSH1 0x40 MLOAD DUP1 SWAP2 SUB SWAP1 RETURN JUMPDEST PUSH2 0x2D1 PUSH1 0x4 DUP1 CALLDATASIZE SUB DUP2 ADD SWAP1 PUSH2 0x2CC SWAP2 SWAP1 PUSH2 0x93E JUMP JUMPDEST PUSH2 0x78F JUMP JUMPDEST PUSH1 0x40 MLOAD PUSH2 0x2DE SWAP2 SWAP1 PUSH2 0x846 JUMP JUMPDEST PUSH1 0x40 MLOAD DUP1 SWAP2 SUB SWAP1 RETURN JUMPDEST PUSH2 0x301 PUSH1 0x4 DUP1 CALLDATASIZE SUB DUP2 ADD SWAP1 PUSH2 0x2FC SWAP2 SWAP1 PUSH2 0x997 JUMP JUMPDEST PUSH2 0x7A7 JUMP JUMPDEST STOP JUMPDEST PUSH1 0x4 SLOAD DUP2 JUMP JUMPDEST PUSH1 0x7 SLOAD DUP2 JUMP JUMPDEST PUSH1 0x3 SLOAD DUP2 JUMP JUMPDEST PUSH1 0x0 DUP1 PUSH1 0x8 PUSH1 0x0 CALLER PUSH20 0xFFFFFFFFFFFFFFFFFFFFFFFFFFFFFFFFFFFFFFFF AND PUSH20 0xFFFFFFFFFFFFFFFFFFFFFFFFFFFFFFFFFFFFFFFF AND DUP2 MSTORE PUSH1 0x20 ADD SWAP1 DUP2 MSTORE PUSH1 0x20 ADD PUSH1 0x0 KECCAK256 SLOAD GT PUSH2 0x398 JUMPI PUSH1 0x40 MLOAD PUSH32 0x8C379A000000000000000000000000000000000000000000000000000000000 DUP2 MSTORE PUSH1 0x4 ADD PUSH2 0x38F SWAP1 PUSH2 0xA21 JUMP JUMPDEST PUSH1 0x40 MLOAD DUP1 SWAP2 SUB SWAP1 REVERT JUMPDEST PUSH1 0x6 SLOAD TIMESTAMP PUSH2 0x3A6 SWAP2 SWAP1 PUSH2 0xA70 JUMP JUMPDEST PUSH1 0x64 PUSH1 0x7 SLOAD PUSH2 0x3B5 SWAP2 SWAP1 PUSH2 0xAD3 JUMP JUMPDEST PUSH1 0x8 PUSH1 0x0 CALLER PUSH20 0xFFFFFFFFFFFFFFFFFFFFFFFFFFFFFFFFFFFFFFFF AND PUSH20 0xFFFFFFFFFFFFFFFFFFFFFFFFFFFFFFFFFFFFFFFF AND DUP2 MSTORE PUSH1 0x20 ADD SWAP1 DUP2 MSTORE PUSH1 0x20 ADD PUSH1 0x0 KECCAK256 SLOAD PUSH2 0x3FF SWAP2 SWAP1 PUSH2 0xB04 JUMP JUMPDEST PUSH2 0x409 SWAP2 SWAP1 PUSH2 0xB04 JUMP JUMPDEST SWAP1 POP SWAP1 JUMP JUMPDEST PUSH1 0x5 SLOAD DUP2 JUMP JUMPDEST PUSH1 0x0 DUP1 SLOAD SWAP1 PUSH2 0x100 EXP SWAP1 DIV PUSH20 0xFFFFFFFFFFFFFFFFFFFFFFFFFFFFFFFFFFFFFFFF AND DUP2 JUMP JUMPDEST PUSH1 0x6 SLOAD DUP2 JUMP JUMPDEST PUSH1 0x9 PUSH1 0x20 MSTORE DUP1 PUSH1 0x0 MSTORE PUSH1 0x40 PUSH1 0x0 KECCAK256 PUSH1 0x0 SWAP2 POP SWAP1 POP SLOAD DUP2 JUMP JUMPDEST PUSH1 0x2 SLOAD DUP2 JUMP JUMPDEST TIMESTAMP PUSH1 0x5 SLOAD LT PUSH2 0x4A0 JUMPI PUSH1 0x40 MLOAD PUSH32 0x8C379A000000000000000000000000000000000000000000000000000000000 DUP2 MSTORE PUSH1 0x4 ADD PUSH2 0x497 SWAP1 PUSH2 0xB92 JUMP JUMPDEST PUSH1 0x40 MLOAD DUP1 SWAP2 SUB SWAP1 REVERT JUMPDEST DUP1 PUSH1 0x7 DUP2 SWAP1 SSTORE POP POP JUMP JUMPDEST PUSH1 0x0 PUSH1 0x4 SLOAD SWAP1 POP SWAP1 JUMP JUMPDEST PUSH1 0x0 PUSH1 0x8 PUSH1 0x0 CALLER PUSH20 0xFFFFFFFFFFFFFFFFFFFFFFFFFFFFFFFFFFFFFFFF AND PUSH20 0xFFFFFFFFFFFFFFFFFFFFFFFFFFFFFFFFFFFFFFFF AND DUP2 MSTORE PUSH1 0x20 ADD SWAP1 DUP2 MSTORE PUSH1 0x20 ADD PUSH1 0x0 KECCAK256 SLOAD SWAP1 POP SWAP1 JUMP JUMPDEST DUP1 PUSH1 0x0 DUP1 SLOAD SWAP1 PUSH2 0x100 EXP SWAP1 DIV PUSH20 0xFFFFFFFFFFFFFFFFFFFFFFFFFFFFFFFFFFFFFFFF AND PUSH20 0xFFFFFFFFFFFFFFFFFFFFFFFFFFFFFFFFFFFFFFFF AND PUSH4 0x70A08231 CALLER PUSH1 0x40 MLOAD DUP3 PUSH4 0xFFFFFFFF AND PUSH1 0xE0 SHL DUP2 MSTORE PUSH1 0x4 ADD PUSH2 0x555 SWAP2 SWAP1 PUSH2 0xBC1 JUMP JUMPDEST PUSH1 0x20 PUSH1 0x40 MLOAD DUP1 DUP4 SUB DUP2 DUP7 GAS STATICCALL ISZERO DUP1 ISZERO PUSH2 0x572 JUMPI RETURNDATASIZE PUSH1 0x0 DUP1 RETURNDATACOPY RETURNDATASIZE PUSH1 0x0 REVERT JUMPDEST POP POP POP POP PUSH1 0x40 MLOAD RETURNDATASIZE PUSH1 0x1F NOT PUSH1 0x1F DUP3 ADD AND DUP3 ADD DUP1 PUSH1 0x40 MSTORE POP DUP2 ADD SWAP1 PUSH2 0x596 SWAP2 SWAP1 PUSH2 0xBF1 JUMP JUMPDEST LT ISZERO PUSH2 0x5D7 JUMPI PUSH1 0x40 MLOAD PUSH32 0x8C379A000000000000000000000000000000000000000000000000000000000 DUP2 MSTORE PUSH1 0x4 ADD PUSH2 0x5CE SWAP1 PUSH2 0xC6A JUMP JUMPDEST PUSH1 0x40 MLOAD DUP1 SWAP2 SUB SWAP1 REVERT JUMPDEST PUSH1 0x0 DUP1 SLOAD SWAP1 PUSH2 0x100 EXP SWAP1 DIV PUSH20 0xFFFFFFFFFFFFFFFFFFFFFFFFFFFFFFFFFFFFFFFF AND PUSH20 0xFFFFFFFFFFFFFFFFFFFFFFFFFFFFFFFFFFFFFFFF AND PUSH4 0x23B872DD CALLER ADDRESS DUP5 PUSH1 0x40 MLOAD DUP5 PUSH4 0xFFFFFFFF AND PUSH1 0xE0 SHL DUP2 MSTORE PUSH1 0x4 ADD PUSH2 0x634 SWAP4 SWAP3 SWAP2 SWAP1 PUSH2 0xC8A JUMP JUMPDEST PUSH1 0x20 PUSH1 0x40 MLOAD DUP1 DUP4 SUB DUP2 PUSH1 0x0 DUP8 GAS CALL ISZERO DUP1 ISZERO PUSH2 0x653 JUMPI RETURNDATASIZE PUSH1 0x0 DUP1 RETURNDATACOPY RETURNDATASIZE PUSH1 0x0 REVERT JUMPDEST POP POP POP POP PUSH1 0x40 MLOAD RETURNDATASIZE PUSH1 0x1F NOT PUSH1 0x1F DUP3 ADD AND DUP3 ADD DUP1 PUSH1 0x40 MSTORE POP DUP2 ADD SWAP1 PUSH2 0x677 SWAP2 SWAP1 PUSH2 0xCF9 JUMP JUMPDEST PUSH2 0x6B6 JUMPI PUSH1 0x40 MLOAD PUSH32 0x8C379A000000000000000000000000000000000000000000000000000000000 DUP2 MSTORE PUSH1 0x4 ADD PUSH2 0x6AD SWAP1 PUSH2 0xD72 JUMP JUMPDEST PUSH1 0x40 MLOAD DUP1 SWAP2 SUB SWAP1 REVERT JUMPDEST PUSH2 0x708 DUP2 PUSH1 0x8 PUSH1 0x0 CALLER PUSH20 0xFFFFFFFFFFFFFFFFFFFFFFFFFFFFFFFFFFFFFFFF AND PUSH20 0xFFFFFFFFFFFFFFFFFFFFFFFFFFFFFFFFFFFFFFFF AND DUP2 MSTORE PUSH1 0x20 ADD SWAP1 DUP2 MSTORE PUSH1 0x20 ADD PUSH1 0x0 KECCAK256 SLOAD PUSH2 0x817 SWAP1 SWAP2 SWAP1 PUSH4 0xFFFFFFFF AND JUMP JUMPDEST PUSH1 0x8 PUSH1 0x0 CALLER PUSH20 0xFFFFFFFFFFFFFFFFFFFFFFFFFFFFFFFFFFFFFFFF AND PUSH20 0xFFFFFFFFFFFFFFFFFFFFFFFFFFFFFFFFFFFFFFFF AND DUP2 MSTORE PUSH1 0x20 ADD SWAP1 DUP2 MSTORE PUSH1 0x20 ADD PUSH1 0x0 KECCAK256 DUP2 SWAP1 SSTORE POP PUSH2 0x760 DUP2 PUSH1 0x2 SLOAD PUSH2 0x817 SWAP1 SWAP2 SWAP1 PUSH4 0xFFFFFFFF AND JUMP JUMPDEST PUSH1 0x2 DUP2 SWAP1 SSTORE POP POP JUMP JUMPDEST PUSH1 0x1 PUSH1 0x0 SWAP1 SLOAD SWAP1 PUSH2 0x100 EXP SWAP1 DIV PUSH20 0xFFFFFFFFFFFFFFFFFFFFFFFFFFFFFFFFFFFFFFFF AND DUP2 JUMP JUMPDEST PUSH1 0x8 PUSH1 0x20 MSTORE DUP1 PUSH1 0x0 MSTORE PUSH1 0x40 PUSH1 0x0 KECCAK256 PUSH1 0x0 SWAP2 POP SWAP1 POP SLOAD DUP2 JUMP JUMPDEST TIMESTAMP PUSH1 0x5 SLOAD LT PUSH2 0x7EB JUMPI PUSH1 0x40 MLOAD PUSH32 0x8C379A000000000000000000000000000000000000000000000000000000000 DUP2 MSTORE PUSH1 0x4 ADD PUSH2 0x7E2 SWAP1 PUSH2 0xE04 JUMP JUMPDEST PUSH1 0x40 MLOAD DUP1 SWAP2 SUB SWAP1 REVERT JUMPDEST DUP1 PUSH1 0x4 DUP2 SWAP1 SSTORE POP PUSH2 0x807 DUP2 PUSH1 0x5 SLOAD PUSH2 0x817 SWAP1 SWAP2 SWAP1 PUSH4 0xFFFFFFFF AND JUMP JUMPDEST PUSH1 0x5 DUP2 SWAP1 SSTORE POP TIMESTAMP PUSH1 0x6 DUP2 SWAP1 SSTORE POP POP JUMP JUMPDEST PUSH1 0x0 DUP2 DUP4 PUSH2 0x825 SWAP2 SWAP1 PUSH2 0xE24 JUMP JUMPDEST SWAP1 POP SWAP3 SWAP2 POP POP JUMP JUMPDEST PUSH1 0x0 DUP2 SWAP1 POP SWAP2 SWAP1 POP JUMP JUMPDEST PUSH2 0x840 DUP2 PUSH2 0x82D JUMP JUMPDEST DUP3 MSTORE POP POP JUMP JUMPDEST PUSH1 0x0 PUSH1 0x20 DUP3 ADD SWAP1 POP PUSH2 0x85B PUSH1 0x0 DUP4 ADD DUP5 PUSH2 0x837 JUMP JUMPDEST SWAP3 SWAP2 POP POP JUMP JUMPDEST PUSH1 0x0 PUSH20 0xFFFFFFFFFFFFFFFFFFFFFFFFFFFFFFFFFFFFFFFF DUP3 AND SWAP1 POP SWAP2 SWAP1 POP JUMP JUMPDEST PUSH1 0x0 DUP2 SWAP1 POP SWAP2 SWAP1 POP JUMP JUMPDEST PUSH1 0x0 PUSH2 0x8A6 PUSH2 0x8A1 PUSH2 0x89C DUP5 PUSH2 0x861 JUMP JUMPDEST PUSH2 0x881 JUMP JUMPDEST PUSH2 0x861 JUMP JUMPDEST SWAP1 POP SWAP2 SWAP1 POP JUMP JUMPDEST PUSH1 0x0 PUSH2 0x8B8 DUP3 PUSH2 0x88B JUMP JUMPDEST SWAP1 POP SWAP2 SWAP1 POP JUMP JUMPDEST PUSH1 0x0 PUSH2 0x8CA DUP3 PUSH2 0x8AD JUMP JUMPDEST SWAP1 POP SWAP2 SWAP1 POP JUMP JUMPDEST PUSH2 0x8DA DUP2 PUSH2 0x8BF JUMP JUMPDEST DUP3 MSTORE POP POP JUMP JUMPDEST PUSH1 0x0 PUSH1 0x20 DUP3 ADD SWAP1 POP PUSH2 0x8F5 PUSH1 0x0 DUP4 ADD DUP5 PUSH2 0x8D1 JUMP JUMPDEST SWAP3 SWAP2 POP POP JUMP JUMPDEST PUSH1 0x0 DUP1 REVERT JUMPDEST PUSH1 0x0 PUSH2 0x90B DUP3 PUSH2 0x861 JUMP JUMPDEST SWAP1 POP SWAP2 SWAP1 POP JUMP JUMPDEST PUSH2 0x91B DUP2 PUSH2 0x900 JUMP JUMPDEST DUP2 EQ PUSH2 0x926 JUMPI PUSH1 0x0 DUP1 REVERT JUMPDEST POP JUMP JUMPDEST PUSH1 0x0 DUP2 CALLDATALOAD SWAP1 POP PUSH2 0x938 DUP2 PUSH2 0x912 JUMP JUMPDEST SWAP3 SWAP2 POP POP JUMP JUMPDEST PUSH1 0x0 PUSH1 0x20 DUP3 DUP5 SUB SLT ISZERO PUSH2 0x954 JUMPI PUSH2 0x953 PUSH2 0x8FB JUMP JUMPDEST JUMPDEST PUSH1 0x0 PUSH2 0x962 DUP5 DUP3 DUP6 ADD PUSH2 0x929 JUMP JUMPDEST SWAP2 POP POP SWAP3 SWAP2 POP POP JUMP JUMPDEST PUSH2 0x974 DUP2 PUSH2 0x82D JUMP JUMPDEST DUP2 EQ PUSH2 0x97F JUMPI PUSH1 0x0 DUP1 REVERT JUMPDEST POP JUMP JUMPDEST PUSH1 0x0 DUP2 CALLDATALOAD SWAP1 POP PUSH2 0x991 DUP2 PUSH2 0x96B JUMP JUMPDEST SWAP3 SWAP2 POP POP JUMP JUMPDEST PUSH1 0x0 PUSH1 0x20 DUP3 DUP5 SUB SLT ISZERO PUSH2 0x9AD JUMPI PUSH2 0x9AC PUSH2 0x8FB JUMP JUMPDEST JUMPDEST PUSH1 0x0 PUSH2 0x9BB DUP5 DUP3 DUP6 ADD PUSH2 0x982 JUMP JUMPDEST SWAP2 POP POP SWAP3 SWAP2 POP POP JUMP JUMPDEST PUSH1 0x0 DUP3 DUP3 MSTORE PUSH1 0x20 DUP3 ADD SWAP1 POP SWAP3 SWAP2 POP POP JUMP JUMPDEST PUSH32 0x596F752068617665206E6F74207374616B656420616E7920746F6B656E730000 PUSH1 0x0 DUP3 ADD MSTORE POP JUMP JUMPDEST PUSH1 0x0 PUSH2 0xA0B PUSH1 0x1E DUP4 PUSH2 0x9C4 JUMP JUMPDEST SWAP2 POP PUSH2 0xA16 DUP3 PUSH2 0x9D5 JUMP JUMPDEST PUSH1 0x20 DUP3 ADD SWAP1 POP SWAP2 SWAP1 POP JUMP JUMPDEST PUSH1 0x0 PUSH1 0x20 DUP3 ADD SWAP1 POP DUP2 DUP2 SUB PUSH1 0x0 DUP4 ADD MSTORE PUSH2 0xA3A DUP2 PUSH2 0x9FE JUMP JUMPDEST SWAP1 POP SWAP2 SWAP1 POP JUMP JUMPDEST PUSH32 0x4E487B7100000000000000000000000000000000000000000000000000000000 PUSH1 0x0 MSTORE PUSH1 0x11 PUSH1 0x4 MSTORE PUSH1 0x24 PUSH1 0x0 REVERT JUMPDEST PUSH1 0x0 PUSH2 0xA7B DUP3 PUSH2 0x82D JUMP JUMPDEST SWAP2 POP PUSH2 0xA86 DUP4 PUSH2 0x82D JUMP JUMPDEST SWAP3 POP DUP3 DUP3 SUB SWAP1 POP DUP2 DUP2 GT ISZERO PUSH2 0xA9E JUMPI PUSH2 0xA9D PUSH2 0xA41 JUMP JUMPDEST JUMPDEST SWAP3 SWAP2 POP POP JUMP JUMPDEST PUSH32 0x4E487B7100000000000000000000000000000000000000000000000000000000 PUSH1 0x0 MSTORE PUSH1 0x12 PUSH1 0x4 MSTORE PUSH1 0x24 PUSH1 0x0 REVERT JUMPDEST PUSH1 0x0 PUSH2 0xADE DUP3 PUSH2 0x82D JUMP JUMPDEST SWAP2 POP PUSH2 0xAE9 DUP4 PUSH2 0x82D JUMP JUMPDEST SWAP3 POP DUP3 PUSH2 0xAF9 JUMPI PUSH2 0xAF8 PUSH2 0xAA4 JUMP JUMPDEST JUMPDEST DUP3 DUP3 DIV SWAP1 POP SWAP3 SWAP2 POP POP JUMP JUMPDEST PUSH1 0x0 PUSH2 0xB0F DUP3 PUSH2 0x82D JUMP JUMPDEST SWAP2 POP PUSH2 0xB1A DUP4 PUSH2 0x82D JUMP JUMPDEST SWAP3 POP DUP3 DUP3 MUL PUSH2 0xB28 DUP2 PUSH2 0x82D JUMP JUMPDEST SWAP2 POP DUP3 DUP3 DIV DUP5 EQ DUP4 ISZERO OR PUSH2 0xB3F JUMPI PUSH2 0xB3E PUSH2 0xA41 JUMP JUMPDEST JUMPDEST POP SWAP3 SWAP2 POP POP JUMP JUMPDEST PUSH32 0x5374616B696E67207374696C6C20696E2070726F677265737300000000000000 PUSH1 0x0 DUP3 ADD MSTORE POP JUMP JUMPDEST PUSH1 0x0 PUSH2 0xB7C PUSH1 0x19 DUP4 PUSH2 0x9C4 JUMP JUMPDEST SWAP2 POP PUSH2 0xB87 DUP3 PUSH2 0xB46 JUMP JUMPDEST PUSH1 0x20 DUP3 ADD SWAP1 POP SWAP2 SWAP1 POP JUMP JUMPDEST PUSH1 0x0 PUSH1 0x20 DUP3 ADD SWAP1 POP DUP2 DUP2 SUB PUSH1 0x0 DUP4 ADD MSTORE PUSH2 0xBAB DUP2 PUSH2 0xB6F JUMP JUMPDEST SWAP1 POP SWAP2 SWAP1 POP JUMP JUMPDEST PUSH2 0xBBB DUP2 PUSH2 0x900 JUMP JUMPDEST DUP3 MSTORE POP POP JUMP JUMPDEST PUSH1 0x0 PUSH1 0x20 DUP3 ADD SWAP1 POP PUSH2 0xBD6 PUSH1 0x0 DUP4 ADD DUP5 PUSH2 0xBB2 JUMP JUMPDEST SWAP3 SWAP2 POP POP JUMP JUMPDEST PUSH1 0x0 DUP2 MLOAD SWAP1 POP PUSH2 0xBEB DUP2 PUSH2 0x96B JUMP JUMPDEST SWAP3 SWAP2 POP POP JUMP JUMPDEST PUSH1 0x0 PUSH1 0x20 DUP3 DUP5 SUB SLT ISZERO PUSH2 0xC07 JUMPI PUSH2 0xC06 PUSH2 0x8FB JUMP JUMPDEST JUMPDEST PUSH1 0x0 PUSH2 0xC15 DUP5 DUP3 DUP6 ADD PUSH2 0xBDC JUMP JUMPDEST SWAP2 POP POP SWAP3 SWAP2 POP POP JUMP JUMPDEST PUSH32 0x4E6F7420656E6F75676820746F6B656E7320666F72207374616B650000000000 PUSH1 0x0 DUP3 ADD MSTORE POP JUMP JUMPDEST PUSH1 0x0 PUSH2 0xC54 PUSH1 0x1B DUP4 PUSH2 0x9C4 JUMP JUMPDEST SWAP2 POP PUSH2 0xC5F DUP3 PUSH2 0xC1E JUMP JUMPDEST PUSH1 0x20 DUP3 ADD SWAP1 POP SWAP2 SWAP1 POP JUMP JUMPDEST PUSH1 0x0 PUSH1 0x20 DUP3 ADD SWAP1 POP DUP2 DUP2 SUB PUSH1 0x0 DUP4 ADD MSTORE PUSH2 0xC83 DUP2 PUSH2 0xC47 JUMP JUMPDEST SWAP1 POP SWAP2 SWAP1 POP JUMP JUMPDEST PUSH1 0x0 PUSH1 0x60 DUP3 ADD SWAP1 POP PUSH2 0xC9F PUSH1 0x0 DUP4 ADD DUP7 PUSH2 0xBB2 JUMP JUMPDEST PUSH2 0xCAC PUSH1 0x20 DUP4 ADD DUP6 PUSH2 0xBB2 JUMP JUMPDEST PUSH2 0xCB9 PUSH1 0x40 DUP4 ADD DUP5 PUSH2 0x837 JUMP JUMPDEST SWAP5 SWAP4 POP POP POP POP JUMP JUMPDEST PUSH1 0x0 DUP2 ISZERO ISZERO SWAP1 POP SWAP2 SWAP1 POP JUMP JUMPDEST PUSH2 0xCD6 DUP2 PUSH2 0xCC1 JUMP JUMPDEST DUP2 EQ PUSH2 0xCE1 JUMPI PUSH1 0x0 DUP1 REVERT JUMPDEST POP JUMP JUMPDEST PUSH1 0x0 DUP2 MLOAD SWAP1 POP PUSH2 0xCF3 DUP2 PUSH2 0xCCD JUMP JUMPDEST SWAP3 SWAP2 POP POP JUMP JUMPDEST PUSH1 0x0 PUSH1 0x20 DUP3 DUP5 SUB SLT ISZERO PUSH2 0xD0F JUMPI PUSH2 0xD0E PUSH2 0x8FB JUMP JUMPDEST JUMPDEST PUSH1 0x0 PUSH2 0xD1D DUP5 DUP3 DUP6 ADD PUSH2 0xCE4 JUMP JUMPDEST SWAP2 POP POP SWAP3 SWAP2 POP POP JUMP JUMPDEST PUSH32 0x4661696C656420746F207374616B6520746F6B656E0000000000000000000000 PUSH1 0x0 DUP3 ADD MSTORE POP JUMP JUMPDEST PUSH1 0x0 PUSH2 0xD5C PUSH1 0x15 DUP4 PUSH2 0x9C4 JUMP JUMPDEST SWAP2 POP PUSH2 0xD67 DUP3 PUSH2 0xD26 JUMP JUMPDEST PUSH1 0x20 DUP3 ADD SWAP1 POP SWAP2 SWAP1 POP JUMP JUMPDEST PUSH1 0x0 PUSH1 0x20 DUP3 ADD SWAP1 POP DUP2 DUP2 SUB PUSH1 0x0 DUP4 ADD MSTORE PUSH2 0xD8B DUP2 PUSH2 0xD4F JUMP JUMPDEST SWAP1 POP SWAP2 SWAP1 POP JUMP JUMPDEST PUSH32 0x63616E277420736574206461746520746F20612070726576696F75732074696D PUSH1 0x0 DUP3 ADD MSTORE PUSH32 0x657374616D700000000000000000000000000000000000000000000000000000 PUSH1 0x20 DUP3 ADD MSTORE POP JUMP JUMPDEST PUSH1 0x0 PUSH2 0xDEE PUSH1 0x26 DUP4 PUSH2 0x9C4 JUMP JUMPDEST SWAP2 POP PUSH2 0xDF9 DUP3 PUSH2 0xD92 JUMP JUMPDEST PUSH1 0x40 DUP3 ADD SWAP1 POP SWAP2 SWAP1 POP JUMP JUMPDEST PUSH1 0x0 PUSH1 0x20 DUP3 ADD SWAP1 POP DUP2 DUP2 SUB PUSH1 0x0 DUP4 ADD MSTORE PUSH2 0xE1D DUP2 PUSH2 0xDE1 JUMP JUMPDEST SWAP1 POP SWAP2 SWAP1 POP JUMP JUMPDEST PUSH1 0x0 PUSH2 0xE2F DUP3 PUSH2 0x82D JUMP JUMPDEST SWAP2 POP PUSH2 0xE3A DUP4 PUSH2 0x82D JUMP JUMPDEST SWAP3 POP DUP3 DUP3 ADD SWAP1 POP DUP1 DUP3 GT ISZERO PUSH2 0xE52 JUMPI PUSH2 0xE51 PUSH2 0xA41 JUMP JUMPDEST JUMPDEST SWAP3 SWAP2 POP POP JUMP INVALID LOG2 PUSH5 0x6970667358 0x22 SLT KECCAK256 BLOCKHASH 0xAC OR ADDMOD PUSH27 0xC7DF14721BED8BA8EAE01FB27AC8BE98F2CDF03C237A646D77082C PUSH5 0x736F6C6343 STOP ADDMOD SLT STOP CALLER "
				},
				"gasEstimates": {
					"creation": {
						"codeDepositCost": "745200",
						"executionCost": "infinite",
						"totalCost": "infinite"
					},
					"external": {
						"_balance(address)": "2880",
						"_rewards(address)": "2903",
						"balance()": "2615",
						"calculateRewards()": "infinite",
						"depositStake(uint256)": "infinite",
						"duration()": "2453",
						"finishAt()": "2452",
						"getDuration()": "2504",
						"rate()": "2475",
						"rewardsToken()": "infinite",
						"setDuration(uint256)": "infinite",
						"setRewardRate(uint256)": "24687",
						"stakingToken()": "infinite",
						"totalStake()": "2452",
						"totalStakeRewards()": "2497",
						"updatedAt()": "2496"
					}
				},
				"methodIdentifiers": {
					"_balance(address)": "d3aceae2",
					"_rewards(address)": "7d6dfb7e",
					"balance()": "b69ef8a8",
					"calculateRewards()": "3e50de30",
					"depositStake(uint256)": "cb82cc8f",
					"duration()": "0fb5a6b4",
					"finishAt()": "67d3b488",
					"getDuration()": "ad2e8c9b",
					"rate()": "2c4e722e",
					"rewardsToken()": "d1af0c7d",
					"setDuration(uint256)": "f6be71d1",
					"setRewardRate(uint256)": "9e447fc6",
					"stakingToken()": "72f702f3",
					"totalStake()": "8b0e9f3f",
					"totalStakeRewards()": "327bcac5",
					"updatedAt()": "7519ab50"
				}
			},
			"storageLayout": {
				"storage": [
					{
						"astId": 43,
						"contract": "contracts/staking.sol:Staking",
						"label": "stakingToken",
						"offset": 0,
						"slot": "0",
						"type": "t_contract(IERC20)315"
					},
					{
						"astId": 46,
						"contract": "contracts/staking.sol:Staking",
						"label": "rewardsToken",
						"offset": 0,
						"slot": "1",
						"type": "t_contract(IERC20)315"
					},
					{
						"astId": 48,
						"contract": "contracts/staking.sol:Staking",
						"label": "totalStake",
						"offset": 0,
						"slot": "2",
						"type": "t_uint256"
					},
					{
						"astId": 50,
						"contract": "contracts/staking.sol:Staking",
						"label": "totalStakeRewards",
						"offset": 0,
						"slot": "3",
						"type": "t_uint256"
					},
					{
						"astId": 52,
						"contract": "contracts/staking.sol:Staking",
						"label": "duration",
						"offset": 0,
						"slot": "4",
						"type": "t_uint256"
					},
					{
						"astId": 54,
						"contract": "contracts/staking.sol:Staking",
						"label": "finishAt",
						"offset": 0,
						"slot": "5",
						"type": "t_uint256"
					},
					{
						"astId": 56,
						"contract": "contracts/staking.sol:Staking",
						"label": "updatedAt",
						"offset": 0,
						"slot": "6",
						"type": "t_uint256"
					},
					{
						"astId": 58,
						"contract": "contracts/staking.sol:Staking",
						"label": "rate",
						"offset": 0,
						"slot": "7",
						"type": "t_uint256"
					},
					{
						"astId": 62,
						"contract": "contracts/staking.sol:Staking",
						"label": "_balance",
						"offset": 0,
						"slot": "8",
						"type": "t_mapping(t_address,t_uint256)"
					},
					{
						"astId": 66,
						"contract": "contracts/staking.sol:Staking",
						"label": "_rewards",
						"offset": 0,
						"slot": "9",
						"type": "t_mapping(t_address,t_uint256)"
					}
				],
				"types": {
					"t_address": {
						"encoding": "inplace",
						"label": "address",
						"numberOfBytes": "20"
					},
					"t_contract(IERC20)315": {
						"encoding": "inplace",
						"label": "contract IERC20",
						"numberOfBytes": "20"
					},
					"t_mapping(t_address,t_uint256)": {
						"encoding": "mapping",
						"key": "t_address",
						"label": "mapping(address => uint256)",
						"numberOfBytes": "32",
						"value": "t_uint256"
					},
					"t_uint256": {
						"encoding": "inplace",
						"label": "uint256",
						"numberOfBytes": "32"
					}
				}
			},
			"userdoc": {
				"kind": "user",
				"methods": {},
				"version": 1
			}
		}
	}
}