{
	"contracts/staking.sol": {
		"Staking": {
			"abi": [
				{
					"inputs": [
						{
							"internalType": "address",
							"name": "_stakeToken",
							"type": "address"
						},
						{
							"internalType": "address",
							"name": "_rewardsToken",
							"type": "address"
						}
					],
					"stateMutability": "nonpayable",
					"type": "constructor"
				},
				{
					"inputs": [
						{
							"internalType": "address",
							"name": "",
							"type": "address"
						},
						{
							"internalType": "string",
							"name": "",
							"type": "string"
						}
					],
					"name": "_balance",
					"outputs": [
						{
							"internalType": "uint256",
							"name": "",
							"type": "uint256"
						}
					],
					"stateMutability": "view",
					"type": "function"
				},
				{
					"inputs": [],
					"name": "balance",
					"outputs": [
						{
							"internalType": "uint256",
							"name": "",
							"type": "uint256"
						}
					],
					"stateMutability": "view",
					"type": "function"
				},
				{
					"inputs": [
						{
							"internalType": "uint256",
							"name": "amount",
							"type": "uint256"
						}
					],
					"name": "depositStake",
					"outputs": [],
					"stateMutability": "nonpayable",
					"type": "function"
				},
				{
					"inputs": [],
					"name": "duration",
					"outputs": [
						{
							"internalType": "uint256",
							"name": "",
							"type": "uint256"
						}
					],
					"stateMutability": "view",
					"type": "function"
				},
				{
					"inputs": [],
					"name": "finishAt",
					"outputs": [
						{
							"internalType": "uint256",
							"name": "",
							"type": "uint256"
						}
					],
					"stateMutability": "view",
					"type": "function"
				},
				{
					"inputs": [],
					"name": "getDuration",
					"outputs": [
						{
							"internalType": "uint256",
							"name": "",
							"type": "uint256"
						}
					],
					"stateMutability": "view",
					"type": "function"
				},
				{
					"inputs": [],
					"name": "rate",
					"outputs": [
						{
							"internalType": "uint256",
							"name": "",
							"type": "uint256"
						}
					],
					"stateMutability": "view",
					"type": "function"
				},
				{
					"inputs": [],
					"name": "rewardsToken",
					"outputs": [
						{
							"internalType": "contract IERC20",
							"name": "",
							"type": "address"
						}
					],
					"stateMutability": "view",
					"type": "function"
				},
				{
					"inputs": [
						{
							"internalType": "uint256",
							"name": "_duration",
							"type": "uint256"
						}
					],
					"name": "setDuration",
					"outputs": [],
					"stateMutability": "nonpayable",
					"type": "function"
				},
				{
					"inputs": [
						{
							"internalType": "uint256",
							"name": "_rate",
							"type": "uint256"
						}
					],
					"name": "setRewardRate",
					"outputs": [],
					"stateMutability": "nonpayable",
					"type": "function"
				},
				{
					"inputs": [],
					"name": "stakingToken",
					"outputs": [
						{
							"internalType": "contract IERC20",
							"name": "",
							"type": "address"
						}
					],
					"stateMutability": "view",
					"type": "function"
				},
				{
					"inputs": [],
					"name": "totalStake",
					"outputs": [
						{
							"internalType": "uint256",
							"name": "",
							"type": "uint256"
						}
					],
					"stateMutability": "view",
					"type": "function"
				},
				{
					"inputs": [],
					"name": "totalStakeRewards",
					"outputs": [
						{
							"internalType": "uint256",
							"name": "",
							"type": "uint256"
						}
					],
					"stateMutability": "view",
					"type": "function"
				},
				{
					"inputs": [],
					"name": "updatedAt",
					"outputs": [
						{
							"internalType": "uint256",
							"name": "",
							"type": "uint256"
						}
					],
					"stateMutability": "view",
					"type": "function"
				},
				{
					"inputs": [
						{
							"internalType": "uint256",
							"name": "_amount",
							"type": "uint256"
						}
					],
					"name": "withdrawReward",
					"outputs": [],
					"stateMutability": "nonpayable",
					"type": "function"
				}
			],
			"devdoc": {
				"kind": "dev",
				"methods": {},
				"version": 1
			},
			"evm": {
				"assembly": "    /* \"contracts/staking.sol\":617:3370  contract Staking{... */\n  mstore(0x40, 0x80)\n    /* \"contracts/staking.sol\":1193:1345  constructor(address _stakeToken, address _rewardsToken){... */\n  callvalue\n  dup1\n  iszero\n  tag_1\n  jumpi\n  0x00\n  dup1\n  revert\ntag_1:\n  pop\n  mload(0x40)\n  sub(codesize, bytecodeSize)\n  dup1\n  bytecodeSize\n  dup4\n  codecopy\n  dup2\n  dup2\n  add\n  0x40\n  mstore\n  dup2\n  add\n  swap1\n  tag_2\n  swap2\n  swap1\n  tag_3\n  jump\t// in\ntag_2:\n    /* \"contracts/staking.sol\":1280:1291  _stakeToken */\n  dup2\n    /* \"contracts/staking.sol\":1258:1270  stakingToken */\n  0x00\n  dup1\n    /* \"contracts/staking.sol\":1258:1292  stakingToken = IERC20(_stakeToken) */\n  0x0100\n  exp\n  dup2\n  sload\n  dup2\n  0xffffffffffffffffffffffffffffffffffffffff\n  mul\n  not\n  and\n  swap1\n  dup4\n  0xffffffffffffffffffffffffffffffffffffffff\n  and\n  mul\n  or\n  swap1\n  sstore\n  pop\n    /* \"contracts/staking.sol\":1324:1337  _rewardsToken */\n  dup1\n    /* \"contracts/staking.sol\":1302:1314  rewardsToken */\n  0x01\n  0x00\n    /* \"contracts/staking.sol\":1302:1338  rewardsToken = IERC20(_rewardsToken) */\n  0x0100\n  exp\n  dup2\n  sload\n  dup2\n  0xffffffffffffffffffffffffffffffffffffffff\n  mul\n  not\n  and\n  swap1\n  dup4\n  0xffffffffffffffffffffffffffffffffffffffff\n  and\n  mul\n  or\n  swap1\n  sstore\n  pop\n    /* \"contracts/staking.sol\":1193:1345  constructor(address _stakeToken, address _rewardsToken){... */\n  pop\n  pop\n    /* \"contracts/staking.sol\":617:3370  contract Staking{... */\n  jump(tag_6)\n    /* \"#utility.yul\":88:205   */\ntag_8:\n    /* \"#utility.yul\":197:198   */\n  0x00\n    /* \"#utility.yul\":194:195   */\n  dup1\n    /* \"#utility.yul\":187:199   */\n  revert\n    /* \"#utility.yul\":334:460   */\ntag_10:\n    /* \"#utility.yul\":371:378   */\n  0x00\n    /* \"#utility.yul\":411:453   */\n  0xffffffffffffffffffffffffffffffffffffffff\n    /* \"#utility.yul\":404:409   */\n  dup3\n    /* \"#utility.yul\":400:454   */\n  and\n    /* \"#utility.yul\":389:454   */\n  swap1\n  pop\n    /* \"#utility.yul\":334:460   */\n  swap2\n  swap1\n  pop\n  jump\t// out\n    /* \"#utility.yul\":466:562   */\ntag_11:\n    /* \"#utility.yul\":503:510   */\n  0x00\n    /* \"#utility.yul\":532:556   */\n  tag_20\n    /* \"#utility.yul\":550:555   */\n  dup3\n    /* \"#utility.yul\":532:556   */\n  tag_10\n  jump\t// in\ntag_20:\n    /* \"#utility.yul\":521:556   */\n  swap1\n  pop\n    /* \"#utility.yul\":466:562   */\n  swap2\n  swap1\n  pop\n  jump\t// out\n    /* \"#utility.yul\":568:690   */\ntag_12:\n    /* \"#utility.yul\":641:665   */\n  tag_22\n    /* \"#utility.yul\":659:664   */\n  dup2\n    /* \"#utility.yul\":641:665   */\n  tag_11\n  jump\t// in\ntag_22:\n    /* \"#utility.yul\":634:639   */\n  dup2\n    /* \"#utility.yul\":631:666   */\n  eq\n    /* \"#utility.yul\":621:684   */\n  tag_23\n  jumpi\n    /* \"#utility.yul\":680:681   */\n  0x00\n    /* \"#utility.yul\":677:678   */\n  dup1\n    /* \"#utility.yul\":670:682   */\n  revert\n    /* \"#utility.yul\":621:684   */\ntag_23:\n    /* \"#utility.yul\":568:690   */\n  pop\n  jump\t// out\n    /* \"#utility.yul\":696:839   */\ntag_13:\n    /* \"#utility.yul\":753:758   */\n  0x00\n    /* \"#utility.yul\":784:790   */\n  dup2\n    /* \"#utility.yul\":778:791   */\n  mload\n    /* \"#utility.yul\":769:791   */\n  swap1\n  pop\n    /* \"#utility.yul\":800:833   */\n  tag_25\n    /* \"#utility.yul\":827:832   */\n  dup2\n    /* \"#utility.yul\":800:833   */\n  tag_12\n  jump\t// in\ntag_25:\n    /* \"#utility.yul\":696:839   */\n  swap3\n  swap2\n  pop\n  pop\n  jump\t// out\n    /* \"#utility.yul\":845:1352   */\ntag_3:\n    /* \"#utility.yul\":924:930   */\n  0x00\n    /* \"#utility.yul\":932:938   */\n  dup1\n    /* \"#utility.yul\":981:983   */\n  0x40\n    /* \"#utility.yul\":969:978   */\n  dup4\n    /* \"#utility.yul\":960:967   */\n  dup6\n    /* \"#utility.yul\":956:979   */\n  sub\n    /* \"#utility.yul\":952:984   */\n  slt\n    /* \"#utility.yul\":949:1068   */\n  iszero\n  tag_27\n  jumpi\n    /* \"#utility.yul\":987:1066   */\n  tag_28\n  tag_8\n  jump\t// in\ntag_28:\n    /* \"#utility.yul\":949:1068   */\ntag_27:\n    /* \"#utility.yul\":1107:1108   */\n  0x00\n    /* \"#utility.yul\":1132:1196   */\n  tag_29\n    /* \"#utility.yul\":1188:1195   */\n  dup6\n    /* \"#utility.yul\":1179:1185   */\n  dup3\n    /* \"#utility.yul\":1168:1177   */\n  dup7\n    /* \"#utility.yul\":1164:1186   */\n  add\n    /* \"#utility.yul\":1132:1196   */\n  tag_13\n  jump\t// in\ntag_29:\n    /* \"#utility.yul\":1122:1196   */\n  swap3\n  pop\n    /* \"#utility.yul\":1078:1206   */\n  pop\n    /* \"#utility.yul\":1245:1247   */\n  0x20\n    /* \"#utility.yul\":1271:1335   */\n  tag_30\n    /* \"#utility.yul\":1327:1334   */\n  dup6\n    /* \"#utility.yul\":1318:1324   */\n  dup3\n    /* \"#utility.yul\":1307:1316   */\n  dup7\n    /* \"#utility.yul\":1303:1325   */\n  add\n    /* \"#utility.yul\":1271:1335   */\n  tag_13\n  jump\t// in\ntag_30:\n    /* \"#utility.yul\":1261:1335   */\n  swap2\n  pop\n    /* \"#utility.yul\":1216:1345   */\n  pop\n    /* \"#utility.yul\":845:1352   */\n  swap3\n  pop\n  swap3\n  swap1\n  pop\n  jump\t// out\n    /* \"contracts/staking.sol\":617:3370  contract Staking{... */\ntag_6:\n  dataSize(sub_0)\n  dup1\n  dataOffset(sub_0)\n  0x00\n  codecopy\n  0x00\n  return\nstop\n\nsub_0: assembly {\n        /* \"contracts/staking.sol\":617:3370  contract Staking{... */\n      mstore(0x40, 0x80)\n      callvalue\n      dup1\n      iszero\n      tag_1\n      jumpi\n      0x00\n      dup1\n      revert\n    tag_1:\n      pop\n      jumpi(tag_2, lt(calldatasize, 0x04))\n      shr(0xe0, calldataload(0x00))\n      dup1\n      0x7519ab50\n      gt\n      tag_18\n      jumpi\n      dup1\n      0xb69ef8a8\n      gt\n      tag_19\n      jumpi\n      dup1\n      0xb69ef8a8\n      eq\n      tag_14\n      jumpi\n      dup1\n      0xcb82cc8f\n      eq\n      tag_15\n      jumpi\n      dup1\n      0xd1af0c7d\n      eq\n      tag_16\n      jumpi\n      dup1\n      0xf6be71d1\n      eq\n      tag_17\n      jumpi\n      jump(tag_2)\n    tag_19:\n      dup1\n      0x7519ab50\n      eq\n      tag_10\n      jumpi\n      dup1\n      0x8b0e9f3f\n      eq\n      tag_11\n      jumpi\n      dup1\n      0x9e447fc6\n      eq\n      tag_12\n      jumpi\n      dup1\n      0xad2e8c9b\n      eq\n      tag_13\n      jumpi\n      jump(tag_2)\n    tag_18:\n      dup1\n      0x50d56aba\n      gt\n      tag_20\n      jumpi\n      dup1\n      0x50d56aba\n      eq\n      tag_6\n      jumpi\n      dup1\n      0x523a3f08\n      eq\n      tag_7\n      jumpi\n      dup1\n      0x67d3b488\n      eq\n      tag_8\n      jumpi\n      dup1\n      0x72f702f3\n      eq\n      tag_9\n      jumpi\n      jump(tag_2)\n    tag_20:\n      dup1\n      0x0fb5a6b4\n      eq\n      tag_3\n      jumpi\n      dup1\n      0x2c4e722e\n      eq\n      tag_4\n      jumpi\n      dup1\n      0x327bcac5\n      eq\n      tag_5\n      jumpi\n    tag_2:\n      0x00\n      dup1\n      revert\n        /* \"contracts/staking.sol\":833:853  uint public duration */\n    tag_3:\n      tag_21\n      tag_22\n      jump\t// in\n    tag_21:\n      mload(0x40)\n      tag_23\n      swap2\n      swap1\n      tag_24\n      jump\t// in\n    tag_23:\n      mload(0x40)\n      dup1\n      swap2\n      sub\n      swap1\n      return\n        /* \"contracts/staking.sol\":931:947  uint public rate */\n    tag_4:\n      tag_25\n      tag_26\n      jump\t// in\n    tag_25:\n      mload(0x40)\n      tag_27\n      swap2\n      swap1\n      tag_24\n      jump\t// in\n    tag_27:\n      mload(0x40)\n      dup1\n      swap2\n      sub\n      swap1\n      return\n        /* \"contracts/staking.sol\":793:822  uint public totalStakeRewards */\n    tag_5:\n      tag_28\n      tag_29\n      jump\t// in\n    tag_28:\n      mload(0x40)\n      tag_30\n      swap2\n      swap1\n      tag_24\n      jump\t// in\n    tag_30:\n      mload(0x40)\n      dup1\n      swap2\n      sub\n      swap1\n      return\n        /* \"contracts/staking.sol\":967:1030  mapping (address => mapping(string => uint256)) public _balance */\n    tag_6:\n      tag_31\n      0x04\n      dup1\n      calldatasize\n      sub\n      dup2\n      add\n      swap1\n      tag_32\n      swap2\n      swap1\n      tag_33\n      jump\t// in\n    tag_32:\n      tag_34\n      jump\t// in\n    tag_31:\n      mload(0x40)\n      tag_35\n      swap2\n      swap1\n      tag_24\n      jump\t// in\n    tag_35:\n      mload(0x40)\n      dup1\n      swap2\n      sub\n      swap1\n      return\n        /* \"contracts/staking.sol\":2890:3361  function withdrawReward(uint256 _amount) external{... */\n    tag_7:\n      tag_36\n      0x04\n      dup1\n      calldatasize\n      sub\n      dup2\n      add\n      swap1\n      tag_37\n      swap2\n      swap1\n      tag_38\n      jump\t// in\n    tag_37:\n      tag_39\n      jump\t// in\n    tag_36:\n      stop\n        /* \"contracts/staking.sol\":877:897  uint public finishAt */\n    tag_8:\n      tag_40\n      tag_41\n      jump\t// in\n    tag_40:\n      mload(0x40)\n      tag_42\n      swap2\n      swap1\n      tag_24\n      jump\t// in\n    tag_42:\n      mload(0x40)\n      dup1\n      swap2\n      sub\n      swap1\n      return\n        /* \"contracts/staking.sol\":700:726  IERC20 public stakingToken */\n    tag_9:\n      tag_43\n      tag_44\n      jump\t// in\n    tag_43:\n      mload(0x40)\n      tag_45\n      swap2\n      swap1\n      tag_46\n      jump\t// in\n    tag_45:\n      mload(0x40)\n      dup1\n      swap2\n      sub\n      swap1\n      return\n        /* \"contracts/staking.sol\":903:924  uint public updatedAt */\n    tag_10:\n      tag_47\n      tag_48\n      jump\t// in\n    tag_47:\n      mload(0x40)\n      tag_49\n      swap2\n      swap1\n      tag_24\n      jump\t// in\n    tag_49:\n      mload(0x40)\n      dup1\n      swap2\n      sub\n      swap1\n      return\n        /* \"contracts/staking.sol\":765:787  uint public totalStake */\n    tag_11:\n      tag_50\n      tag_51\n      jump\t// in\n    tag_50:\n      mload(0x40)\n      tag_52\n      swap2\n      swap1\n      tag_24\n      jump\t// in\n    tag_52:\n      mload(0x40)\n      dup1\n      swap2\n      sub\n      swap1\n      return\n        /* \"contracts/staking.sol\":2468:2618  function setRewardRate(uint256 _rate) external{... */\n    tag_12:\n      tag_53\n      0x04\n      dup1\n      calldatasize\n      sub\n      dup2\n      add\n      swap1\n      tag_54\n      swap2\n      swap1\n      tag_38\n      jump\t// in\n    tag_54:\n      tag_55\n      jump\t// in\n    tag_53:\n      stop\n        /* \"contracts/staking.sol\":2377:2462  function getDuration() view external returns(uint256){... */\n    tag_13:\n      tag_56\n      tag_57\n      jump\t// in\n    tag_56:\n      mload(0x40)\n      tag_58\n      swap2\n      swap1\n      tag_24\n      jump\t// in\n    tag_58:\n      mload(0x40)\n      dup1\n      swap2\n      sub\n      swap1\n      return\n        /* \"contracts/staking.sol\":2000:2104  function balance() external view returns (uint256){... */\n    tag_14:\n      tag_59\n      tag_60\n      jump\t// in\n    tag_59:\n      mload(0x40)\n      tag_61\n      swap2\n      swap1\n      tag_24\n      jump\t// in\n    tag_61:\n      mload(0x40)\n      dup1\n      swap2\n      sub\n      swap1\n      return\n        /* \"contracts/staking.sol\":1351:1995  function depositStake (uint amount) external {... */\n    tag_15:\n      tag_62\n      0x04\n      dup1\n      calldatasize\n      sub\n      dup2\n      add\n      swap1\n      tag_63\n      swap2\n      swap1\n      tag_38\n      jump\t// in\n    tag_63:\n      tag_64\n      jump\t// in\n    tag_62:\n      stop\n        /* \"contracts/staking.sol\":732:758  IERC20 public rewardsToken */\n    tag_16:\n      tag_65\n      tag_66\n      jump\t// in\n    tag_65:\n      mload(0x40)\n      tag_67\n      swap2\n      swap1\n      tag_46\n      jump\t// in\n    tag_67:\n      mload(0x40)\n      dup1\n      swap2\n      sub\n      swap1\n      return\n        /* \"contracts/staking.sol\":2110:2371  function setDuration(uint256 _duration) external{... */\n    tag_17:\n      tag_68\n      0x04\n      dup1\n      calldatasize\n      sub\n      dup2\n      add\n      swap1\n      tag_69\n      swap2\n      swap1\n      tag_38\n      jump\t// in\n    tag_69:\n      tag_70\n      jump\t// in\n    tag_68:\n      stop\n        /* \"contracts/staking.sol\":833:853  uint public duration */\n    tag_22:\n      sload(0x04)\n      dup2\n      jump\t// out\n        /* \"contracts/staking.sol\":931:947  uint public rate */\n    tag_26:\n      sload(0x07)\n      dup2\n      jump\t// out\n        /* \"contracts/staking.sol\":793:822  uint public totalStakeRewards */\n    tag_29:\n      sload(0x03)\n      dup2\n      jump\t// out\n        /* \"contracts/staking.sol\":967:1030  mapping (address => mapping(string => uint256)) public _balance */\n    tag_34:\n      mstore(0x20, 0x08)\n      dup2\n      0x00\n      mstore\n      keccak256(0x00, 0x40)\n      dup2\n      dup1\n      mload\n      0x20\n      dup2\n      add\n      dup3\n      add\n      dup1\n      mload\n      dup5\n      dup3\n      mstore\n      0x20\n      dup4\n      add\n      0x20\n      dup6\n      add\n      keccak256\n      dup2\n      dup4\n      mstore\n      dup1\n      swap6\n      pop\n      pop\n      pop\n      pop\n      pop\n      pop\n      0x00\n      swap2\n      pop\n      swap2\n      pop\n      pop\n      sload\n      dup2\n      jump\t// out\n        /* \"contracts/staking.sol\":2890:3361  function withdrawReward(uint256 _amount) external{... */\n    tag_39:\n        /* \"contracts/staking.sol\":3023:3024  0 */\n      0x00\n        /* \"contracts/staking.sol\":2993:3008  accBeforeUpdate */\n      0x0a\n        /* \"contracts/staking.sol\":2993:3020  accBeforeUpdate[msg.sender] */\n      0x00\n        /* \"contracts/staking.sol\":3009:3019  msg.sender */\n      caller\n        /* \"contracts/staking.sol\":2993:3020  accBeforeUpdate[msg.sender] */\n      0xffffffffffffffffffffffffffffffffffffffff\n      and\n      0xffffffffffffffffffffffffffffffffffffffff\n      and\n      dup2\n      mstore\n      0x20\n      add\n      swap1\n      dup2\n      mstore\n      0x20\n      add\n      0x00\n      keccak256\n      sload\n        /* \"contracts/staking.sol\":2982:2990  earned() */\n      tag_72\n        /* \"contracts/staking.sol\":2982:2988  earned */\n      tag_73\n        /* \"contracts/staking.sol\":2982:2990  earned() */\n      jump\t// in\n    tag_72:\n        /* \"contracts/staking.sol\":2982:3020  earned() + accBeforeUpdate[msg.sender] */\n      tag_74\n      swap2\n      swap1\n      tag_75\n      jump\t// in\n    tag_74:\n        /* \"contracts/staking.sol\":2982:3024  earned() + accBeforeUpdate[msg.sender] > 0 */\n      gt\n        /* \"contracts/staking.sol\":2982:3039  earned() + accBeforeUpdate[msg.sender] > 0 && _amount > 0 */\n      dup1\n      iszero\n      tag_76\n      jumpi\n      pop\n        /* \"contracts/staking.sol\":3038:3039  0 */\n      0x00\n        /* \"contracts/staking.sol\":3028:3035  _amount */\n      dup2\n        /* \"contracts/staking.sol\":3028:3039  _amount > 0 */\n      gt\n        /* \"contracts/staking.sol\":2982:3039  earned() + accBeforeUpdate[msg.sender] > 0 && _amount > 0 */\n    tag_76:\n        /* \"contracts/staking.sol\":2974:3075  require(earned() + accBeforeUpdate[msg.sender] > 0 && _amount > 0, \"You have not earned any rewards\") */\n      tag_77\n      jumpi\n      mload(0x40)\n      0x08c379a000000000000000000000000000000000000000000000000000000000\n      dup2\n      mstore\n      0x04\n      add\n      tag_78\n      swap1\n      tag_79\n      jump\t// in\n    tag_78:\n      mload(0x40)\n      dup1\n      swap2\n      sub\n      swap1\n      revert\n    tag_77:\n        /* \"contracts/staking.sol\":3167:3174  _amount */\n      dup1\n        /* \"contracts/staking.sol\":3133:3152  _rewardsWithdrawals */\n      0x09\n        /* \"contracts/staking.sol\":3133:3164  _rewardsWithdrawals[msg.sender] */\n      0x00\n        /* \"contracts/staking.sol\":3153:3163  msg.sender */\n      caller\n        /* \"contracts/staking.sol\":3133:3164  _rewardsWithdrawals[msg.sender] */\n      0xffffffffffffffffffffffffffffffffffffffff\n      and\n      0xffffffffffffffffffffffffffffffffffffffff\n      and\n      dup2\n      mstore\n      0x20\n      add\n      swap1\n      dup2\n      mstore\n      0x20\n      add\n      0x00\n      keccak256\n      sload\n        /* \"contracts/staking.sol\":3103:3118  accBeforeUpdate */\n      0x0a\n        /* \"contracts/staking.sol\":3103:3130  accBeforeUpdate[msg.sender] */\n      0x00\n        /* \"contracts/staking.sol\":3119:3129  msg.sender */\n      caller\n        /* \"contracts/staking.sol\":3103:3130  accBeforeUpdate[msg.sender] */\n      0xffffffffffffffffffffffffffffffffffffffff\n      and\n      0xffffffffffffffffffffffffffffffffffffffff\n      and\n      dup2\n      mstore\n      0x20\n      add\n      swap1\n      dup2\n      mstore\n      0x20\n      add\n      0x00\n      keccak256\n      sload\n        /* \"contracts/staking.sol\":3093:3101  earned() */\n      tag_80\n        /* \"contracts/staking.sol\":3093:3099  earned */\n      tag_73\n        /* \"contracts/staking.sol\":3093:3101  earned() */\n      jump\t// in\n    tag_80:\n        /* \"contracts/staking.sol\":3093:3130  earned() +accBeforeUpdate[msg.sender] */\n      tag_81\n      swap2\n      swap1\n      tag_75\n      jump\t// in\n    tag_81:\n        /* \"contracts/staking.sol\":3093:3164  earned() +accBeforeUpdate[msg.sender] - _rewardsWithdrawals[msg.sender] */\n      tag_82\n      swap2\n      swap1\n      tag_83\n      jump\t// in\n    tag_82:\n        /* \"contracts/staking.sol\":3093:3174  earned() +accBeforeUpdate[msg.sender] - _rewardsWithdrawals[msg.sender] < _amount */\n      lt\n        /* \"contracts/staking.sol\":3085:3212  require(earned() +accBeforeUpdate[msg.sender] - _rewardsWithdrawals[msg.sender] < _amount, \"You don't have enough to withdraw\") */\n      tag_84\n      jumpi\n      mload(0x40)\n      0x08c379a000000000000000000000000000000000000000000000000000000000\n      dup2\n      mstore\n      0x04\n      add\n      tag_85\n      swap1\n      tag_86\n      jump\t// in\n    tag_85:\n      mload(0x40)\n      dup1\n      swap2\n      sub\n      swap1\n      revert\n    tag_84:\n        /* \"contracts/staking.sol\":3230:3242  rewardsToken */\n      0x01\n      0x00\n      swap1\n      sload\n      swap1\n      0x0100\n      exp\n      swap1\n      div\n      0xffffffffffffffffffffffffffffffffffffffff\n      and\n        /* \"contracts/staking.sol\":3230:3251  rewardsToken.transfer */\n      0xffffffffffffffffffffffffffffffffffffffff\n      and\n      0xa9059cbb\n        /* \"contracts/staking.sol\":3252:3262  msg.sender */\n      caller\n        /* \"contracts/staking.sol\":3264:3271  _amount */\n      dup4\n        /* \"contracts/staking.sol\":3230:3272  rewardsToken.transfer(msg.sender, _amount) */\n      mload(0x40)\n      dup4\n      0xffffffff\n      and\n      0xe0\n      shl\n      dup2\n      mstore\n      0x04\n      add\n      tag_87\n      swap3\n      swap2\n      swap1\n      tag_88\n      jump\t// in\n    tag_87:\n      0x20\n      mload(0x40)\n      dup1\n      dup4\n      sub\n      dup2\n      0x00\n      dup8\n      gas\n      call\n      iszero\n      dup1\n      iszero\n      tag_90\n      jumpi\n      returndatasize\n      0x00\n      dup1\n      returndatacopy\n      revert(0x00, returndatasize)\n    tag_90:\n      pop\n      pop\n      pop\n      pop\n      mload(0x40)\n      returndatasize\n      not(0x1f)\n      0x1f\n      dup3\n      add\n      and\n      dup3\n      add\n      dup1\n      0x40\n      mstore\n      pop\n      dup2\n      add\n      swap1\n      tag_91\n      swap2\n      swap1\n      tag_92\n      jump\t// in\n    tag_91:\n        /* \"contracts/staking.sol\":3222:3302  require(rewardsToken.transfer(msg.sender, _amount), \"Failed to transfer tokens\") */\n      tag_93\n      jumpi\n      mload(0x40)\n      0x08c379a000000000000000000000000000000000000000000000000000000000\n      dup2\n      mstore\n      0x04\n      add\n      tag_94\n      swap1\n      tag_95\n      jump\t// in\n    tag_94:\n      mload(0x40)\n      dup1\n      swap2\n      sub\n      swap1\n      revert\n    tag_93:\n        /* \"contracts/staking.sol\":3347:3354  _amount */\n      dup1\n        /* \"contracts/staking.sol\":3312:3331  _rewardsWithdrawals */\n      0x09\n        /* \"contracts/staking.sol\":3312:3343  _rewardsWithdrawals[msg.sender] */\n      0x00\n        /* \"contracts/staking.sol\":3332:3342  msg.sender */\n      caller\n        /* \"contracts/staking.sol\":3312:3343  _rewardsWithdrawals[msg.sender] */\n      0xffffffffffffffffffffffffffffffffffffffff\n      and\n      0xffffffffffffffffffffffffffffffffffffffff\n      and\n      dup2\n      mstore\n      0x20\n      add\n      swap1\n      dup2\n      mstore\n      0x20\n      add\n      0x00\n      keccak256\n      0x00\n        /* \"contracts/staking.sol\":3312:3354  _rewardsWithdrawals[msg.sender] += _amount */\n      dup3\n      dup3\n      sload\n      tag_96\n      swap2\n      swap1\n      tag_75\n      jump\t// in\n    tag_96:\n      swap3\n      pop\n      pop\n      dup2\n      swap1\n      sstore\n      pop\n        /* \"contracts/staking.sol\":2890:3361  function withdrawReward(uint256 _amount) external{... */\n      pop\n      jump\t// out\n        /* \"contracts/staking.sol\":877:897  uint public finishAt */\n    tag_41:\n      sload(0x05)\n      dup2\n      jump\t// out\n        /* \"contracts/staking.sol\":700:726  IERC20 public stakingToken */\n    tag_44:\n      0x00\n      dup1\n      sload\n      swap1\n      0x0100\n      exp\n      swap1\n      div\n      0xffffffffffffffffffffffffffffffffffffffff\n      and\n      dup2\n      jump\t// out\n        /* \"contracts/staking.sol\":903:924  uint public updatedAt */\n    tag_48:\n      sload(0x06)\n      dup2\n      jump\t// out\n        /* \"contracts/staking.sol\":765:787  uint public totalStake */\n    tag_51:\n      sload(0x02)\n      dup2\n      jump\t// out\n        /* \"contracts/staking.sol\":2468:2618  function setRewardRate(uint256 _rate) external{... */\n    tag_55:\n        /* \"contracts/staking.sol\":2543:2558  block.timestamp */\n      timestamp\n        /* \"contracts/staking.sol\":2532:2540  finishAt */\n      sload(0x05)\n        /* \"contracts/staking.sol\":2532:2558  finishAt < block.timestamp */\n      lt\n        /* \"contracts/staking.sol\":2524:2588  require(finishAt < block.timestamp, \"Staking still in progress\") */\n      tag_98\n      jumpi\n      mload(0x40)\n      0x08c379a000000000000000000000000000000000000000000000000000000000\n      dup2\n      mstore\n      0x04\n      add\n      tag_99\n      swap1\n      tag_100\n      jump\t// in\n    tag_99:\n      mload(0x40)\n      dup1\n      swap2\n      sub\n      swap1\n      revert\n    tag_98:\n        /* \"contracts/staking.sol\":2606:2611  _rate */\n      dup1\n        /* \"contracts/staking.sol\":2599:2603  rate */\n      0x07\n        /* \"contracts/staking.sol\":2599:2611  rate = _rate */\n      dup2\n      swap1\n      sstore\n      pop\n        /* \"contracts/staking.sol\":2468:2618  function setRewardRate(uint256 _rate) external{... */\n      pop\n      jump\t// out\n        /* \"contracts/staking.sol\":2377:2462  function getDuration() view external returns(uint256){... */\n    tag_57:\n        /* \"contracts/staking.sol\":2422:2429  uint256 */\n      0x00\n        /* \"contracts/staking.sol\":2447:2455  duration */\n      sload(0x04)\n        /* \"contracts/staking.sol\":2440:2455  return duration */\n      swap1\n      pop\n        /* \"contracts/staking.sol\":2377:2462  function getDuration() view external returns(uint256){... */\n      swap1\n      jump\t// out\n        /* \"contracts/staking.sol\":2000:2104  function balance() external view returns (uint256){... */\n    tag_60:\n        /* \"contracts/staking.sol\":2042:2049  uint256 */\n      0x00\n        /* \"contracts/staking.sol\":2067:2075  _balance */\n      0x08\n        /* \"contracts/staking.sol\":2067:2087  _balance[msg.sender] */\n      0x00\n        /* \"contracts/staking.sol\":2076:2086  msg.sender */\n      caller\n        /* \"contracts/staking.sol\":2067:2087  _balance[msg.sender] */\n      0xffffffffffffffffffffffffffffffffffffffff\n      and\n      0xffffffffffffffffffffffffffffffffffffffff\n      and\n      dup2\n      mstore\n      0x20\n      add\n      swap1\n      dup2\n      mstore\n      0x20\n      add\n      0x00\n      keccak256\n        /* \"contracts/staking.sol\":2067:2097  _balance[msg.sender][\"amount\"] */\n      mload(0x40)\n      tag_103\n      swap1\n      tag_104\n      jump\t// in\n    tag_103:\n      swap1\n      dup2\n      mstore\n      0x20\n      add\n      mload(0x40)\n      dup1\n      swap2\n      sub\n      swap1\n      keccak256\n      sload\n        /* \"contracts/staking.sol\":2060:2097  return _balance[msg.sender][\"amount\"] */\n      swap1\n      pop\n        /* \"contracts/staking.sol\":2000:2104  function balance() external view returns (uint256){... */\n      swap1\n      jump\t// out\n        /* \"contracts/staking.sol\":1351:1995  function depositStake (uint amount) external {... */\n    tag_64:\n        /* \"contracts/staking.sol\":1452:1458  amount */\n      dup1\n        /* \"contracts/staking.sol\":1414:1426  stakingToken */\n      0x00\n      dup1\n      sload\n      swap1\n      0x0100\n      exp\n      swap1\n      div\n      0xffffffffffffffffffffffffffffffffffffffff\n      and\n        /* \"contracts/staking.sol\":1414:1436  stakingToken.balanceOf */\n      0xffffffffffffffffffffffffffffffffffffffff\n      and\n      0x70a08231\n        /* \"contracts/staking.sol\":1437:1447  msg.sender */\n      caller\n        /* \"contracts/staking.sol\":1414:1448  stakingToken.balanceOf(msg.sender) */\n      mload(0x40)\n      dup3\n      0xffffffff\n      and\n      0xe0\n      shl\n      dup2\n      mstore\n      0x04\n      add\n      tag_106\n      swap2\n      swap1\n      tag_107\n      jump\t// in\n    tag_106:\n      0x20\n      mload(0x40)\n      dup1\n      dup4\n      sub\n      dup2\n      dup7\n      gas\n      staticcall\n      iszero\n      dup1\n      iszero\n      tag_109\n      jumpi\n      returndatasize\n      0x00\n      dup1\n      returndatacopy\n      revert(0x00, returndatasize)\n    tag_109:\n      pop\n      pop\n      pop\n      pop\n      mload(0x40)\n      returndatasize\n      not(0x1f)\n      0x1f\n      dup3\n      add\n      and\n      dup3\n      add\n      dup1\n      0x40\n      mstore\n      pop\n      dup2\n      add\n      swap1\n      tag_110\n      swap2\n      swap1\n      tag_111\n      jump\t// in\n    tag_110:\n        /* \"contracts/staking.sol\":1414:1458  stakingToken.balanceOf(msg.sender) >= amount */\n      lt\n      iszero\n        /* \"contracts/staking.sol\":1406:1490  require(stakingToken.balanceOf(msg.sender) >= amount, \"Not enough tokens for stake\") */\n      tag_112\n      jumpi\n      mload(0x40)\n      0x08c379a000000000000000000000000000000000000000000000000000000000\n      dup2\n      mstore\n      0x04\n      add\n      tag_113\n      swap1\n      tag_114\n      jump\t// in\n    tag_113:\n      mload(0x40)\n      dup1\n      swap2\n      sub\n      swap1\n      revert\n    tag_112:\n        /* \"contracts/staking.sol\":1508:1520  stakingToken */\n      0x00\n      dup1\n      sload\n      swap1\n      0x0100\n      exp\n      swap1\n      div\n      0xffffffffffffffffffffffffffffffffffffffff\n      and\n        /* \"contracts/staking.sol\":1508:1533  stakingToken.transferFrom */\n      0xffffffffffffffffffffffffffffffffffffffff\n      and\n      0x23b872dd\n        /* \"contracts/staking.sol\":1534:1544  msg.sender */\n      caller\n        /* \"contracts/staking.sol\":1554:1558  this */\n      address\n        /* \"contracts/staking.sol\":1561:1567  amount */\n      dup5\n        /* \"contracts/staking.sol\":1508:1568  stakingToken.transferFrom(msg.sender, address(this), amount) */\n      mload(0x40)\n      dup5\n      0xffffffff\n      and\n      0xe0\n      shl\n      dup2\n      mstore\n      0x04\n      add\n      tag_115\n      swap4\n      swap3\n      swap2\n      swap1\n      tag_116\n      jump\t// in\n    tag_115:\n      0x20\n      mload(0x40)\n      dup1\n      dup4\n      sub\n      dup2\n      0x00\n      dup8\n      gas\n      call\n      iszero\n      dup1\n      iszero\n      tag_118\n      jumpi\n      returndatasize\n      0x00\n      dup1\n      returndatacopy\n      revert(0x00, returndatasize)\n    tag_118:\n      pop\n      pop\n      pop\n      pop\n      mload(0x40)\n      returndatasize\n      not(0x1f)\n      0x1f\n      dup3\n      add\n      and\n      dup3\n      add\n      dup1\n      0x40\n      mstore\n      pop\n      dup2\n      add\n      swap1\n      tag_119\n      swap2\n      swap1\n      tag_92\n      jump\t// in\n    tag_119:\n        /* \"contracts/staking.sol\":1500:1593  require(stakingToken.transferFrom(msg.sender, address(this), amount),\"Failed to stake token\") */\n      tag_120\n      jumpi\n      mload(0x40)\n      0x08c379a000000000000000000000000000000000000000000000000000000000\n      dup2\n      mstore\n      0x04\n      add\n      tag_121\n      swap1\n      tag_122\n      jump\t// in\n    tag_121:\n      mload(0x40)\n      dup1\n      swap2\n      sub\n      swap1\n      revert\n    tag_120:\n        /* \"contracts/staking.sol\":1645:1687  _balance[msg.sender][\"amount\"].add(amount) */\n      tag_123\n        /* \"contracts/staking.sol\":1680:1686  amount */\n      dup2\n        /* \"contracts/staking.sol\":1645:1653  _balance */\n      0x08\n        /* \"contracts/staking.sol\":1645:1665  _balance[msg.sender] */\n      0x00\n        /* \"contracts/staking.sol\":1654:1664  msg.sender */\n      caller\n        /* \"contracts/staking.sol\":1645:1665  _balance[msg.sender] */\n      0xffffffffffffffffffffffffffffffffffffffff\n      and\n      0xffffffffffffffffffffffffffffffffffffffff\n      and\n      dup2\n      mstore\n      0x20\n      add\n      swap1\n      dup2\n      mstore\n      0x20\n      add\n      0x00\n      keccak256\n        /* \"contracts/staking.sol\":1645:1675  _balance[msg.sender][\"amount\"] */\n      mload(0x40)\n      tag_124\n      swap1\n      tag_104\n      jump\t// in\n    tag_124:\n      swap1\n      dup2\n      mstore\n      0x20\n      add\n      mload(0x40)\n      dup1\n      swap2\n      sub\n      swap1\n      keccak256\n      sload\n        /* \"contracts/staking.sol\":1645:1679  _balance[msg.sender][\"amount\"].add */\n      tag_125\n      swap1\n        /* \"contracts/staking.sol\":1645:1687  _balance[msg.sender][\"amount\"].add(amount) */\n      swap2\n      swap1\n      0xffffffff\n      and\n      jump\t// in\n    tag_123:\n        /* \"contracts/staking.sol\":1612:1620  _balance */\n      0x08\n        /* \"contracts/staking.sol\":1612:1632  _balance[msg.sender] */\n      0x00\n        /* \"contracts/staking.sol\":1621:1631  msg.sender */\n      caller\n        /* \"contracts/staking.sol\":1612:1632  _balance[msg.sender] */\n      0xffffffffffffffffffffffffffffffffffffffff\n      and\n      0xffffffffffffffffffffffffffffffffffffffff\n      and\n      dup2\n      mstore\n      0x20\n      add\n      swap1\n      dup2\n      mstore\n      0x20\n      add\n      0x00\n      keccak256\n        /* \"contracts/staking.sol\":1612:1642  _balance[msg.sender][\"amount\"] */\n      mload(0x40)\n      tag_126\n      swap1\n      tag_104\n      jump\t// in\n    tag_126:\n      swap1\n      dup2\n      mstore\n      0x20\n      add\n      mload(0x40)\n      dup1\n      swap2\n      sub\n      swap1\n      keccak256\n        /* \"contracts/staking.sol\":1612:1687  _balance[msg.sender][\"amount\"] = _balance[msg.sender][\"amount\"].add(amount) */\n      dup2\n      swap1\n      sstore\n      pop\n        /* \"contracts/staking.sol\":1738:1739  0 */\n      0x00\n        /* \"contracts/staking.sol\":1701:1709  _balance */\n      0x08\n        /* \"contracts/staking.sol\":1701:1721  _balance[msg.sender] */\n      0x00\n        /* \"contracts/staking.sol\":1710:1720  msg.sender */\n      caller\n        /* \"contracts/staking.sol\":1701:1721  _balance[msg.sender] */\n      0xffffffffffffffffffffffffffffffffffffffff\n      and\n      0xffffffffffffffffffffffffffffffffffffffff\n      and\n      dup2\n      mstore\n      0x20\n      add\n      swap1\n      dup2\n      mstore\n      0x20\n      add\n      0x00\n      keccak256\n        /* \"contracts/staking.sol\":1701:1734  _balance[msg.sender][\"updatedAt\"] */\n      mload(0x40)\n      tag_127\n      swap1\n      tag_128\n      jump\t// in\n    tag_127:\n      swap1\n      dup2\n      mstore\n      0x20\n      add\n      mload(0x40)\n      dup1\n      swap2\n      sub\n      swap1\n      keccak256\n      sload\n        /* \"contracts/staking.sol\":1701:1739  _balance[msg.sender][\"updatedAt\"] == 0 */\n      sub\n        /* \"contracts/staking.sol\":1697:1944  if (_balance[msg.sender][\"updatedAt\"] == 0) {... */\n      tag_129\n      jumpi\n        /* \"contracts/staking.sol\":1786:1801  block.timestamp */\n      timestamp\n        /* \"contracts/staking.sol\":1751:1759  _balance */\n      0x08\n        /* \"contracts/staking.sol\":1751:1771  _balance[msg.sender] */\n      0x00\n        /* \"contracts/staking.sol\":1760:1770  msg.sender */\n      caller\n        /* \"contracts/staking.sol\":1751:1771  _balance[msg.sender] */\n      0xffffffffffffffffffffffffffffffffffffffff\n      and\n      0xffffffffffffffffffffffffffffffffffffffff\n      and\n      dup2\n      mstore\n      0x20\n      add\n      swap1\n      dup2\n      mstore\n      0x20\n      add\n      0x00\n      keccak256\n        /* \"contracts/staking.sol\":1751:1784  _balance[msg.sender][\"updatedAt\"] */\n      mload(0x40)\n      tag_130\n      swap1\n      tag_128\n      jump\t// in\n    tag_130:\n      swap1\n      dup2\n      mstore\n      0x20\n      add\n      mload(0x40)\n      dup1\n      swap2\n      sub\n      swap1\n      keccak256\n        /* \"contracts/staking.sol\":1751:1801  _balance[msg.sender][\"updatedAt\"]= block.timestamp */\n      dup2\n      swap1\n      sstore\n      pop\n        /* \"contracts/staking.sol\":1697:1944  if (_balance[msg.sender][\"updatedAt\"] == 0) {... */\n      jump(tag_131)\n    tag_129:\n        /* \"contracts/staking.sol\":1861:1869  earned() */\n      tag_132\n        /* \"contracts/staking.sol\":1861:1867  earned */\n      tag_73\n        /* \"contracts/staking.sol\":1861:1869  earned() */\n      jump\t// in\n    tag_132:\n        /* \"contracts/staking.sol\":1830:1845  accBeforeUpdate */\n      0x0a\n        /* \"contracts/staking.sol\":1830:1857  accBeforeUpdate[msg.sender] */\n      0x00\n        /* \"contracts/staking.sol\":1846:1856  msg.sender */\n      caller\n        /* \"contracts/staking.sol\":1830:1857  accBeforeUpdate[msg.sender] */\n      0xffffffffffffffffffffffffffffffffffffffff\n      and\n      0xffffffffffffffffffffffffffffffffffffffff\n      and\n      dup2\n      mstore\n      0x20\n      add\n      swap1\n      dup2\n      mstore\n      0x20\n      add\n      0x00\n      keccak256\n      0x00\n        /* \"contracts/staking.sol\":1830:1869  accBeforeUpdate[msg.sender] += earned() */\n      dup3\n      dup3\n      sload\n      tag_133\n      swap2\n      swap1\n      tag_75\n      jump\t// in\n    tag_133:\n      swap3\n      pop\n      pop\n      dup2\n      swap1\n      sstore\n      pop\n        /* \"contracts/staking.sol\":1918:1933  block.timestamp */\n      timestamp\n        /* \"contracts/staking.sol\":1883:1891  _balance */\n      0x08\n        /* \"contracts/staking.sol\":1883:1903  _balance[msg.sender] */\n      0x00\n        /* \"contracts/staking.sol\":1892:1902  msg.sender */\n      caller\n        /* \"contracts/staking.sol\":1883:1903  _balance[msg.sender] */\n      0xffffffffffffffffffffffffffffffffffffffff\n      and\n      0xffffffffffffffffffffffffffffffffffffffff\n      and\n      dup2\n      mstore\n      0x20\n      add\n      swap1\n      dup2\n      mstore\n      0x20\n      add\n      0x00\n      keccak256\n        /* \"contracts/staking.sol\":1883:1916  _balance[msg.sender][\"updatedAt\"] */\n      mload(0x40)\n      tag_134\n      swap1\n      tag_128\n      jump\t// in\n    tag_134:\n      swap1\n      dup2\n      mstore\n      0x20\n      add\n      mload(0x40)\n      dup1\n      swap2\n      sub\n      swap1\n      keccak256\n        /* \"contracts/staking.sol\":1883:1933  _balance[msg.sender][\"updatedAt\"]= block.timestamp */\n      dup2\n      swap1\n      sstore\n      pop\n        /* \"contracts/staking.sol\":1697:1944  if (_balance[msg.sender][\"updatedAt\"] == 0) {... */\n    tag_131:\n        /* \"contracts/staking.sol\":1966:1988  totalStake.add(amount) */\n      tag_135\n        /* \"contracts/staking.sol\":1981:1987  amount */\n      dup2\n        /* \"contracts/staking.sol\":1966:1976  totalStake */\n      sload(0x02)\n        /* \"contracts/staking.sol\":1966:1980  totalStake.add */\n      tag_125\n      swap1\n        /* \"contracts/staking.sol\":1966:1988  totalStake.add(amount) */\n      swap2\n      swap1\n      0xffffffff\n      and\n      jump\t// in\n    tag_135:\n        /* \"contracts/staking.sol\":1953:1963  totalStake */\n      0x02\n        /* \"contracts/staking.sol\":1953:1988  totalStake = totalStake.add(amount) */\n      dup2\n      swap1\n      sstore\n      pop\n        /* \"contracts/staking.sol\":1351:1995  function depositStake (uint amount) external {... */\n      pop\n      jump\t// out\n        /* \"contracts/staking.sol\":732:758  IERC20 public rewardsToken */\n    tag_66:\n      0x01\n      0x00\n      swap1\n      sload\n      swap1\n      0x0100\n      exp\n      swap1\n      div\n      0xffffffffffffffffffffffffffffffffffffffff\n      and\n      dup2\n      jump\t// out\n        /* \"contracts/staking.sol\":2110:2371  function setDuration(uint256 _duration) external{... */\n    tag_70:\n        /* \"contracts/staking.sol\":2187:2202  block.timestamp */\n      timestamp\n        /* \"contracts/staking.sol\":2176:2184  finishAt */\n      sload(0x05)\n        /* \"contracts/staking.sol\":2176:2202  finishAt < block.timestamp */\n      lt\n        /* \"contracts/staking.sol\":2168:2245  require(finishAt < block.timestamp, \"can't set date to a previous timestamp\") */\n      tag_137\n      jumpi\n      mload(0x40)\n      0x08c379a000000000000000000000000000000000000000000000000000000000\n      dup2\n      mstore\n      0x04\n      add\n      tag_138\n      swap1\n      tag_139\n      jump\t// in\n    tag_138:\n      mload(0x40)\n      dup1\n      swap2\n      sub\n      swap1\n      revert\n    tag_137:\n        /* \"contracts/staking.sol\":2267:2276  _duration */\n      dup1\n        /* \"contracts/staking.sol\":2256:2264  duration */\n      0x04\n        /* \"contracts/staking.sol\":2256:2276  duration = _duration */\n      dup2\n      swap1\n      sstore\n      pop\n        /* \"contracts/staking.sol\":2297:2327  _duration.add(block.timestamp) */\n      tag_140\n        /* \"contracts/staking.sol\":2311:2326  block.timestamp */\n      timestamp\n        /* \"contracts/staking.sol\":2297:2306  _duration */\n      dup3\n        /* \"contracts/staking.sol\":2297:2310  _duration.add */\n      tag_125\n      swap1\n        /* \"contracts/staking.sol\":2297:2327  _duration.add(block.timestamp) */\n      swap2\n      swap1\n      0xffffffff\n      and\n      jump\t// in\n    tag_140:\n        /* \"contracts/staking.sol\":2286:2294  finishAt */\n      0x05\n        /* \"contracts/staking.sol\":2286:2327  finishAt = _duration.add(block.timestamp) */\n      dup2\n      swap1\n      sstore\n      pop\n        /* \"contracts/staking.sol\":2349:2364  block.timestamp */\n      timestamp\n        /* \"contracts/staking.sol\":2337:2346  updatedAt */\n      0x06\n        /* \"contracts/staking.sol\":2337:2364  updatedAt = block.timestamp */\n      dup2\n      swap1\n      sstore\n      pop\n        /* \"contracts/staking.sol\":2110:2371  function setDuration(uint256 _duration) external{... */\n      pop\n      jump\t// out\n        /* \"contracts/staking.sol\":2624:2884  function earned() view private returns(uint256){... */\n    tag_73:\n        /* \"contracts/staking.sol\":2663:2670  uint256 */\n      0x00\n        /* \"contracts/staking.sol\":2722:2723  0 */\n      dup1\n        /* \"contracts/staking.sol\":2689:2697  _balance */\n      0x08\n        /* \"contracts/staking.sol\":2689:2709  _balance[msg.sender] */\n      0x00\n        /* \"contracts/staking.sol\":2698:2708  msg.sender */\n      caller\n        /* \"contracts/staking.sol\":2689:2709  _balance[msg.sender] */\n      0xffffffffffffffffffffffffffffffffffffffff\n      and\n      0xffffffffffffffffffffffffffffffffffffffff\n      and\n      dup2\n      mstore\n      0x20\n      add\n      swap1\n      dup2\n      mstore\n      0x20\n      add\n      0x00\n      keccak256\n        /* \"contracts/staking.sol\":2689:2719  _balance[msg.sender][\"amount\"] */\n      mload(0x40)\n      tag_142\n      swap1\n      tag_104\n      jump\t// in\n    tag_142:\n      swap1\n      dup2\n      mstore\n      0x20\n      add\n      mload(0x40)\n      dup1\n      swap2\n      sub\n      swap1\n      keccak256\n      sload\n        /* \"contracts/staking.sol\":2689:2723  _balance[msg.sender][\"amount\"] > 0 */\n      gt\n        /* \"contracts/staking.sol\":2681:2758  require(_balance[msg.sender][\"amount\"] > 0, \"You have not staked any tokens\") */\n      tag_143\n      jumpi\n      mload(0x40)\n      0x08c379a000000000000000000000000000000000000000000000000000000000\n      dup2\n      mstore\n      0x04\n      add\n      tag_144\n      swap1\n      tag_145\n      jump\t// in\n    tag_144:\n      mload(0x40)\n      dup1\n      swap2\n      sub\n      swap1\n      revert\n    tag_143:\n        /* \"contracts/staking.sol\":2842:2850  _balance */\n      0x08\n        /* \"contracts/staking.sol\":2842:2862  _balance[msg.sender] */\n      0x00\n        /* \"contracts/staking.sol\":2851:2861  msg.sender */\n      caller\n        /* \"contracts/staking.sol\":2842:2862  _balance[msg.sender] */\n      0xffffffffffffffffffffffffffffffffffffffff\n      and\n      0xffffffffffffffffffffffffffffffffffffffff\n      and\n      dup2\n      mstore\n      0x20\n      add\n      swap1\n      dup2\n      mstore\n      0x20\n      add\n      0x00\n      keccak256\n        /* \"contracts/staking.sol\":2842:2875  _balance[msg.sender][\"updatedAt\"] */\n      mload(0x40)\n      tag_146\n      swap1\n      tag_128\n      jump\t// in\n    tag_146:\n      swap1\n      dup2\n      mstore\n      0x20\n      add\n      mload(0x40)\n      dup1\n      swap2\n      sub\n      swap1\n      keccak256\n      sload\n        /* \"contracts/staking.sol\":2824:2839  block.timestamp */\n      timestamp\n        /* \"contracts/staking.sol\":2824:2875  block.timestamp - _balance[msg.sender][\"updatedAt\"] */\n      tag_147\n      swap2\n      swap1\n      tag_83\n      jump\t// in\n    tag_147:\n        /* \"contracts/staking.sol\":2816:2819  100 */\n      0x64\n        /* \"contracts/staking.sol\":2811:2815  rate */\n      sload(0x07)\n        /* \"contracts/staking.sol\":2811:2819  rate/100 */\n      tag_148\n      swap2\n      swap1\n      tag_149\n      jump\t// in\n    tag_148:\n        /* \"contracts/staking.sol\":2777:2785  _balance */\n      0x08\n        /* \"contracts/staking.sol\":2777:2797  _balance[msg.sender] */\n      0x00\n        /* \"contracts/staking.sol\":2786:2796  msg.sender */\n      caller\n        /* \"contracts/staking.sol\":2777:2797  _balance[msg.sender] */\n      0xffffffffffffffffffffffffffffffffffffffff\n      and\n      0xffffffffffffffffffffffffffffffffffffffff\n      and\n      dup2\n      mstore\n      0x20\n      add\n      swap1\n      dup2\n      mstore\n      0x20\n      add\n      0x00\n      keccak256\n        /* \"contracts/staking.sol\":2777:2807  _balance[msg.sender][\"amount\"] */\n      mload(0x40)\n      tag_150\n      swap1\n      tag_104\n      jump\t// in\n    tag_150:\n      swap1\n      dup2\n      mstore\n      0x20\n      add\n      mload(0x40)\n      dup1\n      swap2\n      sub\n      swap1\n      keccak256\n      sload\n        /* \"contracts/staking.sol\":2777:2820  _balance[msg.sender][\"amount\"] * (rate/100) */\n      tag_151\n      swap2\n      swap1\n      tag_152\n      jump\t// in\n    tag_151:\n        /* \"contracts/staking.sol\":2777:2876  _balance[msg.sender][\"amount\"] * (rate/100) * (block.timestamp - _balance[msg.sender][\"updatedAt\"]) */\n      tag_153\n      swap2\n      swap1\n      tag_152\n      jump\t// in\n    tag_153:\n        /* \"contracts/staking.sol\":2769:2877  return (_balance[msg.sender][\"amount\"] * (rate/100) * (block.timestamp - _balance[msg.sender][\"updatedAt\"])) */\n      swap1\n      pop\n        /* \"contracts/staking.sol\":2624:2884  function earned() view private returns(uint256){... */\n      swap1\n      jump\t// out\n        /* \"https://github.com/OpenZeppelin/openzeppelin-contracts/blob/master/contracts/utils/math/SafeMath.sol\":2755:2851  function add(uint256 a, uint256 b) internal pure returns (uint256) {... */\n    tag_125:\n        /* \"https://github.com/OpenZeppelin/openzeppelin-contracts/blob/master/contracts/utils/math/SafeMath.sol\":2813:2820  uint256 */\n      0x00\n        /* \"https://github.com/OpenZeppelin/openzeppelin-contracts/blob/master/contracts/utils/math/SafeMath.sol\":2843:2844  b */\n      dup2\n        /* \"https://github.com/OpenZeppelin/openzeppelin-contracts/blob/master/contracts/utils/math/SafeMath.sol\":2839:2840  a */\n      dup4\n        /* \"https://github.com/OpenZeppelin/openzeppelin-contracts/blob/master/contracts/utils/math/SafeMath.sol\":2839:2844  a + b */\n      tag_155\n      swap2\n      swap1\n      tag_75\n      jump\t// in\n    tag_155:\n        /* \"https://github.com/OpenZeppelin/openzeppelin-contracts/blob/master/contracts/utils/math/SafeMath.sol\":2832:2844  return a + b */\n      swap1\n      pop\n        /* \"https://github.com/OpenZeppelin/openzeppelin-contracts/blob/master/contracts/utils/math/SafeMath.sol\":2755:2851  function add(uint256 a, uint256 b) internal pure returns (uint256) {... */\n      swap3\n      swap2\n      pop\n      pop\n      jump\t// out\n        /* \"#utility.yul\":7:84   */\n    tag_156:\n        /* \"#utility.yul\":44:51   */\n      0x00\n        /* \"#utility.yul\":73:78   */\n      dup2\n        /* \"#utility.yul\":62:78   */\n      swap1\n      pop\n        /* \"#utility.yul\":7:84   */\n      swap2\n      swap1\n      pop\n      jump\t// out\n        /* \"#utility.yul\":90:208   */\n    tag_157:\n        /* \"#utility.yul\":177:201   */\n      tag_214\n        /* \"#utility.yul\":195:200   */\n      dup2\n        /* \"#utility.yul\":177:201   */\n      tag_156\n      jump\t// in\n    tag_214:\n        /* \"#utility.yul\":172:175   */\n      dup3\n        /* \"#utility.yul\":165:202   */\n      mstore\n        /* \"#utility.yul\":90:208   */\n      pop\n      pop\n      jump\t// out\n        /* \"#utility.yul\":214:436   */\n    tag_24:\n        /* \"#utility.yul\":307:311   */\n      0x00\n        /* \"#utility.yul\":345:347   */\n      0x20\n        /* \"#utility.yul\":334:343   */\n      dup3\n        /* \"#utility.yul\":330:348   */\n      add\n        /* \"#utility.yul\":322:348   */\n      swap1\n      pop\n        /* \"#utility.yul\":358:429   */\n      tag_216\n        /* \"#utility.yul\":426:427   */\n      0x00\n        /* \"#utility.yul\":415:424   */\n      dup4\n        /* \"#utility.yul\":411:428   */\n      add\n        /* \"#utility.yul\":402:408   */\n      dup5\n        /* \"#utility.yul\":358:429   */\n      tag_157\n      jump\t// in\n    tag_216:\n        /* \"#utility.yul\":214:436   */\n      swap3\n      swap2\n      pop\n      pop\n      jump\t// out\n        /* \"#utility.yul\":442:517   */\n    tag_158:\n        /* \"#utility.yul\":475:481   */\n      0x00\n        /* \"#utility.yul\":508:510   */\n      0x40\n        /* \"#utility.yul\":502:511   */\n      mload\n        /* \"#utility.yul\":492:511   */\n      swap1\n      pop\n        /* \"#utility.yul\":442:517   */\n      swap1\n      jump\t// out\n        /* \"#utility.yul\":523:640   */\n    tag_159:\n        /* \"#utility.yul\":632:633   */\n      0x00\n        /* \"#utility.yul\":629:630   */\n      dup1\n        /* \"#utility.yul\":622:634   */\n      revert\n        /* \"#utility.yul\":646:763   */\n    tag_160:\n        /* \"#utility.yul\":755:756   */\n      0x00\n        /* \"#utility.yul\":752:753   */\n      dup1\n        /* \"#utility.yul\":745:757   */\n      revert\n        /* \"#utility.yul\":769:895   */\n    tag_161:\n        /* \"#utility.yul\":806:813   */\n      0x00\n        /* \"#utility.yul\":846:888   */\n      0xffffffffffffffffffffffffffffffffffffffff\n        /* \"#utility.yul\":839:844   */\n      dup3\n        /* \"#utility.yul\":835:889   */\n      and\n        /* \"#utility.yul\":824:889   */\n      swap1\n      pop\n        /* \"#utility.yul\":769:895   */\n      swap2\n      swap1\n      pop\n      jump\t// out\n        /* \"#utility.yul\":901:997   */\n    tag_162:\n        /* \"#utility.yul\":938:945   */\n      0x00\n        /* \"#utility.yul\":967:991   */\n      tag_222\n        /* \"#utility.yul\":985:990   */\n      dup3\n        /* \"#utility.yul\":967:991   */\n      tag_161\n      jump\t// in\n    tag_222:\n        /* \"#utility.yul\":956:991   */\n      swap1\n      pop\n        /* \"#utility.yul\":901:997   */\n      swap2\n      swap1\n      pop\n      jump\t// out\n        /* \"#utility.yul\":1003:1125   */\n    tag_163:\n        /* \"#utility.yul\":1076:1100   */\n      tag_224\n        /* \"#utility.yul\":1094:1099   */\n      dup2\n        /* \"#utility.yul\":1076:1100   */\n      tag_162\n      jump\t// in\n    tag_224:\n        /* \"#utility.yul\":1069:1074   */\n      dup2\n        /* \"#utility.yul\":1066:1101   */\n      eq\n        /* \"#utility.yul\":1056:1119   */\n      tag_225\n      jumpi\n        /* \"#utility.yul\":1115:1116   */\n      0x00\n        /* \"#utility.yul\":1112:1113   */\n      dup1\n        /* \"#utility.yul\":1105:1117   */\n      revert\n        /* \"#utility.yul\":1056:1119   */\n    tag_225:\n        /* \"#utility.yul\":1003:1125   */\n      pop\n      jump\t// out\n        /* \"#utility.yul\":1131:1270   */\n    tag_164:\n        /* \"#utility.yul\":1177:1182   */\n      0x00\n        /* \"#utility.yul\":1215:1221   */\n      dup2\n        /* \"#utility.yul\":1202:1222   */\n      calldataload\n        /* \"#utility.yul\":1193:1222   */\n      swap1\n      pop\n        /* \"#utility.yul\":1231:1264   */\n      tag_227\n        /* \"#utility.yul\":1258:1263   */\n      dup2\n        /* \"#utility.yul\":1231:1264   */\n      tag_163\n      jump\t// in\n    tag_227:\n        /* \"#utility.yul\":1131:1270   */\n      swap3\n      swap2\n      pop\n      pop\n      jump\t// out\n        /* \"#utility.yul\":1276:1393   */\n    tag_165:\n        /* \"#utility.yul\":1385:1386   */\n      0x00\n        /* \"#utility.yul\":1382:1383   */\n      dup1\n        /* \"#utility.yul\":1375:1387   */\n      revert\n        /* \"#utility.yul\":1399:1516   */\n    tag_166:\n        /* \"#utility.yul\":1508:1509   */\n      0x00\n        /* \"#utility.yul\":1505:1506   */\n      dup1\n        /* \"#utility.yul\":1498:1510   */\n      revert\n        /* \"#utility.yul\":1522:1624   */\n    tag_167:\n        /* \"#utility.yul\":1563:1569   */\n      0x00\n        /* \"#utility.yul\":1614:1616   */\n      0x1f\n        /* \"#utility.yul\":1610:1617   */\n      not\n        /* \"#utility.yul\":1605:1607   */\n      0x1f\n        /* \"#utility.yul\":1598:1603   */\n      dup4\n        /* \"#utility.yul\":1594:1608   */\n      add\n        /* \"#utility.yul\":1590:1618   */\n      and\n        /* \"#utility.yul\":1580:1618   */\n      swap1\n      pop\n        /* \"#utility.yul\":1522:1624   */\n      swap2\n      swap1\n      pop\n      jump\t// out\n        /* \"#utility.yul\":1630:1810   */\n    tag_168:\n        /* \"#utility.yul\":1678:1755   */\n      0x4e487b7100000000000000000000000000000000000000000000000000000000\n        /* \"#utility.yul\":1675:1676   */\n      0x00\n        /* \"#utility.yul\":1668:1756   */\n      mstore\n        /* \"#utility.yul\":1775:1779   */\n      0x41\n        /* \"#utility.yul\":1772:1773   */\n      0x04\n        /* \"#utility.yul\":1765:1780   */\n      mstore\n        /* \"#utility.yul\":1799:1803   */\n      0x24\n        /* \"#utility.yul\":1796:1797   */\n      0x00\n        /* \"#utility.yul\":1789:1804   */\n      revert\n        /* \"#utility.yul\":1816:2097   */\n    tag_169:\n        /* \"#utility.yul\":1899:1926   */\n      tag_233\n        /* \"#utility.yul\":1921:1925   */\n      dup3\n        /* \"#utility.yul\":1899:1926   */\n      tag_167\n      jump\t// in\n    tag_233:\n        /* \"#utility.yul\":1891:1897   */\n      dup2\n        /* \"#utility.yul\":1887:1927   */\n      add\n        /* \"#utility.yul\":2029:2035   */\n      dup2\n        /* \"#utility.yul\":2017:2027   */\n      dup2\n        /* \"#utility.yul\":2014:2036   */\n      lt\n        /* \"#utility.yul\":1993:2011   */\n      0xffffffffffffffff\n        /* \"#utility.yul\":1981:1991   */\n      dup3\n        /* \"#utility.yul\":1978:2012   */\n      gt\n        /* \"#utility.yul\":1975:2037   */\n      or\n        /* \"#utility.yul\":1972:2060   */\n      iszero\n      tag_234\n      jumpi\n        /* \"#utility.yul\":2040:2058   */\n      tag_235\n      tag_168\n      jump\t// in\n    tag_235:\n        /* \"#utility.yul\":1972:2060   */\n    tag_234:\n        /* \"#utility.yul\":2080:2090   */\n      dup1\n        /* \"#utility.yul\":2076:2078   */\n      0x40\n        /* \"#utility.yul\":2069:2091   */\n      mstore\n        /* \"#utility.yul\":1859:2097   */\n      pop\n        /* \"#utility.yul\":1816:2097   */\n      pop\n      pop\n      jump\t// out\n        /* \"#utility.yul\":2103:2232   */\n    tag_170:\n        /* \"#utility.yul\":2137:2143   */\n      0x00\n        /* \"#utility.yul\":2164:2184   */\n      tag_237\n      tag_158\n      jump\t// in\n    tag_237:\n        /* \"#utility.yul\":2154:2184   */\n      swap1\n      pop\n        /* \"#utility.yul\":2193:2226   */\n      tag_238\n        /* \"#utility.yul\":2221:2225   */\n      dup3\n        /* \"#utility.yul\":2213:2219   */\n      dup3\n        /* \"#utility.yul\":2193:2226   */\n      tag_169\n      jump\t// in\n    tag_238:\n        /* \"#utility.yul\":2103:2232   */\n      swap2\n      swap1\n      pop\n      jump\t// out\n        /* \"#utility.yul\":2238:2546   */\n    tag_171:\n        /* \"#utility.yul\":2300:2304   */\n      0x00\n        /* \"#utility.yul\":2390:2408   */\n      0xffffffffffffffff\n        /* \"#utility.yul\":2382:2388   */\n      dup3\n        /* \"#utility.yul\":2379:2409   */\n      gt\n        /* \"#utility.yul\":2376:2432   */\n      iszero\n      tag_240\n      jumpi\n        /* \"#utility.yul\":2412:2430   */\n      tag_241\n      tag_168\n      jump\t// in\n    tag_241:\n        /* \"#utility.yul\":2376:2432   */\n    tag_240:\n        /* \"#utility.yul\":2450:2479   */\n      tag_242\n        /* \"#utility.yul\":2472:2478   */\n      dup3\n        /* \"#utility.yul\":2450:2479   */\n      tag_167\n      jump\t// in\n    tag_242:\n        /* \"#utility.yul\":2442:2479   */\n      swap1\n      pop\n        /* \"#utility.yul\":2534:2538   */\n      0x20\n        /* \"#utility.yul\":2528:2532   */\n      dup2\n        /* \"#utility.yul\":2524:2539   */\n      add\n        /* \"#utility.yul\":2516:2539   */\n      swap1\n      pop\n        /* \"#utility.yul\":2238:2546   */\n      swap2\n      swap1\n      pop\n      jump\t// out\n        /* \"#utility.yul\":2552:2698   */\n    tag_172:\n        /* \"#utility.yul\":2649:2655   */\n      dup3\n        /* \"#utility.yul\":2644:2647   */\n      dup2\n        /* \"#utility.yul\":2639:2642   */\n      dup4\n        /* \"#utility.yul\":2626:2656   */\n      calldatacopy\n        /* \"#utility.yul\":2690:2691   */\n      0x00\n        /* \"#utility.yul\":2681:2687   */\n      dup4\n        /* \"#utility.yul\":2676:2679   */\n      dup4\n        /* \"#utility.yul\":2672:2688   */\n      add\n        /* \"#utility.yul\":2665:2692   */\n      mstore\n        /* \"#utility.yul\":2552:2698   */\n      pop\n      pop\n      pop\n      jump\t// out\n        /* \"#utility.yul\":2704:3129   */\n    tag_173:\n        /* \"#utility.yul\":2782:2787   */\n      0x00\n        /* \"#utility.yul\":2807:2873   */\n      tag_245\n        /* \"#utility.yul\":2823:2872   */\n      tag_246\n        /* \"#utility.yul\":2865:2871   */\n      dup5\n        /* \"#utility.yul\":2823:2872   */\n      tag_171\n      jump\t// in\n    tag_246:\n        /* \"#utility.yul\":2807:2873   */\n      tag_170\n      jump\t// in\n    tag_245:\n        /* \"#utility.yul\":2798:2873   */\n      swap1\n      pop\n        /* \"#utility.yul\":2896:2902   */\n      dup3\n        /* \"#utility.yul\":2889:2894   */\n      dup2\n        /* \"#utility.yul\":2882:2903   */\n      mstore\n        /* \"#utility.yul\":2934:2938   */\n      0x20\n        /* \"#utility.yul\":2927:2932   */\n      dup2\n        /* \"#utility.yul\":2923:2939   */\n      add\n        /* \"#utility.yul\":2972:2975   */\n      dup5\n        /* \"#utility.yul\":2963:2969   */\n      dup5\n        /* \"#utility.yul\":2958:2961   */\n      dup5\n        /* \"#utility.yul\":2954:2970   */\n      add\n        /* \"#utility.yul\":2951:2976   */\n      gt\n        /* \"#utility.yul\":2948:3060   */\n      iszero\n      tag_247\n      jumpi\n        /* \"#utility.yul\":2979:3058   */\n      tag_248\n      tag_166\n      jump\t// in\n    tag_248:\n        /* \"#utility.yul\":2948:3060   */\n    tag_247:\n        /* \"#utility.yul\":3069:3123   */\n      tag_249\n        /* \"#utility.yul\":3116:3122   */\n      dup5\n        /* \"#utility.yul\":3111:3114   */\n      dup3\n        /* \"#utility.yul\":3106:3109   */\n      dup6\n        /* \"#utility.yul\":3069:3123   */\n      tag_172\n      jump\t// in\n    tag_249:\n        /* \"#utility.yul\":2788:3129   */\n      pop\n        /* \"#utility.yul\":2704:3129   */\n      swap4\n      swap3\n      pop\n      pop\n      pop\n      jump\t// out\n        /* \"#utility.yul\":3149:3489   */\n    tag_174:\n        /* \"#utility.yul\":3205:3210   */\n      0x00\n        /* \"#utility.yul\":3254:3257   */\n      dup3\n        /* \"#utility.yul\":3247:3251   */\n      0x1f\n        /* \"#utility.yul\":3239:3245   */\n      dup4\n        /* \"#utility.yul\":3235:3252   */\n      add\n        /* \"#utility.yul\":3231:3258   */\n      slt\n        /* \"#utility.yul\":3221:3343   */\n      tag_251\n      jumpi\n        /* \"#utility.yul\":3262:3341   */\n      tag_252\n      tag_165\n      jump\t// in\n    tag_252:\n        /* \"#utility.yul\":3221:3343   */\n    tag_251:\n        /* \"#utility.yul\":3379:3385   */\n      dup2\n        /* \"#utility.yul\":3366:3386   */\n      calldataload\n        /* \"#utility.yul\":3404:3483   */\n      tag_253\n        /* \"#utility.yul\":3479:3482   */\n      dup5\n        /* \"#utility.yul\":3471:3477   */\n      dup3\n        /* \"#utility.yul\":3464:3468   */\n      0x20\n        /* \"#utility.yul\":3456:3462   */\n      dup7\n        /* \"#utility.yul\":3452:3469   */\n      add\n        /* \"#utility.yul\":3404:3483   */\n      tag_173\n      jump\t// in\n    tag_253:\n        /* \"#utility.yul\":3395:3483   */\n      swap2\n      pop\n        /* \"#utility.yul\":3211:3489   */\n      pop\n        /* \"#utility.yul\":3149:3489   */\n      swap3\n      swap2\n      pop\n      pop\n      jump\t// out\n        /* \"#utility.yul\":3495:4149   */\n    tag_33:\n        /* \"#utility.yul\":3573:3579   */\n      0x00\n        /* \"#utility.yul\":3581:3587   */\n      dup1\n        /* \"#utility.yul\":3630:3632   */\n      0x40\n        /* \"#utility.yul\":3618:3627   */\n      dup4\n        /* \"#utility.yul\":3609:3616   */\n      dup6\n        /* \"#utility.yul\":3605:3628   */\n      sub\n        /* \"#utility.yul\":3601:3633   */\n      slt\n        /* \"#utility.yul\":3598:3717   */\n      iszero\n      tag_255\n      jumpi\n        /* \"#utility.yul\":3636:3715   */\n      tag_256\n      tag_159\n      jump\t// in\n    tag_256:\n        /* \"#utility.yul\":3598:3717   */\n    tag_255:\n        /* \"#utility.yul\":3756:3757   */\n      0x00\n        /* \"#utility.yul\":3781:3834   */\n      tag_257\n        /* \"#utility.yul\":3826:3833   */\n      dup6\n        /* \"#utility.yul\":3817:3823   */\n      dup3\n        /* \"#utility.yul\":3806:3815   */\n      dup7\n        /* \"#utility.yul\":3802:3824   */\n      add\n        /* \"#utility.yul\":3781:3834   */\n      tag_164\n      jump\t// in\n    tag_257:\n        /* \"#utility.yul\":3771:3834   */\n      swap3\n      pop\n        /* \"#utility.yul\":3727:3844   */\n      pop\n        /* \"#utility.yul\":3911:3913   */\n      0x20\n        /* \"#utility.yul\":3900:3909   */\n      dup4\n        /* \"#utility.yul\":3896:3914   */\n      add\n        /* \"#utility.yul\":3883:3915   */\n      calldataload\n        /* \"#utility.yul\":3942:3960   */\n      0xffffffffffffffff\n        /* \"#utility.yul\":3934:3940   */\n      dup2\n        /* \"#utility.yul\":3931:3961   */\n      gt\n        /* \"#utility.yul\":3928:4045   */\n      iszero\n      tag_258\n      jumpi\n        /* \"#utility.yul\":3964:4043   */\n      tag_259\n      tag_160\n      jump\t// in\n    tag_259:\n        /* \"#utility.yul\":3928:4045   */\n    tag_258:\n        /* \"#utility.yul\":4069:4132   */\n      tag_260\n        /* \"#utility.yul\":4124:4131   */\n      dup6\n        /* \"#utility.yul\":4115:4121   */\n      dup3\n        /* \"#utility.yul\":4104:4113   */\n      dup7\n        /* \"#utility.yul\":4100:4122   */\n      add\n        /* \"#utility.yul\":4069:4132   */\n      tag_174\n      jump\t// in\n    tag_260:\n        /* \"#utility.yul\":4059:4132   */\n      swap2\n      pop\n        /* \"#utility.yul\":3854:4142   */\n      pop\n        /* \"#utility.yul\":3495:4149   */\n      swap3\n      pop\n      swap3\n      swap1\n      pop\n      jump\t// out\n        /* \"#utility.yul\":4155:4277   */\n    tag_175:\n        /* \"#utility.yul\":4228:4252   */\n      tag_262\n        /* \"#utility.yul\":4246:4251   */\n      dup2\n        /* \"#utility.yul\":4228:4252   */\n      tag_156\n      jump\t// in\n    tag_262:\n        /* \"#utility.yul\":4221:4226   */\n      dup2\n        /* \"#utility.yul\":4218:4253   */\n      eq\n        /* \"#utility.yul\":4208:4271   */\n      tag_263\n      jumpi\n        /* \"#utility.yul\":4267:4268   */\n      0x00\n        /* \"#utility.yul\":4264:4265   */\n      dup1\n        /* \"#utility.yul\":4257:4269   */\n      revert\n        /* \"#utility.yul\":4208:4271   */\n    tag_263:\n        /* \"#utility.yul\":4155:4277   */\n      pop\n      jump\t// out\n        /* \"#utility.yul\":4283:4422   */\n    tag_176:\n        /* \"#utility.yul\":4329:4334   */\n      0x00\n        /* \"#utility.yul\":4367:4373   */\n      dup2\n        /* \"#utility.yul\":4354:4374   */\n      calldataload\n        /* \"#utility.yul\":4345:4374   */\n      swap1\n      pop\n        /* \"#utility.yul\":4383:4416   */\n      tag_265\n        /* \"#utility.yul\":4410:4415   */\n      dup2\n        /* \"#utility.yul\":4383:4416   */\n      tag_175\n      jump\t// in\n    tag_265:\n        /* \"#utility.yul\":4283:4422   */\n      swap3\n      swap2\n      pop\n      pop\n      jump\t// out\n        /* \"#utility.yul\":4428:4757   */\n    tag_38:\n        /* \"#utility.yul\":4487:4493   */\n      0x00\n        /* \"#utility.yul\":4536:4538   */\n      0x20\n        /* \"#utility.yul\":4524:4533   */\n      dup3\n        /* \"#utility.yul\":4515:4522   */\n      dup5\n        /* \"#utility.yul\":4511:4534   */\n      sub\n        /* \"#utility.yul\":4507:4539   */\n      slt\n        /* \"#utility.yul\":4504:4623   */\n      iszero\n      tag_267\n      jumpi\n        /* \"#utility.yul\":4542:4621   */\n      tag_268\n      tag_159\n      jump\t// in\n    tag_268:\n        /* \"#utility.yul\":4504:4623   */\n    tag_267:\n        /* \"#utility.yul\":4662:4663   */\n      0x00\n        /* \"#utility.yul\":4687:4740   */\n      tag_269\n        /* \"#utility.yul\":4732:4739   */\n      dup5\n        /* \"#utility.yul\":4723:4729   */\n      dup3\n        /* \"#utility.yul\":4712:4721   */\n      dup6\n        /* \"#utility.yul\":4708:4730   */\n      add\n        /* \"#utility.yul\":4687:4740   */\n      tag_176\n      jump\t// in\n    tag_269:\n        /* \"#utility.yul\":4677:4740   */\n      swap2\n      pop\n        /* \"#utility.yul\":4633:4750   */\n      pop\n        /* \"#utility.yul\":4428:4757   */\n      swap3\n      swap2\n      pop\n      pop\n      jump\t// out\n        /* \"#utility.yul\":4763:4823   */\n    tag_177:\n        /* \"#utility.yul\":4791:4794   */\n      0x00\n        /* \"#utility.yul\":4812:4817   */\n      dup2\n        /* \"#utility.yul\":4805:4817   */\n      swap1\n      pop\n        /* \"#utility.yul\":4763:4823   */\n      swap2\n      swap1\n      pop\n      jump\t// out\n        /* \"#utility.yul\":4829:4971   */\n    tag_178:\n        /* \"#utility.yul\":4879:4888   */\n      0x00\n        /* \"#utility.yul\":4912:4965   */\n      tag_272\n        /* \"#utility.yul\":4930:4964   */\n      tag_273\n        /* \"#utility.yul\":4939:4963   */\n      tag_274\n        /* \"#utility.yul\":4957:4962   */\n      dup5\n        /* \"#utility.yul\":4939:4963   */\n      tag_161\n      jump\t// in\n    tag_274:\n        /* \"#utility.yul\":4930:4964   */\n      tag_177\n      jump\t// in\n    tag_273:\n        /* \"#utility.yul\":4912:4965   */\n      tag_161\n      jump\t// in\n    tag_272:\n        /* \"#utility.yul\":4899:4965   */\n      swap1\n      pop\n        /* \"#utility.yul\":4829:4971   */\n      swap2\n      swap1\n      pop\n      jump\t// out\n        /* \"#utility.yul\":4977:5103   */\n    tag_179:\n        /* \"#utility.yul\":5027:5036   */\n      0x00\n        /* \"#utility.yul\":5060:5097   */\n      tag_276\n        /* \"#utility.yul\":5091:5096   */\n      dup3\n        /* \"#utility.yul\":5060:5097   */\n      tag_178\n      jump\t// in\n    tag_276:\n        /* \"#utility.yul\":5047:5097   */\n      swap1\n      pop\n        /* \"#utility.yul\":4977:5103   */\n      swap2\n      swap1\n      pop\n      jump\t// out\n        /* \"#utility.yul\":5109:5249   */\n    tag_180:\n        /* \"#utility.yul\":5173:5182   */\n      0x00\n        /* \"#utility.yul\":5206:5243   */\n      tag_278\n        /* \"#utility.yul\":5237:5242   */\n      dup3\n        /* \"#utility.yul\":5206:5243   */\n      tag_179\n      jump\t// in\n    tag_278:\n        /* \"#utility.yul\":5193:5243   */\n      swap1\n      pop\n        /* \"#utility.yul\":5109:5249   */\n      swap2\n      swap1\n      pop\n      jump\t// out\n        /* \"#utility.yul\":5255:5414   */\n    tag_181:\n        /* \"#utility.yul\":5356:5407   */\n      tag_280\n        /* \"#utility.yul\":5401:5406   */\n      dup2\n        /* \"#utility.yul\":5356:5407   */\n      tag_180\n      jump\t// in\n    tag_280:\n        /* \"#utility.yul\":5351:5354   */\n      dup3\n        /* \"#utility.yul\":5344:5408   */\n      mstore\n        /* \"#utility.yul\":5255:5414   */\n      pop\n      pop\n      jump\t// out\n        /* \"#utility.yul\":5420:5670   */\n    tag_46:\n        /* \"#utility.yul\":5527:5531   */\n      0x00\n        /* \"#utility.yul\":5565:5567   */\n      0x20\n        /* \"#utility.yul\":5554:5563   */\n      dup3\n        /* \"#utility.yul\":5550:5568   */\n      add\n        /* \"#utility.yul\":5542:5568   */\n      swap1\n      pop\n        /* \"#utility.yul\":5578:5663   */\n      tag_282\n        /* \"#utility.yul\":5660:5661   */\n      0x00\n        /* \"#utility.yul\":5649:5658   */\n      dup4\n        /* \"#utility.yul\":5645:5662   */\n      add\n        /* \"#utility.yul\":5636:5642   */\n      dup5\n        /* \"#utility.yul\":5578:5663   */\n      tag_181\n      jump\t// in\n    tag_282:\n        /* \"#utility.yul\":5420:5670   */\n      swap3\n      swap2\n      pop\n      pop\n      jump\t// out\n        /* \"#utility.yul\":5676:5856   */\n    tag_182:\n        /* \"#utility.yul\":5724:5801   */\n      0x4e487b7100000000000000000000000000000000000000000000000000000000\n        /* \"#utility.yul\":5721:5722   */\n      0x00\n        /* \"#utility.yul\":5714:5802   */\n      mstore\n        /* \"#utility.yul\":5821:5825   */\n      0x11\n        /* \"#utility.yul\":5818:5819   */\n      0x04\n        /* \"#utility.yul\":5811:5826   */\n      mstore\n        /* \"#utility.yul\":5845:5849   */\n      0x24\n        /* \"#utility.yul\":5842:5843   */\n      0x00\n        /* \"#utility.yul\":5835:5850   */\n      revert\n        /* \"#utility.yul\":5862:6053   */\n    tag_75:\n        /* \"#utility.yul\":5902:5905   */\n      0x00\n        /* \"#utility.yul\":5921:5941   */\n      tag_285\n        /* \"#utility.yul\":5939:5940   */\n      dup3\n        /* \"#utility.yul\":5921:5941   */\n      tag_156\n      jump\t// in\n    tag_285:\n        /* \"#utility.yul\":5916:5941   */\n      swap2\n      pop\n        /* \"#utility.yul\":5955:5975   */\n      tag_286\n        /* \"#utility.yul\":5973:5974   */\n      dup4\n        /* \"#utility.yul\":5955:5975   */\n      tag_156\n      jump\t// in\n    tag_286:\n        /* \"#utility.yul\":5950:5975   */\n      swap3\n      pop\n        /* \"#utility.yul\":5998:5999   */\n      dup3\n        /* \"#utility.yul\":5995:5996   */\n      dup3\n        /* \"#utility.yul\":5991:6000   */\n      add\n        /* \"#utility.yul\":5984:6000   */\n      swap1\n      pop\n        /* \"#utility.yul\":6019:6022   */\n      dup1\n        /* \"#utility.yul\":6016:6017   */\n      dup3\n        /* \"#utility.yul\":6013:6023   */\n      gt\n        /* \"#utility.yul\":6010:6046   */\n      iszero\n      tag_287\n      jumpi\n        /* \"#utility.yul\":6026:6044   */\n      tag_288\n      tag_182\n      jump\t// in\n    tag_288:\n        /* \"#utility.yul\":6010:6046   */\n    tag_287:\n        /* \"#utility.yul\":5862:6053   */\n      swap3\n      swap2\n      pop\n      pop\n      jump\t// out\n        /* \"#utility.yul\":6059:6228   */\n    tag_183:\n        /* \"#utility.yul\":6143:6154   */\n      0x00\n        /* \"#utility.yul\":6177:6183   */\n      dup3\n        /* \"#utility.yul\":6172:6175   */\n      dup3\n        /* \"#utility.yul\":6165:6184   */\n      mstore\n        /* \"#utility.yul\":6217:6221   */\n      0x20\n        /* \"#utility.yul\":6212:6215   */\n      dup3\n        /* \"#utility.yul\":6208:6222   */\n      add\n        /* \"#utility.yul\":6193:6222   */\n      swap1\n      pop\n        /* \"#utility.yul\":6059:6228   */\n      swap3\n      swap2\n      pop\n      pop\n      jump\t// out\n        /* \"#utility.yul\":6234:6415   */\n    tag_184:\n        /* \"#utility.yul\":6374:6407   */\n      0x596f752068617665206e6f74206561726e656420616e79207265776172647300\n        /* \"#utility.yul\":6370:6371   */\n      0x00\n        /* \"#utility.yul\":6362:6368   */\n      dup3\n        /* \"#utility.yul\":6358:6372   */\n      add\n        /* \"#utility.yul\":6351:6408   */\n      mstore\n        /* \"#utility.yul\":6234:6415   */\n      pop\n      jump\t// out\n        /* \"#utility.yul\":6421:6787   */\n    tag_185:\n        /* \"#utility.yul\":6563:6566   */\n      0x00\n        /* \"#utility.yul\":6584:6651   */\n      tag_292\n        /* \"#utility.yul\":6648:6650   */\n      0x1f\n        /* \"#utility.yul\":6643:6646   */\n      dup4\n        /* \"#utility.yul\":6584:6651   */\n      tag_183\n      jump\t// in\n    tag_292:\n        /* \"#utility.yul\":6577:6651   */\n      swap2\n      pop\n        /* \"#utility.yul\":6660:6753   */\n      tag_293\n        /* \"#utility.yul\":6749:6752   */\n      dup3\n        /* \"#utility.yul\":6660:6753   */\n      tag_184\n      jump\t// in\n    tag_293:\n        /* \"#utility.yul\":6778:6780   */\n      0x20\n        /* \"#utility.yul\":6773:6776   */\n      dup3\n        /* \"#utility.yul\":6769:6781   */\n      add\n        /* \"#utility.yul\":6762:6781   */\n      swap1\n      pop\n        /* \"#utility.yul\":6421:6787   */\n      swap2\n      swap1\n      pop\n      jump\t// out\n        /* \"#utility.yul\":6793:7212   */\n    tag_79:\n        /* \"#utility.yul\":6959:6963   */\n      0x00\n        /* \"#utility.yul\":6997:6999   */\n      0x20\n        /* \"#utility.yul\":6986:6995   */\n      dup3\n        /* \"#utility.yul\":6982:7000   */\n      add\n        /* \"#utility.yul\":6974:7000   */\n      swap1\n      pop\n        /* \"#utility.yul\":7046:7055   */\n      dup2\n        /* \"#utility.yul\":7040:7044   */\n      dup2\n        /* \"#utility.yul\":7036:7056   */\n      sub\n        /* \"#utility.yul\":7032:7033   */\n      0x00\n        /* \"#utility.yul\":7021:7030   */\n      dup4\n        /* \"#utility.yul\":7017:7034   */\n      add\n        /* \"#utility.yul\":7010:7057   */\n      mstore\n        /* \"#utility.yul\":7074:7205   */\n      tag_295\n        /* \"#utility.yul\":7200:7204   */\n      dup2\n        /* \"#utility.yul\":7074:7205   */\n      tag_185\n      jump\t// in\n    tag_295:\n        /* \"#utility.yul\":7066:7205   */\n      swap1\n      pop\n        /* \"#utility.yul\":6793:7212   */\n      swap2\n      swap1\n      pop\n      jump\t// out\n        /* \"#utility.yul\":7218:7412   */\n    tag_83:\n        /* \"#utility.yul\":7258:7262   */\n      0x00\n        /* \"#utility.yul\":7278:7298   */\n      tag_297\n        /* \"#utility.yul\":7296:7297   */\n      dup3\n        /* \"#utility.yul\":7278:7298   */\n      tag_156\n      jump\t// in\n    tag_297:\n        /* \"#utility.yul\":7273:7298   */\n      swap2\n      pop\n        /* \"#utility.yul\":7312:7332   */\n      tag_298\n        /* \"#utility.yul\":7330:7331   */\n      dup4\n        /* \"#utility.yul\":7312:7332   */\n      tag_156\n      jump\t// in\n    tag_298:\n        /* \"#utility.yul\":7307:7332   */\n      swap3\n      pop\n        /* \"#utility.yul\":7356:7357   */\n      dup3\n        /* \"#utility.yul\":7353:7354   */\n      dup3\n        /* \"#utility.yul\":7349:7358   */\n      sub\n        /* \"#utility.yul\":7341:7358   */\n      swap1\n      pop\n        /* \"#utility.yul\":7380:7381   */\n      dup2\n        /* \"#utility.yul\":7374:7378   */\n      dup2\n        /* \"#utility.yul\":7371:7382   */\n      gt\n        /* \"#utility.yul\":7368:7405   */\n      iszero\n      tag_299\n      jumpi\n        /* \"#utility.yul\":7385:7403   */\n      tag_300\n      tag_182\n      jump\t// in\n    tag_300:\n        /* \"#utility.yul\":7368:7405   */\n    tag_299:\n        /* \"#utility.yul\":7218:7412   */\n      swap3\n      swap2\n      pop\n      pop\n      jump\t// out\n        /* \"#utility.yul\":7418:7638   */\n    tag_186:\n        /* \"#utility.yul\":7558:7592   */\n      0x596f7520646f6e2774206861766520656e6f75676820746f2077697468647261\n        /* \"#utility.yul\":7554:7555   */\n      0x00\n        /* \"#utility.yul\":7546:7552   */\n      dup3\n        /* \"#utility.yul\":7542:7556   */\n      add\n        /* \"#utility.yul\":7535:7593   */\n      mstore\n        /* \"#utility.yul\":7627:7630   */\n      0x7700000000000000000000000000000000000000000000000000000000000000\n        /* \"#utility.yul\":7622:7624   */\n      0x20\n        /* \"#utility.yul\":7614:7620   */\n      dup3\n        /* \"#utility.yul\":7610:7625   */\n      add\n        /* \"#utility.yul\":7603:7631   */\n      mstore\n        /* \"#utility.yul\":7418:7638   */\n      pop\n      jump\t// out\n        /* \"#utility.yul\":7644:8010   */\n    tag_187:\n        /* \"#utility.yul\":7786:7789   */\n      0x00\n        /* \"#utility.yul\":7807:7874   */\n      tag_303\n        /* \"#utility.yul\":7871:7873   */\n      0x21\n        /* \"#utility.yul\":7866:7869   */\n      dup4\n        /* \"#utility.yul\":7807:7874   */\n      tag_183\n      jump\t// in\n    tag_303:\n        /* \"#utility.yul\":7800:7874   */\n      swap2\n      pop\n        /* \"#utility.yul\":7883:7976   */\n      tag_304\n        /* \"#utility.yul\":7972:7975   */\n      dup3\n        /* \"#utility.yul\":7883:7976   */\n      tag_186\n      jump\t// in\n    tag_304:\n        /* \"#utility.yul\":8001:8003   */\n      0x40\n        /* \"#utility.yul\":7996:7999   */\n      dup3\n        /* \"#utility.yul\":7992:8004   */\n      add\n        /* \"#utility.yul\":7985:8004   */\n      swap1\n      pop\n        /* \"#utility.yul\":7644:8010   */\n      swap2\n      swap1\n      pop\n      jump\t// out\n        /* \"#utility.yul\":8016:8435   */\n    tag_86:\n        /* \"#utility.yul\":8182:8186   */\n      0x00\n        /* \"#utility.yul\":8220:8222   */\n      0x20\n        /* \"#utility.yul\":8209:8218   */\n      dup3\n        /* \"#utility.yul\":8205:8223   */\n      add\n        /* \"#utility.yul\":8197:8223   */\n      swap1\n      pop\n        /* \"#utility.yul\":8269:8278   */\n      dup2\n        /* \"#utility.yul\":8263:8267   */\n      dup2\n        /* \"#utility.yul\":8259:8279   */\n      sub\n        /* \"#utility.yul\":8255:8256   */\n      0x00\n        /* \"#utility.yul\":8244:8253   */\n      dup4\n        /* \"#utility.yul\":8240:8257   */\n      add\n        /* \"#utility.yul\":8233:8280   */\n      mstore\n        /* \"#utility.yul\":8297:8428   */\n      tag_306\n        /* \"#utility.yul\":8423:8427   */\n      dup2\n        /* \"#utility.yul\":8297:8428   */\n      tag_187\n      jump\t// in\n    tag_306:\n        /* \"#utility.yul\":8289:8428   */\n      swap1\n      pop\n        /* \"#utility.yul\":8016:8435   */\n      swap2\n      swap1\n      pop\n      jump\t// out\n        /* \"#utility.yul\":8441:8559   */\n    tag_188:\n        /* \"#utility.yul\":8528:8552   */\n      tag_308\n        /* \"#utility.yul\":8546:8551   */\n      dup2\n        /* \"#utility.yul\":8528:8552   */\n      tag_162\n      jump\t// in\n    tag_308:\n        /* \"#utility.yul\":8523:8526   */\n      dup3\n        /* \"#utility.yul\":8516:8553   */\n      mstore\n        /* \"#utility.yul\":8441:8559   */\n      pop\n      pop\n      jump\t// out\n        /* \"#utility.yul\":8565:8897   */\n    tag_88:\n        /* \"#utility.yul\":8686:8690   */\n      0x00\n        /* \"#utility.yul\":8724:8726   */\n      0x40\n        /* \"#utility.yul\":8713:8722   */\n      dup3\n        /* \"#utility.yul\":8709:8727   */\n      add\n        /* \"#utility.yul\":8701:8727   */\n      swap1\n      pop\n        /* \"#utility.yul\":8737:8808   */\n      tag_310\n        /* \"#utility.yul\":8805:8806   */\n      0x00\n        /* \"#utility.yul\":8794:8803   */\n      dup4\n        /* \"#utility.yul\":8790:8807   */\n      add\n        /* \"#utility.yul\":8781:8787   */\n      dup6\n        /* \"#utility.yul\":8737:8808   */\n      tag_188\n      jump\t// in\n    tag_310:\n        /* \"#utility.yul\":8818:8890   */\n      tag_311\n        /* \"#utility.yul\":8886:8888   */\n      0x20\n        /* \"#utility.yul\":8875:8884   */\n      dup4\n        /* \"#utility.yul\":8871:8889   */\n      add\n        /* \"#utility.yul\":8862:8868   */\n      dup5\n        /* \"#utility.yul\":8818:8890   */\n      tag_157\n      jump\t// in\n    tag_311:\n        /* \"#utility.yul\":8565:8897   */\n      swap4\n      swap3\n      pop\n      pop\n      pop\n      jump\t// out\n        /* \"#utility.yul\":8903:8993   */\n    tag_189:\n        /* \"#utility.yul\":8937:8944   */\n      0x00\n        /* \"#utility.yul\":8980:8985   */\n      dup2\n        /* \"#utility.yul\":8973:8986   */\n      iszero\n        /* \"#utility.yul\":8966:8987   */\n      iszero\n        /* \"#utility.yul\":8955:8987   */\n      swap1\n      pop\n        /* \"#utility.yul\":8903:8993   */\n      swap2\n      swap1\n      pop\n      jump\t// out\n        /* \"#utility.yul\":8999:9115   */\n    tag_190:\n        /* \"#utility.yul\":9069:9090   */\n      tag_314\n        /* \"#utility.yul\":9084:9089   */\n      dup2\n        /* \"#utility.yul\":9069:9090   */\n      tag_189\n      jump\t// in\n    tag_314:\n        /* \"#utility.yul\":9062:9067   */\n      dup2\n        /* \"#utility.yul\":9059:9091   */\n      eq\n        /* \"#utility.yul\":9049:9109   */\n      tag_315\n      jumpi\n        /* \"#utility.yul\":9105:9106   */\n      0x00\n        /* \"#utility.yul\":9102:9103   */\n      dup1\n        /* \"#utility.yul\":9095:9107   */\n      revert\n        /* \"#utility.yul\":9049:9109   */\n    tag_315:\n        /* \"#utility.yul\":8999:9115   */\n      pop\n      jump\t// out\n        /* \"#utility.yul\":9121:9258   */\n    tag_191:\n        /* \"#utility.yul\":9175:9180   */\n      0x00\n        /* \"#utility.yul\":9206:9212   */\n      dup2\n        /* \"#utility.yul\":9200:9213   */\n      mload\n        /* \"#utility.yul\":9191:9213   */\n      swap1\n      pop\n        /* \"#utility.yul\":9222:9252   */\n      tag_317\n        /* \"#utility.yul\":9246:9251   */\n      dup2\n        /* \"#utility.yul\":9222:9252   */\n      tag_190\n      jump\t// in\n    tag_317:\n        /* \"#utility.yul\":9121:9258   */\n      swap3\n      swap2\n      pop\n      pop\n      jump\t// out\n        /* \"#utility.yul\":9264:9609   */\n    tag_92:\n        /* \"#utility.yul\":9331:9337   */\n      0x00\n        /* \"#utility.yul\":9380:9382   */\n      0x20\n        /* \"#utility.yul\":9368:9377   */\n      dup3\n        /* \"#utility.yul\":9359:9366   */\n      dup5\n        /* \"#utility.yul\":9355:9378   */\n      sub\n        /* \"#utility.yul\":9351:9383   */\n      slt\n        /* \"#utility.yul\":9348:9467   */\n      iszero\n      tag_319\n      jumpi\n        /* \"#utility.yul\":9386:9465   */\n      tag_320\n      tag_159\n      jump\t// in\n    tag_320:\n        /* \"#utility.yul\":9348:9467   */\n    tag_319:\n        /* \"#utility.yul\":9506:9507   */\n      0x00\n        /* \"#utility.yul\":9531:9592   */\n      tag_321\n        /* \"#utility.yul\":9584:9591   */\n      dup5\n        /* \"#utility.yul\":9575:9581   */\n      dup3\n        /* \"#utility.yul\":9564:9573   */\n      dup6\n        /* \"#utility.yul\":9560:9582   */\n      add\n        /* \"#utility.yul\":9531:9592   */\n      tag_191\n      jump\t// in\n    tag_321:\n        /* \"#utility.yul\":9521:9592   */\n      swap2\n      pop\n        /* \"#utility.yul\":9477:9602   */\n      pop\n        /* \"#utility.yul\":9264:9609   */\n      swap3\n      swap2\n      pop\n      pop\n      jump\t// out\n        /* \"#utility.yul\":9615:9790   */\n    tag_192:\n        /* \"#utility.yul\":9755:9782   */\n      0x4661696c656420746f207472616e7366657220746f6b656e7300000000000000\n        /* \"#utility.yul\":9751:9752   */\n      0x00\n        /* \"#utility.yul\":9743:9749   */\n      dup3\n        /* \"#utility.yul\":9739:9753   */\n      add\n        /* \"#utility.yul\":9732:9783   */\n      mstore\n        /* \"#utility.yul\":9615:9790   */\n      pop\n      jump\t// out\n        /* \"#utility.yul\":9796:10162   */\n    tag_193:\n        /* \"#utility.yul\":9938:9941   */\n      0x00\n        /* \"#utility.yul\":9959:10026   */\n      tag_324\n        /* \"#utility.yul\":10023:10025   */\n      0x19\n        /* \"#utility.yul\":10018:10021   */\n      dup4\n        /* \"#utility.yul\":9959:10026   */\n      tag_183\n      jump\t// in\n    tag_324:\n        /* \"#utility.yul\":9952:10026   */\n      swap2\n      pop\n        /* \"#utility.yul\":10035:10128   */\n      tag_325\n        /* \"#utility.yul\":10124:10127   */\n      dup3\n        /* \"#utility.yul\":10035:10128   */\n      tag_192\n      jump\t// in\n    tag_325:\n        /* \"#utility.yul\":10153:10155   */\n      0x20\n        /* \"#utility.yul\":10148:10151   */\n      dup3\n        /* \"#utility.yul\":10144:10156   */\n      add\n        /* \"#utility.yul\":10137:10156   */\n      swap1\n      pop\n        /* \"#utility.yul\":9796:10162   */\n      swap2\n      swap1\n      pop\n      jump\t// out\n        /* \"#utility.yul\":10168:10587   */\n    tag_95:\n        /* \"#utility.yul\":10334:10338   */\n      0x00\n        /* \"#utility.yul\":10372:10374   */\n      0x20\n        /* \"#utility.yul\":10361:10370   */\n      dup3\n        /* \"#utility.yul\":10357:10375   */\n      add\n        /* \"#utility.yul\":10349:10375   */\n      swap1\n      pop\n        /* \"#utility.yul\":10421:10430   */\n      dup2\n        /* \"#utility.yul\":10415:10419   */\n      dup2\n        /* \"#utility.yul\":10411:10431   */\n      sub\n        /* \"#utility.yul\":10407:10408   */\n      0x00\n        /* \"#utility.yul\":10396:10405   */\n      dup4\n        /* \"#utility.yul\":10392:10409   */\n      add\n        /* \"#utility.yul\":10385:10432   */\n      mstore\n        /* \"#utility.yul\":10449:10580   */\n      tag_327\n        /* \"#utility.yul\":10575:10579   */\n      dup2\n        /* \"#utility.yul\":10449:10580   */\n      tag_193\n      jump\t// in\n    tag_327:\n        /* \"#utility.yul\":10441:10580   */\n      swap1\n      pop\n        /* \"#utility.yul\":10168:10587   */\n      swap2\n      swap1\n      pop\n      jump\t// out\n        /* \"#utility.yul\":10593:10768   */\n    tag_194:\n        /* \"#utility.yul\":10733:10760   */\n      0x5374616b696e67207374696c6c20696e2070726f677265737300000000000000\n        /* \"#utility.yul\":10729:10730   */\n      0x00\n        /* \"#utility.yul\":10721:10727   */\n      dup3\n        /* \"#utility.yul\":10717:10731   */\n      add\n        /* \"#utility.yul\":10710:10761   */\n      mstore\n        /* \"#utility.yul\":10593:10768   */\n      pop\n      jump\t// out\n        /* \"#utility.yul\":10774:11140   */\n    tag_195:\n        /* \"#utility.yul\":10916:10919   */\n      0x00\n        /* \"#utility.yul\":10937:11004   */\n      tag_330\n        /* \"#utility.yul\":11001:11003   */\n      0x19\n        /* \"#utility.yul\":10996:10999   */\n      dup4\n        /* \"#utility.yul\":10937:11004   */\n      tag_183\n      jump\t// in\n    tag_330:\n        /* \"#utility.yul\":10930:11004   */\n      swap2\n      pop\n        /* \"#utility.yul\":11013:11106   */\n      tag_331\n        /* \"#utility.yul\":11102:11105   */\n      dup3\n        /* \"#utility.yul\":11013:11106   */\n      tag_194\n      jump\t// in\n    tag_331:\n        /* \"#utility.yul\":11131:11133   */\n      0x20\n        /* \"#utility.yul\":11126:11129   */\n      dup3\n        /* \"#utility.yul\":11122:11134   */\n      add\n        /* \"#utility.yul\":11115:11134   */\n      swap1\n      pop\n        /* \"#utility.yul\":10774:11140   */\n      swap2\n      swap1\n      pop\n      jump\t// out\n        /* \"#utility.yul\":11146:11565   */\n    tag_100:\n        /* \"#utility.yul\":11312:11316   */\n      0x00\n        /* \"#utility.yul\":11350:11352   */\n      0x20\n        /* \"#utility.yul\":11339:11348   */\n      dup3\n        /* \"#utility.yul\":11335:11353   */\n      add\n        /* \"#utility.yul\":11327:11353   */\n      swap1\n      pop\n        /* \"#utility.yul\":11399:11408   */\n      dup2\n        /* \"#utility.yul\":11393:11397   */\n      dup2\n        /* \"#utility.yul\":11389:11409   */\n      sub\n        /* \"#utility.yul\":11385:11386   */\n      0x00\n        /* \"#utility.yul\":11374:11383   */\n      dup4\n        /* \"#utility.yul\":11370:11387   */\n      add\n        /* \"#utility.yul\":11363:11410   */\n      mstore\n        /* \"#utility.yul\":11427:11558   */\n      tag_333\n        /* \"#utility.yul\":11553:11557   */\n      dup2\n        /* \"#utility.yul\":11427:11558   */\n      tag_195\n      jump\t// in\n    tag_333:\n        /* \"#utility.yul\":11419:11558   */\n      swap1\n      pop\n        /* \"#utility.yul\":11146:11565   */\n      swap2\n      swap1\n      pop\n      jump\t// out\n        /* \"#utility.yul\":11571:11719   */\n    tag_196:\n        /* \"#utility.yul\":11673:11684   */\n      0x00\n        /* \"#utility.yul\":11710:11713   */\n      dup2\n        /* \"#utility.yul\":11695:11713   */\n      swap1\n      pop\n        /* \"#utility.yul\":11571:11719   */\n      swap3\n      swap2\n      pop\n      pop\n      jump\t// out\n        /* \"#utility.yul\":11725:11881   */\n    tag_197:\n        /* \"#utility.yul\":11865:11873   */\n      0x616d6f756e740000000000000000000000000000000000000000000000000000\n        /* \"#utility.yul\":11861:11862   */\n      0x00\n        /* \"#utility.yul\":11853:11859   */\n      dup3\n        /* \"#utility.yul\":11849:11863   */\n      add\n        /* \"#utility.yul\":11842:11874   */\n      mstore\n        /* \"#utility.yul\":11725:11881   */\n      pop\n      jump\t// out\n        /* \"#utility.yul\":11887:12287   */\n    tag_198:\n        /* \"#utility.yul\":12047:12050   */\n      0x00\n        /* \"#utility.yul\":12068:12152   */\n      tag_337\n        /* \"#utility.yul\":12150:12151   */\n      0x06\n        /* \"#utility.yul\":12145:12148   */\n      dup4\n        /* \"#utility.yul\":12068:12152   */\n      tag_196\n      jump\t// in\n    tag_337:\n        /* \"#utility.yul\":12061:12152   */\n      swap2\n      pop\n        /* \"#utility.yul\":12161:12254   */\n      tag_338\n        /* \"#utility.yul\":12250:12253   */\n      dup3\n        /* \"#utility.yul\":12161:12254   */\n      tag_197\n      jump\t// in\n    tag_338:\n        /* \"#utility.yul\":12279:12280   */\n      0x06\n        /* \"#utility.yul\":12274:12277   */\n      dup3\n        /* \"#utility.yul\":12270:12281   */\n      add\n        /* \"#utility.yul\":12263:12281   */\n      swap1\n      pop\n        /* \"#utility.yul\":11887:12287   */\n      swap2\n      swap1\n      pop\n      jump\t// out\n        /* \"#utility.yul\":12293:12674   */\n    tag_104:\n        /* \"#utility.yul\":12478:12481   */\n      0x00\n        /* \"#utility.yul\":12500:12648   */\n      tag_340\n        /* \"#utility.yul\":12644:12647   */\n      dup3\n        /* \"#utility.yul\":12500:12648   */\n      tag_198\n      jump\t// in\n    tag_340:\n        /* \"#utility.yul\":12493:12648   */\n      swap2\n      pop\n        /* \"#utility.yul\":12665:12668   */\n      dup2\n        /* \"#utility.yul\":12658:12668   */\n      swap1\n      pop\n        /* \"#utility.yul\":12293:12674   */\n      swap2\n      swap1\n      pop\n      jump\t// out\n        /* \"#utility.yul\":12680:12902   */\n    tag_107:\n        /* \"#utility.yul\":12773:12777   */\n      0x00\n        /* \"#utility.yul\":12811:12813   */\n      0x20\n        /* \"#utility.yul\":12800:12809   */\n      dup3\n        /* \"#utility.yul\":12796:12814   */\n      add\n        /* \"#utility.yul\":12788:12814   */\n      swap1\n      pop\n        /* \"#utility.yul\":12824:12895   */\n      tag_342\n        /* \"#utility.yul\":12892:12893   */\n      0x00\n        /* \"#utility.yul\":12881:12890   */\n      dup4\n        /* \"#utility.yul\":12877:12894   */\n      add\n        /* \"#utility.yul\":12868:12874   */\n      dup5\n        /* \"#utility.yul\":12824:12895   */\n      tag_188\n      jump\t// in\n    tag_342:\n        /* \"#utility.yul\":12680:12902   */\n      swap3\n      swap2\n      pop\n      pop\n      jump\t// out\n        /* \"#utility.yul\":12908:13051   */\n    tag_199:\n        /* \"#utility.yul\":12965:12970   */\n      0x00\n        /* \"#utility.yul\":12996:13002   */\n      dup2\n        /* \"#utility.yul\":12990:13003   */\n      mload\n        /* \"#utility.yul\":12981:13003   */\n      swap1\n      pop\n        /* \"#utility.yul\":13012:13045   */\n      tag_344\n        /* \"#utility.yul\":13039:13044   */\n      dup2\n        /* \"#utility.yul\":13012:13045   */\n      tag_175\n      jump\t// in\n    tag_344:\n        /* \"#utility.yul\":12908:13051   */\n      swap3\n      swap2\n      pop\n      pop\n      jump\t// out\n        /* \"#utility.yul\":13057:13408   */\n    tag_111:\n        /* \"#utility.yul\":13127:13133   */\n      0x00\n        /* \"#utility.yul\":13176:13178   */\n      0x20\n        /* \"#utility.yul\":13164:13173   */\n      dup3\n        /* \"#utility.yul\":13155:13162   */\n      dup5\n        /* \"#utility.yul\":13151:13174   */\n      sub\n        /* \"#utility.yul\":13147:13179   */\n      slt\n        /* \"#utility.yul\":13144:13263   */\n      iszero\n      tag_346\n      jumpi\n        /* \"#utility.yul\":13182:13261   */\n      tag_347\n      tag_159\n      jump\t// in\n    tag_347:\n        /* \"#utility.yul\":13144:13263   */\n    tag_346:\n        /* \"#utility.yul\":13302:13303   */\n      0x00\n        /* \"#utility.yul\":13327:13391   */\n      tag_348\n        /* \"#utility.yul\":13383:13390   */\n      dup5\n        /* \"#utility.yul\":13374:13380   */\n      dup3\n        /* \"#utility.yul\":13363:13372   */\n      dup6\n        /* \"#utility.yul\":13359:13381   */\n      add\n        /* \"#utility.yul\":13327:13391   */\n      tag_199\n      jump\t// in\n    tag_348:\n        /* \"#utility.yul\":13317:13391   */\n      swap2\n      pop\n        /* \"#utility.yul\":13273:13401   */\n      pop\n        /* \"#utility.yul\":13057:13408   */\n      swap3\n      swap2\n      pop\n      pop\n      jump\t// out\n        /* \"#utility.yul\":13414:13591   */\n    tag_200:\n        /* \"#utility.yul\":13554:13583   */\n      0x4e6f7420656e6f75676820746f6b656e7320666f72207374616b650000000000\n        /* \"#utility.yul\":13550:13551   */\n      0x00\n        /* \"#utility.yul\":13542:13548   */\n      dup3\n        /* \"#utility.yul\":13538:13552   */\n      add\n        /* \"#utility.yul\":13531:13584   */\n      mstore\n        /* \"#utility.yul\":13414:13591   */\n      pop\n      jump\t// out\n        /* \"#utility.yul\":13597:13963   */\n    tag_201:\n        /* \"#utility.yul\":13739:13742   */\n      0x00\n        /* \"#utility.yul\":13760:13827   */\n      tag_351\n        /* \"#utility.yul\":13824:13826   */\n      0x1b\n        /* \"#utility.yul\":13819:13822   */\n      dup4\n        /* \"#utility.yul\":13760:13827   */\n      tag_183\n      jump\t// in\n    tag_351:\n        /* \"#utility.yul\":13753:13827   */\n      swap2\n      pop\n        /* \"#utility.yul\":13836:13929   */\n      tag_352\n        /* \"#utility.yul\":13925:13928   */\n      dup3\n        /* \"#utility.yul\":13836:13929   */\n      tag_200\n      jump\t// in\n    tag_352:\n        /* \"#utility.yul\":13954:13956   */\n      0x20\n        /* \"#utility.yul\":13949:13952   */\n      dup3\n        /* \"#utility.yul\":13945:13957   */\n      add\n        /* \"#utility.yul\":13938:13957   */\n      swap1\n      pop\n        /* \"#utility.yul\":13597:13963   */\n      swap2\n      swap1\n      pop\n      jump\t// out\n        /* \"#utility.yul\":13969:14388   */\n    tag_114:\n        /* \"#utility.yul\":14135:14139   */\n      0x00\n        /* \"#utility.yul\":14173:14175   */\n      0x20\n        /* \"#utility.yul\":14162:14171   */\n      dup3\n        /* \"#utility.yul\":14158:14176   */\n      add\n        /* \"#utility.yul\":14150:14176   */\n      swap1\n      pop\n        /* \"#utility.yul\":14222:14231   */\n      dup2\n        /* \"#utility.yul\":14216:14220   */\n      dup2\n        /* \"#utility.yul\":14212:14232   */\n      sub\n        /* \"#utility.yul\":14208:14209   */\n      0x00\n        /* \"#utility.yul\":14197:14206   */\n      dup4\n        /* \"#utility.yul\":14193:14210   */\n      add\n        /* \"#utility.yul\":14186:14233   */\n      mstore\n        /* \"#utility.yul\":14250:14381   */\n      tag_354\n        /* \"#utility.yul\":14376:14380   */\n      dup2\n        /* \"#utility.yul\":14250:14381   */\n      tag_201\n      jump\t// in\n    tag_354:\n        /* \"#utility.yul\":14242:14381   */\n      swap1\n      pop\n        /* \"#utility.yul\":13969:14388   */\n      swap2\n      swap1\n      pop\n      jump\t// out\n        /* \"#utility.yul\":14394:14836   */\n    tag_116:\n        /* \"#utility.yul\":14543:14547   */\n      0x00\n        /* \"#utility.yul\":14581:14583   */\n      0x60\n        /* \"#utility.yul\":14570:14579   */\n      dup3\n        /* \"#utility.yul\":14566:14584   */\n      add\n        /* \"#utility.yul\":14558:14584   */\n      swap1\n      pop\n        /* \"#utility.yul\":14594:14665   */\n      tag_356\n        /* \"#utility.yul\":14662:14663   */\n      0x00\n        /* \"#utility.yul\":14651:14660   */\n      dup4\n        /* \"#utility.yul\":14647:14664   */\n      add\n        /* \"#utility.yul\":14638:14644   */\n      dup7\n        /* \"#utility.yul\":14594:14665   */\n      tag_188\n      jump\t// in\n    tag_356:\n        /* \"#utility.yul\":14675:14747   */\n      tag_357\n        /* \"#utility.yul\":14743:14745   */\n      0x20\n        /* \"#utility.yul\":14732:14741   */\n      dup4\n        /* \"#utility.yul\":14728:14746   */\n      add\n        /* \"#utility.yul\":14719:14725   */\n      dup6\n        /* \"#utility.yul\":14675:14747   */\n      tag_188\n      jump\t// in\n    tag_357:\n        /* \"#utility.yul\":14757:14829   */\n      tag_358\n        /* \"#utility.yul\":14825:14827   */\n      0x40\n        /* \"#utility.yul\":14814:14823   */\n      dup4\n        /* \"#utility.yul\":14810:14828   */\n      add\n        /* \"#utility.yul\":14801:14807   */\n      dup5\n        /* \"#utility.yul\":14757:14829   */\n      tag_157\n      jump\t// in\n    tag_358:\n        /* \"#utility.yul\":14394:14836   */\n      swap5\n      swap4\n      pop\n      pop\n      pop\n      pop\n      jump\t// out\n        /* \"#utility.yul\":14842:15013   */\n    tag_202:\n        /* \"#utility.yul\":14982:15005   */\n      0x4661696c656420746f207374616b6520746f6b656e0000000000000000000000\n        /* \"#utility.yul\":14978:14979   */\n      0x00\n        /* \"#utility.yul\":14970:14976   */\n      dup3\n        /* \"#utility.yul\":14966:14980   */\n      add\n        /* \"#utility.yul\":14959:15006   */\n      mstore\n        /* \"#utility.yul\":14842:15013   */\n      pop\n      jump\t// out\n        /* \"#utility.yul\":15019:15385   */\n    tag_203:\n        /* \"#utility.yul\":15161:15164   */\n      0x00\n        /* \"#utility.yul\":15182:15249   */\n      tag_361\n        /* \"#utility.yul\":15246:15248   */\n      0x15\n        /* \"#utility.yul\":15241:15244   */\n      dup4\n        /* \"#utility.yul\":15182:15249   */\n      tag_183\n      jump\t// in\n    tag_361:\n        /* \"#utility.yul\":15175:15249   */\n      swap2\n      pop\n        /* \"#utility.yul\":15258:15351   */\n      tag_362\n        /* \"#utility.yul\":15347:15350   */\n      dup3\n        /* \"#utility.yul\":15258:15351   */\n      tag_202\n      jump\t// in\n    tag_362:\n        /* \"#utility.yul\":15376:15378   */\n      0x20\n        /* \"#utility.yul\":15371:15374   */\n      dup3\n        /* \"#utility.yul\":15367:15379   */\n      add\n        /* \"#utility.yul\":15360:15379   */\n      swap1\n      pop\n        /* \"#utility.yul\":15019:15385   */\n      swap2\n      swap1\n      pop\n      jump\t// out\n        /* \"#utility.yul\":15391:15810   */\n    tag_122:\n        /* \"#utility.yul\":15557:15561   */\n      0x00\n        /* \"#utility.yul\":15595:15597   */\n      0x20\n        /* \"#utility.yul\":15584:15593   */\n      dup3\n        /* \"#utility.yul\":15580:15598   */\n      add\n        /* \"#utility.yul\":15572:15598   */\n      swap1\n      pop\n        /* \"#utility.yul\":15644:15653   */\n      dup2\n        /* \"#utility.yul\":15638:15642   */\n      dup2\n        /* \"#utility.yul\":15634:15654   */\n      sub\n        /* \"#utility.yul\":15630:15631   */\n      0x00\n        /* \"#utility.yul\":15619:15628   */\n      dup4\n        /* \"#utility.yul\":15615:15632   */\n      add\n        /* \"#utility.yul\":15608:15655   */\n      mstore\n        /* \"#utility.yul\":15672:15803   */\n      tag_364\n        /* \"#utility.yul\":15798:15802   */\n      dup2\n        /* \"#utility.yul\":15672:15803   */\n      tag_203\n      jump\t// in\n    tag_364:\n        /* \"#utility.yul\":15664:15803   */\n      swap1\n      pop\n        /* \"#utility.yul\":15391:15810   */\n      swap2\n      swap1\n      pop\n      jump\t// out\n        /* \"#utility.yul\":15816:15975   */\n    tag_204:\n        /* \"#utility.yul\":15956:15967   */\n      0x7570646174656441740000000000000000000000000000000000000000000000\n        /* \"#utility.yul\":15952:15953   */\n      0x00\n        /* \"#utility.yul\":15944:15950   */\n      dup3\n        /* \"#utility.yul\":15940:15954   */\n      add\n        /* \"#utility.yul\":15933:15968   */\n      mstore\n        /* \"#utility.yul\":15816:15975   */\n      pop\n      jump\t// out\n        /* \"#utility.yul\":15981:16381   */\n    tag_205:\n        /* \"#utility.yul\":16141:16144   */\n      0x00\n        /* \"#utility.yul\":16162:16246   */\n      tag_367\n        /* \"#utility.yul\":16244:16245   */\n      0x09\n        /* \"#utility.yul\":16239:16242   */\n      dup4\n        /* \"#utility.yul\":16162:16246   */\n      tag_196\n      jump\t// in\n    tag_367:\n        /* \"#utility.yul\":16155:16246   */\n      swap2\n      pop\n        /* \"#utility.yul\":16255:16348   */\n      tag_368\n        /* \"#utility.yul\":16344:16347   */\n      dup3\n        /* \"#utility.yul\":16255:16348   */\n      tag_204\n      jump\t// in\n    tag_368:\n        /* \"#utility.yul\":16373:16374   */\n      0x09\n        /* \"#utility.yul\":16368:16371   */\n      dup3\n        /* \"#utility.yul\":16364:16375   */\n      add\n        /* \"#utility.yul\":16357:16375   */\n      swap1\n      pop\n        /* \"#utility.yul\":15981:16381   */\n      swap2\n      swap1\n      pop\n      jump\t// out\n        /* \"#utility.yul\":16387:16768   */\n    tag_128:\n        /* \"#utility.yul\":16572:16575   */\n      0x00\n        /* \"#utility.yul\":16594:16742   */\n      tag_370\n        /* \"#utility.yul\":16738:16741   */\n      dup3\n        /* \"#utility.yul\":16594:16742   */\n      tag_205\n      jump\t// in\n    tag_370:\n        /* \"#utility.yul\":16587:16742   */\n      swap2\n      pop\n        /* \"#utility.yul\":16759:16762   */\n      dup2\n        /* \"#utility.yul\":16752:16762   */\n      swap1\n      pop\n        /* \"#utility.yul\":16387:16768   */\n      swap2\n      swap1\n      pop\n      jump\t// out\n        /* \"#utility.yul\":16774:16999   */\n    tag_206:\n        /* \"#utility.yul\":16914:16948   */\n      0x63616e277420736574206461746520746f20612070726576696f75732074696d\n        /* \"#utility.yul\":16910:16911   */\n      0x00\n        /* \"#utility.yul\":16902:16908   */\n      dup3\n        /* \"#utility.yul\":16898:16912   */\n      add\n        /* \"#utility.yul\":16891:16949   */\n      mstore\n        /* \"#utility.yul\":16983:16991   */\n      0x657374616d700000000000000000000000000000000000000000000000000000\n        /* \"#utility.yul\":16978:16980   */\n      0x20\n        /* \"#utility.yul\":16970:16976   */\n      dup3\n        /* \"#utility.yul\":16966:16981   */\n      add\n        /* \"#utility.yul\":16959:16992   */\n      mstore\n        /* \"#utility.yul\":16774:16999   */\n      pop\n      jump\t// out\n        /* \"#utility.yul\":17005:17371   */\n    tag_207:\n        /* \"#utility.yul\":17147:17150   */\n      0x00\n        /* \"#utility.yul\":17168:17235   */\n      tag_373\n        /* \"#utility.yul\":17232:17234   */\n      0x26\n        /* \"#utility.yul\":17227:17230   */\n      dup4\n        /* \"#utility.yul\":17168:17235   */\n      tag_183\n      jump\t// in\n    tag_373:\n        /* \"#utility.yul\":17161:17235   */\n      swap2\n      pop\n        /* \"#utility.yul\":17244:17337   */\n      tag_374\n        /* \"#utility.yul\":17333:17336   */\n      dup3\n        /* \"#utility.yul\":17244:17337   */\n      tag_206\n      jump\t// in\n    tag_374:\n        /* \"#utility.yul\":17362:17364   */\n      0x40\n        /* \"#utility.yul\":17357:17360   */\n      dup3\n        /* \"#utility.yul\":17353:17365   */\n      add\n        /* \"#utility.yul\":17346:17365   */\n      swap1\n      pop\n        /* \"#utility.yul\":17005:17371   */\n      swap2\n      swap1\n      pop\n      jump\t// out\n        /* \"#utility.yul\":17377:17796   */\n    tag_139:\n        /* \"#utility.yul\":17543:17547   */\n      0x00\n        /* \"#utility.yul\":17581:17583   */\n      0x20\n        /* \"#utility.yul\":17570:17579   */\n      dup3\n        /* \"#utility.yul\":17566:17584   */\n      add\n        /* \"#utility.yul\":17558:17584   */\n      swap1\n      pop\n        /* \"#utility.yul\":17630:17639   */\n      dup2\n        /* \"#utility.yul\":17624:17628   */\n      dup2\n        /* \"#utility.yul\":17620:17640   */\n      sub\n        /* \"#utility.yul\":17616:17617   */\n      0x00\n        /* \"#utility.yul\":17605:17614   */\n      dup4\n        /* \"#utility.yul\":17601:17618   */\n      add\n        /* \"#utility.yul\":17594:17641   */\n      mstore\n        /* \"#utility.yul\":17658:17789   */\n      tag_376\n        /* \"#utility.yul\":17784:17788   */\n      dup2\n        /* \"#utility.yul\":17658:17789   */\n      tag_207\n      jump\t// in\n    tag_376:\n        /* \"#utility.yul\":17650:17789   */\n      swap1\n      pop\n        /* \"#utility.yul\":17377:17796   */\n      swap2\n      swap1\n      pop\n      jump\t// out\n        /* \"#utility.yul\":17802:17982   */\n    tag_208:\n        /* \"#utility.yul\":17942:17974   */\n      0x596f752068617665206e6f74207374616b656420616e7920746f6b656e730000\n        /* \"#utility.yul\":17938:17939   */\n      0x00\n        /* \"#utility.yul\":17930:17936   */\n      dup3\n        /* \"#utility.yul\":17926:17940   */\n      add\n        /* \"#utility.yul\":17919:17975   */\n      mstore\n        /* \"#utility.yul\":17802:17982   */\n      pop\n      jump\t// out\n        /* \"#utility.yul\":17988:18354   */\n    tag_209:\n        /* \"#utility.yul\":18130:18133   */\n      0x00\n        /* \"#utility.yul\":18151:18218   */\n      tag_379\n        /* \"#utility.yul\":18215:18217   */\n      0x1e\n        /* \"#utility.yul\":18210:18213   */\n      dup4\n        /* \"#utility.yul\":18151:18218   */\n      tag_183\n      jump\t// in\n    tag_379:\n        /* \"#utility.yul\":18144:18218   */\n      swap2\n      pop\n        /* \"#utility.yul\":18227:18320   */\n      tag_380\n        /* \"#utility.yul\":18316:18319   */\n      dup3\n        /* \"#utility.yul\":18227:18320   */\n      tag_208\n      jump\t// in\n    tag_380:\n        /* \"#utility.yul\":18345:18347   */\n      0x20\n        /* \"#utility.yul\":18340:18343   */\n      dup3\n        /* \"#utility.yul\":18336:18348   */\n      add\n        /* \"#utility.yul\":18329:18348   */\n      swap1\n      pop\n        /* \"#utility.yul\":17988:18354   */\n      swap2\n      swap1\n      pop\n      jump\t// out\n        /* \"#utility.yul\":18360:18779   */\n    tag_145:\n        /* \"#utility.yul\":18526:18530   */\n      0x00\n        /* \"#utility.yul\":18564:18566   */\n      0x20\n        /* \"#utility.yul\":18553:18562   */\n      dup3\n        /* \"#utility.yul\":18549:18567   */\n      add\n        /* \"#utility.yul\":18541:18567   */\n      swap1\n      pop\n        /* \"#utility.yul\":18613:18622   */\n      dup2\n        /* \"#utility.yul\":18607:18611   */\n      dup2\n        /* \"#utility.yul\":18603:18623   */\n      sub\n        /* \"#utility.yul\":18599:18600   */\n      0x00\n        /* \"#utility.yul\":18588:18597   */\n      dup4\n        /* \"#utility.yul\":18584:18601   */\n      add\n        /* \"#utility.yul\":18577:18624   */\n      mstore\n        /* \"#utility.yul\":18641:18772   */\n      tag_382\n        /* \"#utility.yul\":18767:18771   */\n      dup2\n        /* \"#utility.yul\":18641:18772   */\n      tag_209\n      jump\t// in\n    tag_382:\n        /* \"#utility.yul\":18633:18772   */\n      swap1\n      pop\n        /* \"#utility.yul\":18360:18779   */\n      swap2\n      swap1\n      pop\n      jump\t// out\n        /* \"#utility.yul\":18785:18965   */\n    tag_210:\n        /* \"#utility.yul\":18833:18910   */\n      0x4e487b7100000000000000000000000000000000000000000000000000000000\n        /* \"#utility.yul\":18830:18831   */\n      0x00\n        /* \"#utility.yul\":18823:18911   */\n      mstore\n        /* \"#utility.yul\":18930:18934   */\n      0x12\n        /* \"#utility.yul\":18927:18928   */\n      0x04\n        /* \"#utility.yul\":18920:18935   */\n      mstore\n        /* \"#utility.yul\":18954:18958   */\n      0x24\n        /* \"#utility.yul\":18951:18952   */\n      0x00\n        /* \"#utility.yul\":18944:18959   */\n      revert\n        /* \"#utility.yul\":18971:19156   */\n    tag_149:\n        /* \"#utility.yul\":19011:19012   */\n      0x00\n        /* \"#utility.yul\":19028:19048   */\n      tag_385\n        /* \"#utility.yul\":19046:19047   */\n      dup3\n        /* \"#utility.yul\":19028:19048   */\n      tag_156\n      jump\t// in\n    tag_385:\n        /* \"#utility.yul\":19023:19048   */\n      swap2\n      pop\n        /* \"#utility.yul\":19062:19082   */\n      tag_386\n        /* \"#utility.yul\":19080:19081   */\n      dup4\n        /* \"#utility.yul\":19062:19082   */\n      tag_156\n      jump\t// in\n    tag_386:\n        /* \"#utility.yul\":19057:19082   */\n      swap3\n      pop\n        /* \"#utility.yul\":19101:19102   */\n      dup3\n        /* \"#utility.yul\":19091:19126   */\n      tag_387\n      jumpi\n        /* \"#utility.yul\":19106:19124   */\n      tag_388\n      tag_210\n      jump\t// in\n    tag_388:\n        /* \"#utility.yul\":19091:19126   */\n    tag_387:\n        /* \"#utility.yul\":19148:19149   */\n      dup3\n        /* \"#utility.yul\":19145:19146   */\n      dup3\n        /* \"#utility.yul\":19141:19150   */\n      div\n        /* \"#utility.yul\":19136:19150   */\n      swap1\n      pop\n        /* \"#utility.yul\":18971:19156   */\n      swap3\n      swap2\n      pop\n      pop\n      jump\t// out\n        /* \"#utility.yul\":19162:19572   */\n    tag_152:\n        /* \"#utility.yul\":19202:19209   */\n      0x00\n        /* \"#utility.yul\":19225:19245   */\n      tag_390\n        /* \"#utility.yul\":19243:19244   */\n      dup3\n        /* \"#utility.yul\":19225:19245   */\n      tag_156\n      jump\t// in\n    tag_390:\n        /* \"#utility.yul\":19220:19245   */\n      swap2\n      pop\n        /* \"#utility.yul\":19259:19279   */\n      tag_391\n        /* \"#utility.yul\":19277:19278   */\n      dup4\n        /* \"#utility.yul\":19259:19279   */\n      tag_156\n      jump\t// in\n    tag_391:\n        /* \"#utility.yul\":19254:19279   */\n      swap3\n      pop\n        /* \"#utility.yul\":19314:19315   */\n      dup3\n        /* \"#utility.yul\":19311:19312   */\n      dup3\n        /* \"#utility.yul\":19307:19316   */\n      mul\n        /* \"#utility.yul\":19336:19366   */\n      tag_392\n        /* \"#utility.yul\":19354:19365   */\n      dup2\n        /* \"#utility.yul\":19336:19366   */\n      tag_156\n      jump\t// in\n    tag_392:\n        /* \"#utility.yul\":19325:19366   */\n      swap2\n      pop\n        /* \"#utility.yul\":19515:19516   */\n      dup3\n        /* \"#utility.yul\":19506:19513   */\n      dup3\n        /* \"#utility.yul\":19502:19517   */\n      div\n        /* \"#utility.yul\":19499:19500   */\n      dup5\n        /* \"#utility.yul\":19496:19518   */\n      eq\n        /* \"#utility.yul\":19476:19477   */\n      dup4\n        /* \"#utility.yul\":19469:19478   */\n      iszero\n        /* \"#utility.yul\":19449:19532   */\n      or\n        /* \"#utility.yul\":19426:19565   */\n      tag_393\n      jumpi\n        /* \"#utility.yul\":19545:19563   */\n      tag_394\n      tag_182\n      jump\t// in\n    tag_394:\n        /* \"#utility.yul\":19426:19565   */\n    tag_393:\n        /* \"#utility.yul\":19210:19572   */\n      pop\n        /* \"#utility.yul\":19162:19572   */\n      swap3\n      swap2\n      pop\n      pop\n      jump\t// out\n\n    auxdata: 0xa2646970667358221220dce676e7166ad5f00bf29754bce4f12a58407442e4bac2efd619789990f9aa4d64736f6c63430008120033\n}\n",
				"bytecode": {
					"linkReferences": {},
					"object": "60806040523480156200001157600080fd5b50604051620018cd380380620018cd83398181016040528101906200003791906200012a565b816000806101000a81548173ffffffffffffffffffffffffffffffffffffffff021916908373ffffffffffffffffffffffffffffffffffffffff16021790555080600160006101000a81548173ffffffffffffffffffffffffffffffffffffffff021916908373ffffffffffffffffffffffffffffffffffffffff160217905550505062000171565b600080fd5b600073ffffffffffffffffffffffffffffffffffffffff82169050919050565b6000620000f282620000c5565b9050919050565b6200010481620000e5565b81146200011057600080fd5b50565b6000815190506200012481620000f9565b92915050565b60008060408385031215620001445762000143620000c0565b5b6000620001548582860162000113565b9250506020620001678582860162000113565b9150509250929050565b61174c80620001816000396000f3fe608060405234801561001057600080fd5b50600436106100f55760003560e01c80637519ab5011610097578063b69ef8a811610066578063b69ef8a814610252578063cb82cc8f14610270578063d1af0c7d1461028c578063f6be71d1146102aa576100f5565b80637519ab50146101dc5780638b0e9f3f146101fa5780639e447fc614610218578063ad2e8c9b14610234576100f5565b806350d56aba116100d357806350d56aba14610154578063523a3f081461018457806367d3b488146101a057806372f702f3146101be576100f5565b80630fb5a6b4146100fa5780632c4e722e14610118578063327bcac514610136575b600080fd5b6101026102c6565b60405161010f9190610d20565b60405180910390f35b6101206102cc565b60405161012d9190610d20565b60405180910390f35b61013e6102d2565b60405161014b9190610d20565b60405180910390f35b61016e60048036038101906101699190610ef3565b6102d8565b60405161017b9190610d20565b60405180910390f35b61019e60048036038101906101999190610f7b565b610313565b005b6101a86105c8565b6040516101b59190610d20565b60405180910390f35b6101c66105ce565b6040516101d39190611007565b60405180910390f35b6101e46105f2565b6040516101f19190610d20565b60405180910390f35b6102026105f8565b60405161020f9190610d20565b60405180910390f35b610232600480360381019061022d9190610f7b565b6105fe565b005b61023c61064c565b6040516102499190610d20565b60405180910390f35b61025a610656565b6040516102679190610d20565b60405180910390f35b61028a60048036038101906102859190610f7b565b6106b7565b005b610294610ad9565b6040516102a19190611007565b60405180910390f35b6102c460048036038101906102bf9190610f7b565b610aff565b005b60045481565b60075481565b60035481565b600860205281600052604060002081805160208101820180518482526020830160208501208183528095505050505050600091509150505481565b6000600a60003373ffffffffffffffffffffffffffffffffffffffff1673ffffffffffffffffffffffffffffffffffffffff1681526020019081526020016000205461035d610b6d565b6103679190611051565b1180156103745750600081115b6103b3576040517f08c379a00000000000000000000000000000000000000000000000000000000081526004016103aa906110e2565b60405180910390fd5b80600960003373ffffffffffffffffffffffffffffffffffffffff1673ffffffffffffffffffffffffffffffffffffffff16815260200190815260200160002054600a60003373ffffffffffffffffffffffffffffffffffffffff1673ffffffffffffffffffffffffffffffffffffffff1681526020019081526020016000205461043c610b6d565b6104469190611051565b6104509190611102565b10610490576040517f08c379a0000000000000000000000000000000000000000000000000000000008152600401610487906111a8565b60405180910390fd5b600160009054906101000a900473ffffffffffffffffffffffffffffffffffffffff1673ffffffffffffffffffffffffffffffffffffffff1663a9059cbb33836040518363ffffffff1660e01b81526004016104ed9291906111d7565b6020604051808303816000875af115801561050c573d6000803e3d6000fd5b505050506040513d601f19601f820116820180604052508101906105309190611238565b61056f576040517f08c379a0000000000000000000000000000000000000000000000000000000008152600401610566906112b1565b60405180910390fd5b80600960003373ffffffffffffffffffffffffffffffffffffffff1673ffffffffffffffffffffffffffffffffffffffff16815260200190815260200160002060008282546105be9190611051565b9250508190555050565b60055481565b60008054906101000a900473ffffffffffffffffffffffffffffffffffffffff1681565b60065481565b60025481565b4260055410610642576040517f08c379a00000000000000000000000000000000000000000000000000000000081526004016106399061131d565b60405180910390fd5b8060078190555050565b6000600454905090565b6000600860003373ffffffffffffffffffffffffffffffffffffffff1673ffffffffffffffffffffffffffffffffffffffff1681526020019081526020016000206040516106a390611394565b908152602001604051809103902054905090565b8060008054906101000a900473ffffffffffffffffffffffffffffffffffffffff1673ffffffffffffffffffffffffffffffffffffffff166370a08231336040518263ffffffff1660e01b815260040161071191906113a9565b602060405180830381865afa15801561072e573d6000803e3d6000fd5b505050506040513d601f19601f8201168201806040525081019061075291906113d9565b1015610793576040517f08c379a000000000000000000000000000000000000000000000000000000000815260040161078a90611452565b60405180910390fd5b60008054906101000a900473ffffffffffffffffffffffffffffffffffffffff1673ffffffffffffffffffffffffffffffffffffffff166323b872dd3330846040518463ffffffff1660e01b81526004016107f093929190611472565b6020604051808303816000875af115801561080f573d6000803e3d6000fd5b505050506040513d601f19601f820116820180604052508101906108339190611238565b610872576040517f08c379a0000000000000000000000000000000000000000000000000000000008152600401610869906114f5565b60405180910390fd5b6108de81600860003373ffffffffffffffffffffffffffffffffffffffff1673ffffffffffffffffffffffffffffffffffffffff1681526020019081526020016000206040516108c190611394565b908152602001604051809103902054610cf190919063ffffffff16565b600860003373ffffffffffffffffffffffffffffffffffffffff1673ffffffffffffffffffffffffffffffffffffffff16815260200190815260200160002060405161092990611394565b9081526020016040518091039020819055506000600860003373ffffffffffffffffffffffffffffffffffffffff1673ffffffffffffffffffffffffffffffffffffffff16815260200190815260200160002060405161098890611561565b908152602001604051809103902054036109ff5742600860003373ffffffffffffffffffffffffffffffffffffffff1673ffffffffffffffffffffffffffffffffffffffff1681526020019081526020016000206040516109e890611561565b908152602001604051809103902081905550610abb565b610a07610b6d565b600a60003373ffffffffffffffffffffffffffffffffffffffff1673ffffffffffffffffffffffffffffffffffffffff1681526020019081526020016000206000828254610a559190611051565b9250508190555042600860003373ffffffffffffffffffffffffffffffffffffffff1673ffffffffffffffffffffffffffffffffffffffff168152602001908152602001600020604051610aa890611561565b9081526020016040518091039020819055505b610ad081600254610cf190919063ffffffff16565b60028190555050565b600160009054906101000a900473ffffffffffffffffffffffffffffffffffffffff1681565b4260055410610b43576040517f08c379a0000000000000000000000000000000000000000000000000000000008152600401610b3a906115e8565b60405180910390fd5b80600481905550610b5d4282610cf190919063ffffffff16565b6005819055504260068190555050565b600080600860003373ffffffffffffffffffffffffffffffffffffffff1673ffffffffffffffffffffffffffffffffffffffff168152602001908152602001600020604051610bbb90611394565b90815260200160405180910390205411610c0a576040517f08c379a0000000000000000000000000000000000000000000000000000000008152600401610c0190611654565b60405180910390fd5b600860003373ffffffffffffffffffffffffffffffffffffffff1673ffffffffffffffffffffffffffffffffffffffff168152602001908152602001600020604051610c5590611561565b90815260200160405180910390205442610c6f9190611102565b6064600754610c7e91906116a3565b600860003373ffffffffffffffffffffffffffffffffffffffff1673ffffffffffffffffffffffffffffffffffffffff168152602001908152602001600020604051610cc990611394565b908152602001604051809103902054610ce291906116d4565b610cec91906116d4565b905090565b60008183610cff9190611051565b905092915050565b6000819050919050565b610d1a81610d07565b82525050565b6000602082019050610d356000830184610d11565b92915050565b6000604051905090565b600080fd5b600080fd5b600073ffffffffffffffffffffffffffffffffffffffff82169050919050565b6000610d7a82610d4f565b9050919050565b610d8a81610d6f565b8114610d9557600080fd5b50565b600081359050610da781610d81565b92915050565b600080fd5b600080fd5b6000601f19601f8301169050919050565b7f4e487b7100000000000000000000000000000000000000000000000000000000600052604160045260246000fd5b610e0082610db7565b810181811067ffffffffffffffff82111715610e1f57610e1e610dc8565b5b80604052505050565b6000610e32610d3b565b9050610e3e8282610df7565b919050565b600067ffffffffffffffff821115610e5e57610e5d610dc8565b5b610e6782610db7565b9050602081019050919050565b82818337600083830152505050565b6000610e96610e9184610e43565b610e28565b905082815260208101848484011115610eb257610eb1610db2565b5b610ebd848285610e74565b509392505050565b600082601f830112610eda57610ed9610dad565b5b8135610eea848260208601610e83565b91505092915050565b60008060408385031215610f0a57610f09610d45565b5b6000610f1885828601610d98565b925050602083013567ffffffffffffffff811115610f3957610f38610d4a565b5b610f4585828601610ec5565b9150509250929050565b610f5881610d07565b8114610f6357600080fd5b50565b600081359050610f7581610f4f565b92915050565b600060208284031215610f9157610f90610d45565b5b6000610f9f84828501610f66565b91505092915050565b6000819050919050565b6000610fcd610fc8610fc384610d4f565b610fa8565b610d4f565b9050919050565b6000610fdf82610fb2565b9050919050565b6000610ff182610fd4565b9050919050565b61100181610fe6565b82525050565b600060208201905061101c6000830184610ff8565b92915050565b7f4e487b7100000000000000000000000000000000000000000000000000000000600052601160045260246000fd5b600061105c82610d07565b915061106783610d07565b925082820190508082111561107f5761107e611022565b5b92915050565b600082825260208201905092915050565b7f596f752068617665206e6f74206561726e656420616e79207265776172647300600082015250565b60006110cc601f83611085565b91506110d782611096565b602082019050919050565b600060208201905081810360008301526110fb816110bf565b9050919050565b600061110d82610d07565b915061111883610d07565b92508282039050818111156111305761112f611022565b5b92915050565b7f596f7520646f6e2774206861766520656e6f75676820746f207769746864726160008201527f7700000000000000000000000000000000000000000000000000000000000000602082015250565b6000611192602183611085565b915061119d82611136565b604082019050919050565b600060208201905081810360008301526111c181611185565b9050919050565b6111d181610d6f565b82525050565b60006040820190506111ec60008301856111c8565b6111f96020830184610d11565b9392505050565b60008115159050919050565b61121581611200565b811461122057600080fd5b50565b6000815190506112328161120c565b92915050565b60006020828403121561124e5761124d610d45565b5b600061125c84828501611223565b91505092915050565b7f4661696c656420746f207472616e7366657220746f6b656e7300000000000000600082015250565b600061129b601983611085565b91506112a682611265565b602082019050919050565b600060208201905081810360008301526112ca8161128e565b9050919050565b7f5374616b696e67207374696c6c20696e2070726f677265737300000000000000600082015250565b6000611307601983611085565b9150611312826112d1565b602082019050919050565b60006020820190508181036000830152611336816112fa565b9050919050565b600081905092915050565b7f616d6f756e740000000000000000000000000000000000000000000000000000600082015250565b600061137e60068361133d565b915061138982611348565b600682019050919050565b600061139f82611371565b9150819050919050565b60006020820190506113be60008301846111c8565b92915050565b6000815190506113d381610f4f565b92915050565b6000602082840312156113ef576113ee610d45565b5b60006113fd848285016113c4565b91505092915050565b7f4e6f7420656e6f75676820746f6b656e7320666f72207374616b650000000000600082015250565b600061143c601b83611085565b915061144782611406565b602082019050919050565b6000602082019050818103600083015261146b8161142f565b9050919050565b600060608201905061148760008301866111c8565b61149460208301856111c8565b6114a16040830184610d11565b949350505050565b7f4661696c656420746f207374616b6520746f6b656e0000000000000000000000600082015250565b60006114df601583611085565b91506114ea826114a9565b602082019050919050565b6000602082019050818103600083015261150e816114d2565b9050919050565b7f7570646174656441740000000000000000000000000000000000000000000000600082015250565b600061154b60098361133d565b915061155682611515565b600982019050919050565b600061156c8261153e565b9150819050919050565b7f63616e277420736574206461746520746f20612070726576696f75732074696d60008201527f657374616d700000000000000000000000000000000000000000000000000000602082015250565b60006115d2602683611085565b91506115dd82611576565b604082019050919050565b60006020820190508181036000830152611601816115c5565b9050919050565b7f596f752068617665206e6f74207374616b656420616e7920746f6b656e730000600082015250565b600061163e601e83611085565b915061164982611608565b602082019050919050565b6000602082019050818103600083015261166d81611631565b9050919050565b7f4e487b7100000000000000000000000000000000000000000000000000000000600052601260045260246000fd5b60006116ae82610d07565b91506116b983610d07565b9250826116c9576116c8611674565b5b828204905092915050565b60006116df82610d07565b91506116ea83610d07565b92508282026116f881610d07565b9150828204841483151761170f5761170e611022565b5b509291505056fea2646970667358221220dce676e7166ad5f00bf29754bce4f12a58407442e4bac2efd619789990f9aa4d64736f6c63430008120033",
					"opcodes": "PUSH1 0x80 PUSH1 0x40 MSTORE CALLVALUE DUP1 ISZERO PUSH3 0x11 JUMPI PUSH1 0x0 DUP1 REVERT JUMPDEST POP PUSH1 0x40 MLOAD PUSH3 0x18CD CODESIZE SUB DUP1 PUSH3 0x18CD DUP4 CODECOPY DUP2 DUP2 ADD PUSH1 0x40 MSTORE DUP2 ADD SWAP1 PUSH3 0x37 SWAP2 SWAP1 PUSH3 0x12A JUMP JUMPDEST DUP2 PUSH1 0x0 DUP1 PUSH2 0x100 EXP DUP2 SLOAD DUP2 PUSH20 0xFFFFFFFFFFFFFFFFFFFFFFFFFFFFFFFFFFFFFFFF MUL NOT AND SWAP1 DUP4 PUSH20 0xFFFFFFFFFFFFFFFFFFFFFFFFFFFFFFFFFFFFFFFF AND MUL OR SWAP1 SSTORE POP DUP1 PUSH1 0x1 PUSH1 0x0 PUSH2 0x100 EXP DUP2 SLOAD DUP2 PUSH20 0xFFFFFFFFFFFFFFFFFFFFFFFFFFFFFFFFFFFFFFFF MUL NOT AND SWAP1 DUP4 PUSH20 0xFFFFFFFFFFFFFFFFFFFFFFFFFFFFFFFFFFFFFFFF AND MUL OR SWAP1 SSTORE POP POP POP PUSH3 0x171 JUMP JUMPDEST PUSH1 0x0 DUP1 REVERT JUMPDEST PUSH1 0x0 PUSH20 0xFFFFFFFFFFFFFFFFFFFFFFFFFFFFFFFFFFFFFFFF DUP3 AND SWAP1 POP SWAP2 SWAP1 POP JUMP JUMPDEST PUSH1 0x0 PUSH3 0xF2 DUP3 PUSH3 0xC5 JUMP JUMPDEST SWAP1 POP SWAP2 SWAP1 POP JUMP JUMPDEST PUSH3 0x104 DUP2 PUSH3 0xE5 JUMP JUMPDEST DUP2 EQ PUSH3 0x110 JUMPI PUSH1 0x0 DUP1 REVERT JUMPDEST POP JUMP JUMPDEST PUSH1 0x0 DUP2 MLOAD SWAP1 POP PUSH3 0x124 DUP2 PUSH3 0xF9 JUMP JUMPDEST SWAP3 SWAP2 POP POP JUMP JUMPDEST PUSH1 0x0 DUP1 PUSH1 0x40 DUP4 DUP6 SUB SLT ISZERO PUSH3 0x144 JUMPI PUSH3 0x143 PUSH3 0xC0 JUMP JUMPDEST JUMPDEST PUSH1 0x0 PUSH3 0x154 DUP6 DUP3 DUP7 ADD PUSH3 0x113 JUMP JUMPDEST SWAP3 POP POP PUSH1 0x20 PUSH3 0x167 DUP6 DUP3 DUP7 ADD PUSH3 0x113 JUMP JUMPDEST SWAP2 POP POP SWAP3 POP SWAP3 SWAP1 POP JUMP JUMPDEST PUSH2 0x174C DUP1 PUSH3 0x181 PUSH1 0x0 CODECOPY PUSH1 0x0 RETURN INVALID PUSH1 0x80 PUSH1 0x40 MSTORE CALLVALUE DUP1 ISZERO PUSH2 0x10 JUMPI PUSH1 0x0 DUP1 REVERT JUMPDEST POP PUSH1 0x4 CALLDATASIZE LT PUSH2 0xF5 JUMPI PUSH1 0x0 CALLDATALOAD PUSH1 0xE0 SHR DUP1 PUSH4 0x7519AB50 GT PUSH2 0x97 JUMPI DUP1 PUSH4 0xB69EF8A8 GT PUSH2 0x66 JUMPI DUP1 PUSH4 0xB69EF8A8 EQ PUSH2 0x252 JUMPI DUP1 PUSH4 0xCB82CC8F EQ PUSH2 0x270 JUMPI DUP1 PUSH4 0xD1AF0C7D EQ PUSH2 0x28C JUMPI DUP1 PUSH4 0xF6BE71D1 EQ PUSH2 0x2AA JUMPI PUSH2 0xF5 JUMP JUMPDEST DUP1 PUSH4 0x7519AB50 EQ PUSH2 0x1DC JUMPI DUP1 PUSH4 0x8B0E9F3F EQ PUSH2 0x1FA JUMPI DUP1 PUSH4 0x9E447FC6 EQ PUSH2 0x218 JUMPI DUP1 PUSH4 0xAD2E8C9B EQ PUSH2 0x234 JUMPI PUSH2 0xF5 JUMP JUMPDEST DUP1 PUSH4 0x50D56ABA GT PUSH2 0xD3 JUMPI DUP1 PUSH4 0x50D56ABA EQ PUSH2 0x154 JUMPI DUP1 PUSH4 0x523A3F08 EQ PUSH2 0x184 JUMPI DUP1 PUSH4 0x67D3B488 EQ PUSH2 0x1A0 JUMPI DUP1 PUSH4 0x72F702F3 EQ PUSH2 0x1BE JUMPI PUSH2 0xF5 JUMP JUMPDEST DUP1 PUSH4 0xFB5A6B4 EQ PUSH2 0xFA JUMPI DUP1 PUSH4 0x2C4E722E EQ PUSH2 0x118 JUMPI DUP1 PUSH4 0x327BCAC5 EQ PUSH2 0x136 JUMPI JUMPDEST PUSH1 0x0 DUP1 REVERT JUMPDEST PUSH2 0x102 PUSH2 0x2C6 JUMP JUMPDEST PUSH1 0x40 MLOAD PUSH2 0x10F SWAP2 SWAP1 PUSH2 0xD20 JUMP JUMPDEST PUSH1 0x40 MLOAD DUP1 SWAP2 SUB SWAP1 RETURN JUMPDEST PUSH2 0x120 PUSH2 0x2CC JUMP JUMPDEST PUSH1 0x40 MLOAD PUSH2 0x12D SWAP2 SWAP1 PUSH2 0xD20 JUMP JUMPDEST PUSH1 0x40 MLOAD DUP1 SWAP2 SUB SWAP1 RETURN JUMPDEST PUSH2 0x13E PUSH2 0x2D2 JUMP JUMPDEST PUSH1 0x40 MLOAD PUSH2 0x14B SWAP2 SWAP1 PUSH2 0xD20 JUMP JUMPDEST PUSH1 0x40 MLOAD DUP1 SWAP2 SUB SWAP1 RETURN JUMPDEST PUSH2 0x16E PUSH1 0x4 DUP1 CALLDATASIZE SUB DUP2 ADD SWAP1 PUSH2 0x169 SWAP2 SWAP1 PUSH2 0xEF3 JUMP JUMPDEST PUSH2 0x2D8 JUMP JUMPDEST PUSH1 0x40 MLOAD PUSH2 0x17B SWAP2 SWAP1 PUSH2 0xD20 JUMP JUMPDEST PUSH1 0x40 MLOAD DUP1 SWAP2 SUB SWAP1 RETURN JUMPDEST PUSH2 0x19E PUSH1 0x4 DUP1 CALLDATASIZE SUB DUP2 ADD SWAP1 PUSH2 0x199 SWAP2 SWAP1 PUSH2 0xF7B JUMP JUMPDEST PUSH2 0x313 JUMP JUMPDEST STOP JUMPDEST PUSH2 0x1A8 PUSH2 0x5C8 JUMP JUMPDEST PUSH1 0x40 MLOAD PUSH2 0x1B5 SWAP2 SWAP1 PUSH2 0xD20 JUMP JUMPDEST PUSH1 0x40 MLOAD DUP1 SWAP2 SUB SWAP1 RETURN JUMPDEST PUSH2 0x1C6 PUSH2 0x5CE JUMP JUMPDEST PUSH1 0x40 MLOAD PUSH2 0x1D3 SWAP2 SWAP1 PUSH2 0x1007 JUMP JUMPDEST PUSH1 0x40 MLOAD DUP1 SWAP2 SUB SWAP1 RETURN JUMPDEST PUSH2 0x1E4 PUSH2 0x5F2 JUMP JUMPDEST PUSH1 0x40 MLOAD PUSH2 0x1F1 SWAP2 SWAP1 PUSH2 0xD20 JUMP JUMPDEST PUSH1 0x40 MLOAD DUP1 SWAP2 SUB SWAP1 RETURN JUMPDEST PUSH2 0x202 PUSH2 0x5F8 JUMP JUMPDEST PUSH1 0x40 MLOAD PUSH2 0x20F SWAP2 SWAP1 PUSH2 0xD20 JUMP JUMPDEST PUSH1 0x40 MLOAD DUP1 SWAP2 SUB SWAP1 RETURN JUMPDEST PUSH2 0x232 PUSH1 0x4 DUP1 CALLDATASIZE SUB DUP2 ADD SWAP1 PUSH2 0x22D SWAP2 SWAP1 PUSH2 0xF7B JUMP JUMPDEST PUSH2 0x5FE JUMP JUMPDEST STOP JUMPDEST PUSH2 0x23C PUSH2 0x64C JUMP JUMPDEST PUSH1 0x40 MLOAD PUSH2 0x249 SWAP2 SWAP1 PUSH2 0xD20 JUMP JUMPDEST PUSH1 0x40 MLOAD DUP1 SWAP2 SUB SWAP1 RETURN JUMPDEST PUSH2 0x25A PUSH2 0x656 JUMP JUMPDEST PUSH1 0x40 MLOAD PUSH2 0x267 SWAP2 SWAP1 PUSH2 0xD20 JUMP JUMPDEST PUSH1 0x40 MLOAD DUP1 SWAP2 SUB SWAP1 RETURN JUMPDEST PUSH2 0x28A PUSH1 0x4 DUP1 CALLDATASIZE SUB DUP2 ADD SWAP1 PUSH2 0x285 SWAP2 SWAP1 PUSH2 0xF7B JUMP JUMPDEST PUSH2 0x6B7 JUMP JUMPDEST STOP JUMPDEST PUSH2 0x294 PUSH2 0xAD9 JUMP JUMPDEST PUSH1 0x40 MLOAD PUSH2 0x2A1 SWAP2 SWAP1 PUSH2 0x1007 JUMP JUMPDEST PUSH1 0x40 MLOAD DUP1 SWAP2 SUB SWAP1 RETURN JUMPDEST PUSH2 0x2C4 PUSH1 0x4 DUP1 CALLDATASIZE SUB DUP2 ADD SWAP1 PUSH2 0x2BF SWAP2 SWAP1 PUSH2 0xF7B JUMP JUMPDEST PUSH2 0xAFF JUMP JUMPDEST STOP JUMPDEST PUSH1 0x4 SLOAD DUP2 JUMP JUMPDEST PUSH1 0x7 SLOAD DUP2 JUMP JUMPDEST PUSH1 0x3 SLOAD DUP2 JUMP JUMPDEST PUSH1 0x8 PUSH1 0x20 MSTORE DUP2 PUSH1 0x0 MSTORE PUSH1 0x40 PUSH1 0x0 KECCAK256 DUP2 DUP1 MLOAD PUSH1 0x20 DUP2 ADD DUP3 ADD DUP1 MLOAD DUP5 DUP3 MSTORE PUSH1 0x20 DUP4 ADD PUSH1 0x20 DUP6 ADD KECCAK256 DUP2 DUP4 MSTORE DUP1 SWAP6 POP POP POP POP POP POP PUSH1 0x0 SWAP2 POP SWAP2 POP POP SLOAD DUP2 JUMP JUMPDEST PUSH1 0x0 PUSH1 0xA PUSH1 0x0 CALLER PUSH20 0xFFFFFFFFFFFFFFFFFFFFFFFFFFFFFFFFFFFFFFFF AND PUSH20 0xFFFFFFFFFFFFFFFFFFFFFFFFFFFFFFFFFFFFFFFF AND DUP2 MSTORE PUSH1 0x20 ADD SWAP1 DUP2 MSTORE PUSH1 0x20 ADD PUSH1 0x0 KECCAK256 SLOAD PUSH2 0x35D PUSH2 0xB6D JUMP JUMPDEST PUSH2 0x367 SWAP2 SWAP1 PUSH2 0x1051 JUMP JUMPDEST GT DUP1 ISZERO PUSH2 0x374 JUMPI POP PUSH1 0x0 DUP2 GT JUMPDEST PUSH2 0x3B3 JUMPI PUSH1 0x40 MLOAD PUSH32 0x8C379A000000000000000000000000000000000000000000000000000000000 DUP2 MSTORE PUSH1 0x4 ADD PUSH2 0x3AA SWAP1 PUSH2 0x10E2 JUMP JUMPDEST PUSH1 0x40 MLOAD DUP1 SWAP2 SUB SWAP1 REVERT JUMPDEST DUP1 PUSH1 0x9 PUSH1 0x0 CALLER PUSH20 0xFFFFFFFFFFFFFFFFFFFFFFFFFFFFFFFFFFFFFFFF AND PUSH20 0xFFFFFFFFFFFFFFFFFFFFFFFFFFFFFFFFFFFFFFFF AND DUP2 MSTORE PUSH1 0x20 ADD SWAP1 DUP2 MSTORE PUSH1 0x20 ADD PUSH1 0x0 KECCAK256 SLOAD PUSH1 0xA PUSH1 0x0 CALLER PUSH20 0xFFFFFFFFFFFFFFFFFFFFFFFFFFFFFFFFFFFFFFFF AND PUSH20 0xFFFFFFFFFFFFFFFFFFFFFFFFFFFFFFFFFFFFFFFF AND DUP2 MSTORE PUSH1 0x20 ADD SWAP1 DUP2 MSTORE PUSH1 0x20 ADD PUSH1 0x0 KECCAK256 SLOAD PUSH2 0x43C PUSH2 0xB6D JUMP JUMPDEST PUSH2 0x446 SWAP2 SWAP1 PUSH2 0x1051 JUMP JUMPDEST PUSH2 0x450 SWAP2 SWAP1 PUSH2 0x1102 JUMP JUMPDEST LT PUSH2 0x490 JUMPI PUSH1 0x40 MLOAD PUSH32 0x8C379A000000000000000000000000000000000000000000000000000000000 DUP2 MSTORE PUSH1 0x4 ADD PUSH2 0x487 SWAP1 PUSH2 0x11A8 JUMP JUMPDEST PUSH1 0x40 MLOAD DUP1 SWAP2 SUB SWAP1 REVERT JUMPDEST PUSH1 0x1 PUSH1 0x0 SWAP1 SLOAD SWAP1 PUSH2 0x100 EXP SWAP1 DIV PUSH20 0xFFFFFFFFFFFFFFFFFFFFFFFFFFFFFFFFFFFFFFFF AND PUSH20 0xFFFFFFFFFFFFFFFFFFFFFFFFFFFFFFFFFFFFFFFF AND PUSH4 0xA9059CBB CALLER DUP4 PUSH1 0x40 MLOAD DUP4 PUSH4 0xFFFFFFFF AND PUSH1 0xE0 SHL DUP2 MSTORE PUSH1 0x4 ADD PUSH2 0x4ED SWAP3 SWAP2 SWAP1 PUSH2 0x11D7 JUMP JUMPDEST PUSH1 0x20 PUSH1 0x40 MLOAD DUP1 DUP4 SUB DUP2 PUSH1 0x0 DUP8 GAS CALL ISZERO DUP1 ISZERO PUSH2 0x50C JUMPI RETURNDATASIZE PUSH1 0x0 DUP1 RETURNDATACOPY RETURNDATASIZE PUSH1 0x0 REVERT JUMPDEST POP POP POP POP PUSH1 0x40 MLOAD RETURNDATASIZE PUSH1 0x1F NOT PUSH1 0x1F DUP3 ADD AND DUP3 ADD DUP1 PUSH1 0x40 MSTORE POP DUP2 ADD SWAP1 PUSH2 0x530 SWAP2 SWAP1 PUSH2 0x1238 JUMP JUMPDEST PUSH2 0x56F JUMPI PUSH1 0x40 MLOAD PUSH32 0x8C379A000000000000000000000000000000000000000000000000000000000 DUP2 MSTORE PUSH1 0x4 ADD PUSH2 0x566 SWAP1 PUSH2 0x12B1 JUMP JUMPDEST PUSH1 0x40 MLOAD DUP1 SWAP2 SUB SWAP1 REVERT JUMPDEST DUP1 PUSH1 0x9 PUSH1 0x0 CALLER PUSH20 0xFFFFFFFFFFFFFFFFFFFFFFFFFFFFFFFFFFFFFFFF AND PUSH20 0xFFFFFFFFFFFFFFFFFFFFFFFFFFFFFFFFFFFFFFFF AND DUP2 MSTORE PUSH1 0x20 ADD SWAP1 DUP2 MSTORE PUSH1 0x20 ADD PUSH1 0x0 KECCAK256 PUSH1 0x0 DUP3 DUP3 SLOAD PUSH2 0x5BE SWAP2 SWAP1 PUSH2 0x1051 JUMP JUMPDEST SWAP3 POP POP DUP2 SWAP1 SSTORE POP POP JUMP JUMPDEST PUSH1 0x5 SLOAD DUP2 JUMP JUMPDEST PUSH1 0x0 DUP1 SLOAD SWAP1 PUSH2 0x100 EXP SWAP1 DIV PUSH20 0xFFFFFFFFFFFFFFFFFFFFFFFFFFFFFFFFFFFFFFFF AND DUP2 JUMP JUMPDEST PUSH1 0x6 SLOAD DUP2 JUMP JUMPDEST PUSH1 0x2 SLOAD DUP2 JUMP JUMPDEST TIMESTAMP PUSH1 0x5 SLOAD LT PUSH2 0x642 JUMPI PUSH1 0x40 MLOAD PUSH32 0x8C379A000000000000000000000000000000000000000000000000000000000 DUP2 MSTORE PUSH1 0x4 ADD PUSH2 0x639 SWAP1 PUSH2 0x131D JUMP JUMPDEST PUSH1 0x40 MLOAD DUP1 SWAP2 SUB SWAP1 REVERT JUMPDEST DUP1 PUSH1 0x7 DUP2 SWAP1 SSTORE POP POP JUMP JUMPDEST PUSH1 0x0 PUSH1 0x4 SLOAD SWAP1 POP SWAP1 JUMP JUMPDEST PUSH1 0x0 PUSH1 0x8 PUSH1 0x0 CALLER PUSH20 0xFFFFFFFFFFFFFFFFFFFFFFFFFFFFFFFFFFFFFFFF AND PUSH20 0xFFFFFFFFFFFFFFFFFFFFFFFFFFFFFFFFFFFFFFFF AND DUP2 MSTORE PUSH1 0x20 ADD SWAP1 DUP2 MSTORE PUSH1 0x20 ADD PUSH1 0x0 KECCAK256 PUSH1 0x40 MLOAD PUSH2 0x6A3 SWAP1 PUSH2 0x1394 JUMP JUMPDEST SWAP1 DUP2 MSTORE PUSH1 0x20 ADD PUSH1 0x40 MLOAD DUP1 SWAP2 SUB SWAP1 KECCAK256 SLOAD SWAP1 POP SWAP1 JUMP JUMPDEST DUP1 PUSH1 0x0 DUP1 SLOAD SWAP1 PUSH2 0x100 EXP SWAP1 DIV PUSH20 0xFFFFFFFFFFFFFFFFFFFFFFFFFFFFFFFFFFFFFFFF AND PUSH20 0xFFFFFFFFFFFFFFFFFFFFFFFFFFFFFFFFFFFFFFFF AND PUSH4 0x70A08231 CALLER PUSH1 0x40 MLOAD DUP3 PUSH4 0xFFFFFFFF AND PUSH1 0xE0 SHL DUP2 MSTORE PUSH1 0x4 ADD PUSH2 0x711 SWAP2 SWAP1 PUSH2 0x13A9 JUMP JUMPDEST PUSH1 0x20 PUSH1 0x40 MLOAD DUP1 DUP4 SUB DUP2 DUP7 GAS STATICCALL ISZERO DUP1 ISZERO PUSH2 0x72E JUMPI RETURNDATASIZE PUSH1 0x0 DUP1 RETURNDATACOPY RETURNDATASIZE PUSH1 0x0 REVERT JUMPDEST POP POP POP POP PUSH1 0x40 MLOAD RETURNDATASIZE PUSH1 0x1F NOT PUSH1 0x1F DUP3 ADD AND DUP3 ADD DUP1 PUSH1 0x40 MSTORE POP DUP2 ADD SWAP1 PUSH2 0x752 SWAP2 SWAP1 PUSH2 0x13D9 JUMP JUMPDEST LT ISZERO PUSH2 0x793 JUMPI PUSH1 0x40 MLOAD PUSH32 0x8C379A000000000000000000000000000000000000000000000000000000000 DUP2 MSTORE PUSH1 0x4 ADD PUSH2 0x78A SWAP1 PUSH2 0x1452 JUMP JUMPDEST PUSH1 0x40 MLOAD DUP1 SWAP2 SUB SWAP1 REVERT JUMPDEST PUSH1 0x0 DUP1 SLOAD SWAP1 PUSH2 0x100 EXP SWAP1 DIV PUSH20 0xFFFFFFFFFFFFFFFFFFFFFFFFFFFFFFFFFFFFFFFF AND PUSH20 0xFFFFFFFFFFFFFFFFFFFFFFFFFFFFFFFFFFFFFFFF AND PUSH4 0x23B872DD CALLER ADDRESS DUP5 PUSH1 0x40 MLOAD DUP5 PUSH4 0xFFFFFFFF AND PUSH1 0xE0 SHL DUP2 MSTORE PUSH1 0x4 ADD PUSH2 0x7F0 SWAP4 SWAP3 SWAP2 SWAP1 PUSH2 0x1472 JUMP JUMPDEST PUSH1 0x20 PUSH1 0x40 MLOAD DUP1 DUP4 SUB DUP2 PUSH1 0x0 DUP8 GAS CALL ISZERO DUP1 ISZERO PUSH2 0x80F JUMPI RETURNDATASIZE PUSH1 0x0 DUP1 RETURNDATACOPY RETURNDATASIZE PUSH1 0x0 REVERT JUMPDEST POP POP POP POP PUSH1 0x40 MLOAD RETURNDATASIZE PUSH1 0x1F NOT PUSH1 0x1F DUP3 ADD AND DUP3 ADD DUP1 PUSH1 0x40 MSTORE POP DUP2 ADD SWAP1 PUSH2 0x833 SWAP2 SWAP1 PUSH2 0x1238 JUMP JUMPDEST PUSH2 0x872 JUMPI PUSH1 0x40 MLOAD PUSH32 0x8C379A000000000000000000000000000000000000000000000000000000000 DUP2 MSTORE PUSH1 0x4 ADD PUSH2 0x869 SWAP1 PUSH2 0x14F5 JUMP JUMPDEST PUSH1 0x40 MLOAD DUP1 SWAP2 SUB SWAP1 REVERT JUMPDEST PUSH2 0x8DE DUP2 PUSH1 0x8 PUSH1 0x0 CALLER PUSH20 0xFFFFFFFFFFFFFFFFFFFFFFFFFFFFFFFFFFFFFFFF AND PUSH20 0xFFFFFFFFFFFFFFFFFFFFFFFFFFFFFFFFFFFFFFFF AND DUP2 MSTORE PUSH1 0x20 ADD SWAP1 DUP2 MSTORE PUSH1 0x20 ADD PUSH1 0x0 KECCAK256 PUSH1 0x40 MLOAD PUSH2 0x8C1 SWAP1 PUSH2 0x1394 JUMP JUMPDEST SWAP1 DUP2 MSTORE PUSH1 0x20 ADD PUSH1 0x40 MLOAD DUP1 SWAP2 SUB SWAP1 KECCAK256 SLOAD PUSH2 0xCF1 SWAP1 SWAP2 SWAP1 PUSH4 0xFFFFFFFF AND JUMP JUMPDEST PUSH1 0x8 PUSH1 0x0 CALLER PUSH20 0xFFFFFFFFFFFFFFFFFFFFFFFFFFFFFFFFFFFFFFFF AND PUSH20 0xFFFFFFFFFFFFFFFFFFFFFFFFFFFFFFFFFFFFFFFF AND DUP2 MSTORE PUSH1 0x20 ADD SWAP1 DUP2 MSTORE PUSH1 0x20 ADD PUSH1 0x0 KECCAK256 PUSH1 0x40 MLOAD PUSH2 0x929 SWAP1 PUSH2 0x1394 JUMP JUMPDEST SWAP1 DUP2 MSTORE PUSH1 0x20 ADD PUSH1 0x40 MLOAD DUP1 SWAP2 SUB SWAP1 KECCAK256 DUP2 SWAP1 SSTORE POP PUSH1 0x0 PUSH1 0x8 PUSH1 0x0 CALLER PUSH20 0xFFFFFFFFFFFFFFFFFFFFFFFFFFFFFFFFFFFFFFFF AND PUSH20 0xFFFFFFFFFFFFFFFFFFFFFFFFFFFFFFFFFFFFFFFF AND DUP2 MSTORE PUSH1 0x20 ADD SWAP1 DUP2 MSTORE PUSH1 0x20 ADD PUSH1 0x0 KECCAK256 PUSH1 0x40 MLOAD PUSH2 0x988 SWAP1 PUSH2 0x1561 JUMP JUMPDEST SWAP1 DUP2 MSTORE PUSH1 0x20 ADD PUSH1 0x40 MLOAD DUP1 SWAP2 SUB SWAP1 KECCAK256 SLOAD SUB PUSH2 0x9FF JUMPI TIMESTAMP PUSH1 0x8 PUSH1 0x0 CALLER PUSH20 0xFFFFFFFFFFFFFFFFFFFFFFFFFFFFFFFFFFFFFFFF AND PUSH20 0xFFFFFFFFFFFFFFFFFFFFFFFFFFFFFFFFFFFFFFFF AND DUP2 MSTORE PUSH1 0x20 ADD SWAP1 DUP2 MSTORE PUSH1 0x20 ADD PUSH1 0x0 KECCAK256 PUSH1 0x40 MLOAD PUSH2 0x9E8 SWAP1 PUSH2 0x1561 JUMP JUMPDEST SWAP1 DUP2 MSTORE PUSH1 0x20 ADD PUSH1 0x40 MLOAD DUP1 SWAP2 SUB SWAP1 KECCAK256 DUP2 SWAP1 SSTORE POP PUSH2 0xABB JUMP JUMPDEST PUSH2 0xA07 PUSH2 0xB6D JUMP JUMPDEST PUSH1 0xA PUSH1 0x0 CALLER PUSH20 0xFFFFFFFFFFFFFFFFFFFFFFFFFFFFFFFFFFFFFFFF AND PUSH20 0xFFFFFFFFFFFFFFFFFFFFFFFFFFFFFFFFFFFFFFFF AND DUP2 MSTORE PUSH1 0x20 ADD SWAP1 DUP2 MSTORE PUSH1 0x20 ADD PUSH1 0x0 KECCAK256 PUSH1 0x0 DUP3 DUP3 SLOAD PUSH2 0xA55 SWAP2 SWAP1 PUSH2 0x1051 JUMP JUMPDEST SWAP3 POP POP DUP2 SWAP1 SSTORE POP TIMESTAMP PUSH1 0x8 PUSH1 0x0 CALLER PUSH20 0xFFFFFFFFFFFFFFFFFFFFFFFFFFFFFFFFFFFFFFFF AND PUSH20 0xFFFFFFFFFFFFFFFFFFFFFFFFFFFFFFFFFFFFFFFF AND DUP2 MSTORE PUSH1 0x20 ADD SWAP1 DUP2 MSTORE PUSH1 0x20 ADD PUSH1 0x0 KECCAK256 PUSH1 0x40 MLOAD PUSH2 0xAA8 SWAP1 PUSH2 0x1561 JUMP JUMPDEST SWAP1 DUP2 MSTORE PUSH1 0x20 ADD PUSH1 0x40 MLOAD DUP1 SWAP2 SUB SWAP1 KECCAK256 DUP2 SWAP1 SSTORE POP JUMPDEST PUSH2 0xAD0 DUP2 PUSH1 0x2 SLOAD PUSH2 0xCF1 SWAP1 SWAP2 SWAP1 PUSH4 0xFFFFFFFF AND JUMP JUMPDEST PUSH1 0x2 DUP2 SWAP1 SSTORE POP POP JUMP JUMPDEST PUSH1 0x1 PUSH1 0x0 SWAP1 SLOAD SWAP1 PUSH2 0x100 EXP SWAP1 DIV PUSH20 0xFFFFFFFFFFFFFFFFFFFFFFFFFFFFFFFFFFFFFFFF AND DUP2 JUMP JUMPDEST TIMESTAMP PUSH1 0x5 SLOAD LT PUSH2 0xB43 JUMPI PUSH1 0x40 MLOAD PUSH32 0x8C379A000000000000000000000000000000000000000000000000000000000 DUP2 MSTORE PUSH1 0x4 ADD PUSH2 0xB3A SWAP1 PUSH2 0x15E8 JUMP JUMPDEST PUSH1 0x40 MLOAD DUP1 SWAP2 SUB SWAP1 REVERT JUMPDEST DUP1 PUSH1 0x4 DUP2 SWAP1 SSTORE POP PUSH2 0xB5D TIMESTAMP DUP3 PUSH2 0xCF1 SWAP1 SWAP2 SWAP1 PUSH4 0xFFFFFFFF AND JUMP JUMPDEST PUSH1 0x5 DUP2 SWAP1 SSTORE POP TIMESTAMP PUSH1 0x6 DUP2 SWAP1 SSTORE POP POP JUMP JUMPDEST PUSH1 0x0 DUP1 PUSH1 0x8 PUSH1 0x0 CALLER PUSH20 0xFFFFFFFFFFFFFFFFFFFFFFFFFFFFFFFFFFFFFFFF AND PUSH20 0xFFFFFFFFFFFFFFFFFFFFFFFFFFFFFFFFFFFFFFFF AND DUP2 MSTORE PUSH1 0x20 ADD SWAP1 DUP2 MSTORE PUSH1 0x20 ADD PUSH1 0x0 KECCAK256 PUSH1 0x40 MLOAD PUSH2 0xBBB SWAP1 PUSH2 0x1394 JUMP JUMPDEST SWAP1 DUP2 MSTORE PUSH1 0x20 ADD PUSH1 0x40 MLOAD DUP1 SWAP2 SUB SWAP1 KECCAK256 SLOAD GT PUSH2 0xC0A JUMPI PUSH1 0x40 MLOAD PUSH32 0x8C379A000000000000000000000000000000000000000000000000000000000 DUP2 MSTORE PUSH1 0x4 ADD PUSH2 0xC01 SWAP1 PUSH2 0x1654 JUMP JUMPDEST PUSH1 0x40 MLOAD DUP1 SWAP2 SUB SWAP1 REVERT JUMPDEST PUSH1 0x8 PUSH1 0x0 CALLER PUSH20 0xFFFFFFFFFFFFFFFFFFFFFFFFFFFFFFFFFFFFFFFF AND PUSH20 0xFFFFFFFFFFFFFFFFFFFFFFFFFFFFFFFFFFFFFFFF AND DUP2 MSTORE PUSH1 0x20 ADD SWAP1 DUP2 MSTORE PUSH1 0x20 ADD PUSH1 0x0 KECCAK256 PUSH1 0x40 MLOAD PUSH2 0xC55 SWAP1 PUSH2 0x1561 JUMP JUMPDEST SWAP1 DUP2 MSTORE PUSH1 0x20 ADD PUSH1 0x40 MLOAD DUP1 SWAP2 SUB SWAP1 KECCAK256 SLOAD TIMESTAMP PUSH2 0xC6F SWAP2 SWAP1 PUSH2 0x1102 JUMP JUMPDEST PUSH1 0x64 PUSH1 0x7 SLOAD PUSH2 0xC7E SWAP2 SWAP1 PUSH2 0x16A3 JUMP JUMPDEST PUSH1 0x8 PUSH1 0x0 CALLER PUSH20 0xFFFFFFFFFFFFFFFFFFFFFFFFFFFFFFFFFFFFFFFF AND PUSH20 0xFFFFFFFFFFFFFFFFFFFFFFFFFFFFFFFFFFFFFFFF AND DUP2 MSTORE PUSH1 0x20 ADD SWAP1 DUP2 MSTORE PUSH1 0x20 ADD PUSH1 0x0 KECCAK256 PUSH1 0x40 MLOAD PUSH2 0xCC9 SWAP1 PUSH2 0x1394 JUMP JUMPDEST SWAP1 DUP2 MSTORE PUSH1 0x20 ADD PUSH1 0x40 MLOAD DUP1 SWAP2 SUB SWAP1 KECCAK256 SLOAD PUSH2 0xCE2 SWAP2 SWAP1 PUSH2 0x16D4 JUMP JUMPDEST PUSH2 0xCEC SWAP2 SWAP1 PUSH2 0x16D4 JUMP JUMPDEST SWAP1 POP SWAP1 JUMP JUMPDEST PUSH1 0x0 DUP2 DUP4 PUSH2 0xCFF SWAP2 SWAP1 PUSH2 0x1051 JUMP JUMPDEST SWAP1 POP SWAP3 SWAP2 POP POP JUMP JUMPDEST PUSH1 0x0 DUP2 SWAP1 POP SWAP2 SWAP1 POP JUMP JUMPDEST PUSH2 0xD1A DUP2 PUSH2 0xD07 JUMP JUMPDEST DUP3 MSTORE POP POP JUMP JUMPDEST PUSH1 0x0 PUSH1 0x20 DUP3 ADD SWAP1 POP PUSH2 0xD35 PUSH1 0x0 DUP4 ADD DUP5 PUSH2 0xD11 JUMP JUMPDEST SWAP3 SWAP2 POP POP JUMP JUMPDEST PUSH1 0x0 PUSH1 0x40 MLOAD SWAP1 POP SWAP1 JUMP JUMPDEST PUSH1 0x0 DUP1 REVERT JUMPDEST PUSH1 0x0 DUP1 REVERT JUMPDEST PUSH1 0x0 PUSH20 0xFFFFFFFFFFFFFFFFFFFFFFFFFFFFFFFFFFFFFFFF DUP3 AND SWAP1 POP SWAP2 SWAP1 POP JUMP JUMPDEST PUSH1 0x0 PUSH2 0xD7A DUP3 PUSH2 0xD4F JUMP JUMPDEST SWAP1 POP SWAP2 SWAP1 POP JUMP JUMPDEST PUSH2 0xD8A DUP2 PUSH2 0xD6F JUMP JUMPDEST DUP2 EQ PUSH2 0xD95 JUMPI PUSH1 0x0 DUP1 REVERT JUMPDEST POP JUMP JUMPDEST PUSH1 0x0 DUP2 CALLDATALOAD SWAP1 POP PUSH2 0xDA7 DUP2 PUSH2 0xD81 JUMP JUMPDEST SWAP3 SWAP2 POP POP JUMP JUMPDEST PUSH1 0x0 DUP1 REVERT JUMPDEST PUSH1 0x0 DUP1 REVERT JUMPDEST PUSH1 0x0 PUSH1 0x1F NOT PUSH1 0x1F DUP4 ADD AND SWAP1 POP SWAP2 SWAP1 POP JUMP JUMPDEST PUSH32 0x4E487B7100000000000000000000000000000000000000000000000000000000 PUSH1 0x0 MSTORE PUSH1 0x41 PUSH1 0x4 MSTORE PUSH1 0x24 PUSH1 0x0 REVERT JUMPDEST PUSH2 0xE00 DUP3 PUSH2 0xDB7 JUMP JUMPDEST DUP2 ADD DUP2 DUP2 LT PUSH8 0xFFFFFFFFFFFFFFFF DUP3 GT OR ISZERO PUSH2 0xE1F JUMPI PUSH2 0xE1E PUSH2 0xDC8 JUMP JUMPDEST JUMPDEST DUP1 PUSH1 0x40 MSTORE POP POP POP JUMP JUMPDEST PUSH1 0x0 PUSH2 0xE32 PUSH2 0xD3B JUMP JUMPDEST SWAP1 POP PUSH2 0xE3E DUP3 DUP3 PUSH2 0xDF7 JUMP JUMPDEST SWAP2 SWAP1 POP JUMP JUMPDEST PUSH1 0x0 PUSH8 0xFFFFFFFFFFFFFFFF DUP3 GT ISZERO PUSH2 0xE5E JUMPI PUSH2 0xE5D PUSH2 0xDC8 JUMP JUMPDEST JUMPDEST PUSH2 0xE67 DUP3 PUSH2 0xDB7 JUMP JUMPDEST SWAP1 POP PUSH1 0x20 DUP2 ADD SWAP1 POP SWAP2 SWAP1 POP JUMP JUMPDEST DUP3 DUP2 DUP4 CALLDATACOPY PUSH1 0x0 DUP4 DUP4 ADD MSTORE POP POP POP JUMP JUMPDEST PUSH1 0x0 PUSH2 0xE96 PUSH2 0xE91 DUP5 PUSH2 0xE43 JUMP JUMPDEST PUSH2 0xE28 JUMP JUMPDEST SWAP1 POP DUP3 DUP2 MSTORE PUSH1 0x20 DUP2 ADD DUP5 DUP5 DUP5 ADD GT ISZERO PUSH2 0xEB2 JUMPI PUSH2 0xEB1 PUSH2 0xDB2 JUMP JUMPDEST JUMPDEST PUSH2 0xEBD DUP5 DUP3 DUP6 PUSH2 0xE74 JUMP JUMPDEST POP SWAP4 SWAP3 POP POP POP JUMP JUMPDEST PUSH1 0x0 DUP3 PUSH1 0x1F DUP4 ADD SLT PUSH2 0xEDA JUMPI PUSH2 0xED9 PUSH2 0xDAD JUMP JUMPDEST JUMPDEST DUP2 CALLDATALOAD PUSH2 0xEEA DUP5 DUP3 PUSH1 0x20 DUP7 ADD PUSH2 0xE83 JUMP JUMPDEST SWAP2 POP POP SWAP3 SWAP2 POP POP JUMP JUMPDEST PUSH1 0x0 DUP1 PUSH1 0x40 DUP4 DUP6 SUB SLT ISZERO PUSH2 0xF0A JUMPI PUSH2 0xF09 PUSH2 0xD45 JUMP JUMPDEST JUMPDEST PUSH1 0x0 PUSH2 0xF18 DUP6 DUP3 DUP7 ADD PUSH2 0xD98 JUMP JUMPDEST SWAP3 POP POP PUSH1 0x20 DUP4 ADD CALLDATALOAD PUSH8 0xFFFFFFFFFFFFFFFF DUP2 GT ISZERO PUSH2 0xF39 JUMPI PUSH2 0xF38 PUSH2 0xD4A JUMP JUMPDEST JUMPDEST PUSH2 0xF45 DUP6 DUP3 DUP7 ADD PUSH2 0xEC5 JUMP JUMPDEST SWAP2 POP POP SWAP3 POP SWAP3 SWAP1 POP JUMP JUMPDEST PUSH2 0xF58 DUP2 PUSH2 0xD07 JUMP JUMPDEST DUP2 EQ PUSH2 0xF63 JUMPI PUSH1 0x0 DUP1 REVERT JUMPDEST POP JUMP JUMPDEST PUSH1 0x0 DUP2 CALLDATALOAD SWAP1 POP PUSH2 0xF75 DUP2 PUSH2 0xF4F JUMP JUMPDEST SWAP3 SWAP2 POP POP JUMP JUMPDEST PUSH1 0x0 PUSH1 0x20 DUP3 DUP5 SUB SLT ISZERO PUSH2 0xF91 JUMPI PUSH2 0xF90 PUSH2 0xD45 JUMP JUMPDEST JUMPDEST PUSH1 0x0 PUSH2 0xF9F DUP5 DUP3 DUP6 ADD PUSH2 0xF66 JUMP JUMPDEST SWAP2 POP POP SWAP3 SWAP2 POP POP JUMP JUMPDEST PUSH1 0x0 DUP2 SWAP1 POP SWAP2 SWAP1 POP JUMP JUMPDEST PUSH1 0x0 PUSH2 0xFCD PUSH2 0xFC8 PUSH2 0xFC3 DUP5 PUSH2 0xD4F JUMP JUMPDEST PUSH2 0xFA8 JUMP JUMPDEST PUSH2 0xD4F JUMP JUMPDEST SWAP1 POP SWAP2 SWAP1 POP JUMP JUMPDEST PUSH1 0x0 PUSH2 0xFDF DUP3 PUSH2 0xFB2 JUMP JUMPDEST SWAP1 POP SWAP2 SWAP1 POP JUMP JUMPDEST PUSH1 0x0 PUSH2 0xFF1 DUP3 PUSH2 0xFD4 JUMP JUMPDEST SWAP1 POP SWAP2 SWAP1 POP JUMP JUMPDEST PUSH2 0x1001 DUP2 PUSH2 0xFE6 JUMP JUMPDEST DUP3 MSTORE POP POP JUMP JUMPDEST PUSH1 0x0 PUSH1 0x20 DUP3 ADD SWAP1 POP PUSH2 0x101C PUSH1 0x0 DUP4 ADD DUP5 PUSH2 0xFF8 JUMP JUMPDEST SWAP3 SWAP2 POP POP JUMP JUMPDEST PUSH32 0x4E487B7100000000000000000000000000000000000000000000000000000000 PUSH1 0x0 MSTORE PUSH1 0x11 PUSH1 0x4 MSTORE PUSH1 0x24 PUSH1 0x0 REVERT JUMPDEST PUSH1 0x0 PUSH2 0x105C DUP3 PUSH2 0xD07 JUMP JUMPDEST SWAP2 POP PUSH2 0x1067 DUP4 PUSH2 0xD07 JUMP JUMPDEST SWAP3 POP DUP3 DUP3 ADD SWAP1 POP DUP1 DUP3 GT ISZERO PUSH2 0x107F JUMPI PUSH2 0x107E PUSH2 0x1022 JUMP JUMPDEST JUMPDEST SWAP3 SWAP2 POP POP JUMP JUMPDEST PUSH1 0x0 DUP3 DUP3 MSTORE PUSH1 0x20 DUP3 ADD SWAP1 POP SWAP3 SWAP2 POP POP JUMP JUMPDEST PUSH32 0x596F752068617665206E6F74206561726E656420616E79207265776172647300 PUSH1 0x0 DUP3 ADD MSTORE POP JUMP JUMPDEST PUSH1 0x0 PUSH2 0x10CC PUSH1 0x1F DUP4 PUSH2 0x1085 JUMP JUMPDEST SWAP2 POP PUSH2 0x10D7 DUP3 PUSH2 0x1096 JUMP JUMPDEST PUSH1 0x20 DUP3 ADD SWAP1 POP SWAP2 SWAP1 POP JUMP JUMPDEST PUSH1 0x0 PUSH1 0x20 DUP3 ADD SWAP1 POP DUP2 DUP2 SUB PUSH1 0x0 DUP4 ADD MSTORE PUSH2 0x10FB DUP2 PUSH2 0x10BF JUMP JUMPDEST SWAP1 POP SWAP2 SWAP1 POP JUMP JUMPDEST PUSH1 0x0 PUSH2 0x110D DUP3 PUSH2 0xD07 JUMP JUMPDEST SWAP2 POP PUSH2 0x1118 DUP4 PUSH2 0xD07 JUMP JUMPDEST SWAP3 POP DUP3 DUP3 SUB SWAP1 POP DUP2 DUP2 GT ISZERO PUSH2 0x1130 JUMPI PUSH2 0x112F PUSH2 0x1022 JUMP JUMPDEST JUMPDEST SWAP3 SWAP2 POP POP JUMP JUMPDEST PUSH32 0x596F7520646F6E2774206861766520656E6F75676820746F2077697468647261 PUSH1 0x0 DUP3 ADD MSTORE PUSH32 0x7700000000000000000000000000000000000000000000000000000000000000 PUSH1 0x20 DUP3 ADD MSTORE POP JUMP JUMPDEST PUSH1 0x0 PUSH2 0x1192 PUSH1 0x21 DUP4 PUSH2 0x1085 JUMP JUMPDEST SWAP2 POP PUSH2 0x119D DUP3 PUSH2 0x1136 JUMP JUMPDEST PUSH1 0x40 DUP3 ADD SWAP1 POP SWAP2 SWAP1 POP JUMP JUMPDEST PUSH1 0x0 PUSH1 0x20 DUP3 ADD SWAP1 POP DUP2 DUP2 SUB PUSH1 0x0 DUP4 ADD MSTORE PUSH2 0x11C1 DUP2 PUSH2 0x1185 JUMP JUMPDEST SWAP1 POP SWAP2 SWAP1 POP JUMP JUMPDEST PUSH2 0x11D1 DUP2 PUSH2 0xD6F JUMP JUMPDEST DUP3 MSTORE POP POP JUMP JUMPDEST PUSH1 0x0 PUSH1 0x40 DUP3 ADD SWAP1 POP PUSH2 0x11EC PUSH1 0x0 DUP4 ADD DUP6 PUSH2 0x11C8 JUMP JUMPDEST PUSH2 0x11F9 PUSH1 0x20 DUP4 ADD DUP5 PUSH2 0xD11 JUMP JUMPDEST SWAP4 SWAP3 POP POP POP JUMP JUMPDEST PUSH1 0x0 DUP2 ISZERO ISZERO SWAP1 POP SWAP2 SWAP1 POP JUMP JUMPDEST PUSH2 0x1215 DUP2 PUSH2 0x1200 JUMP JUMPDEST DUP2 EQ PUSH2 0x1220 JUMPI PUSH1 0x0 DUP1 REVERT JUMPDEST POP JUMP JUMPDEST PUSH1 0x0 DUP2 MLOAD SWAP1 POP PUSH2 0x1232 DUP2 PUSH2 0x120C JUMP JUMPDEST SWAP3 SWAP2 POP POP JUMP JUMPDEST PUSH1 0x0 PUSH1 0x20 DUP3 DUP5 SUB SLT ISZERO PUSH2 0x124E JUMPI PUSH2 0x124D PUSH2 0xD45 JUMP JUMPDEST JUMPDEST PUSH1 0x0 PUSH2 0x125C DUP5 DUP3 DUP6 ADD PUSH2 0x1223 JUMP JUMPDEST SWAP2 POP POP SWAP3 SWAP2 POP POP JUMP JUMPDEST PUSH32 0x4661696C656420746F207472616E7366657220746F6B656E7300000000000000 PUSH1 0x0 DUP3 ADD MSTORE POP JUMP JUMPDEST PUSH1 0x0 PUSH2 0x129B PUSH1 0x19 DUP4 PUSH2 0x1085 JUMP JUMPDEST SWAP2 POP PUSH2 0x12A6 DUP3 PUSH2 0x1265 JUMP JUMPDEST PUSH1 0x20 DUP3 ADD SWAP1 POP SWAP2 SWAP1 POP JUMP JUMPDEST PUSH1 0x0 PUSH1 0x20 DUP3 ADD SWAP1 POP DUP2 DUP2 SUB PUSH1 0x0 DUP4 ADD MSTORE PUSH2 0x12CA DUP2 PUSH2 0x128E JUMP JUMPDEST SWAP1 POP SWAP2 SWAP1 POP JUMP JUMPDEST PUSH32 0x5374616B696E67207374696C6C20696E2070726F677265737300000000000000 PUSH1 0x0 DUP3 ADD MSTORE POP JUMP JUMPDEST PUSH1 0x0 PUSH2 0x1307 PUSH1 0x19 DUP4 PUSH2 0x1085 JUMP JUMPDEST SWAP2 POP PUSH2 0x1312 DUP3 PUSH2 0x12D1 JUMP JUMPDEST PUSH1 0x20 DUP3 ADD SWAP1 POP SWAP2 SWAP1 POP JUMP JUMPDEST PUSH1 0x0 PUSH1 0x20 DUP3 ADD SWAP1 POP DUP2 DUP2 SUB PUSH1 0x0 DUP4 ADD MSTORE PUSH2 0x1336 DUP2 PUSH2 0x12FA JUMP JUMPDEST SWAP1 POP SWAP2 SWAP1 POP JUMP JUMPDEST PUSH1 0x0 DUP2 SWAP1 POP SWAP3 SWAP2 POP POP JUMP JUMPDEST PUSH32 0x616D6F756E740000000000000000000000000000000000000000000000000000 PUSH1 0x0 DUP3 ADD MSTORE POP JUMP JUMPDEST PUSH1 0x0 PUSH2 0x137E PUSH1 0x6 DUP4 PUSH2 0x133D JUMP JUMPDEST SWAP2 POP PUSH2 0x1389 DUP3 PUSH2 0x1348 JUMP JUMPDEST PUSH1 0x6 DUP3 ADD SWAP1 POP SWAP2 SWAP1 POP JUMP JUMPDEST PUSH1 0x0 PUSH2 0x139F DUP3 PUSH2 0x1371 JUMP JUMPDEST SWAP2 POP DUP2 SWAP1 POP SWAP2 SWAP1 POP JUMP JUMPDEST PUSH1 0x0 PUSH1 0x20 DUP3 ADD SWAP1 POP PUSH2 0x13BE PUSH1 0x0 DUP4 ADD DUP5 PUSH2 0x11C8 JUMP JUMPDEST SWAP3 SWAP2 POP POP JUMP JUMPDEST PUSH1 0x0 DUP2 MLOAD SWAP1 POP PUSH2 0x13D3 DUP2 PUSH2 0xF4F JUMP JUMPDEST SWAP3 SWAP2 POP POP JUMP JUMPDEST PUSH1 0x0 PUSH1 0x20 DUP3 DUP5 SUB SLT ISZERO PUSH2 0x13EF JUMPI PUSH2 0x13EE PUSH2 0xD45 JUMP JUMPDEST JUMPDEST PUSH1 0x0 PUSH2 0x13FD DUP5 DUP3 DUP6 ADD PUSH2 0x13C4 JUMP JUMPDEST SWAP2 POP POP SWAP3 SWAP2 POP POP JUMP JUMPDEST PUSH32 0x4E6F7420656E6F75676820746F6B656E7320666F72207374616B650000000000 PUSH1 0x0 DUP3 ADD MSTORE POP JUMP JUMPDEST PUSH1 0x0 PUSH2 0x143C PUSH1 0x1B DUP4 PUSH2 0x1085 JUMP JUMPDEST SWAP2 POP PUSH2 0x1447 DUP3 PUSH2 0x1406 JUMP JUMPDEST PUSH1 0x20 DUP3 ADD SWAP1 POP SWAP2 SWAP1 POP JUMP JUMPDEST PUSH1 0x0 PUSH1 0x20 DUP3 ADD SWAP1 POP DUP2 DUP2 SUB PUSH1 0x0 DUP4 ADD MSTORE PUSH2 0x146B DUP2 PUSH2 0x142F JUMP JUMPDEST SWAP1 POP SWAP2 SWAP1 POP JUMP JUMPDEST PUSH1 0x0 PUSH1 0x60 DUP3 ADD SWAP1 POP PUSH2 0x1487 PUSH1 0x0 DUP4 ADD DUP7 PUSH2 0x11C8 JUMP JUMPDEST PUSH2 0x1494 PUSH1 0x20 DUP4 ADD DUP6 PUSH2 0x11C8 JUMP JUMPDEST PUSH2 0x14A1 PUSH1 0x40 DUP4 ADD DUP5 PUSH2 0xD11 JUMP JUMPDEST SWAP5 SWAP4 POP POP POP POP JUMP JUMPDEST PUSH32 0x4661696C656420746F207374616B6520746F6B656E0000000000000000000000 PUSH1 0x0 DUP3 ADD MSTORE POP JUMP JUMPDEST PUSH1 0x0 PUSH2 0x14DF PUSH1 0x15 DUP4 PUSH2 0x1085 JUMP JUMPDEST SWAP2 POP PUSH2 0x14EA DUP3 PUSH2 0x14A9 JUMP JUMPDEST PUSH1 0x20 DUP3 ADD SWAP1 POP SWAP2 SWAP1 POP JUMP JUMPDEST PUSH1 0x0 PUSH1 0x20 DUP3 ADD SWAP1 POP DUP2 DUP2 SUB PUSH1 0x0 DUP4 ADD MSTORE PUSH2 0x150E DUP2 PUSH2 0x14D2 JUMP JUMPDEST SWAP1 POP SWAP2 SWAP1 POP JUMP JUMPDEST PUSH32 0x7570646174656441740000000000000000000000000000000000000000000000 PUSH1 0x0 DUP3 ADD MSTORE POP JUMP JUMPDEST PUSH1 0x0 PUSH2 0x154B PUSH1 0x9 DUP4 PUSH2 0x133D JUMP JUMPDEST SWAP2 POP PUSH2 0x1556 DUP3 PUSH2 0x1515 JUMP JUMPDEST PUSH1 0x9 DUP3 ADD SWAP1 POP SWAP2 SWAP1 POP JUMP JUMPDEST PUSH1 0x0 PUSH2 0x156C DUP3 PUSH2 0x153E JUMP JUMPDEST SWAP2 POP DUP2 SWAP1 POP SWAP2 SWAP1 POP JUMP JUMPDEST PUSH32 0x63616E277420736574206461746520746F20612070726576696F75732074696D PUSH1 0x0 DUP3 ADD MSTORE PUSH32 0x657374616D700000000000000000000000000000000000000000000000000000 PUSH1 0x20 DUP3 ADD MSTORE POP JUMP JUMPDEST PUSH1 0x0 PUSH2 0x15D2 PUSH1 0x26 DUP4 PUSH2 0x1085 JUMP JUMPDEST SWAP2 POP PUSH2 0x15DD DUP3 PUSH2 0x1576 JUMP JUMPDEST PUSH1 0x40 DUP3 ADD SWAP1 POP SWAP2 SWAP1 POP JUMP JUMPDEST PUSH1 0x0 PUSH1 0x20 DUP3 ADD SWAP1 POP DUP2 DUP2 SUB PUSH1 0x0 DUP4 ADD MSTORE PUSH2 0x1601 DUP2 PUSH2 0x15C5 JUMP JUMPDEST SWAP1 POP SWAP2 SWAP1 POP JUMP JUMPDEST PUSH32 0x596F752068617665206E6F74207374616B656420616E7920746F6B656E730000 PUSH1 0x0 DUP3 ADD MSTORE POP JUMP JUMPDEST PUSH1 0x0 PUSH2 0x163E PUSH1 0x1E DUP4 PUSH2 0x1085 JUMP JUMPDEST SWAP2 POP PUSH2 0x1649 DUP3 PUSH2 0x1608 JUMP JUMPDEST PUSH1 0x20 DUP3 ADD SWAP1 POP SWAP2 SWAP1 POP JUMP JUMPDEST PUSH1 0x0 PUSH1 0x20 DUP3 ADD SWAP1 POP DUP2 DUP2 SUB PUSH1 0x0 DUP4 ADD MSTORE PUSH2 0x166D DUP2 PUSH2 0x1631 JUMP JUMPDEST SWAP1 POP SWAP2 SWAP1 POP JUMP JUMPDEST PUSH32 0x4E487B7100000000000000000000000000000000000000000000000000000000 PUSH1 0x0 MSTORE PUSH1 0x12 PUSH1 0x4 MSTORE PUSH1 0x24 PUSH1 0x0 REVERT JUMPDEST PUSH1 0x0 PUSH2 0x16AE DUP3 PUSH2 0xD07 JUMP JUMPDEST SWAP2 POP PUSH2 0x16B9 DUP4 PUSH2 0xD07 JUMP JUMPDEST SWAP3 POP DUP3 PUSH2 0x16C9 JUMPI PUSH2 0x16C8 PUSH2 0x1674 JUMP JUMPDEST JUMPDEST DUP3 DUP3 DIV SWAP1 POP SWAP3 SWAP2 POP POP JUMP JUMPDEST PUSH1 0x0 PUSH2 0x16DF DUP3 PUSH2 0xD07 JUMP JUMPDEST SWAP2 POP PUSH2 0x16EA DUP4 PUSH2 0xD07 JUMP JUMPDEST SWAP3 POP DUP3 DUP3 MUL PUSH2 0x16F8 DUP2 PUSH2 0xD07 JUMP JUMPDEST SWAP2 POP DUP3 DUP3 DIV DUP5 EQ DUP4 ISZERO OR PUSH2 0x170F JUMPI PUSH2 0x170E PUSH2 0x1022 JUMP JUMPDEST JUMPDEST POP SWAP3 SWAP2 POP POP JUMP INVALID LOG2 PUSH5 0x6970667358 0x22 SLT KECCAK256 0xDC 0xE6 PUSH23 0xE7166AD5F00BF29754BCE4F12A58407442E4BAC2EFD619 PUSH25 0x9990F9AA4D64736F6C63430008120033000000000000000000 "
				},
				"gasEstimates": {
					"creation": {
						"codeDepositCost": "1192800",
						"executionCost": "infinite",
						"totalCost": "infinite"
					},
					"external": {
						"_balance(address,string)": "infinite",
						"balance()": "2835",
						"depositStake(uint256)": "infinite",
						"duration()": "2453",
						"finishAt()": "2496",
						"getDuration()": "2526",
						"rate()": "2475",
						"rewardsToken()": "infinite",
						"setDuration(uint256)": "infinite",
						"setRewardRate(uint256)": "24709",
						"stakingToken()": "infinite",
						"totalStake()": "2474",
						"totalStakeRewards()": "2497",
						"updatedAt()": "2452",
						"withdrawReward(uint256)": "infinite"
					},
					"internal": {
						"earned()": "infinite"
					}
				},
				"methodIdentifiers": {
					"_balance(address,string)": "50d56aba",
					"balance()": "b69ef8a8",
					"depositStake(uint256)": "cb82cc8f",
					"duration()": "0fb5a6b4",
					"finishAt()": "67d3b488",
					"getDuration()": "ad2e8c9b",
					"rate()": "2c4e722e",
					"rewardsToken()": "d1af0c7d",
					"setDuration(uint256)": "f6be71d1",
					"setRewardRate(uint256)": "9e447fc6",
					"stakingToken()": "72f702f3",
					"totalStake()": "8b0e9f3f",
					"totalStakeRewards()": "327bcac5",
					"updatedAt()": "7519ab50",
					"withdrawReward(uint256)": "523a3f08"
				}
			},
			"storageLayout": {
				"storage": [
					{
						"astId": 43,
						"contract": "contracts/staking.sol:Staking",
						"label": "stakingToken",
						"offset": 0,
						"slot": "0",
						"type": "t_contract(IERC20)435"
					},
					{
						"astId": 46,
						"contract": "contracts/staking.sol:Staking",
						"label": "rewardsToken",
						"offset": 0,
						"slot": "1",
						"type": "t_contract(IERC20)435"
					},
					{
						"astId": 48,
						"contract": "contracts/staking.sol:Staking",
						"label": "totalStake",
						"offset": 0,
						"slot": "2",
						"type": "t_uint256"
					},
					{
						"astId": 50,
						"contract": "contracts/staking.sol:Staking",
						"label": "totalStakeRewards",
						"offset": 0,
						"slot": "3",
						"type": "t_uint256"
					},
					{
						"astId": 52,
						"contract": "contracts/staking.sol:Staking",
						"label": "duration",
						"offset": 0,
						"slot": "4",
						"type": "t_uint256"
					},
					{
						"astId": 54,
						"contract": "contracts/staking.sol:Staking",
						"label": "finishAt",
						"offset": 0,
						"slot": "5",
						"type": "t_uint256"
					},
					{
						"astId": 56,
						"contract": "contracts/staking.sol:Staking",
						"label": "updatedAt",
						"offset": 0,
						"slot": "6",
						"type": "t_uint256"
					},
					{
						"astId": 58,
						"contract": "contracts/staking.sol:Staking",
						"label": "rate",
						"offset": 0,
						"slot": "7",
						"type": "t_uint256"
					},
					{
						"astId": 64,
						"contract": "contracts/staking.sol:Staking",
						"label": "_balance",
						"offset": 0,
						"slot": "8",
						"type": "t_mapping(t_address,t_mapping(t_string_memory_ptr,t_uint256))"
					},
					{
						"astId": 68,
						"contract": "contracts/staking.sol:Staking",
						"label": "_rewardsWithdrawals",
						"offset": 0,
						"slot": "9",
						"type": "t_mapping(t_address,t_uint256)"
					},
					{
						"astId": 72,
						"contract": "contracts/staking.sol:Staking",
						"label": "accBeforeUpdate",
						"offset": 0,
						"slot": "10",
						"type": "t_mapping(t_address,t_uint256)"
					}
				],
				"types": {
					"t_address": {
						"encoding": "inplace",
						"label": "address",
						"numberOfBytes": "20"
					},
					"t_contract(IERC20)435": {
						"encoding": "inplace",
						"label": "contract IERC20",
						"numberOfBytes": "20"
					},
					"t_mapping(t_address,t_mapping(t_string_memory_ptr,t_uint256))": {
						"encoding": "mapping",
						"key": "t_address",
						"label": "mapping(address => mapping(string => uint256))",
						"numberOfBytes": "32",
						"value": "t_mapping(t_string_memory_ptr,t_uint256)"
					},
					"t_mapping(t_address,t_uint256)": {
						"encoding": "mapping",
						"key": "t_address",
						"label": "mapping(address => uint256)",
						"numberOfBytes": "32",
						"value": "t_uint256"
					},
					"t_mapping(t_string_memory_ptr,t_uint256)": {
						"encoding": "mapping",
						"key": "t_string_memory_ptr",
						"label": "mapping(string => uint256)",
						"numberOfBytes": "32",
						"value": "t_uint256"
					},
					"t_string_memory_ptr": {
						"encoding": "bytes",
						"label": "string",
						"numberOfBytes": "32"
					},
					"t_uint256": {
						"encoding": "inplace",
						"label": "uint256",
						"numberOfBytes": "32"
					}
				}
			},
			"userdoc": {
				"kind": "user",
				"methods": {},
				"version": 1
			}
		}
	}
}