{
	"contracts/staking.sol": {
		"Staking": {
			"abi": [
				{
					"inputs": [
						{
							"internalType": "address",
							"name": "_stakeToken",
							"type": "address"
						},
						{
							"internalType": "address",
							"name": "_rewardsToken",
							"type": "address"
						}
					],
					"stateMutability": "nonpayable",
					"type": "constructor"
				},
				{
					"inputs": [
						{
							"internalType": "address",
							"name": "",
							"type": "address"
						},
						{
							"internalType": "string",
							"name": "",
							"type": "string"
						}
					],
					"name": "_balance",
					"outputs": [
						{
							"internalType": "uint256",
							"name": "",
							"type": "uint256"
						}
					],
					"stateMutability": "view",
					"type": "function"
				},
				{
					"inputs": [],
					"name": "balance",
					"outputs": [
						{
							"internalType": "uint256",
							"name": "",
							"type": "uint256"
						}
					],
					"stateMutability": "view",
					"type": "function"
				},
				{
					"inputs": [],
					"name": "calculateRewards",
					"outputs": [
						{
							"internalType": "uint256",
							"name": "",
							"type": "uint256"
						}
					],
					"stateMutability": "view",
					"type": "function"
				},
				{
					"inputs": [
						{
							"internalType": "uint256",
							"name": "amount",
							"type": "uint256"
						}
					],
					"name": "depositStake",
					"outputs": [],
					"stateMutability": "nonpayable",
					"type": "function"
				},
				{
					"inputs": [],
					"name": "duration",
					"outputs": [
						{
							"internalType": "uint256",
							"name": "",
							"type": "uint256"
						}
					],
					"stateMutability": "view",
					"type": "function"
				},
				{
					"inputs": [],
					"name": "earned",
					"outputs": [
						{
							"internalType": "uint256",
							"name": "",
							"type": "uint256"
						}
					],
					"stateMutability": "view",
					"type": "function"
				},
				{
					"inputs": [],
					"name": "finishAt",
					"outputs": [
						{
							"internalType": "uint256",
							"name": "",
							"type": "uint256"
						}
					],
					"stateMutability": "view",
					"type": "function"
				},
				{
					"inputs": [],
					"name": "getDuration",
					"outputs": [
						{
							"internalType": "uint256",
							"name": "",
							"type": "uint256"
						}
					],
					"stateMutability": "view",
					"type": "function"
				},
				{
					"inputs": [],
					"name": "lockStakes",
					"outputs": [],
					"stateMutability": "nonpayable",
					"type": "function"
				},
				{
					"inputs": [],
					"name": "owner",
					"outputs": [
						{
							"internalType": "address",
							"name": "",
							"type": "address"
						}
					],
					"stateMutability": "view",
					"type": "function"
				},
				{
					"inputs": [],
					"name": "rate",
					"outputs": [
						{
							"internalType": "uint256",
							"name": "",
							"type": "uint256"
						}
					],
					"stateMutability": "view",
					"type": "function"
				},
				{
					"inputs": [],
					"name": "rewardsToken",
					"outputs": [
						{
							"internalType": "contract IERC20",
							"name": "",
							"type": "address"
						}
					],
					"stateMutability": "view",
					"type": "function"
				},
				{
					"inputs": [
						{
							"internalType": "uint256",
							"name": "_duration",
							"type": "uint256"
						}
					],
					"name": "setDuration",
					"outputs": [],
					"stateMutability": "nonpayable",
					"type": "function"
				},
				{
					"inputs": [
						{
							"internalType": "uint256",
							"name": "_rate",
							"type": "uint256"
						}
					],
					"name": "setRewardRate",
					"outputs": [],
					"stateMutability": "nonpayable",
					"type": "function"
				},
				{
					"inputs": [],
					"name": "stakingToken",
					"outputs": [
						{
							"internalType": "contract IERC20",
							"name": "",
							"type": "address"
						}
					],
					"stateMutability": "view",
					"type": "function"
				},
				{
					"inputs": [],
					"name": "totalStake",
					"outputs": [
						{
							"internalType": "uint256",
							"name": "",
							"type": "uint256"
						}
					],
					"stateMutability": "view",
					"type": "function"
				},
				{
					"inputs": [],
					"name": "totalStakeRewards",
					"outputs": [
						{
							"internalType": "uint256",
							"name": "",
							"type": "uint256"
						}
					],
					"stateMutability": "view",
					"type": "function"
				},
				{
					"inputs": [],
					"name": "updatedAt",
					"outputs": [
						{
							"internalType": "uint256",
							"name": "",
							"type": "uint256"
						}
					],
					"stateMutability": "view",
					"type": "function"
				},
				{
					"inputs": [
						{
							"internalType": "uint256",
							"name": "_amount",
							"type": "uint256"
						}
					],
					"name": "withdrawReward",
					"outputs": [],
					"stateMutability": "nonpayable",
					"type": "function"
				},
				{
					"inputs": [],
					"name": "withdrawStakes",
					"outputs": [],
					"stateMutability": "nonpayable",
					"type": "function"
				}
			],
			"devdoc": {
				"kind": "dev",
				"methods": {},
				"version": 1
			},
			"evm": {
				"assembly": "    /* \"contracts/staking.sol\":617:4371  contract Staking{... */\n  mstore(0x40, 0x80)\n    /* \"contracts/staking.sol\":1323:1475  constructor(address _stakeToken, address _rewardsToken){... */\n  callvalue\n  dup1\n  iszero\n  tag_1\n  jumpi\n  0x00\n  dup1\n  revert\ntag_1:\n  pop\n  mload(0x40)\n  sub(codesize, bytecodeSize)\n  dup1\n  bytecodeSize\n  dup4\n  codecopy\n  dup2\n  dup2\n  add\n  0x40\n  mstore\n  dup2\n  add\n  swap1\n  tag_2\n  swap2\n  swap1\n  tag_3\n  jump\t// in\ntag_2:\n    /* \"contracts/staking.sol\":1410:1421  _stakeToken */\n  dup2\n    /* \"contracts/staking.sol\":1388:1400  stakingToken */\n  0x00\n  dup1\n    /* \"contracts/staking.sol\":1388:1422  stakingToken = IERC20(_stakeToken) */\n  0x0100\n  exp\n  dup2\n  sload\n  dup2\n  0xffffffffffffffffffffffffffffffffffffffff\n  mul\n  not\n  and\n  swap1\n  dup4\n  0xffffffffffffffffffffffffffffffffffffffff\n  and\n  mul\n  or\n  swap1\n  sstore\n  pop\n    /* \"contracts/staking.sol\":1454:1467  _rewardsToken */\n  dup1\n    /* \"contracts/staking.sol\":1432:1444  rewardsToken */\n  0x01\n  0x00\n    /* \"contracts/staking.sol\":1432:1468  rewardsToken = IERC20(_rewardsToken) */\n  0x0100\n  exp\n  dup2\n  sload\n  dup2\n  0xffffffffffffffffffffffffffffffffffffffff\n  mul\n  not\n  and\n  swap1\n  dup4\n  0xffffffffffffffffffffffffffffffffffffffff\n  and\n  mul\n  or\n  swap1\n  sstore\n  pop\n    /* \"contracts/staking.sol\":1323:1475  constructor(address _stakeToken, address _rewardsToken){... */\n  pop\n  pop\n    /* \"contracts/staking.sol\":617:4371  contract Staking{... */\n  jump(tag_6)\n    /* \"#utility.yul\":88:205   */\ntag_8:\n    /* \"#utility.yul\":197:198   */\n  0x00\n    /* \"#utility.yul\":194:195   */\n  dup1\n    /* \"#utility.yul\":187:199   */\n  revert\n    /* \"#utility.yul\":334:460   */\ntag_10:\n    /* \"#utility.yul\":371:378   */\n  0x00\n    /* \"#utility.yul\":411:453   */\n  0xffffffffffffffffffffffffffffffffffffffff\n    /* \"#utility.yul\":404:409   */\n  dup3\n    /* \"#utility.yul\":400:454   */\n  and\n    /* \"#utility.yul\":389:454   */\n  swap1\n  pop\n    /* \"#utility.yul\":334:460   */\n  swap2\n  swap1\n  pop\n  jump\t// out\n    /* \"#utility.yul\":466:562   */\ntag_11:\n    /* \"#utility.yul\":503:510   */\n  0x00\n    /* \"#utility.yul\":532:556   */\n  tag_20\n    /* \"#utility.yul\":550:555   */\n  dup3\n    /* \"#utility.yul\":532:556   */\n  tag_10\n  jump\t// in\ntag_20:\n    /* \"#utility.yul\":521:556   */\n  swap1\n  pop\n    /* \"#utility.yul\":466:562   */\n  swap2\n  swap1\n  pop\n  jump\t// out\n    /* \"#utility.yul\":568:690   */\ntag_12:\n    /* \"#utility.yul\":641:665   */\n  tag_22\n    /* \"#utility.yul\":659:664   */\n  dup2\n    /* \"#utility.yul\":641:665   */\n  tag_11\n  jump\t// in\ntag_22:\n    /* \"#utility.yul\":634:639   */\n  dup2\n    /* \"#utility.yul\":631:666   */\n  eq\n    /* \"#utility.yul\":621:684   */\n  tag_23\n  jumpi\n    /* \"#utility.yul\":680:681   */\n  0x00\n    /* \"#utility.yul\":677:678   */\n  dup1\n    /* \"#utility.yul\":670:682   */\n  revert\n    /* \"#utility.yul\":621:684   */\ntag_23:\n    /* \"#utility.yul\":568:690   */\n  pop\n  jump\t// out\n    /* \"#utility.yul\":696:839   */\ntag_13:\n    /* \"#utility.yul\":753:758   */\n  0x00\n    /* \"#utility.yul\":784:790   */\n  dup2\n    /* \"#utility.yul\":778:791   */\n  mload\n    /* \"#utility.yul\":769:791   */\n  swap1\n  pop\n    /* \"#utility.yul\":800:833   */\n  tag_25\n    /* \"#utility.yul\":827:832   */\n  dup2\n    /* \"#utility.yul\":800:833   */\n  tag_12\n  jump\t// in\ntag_25:\n    /* \"#utility.yul\":696:839   */\n  swap3\n  swap2\n  pop\n  pop\n  jump\t// out\n    /* \"#utility.yul\":845:1352   */\ntag_3:\n    /* \"#utility.yul\":924:930   */\n  0x00\n    /* \"#utility.yul\":932:938   */\n  dup1\n    /* \"#utility.yul\":981:983   */\n  0x40\n    /* \"#utility.yul\":969:978   */\n  dup4\n    /* \"#utility.yul\":960:967   */\n  dup6\n    /* \"#utility.yul\":956:979   */\n  sub\n    /* \"#utility.yul\":952:984   */\n  slt\n    /* \"#utility.yul\":949:1068   */\n  iszero\n  tag_27\n  jumpi\n    /* \"#utility.yul\":987:1066   */\n  tag_28\n  tag_8\n  jump\t// in\ntag_28:\n    /* \"#utility.yul\":949:1068   */\ntag_27:\n    /* \"#utility.yul\":1107:1108   */\n  0x00\n    /* \"#utility.yul\":1132:1196   */\n  tag_29\n    /* \"#utility.yul\":1188:1195   */\n  dup6\n    /* \"#utility.yul\":1179:1185   */\n  dup3\n    /* \"#utility.yul\":1168:1177   */\n  dup7\n    /* \"#utility.yul\":1164:1186   */\n  add\n    /* \"#utility.yul\":1132:1196   */\n  tag_13\n  jump\t// in\ntag_29:\n    /* \"#utility.yul\":1122:1196   */\n  swap3\n  pop\n    /* \"#utility.yul\":1078:1206   */\n  pop\n    /* \"#utility.yul\":1245:1247   */\n  0x20\n    /* \"#utility.yul\":1271:1335   */\n  tag_30\n    /* \"#utility.yul\":1327:1334   */\n  dup6\n    /* \"#utility.yul\":1318:1324   */\n  dup3\n    /* \"#utility.yul\":1307:1316   */\n  dup7\n    /* \"#utility.yul\":1303:1325   */\n  add\n    /* \"#utility.yul\":1271:1335   */\n  tag_13\n  jump\t// in\ntag_30:\n    /* \"#utility.yul\":1261:1335   */\n  swap2\n  pop\n    /* \"#utility.yul\":1216:1345   */\n  pop\n    /* \"#utility.yul\":845:1352   */\n  swap3\n  pop\n  swap3\n  swap1\n  pop\n  jump\t// out\n    /* \"contracts/staking.sol\":617:4371  contract Staking{... */\ntag_6:\n  dataSize(sub_0)\n  dup1\n  dataOffset(sub_0)\n  0x00\n  codecopy\n  0x00\n  return\nstop\n\nsub_0: assembly {\n        /* \"contracts/staking.sol\":617:4371  contract Staking{... */\n      mstore(0x40, 0x80)\n      callvalue\n      dup1\n      iszero\n      tag_1\n      jumpi\n      0x00\n      dup1\n      revert\n    tag_1:\n      pop\n      jumpi(tag_2, lt(calldatasize, 0x04))\n      shr(0xe0, calldataload(0x00))\n      dup1\n      0x7519ab50\n      gt\n      tag_23\n      jumpi\n      dup1\n      0xb69ef8a8\n      gt\n      tag_24\n      jumpi\n      dup1\n      0xb69ef8a8\n      eq\n      tag_18\n      jumpi\n      dup1\n      0xcb82cc8f\n      eq\n      tag_19\n      jumpi\n      dup1\n      0xd1af0c7d\n      eq\n      tag_20\n      jumpi\n      dup1\n      0xd6f19262\n      eq\n      tag_21\n      jumpi\n      dup1\n      0xf6be71d1\n      eq\n      tag_22\n      jumpi\n      jump(tag_2)\n    tag_24:\n      dup1\n      0x7519ab50\n      eq\n      tag_13\n      jumpi\n      dup1\n      0x8b0e9f3f\n      eq\n      tag_14\n      jumpi\n      dup1\n      0x8da5cb5b\n      eq\n      tag_15\n      jumpi\n      dup1\n      0x9e447fc6\n      eq\n      tag_16\n      jumpi\n      dup1\n      0xad2e8c9b\n      eq\n      tag_17\n      jumpi\n      jump(tag_2)\n    tag_23:\n      dup1\n      0x4a618297\n      gt\n      tag_25\n      jumpi\n      dup1\n      0x4a618297\n      eq\n      tag_8\n      jumpi\n      dup1\n      0x50d56aba\n      eq\n      tag_9\n      jumpi\n      dup1\n      0x523a3f08\n      eq\n      tag_10\n      jumpi\n      dup1\n      0x67d3b488\n      eq\n      tag_11\n      jumpi\n      dup1\n      0x72f702f3\n      eq\n      tag_12\n      jumpi\n      jump(tag_2)\n    tag_25:\n      dup1\n      0x0fb5a6b4\n      eq\n      tag_3\n      jumpi\n      dup1\n      0x289ed738\n      eq\n      tag_4\n      jumpi\n      dup1\n      0x2c4e722e\n      eq\n      tag_5\n      jumpi\n      dup1\n      0x327bcac5\n      eq\n      tag_6\n      jumpi\n      dup1\n      0x3e50de30\n      eq\n      tag_7\n      jumpi\n    tag_2:\n      0x00\n      dup1\n      revert\n        /* \"contracts/staking.sol\":833:853  uint public duration */\n    tag_3:\n      tag_26\n      tag_27\n      jump\t// in\n    tag_26:\n      mload(0x40)\n      tag_28\n      swap2\n      swap1\n      tag_29\n      jump\t// in\n    tag_28:\n      mload(0x40)\n      dup1\n      swap2\n      sub\n      swap1\n      return\n        /* \"contracts/staking.sol\":4077:4369  function withdrawStakes() external{... */\n    tag_4:\n      tag_30\n      tag_31\n      jump\t// in\n    tag_30:\n      stop\n        /* \"contracts/staking.sol\":931:947  uint public rate */\n    tag_5:\n      tag_32\n      tag_33\n      jump\t// in\n    tag_32:\n      mload(0x40)\n      tag_34\n      swap2\n      swap1\n      tag_29\n      jump\t// in\n    tag_34:\n      mload(0x40)\n      dup1\n      swap2\n      sub\n      swap1\n      return\n        /* \"contracts/staking.sol\":793:822  uint public totalStakeRewards */\n    tag_6:\n      tag_35\n      tag_36\n      jump\t// in\n    tag_35:\n      mload(0x40)\n      tag_37\n      swap2\n      swap1\n      tag_29\n      jump\t// in\n    tag_37:\n      mload(0x40)\n      dup1\n      swap2\n      sub\n      swap1\n      return\n        /* \"contracts/staking.sol\":3260:3466  function calculateRewards() view public returns(uint256){... */\n    tag_7:\n      tag_38\n      tag_39\n      jump\t// in\n    tag_38:\n      mload(0x40)\n      tag_40\n      swap2\n      swap1\n      tag_29\n      jump\t// in\n    tag_40:\n      mload(0x40)\n      dup1\n      swap2\n      sub\n      swap1\n      return\n        /* \"contracts/staking.sol\":3900:4071  function lockStakes() external{... */\n    tag_8:\n      tag_41\n      tag_42\n      jump\t// in\n    tag_41:\n      stop\n        /* \"contracts/staking.sol\":968:1031  mapping (address => mapping(string => uint256)) public _balance */\n    tag_9:\n      tag_43\n      0x04\n      dup1\n      calldatasize\n      sub\n      dup2\n      add\n      swap1\n      tag_44\n      swap2\n      swap1\n      tag_45\n      jump\t// in\n    tag_44:\n      tag_46\n      jump\t// in\n    tag_43:\n      mload(0x40)\n      tag_47\n      swap2\n      swap1\n      tag_29\n      jump\t// in\n    tag_47:\n      mload(0x40)\n      dup1\n      swap2\n      sub\n      swap1\n      return\n        /* \"contracts/staking.sol\":3472:3894  function withdrawReward(uint256 _amount) external{... */\n    tag_10:\n      tag_48\n      0x04\n      dup1\n      calldatasize\n      sub\n      dup2\n      add\n      swap1\n      tag_49\n      swap2\n      swap1\n      tag_50\n      jump\t// in\n    tag_49:\n      tag_51\n      jump\t// in\n    tag_48:\n      stop\n        /* \"contracts/staking.sol\":877:897  uint public finishAt */\n    tag_11:\n      tag_52\n      tag_53\n      jump\t// in\n    tag_52:\n      mload(0x40)\n      tag_54\n      swap2\n      swap1\n      tag_29\n      jump\t// in\n    tag_54:\n      mload(0x40)\n      dup1\n      swap2\n      sub\n      swap1\n      return\n        /* \"contracts/staking.sol\":700:726  IERC20 public stakingToken */\n    tag_12:\n      tag_55\n      tag_56\n      jump\t// in\n    tag_55:\n      mload(0x40)\n      tag_57\n      swap2\n      swap1\n      tag_58\n      jump\t// in\n    tag_57:\n      mload(0x40)\n      dup1\n      swap2\n      sub\n      swap1\n      return\n        /* \"contracts/staking.sol\":903:924  uint public updatedAt */\n    tag_13:\n      tag_59\n      tag_60\n      jump\t// in\n    tag_59:\n      mload(0x40)\n      tag_61\n      swap2\n      swap1\n      tag_29\n      jump\t// in\n    tag_61:\n      mload(0x40)\n      dup1\n      swap2\n      sub\n      swap1\n      return\n        /* \"contracts/staking.sol\":765:787  uint public totalStake */\n    tag_14:\n      tag_62\n      tag_63\n      jump\t// in\n    tag_62:\n      mload(0x40)\n      tag_64\n      swap2\n      swap1\n      tag_29\n      jump\t// in\n    tag_64:\n      mload(0x40)\n      dup1\n      swap2\n      sub\n      swap1\n      return\n        /* \"contracts/staking.sol\":1152:1172  address public owner */\n    tag_15:\n      tag_65\n      tag_66\n      jump\t// in\n    tag_65:\n      mload(0x40)\n      tag_67\n      swap2\n      swap1\n      tag_68\n      jump\t// in\n    tag_67:\n      mload(0x40)\n      dup1\n      swap2\n      sub\n      swap1\n      return\n        /* \"contracts/staking.sol\":2413:2561  function setRewardRate(uint _rate) external {... */\n    tag_16:\n      tag_69\n      0x04\n      dup1\n      calldatasize\n      sub\n      dup2\n      add\n      swap1\n      tag_70\n      swap2\n      swap1\n      tag_50\n      jump\t// in\n    tag_70:\n      tag_71\n      jump\t// in\n    tag_69:\n      stop\n        /* \"contracts/staking.sol\":2910:2995  function getDuration() view external returns(uint256){... */\n    tag_17:\n      tag_72\n      tag_73\n      jump\t// in\n    tag_72:\n      mload(0x40)\n      tag_74\n      swap2\n      swap1\n      tag_29\n      jump\t// in\n    tag_74:\n      mload(0x40)\n      dup1\n      swap2\n      sub\n      swap1\n      return\n        /* \"contracts/staking.sol\":2303:2407  function balance() external view returns (uint256){... */\n    tag_18:\n      tag_75\n      tag_76\n      jump\t// in\n    tag_75:\n      mload(0x40)\n      tag_77\n      swap2\n      swap1\n      tag_29\n      jump\t// in\n    tag_77:\n      mload(0x40)\n      dup1\n      swap2\n      sub\n      swap1\n      return\n        /* \"contracts/staking.sol\":1481:2298  function depositStake (uint amount) external {... */\n    tag_19:\n      tag_78\n      0x04\n      dup1\n      calldatasize\n      sub\n      dup2\n      add\n      swap1\n      tag_79\n      swap2\n      swap1\n      tag_50\n      jump\t// in\n    tag_79:\n      tag_80\n      jump\t// in\n    tag_78:\n      stop\n        /* \"contracts/staking.sol\":732:758  IERC20 public rewardsToken */\n    tag_20:\n      tag_81\n      tag_82\n      jump\t// in\n    tag_81:\n      mload(0x40)\n      tag_83\n      swap2\n      swap1\n      tag_58\n      jump\t// in\n    tag_83:\n      mload(0x40)\n      dup1\n      swap2\n      sub\n      swap1\n      return\n        /* \"contracts/staking.sol\":3001:3254  function earned() view public returns(uint256){... */\n    tag_21:\n      tag_84\n      tag_85\n      jump\t// in\n    tag_84:\n      mload(0x40)\n      tag_86\n      swap2\n      swap1\n      tag_29\n      jump\t// in\n    tag_86:\n      mload(0x40)\n      dup1\n      swap2\n      sub\n      swap1\n      return\n        /* \"contracts/staking.sol\":2567:2904  function setDuration(uint256 _duration) external{... */\n    tag_22:\n      tag_87\n      0x04\n      dup1\n      calldatasize\n      sub\n      dup2\n      add\n      swap1\n      tag_88\n      swap2\n      swap1\n      tag_50\n      jump\t// in\n    tag_88:\n      tag_89\n      jump\t// in\n    tag_87:\n      stop\n        /* \"contracts/staking.sol\":833:853  uint public duration */\n    tag_27:\n      sload(0x04)\n      dup2\n      jump\t// out\n        /* \"contracts/staking.sol\":4077:4369  function withdrawStakes() external{... */\n    tag_31:\n        /* \"contracts/staking.sol\":4162:4163  0 */\n      0x00\n        /* \"contracts/staking.sol\":4129:4137  _balance */\n      0x08\n        /* \"contracts/staking.sol\":4129:4149  _balance[msg.sender] */\n      0x00\n        /* \"contracts/staking.sol\":4138:4148  msg.sender */\n      caller\n        /* \"contracts/staking.sol\":4129:4149  _balance[msg.sender] */\n      0xffffffffffffffffffffffffffffffffffffffff\n      and\n      0xffffffffffffffffffffffffffffffffffffffff\n      and\n      dup2\n      mstore\n      0x20\n      add\n      swap1\n      dup2\n      mstore\n      0x20\n      add\n      0x00\n      keccak256\n        /* \"contracts/staking.sol\":4129:4159  _balance[msg.sender][\"amount\"] */\n      mload(0x40)\n      tag_91\n      swap1\n      tag_92\n      jump\t// in\n    tag_91:\n      swap1\n      dup2\n      mstore\n      0x20\n      add\n      mload(0x40)\n      dup1\n      swap2\n      sub\n      swap1\n      keccak256\n      sload\n        /* \"contracts/staking.sol\":4129:4163  _balance[msg.sender][\"amount\"] > 0 */\n      gt\n        /* \"contracts/staking.sol\":4121:4206  require(_balance[msg.sender][\"amount\"] > 0, \"User does not have stakes in this pool\") */\n      tag_93\n      jumpi\n      mload(0x40)\n      0x08c379a000000000000000000000000000000000000000000000000000000000\n      dup2\n      mstore\n      0x04\n      add\n      tag_94\n      swap1\n      tag_95\n      jump\t// in\n    tag_94:\n      mload(0x40)\n      dup1\n      swap2\n      sub\n      swap1\n      revert\n    tag_93:\n        /* \"contracts/staking.sol\":4224:4236  stakingToken */\n      0x00\n      dup1\n      sload\n      swap1\n      0x0100\n      exp\n      swap1\n      div\n      0xffffffffffffffffffffffffffffffffffffffff\n      and\n        /* \"contracts/staking.sol\":4224:4245  stakingToken.transfer */\n      0xffffffffffffffffffffffffffffffffffffffff\n      and\n      0xa9059cbb\n        /* \"contracts/staking.sol\":4246:4256  msg.sender */\n      caller\n        /* \"contracts/staking.sol\":4257:4265  _balance */\n      0x08\n        /* \"contracts/staking.sol\":4257:4277  _balance[msg.sender] */\n      0x00\n        /* \"contracts/staking.sol\":4266:4276  msg.sender */\n      caller\n        /* \"contracts/staking.sol\":4257:4277  _balance[msg.sender] */\n      0xffffffffffffffffffffffffffffffffffffffff\n      and\n      0xffffffffffffffffffffffffffffffffffffffff\n      and\n      dup2\n      mstore\n      0x20\n      add\n      swap1\n      dup2\n      mstore\n      0x20\n      add\n      0x00\n      keccak256\n        /* \"contracts/staking.sol\":4257:4287  _balance[msg.sender][\"amount\"] */\n      mload(0x40)\n      tag_96\n      swap1\n      tag_92\n      jump\t// in\n    tag_96:\n      swap1\n      dup2\n      mstore\n      0x20\n      add\n      mload(0x40)\n      dup1\n      swap2\n      sub\n      swap1\n      keccak256\n      sload\n        /* \"contracts/staking.sol\":4224:4288  stakingToken.transfer(msg.sender,_balance[msg.sender][\"amount\"]) */\n      mload(0x40)\n      dup4\n      0xffffffff\n      and\n      0xe0\n      shl\n      dup2\n      mstore\n      0x04\n      add\n      tag_97\n      swap3\n      swap2\n      swap1\n      tag_98\n      jump\t// in\n    tag_97:\n      0x20\n      mload(0x40)\n      dup1\n      dup4\n      sub\n      dup2\n      0x00\n      dup8\n      gas\n      call\n      iszero\n      dup1\n      iszero\n      tag_100\n      jumpi\n      returndatasize\n      0x00\n      dup1\n      returndatacopy\n      revert(0x00, returndatasize)\n    tag_100:\n      pop\n      pop\n      pop\n      pop\n      mload(0x40)\n      returndatasize\n      not(0x1f)\n      0x1f\n      dup3\n      add\n      and\n      dup3\n      add\n      dup1\n      0x40\n      mstore\n      pop\n      dup2\n      add\n      swap1\n      tag_101\n      swap2\n      swap1\n      tag_102\n      jump\t// in\n    tag_101:\n        /* \"contracts/staking.sol\":4216:4318  require(stakingToken.transfer(msg.sender,_balance[msg.sender][\"amount\"]), \"Failed to transfer tokens\") */\n      tag_103\n      jumpi\n      mload(0x40)\n      0x08c379a000000000000000000000000000000000000000000000000000000000\n      dup2\n      mstore\n      0x04\n      add\n      tag_104\n      swap1\n      tag_105\n      jump\t// in\n    tag_104:\n      mload(0x40)\n      dup1\n      swap2\n      sub\n      swap1\n      revert\n    tag_103:\n        /* \"contracts/staking.sol\":4361:4362  0 */\n      0x00\n        /* \"contracts/staking.sol\":4328:4336  _balance */\n      0x08\n        /* \"contracts/staking.sol\":4328:4348  _balance[msg.sender] */\n      0x00\n        /* \"contracts/staking.sol\":4337:4347  msg.sender */\n      caller\n        /* \"contracts/staking.sol\":4328:4348  _balance[msg.sender] */\n      0xffffffffffffffffffffffffffffffffffffffff\n      and\n      0xffffffffffffffffffffffffffffffffffffffff\n      and\n      dup2\n      mstore\n      0x20\n      add\n      swap1\n      dup2\n      mstore\n      0x20\n      add\n      0x00\n      keccak256\n        /* \"contracts/staking.sol\":4328:4358  _balance[msg.sender][\"amount\"] */\n      mload(0x40)\n      tag_106\n      swap1\n      tag_92\n      jump\t// in\n    tag_106:\n      swap1\n      dup2\n      mstore\n      0x20\n      add\n      mload(0x40)\n      dup1\n      swap2\n      sub\n      swap1\n      keccak256\n        /* \"contracts/staking.sol\":4328:4362  _balance[msg.sender][\"amount\"] = 0 */\n      dup2\n      swap1\n      sstore\n      pop\n        /* \"contracts/staking.sol\":4077:4369  function withdrawStakes() external{... */\n      jump\t// out\n        /* \"contracts/staking.sol\":931:947  uint public rate */\n    tag_33:\n      sload(0x07)\n      dup2\n      jump\t// out\n        /* \"contracts/staking.sol\":793:822  uint public totalStakeRewards */\n    tag_36:\n      sload(0x03)\n      dup2\n      jump\t// out\n        /* \"contracts/staking.sol\":3260:3466  function calculateRewards() view public returns(uint256){... */\n    tag_39:\n        /* \"contracts/staking.sol\":3308:3315  uint256 */\n      0x00\n        /* \"contracts/staking.sol\":3367:3368  0 */\n      dup1\n        /* \"contracts/staking.sol\":3334:3342  _balance */\n      0x08\n        /* \"contracts/staking.sol\":3334:3354  _balance[msg.sender] */\n      0x00\n        /* \"contracts/staking.sol\":3343:3353  msg.sender */\n      caller\n        /* \"contracts/staking.sol\":3334:3354  _balance[msg.sender] */\n      0xffffffffffffffffffffffffffffffffffffffff\n      and\n      0xffffffffffffffffffffffffffffffffffffffff\n      and\n      dup2\n      mstore\n      0x20\n      add\n      swap1\n      dup2\n      mstore\n      0x20\n      add\n      0x00\n      keccak256\n        /* \"contracts/staking.sol\":3334:3364  _balance[msg.sender][\"amount\"] */\n      mload(0x40)\n      tag_108\n      swap1\n      tag_92\n      jump\t// in\n    tag_108:\n      swap1\n      dup2\n      mstore\n      0x20\n      add\n      mload(0x40)\n      dup1\n      swap2\n      sub\n      swap1\n      keccak256\n      sload\n        /* \"contracts/staking.sol\":3334:3368  _balance[msg.sender][\"amount\"] > 0 */\n      gt\n        /* \"contracts/staking.sol\":3326:3403  require(_balance[msg.sender][\"amount\"] > 0, \"You have not staked any tokens\") */\n      tag_109\n      jumpi\n      mload(0x40)\n      0x08c379a000000000000000000000000000000000000000000000000000000000\n      dup2\n      mstore\n      0x04\n      add\n      tag_110\n      swap1\n      tag_111\n      jump\t// in\n    tag_110:\n      mload(0x40)\n      dup1\n      swap2\n      sub\n      swap1\n      revert\n    tag_109:\n        /* \"contracts/staking.sol\":3432:3447  accBeforeUpdate */\n      0x0a\n        /* \"contracts/staking.sol\":3432:3459  accBeforeUpdate[msg.sender] */\n      0x00\n        /* \"contracts/staking.sol\":3448:3458  msg.sender */\n      caller\n        /* \"contracts/staking.sol\":3432:3459  accBeforeUpdate[msg.sender] */\n      0xffffffffffffffffffffffffffffffffffffffff\n      and\n      0xffffffffffffffffffffffffffffffffffffffff\n      and\n      dup2\n      mstore\n      0x20\n      add\n      swap1\n      dup2\n      mstore\n      0x20\n      add\n      0x00\n      keccak256\n      sload\n        /* \"contracts/staking.sol\":3421:3429  earned() */\n      tag_112\n        /* \"contracts/staking.sol\":3421:3427  earned */\n      tag_85\n        /* \"contracts/staking.sol\":3421:3429  earned() */\n      jump\t// in\n    tag_112:\n        /* \"contracts/staking.sol\":3421:3459  earned() + accBeforeUpdate[msg.sender] */\n      tag_113\n      swap2\n      swap1\n      tag_114\n      jump\t// in\n    tag_113:\n        /* \"contracts/staking.sol\":3414:3459  return earned() + accBeforeUpdate[msg.sender] */\n      swap1\n      pop\n        /* \"contracts/staking.sol\":3260:3466  function calculateRewards() view public returns(uint256){... */\n      swap1\n      jump\t// out\n        /* \"contracts/staking.sol\":3900:4071  function lockStakes() external{... */\n    tag_42:\n        /* \"contracts/staking.sol\":3986:3987  1 */\n      0x01\n        /* \"contracts/staking.sol\":3948:3956  _balance */\n      0x08\n        /* \"contracts/staking.sol\":3948:3968  _balance[msg.sender] */\n      0x00\n        /* \"contracts/staking.sol\":3957:3967  msg.sender */\n      caller\n        /* \"contracts/staking.sol\":3948:3968  _balance[msg.sender] */\n      0xffffffffffffffffffffffffffffffffffffffff\n      and\n      0xffffffffffffffffffffffffffffffffffffffff\n      and\n      dup2\n      mstore\n      0x20\n      add\n      swap1\n      dup2\n      mstore\n      0x20\n      add\n      0x00\n      keccak256\n        /* \"contracts/staking.sol\":3948:3982  _balance[msg.sender][\"lockStakes\"] */\n      mload(0x40)\n      tag_116\n      swap1\n      tag_117\n      jump\t// in\n    tag_116:\n      swap1\n      dup2\n      mstore\n      0x20\n      add\n      mload(0x40)\n      dup1\n      swap2\n      sub\n      swap1\n      keccak256\n      sload\n        /* \"contracts/staking.sol\":3948:3987  _balance[msg.sender][\"lockStakes\"] != 1 */\n      sub\n        /* \"contracts/staking.sol\":3940:4015  require(_balance[msg.sender][\"lockStakes\"] != 1, \"Stakes have been locked\") */\n      tag_118\n      jumpi\n      mload(0x40)\n      0x08c379a000000000000000000000000000000000000000000000000000000000\n      dup2\n      mstore\n      0x04\n      add\n      tag_119\n      swap1\n      tag_120\n      jump\t// in\n    tag_119:\n      mload(0x40)\n      dup1\n      swap2\n      sub\n      swap1\n      revert\n    tag_118:\n        /* \"contracts/staking.sol\":4063:4064  1 */\n      0x01\n        /* \"contracts/staking.sol\":4026:4034  _balance */\n      0x08\n        /* \"contracts/staking.sol\":4026:4046  _balance[msg.sender] */\n      0x00\n        /* \"contracts/staking.sol\":4035:4045  msg.sender */\n      caller\n        /* \"contracts/staking.sol\":4026:4046  _balance[msg.sender] */\n      0xffffffffffffffffffffffffffffffffffffffff\n      and\n      0xffffffffffffffffffffffffffffffffffffffff\n      and\n      dup2\n      mstore\n      0x20\n      add\n      swap1\n      dup2\n      mstore\n      0x20\n      add\n      0x00\n      keccak256\n        /* \"contracts/staking.sol\":4026:4060  _balance[msg.sender][\"lockStakes\"] */\n      mload(0x40)\n      tag_121\n      swap1\n      tag_117\n      jump\t// in\n    tag_121:\n      swap1\n      dup2\n      mstore\n      0x20\n      add\n      mload(0x40)\n      dup1\n      swap2\n      sub\n      swap1\n      keccak256\n        /* \"contracts/staking.sol\":4026:4064  _balance[msg.sender][\"lockStakes\"] = 1 */\n      dup2\n      swap1\n      sstore\n      pop\n        /* \"contracts/staking.sol\":3900:4071  function lockStakes() external{... */\n      jump\t// out\n        /* \"contracts/staking.sol\":968:1031  mapping (address => mapping(string => uint256)) public _balance */\n    tag_46:\n      mstore(0x20, 0x08)\n      dup2\n      0x00\n      mstore\n      keccak256(0x00, 0x40)\n      dup2\n      dup1\n      mload\n      0x20\n      dup2\n      add\n      dup3\n      add\n      dup1\n      mload\n      dup5\n      dup3\n      mstore\n      0x20\n      dup4\n      add\n      0x20\n      dup6\n      add\n      keccak256\n      dup2\n      dup4\n      mstore\n      dup1\n      swap6\n      pop\n      pop\n      pop\n      pop\n      pop\n      pop\n      0x00\n      swap2\n      pop\n      swap2\n      pop\n      pop\n      sload\n      dup2\n      jump\t// out\n        /* \"contracts/staking.sol\":3472:3894  function withdrawReward(uint256 _amount) external{... */\n    tag_51:\n        /* \"contracts/staking.sol\":3531:3541  uint total */\n      0x00\n        /* \"contracts/staking.sol\":3544:3562  calculateRewards() */\n      tag_123\n        /* \"contracts/staking.sol\":3544:3560  calculateRewards */\n      tag_39\n        /* \"contracts/staking.sol\":3544:3562  calculateRewards() */\n      jump\t// in\n    tag_123:\n        /* \"contracts/staking.sol\":3531:3562  uint total = calculateRewards() */\n      swap1\n      pop\n        /* \"contracts/staking.sol\":3588:3589  0 */\n      0x00\n        /* \"contracts/staking.sol\":3580:3585  total */\n      dup2\n        /* \"contracts/staking.sol\":3580:3589  total > 0 */\n      gt\n        /* \"contracts/staking.sol\":3580:3604  total > 0 && _amount > 0 */\n      dup1\n      iszero\n      tag_124\n      jumpi\n      pop\n        /* \"contracts/staking.sol\":3603:3604  0 */\n      0x00\n        /* \"contracts/staking.sol\":3593:3600  _amount */\n      dup3\n        /* \"contracts/staking.sol\":3593:3604  _amount > 0 */\n      gt\n        /* \"contracts/staking.sol\":3580:3604  total > 0 && _amount > 0 */\n    tag_124:\n        /* \"contracts/staking.sol\":3572:3640  require(total > 0 && _amount > 0, \"You have not earned any rewards\") */\n      tag_125\n      jumpi\n      mload(0x40)\n      0x08c379a000000000000000000000000000000000000000000000000000000000\n      dup2\n      mstore\n      0x04\n      add\n      tag_126\n      swap1\n      tag_127\n      jump\t// in\n    tag_126:\n      mload(0x40)\n      dup1\n      swap2\n      sub\n      swap1\n      revert\n    tag_125:\n        /* \"contracts/staking.sol\":3700:3707  _amount */\n      dup2\n        /* \"contracts/staking.sol\":3666:3685  _rewardsWithdrawals */\n      0x09\n        /* \"contracts/staking.sol\":3666:3697  _rewardsWithdrawals[msg.sender] */\n      0x00\n        /* \"contracts/staking.sol\":3686:3696  msg.sender */\n      caller\n        /* \"contracts/staking.sol\":3666:3697  _rewardsWithdrawals[msg.sender] */\n      0xffffffffffffffffffffffffffffffffffffffff\n      and\n      0xffffffffffffffffffffffffffffffffffffffff\n      and\n      dup2\n      mstore\n      0x20\n      add\n      swap1\n      dup2\n      mstore\n      0x20\n      add\n      0x00\n      keccak256\n      sload\n        /* \"contracts/staking.sol\":3658:3663  total */\n      dup3\n        /* \"contracts/staking.sol\":3658:3697  total - _rewardsWithdrawals[msg.sender] */\n      tag_128\n      swap2\n      swap1\n      tag_129\n      jump\t// in\n    tag_128:\n        /* \"contracts/staking.sol\":3658:3707  total - _rewardsWithdrawals[msg.sender] > _amount */\n      gt\n        /* \"contracts/staking.sol\":3650:3745  require(total - _rewardsWithdrawals[msg.sender] > _amount, \"You don't have enough to withdraw\") */\n      tag_130\n      jumpi\n      mload(0x40)\n      0x08c379a000000000000000000000000000000000000000000000000000000000\n      dup2\n      mstore\n      0x04\n      add\n      tag_131\n      swap1\n      tag_132\n      jump\t// in\n    tag_131:\n      mload(0x40)\n      dup1\n      swap2\n      sub\n      swap1\n      revert\n    tag_130:\n        /* \"contracts/staking.sol\":3763:3775  rewardsToken */\n      0x01\n      0x00\n      swap1\n      sload\n      swap1\n      0x0100\n      exp\n      swap1\n      div\n      0xffffffffffffffffffffffffffffffffffffffff\n      and\n        /* \"contracts/staking.sol\":3763:3784  rewardsToken.transfer */\n      0xffffffffffffffffffffffffffffffffffffffff\n      and\n      0xa9059cbb\n        /* \"contracts/staking.sol\":3785:3795  msg.sender */\n      caller\n        /* \"contracts/staking.sol\":3797:3804  _amount */\n      dup5\n        /* \"contracts/staking.sol\":3763:3805  rewardsToken.transfer(msg.sender, _amount) */\n      mload(0x40)\n      dup4\n      0xffffffff\n      and\n      0xe0\n      shl\n      dup2\n      mstore\n      0x04\n      add\n      tag_133\n      swap3\n      swap2\n      swap1\n      tag_98\n      jump\t// in\n    tag_133:\n      0x20\n      mload(0x40)\n      dup1\n      dup4\n      sub\n      dup2\n      0x00\n      dup8\n      gas\n      call\n      iszero\n      dup1\n      iszero\n      tag_135\n      jumpi\n      returndatasize\n      0x00\n      dup1\n      returndatacopy\n      revert(0x00, returndatasize)\n    tag_135:\n      pop\n      pop\n      pop\n      pop\n      mload(0x40)\n      returndatasize\n      not(0x1f)\n      0x1f\n      dup3\n      add\n      and\n      dup3\n      add\n      dup1\n      0x40\n      mstore\n      pop\n      dup2\n      add\n      swap1\n      tag_136\n      swap2\n      swap1\n      tag_102\n      jump\t// in\n    tag_136:\n        /* \"contracts/staking.sol\":3755:3835  require(rewardsToken.transfer(msg.sender, _amount), \"Failed to transfer tokens\") */\n      tag_137\n      jumpi\n      mload(0x40)\n      0x08c379a000000000000000000000000000000000000000000000000000000000\n      dup2\n      mstore\n      0x04\n      add\n      tag_138\n      swap1\n      tag_105\n      jump\t// in\n    tag_138:\n      mload(0x40)\n      dup1\n      swap2\n      sub\n      swap1\n      revert\n    tag_137:\n        /* \"contracts/staking.sol\":3880:3887  _amount */\n      dup2\n        /* \"contracts/staking.sol\":3845:3864  _rewardsWithdrawals */\n      0x09\n        /* \"contracts/staking.sol\":3845:3876  _rewardsWithdrawals[msg.sender] */\n      0x00\n        /* \"contracts/staking.sol\":3865:3875  msg.sender */\n      caller\n        /* \"contracts/staking.sol\":3845:3876  _rewardsWithdrawals[msg.sender] */\n      0xffffffffffffffffffffffffffffffffffffffff\n      and\n      0xffffffffffffffffffffffffffffffffffffffff\n      and\n      dup2\n      mstore\n      0x20\n      add\n      swap1\n      dup2\n      mstore\n      0x20\n      add\n      0x00\n      keccak256\n      0x00\n        /* \"contracts/staking.sol\":3845:3887  _rewardsWithdrawals[msg.sender] += _amount */\n      dup3\n      dup3\n      sload\n      tag_139\n      swap2\n      swap1\n      tag_114\n      jump\t// in\n    tag_139:\n      swap3\n      pop\n      pop\n      dup2\n      swap1\n      sstore\n      pop\n        /* \"contracts/staking.sol\":3521:3894  {... */\n      pop\n        /* \"contracts/staking.sol\":3472:3894  function withdrawReward(uint256 _amount) external{... */\n      pop\n      jump\t// out\n        /* \"contracts/staking.sol\":877:897  uint public finishAt */\n    tag_53:\n      sload(0x05)\n      dup2\n      jump\t// out\n        /* \"contracts/staking.sol\":700:726  IERC20 public stakingToken */\n    tag_56:\n      0x00\n      dup1\n      sload\n      swap1\n      0x0100\n      exp\n      swap1\n      div\n      0xffffffffffffffffffffffffffffffffffffffff\n      and\n      dup2\n      jump\t// out\n        /* \"contracts/staking.sol\":903:924  uint public updatedAt */\n    tag_60:\n      sload(0x06)\n      dup2\n      jump\t// out\n        /* \"contracts/staking.sol\":765:787  uint public totalStake */\n    tag_63:\n      sload(0x02)\n      dup2\n      jump\t// out\n        /* \"contracts/staking.sol\":1152:1172  address public owner */\n    tag_66:\n      0x0b\n      0x00\n      swap1\n      sload\n      swap1\n      0x0100\n      exp\n      swap1\n      div\n      0xffffffffffffffffffffffffffffffffffffffff\n      and\n      dup2\n      jump\t// out\n        /* \"contracts/staking.sol\":2413:2561  function setRewardRate(uint _rate) external {... */\n    tag_71:\n        /* \"contracts/staking.sol\":2486:2501  block.timestamp */\n      timestamp\n        /* \"contracts/staking.sol\":2475:2483  finishAt */\n      sload(0x05)\n        /* \"contracts/staking.sol\":2475:2501  finishAt < block.timestamp */\n      lt\n        /* \"contracts/staking.sol\":2467:2531  require(finishAt < block.timestamp, \"Staking still in progress\") */\n      tag_141\n      jumpi\n      mload(0x40)\n      0x08c379a000000000000000000000000000000000000000000000000000000000\n      dup2\n      mstore\n      0x04\n      add\n      tag_142\n      swap1\n      tag_143\n      jump\t// in\n    tag_142:\n      mload(0x40)\n      dup1\n      swap2\n      sub\n      swap1\n      revert\n    tag_141:\n        /* \"contracts/staking.sol\":2549:2554  _rate */\n      dup1\n        /* \"contracts/staking.sol\":2542:2546  rate */\n      0x07\n        /* \"contracts/staking.sol\":2542:2554  rate = _rate */\n      dup2\n      swap1\n      sstore\n      pop\n        /* \"contracts/staking.sol\":2413:2561  function setRewardRate(uint _rate) external {... */\n      pop\n      jump\t// out\n        /* \"contracts/staking.sol\":2910:2995  function getDuration() view external returns(uint256){... */\n    tag_73:\n        /* \"contracts/staking.sol\":2955:2962  uint256 */\n      0x00\n        /* \"contracts/staking.sol\":2980:2988  duration */\n      sload(0x04)\n        /* \"contracts/staking.sol\":2973:2988  return duration */\n      swap1\n      pop\n        /* \"contracts/staking.sol\":2910:2995  function getDuration() view external returns(uint256){... */\n      swap1\n      jump\t// out\n        /* \"contracts/staking.sol\":2303:2407  function balance() external view returns (uint256){... */\n    tag_76:\n        /* \"contracts/staking.sol\":2345:2352  uint256 */\n      0x00\n        /* \"contracts/staking.sol\":2370:2378  _balance */\n      0x08\n        /* \"contracts/staking.sol\":2370:2390  _balance[msg.sender] */\n      0x00\n        /* \"contracts/staking.sol\":2379:2389  msg.sender */\n      caller\n        /* \"contracts/staking.sol\":2370:2390  _balance[msg.sender] */\n      0xffffffffffffffffffffffffffffffffffffffff\n      and\n      0xffffffffffffffffffffffffffffffffffffffff\n      and\n      dup2\n      mstore\n      0x20\n      add\n      swap1\n      dup2\n      mstore\n      0x20\n      add\n      0x00\n      keccak256\n        /* \"contracts/staking.sol\":2370:2400  _balance[msg.sender][\"amount\"] */\n      mload(0x40)\n      tag_146\n      swap1\n      tag_92\n      jump\t// in\n    tag_146:\n      swap1\n      dup2\n      mstore\n      0x20\n      add\n      mload(0x40)\n      dup1\n      swap2\n      sub\n      swap1\n      keccak256\n      sload\n        /* \"contracts/staking.sol\":2363:2400  return _balance[msg.sender][\"amount\"] */\n      swap1\n      pop\n        /* \"contracts/staking.sol\":2303:2407  function balance() external view returns (uint256){... */\n      swap1\n      jump\t// out\n        /* \"contracts/staking.sol\":1481:2298  function depositStake (uint amount) external {... */\n    tag_80:\n        /* \"contracts/staking.sol\":1555:1556  0 */\n      0x00\n        /* \"contracts/staking.sol\":1544:1552  duration */\n      sload(0x04)\n        /* \"contracts/staking.sol\":1544:1556  duration > 0 */\n      gt\n        /* \"contracts/staking.sol\":1536:1583  require(duration > 0, \".No staking period yet\") */\n      tag_148\n      jumpi\n      mload(0x40)\n      0x08c379a000000000000000000000000000000000000000000000000000000000\n      dup2\n      mstore\n      0x04\n      add\n      tag_149\n      swap1\n      tag_150\n      jump\t// in\n    tag_149:\n      mload(0x40)\n      dup1\n      swap2\n      sub\n      swap1\n      revert\n    tag_148:\n        /* \"contracts/staking.sol\":1639:1640  1 */\n      0x01\n        /* \"contracts/staking.sol\":1601:1609  _balance */\n      0x08\n        /* \"contracts/staking.sol\":1601:1621  _balance[msg.sender] */\n      0x00\n        /* \"contracts/staking.sol\":1610:1620  msg.sender */\n      caller\n        /* \"contracts/staking.sol\":1601:1621  _balance[msg.sender] */\n      0xffffffffffffffffffffffffffffffffffffffff\n      and\n      0xffffffffffffffffffffffffffffffffffffffff\n      and\n      dup2\n      mstore\n      0x20\n      add\n      swap1\n      dup2\n      mstore\n      0x20\n      add\n      0x00\n      keccak256\n        /* \"contracts/staking.sol\":1601:1635  _balance[msg.sender][\"lockStakes\"] */\n      mload(0x40)\n      tag_151\n      swap1\n      tag_117\n      jump\t// in\n    tag_151:\n      swap1\n      dup2\n      mstore\n      0x20\n      add\n      mload(0x40)\n      dup1\n      swap2\n      sub\n      swap1\n      keccak256\n      sload\n        /* \"contracts/staking.sol\":1601:1640  _balance[msg.sender][\"lockStakes\"] != 1 */\n      sub\n        /* \"contracts/staking.sol\":1593:1699  require(_balance[msg.sender][\"lockStakes\"] != 1, \"This user canno longer deposit for this staking period\") */\n      tag_152\n      jumpi\n      mload(0x40)\n      0x08c379a000000000000000000000000000000000000000000000000000000000\n      dup2\n      mstore\n      0x04\n      add\n      tag_153\n      swap1\n      tag_154\n      jump\t// in\n    tag_153:\n      mload(0x40)\n      dup1\n      swap2\n      sub\n      swap1\n      revert\n    tag_152:\n        /* \"contracts/staking.sol\":1755:1761  amount */\n      dup1\n        /* \"contracts/staking.sol\":1717:1729  stakingToken */\n      0x00\n      dup1\n      sload\n      swap1\n      0x0100\n      exp\n      swap1\n      div\n      0xffffffffffffffffffffffffffffffffffffffff\n      and\n        /* \"contracts/staking.sol\":1717:1739  stakingToken.balanceOf */\n      0xffffffffffffffffffffffffffffffffffffffff\n      and\n      0x70a08231\n        /* \"contracts/staking.sol\":1740:1750  msg.sender */\n      caller\n        /* \"contracts/staking.sol\":1717:1751  stakingToken.balanceOf(msg.sender) */\n      mload(0x40)\n      dup3\n      0xffffffff\n      and\n      0xe0\n      shl\n      dup2\n      mstore\n      0x04\n      add\n      tag_155\n      swap2\n      swap1\n      tag_68\n      jump\t// in\n    tag_155:\n      0x20\n      mload(0x40)\n      dup1\n      dup4\n      sub\n      dup2\n      dup7\n      gas\n      staticcall\n      iszero\n      dup1\n      iszero\n      tag_157\n      jumpi\n      returndatasize\n      0x00\n      dup1\n      returndatacopy\n      revert(0x00, returndatasize)\n    tag_157:\n      pop\n      pop\n      pop\n      pop\n      mload(0x40)\n      returndatasize\n      not(0x1f)\n      0x1f\n      dup3\n      add\n      and\n      dup3\n      add\n      dup1\n      0x40\n      mstore\n      pop\n      dup2\n      add\n      swap1\n      tag_158\n      swap2\n      swap1\n      tag_159\n      jump\t// in\n    tag_158:\n        /* \"contracts/staking.sol\":1717:1761  stakingToken.balanceOf(msg.sender) >= amount */\n      lt\n      iszero\n        /* \"contracts/staking.sol\":1709:1793  require(stakingToken.balanceOf(msg.sender) >= amount, \"Not enough tokens for stake\") */\n      tag_160\n      jumpi\n      mload(0x40)\n      0x08c379a000000000000000000000000000000000000000000000000000000000\n      dup2\n      mstore\n      0x04\n      add\n      tag_161\n      swap1\n      tag_162\n      jump\t// in\n    tag_161:\n      mload(0x40)\n      dup1\n      swap2\n      sub\n      swap1\n      revert\n    tag_160:\n        /* \"contracts/staking.sol\":1811:1823  stakingToken */\n      0x00\n      dup1\n      sload\n      swap1\n      0x0100\n      exp\n      swap1\n      div\n      0xffffffffffffffffffffffffffffffffffffffff\n      and\n        /* \"contracts/staking.sol\":1811:1836  stakingToken.transferFrom */\n      0xffffffffffffffffffffffffffffffffffffffff\n      and\n      0x23b872dd\n        /* \"contracts/staking.sol\":1837:1847  msg.sender */\n      caller\n        /* \"contracts/staking.sol\":1857:1861  this */\n      address\n        /* \"contracts/staking.sol\":1864:1870  amount */\n      dup5\n        /* \"contracts/staking.sol\":1811:1871  stakingToken.transferFrom(msg.sender, address(this), amount) */\n      mload(0x40)\n      dup5\n      0xffffffff\n      and\n      0xe0\n      shl\n      dup2\n      mstore\n      0x04\n      add\n      tag_163\n      swap4\n      swap3\n      swap2\n      swap1\n      tag_164\n      jump\t// in\n    tag_163:\n      0x20\n      mload(0x40)\n      dup1\n      dup4\n      sub\n      dup2\n      0x00\n      dup8\n      gas\n      call\n      iszero\n      dup1\n      iszero\n      tag_166\n      jumpi\n      returndatasize\n      0x00\n      dup1\n      returndatacopy\n      revert(0x00, returndatasize)\n    tag_166:\n      pop\n      pop\n      pop\n      pop\n      mload(0x40)\n      returndatasize\n      not(0x1f)\n      0x1f\n      dup3\n      add\n      and\n      dup3\n      add\n      dup1\n      0x40\n      mstore\n      pop\n      dup2\n      add\n      swap1\n      tag_167\n      swap2\n      swap1\n      tag_102\n      jump\t// in\n    tag_167:\n        /* \"contracts/staking.sol\":1803:1896  require(stakingToken.transferFrom(msg.sender, address(this), amount),\"Failed to stake token\") */\n      tag_168\n      jumpi\n      mload(0x40)\n      0x08c379a000000000000000000000000000000000000000000000000000000000\n      dup2\n      mstore\n      0x04\n      add\n      tag_169\n      swap1\n      tag_170\n      jump\t// in\n    tag_169:\n      mload(0x40)\n      dup1\n      swap2\n      sub\n      swap1\n      revert\n    tag_168:\n        /* \"contracts/staking.sol\":1948:1990  _balance[msg.sender][\"amount\"].add(amount) */\n      tag_171\n        /* \"contracts/staking.sol\":1983:1989  amount */\n      dup2\n        /* \"contracts/staking.sol\":1948:1956  _balance */\n      0x08\n        /* \"contracts/staking.sol\":1948:1968  _balance[msg.sender] */\n      0x00\n        /* \"contracts/staking.sol\":1957:1967  msg.sender */\n      caller\n        /* \"contracts/staking.sol\":1948:1968  _balance[msg.sender] */\n      0xffffffffffffffffffffffffffffffffffffffff\n      and\n      0xffffffffffffffffffffffffffffffffffffffff\n      and\n      dup2\n      mstore\n      0x20\n      add\n      swap1\n      dup2\n      mstore\n      0x20\n      add\n      0x00\n      keccak256\n        /* \"contracts/staking.sol\":1948:1978  _balance[msg.sender][\"amount\"] */\n      mload(0x40)\n      tag_172\n      swap1\n      tag_92\n      jump\t// in\n    tag_172:\n      swap1\n      dup2\n      mstore\n      0x20\n      add\n      mload(0x40)\n      dup1\n      swap2\n      sub\n      swap1\n      keccak256\n      sload\n        /* \"contracts/staking.sol\":1948:1982  _balance[msg.sender][\"amount\"].add */\n      tag_173\n      swap1\n        /* \"contracts/staking.sol\":1948:1990  _balance[msg.sender][\"amount\"].add(amount) */\n      swap2\n      swap1\n      0xffffffff\n      and\n      jump\t// in\n    tag_171:\n        /* \"contracts/staking.sol\":1915:1923  _balance */\n      0x08\n        /* \"contracts/staking.sol\":1915:1935  _balance[msg.sender] */\n      0x00\n        /* \"contracts/staking.sol\":1924:1934  msg.sender */\n      caller\n        /* \"contracts/staking.sol\":1915:1935  _balance[msg.sender] */\n      0xffffffffffffffffffffffffffffffffffffffff\n      and\n      0xffffffffffffffffffffffffffffffffffffffff\n      and\n      dup2\n      mstore\n      0x20\n      add\n      swap1\n      dup2\n      mstore\n      0x20\n      add\n      0x00\n      keccak256\n        /* \"contracts/staking.sol\":1915:1945  _balance[msg.sender][\"amount\"] */\n      mload(0x40)\n      tag_174\n      swap1\n      tag_92\n      jump\t// in\n    tag_174:\n      swap1\n      dup2\n      mstore\n      0x20\n      add\n      mload(0x40)\n      dup1\n      swap2\n      sub\n      swap1\n      keccak256\n        /* \"contracts/staking.sol\":1915:1990  _balance[msg.sender][\"amount\"] = _balance[msg.sender][\"amount\"].add(amount) */\n      dup2\n      swap1\n      sstore\n      pop\n        /* \"contracts/staking.sol\":2041:2042  0 */\n      0x00\n        /* \"contracts/staking.sol\":2004:2012  _balance */\n      0x08\n        /* \"contracts/staking.sol\":2004:2024  _balance[msg.sender] */\n      0x00\n        /* \"contracts/staking.sol\":2013:2023  msg.sender */\n      caller\n        /* \"contracts/staking.sol\":2004:2024  _balance[msg.sender] */\n      0xffffffffffffffffffffffffffffffffffffffff\n      and\n      0xffffffffffffffffffffffffffffffffffffffff\n      and\n      dup2\n      mstore\n      0x20\n      add\n      swap1\n      dup2\n      mstore\n      0x20\n      add\n      0x00\n      keccak256\n        /* \"contracts/staking.sol\":2004:2037  _balance[msg.sender][\"updatedAt\"] */\n      mload(0x40)\n      tag_175\n      swap1\n      tag_176\n      jump\t// in\n    tag_175:\n      swap1\n      dup2\n      mstore\n      0x20\n      add\n      mload(0x40)\n      dup1\n      swap2\n      sub\n      swap1\n      keccak256\n      sload\n        /* \"contracts/staking.sol\":2004:2042  _balance[msg.sender][\"updatedAt\"] == 0 */\n      sub\n        /* \"contracts/staking.sol\":2000:2247  if (_balance[msg.sender][\"updatedAt\"] == 0) {... */\n      tag_177\n      jumpi\n        /* \"contracts/staking.sol\":2089:2104  block.timestamp */\n      timestamp\n        /* \"contracts/staking.sol\":2054:2062  _balance */\n      0x08\n        /* \"contracts/staking.sol\":2054:2074  _balance[msg.sender] */\n      0x00\n        /* \"contracts/staking.sol\":2063:2073  msg.sender */\n      caller\n        /* \"contracts/staking.sol\":2054:2074  _balance[msg.sender] */\n      0xffffffffffffffffffffffffffffffffffffffff\n      and\n      0xffffffffffffffffffffffffffffffffffffffff\n      and\n      dup2\n      mstore\n      0x20\n      add\n      swap1\n      dup2\n      mstore\n      0x20\n      add\n      0x00\n      keccak256\n        /* \"contracts/staking.sol\":2054:2087  _balance[msg.sender][\"updatedAt\"] */\n      mload(0x40)\n      tag_178\n      swap1\n      tag_176\n      jump\t// in\n    tag_178:\n      swap1\n      dup2\n      mstore\n      0x20\n      add\n      mload(0x40)\n      dup1\n      swap2\n      sub\n      swap1\n      keccak256\n        /* \"contracts/staking.sol\":2054:2104  _balance[msg.sender][\"updatedAt\"]= block.timestamp */\n      dup2\n      swap1\n      sstore\n      pop\n        /* \"contracts/staking.sol\":2000:2247  if (_balance[msg.sender][\"updatedAt\"] == 0) {... */\n      jump(tag_179)\n    tag_177:\n        /* \"contracts/staking.sol\":2164:2172  earned() */\n      tag_180\n        /* \"contracts/staking.sol\":2164:2170  earned */\n      tag_85\n        /* \"contracts/staking.sol\":2164:2172  earned() */\n      jump\t// in\n    tag_180:\n        /* \"contracts/staking.sol\":2133:2148  accBeforeUpdate */\n      0x0a\n        /* \"contracts/staking.sol\":2133:2160  accBeforeUpdate[msg.sender] */\n      0x00\n        /* \"contracts/staking.sol\":2149:2159  msg.sender */\n      caller\n        /* \"contracts/staking.sol\":2133:2160  accBeforeUpdate[msg.sender] */\n      0xffffffffffffffffffffffffffffffffffffffff\n      and\n      0xffffffffffffffffffffffffffffffffffffffff\n      and\n      dup2\n      mstore\n      0x20\n      add\n      swap1\n      dup2\n      mstore\n      0x20\n      add\n      0x00\n      keccak256\n      0x00\n        /* \"contracts/staking.sol\":2133:2172  accBeforeUpdate[msg.sender] += earned() */\n      dup3\n      dup3\n      sload\n      tag_181\n      swap2\n      swap1\n      tag_114\n      jump\t// in\n    tag_181:\n      swap3\n      pop\n      pop\n      dup2\n      swap1\n      sstore\n      pop\n        /* \"contracts/staking.sol\":2221:2236  block.timestamp */\n      timestamp\n        /* \"contracts/staking.sol\":2186:2194  _balance */\n      0x08\n        /* \"contracts/staking.sol\":2186:2206  _balance[msg.sender] */\n      0x00\n        /* \"contracts/staking.sol\":2195:2205  msg.sender */\n      caller\n        /* \"contracts/staking.sol\":2186:2206  _balance[msg.sender] */\n      0xffffffffffffffffffffffffffffffffffffffff\n      and\n      0xffffffffffffffffffffffffffffffffffffffff\n      and\n      dup2\n      mstore\n      0x20\n      add\n      swap1\n      dup2\n      mstore\n      0x20\n      add\n      0x00\n      keccak256\n        /* \"contracts/staking.sol\":2186:2219  _balance[msg.sender][\"updatedAt\"] */\n      mload(0x40)\n      tag_182\n      swap1\n      tag_176\n      jump\t// in\n    tag_182:\n      swap1\n      dup2\n      mstore\n      0x20\n      add\n      mload(0x40)\n      dup1\n      swap2\n      sub\n      swap1\n      keccak256\n        /* \"contracts/staking.sol\":2186:2236  _balance[msg.sender][\"updatedAt\"]= block.timestamp */\n      dup2\n      swap1\n      sstore\n      pop\n        /* \"contracts/staking.sol\":2000:2247  if (_balance[msg.sender][\"updatedAt\"] == 0) {... */\n    tag_179:\n        /* \"contracts/staking.sol\":2269:2291  totalStake.add(amount) */\n      tag_183\n        /* \"contracts/staking.sol\":2284:2290  amount */\n      dup2\n        /* \"contracts/staking.sol\":2269:2279  totalStake */\n      sload(0x02)\n        /* \"contracts/staking.sol\":2269:2283  totalStake.add */\n      tag_173\n      swap1\n        /* \"contracts/staking.sol\":2269:2291  totalStake.add(amount) */\n      swap2\n      swap1\n      0xffffffff\n      and\n      jump\t// in\n    tag_183:\n        /* \"contracts/staking.sol\":2256:2266  totalStake */\n      0x02\n        /* \"contracts/staking.sol\":2256:2291  totalStake = totalStake.add(amount) */\n      dup2\n      swap1\n      sstore\n      pop\n        /* \"contracts/staking.sol\":1481:2298  function depositStake (uint amount) external {... */\n      pop\n      jump\t// out\n        /* \"contracts/staking.sol\":732:758  IERC20 public rewardsToken */\n    tag_82:\n      0x01\n      0x00\n      swap1\n      sload\n      swap1\n      0x0100\n      exp\n      swap1\n      div\n      0xffffffffffffffffffffffffffffffffffffffff\n      and\n      dup2\n      jump\t// out\n        /* \"contracts/staking.sol\":3001:3254  function earned() view public returns(uint256){... */\n    tag_85:\n        /* \"contracts/staking.sol\":3039:3046  uint256 */\n      0x00\n        /* \"contracts/staking.sol\":3098:3099  0 */\n      dup1\n        /* \"contracts/staking.sol\":3065:3073  _balance */\n      0x08\n        /* \"contracts/staking.sol\":3065:3085  _balance[msg.sender] */\n      0x00\n        /* \"contracts/staking.sol\":3074:3084  msg.sender */\n      caller\n        /* \"contracts/staking.sol\":3065:3085  _balance[msg.sender] */\n      0xffffffffffffffffffffffffffffffffffffffff\n      and\n      0xffffffffffffffffffffffffffffffffffffffff\n      and\n      dup2\n      mstore\n      0x20\n      add\n      swap1\n      dup2\n      mstore\n      0x20\n      add\n      0x00\n      keccak256\n        /* \"contracts/staking.sol\":3065:3095  _balance[msg.sender][\"amount\"] */\n      mload(0x40)\n      tag_185\n      swap1\n      tag_92\n      jump\t// in\n    tag_185:\n      swap1\n      dup2\n      mstore\n      0x20\n      add\n      mload(0x40)\n      dup1\n      swap2\n      sub\n      swap1\n      keccak256\n      sload\n        /* \"contracts/staking.sol\":3065:3099  _balance[msg.sender][\"amount\"] > 0 */\n      gt\n        /* \"contracts/staking.sol\":3057:3134  require(_balance[msg.sender][\"amount\"] > 0, \"You have not staked any tokens\") */\n      tag_186\n      jumpi\n      mload(0x40)\n      0x08c379a000000000000000000000000000000000000000000000000000000000\n      dup2\n      mstore\n      0x04\n      add\n      tag_187\n      swap1\n      tag_111\n      jump\t// in\n    tag_187:\n      mload(0x40)\n      dup1\n      swap2\n      sub\n      swap1\n      revert\n    tag_186:\n        /* \"contracts/staking.sol\":3212:3220  _balance */\n      0x08\n        /* \"contracts/staking.sol\":3212:3232  _balance[msg.sender] */\n      0x00\n        /* \"contracts/staking.sol\":3221:3231  msg.sender */\n      caller\n        /* \"contracts/staking.sol\":3212:3232  _balance[msg.sender] */\n      0xffffffffffffffffffffffffffffffffffffffff\n      and\n      0xffffffffffffffffffffffffffffffffffffffff\n      and\n      dup2\n      mstore\n      0x20\n      add\n      swap1\n      dup2\n      mstore\n      0x20\n      add\n      0x00\n      keccak256\n        /* \"contracts/staking.sol\":3212:3245  _balance[msg.sender][\"updatedAt\"] */\n      mload(0x40)\n      tag_188\n      swap1\n      tag_176\n      jump\t// in\n    tag_188:\n      swap1\n      dup2\n      mstore\n      0x20\n      add\n      mload(0x40)\n      dup1\n      swap2\n      sub\n      swap1\n      keccak256\n      sload\n        /* \"contracts/staking.sol\":3194:3209  block.timestamp */\n      timestamp\n        /* \"contracts/staking.sol\":3194:3245  block.timestamp - _balance[msg.sender][\"updatedAt\"] */\n      tag_189\n      swap2\n      swap1\n      tag_129\n      jump\t// in\n    tag_189:\n        /* \"contracts/staking.sol\":3186:3190  rate */\n      sload(0x07)\n        /* \"contracts/staking.sol\":3153:3161  _balance */\n      0x08\n        /* \"contracts/staking.sol\":3153:3173  _balance[msg.sender] */\n      0x00\n        /* \"contracts/staking.sol\":3162:3172  msg.sender */\n      caller\n        /* \"contracts/staking.sol\":3153:3173  _balance[msg.sender] */\n      0xffffffffffffffffffffffffffffffffffffffff\n      and\n      0xffffffffffffffffffffffffffffffffffffffff\n      and\n      dup2\n      mstore\n      0x20\n      add\n      swap1\n      dup2\n      mstore\n      0x20\n      add\n      0x00\n      keccak256\n        /* \"contracts/staking.sol\":3153:3183  _balance[msg.sender][\"amount\"] */\n      mload(0x40)\n      tag_190\n      swap1\n      tag_92\n      jump\t// in\n    tag_190:\n      swap1\n      dup2\n      mstore\n      0x20\n      add\n      mload(0x40)\n      dup1\n      swap2\n      sub\n      swap1\n      keccak256\n      sload\n        /* \"contracts/staking.sol\":3153:3190  _balance[msg.sender][\"amount\"] * rate */\n      tag_191\n      swap2\n      swap1\n      tag_192\n      jump\t// in\n    tag_191:\n        /* \"contracts/staking.sol\":3153:3246  _balance[msg.sender][\"amount\"] * rate * (block.timestamp - _balance[msg.sender][\"updatedAt\"]) */\n      tag_193\n      swap2\n      swap1\n      tag_192\n      jump\t// in\n    tag_193:\n        /* \"contracts/staking.sol\":3145:3247  return (_balance[msg.sender][\"amount\"] * rate * (block.timestamp - _balance[msg.sender][\"updatedAt\"])) */\n      swap1\n      pop\n        /* \"contracts/staking.sol\":3001:3254  function earned() view public returns(uint256){... */\n      swap1\n      jump\t// out\n        /* \"contracts/staking.sol\":2567:2904  function setDuration(uint256 _duration) external{... */\n    tag_89:\n        /* \"contracts/staking.sol\":2644:2659  block.timestamp */\n      timestamp\n        /* \"contracts/staking.sol\":2633:2641  finishAt */\n      sload(0x05)\n        /* \"contracts/staking.sol\":2633:2659  finishAt < block.timestamp */\n      lt\n        /* \"contracts/staking.sol\":2625:2702  require(finishAt < block.timestamp, \"can't set date to a previous timestamp\") */\n      tag_195\n      jumpi\n      mload(0x40)\n      0x08c379a000000000000000000000000000000000000000000000000000000000\n      dup2\n      mstore\n      0x04\n      add\n      tag_196\n      swap1\n      tag_197\n      jump\t// in\n    tag_196:\n      mload(0x40)\n      dup1\n      swap2\n      sub\n      swap1\n      revert\n    tag_195:\n        /* \"contracts/staking.sol\":2727:2728  0 */\n      0x00\n        /* \"contracts/staking.sol\":2720:2724  rate */\n      sload(0x07)\n        /* \"contracts/staking.sol\":2720:2728  rate > 0 */\n      gt\n        /* \"contracts/staking.sol\":2712:2779  require(rate > 0, \"set reward rate before starting staking period\") */\n      tag_198\n      jumpi\n      mload(0x40)\n      0x08c379a000000000000000000000000000000000000000000000000000000000\n      dup2\n      mstore\n      0x04\n      add\n      tag_199\n      swap1\n      tag_200\n      jump\t// in\n    tag_199:\n      mload(0x40)\n      dup1\n      swap2\n      sub\n      swap1\n      revert\n    tag_198:\n        /* \"contracts/staking.sol\":2800:2809  _duration */\n      dup1\n        /* \"contracts/staking.sol\":2789:2797  duration */\n      0x04\n        /* \"contracts/staking.sol\":2789:2809  duration = _duration */\n      dup2\n      swap1\n      sstore\n      pop\n        /* \"contracts/staking.sol\":2830:2860  _duration.add(block.timestamp) */\n      tag_201\n        /* \"contracts/staking.sol\":2844:2859  block.timestamp */\n      timestamp\n        /* \"contracts/staking.sol\":2830:2839  _duration */\n      dup3\n        /* \"contracts/staking.sol\":2830:2843  _duration.add */\n      tag_173\n      swap1\n        /* \"contracts/staking.sol\":2830:2860  _duration.add(block.timestamp) */\n      swap2\n      swap1\n      0xffffffff\n      and\n      jump\t// in\n    tag_201:\n        /* \"contracts/staking.sol\":2819:2827  finishAt */\n      0x05\n        /* \"contracts/staking.sol\":2819:2860  finishAt = _duration.add(block.timestamp) */\n      dup2\n      swap1\n      sstore\n      pop\n        /* \"contracts/staking.sol\":2882:2897  block.timestamp */\n      timestamp\n        /* \"contracts/staking.sol\":2870:2879  updatedAt */\n      0x06\n        /* \"contracts/staking.sol\":2870:2897  updatedAt = block.timestamp */\n      dup2\n      swap1\n      sstore\n      pop\n        /* \"contracts/staking.sol\":2567:2904  function setDuration(uint256 _duration) external{... */\n      pop\n      jump\t// out\n        /* \"https://github.com/OpenZeppelin/openzeppelin-contracts/blob/master/contracts/utils/math/SafeMath.sol\":2755:2851  function add(uint256 a, uint256 b) internal pure returns (uint256) {... */\n    tag_173:\n        /* \"https://github.com/OpenZeppelin/openzeppelin-contracts/blob/master/contracts/utils/math/SafeMath.sol\":2813:2820  uint256 */\n      0x00\n        /* \"https://github.com/OpenZeppelin/openzeppelin-contracts/blob/master/contracts/utils/math/SafeMath.sol\":2843:2844  b */\n      dup2\n        /* \"https://github.com/OpenZeppelin/openzeppelin-contracts/blob/master/contracts/utils/math/SafeMath.sol\":2839:2840  a */\n      dup4\n        /* \"https://github.com/OpenZeppelin/openzeppelin-contracts/blob/master/contracts/utils/math/SafeMath.sol\":2839:2844  a + b */\n      tag_203\n      swap2\n      swap1\n      tag_114\n      jump\t// in\n    tag_203:\n        /* \"https://github.com/OpenZeppelin/openzeppelin-contracts/blob/master/contracts/utils/math/SafeMath.sol\":2832:2844  return a + b */\n      swap1\n      pop\n        /* \"https://github.com/OpenZeppelin/openzeppelin-contracts/blob/master/contracts/utils/math/SafeMath.sol\":2755:2851  function add(uint256 a, uint256 b) internal pure returns (uint256) {... */\n      swap3\n      swap2\n      pop\n      pop\n      jump\t// out\n        /* \"#utility.yul\":7:84   */\n    tag_204:\n        /* \"#utility.yul\":44:51   */\n      0x00\n        /* \"#utility.yul\":73:78   */\n      dup2\n        /* \"#utility.yul\":62:78   */\n      swap1\n      pop\n        /* \"#utility.yul\":7:84   */\n      swap2\n      swap1\n      pop\n      jump\t// out\n        /* \"#utility.yul\":90:208   */\n    tag_205:\n        /* \"#utility.yul\":177:201   */\n      tag_273\n        /* \"#utility.yul\":195:200   */\n      dup2\n        /* \"#utility.yul\":177:201   */\n      tag_204\n      jump\t// in\n    tag_273:\n        /* \"#utility.yul\":172:175   */\n      dup3\n        /* \"#utility.yul\":165:202   */\n      mstore\n        /* \"#utility.yul\":90:208   */\n      pop\n      pop\n      jump\t// out\n        /* \"#utility.yul\":214:436   */\n    tag_29:\n        /* \"#utility.yul\":307:311   */\n      0x00\n        /* \"#utility.yul\":345:347   */\n      0x20\n        /* \"#utility.yul\":334:343   */\n      dup3\n        /* \"#utility.yul\":330:348   */\n      add\n        /* \"#utility.yul\":322:348   */\n      swap1\n      pop\n        /* \"#utility.yul\":358:429   */\n      tag_275\n        /* \"#utility.yul\":426:427   */\n      0x00\n        /* \"#utility.yul\":415:424   */\n      dup4\n        /* \"#utility.yul\":411:428   */\n      add\n        /* \"#utility.yul\":402:408   */\n      dup5\n        /* \"#utility.yul\":358:429   */\n      tag_205\n      jump\t// in\n    tag_275:\n        /* \"#utility.yul\":214:436   */\n      swap3\n      swap2\n      pop\n      pop\n      jump\t// out\n        /* \"#utility.yul\":442:517   */\n    tag_206:\n        /* \"#utility.yul\":475:481   */\n      0x00\n        /* \"#utility.yul\":508:510   */\n      0x40\n        /* \"#utility.yul\":502:511   */\n      mload\n        /* \"#utility.yul\":492:511   */\n      swap1\n      pop\n        /* \"#utility.yul\":442:517   */\n      swap1\n      jump\t// out\n        /* \"#utility.yul\":523:640   */\n    tag_207:\n        /* \"#utility.yul\":632:633   */\n      0x00\n        /* \"#utility.yul\":629:630   */\n      dup1\n        /* \"#utility.yul\":622:634   */\n      revert\n        /* \"#utility.yul\":646:763   */\n    tag_208:\n        /* \"#utility.yul\":755:756   */\n      0x00\n        /* \"#utility.yul\":752:753   */\n      dup1\n        /* \"#utility.yul\":745:757   */\n      revert\n        /* \"#utility.yul\":769:895   */\n    tag_209:\n        /* \"#utility.yul\":806:813   */\n      0x00\n        /* \"#utility.yul\":846:888   */\n      0xffffffffffffffffffffffffffffffffffffffff\n        /* \"#utility.yul\":839:844   */\n      dup3\n        /* \"#utility.yul\":835:889   */\n      and\n        /* \"#utility.yul\":824:889   */\n      swap1\n      pop\n        /* \"#utility.yul\":769:895   */\n      swap2\n      swap1\n      pop\n      jump\t// out\n        /* \"#utility.yul\":901:997   */\n    tag_210:\n        /* \"#utility.yul\":938:945   */\n      0x00\n        /* \"#utility.yul\":967:991   */\n      tag_281\n        /* \"#utility.yul\":985:990   */\n      dup3\n        /* \"#utility.yul\":967:991   */\n      tag_209\n      jump\t// in\n    tag_281:\n        /* \"#utility.yul\":956:991   */\n      swap1\n      pop\n        /* \"#utility.yul\":901:997   */\n      swap2\n      swap1\n      pop\n      jump\t// out\n        /* \"#utility.yul\":1003:1125   */\n    tag_211:\n        /* \"#utility.yul\":1076:1100   */\n      tag_283\n        /* \"#utility.yul\":1094:1099   */\n      dup2\n        /* \"#utility.yul\":1076:1100   */\n      tag_210\n      jump\t// in\n    tag_283:\n        /* \"#utility.yul\":1069:1074   */\n      dup2\n        /* \"#utility.yul\":1066:1101   */\n      eq\n        /* \"#utility.yul\":1056:1119   */\n      tag_284\n      jumpi\n        /* \"#utility.yul\":1115:1116   */\n      0x00\n        /* \"#utility.yul\":1112:1113   */\n      dup1\n        /* \"#utility.yul\":1105:1117   */\n      revert\n        /* \"#utility.yul\":1056:1119   */\n    tag_284:\n        /* \"#utility.yul\":1003:1125   */\n      pop\n      jump\t// out\n        /* \"#utility.yul\":1131:1270   */\n    tag_212:\n        /* \"#utility.yul\":1177:1182   */\n      0x00\n        /* \"#utility.yul\":1215:1221   */\n      dup2\n        /* \"#utility.yul\":1202:1222   */\n      calldataload\n        /* \"#utility.yul\":1193:1222   */\n      swap1\n      pop\n        /* \"#utility.yul\":1231:1264   */\n      tag_286\n        /* \"#utility.yul\":1258:1263   */\n      dup2\n        /* \"#utility.yul\":1231:1264   */\n      tag_211\n      jump\t// in\n    tag_286:\n        /* \"#utility.yul\":1131:1270   */\n      swap3\n      swap2\n      pop\n      pop\n      jump\t// out\n        /* \"#utility.yul\":1276:1393   */\n    tag_213:\n        /* \"#utility.yul\":1385:1386   */\n      0x00\n        /* \"#utility.yul\":1382:1383   */\n      dup1\n        /* \"#utility.yul\":1375:1387   */\n      revert\n        /* \"#utility.yul\":1399:1516   */\n    tag_214:\n        /* \"#utility.yul\":1508:1509   */\n      0x00\n        /* \"#utility.yul\":1505:1506   */\n      dup1\n        /* \"#utility.yul\":1498:1510   */\n      revert\n        /* \"#utility.yul\":1522:1624   */\n    tag_215:\n        /* \"#utility.yul\":1563:1569   */\n      0x00\n        /* \"#utility.yul\":1614:1616   */\n      0x1f\n        /* \"#utility.yul\":1610:1617   */\n      not\n        /* \"#utility.yul\":1605:1607   */\n      0x1f\n        /* \"#utility.yul\":1598:1603   */\n      dup4\n        /* \"#utility.yul\":1594:1608   */\n      add\n        /* \"#utility.yul\":1590:1618   */\n      and\n        /* \"#utility.yul\":1580:1618   */\n      swap1\n      pop\n        /* \"#utility.yul\":1522:1624   */\n      swap2\n      swap1\n      pop\n      jump\t// out\n        /* \"#utility.yul\":1630:1810   */\n    tag_216:\n        /* \"#utility.yul\":1678:1755   */\n      0x4e487b7100000000000000000000000000000000000000000000000000000000\n        /* \"#utility.yul\":1675:1676   */\n      0x00\n        /* \"#utility.yul\":1668:1756   */\n      mstore\n        /* \"#utility.yul\":1775:1779   */\n      0x41\n        /* \"#utility.yul\":1772:1773   */\n      0x04\n        /* \"#utility.yul\":1765:1780   */\n      mstore\n        /* \"#utility.yul\":1799:1803   */\n      0x24\n        /* \"#utility.yul\":1796:1797   */\n      0x00\n        /* \"#utility.yul\":1789:1804   */\n      revert\n        /* \"#utility.yul\":1816:2097   */\n    tag_217:\n        /* \"#utility.yul\":1899:1926   */\n      tag_292\n        /* \"#utility.yul\":1921:1925   */\n      dup3\n        /* \"#utility.yul\":1899:1926   */\n      tag_215\n      jump\t// in\n    tag_292:\n        /* \"#utility.yul\":1891:1897   */\n      dup2\n        /* \"#utility.yul\":1887:1927   */\n      add\n        /* \"#utility.yul\":2029:2035   */\n      dup2\n        /* \"#utility.yul\":2017:2027   */\n      dup2\n        /* \"#utility.yul\":2014:2036   */\n      lt\n        /* \"#utility.yul\":1993:2011   */\n      0xffffffffffffffff\n        /* \"#utility.yul\":1981:1991   */\n      dup3\n        /* \"#utility.yul\":1978:2012   */\n      gt\n        /* \"#utility.yul\":1975:2037   */\n      or\n        /* \"#utility.yul\":1972:2060   */\n      iszero\n      tag_293\n      jumpi\n        /* \"#utility.yul\":2040:2058   */\n      tag_294\n      tag_216\n      jump\t// in\n    tag_294:\n        /* \"#utility.yul\":1972:2060   */\n    tag_293:\n        /* \"#utility.yul\":2080:2090   */\n      dup1\n        /* \"#utility.yul\":2076:2078   */\n      0x40\n        /* \"#utility.yul\":2069:2091   */\n      mstore\n        /* \"#utility.yul\":1859:2097   */\n      pop\n        /* \"#utility.yul\":1816:2097   */\n      pop\n      pop\n      jump\t// out\n        /* \"#utility.yul\":2103:2232   */\n    tag_218:\n        /* \"#utility.yul\":2137:2143   */\n      0x00\n        /* \"#utility.yul\":2164:2184   */\n      tag_296\n      tag_206\n      jump\t// in\n    tag_296:\n        /* \"#utility.yul\":2154:2184   */\n      swap1\n      pop\n        /* \"#utility.yul\":2193:2226   */\n      tag_297\n        /* \"#utility.yul\":2221:2225   */\n      dup3\n        /* \"#utility.yul\":2213:2219   */\n      dup3\n        /* \"#utility.yul\":2193:2226   */\n      tag_217\n      jump\t// in\n    tag_297:\n        /* \"#utility.yul\":2103:2232   */\n      swap2\n      swap1\n      pop\n      jump\t// out\n        /* \"#utility.yul\":2238:2546   */\n    tag_219:\n        /* \"#utility.yul\":2300:2304   */\n      0x00\n        /* \"#utility.yul\":2390:2408   */\n      0xffffffffffffffff\n        /* \"#utility.yul\":2382:2388   */\n      dup3\n        /* \"#utility.yul\":2379:2409   */\n      gt\n        /* \"#utility.yul\":2376:2432   */\n      iszero\n      tag_299\n      jumpi\n        /* \"#utility.yul\":2412:2430   */\n      tag_300\n      tag_216\n      jump\t// in\n    tag_300:\n        /* \"#utility.yul\":2376:2432   */\n    tag_299:\n        /* \"#utility.yul\":2450:2479   */\n      tag_301\n        /* \"#utility.yul\":2472:2478   */\n      dup3\n        /* \"#utility.yul\":2450:2479   */\n      tag_215\n      jump\t// in\n    tag_301:\n        /* \"#utility.yul\":2442:2479   */\n      swap1\n      pop\n        /* \"#utility.yul\":2534:2538   */\n      0x20\n        /* \"#utility.yul\":2528:2532   */\n      dup2\n        /* \"#utility.yul\":2524:2539   */\n      add\n        /* \"#utility.yul\":2516:2539   */\n      swap1\n      pop\n        /* \"#utility.yul\":2238:2546   */\n      swap2\n      swap1\n      pop\n      jump\t// out\n        /* \"#utility.yul\":2552:2698   */\n    tag_220:\n        /* \"#utility.yul\":2649:2655   */\n      dup3\n        /* \"#utility.yul\":2644:2647   */\n      dup2\n        /* \"#utility.yul\":2639:2642   */\n      dup4\n        /* \"#utility.yul\":2626:2656   */\n      calldatacopy\n        /* \"#utility.yul\":2690:2691   */\n      0x00\n        /* \"#utility.yul\":2681:2687   */\n      dup4\n        /* \"#utility.yul\":2676:2679   */\n      dup4\n        /* \"#utility.yul\":2672:2688   */\n      add\n        /* \"#utility.yul\":2665:2692   */\n      mstore\n        /* \"#utility.yul\":2552:2698   */\n      pop\n      pop\n      pop\n      jump\t// out\n        /* \"#utility.yul\":2704:3129   */\n    tag_221:\n        /* \"#utility.yul\":2782:2787   */\n      0x00\n        /* \"#utility.yul\":2807:2873   */\n      tag_304\n        /* \"#utility.yul\":2823:2872   */\n      tag_305\n        /* \"#utility.yul\":2865:2871   */\n      dup5\n        /* \"#utility.yul\":2823:2872   */\n      tag_219\n      jump\t// in\n    tag_305:\n        /* \"#utility.yul\":2807:2873   */\n      tag_218\n      jump\t// in\n    tag_304:\n        /* \"#utility.yul\":2798:2873   */\n      swap1\n      pop\n        /* \"#utility.yul\":2896:2902   */\n      dup3\n        /* \"#utility.yul\":2889:2894   */\n      dup2\n        /* \"#utility.yul\":2882:2903   */\n      mstore\n        /* \"#utility.yul\":2934:2938   */\n      0x20\n        /* \"#utility.yul\":2927:2932   */\n      dup2\n        /* \"#utility.yul\":2923:2939   */\n      add\n        /* \"#utility.yul\":2972:2975   */\n      dup5\n        /* \"#utility.yul\":2963:2969   */\n      dup5\n        /* \"#utility.yul\":2958:2961   */\n      dup5\n        /* \"#utility.yul\":2954:2970   */\n      add\n        /* \"#utility.yul\":2951:2976   */\n      gt\n        /* \"#utility.yul\":2948:3060   */\n      iszero\n      tag_306\n      jumpi\n        /* \"#utility.yul\":2979:3058   */\n      tag_307\n      tag_214\n      jump\t// in\n    tag_307:\n        /* \"#utility.yul\":2948:3060   */\n    tag_306:\n        /* \"#utility.yul\":3069:3123   */\n      tag_308\n        /* \"#utility.yul\":3116:3122   */\n      dup5\n        /* \"#utility.yul\":3111:3114   */\n      dup3\n        /* \"#utility.yul\":3106:3109   */\n      dup6\n        /* \"#utility.yul\":3069:3123   */\n      tag_220\n      jump\t// in\n    tag_308:\n        /* \"#utility.yul\":2788:3129   */\n      pop\n        /* \"#utility.yul\":2704:3129   */\n      swap4\n      swap3\n      pop\n      pop\n      pop\n      jump\t// out\n        /* \"#utility.yul\":3149:3489   */\n    tag_222:\n        /* \"#utility.yul\":3205:3210   */\n      0x00\n        /* \"#utility.yul\":3254:3257   */\n      dup3\n        /* \"#utility.yul\":3247:3251   */\n      0x1f\n        /* \"#utility.yul\":3239:3245   */\n      dup4\n        /* \"#utility.yul\":3235:3252   */\n      add\n        /* \"#utility.yul\":3231:3258   */\n      slt\n        /* \"#utility.yul\":3221:3343   */\n      tag_310\n      jumpi\n        /* \"#utility.yul\":3262:3341   */\n      tag_311\n      tag_213\n      jump\t// in\n    tag_311:\n        /* \"#utility.yul\":3221:3343   */\n    tag_310:\n        /* \"#utility.yul\":3379:3385   */\n      dup2\n        /* \"#utility.yul\":3366:3386   */\n      calldataload\n        /* \"#utility.yul\":3404:3483   */\n      tag_312\n        /* \"#utility.yul\":3479:3482   */\n      dup5\n        /* \"#utility.yul\":3471:3477   */\n      dup3\n        /* \"#utility.yul\":3464:3468   */\n      0x20\n        /* \"#utility.yul\":3456:3462   */\n      dup7\n        /* \"#utility.yul\":3452:3469   */\n      add\n        /* \"#utility.yul\":3404:3483   */\n      tag_221\n      jump\t// in\n    tag_312:\n        /* \"#utility.yul\":3395:3483   */\n      swap2\n      pop\n        /* \"#utility.yul\":3211:3489   */\n      pop\n        /* \"#utility.yul\":3149:3489   */\n      swap3\n      swap2\n      pop\n      pop\n      jump\t// out\n        /* \"#utility.yul\":3495:4149   */\n    tag_45:\n        /* \"#utility.yul\":3573:3579   */\n      0x00\n        /* \"#utility.yul\":3581:3587   */\n      dup1\n        /* \"#utility.yul\":3630:3632   */\n      0x40\n        /* \"#utility.yul\":3618:3627   */\n      dup4\n        /* \"#utility.yul\":3609:3616   */\n      dup6\n        /* \"#utility.yul\":3605:3628   */\n      sub\n        /* \"#utility.yul\":3601:3633   */\n      slt\n        /* \"#utility.yul\":3598:3717   */\n      iszero\n      tag_314\n      jumpi\n        /* \"#utility.yul\":3636:3715   */\n      tag_315\n      tag_207\n      jump\t// in\n    tag_315:\n        /* \"#utility.yul\":3598:3717   */\n    tag_314:\n        /* \"#utility.yul\":3756:3757   */\n      0x00\n        /* \"#utility.yul\":3781:3834   */\n      tag_316\n        /* \"#utility.yul\":3826:3833   */\n      dup6\n        /* \"#utility.yul\":3817:3823   */\n      dup3\n        /* \"#utility.yul\":3806:3815   */\n      dup7\n        /* \"#utility.yul\":3802:3824   */\n      add\n        /* \"#utility.yul\":3781:3834   */\n      tag_212\n      jump\t// in\n    tag_316:\n        /* \"#utility.yul\":3771:3834   */\n      swap3\n      pop\n        /* \"#utility.yul\":3727:3844   */\n      pop\n        /* \"#utility.yul\":3911:3913   */\n      0x20\n        /* \"#utility.yul\":3900:3909   */\n      dup4\n        /* \"#utility.yul\":3896:3914   */\n      add\n        /* \"#utility.yul\":3883:3915   */\n      calldataload\n        /* \"#utility.yul\":3942:3960   */\n      0xffffffffffffffff\n        /* \"#utility.yul\":3934:3940   */\n      dup2\n        /* \"#utility.yul\":3931:3961   */\n      gt\n        /* \"#utility.yul\":3928:4045   */\n      iszero\n      tag_317\n      jumpi\n        /* \"#utility.yul\":3964:4043   */\n      tag_318\n      tag_208\n      jump\t// in\n    tag_318:\n        /* \"#utility.yul\":3928:4045   */\n    tag_317:\n        /* \"#utility.yul\":4069:4132   */\n      tag_319\n        /* \"#utility.yul\":4124:4131   */\n      dup6\n        /* \"#utility.yul\":4115:4121   */\n      dup3\n        /* \"#utility.yul\":4104:4113   */\n      dup7\n        /* \"#utility.yul\":4100:4122   */\n      add\n        /* \"#utility.yul\":4069:4132   */\n      tag_222\n      jump\t// in\n    tag_319:\n        /* \"#utility.yul\":4059:4132   */\n      swap2\n      pop\n        /* \"#utility.yul\":3854:4142   */\n      pop\n        /* \"#utility.yul\":3495:4149   */\n      swap3\n      pop\n      swap3\n      swap1\n      pop\n      jump\t// out\n        /* \"#utility.yul\":4155:4277   */\n    tag_223:\n        /* \"#utility.yul\":4228:4252   */\n      tag_321\n        /* \"#utility.yul\":4246:4251   */\n      dup2\n        /* \"#utility.yul\":4228:4252   */\n      tag_204\n      jump\t// in\n    tag_321:\n        /* \"#utility.yul\":4221:4226   */\n      dup2\n        /* \"#utility.yul\":4218:4253   */\n      eq\n        /* \"#utility.yul\":4208:4271   */\n      tag_322\n      jumpi\n        /* \"#utility.yul\":4267:4268   */\n      0x00\n        /* \"#utility.yul\":4264:4265   */\n      dup1\n        /* \"#utility.yul\":4257:4269   */\n      revert\n        /* \"#utility.yul\":4208:4271   */\n    tag_322:\n        /* \"#utility.yul\":4155:4277   */\n      pop\n      jump\t// out\n        /* \"#utility.yul\":4283:4422   */\n    tag_224:\n        /* \"#utility.yul\":4329:4334   */\n      0x00\n        /* \"#utility.yul\":4367:4373   */\n      dup2\n        /* \"#utility.yul\":4354:4374   */\n      calldataload\n        /* \"#utility.yul\":4345:4374   */\n      swap1\n      pop\n        /* \"#utility.yul\":4383:4416   */\n      tag_324\n        /* \"#utility.yul\":4410:4415   */\n      dup2\n        /* \"#utility.yul\":4383:4416   */\n      tag_223\n      jump\t// in\n    tag_324:\n        /* \"#utility.yul\":4283:4422   */\n      swap3\n      swap2\n      pop\n      pop\n      jump\t// out\n        /* \"#utility.yul\":4428:4757   */\n    tag_50:\n        /* \"#utility.yul\":4487:4493   */\n      0x00\n        /* \"#utility.yul\":4536:4538   */\n      0x20\n        /* \"#utility.yul\":4524:4533   */\n      dup3\n        /* \"#utility.yul\":4515:4522   */\n      dup5\n        /* \"#utility.yul\":4511:4534   */\n      sub\n        /* \"#utility.yul\":4507:4539   */\n      slt\n        /* \"#utility.yul\":4504:4623   */\n      iszero\n      tag_326\n      jumpi\n        /* \"#utility.yul\":4542:4621   */\n      tag_327\n      tag_207\n      jump\t// in\n    tag_327:\n        /* \"#utility.yul\":4504:4623   */\n    tag_326:\n        /* \"#utility.yul\":4662:4663   */\n      0x00\n        /* \"#utility.yul\":4687:4740   */\n      tag_328\n        /* \"#utility.yul\":4732:4739   */\n      dup5\n        /* \"#utility.yul\":4723:4729   */\n      dup3\n        /* \"#utility.yul\":4712:4721   */\n      dup6\n        /* \"#utility.yul\":4708:4730   */\n      add\n        /* \"#utility.yul\":4687:4740   */\n      tag_224\n      jump\t// in\n    tag_328:\n        /* \"#utility.yul\":4677:4740   */\n      swap2\n      pop\n        /* \"#utility.yul\":4633:4750   */\n      pop\n        /* \"#utility.yul\":4428:4757   */\n      swap3\n      swap2\n      pop\n      pop\n      jump\t// out\n        /* \"#utility.yul\":4763:4823   */\n    tag_225:\n        /* \"#utility.yul\":4791:4794   */\n      0x00\n        /* \"#utility.yul\":4812:4817   */\n      dup2\n        /* \"#utility.yul\":4805:4817   */\n      swap1\n      pop\n        /* \"#utility.yul\":4763:4823   */\n      swap2\n      swap1\n      pop\n      jump\t// out\n        /* \"#utility.yul\":4829:4971   */\n    tag_226:\n        /* \"#utility.yul\":4879:4888   */\n      0x00\n        /* \"#utility.yul\":4912:4965   */\n      tag_331\n        /* \"#utility.yul\":4930:4964   */\n      tag_332\n        /* \"#utility.yul\":4939:4963   */\n      tag_333\n        /* \"#utility.yul\":4957:4962   */\n      dup5\n        /* \"#utility.yul\":4939:4963   */\n      tag_209\n      jump\t// in\n    tag_333:\n        /* \"#utility.yul\":4930:4964   */\n      tag_225\n      jump\t// in\n    tag_332:\n        /* \"#utility.yul\":4912:4965   */\n      tag_209\n      jump\t// in\n    tag_331:\n        /* \"#utility.yul\":4899:4965   */\n      swap1\n      pop\n        /* \"#utility.yul\":4829:4971   */\n      swap2\n      swap1\n      pop\n      jump\t// out\n        /* \"#utility.yul\":4977:5103   */\n    tag_227:\n        /* \"#utility.yul\":5027:5036   */\n      0x00\n        /* \"#utility.yul\":5060:5097   */\n      tag_335\n        /* \"#utility.yul\":5091:5096   */\n      dup3\n        /* \"#utility.yul\":5060:5097   */\n      tag_226\n      jump\t// in\n    tag_335:\n        /* \"#utility.yul\":5047:5097   */\n      swap1\n      pop\n        /* \"#utility.yul\":4977:5103   */\n      swap2\n      swap1\n      pop\n      jump\t// out\n        /* \"#utility.yul\":5109:5249   */\n    tag_228:\n        /* \"#utility.yul\":5173:5182   */\n      0x00\n        /* \"#utility.yul\":5206:5243   */\n      tag_337\n        /* \"#utility.yul\":5237:5242   */\n      dup3\n        /* \"#utility.yul\":5206:5243   */\n      tag_227\n      jump\t// in\n    tag_337:\n        /* \"#utility.yul\":5193:5243   */\n      swap1\n      pop\n        /* \"#utility.yul\":5109:5249   */\n      swap2\n      swap1\n      pop\n      jump\t// out\n        /* \"#utility.yul\":5255:5414   */\n    tag_229:\n        /* \"#utility.yul\":5356:5407   */\n      tag_339\n        /* \"#utility.yul\":5401:5406   */\n      dup2\n        /* \"#utility.yul\":5356:5407   */\n      tag_228\n      jump\t// in\n    tag_339:\n        /* \"#utility.yul\":5351:5354   */\n      dup3\n        /* \"#utility.yul\":5344:5408   */\n      mstore\n        /* \"#utility.yul\":5255:5414   */\n      pop\n      pop\n      jump\t// out\n        /* \"#utility.yul\":5420:5670   */\n    tag_58:\n        /* \"#utility.yul\":5527:5531   */\n      0x00\n        /* \"#utility.yul\":5565:5567   */\n      0x20\n        /* \"#utility.yul\":5554:5563   */\n      dup3\n        /* \"#utility.yul\":5550:5568   */\n      add\n        /* \"#utility.yul\":5542:5568   */\n      swap1\n      pop\n        /* \"#utility.yul\":5578:5663   */\n      tag_341\n        /* \"#utility.yul\":5660:5661   */\n      0x00\n        /* \"#utility.yul\":5649:5658   */\n      dup4\n        /* \"#utility.yul\":5645:5662   */\n      add\n        /* \"#utility.yul\":5636:5642   */\n      dup5\n        /* \"#utility.yul\":5578:5663   */\n      tag_229\n      jump\t// in\n    tag_341:\n        /* \"#utility.yul\":5420:5670   */\n      swap3\n      swap2\n      pop\n      pop\n      jump\t// out\n        /* \"#utility.yul\":5676:5794   */\n    tag_230:\n        /* \"#utility.yul\":5763:5787   */\n      tag_343\n        /* \"#utility.yul\":5781:5786   */\n      dup2\n        /* \"#utility.yul\":5763:5787   */\n      tag_210\n      jump\t// in\n    tag_343:\n        /* \"#utility.yul\":5758:5761   */\n      dup3\n        /* \"#utility.yul\":5751:5788   */\n      mstore\n        /* \"#utility.yul\":5676:5794   */\n      pop\n      pop\n      jump\t// out\n        /* \"#utility.yul\":5800:6022   */\n    tag_68:\n        /* \"#utility.yul\":5893:5897   */\n      0x00\n        /* \"#utility.yul\":5931:5933   */\n      0x20\n        /* \"#utility.yul\":5920:5929   */\n      dup3\n        /* \"#utility.yul\":5916:5934   */\n      add\n        /* \"#utility.yul\":5908:5934   */\n      swap1\n      pop\n        /* \"#utility.yul\":5944:6015   */\n      tag_345\n        /* \"#utility.yul\":6012:6013   */\n      0x00\n        /* \"#utility.yul\":6001:6010   */\n      dup4\n        /* \"#utility.yul\":5997:6014   */\n      add\n        /* \"#utility.yul\":5988:5994   */\n      dup5\n        /* \"#utility.yul\":5944:6015   */\n      tag_230\n      jump\t// in\n    tag_345:\n        /* \"#utility.yul\":5800:6022   */\n      swap3\n      swap2\n      pop\n      pop\n      jump\t// out\n        /* \"#utility.yul\":6028:6176   */\n    tag_231:\n        /* \"#utility.yul\":6130:6141   */\n      0x00\n        /* \"#utility.yul\":6167:6170   */\n      dup2\n        /* \"#utility.yul\":6152:6170   */\n      swap1\n      pop\n        /* \"#utility.yul\":6028:6176   */\n      swap3\n      swap2\n      pop\n      pop\n      jump\t// out\n        /* \"#utility.yul\":6182:6338   */\n    tag_232:\n        /* \"#utility.yul\":6322:6330   */\n      0x616d6f756e740000000000000000000000000000000000000000000000000000\n        /* \"#utility.yul\":6318:6319   */\n      0x00\n        /* \"#utility.yul\":6310:6316   */\n      dup3\n        /* \"#utility.yul\":6306:6320   */\n      add\n        /* \"#utility.yul\":6299:6331   */\n      mstore\n        /* \"#utility.yul\":6182:6338   */\n      pop\n      jump\t// out\n        /* \"#utility.yul\":6344:6744   */\n    tag_233:\n        /* \"#utility.yul\":6504:6507   */\n      0x00\n        /* \"#utility.yul\":6525:6609   */\n      tag_349\n        /* \"#utility.yul\":6607:6608   */\n      0x06\n        /* \"#utility.yul\":6602:6605   */\n      dup4\n        /* \"#utility.yul\":6525:6609   */\n      tag_231\n      jump\t// in\n    tag_349:\n        /* \"#utility.yul\":6518:6609   */\n      swap2\n      pop\n        /* \"#utility.yul\":6618:6711   */\n      tag_350\n        /* \"#utility.yul\":6707:6710   */\n      dup3\n        /* \"#utility.yul\":6618:6711   */\n      tag_232\n      jump\t// in\n    tag_350:\n        /* \"#utility.yul\":6736:6737   */\n      0x06\n        /* \"#utility.yul\":6731:6734   */\n      dup3\n        /* \"#utility.yul\":6727:6738   */\n      add\n        /* \"#utility.yul\":6720:6738   */\n      swap1\n      pop\n        /* \"#utility.yul\":6344:6744   */\n      swap2\n      swap1\n      pop\n      jump\t// out\n        /* \"#utility.yul\":6750:7131   */\n    tag_92:\n        /* \"#utility.yul\":6935:6938   */\n      0x00\n        /* \"#utility.yul\":6957:7105   */\n      tag_352\n        /* \"#utility.yul\":7101:7104   */\n      dup3\n        /* \"#utility.yul\":6957:7105   */\n      tag_233\n      jump\t// in\n    tag_352:\n        /* \"#utility.yul\":6950:7105   */\n      swap2\n      pop\n        /* \"#utility.yul\":7122:7125   */\n      dup2\n        /* \"#utility.yul\":7115:7125   */\n      swap1\n      pop\n        /* \"#utility.yul\":6750:7131   */\n      swap2\n      swap1\n      pop\n      jump\t// out\n        /* \"#utility.yul\":7137:7306   */\n    tag_234:\n        /* \"#utility.yul\":7221:7232   */\n      0x00\n        /* \"#utility.yul\":7255:7261   */\n      dup3\n        /* \"#utility.yul\":7250:7253   */\n      dup3\n        /* \"#utility.yul\":7243:7262   */\n      mstore\n        /* \"#utility.yul\":7295:7299   */\n      0x20\n        /* \"#utility.yul\":7290:7293   */\n      dup3\n        /* \"#utility.yul\":7286:7300   */\n      add\n        /* \"#utility.yul\":7271:7300   */\n      swap1\n      pop\n        /* \"#utility.yul\":7137:7306   */\n      swap3\n      swap2\n      pop\n      pop\n      jump\t// out\n        /* \"#utility.yul\":7312:7537   */\n    tag_235:\n        /* \"#utility.yul\":7452:7486   */\n      0x5573657220646f6573206e6f742068617665207374616b657320696e20746869\n        /* \"#utility.yul\":7448:7449   */\n      0x00\n        /* \"#utility.yul\":7440:7446   */\n      dup3\n        /* \"#utility.yul\":7436:7450   */\n      add\n        /* \"#utility.yul\":7429:7487   */\n      mstore\n        /* \"#utility.yul\":7521:7529   */\n      0x7320706f6f6c0000000000000000000000000000000000000000000000000000\n        /* \"#utility.yul\":7516:7518   */\n      0x20\n        /* \"#utility.yul\":7508:7514   */\n      dup3\n        /* \"#utility.yul\":7504:7519   */\n      add\n        /* \"#utility.yul\":7497:7530   */\n      mstore\n        /* \"#utility.yul\":7312:7537   */\n      pop\n      jump\t// out\n        /* \"#utility.yul\":7543:7909   */\n    tag_236:\n        /* \"#utility.yul\":7685:7688   */\n      0x00\n        /* \"#utility.yul\":7706:7773   */\n      tag_356\n        /* \"#utility.yul\":7770:7772   */\n      0x26\n        /* \"#utility.yul\":7765:7768   */\n      dup4\n        /* \"#utility.yul\":7706:7773   */\n      tag_234\n      jump\t// in\n    tag_356:\n        /* \"#utility.yul\":7699:7773   */\n      swap2\n      pop\n        /* \"#utility.yul\":7782:7875   */\n      tag_357\n        /* \"#utility.yul\":7871:7874   */\n      dup3\n        /* \"#utility.yul\":7782:7875   */\n      tag_235\n      jump\t// in\n    tag_357:\n        /* \"#utility.yul\":7900:7902   */\n      0x40\n        /* \"#utility.yul\":7895:7898   */\n      dup3\n        /* \"#utility.yul\":7891:7903   */\n      add\n        /* \"#utility.yul\":7884:7903   */\n      swap1\n      pop\n        /* \"#utility.yul\":7543:7909   */\n      swap2\n      swap1\n      pop\n      jump\t// out\n        /* \"#utility.yul\":7915:8334   */\n    tag_95:\n        /* \"#utility.yul\":8081:8085   */\n      0x00\n        /* \"#utility.yul\":8119:8121   */\n      0x20\n        /* \"#utility.yul\":8108:8117   */\n      dup3\n        /* \"#utility.yul\":8104:8122   */\n      add\n        /* \"#utility.yul\":8096:8122   */\n      swap1\n      pop\n        /* \"#utility.yul\":8168:8177   */\n      dup2\n        /* \"#utility.yul\":8162:8166   */\n      dup2\n        /* \"#utility.yul\":8158:8178   */\n      sub\n        /* \"#utility.yul\":8154:8155   */\n      0x00\n        /* \"#utility.yul\":8143:8152   */\n      dup4\n        /* \"#utility.yul\":8139:8156   */\n      add\n        /* \"#utility.yul\":8132:8179   */\n      mstore\n        /* \"#utility.yul\":8196:8327   */\n      tag_359\n        /* \"#utility.yul\":8322:8326   */\n      dup2\n        /* \"#utility.yul\":8196:8327   */\n      tag_236\n      jump\t// in\n    tag_359:\n        /* \"#utility.yul\":8188:8327   */\n      swap1\n      pop\n        /* \"#utility.yul\":7915:8334   */\n      swap2\n      swap1\n      pop\n      jump\t// out\n        /* \"#utility.yul\":8340:8672   */\n    tag_98:\n        /* \"#utility.yul\":8461:8465   */\n      0x00\n        /* \"#utility.yul\":8499:8501   */\n      0x40\n        /* \"#utility.yul\":8488:8497   */\n      dup3\n        /* \"#utility.yul\":8484:8502   */\n      add\n        /* \"#utility.yul\":8476:8502   */\n      swap1\n      pop\n        /* \"#utility.yul\":8512:8583   */\n      tag_361\n        /* \"#utility.yul\":8580:8581   */\n      0x00\n        /* \"#utility.yul\":8569:8578   */\n      dup4\n        /* \"#utility.yul\":8565:8582   */\n      add\n        /* \"#utility.yul\":8556:8562   */\n      dup6\n        /* \"#utility.yul\":8512:8583   */\n      tag_230\n      jump\t// in\n    tag_361:\n        /* \"#utility.yul\":8593:8665   */\n      tag_362\n        /* \"#utility.yul\":8661:8663   */\n      0x20\n        /* \"#utility.yul\":8650:8659   */\n      dup4\n        /* \"#utility.yul\":8646:8664   */\n      add\n        /* \"#utility.yul\":8637:8643   */\n      dup5\n        /* \"#utility.yul\":8593:8665   */\n      tag_205\n      jump\t// in\n    tag_362:\n        /* \"#utility.yul\":8340:8672   */\n      swap4\n      swap3\n      pop\n      pop\n      pop\n      jump\t// out\n        /* \"#utility.yul\":8678:8768   */\n    tag_237:\n        /* \"#utility.yul\":8712:8719   */\n      0x00\n        /* \"#utility.yul\":8755:8760   */\n      dup2\n        /* \"#utility.yul\":8748:8761   */\n      iszero\n        /* \"#utility.yul\":8741:8762   */\n      iszero\n        /* \"#utility.yul\":8730:8762   */\n      swap1\n      pop\n        /* \"#utility.yul\":8678:8768   */\n      swap2\n      swap1\n      pop\n      jump\t// out\n        /* \"#utility.yul\":8774:8890   */\n    tag_238:\n        /* \"#utility.yul\":8844:8865   */\n      tag_365\n        /* \"#utility.yul\":8859:8864   */\n      dup2\n        /* \"#utility.yul\":8844:8865   */\n      tag_237\n      jump\t// in\n    tag_365:\n        /* \"#utility.yul\":8837:8842   */\n      dup2\n        /* \"#utility.yul\":8834:8866   */\n      eq\n        /* \"#utility.yul\":8824:8884   */\n      tag_366\n      jumpi\n        /* \"#utility.yul\":8880:8881   */\n      0x00\n        /* \"#utility.yul\":8877:8878   */\n      dup1\n        /* \"#utility.yul\":8870:8882   */\n      revert\n        /* \"#utility.yul\":8824:8884   */\n    tag_366:\n        /* \"#utility.yul\":8774:8890   */\n      pop\n      jump\t// out\n        /* \"#utility.yul\":8896:9033   */\n    tag_239:\n        /* \"#utility.yul\":8950:8955   */\n      0x00\n        /* \"#utility.yul\":8981:8987   */\n      dup2\n        /* \"#utility.yul\":8975:8988   */\n      mload\n        /* \"#utility.yul\":8966:8988   */\n      swap1\n      pop\n        /* \"#utility.yul\":8997:9027   */\n      tag_368\n        /* \"#utility.yul\":9021:9026   */\n      dup2\n        /* \"#utility.yul\":8997:9027   */\n      tag_238\n      jump\t// in\n    tag_368:\n        /* \"#utility.yul\":8896:9033   */\n      swap3\n      swap2\n      pop\n      pop\n      jump\t// out\n        /* \"#utility.yul\":9039:9384   */\n    tag_102:\n        /* \"#utility.yul\":9106:9112   */\n      0x00\n        /* \"#utility.yul\":9155:9157   */\n      0x20\n        /* \"#utility.yul\":9143:9152   */\n      dup3\n        /* \"#utility.yul\":9134:9141   */\n      dup5\n        /* \"#utility.yul\":9130:9153   */\n      sub\n        /* \"#utility.yul\":9126:9158   */\n      slt\n        /* \"#utility.yul\":9123:9242   */\n      iszero\n      tag_370\n      jumpi\n        /* \"#utility.yul\":9161:9240   */\n      tag_371\n      tag_207\n      jump\t// in\n    tag_371:\n        /* \"#utility.yul\":9123:9242   */\n    tag_370:\n        /* \"#utility.yul\":9281:9282   */\n      0x00\n        /* \"#utility.yul\":9306:9367   */\n      tag_372\n        /* \"#utility.yul\":9359:9366   */\n      dup5\n        /* \"#utility.yul\":9350:9356   */\n      dup3\n        /* \"#utility.yul\":9339:9348   */\n      dup6\n        /* \"#utility.yul\":9335:9357   */\n      add\n        /* \"#utility.yul\":9306:9367   */\n      tag_239\n      jump\t// in\n    tag_372:\n        /* \"#utility.yul\":9296:9367   */\n      swap2\n      pop\n        /* \"#utility.yul\":9252:9377   */\n      pop\n        /* \"#utility.yul\":9039:9384   */\n      swap3\n      swap2\n      pop\n      pop\n      jump\t// out\n        /* \"#utility.yul\":9390:9565   */\n    tag_240:\n        /* \"#utility.yul\":9530:9557   */\n      0x4661696c656420746f207472616e7366657220746f6b656e7300000000000000\n        /* \"#utility.yul\":9526:9527   */\n      0x00\n        /* \"#utility.yul\":9518:9524   */\n      dup3\n        /* \"#utility.yul\":9514:9528   */\n      add\n        /* \"#utility.yul\":9507:9558   */\n      mstore\n        /* \"#utility.yul\":9390:9565   */\n      pop\n      jump\t// out\n        /* \"#utility.yul\":9571:9937   */\n    tag_241:\n        /* \"#utility.yul\":9713:9716   */\n      0x00\n        /* \"#utility.yul\":9734:9801   */\n      tag_375\n        /* \"#utility.yul\":9798:9800   */\n      0x19\n        /* \"#utility.yul\":9793:9796   */\n      dup4\n        /* \"#utility.yul\":9734:9801   */\n      tag_234\n      jump\t// in\n    tag_375:\n        /* \"#utility.yul\":9727:9801   */\n      swap2\n      pop\n        /* \"#utility.yul\":9810:9903   */\n      tag_376\n        /* \"#utility.yul\":9899:9902   */\n      dup3\n        /* \"#utility.yul\":9810:9903   */\n      tag_240\n      jump\t// in\n    tag_376:\n        /* \"#utility.yul\":9928:9930   */\n      0x20\n        /* \"#utility.yul\":9923:9926   */\n      dup3\n        /* \"#utility.yul\":9919:9931   */\n      add\n        /* \"#utility.yul\":9912:9931   */\n      swap1\n      pop\n        /* \"#utility.yul\":9571:9937   */\n      swap2\n      swap1\n      pop\n      jump\t// out\n        /* \"#utility.yul\":9943:10362   */\n    tag_105:\n        /* \"#utility.yul\":10109:10113   */\n      0x00\n        /* \"#utility.yul\":10147:10149   */\n      0x20\n        /* \"#utility.yul\":10136:10145   */\n      dup3\n        /* \"#utility.yul\":10132:10150   */\n      add\n        /* \"#utility.yul\":10124:10150   */\n      swap1\n      pop\n        /* \"#utility.yul\":10196:10205   */\n      dup2\n        /* \"#utility.yul\":10190:10194   */\n      dup2\n        /* \"#utility.yul\":10186:10206   */\n      sub\n        /* \"#utility.yul\":10182:10183   */\n      0x00\n        /* \"#utility.yul\":10171:10180   */\n      dup4\n        /* \"#utility.yul\":10167:10184   */\n      add\n        /* \"#utility.yul\":10160:10207   */\n      mstore\n        /* \"#utility.yul\":10224:10355   */\n      tag_378\n        /* \"#utility.yul\":10350:10354   */\n      dup2\n        /* \"#utility.yul\":10224:10355   */\n      tag_241\n      jump\t// in\n    tag_378:\n        /* \"#utility.yul\":10216:10355   */\n      swap1\n      pop\n        /* \"#utility.yul\":9943:10362   */\n      swap2\n      swap1\n      pop\n      jump\t// out\n        /* \"#utility.yul\":10368:10548   */\n    tag_242:\n        /* \"#utility.yul\":10508:10540   */\n      0x596f752068617665206e6f74207374616b656420616e7920746f6b656e730000\n        /* \"#utility.yul\":10504:10505   */\n      0x00\n        /* \"#utility.yul\":10496:10502   */\n      dup3\n        /* \"#utility.yul\":10492:10506   */\n      add\n        /* \"#utility.yul\":10485:10541   */\n      mstore\n        /* \"#utility.yul\":10368:10548   */\n      pop\n      jump\t// out\n        /* \"#utility.yul\":10554:10920   */\n    tag_243:\n        /* \"#utility.yul\":10696:10699   */\n      0x00\n        /* \"#utility.yul\":10717:10784   */\n      tag_381\n        /* \"#utility.yul\":10781:10783   */\n      0x1e\n        /* \"#utility.yul\":10776:10779   */\n      dup4\n        /* \"#utility.yul\":10717:10784   */\n      tag_234\n      jump\t// in\n    tag_381:\n        /* \"#utility.yul\":10710:10784   */\n      swap2\n      pop\n        /* \"#utility.yul\":10793:10886   */\n      tag_382\n        /* \"#utility.yul\":10882:10885   */\n      dup3\n        /* \"#utility.yul\":10793:10886   */\n      tag_242\n      jump\t// in\n    tag_382:\n        /* \"#utility.yul\":10911:10913   */\n      0x20\n        /* \"#utility.yul\":10906:10909   */\n      dup3\n        /* \"#utility.yul\":10902:10914   */\n      add\n        /* \"#utility.yul\":10895:10914   */\n      swap1\n      pop\n        /* \"#utility.yul\":10554:10920   */\n      swap2\n      swap1\n      pop\n      jump\t// out\n        /* \"#utility.yul\":10926:11345   */\n    tag_111:\n        /* \"#utility.yul\":11092:11096   */\n      0x00\n        /* \"#utility.yul\":11130:11132   */\n      0x20\n        /* \"#utility.yul\":11119:11128   */\n      dup3\n        /* \"#utility.yul\":11115:11133   */\n      add\n        /* \"#utility.yul\":11107:11133   */\n      swap1\n      pop\n        /* \"#utility.yul\":11179:11188   */\n      dup2\n        /* \"#utility.yul\":11173:11177   */\n      dup2\n        /* \"#utility.yul\":11169:11189   */\n      sub\n        /* \"#utility.yul\":11165:11166   */\n      0x00\n        /* \"#utility.yul\":11154:11163   */\n      dup4\n        /* \"#utility.yul\":11150:11167   */\n      add\n        /* \"#utility.yul\":11143:11190   */\n      mstore\n        /* \"#utility.yul\":11207:11338   */\n      tag_384\n        /* \"#utility.yul\":11333:11337   */\n      dup2\n        /* \"#utility.yul\":11207:11338   */\n      tag_243\n      jump\t// in\n    tag_384:\n        /* \"#utility.yul\":11199:11338   */\n      swap1\n      pop\n        /* \"#utility.yul\":10926:11345   */\n      swap2\n      swap1\n      pop\n      jump\t// out\n        /* \"#utility.yul\":11351:11531   */\n    tag_244:\n        /* \"#utility.yul\":11399:11476   */\n      0x4e487b7100000000000000000000000000000000000000000000000000000000\n        /* \"#utility.yul\":11396:11397   */\n      0x00\n        /* \"#utility.yul\":11389:11477   */\n      mstore\n        /* \"#utility.yul\":11496:11500   */\n      0x11\n        /* \"#utility.yul\":11493:11494   */\n      0x04\n        /* \"#utility.yul\":11486:11501   */\n      mstore\n        /* \"#utility.yul\":11520:11524   */\n      0x24\n        /* \"#utility.yul\":11517:11518   */\n      0x00\n        /* \"#utility.yul\":11510:11525   */\n      revert\n        /* \"#utility.yul\":11537:11728   */\n    tag_114:\n        /* \"#utility.yul\":11577:11580   */\n      0x00\n        /* \"#utility.yul\":11596:11616   */\n      tag_387\n        /* \"#utility.yul\":11614:11615   */\n      dup3\n        /* \"#utility.yul\":11596:11616   */\n      tag_204\n      jump\t// in\n    tag_387:\n        /* \"#utility.yul\":11591:11616   */\n      swap2\n      pop\n        /* \"#utility.yul\":11630:11650   */\n      tag_388\n        /* \"#utility.yul\":11648:11649   */\n      dup4\n        /* \"#utility.yul\":11630:11650   */\n      tag_204\n      jump\t// in\n    tag_388:\n        /* \"#utility.yul\":11625:11650   */\n      swap3\n      pop\n        /* \"#utility.yul\":11673:11674   */\n      dup3\n        /* \"#utility.yul\":11670:11671   */\n      dup3\n        /* \"#utility.yul\":11666:11675   */\n      add\n        /* \"#utility.yul\":11659:11675   */\n      swap1\n      pop\n        /* \"#utility.yul\":11694:11697   */\n      dup1\n        /* \"#utility.yul\":11691:11692   */\n      dup3\n        /* \"#utility.yul\":11688:11698   */\n      gt\n        /* \"#utility.yul\":11685:11721   */\n      iszero\n      tag_389\n      jumpi\n        /* \"#utility.yul\":11701:11719   */\n      tag_390\n      tag_244\n      jump\t// in\n    tag_390:\n        /* \"#utility.yul\":11685:11721   */\n    tag_389:\n        /* \"#utility.yul\":11537:11728   */\n      swap3\n      swap2\n      pop\n      pop\n      jump\t// out\n        /* \"#utility.yul\":11734:11894   */\n    tag_245:\n        /* \"#utility.yul\":11874:11886   */\n      0x6c6f636b5374616b657300000000000000000000000000000000000000000000\n        /* \"#utility.yul\":11870:11871   */\n      0x00\n        /* \"#utility.yul\":11862:11868   */\n      dup3\n        /* \"#utility.yul\":11858:11872   */\n      add\n        /* \"#utility.yul\":11851:11887   */\n      mstore\n        /* \"#utility.yul\":11734:11894   */\n      pop\n      jump\t// out\n        /* \"#utility.yul\":11900:12302   */\n    tag_246:\n        /* \"#utility.yul\":12060:12063   */\n      0x00\n        /* \"#utility.yul\":12081:12166   */\n      tag_393\n        /* \"#utility.yul\":12163:12165   */\n      0x0a\n        /* \"#utility.yul\":12158:12161   */\n      dup4\n        /* \"#utility.yul\":12081:12166   */\n      tag_231\n      jump\t// in\n    tag_393:\n        /* \"#utility.yul\":12074:12166   */\n      swap2\n      pop\n        /* \"#utility.yul\":12175:12268   */\n      tag_394\n        /* \"#utility.yul\":12264:12267   */\n      dup3\n        /* \"#utility.yul\":12175:12268   */\n      tag_245\n      jump\t// in\n    tag_394:\n        /* \"#utility.yul\":12293:12295   */\n      0x0a\n        /* \"#utility.yul\":12288:12291   */\n      dup3\n        /* \"#utility.yul\":12284:12296   */\n      add\n        /* \"#utility.yul\":12277:12296   */\n      swap1\n      pop\n        /* \"#utility.yul\":11900:12302   */\n      swap2\n      swap1\n      pop\n      jump\t// out\n        /* \"#utility.yul\":12308:12689   */\n    tag_117:\n        /* \"#utility.yul\":12493:12496   */\n      0x00\n        /* \"#utility.yul\":12515:12663   */\n      tag_396\n        /* \"#utility.yul\":12659:12662   */\n      dup3\n        /* \"#utility.yul\":12515:12663   */\n      tag_246\n      jump\t// in\n    tag_396:\n        /* \"#utility.yul\":12508:12663   */\n      swap2\n      pop\n        /* \"#utility.yul\":12680:12683   */\n      dup2\n        /* \"#utility.yul\":12673:12683   */\n      swap1\n      pop\n        /* \"#utility.yul\":12308:12689   */\n      swap2\n      swap1\n      pop\n      jump\t// out\n        /* \"#utility.yul\":12695:12868   */\n    tag_247:\n        /* \"#utility.yul\":12835:12860   */\n      0x5374616b65732068617665206265656e206c6f636b6564000000000000000000\n        /* \"#utility.yul\":12831:12832   */\n      0x00\n        /* \"#utility.yul\":12823:12829   */\n      dup3\n        /* \"#utility.yul\":12819:12833   */\n      add\n        /* \"#utility.yul\":12812:12861   */\n      mstore\n        /* \"#utility.yul\":12695:12868   */\n      pop\n      jump\t// out\n        /* \"#utility.yul\":12874:13240   */\n    tag_248:\n        /* \"#utility.yul\":13016:13019   */\n      0x00\n        /* \"#utility.yul\":13037:13104   */\n      tag_399\n        /* \"#utility.yul\":13101:13103   */\n      0x17\n        /* \"#utility.yul\":13096:13099   */\n      dup4\n        /* \"#utility.yul\":13037:13104   */\n      tag_234\n      jump\t// in\n    tag_399:\n        /* \"#utility.yul\":13030:13104   */\n      swap2\n      pop\n        /* \"#utility.yul\":13113:13206   */\n      tag_400\n        /* \"#utility.yul\":13202:13205   */\n      dup3\n        /* \"#utility.yul\":13113:13206   */\n      tag_247\n      jump\t// in\n    tag_400:\n        /* \"#utility.yul\":13231:13233   */\n      0x20\n        /* \"#utility.yul\":13226:13229   */\n      dup3\n        /* \"#utility.yul\":13222:13234   */\n      add\n        /* \"#utility.yul\":13215:13234   */\n      swap1\n      pop\n        /* \"#utility.yul\":12874:13240   */\n      swap2\n      swap1\n      pop\n      jump\t// out\n        /* \"#utility.yul\":13246:13665   */\n    tag_120:\n        /* \"#utility.yul\":13412:13416   */\n      0x00\n        /* \"#utility.yul\":13450:13452   */\n      0x20\n        /* \"#utility.yul\":13439:13448   */\n      dup3\n        /* \"#utility.yul\":13435:13453   */\n      add\n        /* \"#utility.yul\":13427:13453   */\n      swap1\n      pop\n        /* \"#utility.yul\":13499:13508   */\n      dup2\n        /* \"#utility.yul\":13493:13497   */\n      dup2\n        /* \"#utility.yul\":13489:13509   */\n      sub\n        /* \"#utility.yul\":13485:13486   */\n      0x00\n        /* \"#utility.yul\":13474:13483   */\n      dup4\n        /* \"#utility.yul\":13470:13487   */\n      add\n        /* \"#utility.yul\":13463:13510   */\n      mstore\n        /* \"#utility.yul\":13527:13658   */\n      tag_402\n        /* \"#utility.yul\":13653:13657   */\n      dup2\n        /* \"#utility.yul\":13527:13658   */\n      tag_248\n      jump\t// in\n    tag_402:\n        /* \"#utility.yul\":13519:13658   */\n      swap1\n      pop\n        /* \"#utility.yul\":13246:13665   */\n      swap2\n      swap1\n      pop\n      jump\t// out\n        /* \"#utility.yul\":13671:13852   */\n    tag_249:\n        /* \"#utility.yul\":13811:13844   */\n      0x596f752068617665206e6f74206561726e656420616e79207265776172647300\n        /* \"#utility.yul\":13807:13808   */\n      0x00\n        /* \"#utility.yul\":13799:13805   */\n      dup3\n        /* \"#utility.yul\":13795:13809   */\n      add\n        /* \"#utility.yul\":13788:13845   */\n      mstore\n        /* \"#utility.yul\":13671:13852   */\n      pop\n      jump\t// out\n        /* \"#utility.yul\":13858:14224   */\n    tag_250:\n        /* \"#utility.yul\":14000:14003   */\n      0x00\n        /* \"#utility.yul\":14021:14088   */\n      tag_405\n        /* \"#utility.yul\":14085:14087   */\n      0x1f\n        /* \"#utility.yul\":14080:14083   */\n      dup4\n        /* \"#utility.yul\":14021:14088   */\n      tag_234\n      jump\t// in\n    tag_405:\n        /* \"#utility.yul\":14014:14088   */\n      swap2\n      pop\n        /* \"#utility.yul\":14097:14190   */\n      tag_406\n        /* \"#utility.yul\":14186:14189   */\n      dup3\n        /* \"#utility.yul\":14097:14190   */\n      tag_249\n      jump\t// in\n    tag_406:\n        /* \"#utility.yul\":14215:14217   */\n      0x20\n        /* \"#utility.yul\":14210:14213   */\n      dup3\n        /* \"#utility.yul\":14206:14218   */\n      add\n        /* \"#utility.yul\":14199:14218   */\n      swap1\n      pop\n        /* \"#utility.yul\":13858:14224   */\n      swap2\n      swap1\n      pop\n      jump\t// out\n        /* \"#utility.yul\":14230:14649   */\n    tag_127:\n        /* \"#utility.yul\":14396:14400   */\n      0x00\n        /* \"#utility.yul\":14434:14436   */\n      0x20\n        /* \"#utility.yul\":14423:14432   */\n      dup3\n        /* \"#utility.yul\":14419:14437   */\n      add\n        /* \"#utility.yul\":14411:14437   */\n      swap1\n      pop\n        /* \"#utility.yul\":14483:14492   */\n      dup2\n        /* \"#utility.yul\":14477:14481   */\n      dup2\n        /* \"#utility.yul\":14473:14493   */\n      sub\n        /* \"#utility.yul\":14469:14470   */\n      0x00\n        /* \"#utility.yul\":14458:14467   */\n      dup4\n        /* \"#utility.yul\":14454:14471   */\n      add\n        /* \"#utility.yul\":14447:14494   */\n      mstore\n        /* \"#utility.yul\":14511:14642   */\n      tag_408\n        /* \"#utility.yul\":14637:14641   */\n      dup2\n        /* \"#utility.yul\":14511:14642   */\n      tag_250\n      jump\t// in\n    tag_408:\n        /* \"#utility.yul\":14503:14642   */\n      swap1\n      pop\n        /* \"#utility.yul\":14230:14649   */\n      swap2\n      swap1\n      pop\n      jump\t// out\n        /* \"#utility.yul\":14655:14849   */\n    tag_129:\n        /* \"#utility.yul\":14695:14699   */\n      0x00\n        /* \"#utility.yul\":14715:14735   */\n      tag_410\n        /* \"#utility.yul\":14733:14734   */\n      dup3\n        /* \"#utility.yul\":14715:14735   */\n      tag_204\n      jump\t// in\n    tag_410:\n        /* \"#utility.yul\":14710:14735   */\n      swap2\n      pop\n        /* \"#utility.yul\":14749:14769   */\n      tag_411\n        /* \"#utility.yul\":14767:14768   */\n      dup4\n        /* \"#utility.yul\":14749:14769   */\n      tag_204\n      jump\t// in\n    tag_411:\n        /* \"#utility.yul\":14744:14769   */\n      swap3\n      pop\n        /* \"#utility.yul\":14793:14794   */\n      dup3\n        /* \"#utility.yul\":14790:14791   */\n      dup3\n        /* \"#utility.yul\":14786:14795   */\n      sub\n        /* \"#utility.yul\":14778:14795   */\n      swap1\n      pop\n        /* \"#utility.yul\":14817:14818   */\n      dup2\n        /* \"#utility.yul\":14811:14815   */\n      dup2\n        /* \"#utility.yul\":14808:14819   */\n      gt\n        /* \"#utility.yul\":14805:14842   */\n      iszero\n      tag_412\n      jumpi\n        /* \"#utility.yul\":14822:14840   */\n      tag_413\n      tag_244\n      jump\t// in\n    tag_413:\n        /* \"#utility.yul\":14805:14842   */\n    tag_412:\n        /* \"#utility.yul\":14655:14849   */\n      swap3\n      swap2\n      pop\n      pop\n      jump\t// out\n        /* \"#utility.yul\":14855:15075   */\n    tag_251:\n        /* \"#utility.yul\":14995:15029   */\n      0x596f7520646f6e2774206861766520656e6f75676820746f2077697468647261\n        /* \"#utility.yul\":14991:14992   */\n      0x00\n        /* \"#utility.yul\":14983:14989   */\n      dup3\n        /* \"#utility.yul\":14979:14993   */\n      add\n        /* \"#utility.yul\":14972:15030   */\n      mstore\n        /* \"#utility.yul\":15064:15067   */\n      0x7700000000000000000000000000000000000000000000000000000000000000\n        /* \"#utility.yul\":15059:15061   */\n      0x20\n        /* \"#utility.yul\":15051:15057   */\n      dup3\n        /* \"#utility.yul\":15047:15062   */\n      add\n        /* \"#utility.yul\":15040:15068   */\n      mstore\n        /* \"#utility.yul\":14855:15075   */\n      pop\n      jump\t// out\n        /* \"#utility.yul\":15081:15447   */\n    tag_252:\n        /* \"#utility.yul\":15223:15226   */\n      0x00\n        /* \"#utility.yul\":15244:15311   */\n      tag_416\n        /* \"#utility.yul\":15308:15310   */\n      0x21\n        /* \"#utility.yul\":15303:15306   */\n      dup4\n        /* \"#utility.yul\":15244:15311   */\n      tag_234\n      jump\t// in\n    tag_416:\n        /* \"#utility.yul\":15237:15311   */\n      swap2\n      pop\n        /* \"#utility.yul\":15320:15413   */\n      tag_417\n        /* \"#utility.yul\":15409:15412   */\n      dup3\n        /* \"#utility.yul\":15320:15413   */\n      tag_251\n      jump\t// in\n    tag_417:\n        /* \"#utility.yul\":15438:15440   */\n      0x40\n        /* \"#utility.yul\":15433:15436   */\n      dup3\n        /* \"#utility.yul\":15429:15441   */\n      add\n        /* \"#utility.yul\":15422:15441   */\n      swap1\n      pop\n        /* \"#utility.yul\":15081:15447   */\n      swap2\n      swap1\n      pop\n      jump\t// out\n        /* \"#utility.yul\":15453:15872   */\n    tag_132:\n        /* \"#utility.yul\":15619:15623   */\n      0x00\n        /* \"#utility.yul\":15657:15659   */\n      0x20\n        /* \"#utility.yul\":15646:15655   */\n      dup3\n        /* \"#utility.yul\":15642:15660   */\n      add\n        /* \"#utility.yul\":15634:15660   */\n      swap1\n      pop\n        /* \"#utility.yul\":15706:15715   */\n      dup2\n        /* \"#utility.yul\":15700:15704   */\n      dup2\n        /* \"#utility.yul\":15696:15716   */\n      sub\n        /* \"#utility.yul\":15692:15693   */\n      0x00\n        /* \"#utility.yul\":15681:15690   */\n      dup4\n        /* \"#utility.yul\":15677:15694   */\n      add\n        /* \"#utility.yul\":15670:15717   */\n      mstore\n        /* \"#utility.yul\":15734:15865   */\n      tag_419\n        /* \"#utility.yul\":15860:15864   */\n      dup2\n        /* \"#utility.yul\":15734:15865   */\n      tag_252\n      jump\t// in\n    tag_419:\n        /* \"#utility.yul\":15726:15865   */\n      swap1\n      pop\n        /* \"#utility.yul\":15453:15872   */\n      swap2\n      swap1\n      pop\n      jump\t// out\n        /* \"#utility.yul\":15878:16053   */\n    tag_253:\n        /* \"#utility.yul\":16018:16045   */\n      0x5374616b696e67207374696c6c20696e2070726f677265737300000000000000\n        /* \"#utility.yul\":16014:16015   */\n      0x00\n        /* \"#utility.yul\":16006:16012   */\n      dup3\n        /* \"#utility.yul\":16002:16016   */\n      add\n        /* \"#utility.yul\":15995:16046   */\n      mstore\n        /* \"#utility.yul\":15878:16053   */\n      pop\n      jump\t// out\n        /* \"#utility.yul\":16059:16425   */\n    tag_254:\n        /* \"#utility.yul\":16201:16204   */\n      0x00\n        /* \"#utility.yul\":16222:16289   */\n      tag_422\n        /* \"#utility.yul\":16286:16288   */\n      0x19\n        /* \"#utility.yul\":16281:16284   */\n      dup4\n        /* \"#utility.yul\":16222:16289   */\n      tag_234\n      jump\t// in\n    tag_422:\n        /* \"#utility.yul\":16215:16289   */\n      swap2\n      pop\n        /* \"#utility.yul\":16298:16391   */\n      tag_423\n        /* \"#utility.yul\":16387:16390   */\n      dup3\n        /* \"#utility.yul\":16298:16391   */\n      tag_253\n      jump\t// in\n    tag_423:\n        /* \"#utility.yul\":16416:16418   */\n      0x20\n        /* \"#utility.yul\":16411:16414   */\n      dup3\n        /* \"#utility.yul\":16407:16419   */\n      add\n        /* \"#utility.yul\":16400:16419   */\n      swap1\n      pop\n        /* \"#utility.yul\":16059:16425   */\n      swap2\n      swap1\n      pop\n      jump\t// out\n        /* \"#utility.yul\":16431:16850   */\n    tag_143:\n        /* \"#utility.yul\":16597:16601   */\n      0x00\n        /* \"#utility.yul\":16635:16637   */\n      0x20\n        /* \"#utility.yul\":16624:16633   */\n      dup3\n        /* \"#utility.yul\":16620:16638   */\n      add\n        /* \"#utility.yul\":16612:16638   */\n      swap1\n      pop\n        /* \"#utility.yul\":16684:16693   */\n      dup2\n        /* \"#utility.yul\":16678:16682   */\n      dup2\n        /* \"#utility.yul\":16674:16694   */\n      sub\n        /* \"#utility.yul\":16670:16671   */\n      0x00\n        /* \"#utility.yul\":16659:16668   */\n      dup4\n        /* \"#utility.yul\":16655:16672   */\n      add\n        /* \"#utility.yul\":16648:16695   */\n      mstore\n        /* \"#utility.yul\":16712:16843   */\n      tag_425\n        /* \"#utility.yul\":16838:16842   */\n      dup2\n        /* \"#utility.yul\":16712:16843   */\n      tag_254\n      jump\t// in\n    tag_425:\n        /* \"#utility.yul\":16704:16843   */\n      swap1\n      pop\n        /* \"#utility.yul\":16431:16850   */\n      swap2\n      swap1\n      pop\n      jump\t// out\n        /* \"#utility.yul\":16856:17028   */\n    tag_255:\n        /* \"#utility.yul\":16996:17020   */\n      0x2e4e6f207374616b696e6720706572696f642079657400000000000000000000\n        /* \"#utility.yul\":16992:16993   */\n      0x00\n        /* \"#utility.yul\":16984:16990   */\n      dup3\n        /* \"#utility.yul\":16980:16994   */\n      add\n        /* \"#utility.yul\":16973:17021   */\n      mstore\n        /* \"#utility.yul\":16856:17028   */\n      pop\n      jump\t// out\n        /* \"#utility.yul\":17034:17400   */\n    tag_256:\n        /* \"#utility.yul\":17176:17179   */\n      0x00\n        /* \"#utility.yul\":17197:17264   */\n      tag_428\n        /* \"#utility.yul\":17261:17263   */\n      0x16\n        /* \"#utility.yul\":17256:17259   */\n      dup4\n        /* \"#utility.yul\":17197:17264   */\n      tag_234\n      jump\t// in\n    tag_428:\n        /* \"#utility.yul\":17190:17264   */\n      swap2\n      pop\n        /* \"#utility.yul\":17273:17366   */\n      tag_429\n        /* \"#utility.yul\":17362:17365   */\n      dup3\n        /* \"#utility.yul\":17273:17366   */\n      tag_255\n      jump\t// in\n    tag_429:\n        /* \"#utility.yul\":17391:17393   */\n      0x20\n        /* \"#utility.yul\":17386:17389   */\n      dup3\n        /* \"#utility.yul\":17382:17394   */\n      add\n        /* \"#utility.yul\":17375:17394   */\n      swap1\n      pop\n        /* \"#utility.yul\":17034:17400   */\n      swap2\n      swap1\n      pop\n      jump\t// out\n        /* \"#utility.yul\":17406:17825   */\n    tag_150:\n        /* \"#utility.yul\":17572:17576   */\n      0x00\n        /* \"#utility.yul\":17610:17612   */\n      0x20\n        /* \"#utility.yul\":17599:17608   */\n      dup3\n        /* \"#utility.yul\":17595:17613   */\n      add\n        /* \"#utility.yul\":17587:17613   */\n      swap1\n      pop\n        /* \"#utility.yul\":17659:17668   */\n      dup2\n        /* \"#utility.yul\":17653:17657   */\n      dup2\n        /* \"#utility.yul\":17649:17669   */\n      sub\n        /* \"#utility.yul\":17645:17646   */\n      0x00\n        /* \"#utility.yul\":17634:17643   */\n      dup4\n        /* \"#utility.yul\":17630:17647   */\n      add\n        /* \"#utility.yul\":17623:17670   */\n      mstore\n        /* \"#utility.yul\":17687:17818   */\n      tag_431\n        /* \"#utility.yul\":17813:17817   */\n      dup2\n        /* \"#utility.yul\":17687:17818   */\n      tag_256\n      jump\t// in\n    tag_431:\n        /* \"#utility.yul\":17679:17818   */\n      swap1\n      pop\n        /* \"#utility.yul\":17406:17825   */\n      swap2\n      swap1\n      pop\n      jump\t// out\n        /* \"#utility.yul\":17831:18072   */\n    tag_257:\n        /* \"#utility.yul\":17971:18005   */\n      0x5468697320757365722063616e6e6f206c6f6e676572206465706f7369742066\n        /* \"#utility.yul\":17967:17968   */\n      0x00\n        /* \"#utility.yul\":17959:17965   */\n      dup3\n        /* \"#utility.yul\":17955:17969   */\n      add\n        /* \"#utility.yul\":17948:18006   */\n      mstore\n        /* \"#utility.yul\":18040:18064   */\n      0x6f722074686973207374616b696e6720706572696f6400000000000000000000\n        /* \"#utility.yul\":18035:18037   */\n      0x20\n        /* \"#utility.yul\":18027:18033   */\n      dup3\n        /* \"#utility.yul\":18023:18038   */\n      add\n        /* \"#utility.yul\":18016:18065   */\n      mstore\n        /* \"#utility.yul\":17831:18072   */\n      pop\n      jump\t// out\n        /* \"#utility.yul\":18078:18444   */\n    tag_258:\n        /* \"#utility.yul\":18220:18223   */\n      0x00\n        /* \"#utility.yul\":18241:18308   */\n      tag_434\n        /* \"#utility.yul\":18305:18307   */\n      0x36\n        /* \"#utility.yul\":18300:18303   */\n      dup4\n        /* \"#utility.yul\":18241:18308   */\n      tag_234\n      jump\t// in\n    tag_434:\n        /* \"#utility.yul\":18234:18308   */\n      swap2\n      pop\n        /* \"#utility.yul\":18317:18410   */\n      tag_435\n        /* \"#utility.yul\":18406:18409   */\n      dup3\n        /* \"#utility.yul\":18317:18410   */\n      tag_257\n      jump\t// in\n    tag_435:\n        /* \"#utility.yul\":18435:18437   */\n      0x40\n        /* \"#utility.yul\":18430:18433   */\n      dup3\n        /* \"#utility.yul\":18426:18438   */\n      add\n        /* \"#utility.yul\":18419:18438   */\n      swap1\n      pop\n        /* \"#utility.yul\":18078:18444   */\n      swap2\n      swap1\n      pop\n      jump\t// out\n        /* \"#utility.yul\":18450:18869   */\n    tag_154:\n        /* \"#utility.yul\":18616:18620   */\n      0x00\n        /* \"#utility.yul\":18654:18656   */\n      0x20\n        /* \"#utility.yul\":18643:18652   */\n      dup3\n        /* \"#utility.yul\":18639:18657   */\n      add\n        /* \"#utility.yul\":18631:18657   */\n      swap1\n      pop\n        /* \"#utility.yul\":18703:18712   */\n      dup2\n        /* \"#utility.yul\":18697:18701   */\n      dup2\n        /* \"#utility.yul\":18693:18713   */\n      sub\n        /* \"#utility.yul\":18689:18690   */\n      0x00\n        /* \"#utility.yul\":18678:18687   */\n      dup4\n        /* \"#utility.yul\":18674:18691   */\n      add\n        /* \"#utility.yul\":18667:18714   */\n      mstore\n        /* \"#utility.yul\":18731:18862   */\n      tag_437\n        /* \"#utility.yul\":18857:18861   */\n      dup2\n        /* \"#utility.yul\":18731:18862   */\n      tag_258\n      jump\t// in\n    tag_437:\n        /* \"#utility.yul\":18723:18862   */\n      swap1\n      pop\n        /* \"#utility.yul\":18450:18869   */\n      swap2\n      swap1\n      pop\n      jump\t// out\n        /* \"#utility.yul\":18875:19018   */\n    tag_259:\n        /* \"#utility.yul\":18932:18937   */\n      0x00\n        /* \"#utility.yul\":18963:18969   */\n      dup2\n        /* \"#utility.yul\":18957:18970   */\n      mload\n        /* \"#utility.yul\":18948:18970   */\n      swap1\n      pop\n        /* \"#utility.yul\":18979:19012   */\n      tag_439\n        /* \"#utility.yul\":19006:19011   */\n      dup2\n        /* \"#utility.yul\":18979:19012   */\n      tag_223\n      jump\t// in\n    tag_439:\n        /* \"#utility.yul\":18875:19018   */\n      swap3\n      swap2\n      pop\n      pop\n      jump\t// out\n        /* \"#utility.yul\":19024:19375   */\n    tag_159:\n        /* \"#utility.yul\":19094:19100   */\n      0x00\n        /* \"#utility.yul\":19143:19145   */\n      0x20\n        /* \"#utility.yul\":19131:19140   */\n      dup3\n        /* \"#utility.yul\":19122:19129   */\n      dup5\n        /* \"#utility.yul\":19118:19141   */\n      sub\n        /* \"#utility.yul\":19114:19146   */\n      slt\n        /* \"#utility.yul\":19111:19230   */\n      iszero\n      tag_441\n      jumpi\n        /* \"#utility.yul\":19149:19228   */\n      tag_442\n      tag_207\n      jump\t// in\n    tag_442:\n        /* \"#utility.yul\":19111:19230   */\n    tag_441:\n        /* \"#utility.yul\":19269:19270   */\n      0x00\n        /* \"#utility.yul\":19294:19358   */\n      tag_443\n        /* \"#utility.yul\":19350:19357   */\n      dup5\n        /* \"#utility.yul\":19341:19347   */\n      dup3\n        /* \"#utility.yul\":19330:19339   */\n      dup6\n        /* \"#utility.yul\":19326:19348   */\n      add\n        /* \"#utility.yul\":19294:19358   */\n      tag_259\n      jump\t// in\n    tag_443:\n        /* \"#utility.yul\":19284:19358   */\n      swap2\n      pop\n        /* \"#utility.yul\":19240:19368   */\n      pop\n        /* \"#utility.yul\":19024:19375   */\n      swap3\n      swap2\n      pop\n      pop\n      jump\t// out\n        /* \"#utility.yul\":19381:19558   */\n    tag_260:\n        /* \"#utility.yul\":19521:19550   */\n      0x4e6f7420656e6f75676820746f6b656e7320666f72207374616b650000000000\n        /* \"#utility.yul\":19517:19518   */\n      0x00\n        /* \"#utility.yul\":19509:19515   */\n      dup3\n        /* \"#utility.yul\":19505:19519   */\n      add\n        /* \"#utility.yul\":19498:19551   */\n      mstore\n        /* \"#utility.yul\":19381:19558   */\n      pop\n      jump\t// out\n        /* \"#utility.yul\":19564:19930   */\n    tag_261:\n        /* \"#utility.yul\":19706:19709   */\n      0x00\n        /* \"#utility.yul\":19727:19794   */\n      tag_446\n        /* \"#utility.yul\":19791:19793   */\n      0x1b\n        /* \"#utility.yul\":19786:19789   */\n      dup4\n        /* \"#utility.yul\":19727:19794   */\n      tag_234\n      jump\t// in\n    tag_446:\n        /* \"#utility.yul\":19720:19794   */\n      swap2\n      pop\n        /* \"#utility.yul\":19803:19896   */\n      tag_447\n        /* \"#utility.yul\":19892:19895   */\n      dup3\n        /* \"#utility.yul\":19803:19896   */\n      tag_260\n      jump\t// in\n    tag_447:\n        /* \"#utility.yul\":19921:19923   */\n      0x20\n        /* \"#utility.yul\":19916:19919   */\n      dup3\n        /* \"#utility.yul\":19912:19924   */\n      add\n        /* \"#utility.yul\":19905:19924   */\n      swap1\n      pop\n        /* \"#utility.yul\":19564:19930   */\n      swap2\n      swap1\n      pop\n      jump\t// out\n        /* \"#utility.yul\":19936:20355   */\n    tag_162:\n        /* \"#utility.yul\":20102:20106   */\n      0x00\n        /* \"#utility.yul\":20140:20142   */\n      0x20\n        /* \"#utility.yul\":20129:20138   */\n      dup3\n        /* \"#utility.yul\":20125:20143   */\n      add\n        /* \"#utility.yul\":20117:20143   */\n      swap1\n      pop\n        /* \"#utility.yul\":20189:20198   */\n      dup2\n        /* \"#utility.yul\":20183:20187   */\n      dup2\n        /* \"#utility.yul\":20179:20199   */\n      sub\n        /* \"#utility.yul\":20175:20176   */\n      0x00\n        /* \"#utility.yul\":20164:20173   */\n      dup4\n        /* \"#utility.yul\":20160:20177   */\n      add\n        /* \"#utility.yul\":20153:20200   */\n      mstore\n        /* \"#utility.yul\":20217:20348   */\n      tag_449\n        /* \"#utility.yul\":20343:20347   */\n      dup2\n        /* \"#utility.yul\":20217:20348   */\n      tag_261\n      jump\t// in\n    tag_449:\n        /* \"#utility.yul\":20209:20348   */\n      swap1\n      pop\n        /* \"#utility.yul\":19936:20355   */\n      swap2\n      swap1\n      pop\n      jump\t// out\n        /* \"#utility.yul\":20361:20803   */\n    tag_164:\n        /* \"#utility.yul\":20510:20514   */\n      0x00\n        /* \"#utility.yul\":20548:20550   */\n      0x60\n        /* \"#utility.yul\":20537:20546   */\n      dup3\n        /* \"#utility.yul\":20533:20551   */\n      add\n        /* \"#utility.yul\":20525:20551   */\n      swap1\n      pop\n        /* \"#utility.yul\":20561:20632   */\n      tag_451\n        /* \"#utility.yul\":20629:20630   */\n      0x00\n        /* \"#utility.yul\":20618:20627   */\n      dup4\n        /* \"#utility.yul\":20614:20631   */\n      add\n        /* \"#utility.yul\":20605:20611   */\n      dup7\n        /* \"#utility.yul\":20561:20632   */\n      tag_230\n      jump\t// in\n    tag_451:\n        /* \"#utility.yul\":20642:20714   */\n      tag_452\n        /* \"#utility.yul\":20710:20712   */\n      0x20\n        /* \"#utility.yul\":20699:20708   */\n      dup4\n        /* \"#utility.yul\":20695:20713   */\n      add\n        /* \"#utility.yul\":20686:20692   */\n      dup6\n        /* \"#utility.yul\":20642:20714   */\n      tag_230\n      jump\t// in\n    tag_452:\n        /* \"#utility.yul\":20724:20796   */\n      tag_453\n        /* \"#utility.yul\":20792:20794   */\n      0x40\n        /* \"#utility.yul\":20781:20790   */\n      dup4\n        /* \"#utility.yul\":20777:20795   */\n      add\n        /* \"#utility.yul\":20768:20774   */\n      dup5\n        /* \"#utility.yul\":20724:20796   */\n      tag_205\n      jump\t// in\n    tag_453:\n        /* \"#utility.yul\":20361:20803   */\n      swap5\n      swap4\n      pop\n      pop\n      pop\n      pop\n      jump\t// out\n        /* \"#utility.yul\":20809:20980   */\n    tag_262:\n        /* \"#utility.yul\":20949:20972   */\n      0x4661696c656420746f207374616b6520746f6b656e0000000000000000000000\n        /* \"#utility.yul\":20945:20946   */\n      0x00\n        /* \"#utility.yul\":20937:20943   */\n      dup3\n        /* \"#utility.yul\":20933:20947   */\n      add\n        /* \"#utility.yul\":20926:20973   */\n      mstore\n        /* \"#utility.yul\":20809:20980   */\n      pop\n      jump\t// out\n        /* \"#utility.yul\":20986:21352   */\n    tag_263:\n        /* \"#utility.yul\":21128:21131   */\n      0x00\n        /* \"#utility.yul\":21149:21216   */\n      tag_456\n        /* \"#utility.yul\":21213:21215   */\n      0x15\n        /* \"#utility.yul\":21208:21211   */\n      dup4\n        /* \"#utility.yul\":21149:21216   */\n      tag_234\n      jump\t// in\n    tag_456:\n        /* \"#utility.yul\":21142:21216   */\n      swap2\n      pop\n        /* \"#utility.yul\":21225:21318   */\n      tag_457\n        /* \"#utility.yul\":21314:21317   */\n      dup3\n        /* \"#utility.yul\":21225:21318   */\n      tag_262\n      jump\t// in\n    tag_457:\n        /* \"#utility.yul\":21343:21345   */\n      0x20\n        /* \"#utility.yul\":21338:21341   */\n      dup3\n        /* \"#utility.yul\":21334:21346   */\n      add\n        /* \"#utility.yul\":21327:21346   */\n      swap1\n      pop\n        /* \"#utility.yul\":20986:21352   */\n      swap2\n      swap1\n      pop\n      jump\t// out\n        /* \"#utility.yul\":21358:21777   */\n    tag_170:\n        /* \"#utility.yul\":21524:21528   */\n      0x00\n        /* \"#utility.yul\":21562:21564   */\n      0x20\n        /* \"#utility.yul\":21551:21560   */\n      dup3\n        /* \"#utility.yul\":21547:21565   */\n      add\n        /* \"#utility.yul\":21539:21565   */\n      swap1\n      pop\n        /* \"#utility.yul\":21611:21620   */\n      dup2\n        /* \"#utility.yul\":21605:21609   */\n      dup2\n        /* \"#utility.yul\":21601:21621   */\n      sub\n        /* \"#utility.yul\":21597:21598   */\n      0x00\n        /* \"#utility.yul\":21586:21595   */\n      dup4\n        /* \"#utility.yul\":21582:21599   */\n      add\n        /* \"#utility.yul\":21575:21622   */\n      mstore\n        /* \"#utility.yul\":21639:21770   */\n      tag_459\n        /* \"#utility.yul\":21765:21769   */\n      dup2\n        /* \"#utility.yul\":21639:21770   */\n      tag_263\n      jump\t// in\n    tag_459:\n        /* \"#utility.yul\":21631:21770   */\n      swap1\n      pop\n        /* \"#utility.yul\":21358:21777   */\n      swap2\n      swap1\n      pop\n      jump\t// out\n        /* \"#utility.yul\":21783:21942   */\n    tag_264:\n        /* \"#utility.yul\":21923:21934   */\n      0x7570646174656441740000000000000000000000000000000000000000000000\n        /* \"#utility.yul\":21919:21920   */\n      0x00\n        /* \"#utility.yul\":21911:21917   */\n      dup3\n        /* \"#utility.yul\":21907:21921   */\n      add\n        /* \"#utility.yul\":21900:21935   */\n      mstore\n        /* \"#utility.yul\":21783:21942   */\n      pop\n      jump\t// out\n        /* \"#utility.yul\":21948:22348   */\n    tag_265:\n        /* \"#utility.yul\":22108:22111   */\n      0x00\n        /* \"#utility.yul\":22129:22213   */\n      tag_462\n        /* \"#utility.yul\":22211:22212   */\n      0x09\n        /* \"#utility.yul\":22206:22209   */\n      dup4\n        /* \"#utility.yul\":22129:22213   */\n      tag_231\n      jump\t// in\n    tag_462:\n        /* \"#utility.yul\":22122:22213   */\n      swap2\n      pop\n        /* \"#utility.yul\":22222:22315   */\n      tag_463\n        /* \"#utility.yul\":22311:22314   */\n      dup3\n        /* \"#utility.yul\":22222:22315   */\n      tag_264\n      jump\t// in\n    tag_463:\n        /* \"#utility.yul\":22340:22341   */\n      0x09\n        /* \"#utility.yul\":22335:22338   */\n      dup3\n        /* \"#utility.yul\":22331:22342   */\n      add\n        /* \"#utility.yul\":22324:22342   */\n      swap1\n      pop\n        /* \"#utility.yul\":21948:22348   */\n      swap2\n      swap1\n      pop\n      jump\t// out\n        /* \"#utility.yul\":22354:22735   */\n    tag_176:\n        /* \"#utility.yul\":22539:22542   */\n      0x00\n        /* \"#utility.yul\":22561:22709   */\n      tag_465\n        /* \"#utility.yul\":22705:22708   */\n      dup3\n        /* \"#utility.yul\":22561:22709   */\n      tag_265\n      jump\t// in\n    tag_465:\n        /* \"#utility.yul\":22554:22709   */\n      swap2\n      pop\n        /* \"#utility.yul\":22726:22729   */\n      dup2\n        /* \"#utility.yul\":22719:22729   */\n      swap1\n      pop\n        /* \"#utility.yul\":22354:22735   */\n      swap2\n      swap1\n      pop\n      jump\t// out\n        /* \"#utility.yul\":22741:23151   */\n    tag_192:\n        /* \"#utility.yul\":22781:22788   */\n      0x00\n        /* \"#utility.yul\":22804:22824   */\n      tag_467\n        /* \"#utility.yul\":22822:22823   */\n      dup3\n        /* \"#utility.yul\":22804:22824   */\n      tag_204\n      jump\t// in\n    tag_467:\n        /* \"#utility.yul\":22799:22824   */\n      swap2\n      pop\n        /* \"#utility.yul\":22838:22858   */\n      tag_468\n        /* \"#utility.yul\":22856:22857   */\n      dup4\n        /* \"#utility.yul\":22838:22858   */\n      tag_204\n      jump\t// in\n    tag_468:\n        /* \"#utility.yul\":22833:22858   */\n      swap3\n      pop\n        /* \"#utility.yul\":22893:22894   */\n      dup3\n        /* \"#utility.yul\":22890:22891   */\n      dup3\n        /* \"#utility.yul\":22886:22895   */\n      mul\n        /* \"#utility.yul\":22915:22945   */\n      tag_469\n        /* \"#utility.yul\":22933:22944   */\n      dup2\n        /* \"#utility.yul\":22915:22945   */\n      tag_204\n      jump\t// in\n    tag_469:\n        /* \"#utility.yul\":22904:22945   */\n      swap2\n      pop\n        /* \"#utility.yul\":23094:23095   */\n      dup3\n        /* \"#utility.yul\":23085:23092   */\n      dup3\n        /* \"#utility.yul\":23081:23096   */\n      div\n        /* \"#utility.yul\":23078:23079   */\n      dup5\n        /* \"#utility.yul\":23075:23097   */\n      eq\n        /* \"#utility.yul\":23055:23056   */\n      dup4\n        /* \"#utility.yul\":23048:23057   */\n      iszero\n        /* \"#utility.yul\":23028:23111   */\n      or\n        /* \"#utility.yul\":23005:23144   */\n      tag_470\n      jumpi\n        /* \"#utility.yul\":23124:23142   */\n      tag_471\n      tag_244\n      jump\t// in\n    tag_471:\n        /* \"#utility.yul\":23005:23144   */\n    tag_470:\n        /* \"#utility.yul\":22789:23151   */\n      pop\n        /* \"#utility.yul\":22741:23151   */\n      swap3\n      swap2\n      pop\n      pop\n      jump\t// out\n        /* \"#utility.yul\":23157:23382   */\n    tag_266:\n        /* \"#utility.yul\":23297:23331   */\n      0x63616e277420736574206461746520746f20612070726576696f75732074696d\n        /* \"#utility.yul\":23293:23294   */\n      0x00\n        /* \"#utility.yul\":23285:23291   */\n      dup3\n        /* \"#utility.yul\":23281:23295   */\n      add\n        /* \"#utility.yul\":23274:23332   */\n      mstore\n        /* \"#utility.yul\":23366:23374   */\n      0x657374616d700000000000000000000000000000000000000000000000000000\n        /* \"#utility.yul\":23361:23363   */\n      0x20\n        /* \"#utility.yul\":23353:23359   */\n      dup3\n        /* \"#utility.yul\":23349:23364   */\n      add\n        /* \"#utility.yul\":23342:23375   */\n      mstore\n        /* \"#utility.yul\":23157:23382   */\n      pop\n      jump\t// out\n        /* \"#utility.yul\":23388:23754   */\n    tag_267:\n        /* \"#utility.yul\":23530:23533   */\n      0x00\n        /* \"#utility.yul\":23551:23618   */\n      tag_474\n        /* \"#utility.yul\":23615:23617   */\n      0x26\n        /* \"#utility.yul\":23610:23613   */\n      dup4\n        /* \"#utility.yul\":23551:23618   */\n      tag_234\n      jump\t// in\n    tag_474:\n        /* \"#utility.yul\":23544:23618   */\n      swap2\n      pop\n        /* \"#utility.yul\":23627:23720   */\n      tag_475\n        /* \"#utility.yul\":23716:23719   */\n      dup3\n        /* \"#utility.yul\":23627:23720   */\n      tag_266\n      jump\t// in\n    tag_475:\n        /* \"#utility.yul\":23745:23747   */\n      0x40\n        /* \"#utility.yul\":23740:23743   */\n      dup3\n        /* \"#utility.yul\":23736:23748   */\n      add\n        /* \"#utility.yul\":23729:23748   */\n      swap1\n      pop\n        /* \"#utility.yul\":23388:23754   */\n      swap2\n      swap1\n      pop\n      jump\t// out\n        /* \"#utility.yul\":23760:24179   */\n    tag_197:\n        /* \"#utility.yul\":23926:23930   */\n      0x00\n        /* \"#utility.yul\":23964:23966   */\n      0x20\n        /* \"#utility.yul\":23953:23962   */\n      dup3\n        /* \"#utility.yul\":23949:23967   */\n      add\n        /* \"#utility.yul\":23941:23967   */\n      swap1\n      pop\n        /* \"#utility.yul\":24013:24022   */\n      dup2\n        /* \"#utility.yul\":24007:24011   */\n      dup2\n        /* \"#utility.yul\":24003:24023   */\n      sub\n        /* \"#utility.yul\":23999:24000   */\n      0x00\n        /* \"#utility.yul\":23988:23997   */\n      dup4\n        /* \"#utility.yul\":23984:24001   */\n      add\n        /* \"#utility.yul\":23977:24024   */\n      mstore\n        /* \"#utility.yul\":24041:24172   */\n      tag_477\n        /* \"#utility.yul\":24167:24171   */\n      dup2\n        /* \"#utility.yul\":24041:24172   */\n      tag_267\n      jump\t// in\n    tag_477:\n        /* \"#utility.yul\":24033:24172   */\n      swap1\n      pop\n        /* \"#utility.yul\":23760:24179   */\n      swap2\n      swap1\n      pop\n      jump\t// out\n        /* \"#utility.yul\":24185:24418   */\n    tag_268:\n        /* \"#utility.yul\":24325:24359   */\n      0x736574207265776172642072617465206265666f7265207374617274696e6720\n        /* \"#utility.yul\":24321:24322   */\n      0x00\n        /* \"#utility.yul\":24313:24319   */\n      dup3\n        /* \"#utility.yul\":24309:24323   */\n      add\n        /* \"#utility.yul\":24302:24360   */\n      mstore\n        /* \"#utility.yul\":24394:24410   */\n      0x7374616b696e6720706572696f64000000000000000000000000000000000000\n        /* \"#utility.yul\":24389:24391   */\n      0x20\n        /* \"#utility.yul\":24381:24387   */\n      dup3\n        /* \"#utility.yul\":24377:24392   */\n      add\n        /* \"#utility.yul\":24370:24411   */\n      mstore\n        /* \"#utility.yul\":24185:24418   */\n      pop\n      jump\t// out\n        /* \"#utility.yul\":24424:24790   */\n    tag_269:\n        /* \"#utility.yul\":24566:24569   */\n      0x00\n        /* \"#utility.yul\":24587:24654   */\n      tag_480\n        /* \"#utility.yul\":24651:24653   */\n      0x2e\n        /* \"#utility.yul\":24646:24649   */\n      dup4\n        /* \"#utility.yul\":24587:24654   */\n      tag_234\n      jump\t// in\n    tag_480:\n        /* \"#utility.yul\":24580:24654   */\n      swap2\n      pop\n        /* \"#utility.yul\":24663:24756   */\n      tag_481\n        /* \"#utility.yul\":24752:24755   */\n      dup3\n        /* \"#utility.yul\":24663:24756   */\n      tag_268\n      jump\t// in\n    tag_481:\n        /* \"#utility.yul\":24781:24783   */\n      0x40\n        /* \"#utility.yul\":24776:24779   */\n      dup3\n        /* \"#utility.yul\":24772:24784   */\n      add\n        /* \"#utility.yul\":24765:24784   */\n      swap1\n      pop\n        /* \"#utility.yul\":24424:24790   */\n      swap2\n      swap1\n      pop\n      jump\t// out\n        /* \"#utility.yul\":24796:25215   */\n    tag_200:\n        /* \"#utility.yul\":24962:24966   */\n      0x00\n        /* \"#utility.yul\":25000:25002   */\n      0x20\n        /* \"#utility.yul\":24989:24998   */\n      dup3\n        /* \"#utility.yul\":24985:25003   */\n      add\n        /* \"#utility.yul\":24977:25003   */\n      swap1\n      pop\n        /* \"#utility.yul\":25049:25058   */\n      dup2\n        /* \"#utility.yul\":25043:25047   */\n      dup2\n        /* \"#utility.yul\":25039:25059   */\n      sub\n        /* \"#utility.yul\":25035:25036   */\n      0x00\n        /* \"#utility.yul\":25024:25033   */\n      dup4\n        /* \"#utility.yul\":25020:25037   */\n      add\n        /* \"#utility.yul\":25013:25060   */\n      mstore\n        /* \"#utility.yul\":25077:25208   */\n      tag_483\n        /* \"#utility.yul\":25203:25207   */\n      dup2\n        /* \"#utility.yul\":25077:25208   */\n      tag_269\n      jump\t// in\n    tag_483:\n        /* \"#utility.yul\":25069:25208   */\n      swap1\n      pop\n        /* \"#utility.yul\":24796:25215   */\n      swap2\n      swap1\n      pop\n      jump\t// out\n\n    auxdata: 0xa2646970667358221220bcb27957a713cdbda774d2ce47b9a7b7baa65826b05a2ba557cdaa3e3659633a64736f6c63430008140033\n}\n",
				"bytecode": {
					"linkReferences": {},
					"object": "608060405234801562000010575f80fd5b506040516200200338038062002003833981810160405281019062000036919062000122565b815f806101000a81548173ffffffffffffffffffffffffffffffffffffffff021916908373ffffffffffffffffffffffffffffffffffffffff1602179055508060015f6101000a81548173ffffffffffffffffffffffffffffffffffffffff021916908373ffffffffffffffffffffffffffffffffffffffff160217905550505062000167565b5f80fd5b5f73ffffffffffffffffffffffffffffffffffffffff82169050919050565b5f620000ec82620000c1565b9050919050565b620000fe81620000e0565b811462000109575f80fd5b50565b5f815190506200011c81620000f3565b92915050565b5f80604083850312156200013b576200013a620000bd565b5b5f6200014a858286016200010c565b92505060206200015d858286016200010c565b9150509250929050565b611e8e80620001755f395ff3fe608060405234801561000f575f80fd5b506004361061012a575f3560e01c80637519ab50116100ab578063b69ef8a81161006f578063b69ef8a8146102d6578063cb82cc8f146102f4578063d1af0c7d14610310578063d6f192621461032e578063f6be71d11461034c5761012a565b80637519ab50146102425780638b0e9f3f146102605780638da5cb5b1461027e5780639e447fc61461029c578063ad2e8c9b146102b85761012a565b80634a618297116100f25780634a618297146101b057806350d56aba146101ba578063523a3f08146101ea57806367d3b4881461020657806372f702f3146102245761012a565b80630fb5a6b41461012e578063289ed7381461014c5780632c4e722e14610156578063327bcac5146101745780633e50de3014610192575b5f80fd5b610136610368565b6040516101439190611244565b60405180910390f35b61015461036e565b005b61015e610595565b60405161016b9190611244565b60405180910390f35b61017c61059b565b6040516101899190611244565b60405180910390f35b61019a6105a1565b6040516101a79190611244565b60405180910390f35b6101b8610690565b005b6101d460048036038101906101cf9190611404565b610789565b6040516101e19190611244565b60405180910390f35b61020460048036038101906101ff9190611488565b6107c1565b005b61020e6109d5565b60405161021b9190611244565b60405180910390f35b61022c6109db565b604051610239919061150e565b60405180910390f35b61024a6109fe565b6040516102579190611244565b60405180910390f35b610268610a04565b6040516102759190611244565b60405180910390f35b610286610a0a565b6040516102939190611536565b60405180910390f35b6102b660048036038101906102b19190611488565b610a2f565b005b6102c0610a7d565b6040516102cd9190611244565b60405180910390f35b6102de610a86565b6040516102eb9190611244565b60405180910390f35b61030e60048036038101906103099190611488565b610ae4565b005b610318610fcf565b604051610325919061150e565b60405180910390f35b610336610ff4565b6040516103439190611244565b60405180910390f35b61036660048036038101906103619190611488565b611165565b005b60045481565b5f60085f3373ffffffffffffffffffffffffffffffffffffffff1673ffffffffffffffffffffffffffffffffffffffff1681526020019081526020015f206040516103b8906115a3565b90815260200160405180910390205411610407576040517f08c379a00000000000000000000000000000000000000000000000000000000081526004016103fe90611637565b60405180910390fd5b5f8054906101000a900473ffffffffffffffffffffffffffffffffffffffff1673ffffffffffffffffffffffffffffffffffffffff1663a9059cbb3360085f3373ffffffffffffffffffffffffffffffffffffffff1673ffffffffffffffffffffffffffffffffffffffff1681526020019081526020015f2060405161048c906115a3565b9081526020016040518091039020546040518363ffffffff1660e01b81526004016104b8929190611655565b6020604051808303815f875af11580156104d4573d5f803e3d5ffd5b505050506040513d601f19601f820116820180604052508101906104f891906116b1565b610537576040517f08c379a000000000000000000000000000000000000000000000000000000000815260040161052e90611726565b60405180910390fd5b5f60085f3373ffffffffffffffffffffffffffffffffffffffff1673ffffffffffffffffffffffffffffffffffffffff1681526020019081526020015f20604051610581906115a3565b908152602001604051809103902081905550565b60075481565b60035481565b5f8060085f3373ffffffffffffffffffffffffffffffffffffffff1673ffffffffffffffffffffffffffffffffffffffff1681526020019081526020015f206040516105ec906115a3565b9081526020016040518091039020541161063b576040517f08c379a00000000000000000000000000000000000000000000000000000000081526004016106329061178e565b60405180910390fd5b600a5f3373ffffffffffffffffffffffffffffffffffffffff1673ffffffffffffffffffffffffffffffffffffffff1681526020019081526020015f2054610681610ff4565b61068b91906117d9565b905090565b600160085f3373ffffffffffffffffffffffffffffffffffffffff1673ffffffffffffffffffffffffffffffffffffffff1681526020019081526020015f206040516106db90611856565b9081526020016040518091039020540361072a576040517f08c379a0000000000000000000000000000000000000000000000000000000008152600401610721906118b4565b60405180910390fd5b600160085f3373ffffffffffffffffffffffffffffffffffffffff1673ffffffffffffffffffffffffffffffffffffffff1681526020019081526020015f2060405161077590611856565b908152602001604051809103902081905550565b6008602052815f5260405f20818051602081018201805184825260208301602085012081835280955050505050505f91509150505481565b5f6107ca6105a1565b90505f811180156107da57505f82115b610819576040517f08c379a00000000000000000000000000000000000000000000000000000000081526004016108109061191c565b60405180910390fd5b8160095f3373ffffffffffffffffffffffffffffffffffffffff1673ffffffffffffffffffffffffffffffffffffffff1681526020019081526020015f205482610863919061193a565b116108a3576040517f08c379a000000000000000000000000000000000000000000000000000000000815260040161089a906119dd565b60405180910390fd5b60015f9054906101000a900473ffffffffffffffffffffffffffffffffffffffff1673ffffffffffffffffffffffffffffffffffffffff1663a9059cbb33846040518363ffffffff1660e01b81526004016108ff929190611655565b6020604051808303815f875af115801561091b573d5f803e3d5ffd5b505050506040513d601f19601f8201168201806040525081019061093f91906116b1565b61097e576040517f08c379a000000000000000000000000000000000000000000000000000000000815260040161097590611726565b60405180910390fd5b8160095f3373ffffffffffffffffffffffffffffffffffffffff1673ffffffffffffffffffffffffffffffffffffffff1681526020019081526020015f205f8282546109ca91906117d9565b925050819055505050565b60055481565b5f8054906101000a900473ffffffffffffffffffffffffffffffffffffffff1681565b60065481565b60025481565b600b5f9054906101000a900473ffffffffffffffffffffffffffffffffffffffff1681565b4260055410610a73576040517f08c379a0000000000000000000000000000000000000000000000000000000008152600401610a6a90611a45565b60405180910390fd5b8060078190555050565b5f600454905090565b5f60085f3373ffffffffffffffffffffffffffffffffffffffff1673ffffffffffffffffffffffffffffffffffffffff1681526020019081526020015f20604051610ad0906115a3565b908152602001604051809103902054905090565b5f60045411610b28576040517f08c379a0000000000000000000000000000000000000000000000000000000008152600401610b1f90611aad565b60405180910390fd5b600160085f3373ffffffffffffffffffffffffffffffffffffffff1673ffffffffffffffffffffffffffffffffffffffff1681526020019081526020015f20604051610b7390611856565b90815260200160405180910390205403610bc2576040517f08c379a0000000000000000000000000000000000000000000000000000000008152600401610bb990611b3b565b60405180910390fd5b805f8054906101000a900473ffffffffffffffffffffffffffffffffffffffff1673ffffffffffffffffffffffffffffffffffffffff166370a08231336040518263ffffffff1660e01b8152600401610c1b9190611536565b602060405180830381865afa158015610c36573d5f803e3d5ffd5b505050506040513d601f19601f82011682018060405250810190610c5a9190611b6d565b1015610c9b576040517f08c379a0000000000000000000000000000000000000000000000000000000008152600401610c9290611be2565b60405180910390fd5b5f8054906101000a900473ffffffffffffffffffffffffffffffffffffffff1673ffffffffffffffffffffffffffffffffffffffff166323b872dd3330846040518463ffffffff1660e01b8152600401610cf793929190611c00565b6020604051808303815f875af1158015610d13573d5f803e3d5ffd5b505050506040513d601f19601f82011682018060405250810190610d3791906116b1565b610d76576040517f08c379a0000000000000000000000000000000000000000000000000000000008152600401610d6d90611c7f565b60405180910390fd5b610de08160085f3373ffffffffffffffffffffffffffffffffffffffff1673ffffffffffffffffffffffffffffffffffffffff1681526020019081526020015f20604051610dc3906115a3565b90815260200160405180910390205461121790919063ffffffff16565b60085f3373ffffffffffffffffffffffffffffffffffffffff1673ffffffffffffffffffffffffffffffffffffffff1681526020019081526020015f20604051610e29906115a3565b9081526020016040518091039020819055505f60085f3373ffffffffffffffffffffffffffffffffffffffff1673ffffffffffffffffffffffffffffffffffffffff1681526020019081526020015f20604051610e8590611ce7565b90815260200160405180910390205403610efa574260085f3373ffffffffffffffffffffffffffffffffffffffff1673ffffffffffffffffffffffffffffffffffffffff1681526020019081526020015f20604051610ee390611ce7565b908152602001604051809103902081905550610fb1565b610f02610ff4565b600a5f3373ffffffffffffffffffffffffffffffffffffffff1673ffffffffffffffffffffffffffffffffffffffff1681526020019081526020015f205f828254610f4d91906117d9565b925050819055504260085f3373ffffffffffffffffffffffffffffffffffffffff1673ffffffffffffffffffffffffffffffffffffffff1681526020019081526020015f20604051610f9e90611ce7565b9081526020016040518091039020819055505b610fc68160025461121790919063ffffffff16565b60028190555050565b60015f9054906101000a900473ffffffffffffffffffffffffffffffffffffffff1681565b5f8060085f3373ffffffffffffffffffffffffffffffffffffffff1673ffffffffffffffffffffffffffffffffffffffff1681526020019081526020015f2060405161103f906115a3565b9081526020016040518091039020541161108e576040517f08c379a00000000000000000000000000000000000000000000000000000000081526004016110859061178e565b60405180910390fd5b60085f3373ffffffffffffffffffffffffffffffffffffffff1673ffffffffffffffffffffffffffffffffffffffff1681526020019081526020015f206040516110d790611ce7565b908152602001604051809103902054426110f1919061193a565b60075460085f3373ffffffffffffffffffffffffffffffffffffffff1673ffffffffffffffffffffffffffffffffffffffff1681526020019081526020015f2060405161113d906115a3565b9081526020016040518091039020546111569190611cfb565b6111609190611cfb565b905090565b42600554106111a9576040517f08c379a00000000000000000000000000000000000000000000000000000000081526004016111a090611dac565b60405180910390fd5b5f600754116111ed576040517f08c379a00000000000000000000000000000000000000000000000000000000081526004016111e490611e3a565b60405180910390fd5b80600481905550611207428261121790919063ffffffff16565b6005819055504260068190555050565b5f818361122491906117d9565b905092915050565b5f819050919050565b61123e8161122c565b82525050565b5f6020820190506112575f830184611235565b92915050565b5f604051905090565b5f80fd5b5f80fd5b5f73ffffffffffffffffffffffffffffffffffffffff82169050919050565b5f6112978261126e565b9050919050565b6112a78161128d565b81146112b1575f80fd5b50565b5f813590506112c28161129e565b92915050565b5f80fd5b5f80fd5b5f601f19601f8301169050919050565b7f4e487b71000000000000000000000000000000000000000000000000000000005f52604160045260245ffd5b611316826112d0565b810181811067ffffffffffffffff82111715611335576113346112e0565b5b80604052505050565b5f61134761125d565b9050611353828261130d565b919050565b5f67ffffffffffffffff821115611372576113716112e0565b5b61137b826112d0565b9050602081019050919050565b828183375f83830152505050565b5f6113a86113a384611358565b61133e565b9050828152602081018484840111156113c4576113c36112cc565b5b6113cf848285611388565b509392505050565b5f82601f8301126113eb576113ea6112c8565b5b81356113fb848260208601611396565b91505092915050565b5f806040838503121561141a57611419611266565b5b5f611427858286016112b4565b925050602083013567ffffffffffffffff8111156114485761144761126a565b5b611454858286016113d7565b9150509250929050565b6114678161122c565b8114611471575f80fd5b50565b5f813590506114828161145e565b92915050565b5f6020828403121561149d5761149c611266565b5b5f6114aa84828501611474565b91505092915050565b5f819050919050565b5f6114d66114d16114cc8461126e565b6114b3565b61126e565b9050919050565b5f6114e7826114bc565b9050919050565b5f6114f8826114dd565b9050919050565b611508816114ee565b82525050565b5f6020820190506115215f8301846114ff565b92915050565b6115308161128d565b82525050565b5f6020820190506115495f830184611527565b92915050565b5f81905092915050565b7f616d6f756e7400000000000000000000000000000000000000000000000000005f82015250565b5f61158d60068361154f565b915061159882611559565b600682019050919050565b5f6115ad82611581565b9150819050919050565b5f82825260208201905092915050565b7f5573657220646f6573206e6f742068617665207374616b657320696e207468695f8201527f7320706f6f6c0000000000000000000000000000000000000000000000000000602082015250565b5f6116216026836115b7565b915061162c826115c7565b604082019050919050565b5f6020820190508181035f83015261164e81611615565b9050919050565b5f6040820190506116685f830185611527565b6116756020830184611235565b9392505050565b5f8115159050919050565b6116908161167c565b811461169a575f80fd5b50565b5f815190506116ab81611687565b92915050565b5f602082840312156116c6576116c5611266565b5b5f6116d38482850161169d565b91505092915050565b7f4661696c656420746f207472616e7366657220746f6b656e73000000000000005f82015250565b5f6117106019836115b7565b915061171b826116dc565b602082019050919050565b5f6020820190508181035f83015261173d81611704565b9050919050565b7f596f752068617665206e6f74207374616b656420616e7920746f6b656e7300005f82015250565b5f611778601e836115b7565b915061178382611744565b602082019050919050565b5f6020820190508181035f8301526117a58161176c565b9050919050565b7f4e487b71000000000000000000000000000000000000000000000000000000005f52601160045260245ffd5b5f6117e38261122c565b91506117ee8361122c565b9250828201905080821115611806576118056117ac565b5b92915050565b7f6c6f636b5374616b6573000000000000000000000000000000000000000000005f82015250565b5f611840600a8361154f565b915061184b8261180c565b600a82019050919050565b5f61186082611834565b9150819050919050565b7f5374616b65732068617665206265656e206c6f636b65640000000000000000005f82015250565b5f61189e6017836115b7565b91506118a98261186a565b602082019050919050565b5f6020820190508181035f8301526118cb81611892565b9050919050565b7f596f752068617665206e6f74206561726e656420616e792072657761726473005f82015250565b5f611906601f836115b7565b9150611911826118d2565b602082019050919050565b5f6020820190508181035f830152611933816118fa565b9050919050565b5f6119448261122c565b915061194f8361122c565b9250828203905081811115611967576119666117ac565b5b92915050565b7f596f7520646f6e2774206861766520656e6f75676820746f20776974686472615f8201527f7700000000000000000000000000000000000000000000000000000000000000602082015250565b5f6119c76021836115b7565b91506119d28261196d565b604082019050919050565b5f6020820190508181035f8301526119f4816119bb565b9050919050565b7f5374616b696e67207374696c6c20696e2070726f6772657373000000000000005f82015250565b5f611a2f6019836115b7565b9150611a3a826119fb565b602082019050919050565b5f6020820190508181035f830152611a5c81611a23565b9050919050565b7f2e4e6f207374616b696e6720706572696f6420796574000000000000000000005f82015250565b5f611a976016836115b7565b9150611aa282611a63565b602082019050919050565b5f6020820190508181035f830152611ac481611a8b565b9050919050565b7f5468697320757365722063616e6e6f206c6f6e676572206465706f73697420665f8201527f6f722074686973207374616b696e6720706572696f6400000000000000000000602082015250565b5f611b256036836115b7565b9150611b3082611acb565b604082019050919050565b5f6020820190508181035f830152611b5281611b19565b9050919050565b5f81519050611b678161145e565b92915050565b5f60208284031215611b8257611b81611266565b5b5f611b8f84828501611b59565b91505092915050565b7f4e6f7420656e6f75676820746f6b656e7320666f72207374616b6500000000005f82015250565b5f611bcc601b836115b7565b9150611bd782611b98565b602082019050919050565b5f6020820190508181035f830152611bf981611bc0565b9050919050565b5f606082019050611c135f830186611527565b611c206020830185611527565b611c2d6040830184611235565b949350505050565b7f4661696c656420746f207374616b6520746f6b656e00000000000000000000005f82015250565b5f611c696015836115b7565b9150611c7482611c35565b602082019050919050565b5f6020820190508181035f830152611c9681611c5d565b9050919050565b7f75706461746564417400000000000000000000000000000000000000000000005f82015250565b5f611cd160098361154f565b9150611cdc82611c9d565b600982019050919050565b5f611cf182611cc5565b9150819050919050565b5f611d058261122c565b9150611d108361122c565b9250828202611d1e8161122c565b91508282048414831517611d3557611d346117ac565b5b5092915050565b7f63616e277420736574206461746520746f20612070726576696f75732074696d5f8201527f657374616d700000000000000000000000000000000000000000000000000000602082015250565b5f611d966026836115b7565b9150611da182611d3c565b604082019050919050565b5f6020820190508181035f830152611dc381611d8a565b9050919050565b7f736574207265776172642072617465206265666f7265207374617274696e67205f8201527f7374616b696e6720706572696f64000000000000000000000000000000000000602082015250565b5f611e24602e836115b7565b9150611e2f82611dca565b604082019050919050565b5f6020820190508181035f830152611e5181611e18565b905091905056fea2646970667358221220bcb27957a713cdbda774d2ce47b9a7b7baa65826b05a2ba557cdaa3e3659633a64736f6c63430008140033",
					"opcodes": "PUSH1 0x80 PUSH1 0x40 MSTORE CALLVALUE DUP1 ISZERO PUSH3 0x10 JUMPI PUSH0 DUP1 REVERT JUMPDEST POP PUSH1 0x40 MLOAD PUSH3 0x2003 CODESIZE SUB DUP1 PUSH3 0x2003 DUP4 CODECOPY DUP2 DUP2 ADD PUSH1 0x40 MSTORE DUP2 ADD SWAP1 PUSH3 0x36 SWAP2 SWAP1 PUSH3 0x122 JUMP JUMPDEST DUP2 PUSH0 DUP1 PUSH2 0x100 EXP DUP2 SLOAD DUP2 PUSH20 0xFFFFFFFFFFFFFFFFFFFFFFFFFFFFFFFFFFFFFFFF MUL NOT AND SWAP1 DUP4 PUSH20 0xFFFFFFFFFFFFFFFFFFFFFFFFFFFFFFFFFFFFFFFF AND MUL OR SWAP1 SSTORE POP DUP1 PUSH1 0x1 PUSH0 PUSH2 0x100 EXP DUP2 SLOAD DUP2 PUSH20 0xFFFFFFFFFFFFFFFFFFFFFFFFFFFFFFFFFFFFFFFF MUL NOT AND SWAP1 DUP4 PUSH20 0xFFFFFFFFFFFFFFFFFFFFFFFFFFFFFFFFFFFFFFFF AND MUL OR SWAP1 SSTORE POP POP POP PUSH3 0x167 JUMP JUMPDEST PUSH0 DUP1 REVERT JUMPDEST PUSH0 PUSH20 0xFFFFFFFFFFFFFFFFFFFFFFFFFFFFFFFFFFFFFFFF DUP3 AND SWAP1 POP SWAP2 SWAP1 POP JUMP JUMPDEST PUSH0 PUSH3 0xEC DUP3 PUSH3 0xC1 JUMP JUMPDEST SWAP1 POP SWAP2 SWAP1 POP JUMP JUMPDEST PUSH3 0xFE DUP2 PUSH3 0xE0 JUMP JUMPDEST DUP2 EQ PUSH3 0x109 JUMPI PUSH0 DUP1 REVERT JUMPDEST POP JUMP JUMPDEST PUSH0 DUP2 MLOAD SWAP1 POP PUSH3 0x11C DUP2 PUSH3 0xF3 JUMP JUMPDEST SWAP3 SWAP2 POP POP JUMP JUMPDEST PUSH0 DUP1 PUSH1 0x40 DUP4 DUP6 SUB SLT ISZERO PUSH3 0x13B JUMPI PUSH3 0x13A PUSH3 0xBD JUMP JUMPDEST JUMPDEST PUSH0 PUSH3 0x14A DUP6 DUP3 DUP7 ADD PUSH3 0x10C JUMP JUMPDEST SWAP3 POP POP PUSH1 0x20 PUSH3 0x15D DUP6 DUP3 DUP7 ADD PUSH3 0x10C JUMP JUMPDEST SWAP2 POP POP SWAP3 POP SWAP3 SWAP1 POP JUMP JUMPDEST PUSH2 0x1E8E DUP1 PUSH3 0x175 PUSH0 CODECOPY PUSH0 RETURN INVALID PUSH1 0x80 PUSH1 0x40 MSTORE CALLVALUE DUP1 ISZERO PUSH2 0xF JUMPI PUSH0 DUP1 REVERT JUMPDEST POP PUSH1 0x4 CALLDATASIZE LT PUSH2 0x12A JUMPI PUSH0 CALLDATALOAD PUSH1 0xE0 SHR DUP1 PUSH4 0x7519AB50 GT PUSH2 0xAB JUMPI DUP1 PUSH4 0xB69EF8A8 GT PUSH2 0x6F JUMPI DUP1 PUSH4 0xB69EF8A8 EQ PUSH2 0x2D6 JUMPI DUP1 PUSH4 0xCB82CC8F EQ PUSH2 0x2F4 JUMPI DUP1 PUSH4 0xD1AF0C7D EQ PUSH2 0x310 JUMPI DUP1 PUSH4 0xD6F19262 EQ PUSH2 0x32E JUMPI DUP1 PUSH4 0xF6BE71D1 EQ PUSH2 0x34C JUMPI PUSH2 0x12A JUMP JUMPDEST DUP1 PUSH4 0x7519AB50 EQ PUSH2 0x242 JUMPI DUP1 PUSH4 0x8B0E9F3F EQ PUSH2 0x260 JUMPI DUP1 PUSH4 0x8DA5CB5B EQ PUSH2 0x27E JUMPI DUP1 PUSH4 0x9E447FC6 EQ PUSH2 0x29C JUMPI DUP1 PUSH4 0xAD2E8C9B EQ PUSH2 0x2B8 JUMPI PUSH2 0x12A JUMP JUMPDEST DUP1 PUSH4 0x4A618297 GT PUSH2 0xF2 JUMPI DUP1 PUSH4 0x4A618297 EQ PUSH2 0x1B0 JUMPI DUP1 PUSH4 0x50D56ABA EQ PUSH2 0x1BA JUMPI DUP1 PUSH4 0x523A3F08 EQ PUSH2 0x1EA JUMPI DUP1 PUSH4 0x67D3B488 EQ PUSH2 0x206 JUMPI DUP1 PUSH4 0x72F702F3 EQ PUSH2 0x224 JUMPI PUSH2 0x12A JUMP JUMPDEST DUP1 PUSH4 0xFB5A6B4 EQ PUSH2 0x12E JUMPI DUP1 PUSH4 0x289ED738 EQ PUSH2 0x14C JUMPI DUP1 PUSH4 0x2C4E722E EQ PUSH2 0x156 JUMPI DUP1 PUSH4 0x327BCAC5 EQ PUSH2 0x174 JUMPI DUP1 PUSH4 0x3E50DE30 EQ PUSH2 0x192 JUMPI JUMPDEST PUSH0 DUP1 REVERT JUMPDEST PUSH2 0x136 PUSH2 0x368 JUMP JUMPDEST PUSH1 0x40 MLOAD PUSH2 0x143 SWAP2 SWAP1 PUSH2 0x1244 JUMP JUMPDEST PUSH1 0x40 MLOAD DUP1 SWAP2 SUB SWAP1 RETURN JUMPDEST PUSH2 0x154 PUSH2 0x36E JUMP JUMPDEST STOP JUMPDEST PUSH2 0x15E PUSH2 0x595 JUMP JUMPDEST PUSH1 0x40 MLOAD PUSH2 0x16B SWAP2 SWAP1 PUSH2 0x1244 JUMP JUMPDEST PUSH1 0x40 MLOAD DUP1 SWAP2 SUB SWAP1 RETURN JUMPDEST PUSH2 0x17C PUSH2 0x59B JUMP JUMPDEST PUSH1 0x40 MLOAD PUSH2 0x189 SWAP2 SWAP1 PUSH2 0x1244 JUMP JUMPDEST PUSH1 0x40 MLOAD DUP1 SWAP2 SUB SWAP1 RETURN JUMPDEST PUSH2 0x19A PUSH2 0x5A1 JUMP JUMPDEST PUSH1 0x40 MLOAD PUSH2 0x1A7 SWAP2 SWAP1 PUSH2 0x1244 JUMP JUMPDEST PUSH1 0x40 MLOAD DUP1 SWAP2 SUB SWAP1 RETURN JUMPDEST PUSH2 0x1B8 PUSH2 0x690 JUMP JUMPDEST STOP JUMPDEST PUSH2 0x1D4 PUSH1 0x4 DUP1 CALLDATASIZE SUB DUP2 ADD SWAP1 PUSH2 0x1CF SWAP2 SWAP1 PUSH2 0x1404 JUMP JUMPDEST PUSH2 0x789 JUMP JUMPDEST PUSH1 0x40 MLOAD PUSH2 0x1E1 SWAP2 SWAP1 PUSH2 0x1244 JUMP JUMPDEST PUSH1 0x40 MLOAD DUP1 SWAP2 SUB SWAP1 RETURN JUMPDEST PUSH2 0x204 PUSH1 0x4 DUP1 CALLDATASIZE SUB DUP2 ADD SWAP1 PUSH2 0x1FF SWAP2 SWAP1 PUSH2 0x1488 JUMP JUMPDEST PUSH2 0x7C1 JUMP JUMPDEST STOP JUMPDEST PUSH2 0x20E PUSH2 0x9D5 JUMP JUMPDEST PUSH1 0x40 MLOAD PUSH2 0x21B SWAP2 SWAP1 PUSH2 0x1244 JUMP JUMPDEST PUSH1 0x40 MLOAD DUP1 SWAP2 SUB SWAP1 RETURN JUMPDEST PUSH2 0x22C PUSH2 0x9DB JUMP JUMPDEST PUSH1 0x40 MLOAD PUSH2 0x239 SWAP2 SWAP1 PUSH2 0x150E JUMP JUMPDEST PUSH1 0x40 MLOAD DUP1 SWAP2 SUB SWAP1 RETURN JUMPDEST PUSH2 0x24A PUSH2 0x9FE JUMP JUMPDEST PUSH1 0x40 MLOAD PUSH2 0x257 SWAP2 SWAP1 PUSH2 0x1244 JUMP JUMPDEST PUSH1 0x40 MLOAD DUP1 SWAP2 SUB SWAP1 RETURN JUMPDEST PUSH2 0x268 PUSH2 0xA04 JUMP JUMPDEST PUSH1 0x40 MLOAD PUSH2 0x275 SWAP2 SWAP1 PUSH2 0x1244 JUMP JUMPDEST PUSH1 0x40 MLOAD DUP1 SWAP2 SUB SWAP1 RETURN JUMPDEST PUSH2 0x286 PUSH2 0xA0A JUMP JUMPDEST PUSH1 0x40 MLOAD PUSH2 0x293 SWAP2 SWAP1 PUSH2 0x1536 JUMP JUMPDEST PUSH1 0x40 MLOAD DUP1 SWAP2 SUB SWAP1 RETURN JUMPDEST PUSH2 0x2B6 PUSH1 0x4 DUP1 CALLDATASIZE SUB DUP2 ADD SWAP1 PUSH2 0x2B1 SWAP2 SWAP1 PUSH2 0x1488 JUMP JUMPDEST PUSH2 0xA2F JUMP JUMPDEST STOP JUMPDEST PUSH2 0x2C0 PUSH2 0xA7D JUMP JUMPDEST PUSH1 0x40 MLOAD PUSH2 0x2CD SWAP2 SWAP1 PUSH2 0x1244 JUMP JUMPDEST PUSH1 0x40 MLOAD DUP1 SWAP2 SUB SWAP1 RETURN JUMPDEST PUSH2 0x2DE PUSH2 0xA86 JUMP JUMPDEST PUSH1 0x40 MLOAD PUSH2 0x2EB SWAP2 SWAP1 PUSH2 0x1244 JUMP JUMPDEST PUSH1 0x40 MLOAD DUP1 SWAP2 SUB SWAP1 RETURN JUMPDEST PUSH2 0x30E PUSH1 0x4 DUP1 CALLDATASIZE SUB DUP2 ADD SWAP1 PUSH2 0x309 SWAP2 SWAP1 PUSH2 0x1488 JUMP JUMPDEST PUSH2 0xAE4 JUMP JUMPDEST STOP JUMPDEST PUSH2 0x318 PUSH2 0xFCF JUMP JUMPDEST PUSH1 0x40 MLOAD PUSH2 0x325 SWAP2 SWAP1 PUSH2 0x150E JUMP JUMPDEST PUSH1 0x40 MLOAD DUP1 SWAP2 SUB SWAP1 RETURN JUMPDEST PUSH2 0x336 PUSH2 0xFF4 JUMP JUMPDEST PUSH1 0x40 MLOAD PUSH2 0x343 SWAP2 SWAP1 PUSH2 0x1244 JUMP JUMPDEST PUSH1 0x40 MLOAD DUP1 SWAP2 SUB SWAP1 RETURN JUMPDEST PUSH2 0x366 PUSH1 0x4 DUP1 CALLDATASIZE SUB DUP2 ADD SWAP1 PUSH2 0x361 SWAP2 SWAP1 PUSH2 0x1488 JUMP JUMPDEST PUSH2 0x1165 JUMP JUMPDEST STOP JUMPDEST PUSH1 0x4 SLOAD DUP2 JUMP JUMPDEST PUSH0 PUSH1 0x8 PUSH0 CALLER PUSH20 0xFFFFFFFFFFFFFFFFFFFFFFFFFFFFFFFFFFFFFFFF AND PUSH20 0xFFFFFFFFFFFFFFFFFFFFFFFFFFFFFFFFFFFFFFFF AND DUP2 MSTORE PUSH1 0x20 ADD SWAP1 DUP2 MSTORE PUSH1 0x20 ADD PUSH0 KECCAK256 PUSH1 0x40 MLOAD PUSH2 0x3B8 SWAP1 PUSH2 0x15A3 JUMP JUMPDEST SWAP1 DUP2 MSTORE PUSH1 0x20 ADD PUSH1 0x40 MLOAD DUP1 SWAP2 SUB SWAP1 KECCAK256 SLOAD GT PUSH2 0x407 JUMPI PUSH1 0x40 MLOAD PUSH32 0x8C379A000000000000000000000000000000000000000000000000000000000 DUP2 MSTORE PUSH1 0x4 ADD PUSH2 0x3FE SWAP1 PUSH2 0x1637 JUMP JUMPDEST PUSH1 0x40 MLOAD DUP1 SWAP2 SUB SWAP1 REVERT JUMPDEST PUSH0 DUP1 SLOAD SWAP1 PUSH2 0x100 EXP SWAP1 DIV PUSH20 0xFFFFFFFFFFFFFFFFFFFFFFFFFFFFFFFFFFFFFFFF AND PUSH20 0xFFFFFFFFFFFFFFFFFFFFFFFFFFFFFFFFFFFFFFFF AND PUSH4 0xA9059CBB CALLER PUSH1 0x8 PUSH0 CALLER PUSH20 0xFFFFFFFFFFFFFFFFFFFFFFFFFFFFFFFFFFFFFFFF AND PUSH20 0xFFFFFFFFFFFFFFFFFFFFFFFFFFFFFFFFFFFFFFFF AND DUP2 MSTORE PUSH1 0x20 ADD SWAP1 DUP2 MSTORE PUSH1 0x20 ADD PUSH0 KECCAK256 PUSH1 0x40 MLOAD PUSH2 0x48C SWAP1 PUSH2 0x15A3 JUMP JUMPDEST SWAP1 DUP2 MSTORE PUSH1 0x20 ADD PUSH1 0x40 MLOAD DUP1 SWAP2 SUB SWAP1 KECCAK256 SLOAD PUSH1 0x40 MLOAD DUP4 PUSH4 0xFFFFFFFF AND PUSH1 0xE0 SHL DUP2 MSTORE PUSH1 0x4 ADD PUSH2 0x4B8 SWAP3 SWAP2 SWAP1 PUSH2 0x1655 JUMP JUMPDEST PUSH1 0x20 PUSH1 0x40 MLOAD DUP1 DUP4 SUB DUP2 PUSH0 DUP8 GAS CALL ISZERO DUP1 ISZERO PUSH2 0x4D4 JUMPI RETURNDATASIZE PUSH0 DUP1 RETURNDATACOPY RETURNDATASIZE PUSH0 REVERT JUMPDEST POP POP POP POP PUSH1 0x40 MLOAD RETURNDATASIZE PUSH1 0x1F NOT PUSH1 0x1F DUP3 ADD AND DUP3 ADD DUP1 PUSH1 0x40 MSTORE POP DUP2 ADD SWAP1 PUSH2 0x4F8 SWAP2 SWAP1 PUSH2 0x16B1 JUMP JUMPDEST PUSH2 0x537 JUMPI PUSH1 0x40 MLOAD PUSH32 0x8C379A000000000000000000000000000000000000000000000000000000000 DUP2 MSTORE PUSH1 0x4 ADD PUSH2 0x52E SWAP1 PUSH2 0x1726 JUMP JUMPDEST PUSH1 0x40 MLOAD DUP1 SWAP2 SUB SWAP1 REVERT JUMPDEST PUSH0 PUSH1 0x8 PUSH0 CALLER PUSH20 0xFFFFFFFFFFFFFFFFFFFFFFFFFFFFFFFFFFFFFFFF AND PUSH20 0xFFFFFFFFFFFFFFFFFFFFFFFFFFFFFFFFFFFFFFFF AND DUP2 MSTORE PUSH1 0x20 ADD SWAP1 DUP2 MSTORE PUSH1 0x20 ADD PUSH0 KECCAK256 PUSH1 0x40 MLOAD PUSH2 0x581 SWAP1 PUSH2 0x15A3 JUMP JUMPDEST SWAP1 DUP2 MSTORE PUSH1 0x20 ADD PUSH1 0x40 MLOAD DUP1 SWAP2 SUB SWAP1 KECCAK256 DUP2 SWAP1 SSTORE POP JUMP JUMPDEST PUSH1 0x7 SLOAD DUP2 JUMP JUMPDEST PUSH1 0x3 SLOAD DUP2 JUMP JUMPDEST PUSH0 DUP1 PUSH1 0x8 PUSH0 CALLER PUSH20 0xFFFFFFFFFFFFFFFFFFFFFFFFFFFFFFFFFFFFFFFF AND PUSH20 0xFFFFFFFFFFFFFFFFFFFFFFFFFFFFFFFFFFFFFFFF AND DUP2 MSTORE PUSH1 0x20 ADD SWAP1 DUP2 MSTORE PUSH1 0x20 ADD PUSH0 KECCAK256 PUSH1 0x40 MLOAD PUSH2 0x5EC SWAP1 PUSH2 0x15A3 JUMP JUMPDEST SWAP1 DUP2 MSTORE PUSH1 0x20 ADD PUSH1 0x40 MLOAD DUP1 SWAP2 SUB SWAP1 KECCAK256 SLOAD GT PUSH2 0x63B JUMPI PUSH1 0x40 MLOAD PUSH32 0x8C379A000000000000000000000000000000000000000000000000000000000 DUP2 MSTORE PUSH1 0x4 ADD PUSH2 0x632 SWAP1 PUSH2 0x178E JUMP JUMPDEST PUSH1 0x40 MLOAD DUP1 SWAP2 SUB SWAP1 REVERT JUMPDEST PUSH1 0xA PUSH0 CALLER PUSH20 0xFFFFFFFFFFFFFFFFFFFFFFFFFFFFFFFFFFFFFFFF AND PUSH20 0xFFFFFFFFFFFFFFFFFFFFFFFFFFFFFFFFFFFFFFFF AND DUP2 MSTORE PUSH1 0x20 ADD SWAP1 DUP2 MSTORE PUSH1 0x20 ADD PUSH0 KECCAK256 SLOAD PUSH2 0x681 PUSH2 0xFF4 JUMP JUMPDEST PUSH2 0x68B SWAP2 SWAP1 PUSH2 0x17D9 JUMP JUMPDEST SWAP1 POP SWAP1 JUMP JUMPDEST PUSH1 0x1 PUSH1 0x8 PUSH0 CALLER PUSH20 0xFFFFFFFFFFFFFFFFFFFFFFFFFFFFFFFFFFFFFFFF AND PUSH20 0xFFFFFFFFFFFFFFFFFFFFFFFFFFFFFFFFFFFFFFFF AND DUP2 MSTORE PUSH1 0x20 ADD SWAP1 DUP2 MSTORE PUSH1 0x20 ADD PUSH0 KECCAK256 PUSH1 0x40 MLOAD PUSH2 0x6DB SWAP1 PUSH2 0x1856 JUMP JUMPDEST SWAP1 DUP2 MSTORE PUSH1 0x20 ADD PUSH1 0x40 MLOAD DUP1 SWAP2 SUB SWAP1 KECCAK256 SLOAD SUB PUSH2 0x72A JUMPI PUSH1 0x40 MLOAD PUSH32 0x8C379A000000000000000000000000000000000000000000000000000000000 DUP2 MSTORE PUSH1 0x4 ADD PUSH2 0x721 SWAP1 PUSH2 0x18B4 JUMP JUMPDEST PUSH1 0x40 MLOAD DUP1 SWAP2 SUB SWAP1 REVERT JUMPDEST PUSH1 0x1 PUSH1 0x8 PUSH0 CALLER PUSH20 0xFFFFFFFFFFFFFFFFFFFFFFFFFFFFFFFFFFFFFFFF AND PUSH20 0xFFFFFFFFFFFFFFFFFFFFFFFFFFFFFFFFFFFFFFFF AND DUP2 MSTORE PUSH1 0x20 ADD SWAP1 DUP2 MSTORE PUSH1 0x20 ADD PUSH0 KECCAK256 PUSH1 0x40 MLOAD PUSH2 0x775 SWAP1 PUSH2 0x1856 JUMP JUMPDEST SWAP1 DUP2 MSTORE PUSH1 0x20 ADD PUSH1 0x40 MLOAD DUP1 SWAP2 SUB SWAP1 KECCAK256 DUP2 SWAP1 SSTORE POP JUMP JUMPDEST PUSH1 0x8 PUSH1 0x20 MSTORE DUP2 PUSH0 MSTORE PUSH1 0x40 PUSH0 KECCAK256 DUP2 DUP1 MLOAD PUSH1 0x20 DUP2 ADD DUP3 ADD DUP1 MLOAD DUP5 DUP3 MSTORE PUSH1 0x20 DUP4 ADD PUSH1 0x20 DUP6 ADD KECCAK256 DUP2 DUP4 MSTORE DUP1 SWAP6 POP POP POP POP POP POP PUSH0 SWAP2 POP SWAP2 POP POP SLOAD DUP2 JUMP JUMPDEST PUSH0 PUSH2 0x7CA PUSH2 0x5A1 JUMP JUMPDEST SWAP1 POP PUSH0 DUP2 GT DUP1 ISZERO PUSH2 0x7DA JUMPI POP PUSH0 DUP3 GT JUMPDEST PUSH2 0x819 JUMPI PUSH1 0x40 MLOAD PUSH32 0x8C379A000000000000000000000000000000000000000000000000000000000 DUP2 MSTORE PUSH1 0x4 ADD PUSH2 0x810 SWAP1 PUSH2 0x191C JUMP JUMPDEST PUSH1 0x40 MLOAD DUP1 SWAP2 SUB SWAP1 REVERT JUMPDEST DUP2 PUSH1 0x9 PUSH0 CALLER PUSH20 0xFFFFFFFFFFFFFFFFFFFFFFFFFFFFFFFFFFFFFFFF AND PUSH20 0xFFFFFFFFFFFFFFFFFFFFFFFFFFFFFFFFFFFFFFFF AND DUP2 MSTORE PUSH1 0x20 ADD SWAP1 DUP2 MSTORE PUSH1 0x20 ADD PUSH0 KECCAK256 SLOAD DUP3 PUSH2 0x863 SWAP2 SWAP1 PUSH2 0x193A JUMP JUMPDEST GT PUSH2 0x8A3 JUMPI PUSH1 0x40 MLOAD PUSH32 0x8C379A000000000000000000000000000000000000000000000000000000000 DUP2 MSTORE PUSH1 0x4 ADD PUSH2 0x89A SWAP1 PUSH2 0x19DD JUMP JUMPDEST PUSH1 0x40 MLOAD DUP1 SWAP2 SUB SWAP1 REVERT JUMPDEST PUSH1 0x1 PUSH0 SWAP1 SLOAD SWAP1 PUSH2 0x100 EXP SWAP1 DIV PUSH20 0xFFFFFFFFFFFFFFFFFFFFFFFFFFFFFFFFFFFFFFFF AND PUSH20 0xFFFFFFFFFFFFFFFFFFFFFFFFFFFFFFFFFFFFFFFF AND PUSH4 0xA9059CBB CALLER DUP5 PUSH1 0x40 MLOAD DUP4 PUSH4 0xFFFFFFFF AND PUSH1 0xE0 SHL DUP2 MSTORE PUSH1 0x4 ADD PUSH2 0x8FF SWAP3 SWAP2 SWAP1 PUSH2 0x1655 JUMP JUMPDEST PUSH1 0x20 PUSH1 0x40 MLOAD DUP1 DUP4 SUB DUP2 PUSH0 DUP8 GAS CALL ISZERO DUP1 ISZERO PUSH2 0x91B JUMPI RETURNDATASIZE PUSH0 DUP1 RETURNDATACOPY RETURNDATASIZE PUSH0 REVERT JUMPDEST POP POP POP POP PUSH1 0x40 MLOAD RETURNDATASIZE PUSH1 0x1F NOT PUSH1 0x1F DUP3 ADD AND DUP3 ADD DUP1 PUSH1 0x40 MSTORE POP DUP2 ADD SWAP1 PUSH2 0x93F SWAP2 SWAP1 PUSH2 0x16B1 JUMP JUMPDEST PUSH2 0x97E JUMPI PUSH1 0x40 MLOAD PUSH32 0x8C379A000000000000000000000000000000000000000000000000000000000 DUP2 MSTORE PUSH1 0x4 ADD PUSH2 0x975 SWAP1 PUSH2 0x1726 JUMP JUMPDEST PUSH1 0x40 MLOAD DUP1 SWAP2 SUB SWAP1 REVERT JUMPDEST DUP2 PUSH1 0x9 PUSH0 CALLER PUSH20 0xFFFFFFFFFFFFFFFFFFFFFFFFFFFFFFFFFFFFFFFF AND PUSH20 0xFFFFFFFFFFFFFFFFFFFFFFFFFFFFFFFFFFFFFFFF AND DUP2 MSTORE PUSH1 0x20 ADD SWAP1 DUP2 MSTORE PUSH1 0x20 ADD PUSH0 KECCAK256 PUSH0 DUP3 DUP3 SLOAD PUSH2 0x9CA SWAP2 SWAP1 PUSH2 0x17D9 JUMP JUMPDEST SWAP3 POP POP DUP2 SWAP1 SSTORE POP POP POP JUMP JUMPDEST PUSH1 0x5 SLOAD DUP2 JUMP JUMPDEST PUSH0 DUP1 SLOAD SWAP1 PUSH2 0x100 EXP SWAP1 DIV PUSH20 0xFFFFFFFFFFFFFFFFFFFFFFFFFFFFFFFFFFFFFFFF AND DUP2 JUMP JUMPDEST PUSH1 0x6 SLOAD DUP2 JUMP JUMPDEST PUSH1 0x2 SLOAD DUP2 JUMP JUMPDEST PUSH1 0xB PUSH0 SWAP1 SLOAD SWAP1 PUSH2 0x100 EXP SWAP1 DIV PUSH20 0xFFFFFFFFFFFFFFFFFFFFFFFFFFFFFFFFFFFFFFFF AND DUP2 JUMP JUMPDEST TIMESTAMP PUSH1 0x5 SLOAD LT PUSH2 0xA73 JUMPI PUSH1 0x40 MLOAD PUSH32 0x8C379A000000000000000000000000000000000000000000000000000000000 DUP2 MSTORE PUSH1 0x4 ADD PUSH2 0xA6A SWAP1 PUSH2 0x1A45 JUMP JUMPDEST PUSH1 0x40 MLOAD DUP1 SWAP2 SUB SWAP1 REVERT JUMPDEST DUP1 PUSH1 0x7 DUP2 SWAP1 SSTORE POP POP JUMP JUMPDEST PUSH0 PUSH1 0x4 SLOAD SWAP1 POP SWAP1 JUMP JUMPDEST PUSH0 PUSH1 0x8 PUSH0 CALLER PUSH20 0xFFFFFFFFFFFFFFFFFFFFFFFFFFFFFFFFFFFFFFFF AND PUSH20 0xFFFFFFFFFFFFFFFFFFFFFFFFFFFFFFFFFFFFFFFF AND DUP2 MSTORE PUSH1 0x20 ADD SWAP1 DUP2 MSTORE PUSH1 0x20 ADD PUSH0 KECCAK256 PUSH1 0x40 MLOAD PUSH2 0xAD0 SWAP1 PUSH2 0x15A3 JUMP JUMPDEST SWAP1 DUP2 MSTORE PUSH1 0x20 ADD PUSH1 0x40 MLOAD DUP1 SWAP2 SUB SWAP1 KECCAK256 SLOAD SWAP1 POP SWAP1 JUMP JUMPDEST PUSH0 PUSH1 0x4 SLOAD GT PUSH2 0xB28 JUMPI PUSH1 0x40 MLOAD PUSH32 0x8C379A000000000000000000000000000000000000000000000000000000000 DUP2 MSTORE PUSH1 0x4 ADD PUSH2 0xB1F SWAP1 PUSH2 0x1AAD JUMP JUMPDEST PUSH1 0x40 MLOAD DUP1 SWAP2 SUB SWAP1 REVERT JUMPDEST PUSH1 0x1 PUSH1 0x8 PUSH0 CALLER PUSH20 0xFFFFFFFFFFFFFFFFFFFFFFFFFFFFFFFFFFFFFFFF AND PUSH20 0xFFFFFFFFFFFFFFFFFFFFFFFFFFFFFFFFFFFFFFFF AND DUP2 MSTORE PUSH1 0x20 ADD SWAP1 DUP2 MSTORE PUSH1 0x20 ADD PUSH0 KECCAK256 PUSH1 0x40 MLOAD PUSH2 0xB73 SWAP1 PUSH2 0x1856 JUMP JUMPDEST SWAP1 DUP2 MSTORE PUSH1 0x20 ADD PUSH1 0x40 MLOAD DUP1 SWAP2 SUB SWAP1 KECCAK256 SLOAD SUB PUSH2 0xBC2 JUMPI PUSH1 0x40 MLOAD PUSH32 0x8C379A000000000000000000000000000000000000000000000000000000000 DUP2 MSTORE PUSH1 0x4 ADD PUSH2 0xBB9 SWAP1 PUSH2 0x1B3B JUMP JUMPDEST PUSH1 0x40 MLOAD DUP1 SWAP2 SUB SWAP1 REVERT JUMPDEST DUP1 PUSH0 DUP1 SLOAD SWAP1 PUSH2 0x100 EXP SWAP1 DIV PUSH20 0xFFFFFFFFFFFFFFFFFFFFFFFFFFFFFFFFFFFFFFFF AND PUSH20 0xFFFFFFFFFFFFFFFFFFFFFFFFFFFFFFFFFFFFFFFF AND PUSH4 0x70A08231 CALLER PUSH1 0x40 MLOAD DUP3 PUSH4 0xFFFFFFFF AND PUSH1 0xE0 SHL DUP2 MSTORE PUSH1 0x4 ADD PUSH2 0xC1B SWAP2 SWAP1 PUSH2 0x1536 JUMP JUMPDEST PUSH1 0x20 PUSH1 0x40 MLOAD DUP1 DUP4 SUB DUP2 DUP7 GAS STATICCALL ISZERO DUP1 ISZERO PUSH2 0xC36 JUMPI RETURNDATASIZE PUSH0 DUP1 RETURNDATACOPY RETURNDATASIZE PUSH0 REVERT JUMPDEST POP POP POP POP PUSH1 0x40 MLOAD RETURNDATASIZE PUSH1 0x1F NOT PUSH1 0x1F DUP3 ADD AND DUP3 ADD DUP1 PUSH1 0x40 MSTORE POP DUP2 ADD SWAP1 PUSH2 0xC5A SWAP2 SWAP1 PUSH2 0x1B6D JUMP JUMPDEST LT ISZERO PUSH2 0xC9B JUMPI PUSH1 0x40 MLOAD PUSH32 0x8C379A000000000000000000000000000000000000000000000000000000000 DUP2 MSTORE PUSH1 0x4 ADD PUSH2 0xC92 SWAP1 PUSH2 0x1BE2 JUMP JUMPDEST PUSH1 0x40 MLOAD DUP1 SWAP2 SUB SWAP1 REVERT JUMPDEST PUSH0 DUP1 SLOAD SWAP1 PUSH2 0x100 EXP SWAP1 DIV PUSH20 0xFFFFFFFFFFFFFFFFFFFFFFFFFFFFFFFFFFFFFFFF AND PUSH20 0xFFFFFFFFFFFFFFFFFFFFFFFFFFFFFFFFFFFFFFFF AND PUSH4 0x23B872DD CALLER ADDRESS DUP5 PUSH1 0x40 MLOAD DUP5 PUSH4 0xFFFFFFFF AND PUSH1 0xE0 SHL DUP2 MSTORE PUSH1 0x4 ADD PUSH2 0xCF7 SWAP4 SWAP3 SWAP2 SWAP1 PUSH2 0x1C00 JUMP JUMPDEST PUSH1 0x20 PUSH1 0x40 MLOAD DUP1 DUP4 SUB DUP2 PUSH0 DUP8 GAS CALL ISZERO DUP1 ISZERO PUSH2 0xD13 JUMPI RETURNDATASIZE PUSH0 DUP1 RETURNDATACOPY RETURNDATASIZE PUSH0 REVERT JUMPDEST POP POP POP POP PUSH1 0x40 MLOAD RETURNDATASIZE PUSH1 0x1F NOT PUSH1 0x1F DUP3 ADD AND DUP3 ADD DUP1 PUSH1 0x40 MSTORE POP DUP2 ADD SWAP1 PUSH2 0xD37 SWAP2 SWAP1 PUSH2 0x16B1 JUMP JUMPDEST PUSH2 0xD76 JUMPI PUSH1 0x40 MLOAD PUSH32 0x8C379A000000000000000000000000000000000000000000000000000000000 DUP2 MSTORE PUSH1 0x4 ADD PUSH2 0xD6D SWAP1 PUSH2 0x1C7F JUMP JUMPDEST PUSH1 0x40 MLOAD DUP1 SWAP2 SUB SWAP1 REVERT JUMPDEST PUSH2 0xDE0 DUP2 PUSH1 0x8 PUSH0 CALLER PUSH20 0xFFFFFFFFFFFFFFFFFFFFFFFFFFFFFFFFFFFFFFFF AND PUSH20 0xFFFFFFFFFFFFFFFFFFFFFFFFFFFFFFFFFFFFFFFF AND DUP2 MSTORE PUSH1 0x20 ADD SWAP1 DUP2 MSTORE PUSH1 0x20 ADD PUSH0 KECCAK256 PUSH1 0x40 MLOAD PUSH2 0xDC3 SWAP1 PUSH2 0x15A3 JUMP JUMPDEST SWAP1 DUP2 MSTORE PUSH1 0x20 ADD PUSH1 0x40 MLOAD DUP1 SWAP2 SUB SWAP1 KECCAK256 SLOAD PUSH2 0x1217 SWAP1 SWAP2 SWAP1 PUSH4 0xFFFFFFFF AND JUMP JUMPDEST PUSH1 0x8 PUSH0 CALLER PUSH20 0xFFFFFFFFFFFFFFFFFFFFFFFFFFFFFFFFFFFFFFFF AND PUSH20 0xFFFFFFFFFFFFFFFFFFFFFFFFFFFFFFFFFFFFFFFF AND DUP2 MSTORE PUSH1 0x20 ADD SWAP1 DUP2 MSTORE PUSH1 0x20 ADD PUSH0 KECCAK256 PUSH1 0x40 MLOAD PUSH2 0xE29 SWAP1 PUSH2 0x15A3 JUMP JUMPDEST SWAP1 DUP2 MSTORE PUSH1 0x20 ADD PUSH1 0x40 MLOAD DUP1 SWAP2 SUB SWAP1 KECCAK256 DUP2 SWAP1 SSTORE POP PUSH0 PUSH1 0x8 PUSH0 CALLER PUSH20 0xFFFFFFFFFFFFFFFFFFFFFFFFFFFFFFFFFFFFFFFF AND PUSH20 0xFFFFFFFFFFFFFFFFFFFFFFFFFFFFFFFFFFFFFFFF AND DUP2 MSTORE PUSH1 0x20 ADD SWAP1 DUP2 MSTORE PUSH1 0x20 ADD PUSH0 KECCAK256 PUSH1 0x40 MLOAD PUSH2 0xE85 SWAP1 PUSH2 0x1CE7 JUMP JUMPDEST SWAP1 DUP2 MSTORE PUSH1 0x20 ADD PUSH1 0x40 MLOAD DUP1 SWAP2 SUB SWAP1 KECCAK256 SLOAD SUB PUSH2 0xEFA JUMPI TIMESTAMP PUSH1 0x8 PUSH0 CALLER PUSH20 0xFFFFFFFFFFFFFFFFFFFFFFFFFFFFFFFFFFFFFFFF AND PUSH20 0xFFFFFFFFFFFFFFFFFFFFFFFFFFFFFFFFFFFFFFFF AND DUP2 MSTORE PUSH1 0x20 ADD SWAP1 DUP2 MSTORE PUSH1 0x20 ADD PUSH0 KECCAK256 PUSH1 0x40 MLOAD PUSH2 0xEE3 SWAP1 PUSH2 0x1CE7 JUMP JUMPDEST SWAP1 DUP2 MSTORE PUSH1 0x20 ADD PUSH1 0x40 MLOAD DUP1 SWAP2 SUB SWAP1 KECCAK256 DUP2 SWAP1 SSTORE POP PUSH2 0xFB1 JUMP JUMPDEST PUSH2 0xF02 PUSH2 0xFF4 JUMP JUMPDEST PUSH1 0xA PUSH0 CALLER PUSH20 0xFFFFFFFFFFFFFFFFFFFFFFFFFFFFFFFFFFFFFFFF AND PUSH20 0xFFFFFFFFFFFFFFFFFFFFFFFFFFFFFFFFFFFFFFFF AND DUP2 MSTORE PUSH1 0x20 ADD SWAP1 DUP2 MSTORE PUSH1 0x20 ADD PUSH0 KECCAK256 PUSH0 DUP3 DUP3 SLOAD PUSH2 0xF4D SWAP2 SWAP1 PUSH2 0x17D9 JUMP JUMPDEST SWAP3 POP POP DUP2 SWAP1 SSTORE POP TIMESTAMP PUSH1 0x8 PUSH0 CALLER PUSH20 0xFFFFFFFFFFFFFFFFFFFFFFFFFFFFFFFFFFFFFFFF AND PUSH20 0xFFFFFFFFFFFFFFFFFFFFFFFFFFFFFFFFFFFFFFFF AND DUP2 MSTORE PUSH1 0x20 ADD SWAP1 DUP2 MSTORE PUSH1 0x20 ADD PUSH0 KECCAK256 PUSH1 0x40 MLOAD PUSH2 0xF9E SWAP1 PUSH2 0x1CE7 JUMP JUMPDEST SWAP1 DUP2 MSTORE PUSH1 0x20 ADD PUSH1 0x40 MLOAD DUP1 SWAP2 SUB SWAP1 KECCAK256 DUP2 SWAP1 SSTORE POP JUMPDEST PUSH2 0xFC6 DUP2 PUSH1 0x2 SLOAD PUSH2 0x1217 SWAP1 SWAP2 SWAP1 PUSH4 0xFFFFFFFF AND JUMP JUMPDEST PUSH1 0x2 DUP2 SWAP1 SSTORE POP POP JUMP JUMPDEST PUSH1 0x1 PUSH0 SWAP1 SLOAD SWAP1 PUSH2 0x100 EXP SWAP1 DIV PUSH20 0xFFFFFFFFFFFFFFFFFFFFFFFFFFFFFFFFFFFFFFFF AND DUP2 JUMP JUMPDEST PUSH0 DUP1 PUSH1 0x8 PUSH0 CALLER PUSH20 0xFFFFFFFFFFFFFFFFFFFFFFFFFFFFFFFFFFFFFFFF AND PUSH20 0xFFFFFFFFFFFFFFFFFFFFFFFFFFFFFFFFFFFFFFFF AND DUP2 MSTORE PUSH1 0x20 ADD SWAP1 DUP2 MSTORE PUSH1 0x20 ADD PUSH0 KECCAK256 PUSH1 0x40 MLOAD PUSH2 0x103F SWAP1 PUSH2 0x15A3 JUMP JUMPDEST SWAP1 DUP2 MSTORE PUSH1 0x20 ADD PUSH1 0x40 MLOAD DUP1 SWAP2 SUB SWAP1 KECCAK256 SLOAD GT PUSH2 0x108E JUMPI PUSH1 0x40 MLOAD PUSH32 0x8C379A000000000000000000000000000000000000000000000000000000000 DUP2 MSTORE PUSH1 0x4 ADD PUSH2 0x1085 SWAP1 PUSH2 0x178E JUMP JUMPDEST PUSH1 0x40 MLOAD DUP1 SWAP2 SUB SWAP1 REVERT JUMPDEST PUSH1 0x8 PUSH0 CALLER PUSH20 0xFFFFFFFFFFFFFFFFFFFFFFFFFFFFFFFFFFFFFFFF AND PUSH20 0xFFFFFFFFFFFFFFFFFFFFFFFFFFFFFFFFFFFFFFFF AND DUP2 MSTORE PUSH1 0x20 ADD SWAP1 DUP2 MSTORE PUSH1 0x20 ADD PUSH0 KECCAK256 PUSH1 0x40 MLOAD PUSH2 0x10D7 SWAP1 PUSH2 0x1CE7 JUMP JUMPDEST SWAP1 DUP2 MSTORE PUSH1 0x20 ADD PUSH1 0x40 MLOAD DUP1 SWAP2 SUB SWAP1 KECCAK256 SLOAD TIMESTAMP PUSH2 0x10F1 SWAP2 SWAP1 PUSH2 0x193A JUMP JUMPDEST PUSH1 0x7 SLOAD PUSH1 0x8 PUSH0 CALLER PUSH20 0xFFFFFFFFFFFFFFFFFFFFFFFFFFFFFFFFFFFFFFFF AND PUSH20 0xFFFFFFFFFFFFFFFFFFFFFFFFFFFFFFFFFFFFFFFF AND DUP2 MSTORE PUSH1 0x20 ADD SWAP1 DUP2 MSTORE PUSH1 0x20 ADD PUSH0 KECCAK256 PUSH1 0x40 MLOAD PUSH2 0x113D SWAP1 PUSH2 0x15A3 JUMP JUMPDEST SWAP1 DUP2 MSTORE PUSH1 0x20 ADD PUSH1 0x40 MLOAD DUP1 SWAP2 SUB SWAP1 KECCAK256 SLOAD PUSH2 0x1156 SWAP2 SWAP1 PUSH2 0x1CFB JUMP JUMPDEST PUSH2 0x1160 SWAP2 SWAP1 PUSH2 0x1CFB JUMP JUMPDEST SWAP1 POP SWAP1 JUMP JUMPDEST TIMESTAMP PUSH1 0x5 SLOAD LT PUSH2 0x11A9 JUMPI PUSH1 0x40 MLOAD PUSH32 0x8C379A000000000000000000000000000000000000000000000000000000000 DUP2 MSTORE PUSH1 0x4 ADD PUSH2 0x11A0 SWAP1 PUSH2 0x1DAC JUMP JUMPDEST PUSH1 0x40 MLOAD DUP1 SWAP2 SUB SWAP1 REVERT JUMPDEST PUSH0 PUSH1 0x7 SLOAD GT PUSH2 0x11ED JUMPI PUSH1 0x40 MLOAD PUSH32 0x8C379A000000000000000000000000000000000000000000000000000000000 DUP2 MSTORE PUSH1 0x4 ADD PUSH2 0x11E4 SWAP1 PUSH2 0x1E3A JUMP JUMPDEST PUSH1 0x40 MLOAD DUP1 SWAP2 SUB SWAP1 REVERT JUMPDEST DUP1 PUSH1 0x4 DUP2 SWAP1 SSTORE POP PUSH2 0x1207 TIMESTAMP DUP3 PUSH2 0x1217 SWAP1 SWAP2 SWAP1 PUSH4 0xFFFFFFFF AND JUMP JUMPDEST PUSH1 0x5 DUP2 SWAP1 SSTORE POP TIMESTAMP PUSH1 0x6 DUP2 SWAP1 SSTORE POP POP JUMP JUMPDEST PUSH0 DUP2 DUP4 PUSH2 0x1224 SWAP2 SWAP1 PUSH2 0x17D9 JUMP JUMPDEST SWAP1 POP SWAP3 SWAP2 POP POP JUMP JUMPDEST PUSH0 DUP2 SWAP1 POP SWAP2 SWAP1 POP JUMP JUMPDEST PUSH2 0x123E DUP2 PUSH2 0x122C JUMP JUMPDEST DUP3 MSTORE POP POP JUMP JUMPDEST PUSH0 PUSH1 0x20 DUP3 ADD SWAP1 POP PUSH2 0x1257 PUSH0 DUP4 ADD DUP5 PUSH2 0x1235 JUMP JUMPDEST SWAP3 SWAP2 POP POP JUMP JUMPDEST PUSH0 PUSH1 0x40 MLOAD SWAP1 POP SWAP1 JUMP JUMPDEST PUSH0 DUP1 REVERT JUMPDEST PUSH0 DUP1 REVERT JUMPDEST PUSH0 PUSH20 0xFFFFFFFFFFFFFFFFFFFFFFFFFFFFFFFFFFFFFFFF DUP3 AND SWAP1 POP SWAP2 SWAP1 POP JUMP JUMPDEST PUSH0 PUSH2 0x1297 DUP3 PUSH2 0x126E JUMP JUMPDEST SWAP1 POP SWAP2 SWAP1 POP JUMP JUMPDEST PUSH2 0x12A7 DUP2 PUSH2 0x128D JUMP JUMPDEST DUP2 EQ PUSH2 0x12B1 JUMPI PUSH0 DUP1 REVERT JUMPDEST POP JUMP JUMPDEST PUSH0 DUP2 CALLDATALOAD SWAP1 POP PUSH2 0x12C2 DUP2 PUSH2 0x129E JUMP JUMPDEST SWAP3 SWAP2 POP POP JUMP JUMPDEST PUSH0 DUP1 REVERT JUMPDEST PUSH0 DUP1 REVERT JUMPDEST PUSH0 PUSH1 0x1F NOT PUSH1 0x1F DUP4 ADD AND SWAP1 POP SWAP2 SWAP1 POP JUMP JUMPDEST PUSH32 0x4E487B7100000000000000000000000000000000000000000000000000000000 PUSH0 MSTORE PUSH1 0x41 PUSH1 0x4 MSTORE PUSH1 0x24 PUSH0 REVERT JUMPDEST PUSH2 0x1316 DUP3 PUSH2 0x12D0 JUMP JUMPDEST DUP2 ADD DUP2 DUP2 LT PUSH8 0xFFFFFFFFFFFFFFFF DUP3 GT OR ISZERO PUSH2 0x1335 JUMPI PUSH2 0x1334 PUSH2 0x12E0 JUMP JUMPDEST JUMPDEST DUP1 PUSH1 0x40 MSTORE POP POP POP JUMP JUMPDEST PUSH0 PUSH2 0x1347 PUSH2 0x125D JUMP JUMPDEST SWAP1 POP PUSH2 0x1353 DUP3 DUP3 PUSH2 0x130D JUMP JUMPDEST SWAP2 SWAP1 POP JUMP JUMPDEST PUSH0 PUSH8 0xFFFFFFFFFFFFFFFF DUP3 GT ISZERO PUSH2 0x1372 JUMPI PUSH2 0x1371 PUSH2 0x12E0 JUMP JUMPDEST JUMPDEST PUSH2 0x137B DUP3 PUSH2 0x12D0 JUMP JUMPDEST SWAP1 POP PUSH1 0x20 DUP2 ADD SWAP1 POP SWAP2 SWAP1 POP JUMP JUMPDEST DUP3 DUP2 DUP4 CALLDATACOPY PUSH0 DUP4 DUP4 ADD MSTORE POP POP POP JUMP JUMPDEST PUSH0 PUSH2 0x13A8 PUSH2 0x13A3 DUP5 PUSH2 0x1358 JUMP JUMPDEST PUSH2 0x133E JUMP JUMPDEST SWAP1 POP DUP3 DUP2 MSTORE PUSH1 0x20 DUP2 ADD DUP5 DUP5 DUP5 ADD GT ISZERO PUSH2 0x13C4 JUMPI PUSH2 0x13C3 PUSH2 0x12CC JUMP JUMPDEST JUMPDEST PUSH2 0x13CF DUP5 DUP3 DUP6 PUSH2 0x1388 JUMP JUMPDEST POP SWAP4 SWAP3 POP POP POP JUMP JUMPDEST PUSH0 DUP3 PUSH1 0x1F DUP4 ADD SLT PUSH2 0x13EB JUMPI PUSH2 0x13EA PUSH2 0x12C8 JUMP JUMPDEST JUMPDEST DUP2 CALLDATALOAD PUSH2 0x13FB DUP5 DUP3 PUSH1 0x20 DUP7 ADD PUSH2 0x1396 JUMP JUMPDEST SWAP2 POP POP SWAP3 SWAP2 POP POP JUMP JUMPDEST PUSH0 DUP1 PUSH1 0x40 DUP4 DUP6 SUB SLT ISZERO PUSH2 0x141A JUMPI PUSH2 0x1419 PUSH2 0x1266 JUMP JUMPDEST JUMPDEST PUSH0 PUSH2 0x1427 DUP6 DUP3 DUP7 ADD PUSH2 0x12B4 JUMP JUMPDEST SWAP3 POP POP PUSH1 0x20 DUP4 ADD CALLDATALOAD PUSH8 0xFFFFFFFFFFFFFFFF DUP2 GT ISZERO PUSH2 0x1448 JUMPI PUSH2 0x1447 PUSH2 0x126A JUMP JUMPDEST JUMPDEST PUSH2 0x1454 DUP6 DUP3 DUP7 ADD PUSH2 0x13D7 JUMP JUMPDEST SWAP2 POP POP SWAP3 POP SWAP3 SWAP1 POP JUMP JUMPDEST PUSH2 0x1467 DUP2 PUSH2 0x122C JUMP JUMPDEST DUP2 EQ PUSH2 0x1471 JUMPI PUSH0 DUP1 REVERT JUMPDEST POP JUMP JUMPDEST PUSH0 DUP2 CALLDATALOAD SWAP1 POP PUSH2 0x1482 DUP2 PUSH2 0x145E JUMP JUMPDEST SWAP3 SWAP2 POP POP JUMP JUMPDEST PUSH0 PUSH1 0x20 DUP3 DUP5 SUB SLT ISZERO PUSH2 0x149D JUMPI PUSH2 0x149C PUSH2 0x1266 JUMP JUMPDEST JUMPDEST PUSH0 PUSH2 0x14AA DUP5 DUP3 DUP6 ADD PUSH2 0x1474 JUMP JUMPDEST SWAP2 POP POP SWAP3 SWAP2 POP POP JUMP JUMPDEST PUSH0 DUP2 SWAP1 POP SWAP2 SWAP1 POP JUMP JUMPDEST PUSH0 PUSH2 0x14D6 PUSH2 0x14D1 PUSH2 0x14CC DUP5 PUSH2 0x126E JUMP JUMPDEST PUSH2 0x14B3 JUMP JUMPDEST PUSH2 0x126E JUMP JUMPDEST SWAP1 POP SWAP2 SWAP1 POP JUMP JUMPDEST PUSH0 PUSH2 0x14E7 DUP3 PUSH2 0x14BC JUMP JUMPDEST SWAP1 POP SWAP2 SWAP1 POP JUMP JUMPDEST PUSH0 PUSH2 0x14F8 DUP3 PUSH2 0x14DD JUMP JUMPDEST SWAP1 POP SWAP2 SWAP1 POP JUMP JUMPDEST PUSH2 0x1508 DUP2 PUSH2 0x14EE JUMP JUMPDEST DUP3 MSTORE POP POP JUMP JUMPDEST PUSH0 PUSH1 0x20 DUP3 ADD SWAP1 POP PUSH2 0x1521 PUSH0 DUP4 ADD DUP5 PUSH2 0x14FF JUMP JUMPDEST SWAP3 SWAP2 POP POP JUMP JUMPDEST PUSH2 0x1530 DUP2 PUSH2 0x128D JUMP JUMPDEST DUP3 MSTORE POP POP JUMP JUMPDEST PUSH0 PUSH1 0x20 DUP3 ADD SWAP1 POP PUSH2 0x1549 PUSH0 DUP4 ADD DUP5 PUSH2 0x1527 JUMP JUMPDEST SWAP3 SWAP2 POP POP JUMP JUMPDEST PUSH0 DUP2 SWAP1 POP SWAP3 SWAP2 POP POP JUMP JUMPDEST PUSH32 0x616D6F756E740000000000000000000000000000000000000000000000000000 PUSH0 DUP3 ADD MSTORE POP JUMP JUMPDEST PUSH0 PUSH2 0x158D PUSH1 0x6 DUP4 PUSH2 0x154F JUMP JUMPDEST SWAP2 POP PUSH2 0x1598 DUP3 PUSH2 0x1559 JUMP JUMPDEST PUSH1 0x6 DUP3 ADD SWAP1 POP SWAP2 SWAP1 POP JUMP JUMPDEST PUSH0 PUSH2 0x15AD DUP3 PUSH2 0x1581 JUMP JUMPDEST SWAP2 POP DUP2 SWAP1 POP SWAP2 SWAP1 POP JUMP JUMPDEST PUSH0 DUP3 DUP3 MSTORE PUSH1 0x20 DUP3 ADD SWAP1 POP SWAP3 SWAP2 POP POP JUMP JUMPDEST PUSH32 0x5573657220646F6573206E6F742068617665207374616B657320696E20746869 PUSH0 DUP3 ADD MSTORE PUSH32 0x7320706F6F6C0000000000000000000000000000000000000000000000000000 PUSH1 0x20 DUP3 ADD MSTORE POP JUMP JUMPDEST PUSH0 PUSH2 0x1621 PUSH1 0x26 DUP4 PUSH2 0x15B7 JUMP JUMPDEST SWAP2 POP PUSH2 0x162C DUP3 PUSH2 0x15C7 JUMP JUMPDEST PUSH1 0x40 DUP3 ADD SWAP1 POP SWAP2 SWAP1 POP JUMP JUMPDEST PUSH0 PUSH1 0x20 DUP3 ADD SWAP1 POP DUP2 DUP2 SUB PUSH0 DUP4 ADD MSTORE PUSH2 0x164E DUP2 PUSH2 0x1615 JUMP JUMPDEST SWAP1 POP SWAP2 SWAP1 POP JUMP JUMPDEST PUSH0 PUSH1 0x40 DUP3 ADD SWAP1 POP PUSH2 0x1668 PUSH0 DUP4 ADD DUP6 PUSH2 0x1527 JUMP JUMPDEST PUSH2 0x1675 PUSH1 0x20 DUP4 ADD DUP5 PUSH2 0x1235 JUMP JUMPDEST SWAP4 SWAP3 POP POP POP JUMP JUMPDEST PUSH0 DUP2 ISZERO ISZERO SWAP1 POP SWAP2 SWAP1 POP JUMP JUMPDEST PUSH2 0x1690 DUP2 PUSH2 0x167C JUMP JUMPDEST DUP2 EQ PUSH2 0x169A JUMPI PUSH0 DUP1 REVERT JUMPDEST POP JUMP JUMPDEST PUSH0 DUP2 MLOAD SWAP1 POP PUSH2 0x16AB DUP2 PUSH2 0x1687 JUMP JUMPDEST SWAP3 SWAP2 POP POP JUMP JUMPDEST PUSH0 PUSH1 0x20 DUP3 DUP5 SUB SLT ISZERO PUSH2 0x16C6 JUMPI PUSH2 0x16C5 PUSH2 0x1266 JUMP JUMPDEST JUMPDEST PUSH0 PUSH2 0x16D3 DUP5 DUP3 DUP6 ADD PUSH2 0x169D JUMP JUMPDEST SWAP2 POP POP SWAP3 SWAP2 POP POP JUMP JUMPDEST PUSH32 0x4661696C656420746F207472616E7366657220746F6B656E7300000000000000 PUSH0 DUP3 ADD MSTORE POP JUMP JUMPDEST PUSH0 PUSH2 0x1710 PUSH1 0x19 DUP4 PUSH2 0x15B7 JUMP JUMPDEST SWAP2 POP PUSH2 0x171B DUP3 PUSH2 0x16DC JUMP JUMPDEST PUSH1 0x20 DUP3 ADD SWAP1 POP SWAP2 SWAP1 POP JUMP JUMPDEST PUSH0 PUSH1 0x20 DUP3 ADD SWAP1 POP DUP2 DUP2 SUB PUSH0 DUP4 ADD MSTORE PUSH2 0x173D DUP2 PUSH2 0x1704 JUMP JUMPDEST SWAP1 POP SWAP2 SWAP1 POP JUMP JUMPDEST PUSH32 0x596F752068617665206E6F74207374616B656420616E7920746F6B656E730000 PUSH0 DUP3 ADD MSTORE POP JUMP JUMPDEST PUSH0 PUSH2 0x1778 PUSH1 0x1E DUP4 PUSH2 0x15B7 JUMP JUMPDEST SWAP2 POP PUSH2 0x1783 DUP3 PUSH2 0x1744 JUMP JUMPDEST PUSH1 0x20 DUP3 ADD SWAP1 POP SWAP2 SWAP1 POP JUMP JUMPDEST PUSH0 PUSH1 0x20 DUP3 ADD SWAP1 POP DUP2 DUP2 SUB PUSH0 DUP4 ADD MSTORE PUSH2 0x17A5 DUP2 PUSH2 0x176C JUMP JUMPDEST SWAP1 POP SWAP2 SWAP1 POP JUMP JUMPDEST PUSH32 0x4E487B7100000000000000000000000000000000000000000000000000000000 PUSH0 MSTORE PUSH1 0x11 PUSH1 0x4 MSTORE PUSH1 0x24 PUSH0 REVERT JUMPDEST PUSH0 PUSH2 0x17E3 DUP3 PUSH2 0x122C JUMP JUMPDEST SWAP2 POP PUSH2 0x17EE DUP4 PUSH2 0x122C JUMP JUMPDEST SWAP3 POP DUP3 DUP3 ADD SWAP1 POP DUP1 DUP3 GT ISZERO PUSH2 0x1806 JUMPI PUSH2 0x1805 PUSH2 0x17AC JUMP JUMPDEST JUMPDEST SWAP3 SWAP2 POP POP JUMP JUMPDEST PUSH32 0x6C6F636B5374616B657300000000000000000000000000000000000000000000 PUSH0 DUP3 ADD MSTORE POP JUMP JUMPDEST PUSH0 PUSH2 0x1840 PUSH1 0xA DUP4 PUSH2 0x154F JUMP JUMPDEST SWAP2 POP PUSH2 0x184B DUP3 PUSH2 0x180C JUMP JUMPDEST PUSH1 0xA DUP3 ADD SWAP1 POP SWAP2 SWAP1 POP JUMP JUMPDEST PUSH0 PUSH2 0x1860 DUP3 PUSH2 0x1834 JUMP JUMPDEST SWAP2 POP DUP2 SWAP1 POP SWAP2 SWAP1 POP JUMP JUMPDEST PUSH32 0x5374616B65732068617665206265656E206C6F636B6564000000000000000000 PUSH0 DUP3 ADD MSTORE POP JUMP JUMPDEST PUSH0 PUSH2 0x189E PUSH1 0x17 DUP4 PUSH2 0x15B7 JUMP JUMPDEST SWAP2 POP PUSH2 0x18A9 DUP3 PUSH2 0x186A JUMP JUMPDEST PUSH1 0x20 DUP3 ADD SWAP1 POP SWAP2 SWAP1 POP JUMP JUMPDEST PUSH0 PUSH1 0x20 DUP3 ADD SWAP1 POP DUP2 DUP2 SUB PUSH0 DUP4 ADD MSTORE PUSH2 0x18CB DUP2 PUSH2 0x1892 JUMP JUMPDEST SWAP1 POP SWAP2 SWAP1 POP JUMP JUMPDEST PUSH32 0x596F752068617665206E6F74206561726E656420616E79207265776172647300 PUSH0 DUP3 ADD MSTORE POP JUMP JUMPDEST PUSH0 PUSH2 0x1906 PUSH1 0x1F DUP4 PUSH2 0x15B7 JUMP JUMPDEST SWAP2 POP PUSH2 0x1911 DUP3 PUSH2 0x18D2 JUMP JUMPDEST PUSH1 0x20 DUP3 ADD SWAP1 POP SWAP2 SWAP1 POP JUMP JUMPDEST PUSH0 PUSH1 0x20 DUP3 ADD SWAP1 POP DUP2 DUP2 SUB PUSH0 DUP4 ADD MSTORE PUSH2 0x1933 DUP2 PUSH2 0x18FA JUMP JUMPDEST SWAP1 POP SWAP2 SWAP1 POP JUMP JUMPDEST PUSH0 PUSH2 0x1944 DUP3 PUSH2 0x122C JUMP JUMPDEST SWAP2 POP PUSH2 0x194F DUP4 PUSH2 0x122C JUMP JUMPDEST SWAP3 POP DUP3 DUP3 SUB SWAP1 POP DUP2 DUP2 GT ISZERO PUSH2 0x1967 JUMPI PUSH2 0x1966 PUSH2 0x17AC JUMP JUMPDEST JUMPDEST SWAP3 SWAP2 POP POP JUMP JUMPDEST PUSH32 0x596F7520646F6E2774206861766520656E6F75676820746F2077697468647261 PUSH0 DUP3 ADD MSTORE PUSH32 0x7700000000000000000000000000000000000000000000000000000000000000 PUSH1 0x20 DUP3 ADD MSTORE POP JUMP JUMPDEST PUSH0 PUSH2 0x19C7 PUSH1 0x21 DUP4 PUSH2 0x15B7 JUMP JUMPDEST SWAP2 POP PUSH2 0x19D2 DUP3 PUSH2 0x196D JUMP JUMPDEST PUSH1 0x40 DUP3 ADD SWAP1 POP SWAP2 SWAP1 POP JUMP JUMPDEST PUSH0 PUSH1 0x20 DUP3 ADD SWAP1 POP DUP2 DUP2 SUB PUSH0 DUP4 ADD MSTORE PUSH2 0x19F4 DUP2 PUSH2 0x19BB JUMP JUMPDEST SWAP1 POP SWAP2 SWAP1 POP JUMP JUMPDEST PUSH32 0x5374616B696E67207374696C6C20696E2070726F677265737300000000000000 PUSH0 DUP3 ADD MSTORE POP JUMP JUMPDEST PUSH0 PUSH2 0x1A2F PUSH1 0x19 DUP4 PUSH2 0x15B7 JUMP JUMPDEST SWAP2 POP PUSH2 0x1A3A DUP3 PUSH2 0x19FB JUMP JUMPDEST PUSH1 0x20 DUP3 ADD SWAP1 POP SWAP2 SWAP1 POP JUMP JUMPDEST PUSH0 PUSH1 0x20 DUP3 ADD SWAP1 POP DUP2 DUP2 SUB PUSH0 DUP4 ADD MSTORE PUSH2 0x1A5C DUP2 PUSH2 0x1A23 JUMP JUMPDEST SWAP1 POP SWAP2 SWAP1 POP JUMP JUMPDEST PUSH32 0x2E4E6F207374616B696E6720706572696F642079657400000000000000000000 PUSH0 DUP3 ADD MSTORE POP JUMP JUMPDEST PUSH0 PUSH2 0x1A97 PUSH1 0x16 DUP4 PUSH2 0x15B7 JUMP JUMPDEST SWAP2 POP PUSH2 0x1AA2 DUP3 PUSH2 0x1A63 JUMP JUMPDEST PUSH1 0x20 DUP3 ADD SWAP1 POP SWAP2 SWAP1 POP JUMP JUMPDEST PUSH0 PUSH1 0x20 DUP3 ADD SWAP1 POP DUP2 DUP2 SUB PUSH0 DUP4 ADD MSTORE PUSH2 0x1AC4 DUP2 PUSH2 0x1A8B JUMP JUMPDEST SWAP1 POP SWAP2 SWAP1 POP JUMP JUMPDEST PUSH32 0x5468697320757365722063616E6E6F206C6F6E676572206465706F7369742066 PUSH0 DUP3 ADD MSTORE PUSH32 0x6F722074686973207374616B696E6720706572696F6400000000000000000000 PUSH1 0x20 DUP3 ADD MSTORE POP JUMP JUMPDEST PUSH0 PUSH2 0x1B25 PUSH1 0x36 DUP4 PUSH2 0x15B7 JUMP JUMPDEST SWAP2 POP PUSH2 0x1B30 DUP3 PUSH2 0x1ACB JUMP JUMPDEST PUSH1 0x40 DUP3 ADD SWAP1 POP SWAP2 SWAP1 POP JUMP JUMPDEST PUSH0 PUSH1 0x20 DUP3 ADD SWAP1 POP DUP2 DUP2 SUB PUSH0 DUP4 ADD MSTORE PUSH2 0x1B52 DUP2 PUSH2 0x1B19 JUMP JUMPDEST SWAP1 POP SWAP2 SWAP1 POP JUMP JUMPDEST PUSH0 DUP2 MLOAD SWAP1 POP PUSH2 0x1B67 DUP2 PUSH2 0x145E JUMP JUMPDEST SWAP3 SWAP2 POP POP JUMP JUMPDEST PUSH0 PUSH1 0x20 DUP3 DUP5 SUB SLT ISZERO PUSH2 0x1B82 JUMPI PUSH2 0x1B81 PUSH2 0x1266 JUMP JUMPDEST JUMPDEST PUSH0 PUSH2 0x1B8F DUP5 DUP3 DUP6 ADD PUSH2 0x1B59 JUMP JUMPDEST SWAP2 POP POP SWAP3 SWAP2 POP POP JUMP JUMPDEST PUSH32 0x4E6F7420656E6F75676820746F6B656E7320666F72207374616B650000000000 PUSH0 DUP3 ADD MSTORE POP JUMP JUMPDEST PUSH0 PUSH2 0x1BCC PUSH1 0x1B DUP4 PUSH2 0x15B7 JUMP JUMPDEST SWAP2 POP PUSH2 0x1BD7 DUP3 PUSH2 0x1B98 JUMP JUMPDEST PUSH1 0x20 DUP3 ADD SWAP1 POP SWAP2 SWAP1 POP JUMP JUMPDEST PUSH0 PUSH1 0x20 DUP3 ADD SWAP1 POP DUP2 DUP2 SUB PUSH0 DUP4 ADD MSTORE PUSH2 0x1BF9 DUP2 PUSH2 0x1BC0 JUMP JUMPDEST SWAP1 POP SWAP2 SWAP1 POP JUMP JUMPDEST PUSH0 PUSH1 0x60 DUP3 ADD SWAP1 POP PUSH2 0x1C13 PUSH0 DUP4 ADD DUP7 PUSH2 0x1527 JUMP JUMPDEST PUSH2 0x1C20 PUSH1 0x20 DUP4 ADD DUP6 PUSH2 0x1527 JUMP JUMPDEST PUSH2 0x1C2D PUSH1 0x40 DUP4 ADD DUP5 PUSH2 0x1235 JUMP JUMPDEST SWAP5 SWAP4 POP POP POP POP JUMP JUMPDEST PUSH32 0x4661696C656420746F207374616B6520746F6B656E0000000000000000000000 PUSH0 DUP3 ADD MSTORE POP JUMP JUMPDEST PUSH0 PUSH2 0x1C69 PUSH1 0x15 DUP4 PUSH2 0x15B7 JUMP JUMPDEST SWAP2 POP PUSH2 0x1C74 DUP3 PUSH2 0x1C35 JUMP JUMPDEST PUSH1 0x20 DUP3 ADD SWAP1 POP SWAP2 SWAP1 POP JUMP JUMPDEST PUSH0 PUSH1 0x20 DUP3 ADD SWAP1 POP DUP2 DUP2 SUB PUSH0 DUP4 ADD MSTORE PUSH2 0x1C96 DUP2 PUSH2 0x1C5D JUMP JUMPDEST SWAP1 POP SWAP2 SWAP1 POP JUMP JUMPDEST PUSH32 0x7570646174656441740000000000000000000000000000000000000000000000 PUSH0 DUP3 ADD MSTORE POP JUMP JUMPDEST PUSH0 PUSH2 0x1CD1 PUSH1 0x9 DUP4 PUSH2 0x154F JUMP JUMPDEST SWAP2 POP PUSH2 0x1CDC DUP3 PUSH2 0x1C9D JUMP JUMPDEST PUSH1 0x9 DUP3 ADD SWAP1 POP SWAP2 SWAP1 POP JUMP JUMPDEST PUSH0 PUSH2 0x1CF1 DUP3 PUSH2 0x1CC5 JUMP JUMPDEST SWAP2 POP DUP2 SWAP1 POP SWAP2 SWAP1 POP JUMP JUMPDEST PUSH0 PUSH2 0x1D05 DUP3 PUSH2 0x122C JUMP JUMPDEST SWAP2 POP PUSH2 0x1D10 DUP4 PUSH2 0x122C JUMP JUMPDEST SWAP3 POP DUP3 DUP3 MUL PUSH2 0x1D1E DUP2 PUSH2 0x122C JUMP JUMPDEST SWAP2 POP DUP3 DUP3 DIV DUP5 EQ DUP4 ISZERO OR PUSH2 0x1D35 JUMPI PUSH2 0x1D34 PUSH2 0x17AC JUMP JUMPDEST JUMPDEST POP SWAP3 SWAP2 POP POP JUMP JUMPDEST PUSH32 0x63616E277420736574206461746520746F20612070726576696F75732074696D PUSH0 DUP3 ADD MSTORE PUSH32 0x657374616D700000000000000000000000000000000000000000000000000000 PUSH1 0x20 DUP3 ADD MSTORE POP JUMP JUMPDEST PUSH0 PUSH2 0x1D96 PUSH1 0x26 DUP4 PUSH2 0x15B7 JUMP JUMPDEST SWAP2 POP PUSH2 0x1DA1 DUP3 PUSH2 0x1D3C JUMP JUMPDEST PUSH1 0x40 DUP3 ADD SWAP1 POP SWAP2 SWAP1 POP JUMP JUMPDEST PUSH0 PUSH1 0x20 DUP3 ADD SWAP1 POP DUP2 DUP2 SUB PUSH0 DUP4 ADD MSTORE PUSH2 0x1DC3 DUP2 PUSH2 0x1D8A JUMP JUMPDEST SWAP1 POP SWAP2 SWAP1 POP JUMP JUMPDEST PUSH32 0x736574207265776172642072617465206265666F7265207374617274696E6720 PUSH0 DUP3 ADD MSTORE PUSH32 0x7374616B696E6720706572696F64000000000000000000000000000000000000 PUSH1 0x20 DUP3 ADD MSTORE POP JUMP JUMPDEST PUSH0 PUSH2 0x1E24 PUSH1 0x2E DUP4 PUSH2 0x15B7 JUMP JUMPDEST SWAP2 POP PUSH2 0x1E2F DUP3 PUSH2 0x1DCA JUMP JUMPDEST PUSH1 0x40 DUP3 ADD SWAP1 POP SWAP2 SWAP1 POP JUMP JUMPDEST PUSH0 PUSH1 0x20 DUP3 ADD SWAP1 POP DUP2 DUP2 SUB PUSH0 DUP4 ADD MSTORE PUSH2 0x1E51 DUP2 PUSH2 0x1E18 JUMP JUMPDEST SWAP1 POP SWAP2 SWAP1 POP JUMP INVALID LOG2 PUSH5 0x6970667358 0x22 SLT KECCAK256 0xBC 0xB2 PUSH26 0x57A713CDBDA774D2CE47B9A7B7BAA65826B05A2BA557CDAA3E36 MSIZE PUSH4 0x3A64736F PUSH13 0x63430008140033000000000000 "
				},
				"gasEstimates": {
					"creation": {
						"codeDepositCost": "1564400",
						"executionCost": "infinite",
						"totalCost": "infinite"
					},
					"external": {
						"_balance(address,string)": "infinite",
						"balance()": "2824",
						"calculateRewards()": "infinite",
						"depositStake(uint256)": "infinite",
						"duration()": "2449",
						"earned()": "infinite",
						"finishAt()": "2514",
						"getDuration()": "2543",
						"lockStakes()": "infinite",
						"owner()": "2575",
						"rate()": "2493",
						"rewardsToken()": "infinite",
						"setDuration(uint256)": "infinite",
						"setRewardRate(uint256)": "24726",
						"stakingToken()": "infinite",
						"totalStake()": "2470",
						"totalStakeRewards()": "2515",
						"updatedAt()": "2448",
						"withdrawReward(uint256)": "infinite",
						"withdrawStakes()": "infinite"
					}
				},
				"methodIdentifiers": {
					"_balance(address,string)": "50d56aba",
					"balance()": "b69ef8a8",
					"calculateRewards()": "3e50de30",
					"depositStake(uint256)": "cb82cc8f",
					"duration()": "0fb5a6b4",
					"earned()": "d6f19262",
					"finishAt()": "67d3b488",
					"getDuration()": "ad2e8c9b",
					"lockStakes()": "4a618297",
					"owner()": "8da5cb5b",
					"rate()": "2c4e722e",
					"rewardsToken()": "d1af0c7d",
					"setDuration(uint256)": "f6be71d1",
					"setRewardRate(uint256)": "9e447fc6",
					"stakingToken()": "72f702f3",
					"totalStake()": "8b0e9f3f",
					"totalStakeRewards()": "327bcac5",
					"updatedAt()": "7519ab50",
					"withdrawReward(uint256)": "523a3f08",
					"withdrawStakes()": "289ed738"
				}
			},
			"storageLayout": {
				"storage": [
					{
						"astId": 43,
						"contract": "contracts/staking.sol:Staking",
						"label": "stakingToken",
						"offset": 0,
						"slot": "0",
						"type": "t_contract(IERC20)556"
					},
					{
						"astId": 46,
						"contract": "contracts/staking.sol:Staking",
						"label": "rewardsToken",
						"offset": 0,
						"slot": "1",
						"type": "t_contract(IERC20)556"
					},
					{
						"astId": 48,
						"contract": "contracts/staking.sol:Staking",
						"label": "totalStake",
						"offset": 0,
						"slot": "2",
						"type": "t_uint256"
					},
					{
						"astId": 50,
						"contract": "contracts/staking.sol:Staking",
						"label": "totalStakeRewards",
						"offset": 0,
						"slot": "3",
						"type": "t_uint256"
					},
					{
						"astId": 52,
						"contract": "contracts/staking.sol:Staking",
						"label": "duration",
						"offset": 0,
						"slot": "4",
						"type": "t_uint256"
					},
					{
						"astId": 54,
						"contract": "contracts/staking.sol:Staking",
						"label": "finishAt",
						"offset": 0,
						"slot": "5",
						"type": "t_uint256"
					},
					{
						"astId": 56,
						"contract": "contracts/staking.sol:Staking",
						"label": "updatedAt",
						"offset": 0,
						"slot": "6",
						"type": "t_uint256"
					},
					{
						"astId": 58,
						"contract": "contracts/staking.sol:Staking",
						"label": "rate",
						"offset": 0,
						"slot": "7",
						"type": "t_uint256"
					},
					{
						"astId": 64,
						"contract": "contracts/staking.sol:Staking",
						"label": "_balance",
						"offset": 0,
						"slot": "8",
						"type": "t_mapping(t_address,t_mapping(t_string_memory_ptr,t_uint256))"
					},
					{
						"astId": 68,
						"contract": "contracts/staking.sol:Staking",
						"label": "_rewardsWithdrawals",
						"offset": 0,
						"slot": "9",
						"type": "t_mapping(t_address,t_uint256)"
					},
					{
						"astId": 72,
						"contract": "contracts/staking.sol:Staking",
						"label": "accBeforeUpdate",
						"offset": 0,
						"slot": "10",
						"type": "t_mapping(t_address,t_uint256)"
					},
					{
						"astId": 74,
						"contract": "contracts/staking.sol:Staking",
						"label": "owner",
						"offset": 0,
						"slot": "11",
						"type": "t_address"
					}
				],
				"types": {
					"t_address": {
						"encoding": "inplace",
						"label": "address",
						"numberOfBytes": "20"
					},
					"t_contract(IERC20)556": {
						"encoding": "inplace",
						"label": "contract IERC20",
						"numberOfBytes": "20"
					},
					"t_mapping(t_address,t_mapping(t_string_memory_ptr,t_uint256))": {
						"encoding": "mapping",
						"key": "t_address",
						"label": "mapping(address => mapping(string => uint256))",
						"numberOfBytes": "32",
						"value": "t_mapping(t_string_memory_ptr,t_uint256)"
					},
					"t_mapping(t_address,t_uint256)": {
						"encoding": "mapping",
						"key": "t_address",
						"label": "mapping(address => uint256)",
						"numberOfBytes": "32",
						"value": "t_uint256"
					},
					"t_mapping(t_string_memory_ptr,t_uint256)": {
						"encoding": "mapping",
						"key": "t_string_memory_ptr",
						"label": "mapping(string => uint256)",
						"numberOfBytes": "32",
						"value": "t_uint256"
					},
					"t_string_memory_ptr": {
						"encoding": "bytes",
						"label": "string",
						"numberOfBytes": "32"
					},
					"t_uint256": {
						"encoding": "inplace",
						"label": "uint256",
						"numberOfBytes": "32"
					}
				}
			},
			"userdoc": {
				"kind": "user",
				"methods": {},
				"version": 1
			}
		}
	}
}