{
	"contracts/staking.sol": {
		"Staking": {
			"abi": [
				{
					"inputs": [
						{
							"internalType": "address",
							"name": "_stakeToken",
							"type": "address"
						},
						{
							"internalType": "address",
							"name": "_rewardsToken",
							"type": "address"
						}
					],
					"stateMutability": "nonpayable",
					"type": "constructor"
				},
				{
					"inputs": [
						{
							"internalType": "address",
							"name": "",
							"type": "address"
						},
						{
							"internalType": "string",
							"name": "",
							"type": "string"
						}
					],
					"name": "_balance",
					"outputs": [
						{
							"internalType": "uint256",
							"name": "",
							"type": "uint256"
						}
					],
					"stateMutability": "view",
					"type": "function"
				},
				{
					"inputs": [],
					"name": "balance",
					"outputs": [
						{
							"internalType": "uint256",
							"name": "",
							"type": "uint256"
						}
					],
					"stateMutability": "view",
					"type": "function"
				},
				{
					"inputs": [],
					"name": "calculateRewards",
					"outputs": [
						{
							"internalType": "uint256",
							"name": "",
							"type": "uint256"
						}
					],
					"stateMutability": "view",
					"type": "function"
				},
				{
					"inputs": [
						{
							"internalType": "uint256",
							"name": "amount",
							"type": "uint256"
						}
					],
					"name": "depositStake",
					"outputs": [],
					"stateMutability": "nonpayable",
					"type": "function"
				},
				{
					"inputs": [],
					"name": "duration",
					"outputs": [
						{
							"internalType": "uint256",
							"name": "",
							"type": "uint256"
						}
					],
					"stateMutability": "view",
					"type": "function"
				},
				{
					"inputs": [],
					"name": "finishAt",
					"outputs": [
						{
							"internalType": "uint256",
							"name": "",
							"type": "uint256"
						}
					],
					"stateMutability": "view",
					"type": "function"
				},
				{
					"inputs": [],
					"name": "getDuration",
					"outputs": [
						{
							"internalType": "uint256",
							"name": "",
							"type": "uint256"
						}
					],
					"stateMutability": "view",
					"type": "function"
				},
				{
					"inputs": [],
					"name": "rate",
					"outputs": [
						{
							"internalType": "uint256",
							"name": "",
							"type": "uint256"
						}
					],
					"stateMutability": "view",
					"type": "function"
				},
				{
					"inputs": [],
					"name": "rewardsToken",
					"outputs": [
						{
							"internalType": "contract IERC20",
							"name": "",
							"type": "address"
						}
					],
					"stateMutability": "view",
					"type": "function"
				},
				{
					"inputs": [
						{
							"internalType": "uint256",
							"name": "_duration",
							"type": "uint256"
						}
					],
					"name": "setDuration",
					"outputs": [],
					"stateMutability": "nonpayable",
					"type": "function"
				},
				{
					"inputs": [
						{
							"internalType": "uint256",
							"name": "_rate",
							"type": "uint256"
						}
					],
					"name": "setRewardRate",
					"outputs": [],
					"stateMutability": "nonpayable",
					"type": "function"
				},
				{
					"inputs": [],
					"name": "stakingToken",
					"outputs": [
						{
							"internalType": "contract IERC20",
							"name": "",
							"type": "address"
						}
					],
					"stateMutability": "view",
					"type": "function"
				},
				{
					"inputs": [],
					"name": "totalStake",
					"outputs": [
						{
							"internalType": "uint256",
							"name": "",
							"type": "uint256"
						}
					],
					"stateMutability": "view",
					"type": "function"
				},
				{
					"inputs": [],
					"name": "totalStakeRewards",
					"outputs": [
						{
							"internalType": "uint256",
							"name": "",
							"type": "uint256"
						}
					],
					"stateMutability": "view",
					"type": "function"
				},
				{
					"inputs": [],
					"name": "updatedAt",
					"outputs": [
						{
							"internalType": "uint256",
							"name": "",
							"type": "uint256"
						}
					],
					"stateMutability": "view",
					"type": "function"
				},
				{
					"inputs": [
						{
							"internalType": "uint256",
							"name": "_amount",
							"type": "uint256"
						}
					],
					"name": "withdrawReward",
					"outputs": [],
					"stateMutability": "nonpayable",
					"type": "function"
				}
			],
			"devdoc": {
				"kind": "dev",
				"methods": {},
				"version": 1
			},
			"evm": {
				"assembly": "    /* \"contracts/staking.sol\":617:3582  contract Staking{... */\n  mstore(0x40, 0x80)\n    /* \"contracts/staking.sol\":1193:1345  constructor(address _stakeToken, address _rewardsToken){... */\n  callvalue\n  dup1\n  iszero\n  tag_1\n  jumpi\n  0x00\n  dup1\n  revert\ntag_1:\n  pop\n  mload(0x40)\n  sub(codesize, bytecodeSize)\n  dup1\n  bytecodeSize\n  dup4\n  codecopy\n  dup2\n  dup2\n  add\n  0x40\n  mstore\n  dup2\n  add\n  swap1\n  tag_2\n  swap2\n  swap1\n  tag_3\n  jump\t// in\ntag_2:\n    /* \"contracts/staking.sol\":1280:1291  _stakeToken */\n  dup2\n    /* \"contracts/staking.sol\":1258:1270  stakingToken */\n  0x00\n  dup1\n    /* \"contracts/staking.sol\":1258:1292  stakingToken = IERC20(_stakeToken) */\n  0x0100\n  exp\n  dup2\n  sload\n  dup2\n  0xffffffffffffffffffffffffffffffffffffffff\n  mul\n  not\n  and\n  swap1\n  dup4\n  0xffffffffffffffffffffffffffffffffffffffff\n  and\n  mul\n  or\n  swap1\n  sstore\n  pop\n    /* \"contracts/staking.sol\":1324:1337  _rewardsToken */\n  dup1\n    /* \"contracts/staking.sol\":1302:1314  rewardsToken */\n  0x01\n  0x00\n    /* \"contracts/staking.sol\":1302:1338  rewardsToken = IERC20(_rewardsToken) */\n  0x0100\n  exp\n  dup2\n  sload\n  dup2\n  0xffffffffffffffffffffffffffffffffffffffff\n  mul\n  not\n  and\n  swap1\n  dup4\n  0xffffffffffffffffffffffffffffffffffffffff\n  and\n  mul\n  or\n  swap1\n  sstore\n  pop\n    /* \"contracts/staking.sol\":1193:1345  constructor(address _stakeToken, address _rewardsToken){... */\n  pop\n  pop\n    /* \"contracts/staking.sol\":617:3582  contract Staking{... */\n  jump(tag_6)\n    /* \"#utility.yul\":88:205   */\ntag_8:\n    /* \"#utility.yul\":197:198   */\n  0x00\n    /* \"#utility.yul\":194:195   */\n  dup1\n    /* \"#utility.yul\":187:199   */\n  revert\n    /* \"#utility.yul\":334:460   */\ntag_10:\n    /* \"#utility.yul\":371:378   */\n  0x00\n    /* \"#utility.yul\":411:453   */\n  0xffffffffffffffffffffffffffffffffffffffff\n    /* \"#utility.yul\":404:409   */\n  dup3\n    /* \"#utility.yul\":400:454   */\n  and\n    /* \"#utility.yul\":389:454   */\n  swap1\n  pop\n    /* \"#utility.yul\":334:460   */\n  swap2\n  swap1\n  pop\n  jump\t// out\n    /* \"#utility.yul\":466:562   */\ntag_11:\n    /* \"#utility.yul\":503:510   */\n  0x00\n    /* \"#utility.yul\":532:556   */\n  tag_20\n    /* \"#utility.yul\":550:555   */\n  dup3\n    /* \"#utility.yul\":532:556   */\n  tag_10\n  jump\t// in\ntag_20:\n    /* \"#utility.yul\":521:556   */\n  swap1\n  pop\n    /* \"#utility.yul\":466:562   */\n  swap2\n  swap1\n  pop\n  jump\t// out\n    /* \"#utility.yul\":568:690   */\ntag_12:\n    /* \"#utility.yul\":641:665   */\n  tag_22\n    /* \"#utility.yul\":659:664   */\n  dup2\n    /* \"#utility.yul\":641:665   */\n  tag_11\n  jump\t// in\ntag_22:\n    /* \"#utility.yul\":634:639   */\n  dup2\n    /* \"#utility.yul\":631:666   */\n  eq\n    /* \"#utility.yul\":621:684   */\n  tag_23\n  jumpi\n    /* \"#utility.yul\":680:681   */\n  0x00\n    /* \"#utility.yul\":677:678   */\n  dup1\n    /* \"#utility.yul\":670:682   */\n  revert\n    /* \"#utility.yul\":621:684   */\ntag_23:\n    /* \"#utility.yul\":568:690   */\n  pop\n  jump\t// out\n    /* \"#utility.yul\":696:839   */\ntag_13:\n    /* \"#utility.yul\":753:758   */\n  0x00\n    /* \"#utility.yul\":784:790   */\n  dup2\n    /* \"#utility.yul\":778:791   */\n  mload\n    /* \"#utility.yul\":769:791   */\n  swap1\n  pop\n    /* \"#utility.yul\":800:833   */\n  tag_25\n    /* \"#utility.yul\":827:832   */\n  dup2\n    /* \"#utility.yul\":800:833   */\n  tag_12\n  jump\t// in\ntag_25:\n    /* \"#utility.yul\":696:839   */\n  swap3\n  swap2\n  pop\n  pop\n  jump\t// out\n    /* \"#utility.yul\":845:1352   */\ntag_3:\n    /* \"#utility.yul\":924:930   */\n  0x00\n    /* \"#utility.yul\":932:938   */\n  dup1\n    /* \"#utility.yul\":981:983   */\n  0x40\n    /* \"#utility.yul\":969:978   */\n  dup4\n    /* \"#utility.yul\":960:967   */\n  dup6\n    /* \"#utility.yul\":956:979   */\n  sub\n    /* \"#utility.yul\":952:984   */\n  slt\n    /* \"#utility.yul\":949:1068   */\n  iszero\n  tag_27\n  jumpi\n    /* \"#utility.yul\":987:1066   */\n  tag_28\n  tag_8\n  jump\t// in\ntag_28:\n    /* \"#utility.yul\":949:1068   */\ntag_27:\n    /* \"#utility.yul\":1107:1108   */\n  0x00\n    /* \"#utility.yul\":1132:1196   */\n  tag_29\n    /* \"#utility.yul\":1188:1195   */\n  dup6\n    /* \"#utility.yul\":1179:1185   */\n  dup3\n    /* \"#utility.yul\":1168:1177   */\n  dup7\n    /* \"#utility.yul\":1164:1186   */\n  add\n    /* \"#utility.yul\":1132:1196   */\n  tag_13\n  jump\t// in\ntag_29:\n    /* \"#utility.yul\":1122:1196   */\n  swap3\n  pop\n    /* \"#utility.yul\":1078:1206   */\n  pop\n    /* \"#utility.yul\":1245:1247   */\n  0x20\n    /* \"#utility.yul\":1271:1335   */\n  tag_30\n    /* \"#utility.yul\":1327:1334   */\n  dup6\n    /* \"#utility.yul\":1318:1324   */\n  dup3\n    /* \"#utility.yul\":1307:1316   */\n  dup7\n    /* \"#utility.yul\":1303:1325   */\n  add\n    /* \"#utility.yul\":1271:1335   */\n  tag_13\n  jump\t// in\ntag_30:\n    /* \"#utility.yul\":1261:1335   */\n  swap2\n  pop\n    /* \"#utility.yul\":1216:1345   */\n  pop\n    /* \"#utility.yul\":845:1352   */\n  swap3\n  pop\n  swap3\n  swap1\n  pop\n  jump\t// out\n    /* \"contracts/staking.sol\":617:3582  contract Staking{... */\ntag_6:\n  dataSize(sub_0)\n  dup1\n  dataOffset(sub_0)\n  0x00\n  codecopy\n  0x00\n  return\nstop\n\nsub_0: assembly {\n        /* \"contracts/staking.sol\":617:3582  contract Staking{... */\n      mstore(0x40, 0x80)\n      callvalue\n      dup1\n      iszero\n      tag_1\n      jumpi\n      0x00\n      dup1\n      revert\n    tag_1:\n      pop\n      jumpi(tag_2, lt(calldatasize, 0x04))\n      shr(0xe0, calldataload(0x00))\n      dup1\n      0x7519ab50\n      gt\n      tag_19\n      jumpi\n      dup1\n      0xb69ef8a8\n      gt\n      tag_20\n      jumpi\n      dup1\n      0xb69ef8a8\n      eq\n      tag_15\n      jumpi\n      dup1\n      0xcb82cc8f\n      eq\n      tag_16\n      jumpi\n      dup1\n      0xd1af0c7d\n      eq\n      tag_17\n      jumpi\n      dup1\n      0xf6be71d1\n      eq\n      tag_18\n      jumpi\n      jump(tag_2)\n    tag_20:\n      dup1\n      0x7519ab50\n      eq\n      tag_11\n      jumpi\n      dup1\n      0x8b0e9f3f\n      eq\n      tag_12\n      jumpi\n      dup1\n      0x9e447fc6\n      eq\n      tag_13\n      jumpi\n      dup1\n      0xad2e8c9b\n      eq\n      tag_14\n      jumpi\n      jump(tag_2)\n    tag_19:\n      dup1\n      0x50d56aba\n      gt\n      tag_21\n      jumpi\n      dup1\n      0x50d56aba\n      eq\n      tag_7\n      jumpi\n      dup1\n      0x523a3f08\n      eq\n      tag_8\n      jumpi\n      dup1\n      0x67d3b488\n      eq\n      tag_9\n      jumpi\n      dup1\n      0x72f702f3\n      eq\n      tag_10\n      jumpi\n      jump(tag_2)\n    tag_21:\n      dup1\n      0x0fb5a6b4\n      eq\n      tag_3\n      jumpi\n      dup1\n      0x2c4e722e\n      eq\n      tag_4\n      jumpi\n      dup1\n      0x327bcac5\n      eq\n      tag_5\n      jumpi\n      dup1\n      0x3e50de30\n      eq\n      tag_6\n      jumpi\n    tag_2:\n      0x00\n      dup1\n      revert\n        /* \"contracts/staking.sol\":833:853  uint public duration */\n    tag_3:\n      tag_22\n      tag_23\n      jump\t// in\n    tag_22:\n      mload(0x40)\n      tag_24\n      swap2\n      swap1\n      tag_25\n      jump\t// in\n    tag_24:\n      mload(0x40)\n      dup1\n      swap2\n      sub\n      swap1\n      return\n        /* \"contracts/staking.sol\":931:947  uint public rate */\n    tag_4:\n      tag_26\n      tag_27\n      jump\t// in\n    tag_26:\n      mload(0x40)\n      tag_28\n      swap2\n      swap1\n      tag_25\n      jump\t// in\n    tag_28:\n      mload(0x40)\n      dup1\n      swap2\n      sub\n      swap1\n      return\n        /* \"contracts/staking.sol\":793:822  uint public totalStakeRewards */\n    tag_5:\n      tag_29\n      tag_30\n      jump\t// in\n    tag_29:\n      mload(0x40)\n      tag_31\n      swap2\n      swap1\n      tag_25\n      jump\t// in\n    tag_31:\n      mload(0x40)\n      dup1\n      swap2\n      sub\n      swap1\n      return\n        /* \"contracts/staking.sol\":2890:3096  function calculateRewards() view public returns(uint256){... */\n    tag_6:\n      tag_32\n      tag_33\n      jump\t// in\n    tag_32:\n      mload(0x40)\n      tag_34\n      swap2\n      swap1\n      tag_25\n      jump\t// in\n    tag_34:\n      mload(0x40)\n      dup1\n      swap2\n      sub\n      swap1\n      return\n        /* \"contracts/staking.sol\":967:1030  mapping (address => mapping(string => uint256)) public _balance */\n    tag_7:\n      tag_35\n      0x04\n      dup1\n      calldatasize\n      sub\n      dup2\n      add\n      swap1\n      tag_36\n      swap2\n      swap1\n      tag_37\n      jump\t// in\n    tag_36:\n      tag_38\n      jump\t// in\n    tag_35:\n      mload(0x40)\n      tag_39\n      swap2\n      swap1\n      tag_25\n      jump\t// in\n    tag_39:\n      mload(0x40)\n      dup1\n      swap2\n      sub\n      swap1\n      return\n        /* \"contracts/staking.sol\":3102:3573  function withdrawReward(uint256 _amount) external{... */\n    tag_8:\n      tag_40\n      0x04\n      dup1\n      calldatasize\n      sub\n      dup2\n      add\n      swap1\n      tag_41\n      swap2\n      swap1\n      tag_42\n      jump\t// in\n    tag_41:\n      tag_43\n      jump\t// in\n    tag_40:\n      stop\n        /* \"contracts/staking.sol\":877:897  uint public finishAt */\n    tag_9:\n      tag_44\n      tag_45\n      jump\t// in\n    tag_44:\n      mload(0x40)\n      tag_46\n      swap2\n      swap1\n      tag_25\n      jump\t// in\n    tag_46:\n      mload(0x40)\n      dup1\n      swap2\n      sub\n      swap1\n      return\n        /* \"contracts/staking.sol\":700:726  IERC20 public stakingToken */\n    tag_10:\n      tag_47\n      tag_48\n      jump\t// in\n    tag_47:\n      mload(0x40)\n      tag_49\n      swap2\n      swap1\n      tag_50\n      jump\t// in\n    tag_49:\n      mload(0x40)\n      dup1\n      swap2\n      sub\n      swap1\n      return\n        /* \"contracts/staking.sol\":903:924  uint public updatedAt */\n    tag_11:\n      tag_51\n      tag_52\n      jump\t// in\n    tag_51:\n      mload(0x40)\n      tag_53\n      swap2\n      swap1\n      tag_25\n      jump\t// in\n    tag_53:\n      mload(0x40)\n      dup1\n      swap2\n      sub\n      swap1\n      return\n        /* \"contracts/staking.sol\":765:787  uint public totalStake */\n    tag_12:\n      tag_54\n      tag_55\n      jump\t// in\n    tag_54:\n      mload(0x40)\n      tag_56\n      swap2\n      swap1\n      tag_25\n      jump\t// in\n    tag_56:\n      mload(0x40)\n      dup1\n      swap2\n      sub\n      swap1\n      return\n        /* \"contracts/staking.sol\":2468:2618  function setRewardRate(uint256 _rate) external{... */\n    tag_13:\n      tag_57\n      0x04\n      dup1\n      calldatasize\n      sub\n      dup2\n      add\n      swap1\n      tag_58\n      swap2\n      swap1\n      tag_42\n      jump\t// in\n    tag_58:\n      tag_59\n      jump\t// in\n    tag_57:\n      stop\n        /* \"contracts/staking.sol\":2377:2462  function getDuration() view external returns(uint256){... */\n    tag_14:\n      tag_60\n      tag_61\n      jump\t// in\n    tag_60:\n      mload(0x40)\n      tag_62\n      swap2\n      swap1\n      tag_25\n      jump\t// in\n    tag_62:\n      mload(0x40)\n      dup1\n      swap2\n      sub\n      swap1\n      return\n        /* \"contracts/staking.sol\":2000:2104  function balance() external view returns (uint256){... */\n    tag_15:\n      tag_63\n      tag_64\n      jump\t// in\n    tag_63:\n      mload(0x40)\n      tag_65\n      swap2\n      swap1\n      tag_25\n      jump\t// in\n    tag_65:\n      mload(0x40)\n      dup1\n      swap2\n      sub\n      swap1\n      return\n        /* \"contracts/staking.sol\":1351:1995  function depositStake (uint amount) external {... */\n    tag_16:\n      tag_66\n      0x04\n      dup1\n      calldatasize\n      sub\n      dup2\n      add\n      swap1\n      tag_67\n      swap2\n      swap1\n      tag_42\n      jump\t// in\n    tag_67:\n      tag_68\n      jump\t// in\n    tag_66:\n      stop\n        /* \"contracts/staking.sol\":732:758  IERC20 public rewardsToken */\n    tag_17:\n      tag_69\n      tag_70\n      jump\t// in\n    tag_69:\n      mload(0x40)\n      tag_71\n      swap2\n      swap1\n      tag_50\n      jump\t// in\n    tag_71:\n      mload(0x40)\n      dup1\n      swap2\n      sub\n      swap1\n      return\n        /* \"contracts/staking.sol\":2110:2371  function setDuration(uint256 _duration) external{... */\n    tag_18:\n      tag_72\n      0x04\n      dup1\n      calldatasize\n      sub\n      dup2\n      add\n      swap1\n      tag_73\n      swap2\n      swap1\n      tag_42\n      jump\t// in\n    tag_73:\n      tag_74\n      jump\t// in\n    tag_72:\n      stop\n        /* \"contracts/staking.sol\":833:853  uint public duration */\n    tag_23:\n      sload(0x04)\n      dup2\n      jump\t// out\n        /* \"contracts/staking.sol\":931:947  uint public rate */\n    tag_27:\n      sload(0x07)\n      dup2\n      jump\t// out\n        /* \"contracts/staking.sol\":793:822  uint public totalStakeRewards */\n    tag_30:\n      sload(0x03)\n      dup2\n      jump\t// out\n        /* \"contracts/staking.sol\":2890:3096  function calculateRewards() view public returns(uint256){... */\n    tag_33:\n        /* \"contracts/staking.sol\":2938:2945  uint256 */\n      0x00\n        /* \"contracts/staking.sol\":2997:2998  0 */\n      dup1\n        /* \"contracts/staking.sol\":2964:2972  _balance */\n      0x08\n        /* \"contracts/staking.sol\":2964:2984  _balance[msg.sender] */\n      0x00\n        /* \"contracts/staking.sol\":2973:2983  msg.sender */\n      caller\n        /* \"contracts/staking.sol\":2964:2984  _balance[msg.sender] */\n      0xffffffffffffffffffffffffffffffffffffffff\n      and\n      0xffffffffffffffffffffffffffffffffffffffff\n      and\n      dup2\n      mstore\n      0x20\n      add\n      swap1\n      dup2\n      mstore\n      0x20\n      add\n      0x00\n      keccak256\n        /* \"contracts/staking.sol\":2964:2994  _balance[msg.sender][\"amount\"] */\n      mload(0x40)\n      tag_76\n      swap1\n      tag_77\n      jump\t// in\n    tag_76:\n      swap1\n      dup2\n      mstore\n      0x20\n      add\n      mload(0x40)\n      dup1\n      swap2\n      sub\n      swap1\n      keccak256\n      sload\n        /* \"contracts/staking.sol\":2964:2998  _balance[msg.sender][\"amount\"] > 0 */\n      gt\n        /* \"contracts/staking.sol\":2956:3033  require(_balance[msg.sender][\"amount\"] > 0, \"You have not staked any tokens\") */\n      tag_78\n      jumpi\n      mload(0x40)\n      0x08c379a000000000000000000000000000000000000000000000000000000000\n      dup2\n      mstore\n      0x04\n      add\n      tag_79\n      swap1\n      tag_80\n      jump\t// in\n    tag_79:\n      mload(0x40)\n      dup1\n      swap2\n      sub\n      swap1\n      revert\n    tag_78:\n        /* \"contracts/staking.sol\":3062:3077  accBeforeUpdate */\n      0x0a\n        /* \"contracts/staking.sol\":3062:3089  accBeforeUpdate[msg.sender] */\n      0x00\n        /* \"contracts/staking.sol\":3078:3088  msg.sender */\n      caller\n        /* \"contracts/staking.sol\":3062:3089  accBeforeUpdate[msg.sender] */\n      0xffffffffffffffffffffffffffffffffffffffff\n      and\n      0xffffffffffffffffffffffffffffffffffffffff\n      and\n      dup2\n      mstore\n      0x20\n      add\n      swap1\n      dup2\n      mstore\n      0x20\n      add\n      0x00\n      keccak256\n      sload\n        /* \"contracts/staking.sol\":3051:3059  earned() */\n      tag_81\n        /* \"contracts/staking.sol\":3051:3057  earned */\n      tag_82\n        /* \"contracts/staking.sol\":3051:3059  earned() */\n      jump\t// in\n    tag_81:\n        /* \"contracts/staking.sol\":3051:3089  earned() + accBeforeUpdate[msg.sender] */\n      tag_83\n      swap2\n      swap1\n      tag_84\n      jump\t// in\n    tag_83:\n        /* \"contracts/staking.sol\":3044:3089  return earned() + accBeforeUpdate[msg.sender] */\n      swap1\n      pop\n        /* \"contracts/staking.sol\":2890:3096  function calculateRewards() view public returns(uint256){... */\n      swap1\n      jump\t// out\n        /* \"contracts/staking.sol\":967:1030  mapping (address => mapping(string => uint256)) public _balance */\n    tag_38:\n      mstore(0x20, 0x08)\n      dup2\n      0x00\n      mstore\n      keccak256(0x00, 0x40)\n      dup2\n      dup1\n      mload\n      0x20\n      dup2\n      add\n      dup3\n      add\n      dup1\n      mload\n      dup5\n      dup3\n      mstore\n      0x20\n      dup4\n      add\n      0x20\n      dup6\n      add\n      keccak256\n      dup2\n      dup4\n      mstore\n      dup1\n      swap6\n      pop\n      pop\n      pop\n      pop\n      pop\n      pop\n      0x00\n      swap2\n      pop\n      swap2\n      pop\n      pop\n      sload\n      dup2\n      jump\t// out\n        /* \"contracts/staking.sol\":3102:3573  function withdrawReward(uint256 _amount) external{... */\n    tag_43:\n        /* \"contracts/staking.sol\":3235:3236  0 */\n      0x00\n        /* \"contracts/staking.sol\":3205:3220  accBeforeUpdate */\n      0x0a\n        /* \"contracts/staking.sol\":3205:3232  accBeforeUpdate[msg.sender] */\n      0x00\n        /* \"contracts/staking.sol\":3221:3231  msg.sender */\n      caller\n        /* \"contracts/staking.sol\":3205:3232  accBeforeUpdate[msg.sender] */\n      0xffffffffffffffffffffffffffffffffffffffff\n      and\n      0xffffffffffffffffffffffffffffffffffffffff\n      and\n      dup2\n      mstore\n      0x20\n      add\n      swap1\n      dup2\n      mstore\n      0x20\n      add\n      0x00\n      keccak256\n      sload\n        /* \"contracts/staking.sol\":3194:3202  earned() */\n      tag_86\n        /* \"contracts/staking.sol\":3194:3200  earned */\n      tag_82\n        /* \"contracts/staking.sol\":3194:3202  earned() */\n      jump\t// in\n    tag_86:\n        /* \"contracts/staking.sol\":3194:3232  earned() + accBeforeUpdate[msg.sender] */\n      tag_87\n      swap2\n      swap1\n      tag_84\n      jump\t// in\n    tag_87:\n        /* \"contracts/staking.sol\":3194:3236  earned() + accBeforeUpdate[msg.sender] > 0 */\n      gt\n        /* \"contracts/staking.sol\":3194:3251  earned() + accBeforeUpdate[msg.sender] > 0 && _amount > 0 */\n      dup1\n      iszero\n      tag_88\n      jumpi\n      pop\n        /* \"contracts/staking.sol\":3250:3251  0 */\n      0x00\n        /* \"contracts/staking.sol\":3240:3247  _amount */\n      dup2\n        /* \"contracts/staking.sol\":3240:3251  _amount > 0 */\n      gt\n        /* \"contracts/staking.sol\":3194:3251  earned() + accBeforeUpdate[msg.sender] > 0 && _amount > 0 */\n    tag_88:\n        /* \"contracts/staking.sol\":3186:3287  require(earned() + accBeforeUpdate[msg.sender] > 0 && _amount > 0, \"You have not earned any rewards\") */\n      tag_89\n      jumpi\n      mload(0x40)\n      0x08c379a000000000000000000000000000000000000000000000000000000000\n      dup2\n      mstore\n      0x04\n      add\n      tag_90\n      swap1\n      tag_91\n      jump\t// in\n    tag_90:\n      mload(0x40)\n      dup1\n      swap2\n      sub\n      swap1\n      revert\n    tag_89:\n        /* \"contracts/staking.sol\":3379:3386  _amount */\n      dup1\n        /* \"contracts/staking.sol\":3345:3364  _rewardsWithdrawals */\n      0x09\n        /* \"contracts/staking.sol\":3345:3376  _rewardsWithdrawals[msg.sender] */\n      0x00\n        /* \"contracts/staking.sol\":3365:3375  msg.sender */\n      caller\n        /* \"contracts/staking.sol\":3345:3376  _rewardsWithdrawals[msg.sender] */\n      0xffffffffffffffffffffffffffffffffffffffff\n      and\n      0xffffffffffffffffffffffffffffffffffffffff\n      and\n      dup2\n      mstore\n      0x20\n      add\n      swap1\n      dup2\n      mstore\n      0x20\n      add\n      0x00\n      keccak256\n      sload\n        /* \"contracts/staking.sol\":3315:3330  accBeforeUpdate */\n      0x0a\n        /* \"contracts/staking.sol\":3315:3342  accBeforeUpdate[msg.sender] */\n      0x00\n        /* \"contracts/staking.sol\":3331:3341  msg.sender */\n      caller\n        /* \"contracts/staking.sol\":3315:3342  accBeforeUpdate[msg.sender] */\n      0xffffffffffffffffffffffffffffffffffffffff\n      and\n      0xffffffffffffffffffffffffffffffffffffffff\n      and\n      dup2\n      mstore\n      0x20\n      add\n      swap1\n      dup2\n      mstore\n      0x20\n      add\n      0x00\n      keccak256\n      sload\n        /* \"contracts/staking.sol\":3305:3313  earned() */\n      tag_92\n        /* \"contracts/staking.sol\":3305:3311  earned */\n      tag_82\n        /* \"contracts/staking.sol\":3305:3313  earned() */\n      jump\t// in\n    tag_92:\n        /* \"contracts/staking.sol\":3305:3342  earned() +accBeforeUpdate[msg.sender] */\n      tag_93\n      swap2\n      swap1\n      tag_84\n      jump\t// in\n    tag_93:\n        /* \"contracts/staking.sol\":3305:3376  earned() +accBeforeUpdate[msg.sender] - _rewardsWithdrawals[msg.sender] */\n      tag_94\n      swap2\n      swap1\n      tag_95\n      jump\t// in\n    tag_94:\n        /* \"contracts/staking.sol\":3305:3386  earned() +accBeforeUpdate[msg.sender] - _rewardsWithdrawals[msg.sender] < _amount */\n      lt\n        /* \"contracts/staking.sol\":3297:3424  require(earned() +accBeforeUpdate[msg.sender] - _rewardsWithdrawals[msg.sender] < _amount, \"You don't have enough to withdraw\") */\n      tag_96\n      jumpi\n      mload(0x40)\n      0x08c379a000000000000000000000000000000000000000000000000000000000\n      dup2\n      mstore\n      0x04\n      add\n      tag_97\n      swap1\n      tag_98\n      jump\t// in\n    tag_97:\n      mload(0x40)\n      dup1\n      swap2\n      sub\n      swap1\n      revert\n    tag_96:\n        /* \"contracts/staking.sol\":3442:3454  rewardsToken */\n      0x01\n      0x00\n      swap1\n      sload\n      swap1\n      0x0100\n      exp\n      swap1\n      div\n      0xffffffffffffffffffffffffffffffffffffffff\n      and\n        /* \"contracts/staking.sol\":3442:3463  rewardsToken.transfer */\n      0xffffffffffffffffffffffffffffffffffffffff\n      and\n      0xa9059cbb\n        /* \"contracts/staking.sol\":3464:3474  msg.sender */\n      caller\n        /* \"contracts/staking.sol\":3476:3483  _amount */\n      dup4\n        /* \"contracts/staking.sol\":3442:3484  rewardsToken.transfer(msg.sender, _amount) */\n      mload(0x40)\n      dup4\n      0xffffffff\n      and\n      0xe0\n      shl\n      dup2\n      mstore\n      0x04\n      add\n      tag_99\n      swap3\n      swap2\n      swap1\n      tag_100\n      jump\t// in\n    tag_99:\n      0x20\n      mload(0x40)\n      dup1\n      dup4\n      sub\n      dup2\n      0x00\n      dup8\n      gas\n      call\n      iszero\n      dup1\n      iszero\n      tag_102\n      jumpi\n      returndatasize\n      0x00\n      dup1\n      returndatacopy\n      revert(0x00, returndatasize)\n    tag_102:\n      pop\n      pop\n      pop\n      pop\n      mload(0x40)\n      returndatasize\n      not(0x1f)\n      0x1f\n      dup3\n      add\n      and\n      dup3\n      add\n      dup1\n      0x40\n      mstore\n      pop\n      dup2\n      add\n      swap1\n      tag_103\n      swap2\n      swap1\n      tag_104\n      jump\t// in\n    tag_103:\n        /* \"contracts/staking.sol\":3434:3514  require(rewardsToken.transfer(msg.sender, _amount), \"Failed to transfer tokens\") */\n      tag_105\n      jumpi\n      mload(0x40)\n      0x08c379a000000000000000000000000000000000000000000000000000000000\n      dup2\n      mstore\n      0x04\n      add\n      tag_106\n      swap1\n      tag_107\n      jump\t// in\n    tag_106:\n      mload(0x40)\n      dup1\n      swap2\n      sub\n      swap1\n      revert\n    tag_105:\n        /* \"contracts/staking.sol\":3559:3566  _amount */\n      dup1\n        /* \"contracts/staking.sol\":3524:3543  _rewardsWithdrawals */\n      0x09\n        /* \"contracts/staking.sol\":3524:3555  _rewardsWithdrawals[msg.sender] */\n      0x00\n        /* \"contracts/staking.sol\":3544:3554  msg.sender */\n      caller\n        /* \"contracts/staking.sol\":3524:3555  _rewardsWithdrawals[msg.sender] */\n      0xffffffffffffffffffffffffffffffffffffffff\n      and\n      0xffffffffffffffffffffffffffffffffffffffff\n      and\n      dup2\n      mstore\n      0x20\n      add\n      swap1\n      dup2\n      mstore\n      0x20\n      add\n      0x00\n      keccak256\n      0x00\n        /* \"contracts/staking.sol\":3524:3566  _rewardsWithdrawals[msg.sender] += _amount */\n      dup3\n      dup3\n      sload\n      tag_108\n      swap2\n      swap1\n      tag_84\n      jump\t// in\n    tag_108:\n      swap3\n      pop\n      pop\n      dup2\n      swap1\n      sstore\n      pop\n        /* \"contracts/staking.sol\":3102:3573  function withdrawReward(uint256 _amount) external{... */\n      pop\n      jump\t// out\n        /* \"contracts/staking.sol\":877:897  uint public finishAt */\n    tag_45:\n      sload(0x05)\n      dup2\n      jump\t// out\n        /* \"contracts/staking.sol\":700:726  IERC20 public stakingToken */\n    tag_48:\n      0x00\n      dup1\n      sload\n      swap1\n      0x0100\n      exp\n      swap1\n      div\n      0xffffffffffffffffffffffffffffffffffffffff\n      and\n      dup2\n      jump\t// out\n        /* \"contracts/staking.sol\":903:924  uint public updatedAt */\n    tag_52:\n      sload(0x06)\n      dup2\n      jump\t// out\n        /* \"contracts/staking.sol\":765:787  uint public totalStake */\n    tag_55:\n      sload(0x02)\n      dup2\n      jump\t// out\n        /* \"contracts/staking.sol\":2468:2618  function setRewardRate(uint256 _rate) external{... */\n    tag_59:\n        /* \"contracts/staking.sol\":2543:2558  block.timestamp */\n      timestamp\n        /* \"contracts/staking.sol\":2532:2540  finishAt */\n      sload(0x05)\n        /* \"contracts/staking.sol\":2532:2558  finishAt < block.timestamp */\n      lt\n        /* \"contracts/staking.sol\":2524:2588  require(finishAt < block.timestamp, \"Staking still in progress\") */\n      tag_110\n      jumpi\n      mload(0x40)\n      0x08c379a000000000000000000000000000000000000000000000000000000000\n      dup2\n      mstore\n      0x04\n      add\n      tag_111\n      swap1\n      tag_112\n      jump\t// in\n    tag_111:\n      mload(0x40)\n      dup1\n      swap2\n      sub\n      swap1\n      revert\n    tag_110:\n        /* \"contracts/staking.sol\":2606:2611  _rate */\n      dup1\n        /* \"contracts/staking.sol\":2599:2603  rate */\n      0x07\n        /* \"contracts/staking.sol\":2599:2611  rate = _rate */\n      dup2\n      swap1\n      sstore\n      pop\n        /* \"contracts/staking.sol\":2468:2618  function setRewardRate(uint256 _rate) external{... */\n      pop\n      jump\t// out\n        /* \"contracts/staking.sol\":2377:2462  function getDuration() view external returns(uint256){... */\n    tag_61:\n        /* \"contracts/staking.sol\":2422:2429  uint256 */\n      0x00\n        /* \"contracts/staking.sol\":2447:2455  duration */\n      sload(0x04)\n        /* \"contracts/staking.sol\":2440:2455  return duration */\n      swap1\n      pop\n        /* \"contracts/staking.sol\":2377:2462  function getDuration() view external returns(uint256){... */\n      swap1\n      jump\t// out\n        /* \"contracts/staking.sol\":2000:2104  function balance() external view returns (uint256){... */\n    tag_64:\n        /* \"contracts/staking.sol\":2042:2049  uint256 */\n      0x00\n        /* \"contracts/staking.sol\":2067:2075  _balance */\n      0x08\n        /* \"contracts/staking.sol\":2067:2087  _balance[msg.sender] */\n      0x00\n        /* \"contracts/staking.sol\":2076:2086  msg.sender */\n      caller\n        /* \"contracts/staking.sol\":2067:2087  _balance[msg.sender] */\n      0xffffffffffffffffffffffffffffffffffffffff\n      and\n      0xffffffffffffffffffffffffffffffffffffffff\n      and\n      dup2\n      mstore\n      0x20\n      add\n      swap1\n      dup2\n      mstore\n      0x20\n      add\n      0x00\n      keccak256\n        /* \"contracts/staking.sol\":2067:2097  _balance[msg.sender][\"amount\"] */\n      mload(0x40)\n      tag_115\n      swap1\n      tag_77\n      jump\t// in\n    tag_115:\n      swap1\n      dup2\n      mstore\n      0x20\n      add\n      mload(0x40)\n      dup1\n      swap2\n      sub\n      swap1\n      keccak256\n      sload\n        /* \"contracts/staking.sol\":2060:2097  return _balance[msg.sender][\"amount\"] */\n      swap1\n      pop\n        /* \"contracts/staking.sol\":2000:2104  function balance() external view returns (uint256){... */\n      swap1\n      jump\t// out\n        /* \"contracts/staking.sol\":1351:1995  function depositStake (uint amount) external {... */\n    tag_68:\n        /* \"contracts/staking.sol\":1452:1458  amount */\n      dup1\n        /* \"contracts/staking.sol\":1414:1426  stakingToken */\n      0x00\n      dup1\n      sload\n      swap1\n      0x0100\n      exp\n      swap1\n      div\n      0xffffffffffffffffffffffffffffffffffffffff\n      and\n        /* \"contracts/staking.sol\":1414:1436  stakingToken.balanceOf */\n      0xffffffffffffffffffffffffffffffffffffffff\n      and\n      0x70a08231\n        /* \"contracts/staking.sol\":1437:1447  msg.sender */\n      caller\n        /* \"contracts/staking.sol\":1414:1448  stakingToken.balanceOf(msg.sender) */\n      mload(0x40)\n      dup3\n      0xffffffff\n      and\n      0xe0\n      shl\n      dup2\n      mstore\n      0x04\n      add\n      tag_117\n      swap2\n      swap1\n      tag_118\n      jump\t// in\n    tag_117:\n      0x20\n      mload(0x40)\n      dup1\n      dup4\n      sub\n      dup2\n      dup7\n      gas\n      staticcall\n      iszero\n      dup1\n      iszero\n      tag_120\n      jumpi\n      returndatasize\n      0x00\n      dup1\n      returndatacopy\n      revert(0x00, returndatasize)\n    tag_120:\n      pop\n      pop\n      pop\n      pop\n      mload(0x40)\n      returndatasize\n      not(0x1f)\n      0x1f\n      dup3\n      add\n      and\n      dup3\n      add\n      dup1\n      0x40\n      mstore\n      pop\n      dup2\n      add\n      swap1\n      tag_121\n      swap2\n      swap1\n      tag_122\n      jump\t// in\n    tag_121:\n        /* \"contracts/staking.sol\":1414:1458  stakingToken.balanceOf(msg.sender) >= amount */\n      lt\n      iszero\n        /* \"contracts/staking.sol\":1406:1490  require(stakingToken.balanceOf(msg.sender) >= amount, \"Not enough tokens for stake\") */\n      tag_123\n      jumpi\n      mload(0x40)\n      0x08c379a000000000000000000000000000000000000000000000000000000000\n      dup2\n      mstore\n      0x04\n      add\n      tag_124\n      swap1\n      tag_125\n      jump\t// in\n    tag_124:\n      mload(0x40)\n      dup1\n      swap2\n      sub\n      swap1\n      revert\n    tag_123:\n        /* \"contracts/staking.sol\":1508:1520  stakingToken */\n      0x00\n      dup1\n      sload\n      swap1\n      0x0100\n      exp\n      swap1\n      div\n      0xffffffffffffffffffffffffffffffffffffffff\n      and\n        /* \"contracts/staking.sol\":1508:1533  stakingToken.transferFrom */\n      0xffffffffffffffffffffffffffffffffffffffff\n      and\n      0x23b872dd\n        /* \"contracts/staking.sol\":1534:1544  msg.sender */\n      caller\n        /* \"contracts/staking.sol\":1554:1558  this */\n      address\n        /* \"contracts/staking.sol\":1561:1567  amount */\n      dup5\n        /* \"contracts/staking.sol\":1508:1568  stakingToken.transferFrom(msg.sender, address(this), amount) */\n      mload(0x40)\n      dup5\n      0xffffffff\n      and\n      0xe0\n      shl\n      dup2\n      mstore\n      0x04\n      add\n      tag_126\n      swap4\n      swap3\n      swap2\n      swap1\n      tag_127\n      jump\t// in\n    tag_126:\n      0x20\n      mload(0x40)\n      dup1\n      dup4\n      sub\n      dup2\n      0x00\n      dup8\n      gas\n      call\n      iszero\n      dup1\n      iszero\n      tag_129\n      jumpi\n      returndatasize\n      0x00\n      dup1\n      returndatacopy\n      revert(0x00, returndatasize)\n    tag_129:\n      pop\n      pop\n      pop\n      pop\n      mload(0x40)\n      returndatasize\n      not(0x1f)\n      0x1f\n      dup3\n      add\n      and\n      dup3\n      add\n      dup1\n      0x40\n      mstore\n      pop\n      dup2\n      add\n      swap1\n      tag_130\n      swap2\n      swap1\n      tag_104\n      jump\t// in\n    tag_130:\n        /* \"contracts/staking.sol\":1500:1593  require(stakingToken.transferFrom(msg.sender, address(this), amount),\"Failed to stake token\") */\n      tag_131\n      jumpi\n      mload(0x40)\n      0x08c379a000000000000000000000000000000000000000000000000000000000\n      dup2\n      mstore\n      0x04\n      add\n      tag_132\n      swap1\n      tag_133\n      jump\t// in\n    tag_132:\n      mload(0x40)\n      dup1\n      swap2\n      sub\n      swap1\n      revert\n    tag_131:\n        /* \"contracts/staking.sol\":1645:1687  _balance[msg.sender][\"amount\"].add(amount) */\n      tag_134\n        /* \"contracts/staking.sol\":1680:1686  amount */\n      dup2\n        /* \"contracts/staking.sol\":1645:1653  _balance */\n      0x08\n        /* \"contracts/staking.sol\":1645:1665  _balance[msg.sender] */\n      0x00\n        /* \"contracts/staking.sol\":1654:1664  msg.sender */\n      caller\n        /* \"contracts/staking.sol\":1645:1665  _balance[msg.sender] */\n      0xffffffffffffffffffffffffffffffffffffffff\n      and\n      0xffffffffffffffffffffffffffffffffffffffff\n      and\n      dup2\n      mstore\n      0x20\n      add\n      swap1\n      dup2\n      mstore\n      0x20\n      add\n      0x00\n      keccak256\n        /* \"contracts/staking.sol\":1645:1675  _balance[msg.sender][\"amount\"] */\n      mload(0x40)\n      tag_135\n      swap1\n      tag_77\n      jump\t// in\n    tag_135:\n      swap1\n      dup2\n      mstore\n      0x20\n      add\n      mload(0x40)\n      dup1\n      swap2\n      sub\n      swap1\n      keccak256\n      sload\n        /* \"contracts/staking.sol\":1645:1679  _balance[msg.sender][\"amount\"].add */\n      tag_136\n      swap1\n        /* \"contracts/staking.sol\":1645:1687  _balance[msg.sender][\"amount\"].add(amount) */\n      swap2\n      swap1\n      0xffffffff\n      and\n      jump\t// in\n    tag_134:\n        /* \"contracts/staking.sol\":1612:1620  _balance */\n      0x08\n        /* \"contracts/staking.sol\":1612:1632  _balance[msg.sender] */\n      0x00\n        /* \"contracts/staking.sol\":1621:1631  msg.sender */\n      caller\n        /* \"contracts/staking.sol\":1612:1632  _balance[msg.sender] */\n      0xffffffffffffffffffffffffffffffffffffffff\n      and\n      0xffffffffffffffffffffffffffffffffffffffff\n      and\n      dup2\n      mstore\n      0x20\n      add\n      swap1\n      dup2\n      mstore\n      0x20\n      add\n      0x00\n      keccak256\n        /* \"contracts/staking.sol\":1612:1642  _balance[msg.sender][\"amount\"] */\n      mload(0x40)\n      tag_137\n      swap1\n      tag_77\n      jump\t// in\n    tag_137:\n      swap1\n      dup2\n      mstore\n      0x20\n      add\n      mload(0x40)\n      dup1\n      swap2\n      sub\n      swap1\n      keccak256\n        /* \"contracts/staking.sol\":1612:1687  _balance[msg.sender][\"amount\"] = _balance[msg.sender][\"amount\"].add(amount) */\n      dup2\n      swap1\n      sstore\n      pop\n        /* \"contracts/staking.sol\":1738:1739  0 */\n      0x00\n        /* \"contracts/staking.sol\":1701:1709  _balance */\n      0x08\n        /* \"contracts/staking.sol\":1701:1721  _balance[msg.sender] */\n      0x00\n        /* \"contracts/staking.sol\":1710:1720  msg.sender */\n      caller\n        /* \"contracts/staking.sol\":1701:1721  _balance[msg.sender] */\n      0xffffffffffffffffffffffffffffffffffffffff\n      and\n      0xffffffffffffffffffffffffffffffffffffffff\n      and\n      dup2\n      mstore\n      0x20\n      add\n      swap1\n      dup2\n      mstore\n      0x20\n      add\n      0x00\n      keccak256\n        /* \"contracts/staking.sol\":1701:1734  _balance[msg.sender][\"updatedAt\"] */\n      mload(0x40)\n      tag_138\n      swap1\n      tag_139\n      jump\t// in\n    tag_138:\n      swap1\n      dup2\n      mstore\n      0x20\n      add\n      mload(0x40)\n      dup1\n      swap2\n      sub\n      swap1\n      keccak256\n      sload\n        /* \"contracts/staking.sol\":1701:1739  _balance[msg.sender][\"updatedAt\"] == 0 */\n      sub\n        /* \"contracts/staking.sol\":1697:1944  if (_balance[msg.sender][\"updatedAt\"] == 0) {... */\n      tag_140\n      jumpi\n        /* \"contracts/staking.sol\":1786:1801  block.timestamp */\n      timestamp\n        /* \"contracts/staking.sol\":1751:1759  _balance */\n      0x08\n        /* \"contracts/staking.sol\":1751:1771  _balance[msg.sender] */\n      0x00\n        /* \"contracts/staking.sol\":1760:1770  msg.sender */\n      caller\n        /* \"contracts/staking.sol\":1751:1771  _balance[msg.sender] */\n      0xffffffffffffffffffffffffffffffffffffffff\n      and\n      0xffffffffffffffffffffffffffffffffffffffff\n      and\n      dup2\n      mstore\n      0x20\n      add\n      swap1\n      dup2\n      mstore\n      0x20\n      add\n      0x00\n      keccak256\n        /* \"contracts/staking.sol\":1751:1784  _balance[msg.sender][\"updatedAt\"] */\n      mload(0x40)\n      tag_141\n      swap1\n      tag_139\n      jump\t// in\n    tag_141:\n      swap1\n      dup2\n      mstore\n      0x20\n      add\n      mload(0x40)\n      dup1\n      swap2\n      sub\n      swap1\n      keccak256\n        /* \"contracts/staking.sol\":1751:1801  _balance[msg.sender][\"updatedAt\"]= block.timestamp */\n      dup2\n      swap1\n      sstore\n      pop\n        /* \"contracts/staking.sol\":1697:1944  if (_balance[msg.sender][\"updatedAt\"] == 0) {... */\n      jump(tag_142)\n    tag_140:\n        /* \"contracts/staking.sol\":1861:1869  earned() */\n      tag_143\n        /* \"contracts/staking.sol\":1861:1867  earned */\n      tag_82\n        /* \"contracts/staking.sol\":1861:1869  earned() */\n      jump\t// in\n    tag_143:\n        /* \"contracts/staking.sol\":1830:1845  accBeforeUpdate */\n      0x0a\n        /* \"contracts/staking.sol\":1830:1857  accBeforeUpdate[msg.sender] */\n      0x00\n        /* \"contracts/staking.sol\":1846:1856  msg.sender */\n      caller\n        /* \"contracts/staking.sol\":1830:1857  accBeforeUpdate[msg.sender] */\n      0xffffffffffffffffffffffffffffffffffffffff\n      and\n      0xffffffffffffffffffffffffffffffffffffffff\n      and\n      dup2\n      mstore\n      0x20\n      add\n      swap1\n      dup2\n      mstore\n      0x20\n      add\n      0x00\n      keccak256\n      0x00\n        /* \"contracts/staking.sol\":1830:1869  accBeforeUpdate[msg.sender] += earned() */\n      dup3\n      dup3\n      sload\n      tag_144\n      swap2\n      swap1\n      tag_84\n      jump\t// in\n    tag_144:\n      swap3\n      pop\n      pop\n      dup2\n      swap1\n      sstore\n      pop\n        /* \"contracts/staking.sol\":1918:1933  block.timestamp */\n      timestamp\n        /* \"contracts/staking.sol\":1883:1891  _balance */\n      0x08\n        /* \"contracts/staking.sol\":1883:1903  _balance[msg.sender] */\n      0x00\n        /* \"contracts/staking.sol\":1892:1902  msg.sender */\n      caller\n        /* \"contracts/staking.sol\":1883:1903  _balance[msg.sender] */\n      0xffffffffffffffffffffffffffffffffffffffff\n      and\n      0xffffffffffffffffffffffffffffffffffffffff\n      and\n      dup2\n      mstore\n      0x20\n      add\n      swap1\n      dup2\n      mstore\n      0x20\n      add\n      0x00\n      keccak256\n        /* \"contracts/staking.sol\":1883:1916  _balance[msg.sender][\"updatedAt\"] */\n      mload(0x40)\n      tag_145\n      swap1\n      tag_139\n      jump\t// in\n    tag_145:\n      swap1\n      dup2\n      mstore\n      0x20\n      add\n      mload(0x40)\n      dup1\n      swap2\n      sub\n      swap1\n      keccak256\n        /* \"contracts/staking.sol\":1883:1933  _balance[msg.sender][\"updatedAt\"]= block.timestamp */\n      dup2\n      swap1\n      sstore\n      pop\n        /* \"contracts/staking.sol\":1697:1944  if (_balance[msg.sender][\"updatedAt\"] == 0) {... */\n    tag_142:\n        /* \"contracts/staking.sol\":1966:1988  totalStake.add(amount) */\n      tag_146\n        /* \"contracts/staking.sol\":1981:1987  amount */\n      dup2\n        /* \"contracts/staking.sol\":1966:1976  totalStake */\n      sload(0x02)\n        /* \"contracts/staking.sol\":1966:1980  totalStake.add */\n      tag_136\n      swap1\n        /* \"contracts/staking.sol\":1966:1988  totalStake.add(amount) */\n      swap2\n      swap1\n      0xffffffff\n      and\n      jump\t// in\n    tag_146:\n        /* \"contracts/staking.sol\":1953:1963  totalStake */\n      0x02\n        /* \"contracts/staking.sol\":1953:1988  totalStake = totalStake.add(amount) */\n      dup2\n      swap1\n      sstore\n      pop\n        /* \"contracts/staking.sol\":1351:1995  function depositStake (uint amount) external {... */\n      pop\n      jump\t// out\n        /* \"contracts/staking.sol\":732:758  IERC20 public rewardsToken */\n    tag_70:\n      0x01\n      0x00\n      swap1\n      sload\n      swap1\n      0x0100\n      exp\n      swap1\n      div\n      0xffffffffffffffffffffffffffffffffffffffff\n      and\n      dup2\n      jump\t// out\n        /* \"contracts/staking.sol\":2110:2371  function setDuration(uint256 _duration) external{... */\n    tag_74:\n        /* \"contracts/staking.sol\":2187:2202  block.timestamp */\n      timestamp\n        /* \"contracts/staking.sol\":2176:2184  finishAt */\n      sload(0x05)\n        /* \"contracts/staking.sol\":2176:2202  finishAt < block.timestamp */\n      lt\n        /* \"contracts/staking.sol\":2168:2245  require(finishAt < block.timestamp, \"can't set date to a previous timestamp\") */\n      tag_148\n      jumpi\n      mload(0x40)\n      0x08c379a000000000000000000000000000000000000000000000000000000000\n      dup2\n      mstore\n      0x04\n      add\n      tag_149\n      swap1\n      tag_150\n      jump\t// in\n    tag_149:\n      mload(0x40)\n      dup1\n      swap2\n      sub\n      swap1\n      revert\n    tag_148:\n        /* \"contracts/staking.sol\":2267:2276  _duration */\n      dup1\n        /* \"contracts/staking.sol\":2256:2264  duration */\n      0x04\n        /* \"contracts/staking.sol\":2256:2276  duration = _duration */\n      dup2\n      swap1\n      sstore\n      pop\n        /* \"contracts/staking.sol\":2297:2327  _duration.add(block.timestamp) */\n      tag_151\n        /* \"contracts/staking.sol\":2311:2326  block.timestamp */\n      timestamp\n        /* \"contracts/staking.sol\":2297:2306  _duration */\n      dup3\n        /* \"contracts/staking.sol\":2297:2310  _duration.add */\n      tag_136\n      swap1\n        /* \"contracts/staking.sol\":2297:2327  _duration.add(block.timestamp) */\n      swap2\n      swap1\n      0xffffffff\n      and\n      jump\t// in\n    tag_151:\n        /* \"contracts/staking.sol\":2286:2294  finishAt */\n      0x05\n        /* \"contracts/staking.sol\":2286:2327  finishAt = _duration.add(block.timestamp) */\n      dup2\n      swap1\n      sstore\n      pop\n        /* \"contracts/staking.sol\":2349:2364  block.timestamp */\n      timestamp\n        /* \"contracts/staking.sol\":2337:2346  updatedAt */\n      0x06\n        /* \"contracts/staking.sol\":2337:2364  updatedAt = block.timestamp */\n      dup2\n      swap1\n      sstore\n      pop\n        /* \"contracts/staking.sol\":2110:2371  function setDuration(uint256 _duration) external{... */\n      pop\n      jump\t// out\n        /* \"contracts/staking.sol\":2624:2884  function earned() view private returns(uint256){... */\n    tag_82:\n        /* \"contracts/staking.sol\":2663:2670  uint256 */\n      0x00\n        /* \"contracts/staking.sol\":2722:2723  0 */\n      dup1\n        /* \"contracts/staking.sol\":2689:2697  _balance */\n      0x08\n        /* \"contracts/staking.sol\":2689:2709  _balance[msg.sender] */\n      0x00\n        /* \"contracts/staking.sol\":2698:2708  msg.sender */\n      caller\n        /* \"contracts/staking.sol\":2689:2709  _balance[msg.sender] */\n      0xffffffffffffffffffffffffffffffffffffffff\n      and\n      0xffffffffffffffffffffffffffffffffffffffff\n      and\n      dup2\n      mstore\n      0x20\n      add\n      swap1\n      dup2\n      mstore\n      0x20\n      add\n      0x00\n      keccak256\n        /* \"contracts/staking.sol\":2689:2719  _balance[msg.sender][\"amount\"] */\n      mload(0x40)\n      tag_153\n      swap1\n      tag_77\n      jump\t// in\n    tag_153:\n      swap1\n      dup2\n      mstore\n      0x20\n      add\n      mload(0x40)\n      dup1\n      swap2\n      sub\n      swap1\n      keccak256\n      sload\n        /* \"contracts/staking.sol\":2689:2723  _balance[msg.sender][\"amount\"] > 0 */\n      gt\n        /* \"contracts/staking.sol\":2681:2758  require(_balance[msg.sender][\"amount\"] > 0, \"You have not staked any tokens\") */\n      tag_154\n      jumpi\n      mload(0x40)\n      0x08c379a000000000000000000000000000000000000000000000000000000000\n      dup2\n      mstore\n      0x04\n      add\n      tag_155\n      swap1\n      tag_80\n      jump\t// in\n    tag_155:\n      mload(0x40)\n      dup1\n      swap2\n      sub\n      swap1\n      revert\n    tag_154:\n        /* \"contracts/staking.sol\":2842:2850  _balance */\n      0x08\n        /* \"contracts/staking.sol\":2842:2862  _balance[msg.sender] */\n      0x00\n        /* \"contracts/staking.sol\":2851:2861  msg.sender */\n      caller\n        /* \"contracts/staking.sol\":2842:2862  _balance[msg.sender] */\n      0xffffffffffffffffffffffffffffffffffffffff\n      and\n      0xffffffffffffffffffffffffffffffffffffffff\n      and\n      dup2\n      mstore\n      0x20\n      add\n      swap1\n      dup2\n      mstore\n      0x20\n      add\n      0x00\n      keccak256\n        /* \"contracts/staking.sol\":2842:2875  _balance[msg.sender][\"updatedAt\"] */\n      mload(0x40)\n      tag_156\n      swap1\n      tag_139\n      jump\t// in\n    tag_156:\n      swap1\n      dup2\n      mstore\n      0x20\n      add\n      mload(0x40)\n      dup1\n      swap2\n      sub\n      swap1\n      keccak256\n      sload\n        /* \"contracts/staking.sol\":2824:2839  block.timestamp */\n      timestamp\n        /* \"contracts/staking.sol\":2824:2875  block.timestamp - _balance[msg.sender][\"updatedAt\"] */\n      tag_157\n      swap2\n      swap1\n      tag_95\n      jump\t// in\n    tag_157:\n        /* \"contracts/staking.sol\":2816:2819  100 */\n      0x64\n        /* \"contracts/staking.sol\":2811:2815  rate */\n      sload(0x07)\n        /* \"contracts/staking.sol\":2811:2819  rate/100 */\n      tag_158\n      swap2\n      swap1\n      tag_159\n      jump\t// in\n    tag_158:\n        /* \"contracts/staking.sol\":2777:2785  _balance */\n      0x08\n        /* \"contracts/staking.sol\":2777:2797  _balance[msg.sender] */\n      0x00\n        /* \"contracts/staking.sol\":2786:2796  msg.sender */\n      caller\n        /* \"contracts/staking.sol\":2777:2797  _balance[msg.sender] */\n      0xffffffffffffffffffffffffffffffffffffffff\n      and\n      0xffffffffffffffffffffffffffffffffffffffff\n      and\n      dup2\n      mstore\n      0x20\n      add\n      swap1\n      dup2\n      mstore\n      0x20\n      add\n      0x00\n      keccak256\n        /* \"contracts/staking.sol\":2777:2807  _balance[msg.sender][\"amount\"] */\n      mload(0x40)\n      tag_160\n      swap1\n      tag_77\n      jump\t// in\n    tag_160:\n      swap1\n      dup2\n      mstore\n      0x20\n      add\n      mload(0x40)\n      dup1\n      swap2\n      sub\n      swap1\n      keccak256\n      sload\n        /* \"contracts/staking.sol\":2777:2820  _balance[msg.sender][\"amount\"] * (rate/100) */\n      tag_161\n      swap2\n      swap1\n      tag_162\n      jump\t// in\n    tag_161:\n        /* \"contracts/staking.sol\":2777:2876  _balance[msg.sender][\"amount\"] * (rate/100) * (block.timestamp - _balance[msg.sender][\"updatedAt\"]) */\n      tag_163\n      swap2\n      swap1\n      tag_162\n      jump\t// in\n    tag_163:\n        /* \"contracts/staking.sol\":2769:2877  return (_balance[msg.sender][\"amount\"] * (rate/100) * (block.timestamp - _balance[msg.sender][\"updatedAt\"])) */\n      swap1\n      pop\n        /* \"contracts/staking.sol\":2624:2884  function earned() view private returns(uint256){... */\n      swap1\n      jump\t// out\n        /* \"https://github.com/OpenZeppelin/openzeppelin-contracts/blob/master/contracts/utils/math/SafeMath.sol\":2755:2851  function add(uint256 a, uint256 b) internal pure returns (uint256) {... */\n    tag_136:\n        /* \"https://github.com/OpenZeppelin/openzeppelin-contracts/blob/master/contracts/utils/math/SafeMath.sol\":2813:2820  uint256 */\n      0x00\n        /* \"https://github.com/OpenZeppelin/openzeppelin-contracts/blob/master/contracts/utils/math/SafeMath.sol\":2843:2844  b */\n      dup2\n        /* \"https://github.com/OpenZeppelin/openzeppelin-contracts/blob/master/contracts/utils/math/SafeMath.sol\":2839:2840  a */\n      dup4\n        /* \"https://github.com/OpenZeppelin/openzeppelin-contracts/blob/master/contracts/utils/math/SafeMath.sol\":2839:2844  a + b */\n      tag_165\n      swap2\n      swap1\n      tag_84\n      jump\t// in\n    tag_165:\n        /* \"https://github.com/OpenZeppelin/openzeppelin-contracts/blob/master/contracts/utils/math/SafeMath.sol\":2832:2844  return a + b */\n      swap1\n      pop\n        /* \"https://github.com/OpenZeppelin/openzeppelin-contracts/blob/master/contracts/utils/math/SafeMath.sol\":2755:2851  function add(uint256 a, uint256 b) internal pure returns (uint256) {... */\n      swap3\n      swap2\n      pop\n      pop\n      jump\t// out\n        /* \"#utility.yul\":7:84   */\n    tag_166:\n        /* \"#utility.yul\":44:51   */\n      0x00\n        /* \"#utility.yul\":73:78   */\n      dup2\n        /* \"#utility.yul\":62:78   */\n      swap1\n      pop\n        /* \"#utility.yul\":7:84   */\n      swap2\n      swap1\n      pop\n      jump\t// out\n        /* \"#utility.yul\":90:208   */\n    tag_167:\n        /* \"#utility.yul\":177:201   */\n      tag_224\n        /* \"#utility.yul\":195:200   */\n      dup2\n        /* \"#utility.yul\":177:201   */\n      tag_166\n      jump\t// in\n    tag_224:\n        /* \"#utility.yul\":172:175   */\n      dup3\n        /* \"#utility.yul\":165:202   */\n      mstore\n        /* \"#utility.yul\":90:208   */\n      pop\n      pop\n      jump\t// out\n        /* \"#utility.yul\":214:436   */\n    tag_25:\n        /* \"#utility.yul\":307:311   */\n      0x00\n        /* \"#utility.yul\":345:347   */\n      0x20\n        /* \"#utility.yul\":334:343   */\n      dup3\n        /* \"#utility.yul\":330:348   */\n      add\n        /* \"#utility.yul\":322:348   */\n      swap1\n      pop\n        /* \"#utility.yul\":358:429   */\n      tag_226\n        /* \"#utility.yul\":426:427   */\n      0x00\n        /* \"#utility.yul\":415:424   */\n      dup4\n        /* \"#utility.yul\":411:428   */\n      add\n        /* \"#utility.yul\":402:408   */\n      dup5\n        /* \"#utility.yul\":358:429   */\n      tag_167\n      jump\t// in\n    tag_226:\n        /* \"#utility.yul\":214:436   */\n      swap3\n      swap2\n      pop\n      pop\n      jump\t// out\n        /* \"#utility.yul\":442:517   */\n    tag_168:\n        /* \"#utility.yul\":475:481   */\n      0x00\n        /* \"#utility.yul\":508:510   */\n      0x40\n        /* \"#utility.yul\":502:511   */\n      mload\n        /* \"#utility.yul\":492:511   */\n      swap1\n      pop\n        /* \"#utility.yul\":442:517   */\n      swap1\n      jump\t// out\n        /* \"#utility.yul\":523:640   */\n    tag_169:\n        /* \"#utility.yul\":632:633   */\n      0x00\n        /* \"#utility.yul\":629:630   */\n      dup1\n        /* \"#utility.yul\":622:634   */\n      revert\n        /* \"#utility.yul\":646:763   */\n    tag_170:\n        /* \"#utility.yul\":755:756   */\n      0x00\n        /* \"#utility.yul\":752:753   */\n      dup1\n        /* \"#utility.yul\":745:757   */\n      revert\n        /* \"#utility.yul\":769:895   */\n    tag_171:\n        /* \"#utility.yul\":806:813   */\n      0x00\n        /* \"#utility.yul\":846:888   */\n      0xffffffffffffffffffffffffffffffffffffffff\n        /* \"#utility.yul\":839:844   */\n      dup3\n        /* \"#utility.yul\":835:889   */\n      and\n        /* \"#utility.yul\":824:889   */\n      swap1\n      pop\n        /* \"#utility.yul\":769:895   */\n      swap2\n      swap1\n      pop\n      jump\t// out\n        /* \"#utility.yul\":901:997   */\n    tag_172:\n        /* \"#utility.yul\":938:945   */\n      0x00\n        /* \"#utility.yul\":967:991   */\n      tag_232\n        /* \"#utility.yul\":985:990   */\n      dup3\n        /* \"#utility.yul\":967:991   */\n      tag_171\n      jump\t// in\n    tag_232:\n        /* \"#utility.yul\":956:991   */\n      swap1\n      pop\n        /* \"#utility.yul\":901:997   */\n      swap2\n      swap1\n      pop\n      jump\t// out\n        /* \"#utility.yul\":1003:1125   */\n    tag_173:\n        /* \"#utility.yul\":1076:1100   */\n      tag_234\n        /* \"#utility.yul\":1094:1099   */\n      dup2\n        /* \"#utility.yul\":1076:1100   */\n      tag_172\n      jump\t// in\n    tag_234:\n        /* \"#utility.yul\":1069:1074   */\n      dup2\n        /* \"#utility.yul\":1066:1101   */\n      eq\n        /* \"#utility.yul\":1056:1119   */\n      tag_235\n      jumpi\n        /* \"#utility.yul\":1115:1116   */\n      0x00\n        /* \"#utility.yul\":1112:1113   */\n      dup1\n        /* \"#utility.yul\":1105:1117   */\n      revert\n        /* \"#utility.yul\":1056:1119   */\n    tag_235:\n        /* \"#utility.yul\":1003:1125   */\n      pop\n      jump\t// out\n        /* \"#utility.yul\":1131:1270   */\n    tag_174:\n        /* \"#utility.yul\":1177:1182   */\n      0x00\n        /* \"#utility.yul\":1215:1221   */\n      dup2\n        /* \"#utility.yul\":1202:1222   */\n      calldataload\n        /* \"#utility.yul\":1193:1222   */\n      swap1\n      pop\n        /* \"#utility.yul\":1231:1264   */\n      tag_237\n        /* \"#utility.yul\":1258:1263   */\n      dup2\n        /* \"#utility.yul\":1231:1264   */\n      tag_173\n      jump\t// in\n    tag_237:\n        /* \"#utility.yul\":1131:1270   */\n      swap3\n      swap2\n      pop\n      pop\n      jump\t// out\n        /* \"#utility.yul\":1276:1393   */\n    tag_175:\n        /* \"#utility.yul\":1385:1386   */\n      0x00\n        /* \"#utility.yul\":1382:1383   */\n      dup1\n        /* \"#utility.yul\":1375:1387   */\n      revert\n        /* \"#utility.yul\":1399:1516   */\n    tag_176:\n        /* \"#utility.yul\":1508:1509   */\n      0x00\n        /* \"#utility.yul\":1505:1506   */\n      dup1\n        /* \"#utility.yul\":1498:1510   */\n      revert\n        /* \"#utility.yul\":1522:1624   */\n    tag_177:\n        /* \"#utility.yul\":1563:1569   */\n      0x00\n        /* \"#utility.yul\":1614:1616   */\n      0x1f\n        /* \"#utility.yul\":1610:1617   */\n      not\n        /* \"#utility.yul\":1605:1607   */\n      0x1f\n        /* \"#utility.yul\":1598:1603   */\n      dup4\n        /* \"#utility.yul\":1594:1608   */\n      add\n        /* \"#utility.yul\":1590:1618   */\n      and\n        /* \"#utility.yul\":1580:1618   */\n      swap1\n      pop\n        /* \"#utility.yul\":1522:1624   */\n      swap2\n      swap1\n      pop\n      jump\t// out\n        /* \"#utility.yul\":1630:1810   */\n    tag_178:\n        /* \"#utility.yul\":1678:1755   */\n      0x4e487b7100000000000000000000000000000000000000000000000000000000\n        /* \"#utility.yul\":1675:1676   */\n      0x00\n        /* \"#utility.yul\":1668:1756   */\n      mstore\n        /* \"#utility.yul\":1775:1779   */\n      0x41\n        /* \"#utility.yul\":1772:1773   */\n      0x04\n        /* \"#utility.yul\":1765:1780   */\n      mstore\n        /* \"#utility.yul\":1799:1803   */\n      0x24\n        /* \"#utility.yul\":1796:1797   */\n      0x00\n        /* \"#utility.yul\":1789:1804   */\n      revert\n        /* \"#utility.yul\":1816:2097   */\n    tag_179:\n        /* \"#utility.yul\":1899:1926   */\n      tag_243\n        /* \"#utility.yul\":1921:1925   */\n      dup3\n        /* \"#utility.yul\":1899:1926   */\n      tag_177\n      jump\t// in\n    tag_243:\n        /* \"#utility.yul\":1891:1897   */\n      dup2\n        /* \"#utility.yul\":1887:1927   */\n      add\n        /* \"#utility.yul\":2029:2035   */\n      dup2\n        /* \"#utility.yul\":2017:2027   */\n      dup2\n        /* \"#utility.yul\":2014:2036   */\n      lt\n        /* \"#utility.yul\":1993:2011   */\n      0xffffffffffffffff\n        /* \"#utility.yul\":1981:1991   */\n      dup3\n        /* \"#utility.yul\":1978:2012   */\n      gt\n        /* \"#utility.yul\":1975:2037   */\n      or\n        /* \"#utility.yul\":1972:2060   */\n      iszero\n      tag_244\n      jumpi\n        /* \"#utility.yul\":2040:2058   */\n      tag_245\n      tag_178\n      jump\t// in\n    tag_245:\n        /* \"#utility.yul\":1972:2060   */\n    tag_244:\n        /* \"#utility.yul\":2080:2090   */\n      dup1\n        /* \"#utility.yul\":2076:2078   */\n      0x40\n        /* \"#utility.yul\":2069:2091   */\n      mstore\n        /* \"#utility.yul\":1859:2097   */\n      pop\n        /* \"#utility.yul\":1816:2097   */\n      pop\n      pop\n      jump\t// out\n        /* \"#utility.yul\":2103:2232   */\n    tag_180:\n        /* \"#utility.yul\":2137:2143   */\n      0x00\n        /* \"#utility.yul\":2164:2184   */\n      tag_247\n      tag_168\n      jump\t// in\n    tag_247:\n        /* \"#utility.yul\":2154:2184   */\n      swap1\n      pop\n        /* \"#utility.yul\":2193:2226   */\n      tag_248\n        /* \"#utility.yul\":2221:2225   */\n      dup3\n        /* \"#utility.yul\":2213:2219   */\n      dup3\n        /* \"#utility.yul\":2193:2226   */\n      tag_179\n      jump\t// in\n    tag_248:\n        /* \"#utility.yul\":2103:2232   */\n      swap2\n      swap1\n      pop\n      jump\t// out\n        /* \"#utility.yul\":2238:2546   */\n    tag_181:\n        /* \"#utility.yul\":2300:2304   */\n      0x00\n        /* \"#utility.yul\":2390:2408   */\n      0xffffffffffffffff\n        /* \"#utility.yul\":2382:2388   */\n      dup3\n        /* \"#utility.yul\":2379:2409   */\n      gt\n        /* \"#utility.yul\":2376:2432   */\n      iszero\n      tag_250\n      jumpi\n        /* \"#utility.yul\":2412:2430   */\n      tag_251\n      tag_178\n      jump\t// in\n    tag_251:\n        /* \"#utility.yul\":2376:2432   */\n    tag_250:\n        /* \"#utility.yul\":2450:2479   */\n      tag_252\n        /* \"#utility.yul\":2472:2478   */\n      dup3\n        /* \"#utility.yul\":2450:2479   */\n      tag_177\n      jump\t// in\n    tag_252:\n        /* \"#utility.yul\":2442:2479   */\n      swap1\n      pop\n        /* \"#utility.yul\":2534:2538   */\n      0x20\n        /* \"#utility.yul\":2528:2532   */\n      dup2\n        /* \"#utility.yul\":2524:2539   */\n      add\n        /* \"#utility.yul\":2516:2539   */\n      swap1\n      pop\n        /* \"#utility.yul\":2238:2546   */\n      swap2\n      swap1\n      pop\n      jump\t// out\n        /* \"#utility.yul\":2552:2698   */\n    tag_182:\n        /* \"#utility.yul\":2649:2655   */\n      dup3\n        /* \"#utility.yul\":2644:2647   */\n      dup2\n        /* \"#utility.yul\":2639:2642   */\n      dup4\n        /* \"#utility.yul\":2626:2656   */\n      calldatacopy\n        /* \"#utility.yul\":2690:2691   */\n      0x00\n        /* \"#utility.yul\":2681:2687   */\n      dup4\n        /* \"#utility.yul\":2676:2679   */\n      dup4\n        /* \"#utility.yul\":2672:2688   */\n      add\n        /* \"#utility.yul\":2665:2692   */\n      mstore\n        /* \"#utility.yul\":2552:2698   */\n      pop\n      pop\n      pop\n      jump\t// out\n        /* \"#utility.yul\":2704:3129   */\n    tag_183:\n        /* \"#utility.yul\":2782:2787   */\n      0x00\n        /* \"#utility.yul\":2807:2873   */\n      tag_255\n        /* \"#utility.yul\":2823:2872   */\n      tag_256\n        /* \"#utility.yul\":2865:2871   */\n      dup5\n        /* \"#utility.yul\":2823:2872   */\n      tag_181\n      jump\t// in\n    tag_256:\n        /* \"#utility.yul\":2807:2873   */\n      tag_180\n      jump\t// in\n    tag_255:\n        /* \"#utility.yul\":2798:2873   */\n      swap1\n      pop\n        /* \"#utility.yul\":2896:2902   */\n      dup3\n        /* \"#utility.yul\":2889:2894   */\n      dup2\n        /* \"#utility.yul\":2882:2903   */\n      mstore\n        /* \"#utility.yul\":2934:2938   */\n      0x20\n        /* \"#utility.yul\":2927:2932   */\n      dup2\n        /* \"#utility.yul\":2923:2939   */\n      add\n        /* \"#utility.yul\":2972:2975   */\n      dup5\n        /* \"#utility.yul\":2963:2969   */\n      dup5\n        /* \"#utility.yul\":2958:2961   */\n      dup5\n        /* \"#utility.yul\":2954:2970   */\n      add\n        /* \"#utility.yul\":2951:2976   */\n      gt\n        /* \"#utility.yul\":2948:3060   */\n      iszero\n      tag_257\n      jumpi\n        /* \"#utility.yul\":2979:3058   */\n      tag_258\n      tag_176\n      jump\t// in\n    tag_258:\n        /* \"#utility.yul\":2948:3060   */\n    tag_257:\n        /* \"#utility.yul\":3069:3123   */\n      tag_259\n        /* \"#utility.yul\":3116:3122   */\n      dup5\n        /* \"#utility.yul\":3111:3114   */\n      dup3\n        /* \"#utility.yul\":3106:3109   */\n      dup6\n        /* \"#utility.yul\":3069:3123   */\n      tag_182\n      jump\t// in\n    tag_259:\n        /* \"#utility.yul\":2788:3129   */\n      pop\n        /* \"#utility.yul\":2704:3129   */\n      swap4\n      swap3\n      pop\n      pop\n      pop\n      jump\t// out\n        /* \"#utility.yul\":3149:3489   */\n    tag_184:\n        /* \"#utility.yul\":3205:3210   */\n      0x00\n        /* \"#utility.yul\":3254:3257   */\n      dup3\n        /* \"#utility.yul\":3247:3251   */\n      0x1f\n        /* \"#utility.yul\":3239:3245   */\n      dup4\n        /* \"#utility.yul\":3235:3252   */\n      add\n        /* \"#utility.yul\":3231:3258   */\n      slt\n        /* \"#utility.yul\":3221:3343   */\n      tag_261\n      jumpi\n        /* \"#utility.yul\":3262:3341   */\n      tag_262\n      tag_175\n      jump\t// in\n    tag_262:\n        /* \"#utility.yul\":3221:3343   */\n    tag_261:\n        /* \"#utility.yul\":3379:3385   */\n      dup2\n        /* \"#utility.yul\":3366:3386   */\n      calldataload\n        /* \"#utility.yul\":3404:3483   */\n      tag_263\n        /* \"#utility.yul\":3479:3482   */\n      dup5\n        /* \"#utility.yul\":3471:3477   */\n      dup3\n        /* \"#utility.yul\":3464:3468   */\n      0x20\n        /* \"#utility.yul\":3456:3462   */\n      dup7\n        /* \"#utility.yul\":3452:3469   */\n      add\n        /* \"#utility.yul\":3404:3483   */\n      tag_183\n      jump\t// in\n    tag_263:\n        /* \"#utility.yul\":3395:3483   */\n      swap2\n      pop\n        /* \"#utility.yul\":3211:3489   */\n      pop\n        /* \"#utility.yul\":3149:3489   */\n      swap3\n      swap2\n      pop\n      pop\n      jump\t// out\n        /* \"#utility.yul\":3495:4149   */\n    tag_37:\n        /* \"#utility.yul\":3573:3579   */\n      0x00\n        /* \"#utility.yul\":3581:3587   */\n      dup1\n        /* \"#utility.yul\":3630:3632   */\n      0x40\n        /* \"#utility.yul\":3618:3627   */\n      dup4\n        /* \"#utility.yul\":3609:3616   */\n      dup6\n        /* \"#utility.yul\":3605:3628   */\n      sub\n        /* \"#utility.yul\":3601:3633   */\n      slt\n        /* \"#utility.yul\":3598:3717   */\n      iszero\n      tag_265\n      jumpi\n        /* \"#utility.yul\":3636:3715   */\n      tag_266\n      tag_169\n      jump\t// in\n    tag_266:\n        /* \"#utility.yul\":3598:3717   */\n    tag_265:\n        /* \"#utility.yul\":3756:3757   */\n      0x00\n        /* \"#utility.yul\":3781:3834   */\n      tag_267\n        /* \"#utility.yul\":3826:3833   */\n      dup6\n        /* \"#utility.yul\":3817:3823   */\n      dup3\n        /* \"#utility.yul\":3806:3815   */\n      dup7\n        /* \"#utility.yul\":3802:3824   */\n      add\n        /* \"#utility.yul\":3781:3834   */\n      tag_174\n      jump\t// in\n    tag_267:\n        /* \"#utility.yul\":3771:3834   */\n      swap3\n      pop\n        /* \"#utility.yul\":3727:3844   */\n      pop\n        /* \"#utility.yul\":3911:3913   */\n      0x20\n        /* \"#utility.yul\":3900:3909   */\n      dup4\n        /* \"#utility.yul\":3896:3914   */\n      add\n        /* \"#utility.yul\":3883:3915   */\n      calldataload\n        /* \"#utility.yul\":3942:3960   */\n      0xffffffffffffffff\n        /* \"#utility.yul\":3934:3940   */\n      dup2\n        /* \"#utility.yul\":3931:3961   */\n      gt\n        /* \"#utility.yul\":3928:4045   */\n      iszero\n      tag_268\n      jumpi\n        /* \"#utility.yul\":3964:4043   */\n      tag_269\n      tag_170\n      jump\t// in\n    tag_269:\n        /* \"#utility.yul\":3928:4045   */\n    tag_268:\n        /* \"#utility.yul\":4069:4132   */\n      tag_270\n        /* \"#utility.yul\":4124:4131   */\n      dup6\n        /* \"#utility.yul\":4115:4121   */\n      dup3\n        /* \"#utility.yul\":4104:4113   */\n      dup7\n        /* \"#utility.yul\":4100:4122   */\n      add\n        /* \"#utility.yul\":4069:4132   */\n      tag_184\n      jump\t// in\n    tag_270:\n        /* \"#utility.yul\":4059:4132   */\n      swap2\n      pop\n        /* \"#utility.yul\":3854:4142   */\n      pop\n        /* \"#utility.yul\":3495:4149   */\n      swap3\n      pop\n      swap3\n      swap1\n      pop\n      jump\t// out\n        /* \"#utility.yul\":4155:4277   */\n    tag_185:\n        /* \"#utility.yul\":4228:4252   */\n      tag_272\n        /* \"#utility.yul\":4246:4251   */\n      dup2\n        /* \"#utility.yul\":4228:4252   */\n      tag_166\n      jump\t// in\n    tag_272:\n        /* \"#utility.yul\":4221:4226   */\n      dup2\n        /* \"#utility.yul\":4218:4253   */\n      eq\n        /* \"#utility.yul\":4208:4271   */\n      tag_273\n      jumpi\n        /* \"#utility.yul\":4267:4268   */\n      0x00\n        /* \"#utility.yul\":4264:4265   */\n      dup1\n        /* \"#utility.yul\":4257:4269   */\n      revert\n        /* \"#utility.yul\":4208:4271   */\n    tag_273:\n        /* \"#utility.yul\":4155:4277   */\n      pop\n      jump\t// out\n        /* \"#utility.yul\":4283:4422   */\n    tag_186:\n        /* \"#utility.yul\":4329:4334   */\n      0x00\n        /* \"#utility.yul\":4367:4373   */\n      dup2\n        /* \"#utility.yul\":4354:4374   */\n      calldataload\n        /* \"#utility.yul\":4345:4374   */\n      swap1\n      pop\n        /* \"#utility.yul\":4383:4416   */\n      tag_275\n        /* \"#utility.yul\":4410:4415   */\n      dup2\n        /* \"#utility.yul\":4383:4416   */\n      tag_185\n      jump\t// in\n    tag_275:\n        /* \"#utility.yul\":4283:4422   */\n      swap3\n      swap2\n      pop\n      pop\n      jump\t// out\n        /* \"#utility.yul\":4428:4757   */\n    tag_42:\n        /* \"#utility.yul\":4487:4493   */\n      0x00\n        /* \"#utility.yul\":4536:4538   */\n      0x20\n        /* \"#utility.yul\":4524:4533   */\n      dup3\n        /* \"#utility.yul\":4515:4522   */\n      dup5\n        /* \"#utility.yul\":4511:4534   */\n      sub\n        /* \"#utility.yul\":4507:4539   */\n      slt\n        /* \"#utility.yul\":4504:4623   */\n      iszero\n      tag_277\n      jumpi\n        /* \"#utility.yul\":4542:4621   */\n      tag_278\n      tag_169\n      jump\t// in\n    tag_278:\n        /* \"#utility.yul\":4504:4623   */\n    tag_277:\n        /* \"#utility.yul\":4662:4663   */\n      0x00\n        /* \"#utility.yul\":4687:4740   */\n      tag_279\n        /* \"#utility.yul\":4732:4739   */\n      dup5\n        /* \"#utility.yul\":4723:4729   */\n      dup3\n        /* \"#utility.yul\":4712:4721   */\n      dup6\n        /* \"#utility.yul\":4708:4730   */\n      add\n        /* \"#utility.yul\":4687:4740   */\n      tag_186\n      jump\t// in\n    tag_279:\n        /* \"#utility.yul\":4677:4740   */\n      swap2\n      pop\n        /* \"#utility.yul\":4633:4750   */\n      pop\n        /* \"#utility.yul\":4428:4757   */\n      swap3\n      swap2\n      pop\n      pop\n      jump\t// out\n        /* \"#utility.yul\":4763:4823   */\n    tag_187:\n        /* \"#utility.yul\":4791:4794   */\n      0x00\n        /* \"#utility.yul\":4812:4817   */\n      dup2\n        /* \"#utility.yul\":4805:4817   */\n      swap1\n      pop\n        /* \"#utility.yul\":4763:4823   */\n      swap2\n      swap1\n      pop\n      jump\t// out\n        /* \"#utility.yul\":4829:4971   */\n    tag_188:\n        /* \"#utility.yul\":4879:4888   */\n      0x00\n        /* \"#utility.yul\":4912:4965   */\n      tag_282\n        /* \"#utility.yul\":4930:4964   */\n      tag_283\n        /* \"#utility.yul\":4939:4963   */\n      tag_284\n        /* \"#utility.yul\":4957:4962   */\n      dup5\n        /* \"#utility.yul\":4939:4963   */\n      tag_171\n      jump\t// in\n    tag_284:\n        /* \"#utility.yul\":4930:4964   */\n      tag_187\n      jump\t// in\n    tag_283:\n        /* \"#utility.yul\":4912:4965   */\n      tag_171\n      jump\t// in\n    tag_282:\n        /* \"#utility.yul\":4899:4965   */\n      swap1\n      pop\n        /* \"#utility.yul\":4829:4971   */\n      swap2\n      swap1\n      pop\n      jump\t// out\n        /* \"#utility.yul\":4977:5103   */\n    tag_189:\n        /* \"#utility.yul\":5027:5036   */\n      0x00\n        /* \"#utility.yul\":5060:5097   */\n      tag_286\n        /* \"#utility.yul\":5091:5096   */\n      dup3\n        /* \"#utility.yul\":5060:5097   */\n      tag_188\n      jump\t// in\n    tag_286:\n        /* \"#utility.yul\":5047:5097   */\n      swap1\n      pop\n        /* \"#utility.yul\":4977:5103   */\n      swap2\n      swap1\n      pop\n      jump\t// out\n        /* \"#utility.yul\":5109:5249   */\n    tag_190:\n        /* \"#utility.yul\":5173:5182   */\n      0x00\n        /* \"#utility.yul\":5206:5243   */\n      tag_288\n        /* \"#utility.yul\":5237:5242   */\n      dup3\n        /* \"#utility.yul\":5206:5243   */\n      tag_189\n      jump\t// in\n    tag_288:\n        /* \"#utility.yul\":5193:5243   */\n      swap1\n      pop\n        /* \"#utility.yul\":5109:5249   */\n      swap2\n      swap1\n      pop\n      jump\t// out\n        /* \"#utility.yul\":5255:5414   */\n    tag_191:\n        /* \"#utility.yul\":5356:5407   */\n      tag_290\n        /* \"#utility.yul\":5401:5406   */\n      dup2\n        /* \"#utility.yul\":5356:5407   */\n      tag_190\n      jump\t// in\n    tag_290:\n        /* \"#utility.yul\":5351:5354   */\n      dup3\n        /* \"#utility.yul\":5344:5408   */\n      mstore\n        /* \"#utility.yul\":5255:5414   */\n      pop\n      pop\n      jump\t// out\n        /* \"#utility.yul\":5420:5670   */\n    tag_50:\n        /* \"#utility.yul\":5527:5531   */\n      0x00\n        /* \"#utility.yul\":5565:5567   */\n      0x20\n        /* \"#utility.yul\":5554:5563   */\n      dup3\n        /* \"#utility.yul\":5550:5568   */\n      add\n        /* \"#utility.yul\":5542:5568   */\n      swap1\n      pop\n        /* \"#utility.yul\":5578:5663   */\n      tag_292\n        /* \"#utility.yul\":5660:5661   */\n      0x00\n        /* \"#utility.yul\":5649:5658   */\n      dup4\n        /* \"#utility.yul\":5645:5662   */\n      add\n        /* \"#utility.yul\":5636:5642   */\n      dup5\n        /* \"#utility.yul\":5578:5663   */\n      tag_191\n      jump\t// in\n    tag_292:\n        /* \"#utility.yul\":5420:5670   */\n      swap3\n      swap2\n      pop\n      pop\n      jump\t// out\n        /* \"#utility.yul\":5676:5824   */\n    tag_192:\n        /* \"#utility.yul\":5778:5789   */\n      0x00\n        /* \"#utility.yul\":5815:5818   */\n      dup2\n        /* \"#utility.yul\":5800:5818   */\n      swap1\n      pop\n        /* \"#utility.yul\":5676:5824   */\n      swap3\n      swap2\n      pop\n      pop\n      jump\t// out\n        /* \"#utility.yul\":5830:5986   */\n    tag_193:\n        /* \"#utility.yul\":5970:5978   */\n      0x616d6f756e740000000000000000000000000000000000000000000000000000\n        /* \"#utility.yul\":5966:5967   */\n      0x00\n        /* \"#utility.yul\":5958:5964   */\n      dup3\n        /* \"#utility.yul\":5954:5968   */\n      add\n        /* \"#utility.yul\":5947:5979   */\n      mstore\n        /* \"#utility.yul\":5830:5986   */\n      pop\n      jump\t// out\n        /* \"#utility.yul\":5992:6392   */\n    tag_194:\n        /* \"#utility.yul\":6152:6155   */\n      0x00\n        /* \"#utility.yul\":6173:6257   */\n      tag_296\n        /* \"#utility.yul\":6255:6256   */\n      0x06\n        /* \"#utility.yul\":6250:6253   */\n      dup4\n        /* \"#utility.yul\":6173:6257   */\n      tag_192\n      jump\t// in\n    tag_296:\n        /* \"#utility.yul\":6166:6257   */\n      swap2\n      pop\n        /* \"#utility.yul\":6266:6359   */\n      tag_297\n        /* \"#utility.yul\":6355:6358   */\n      dup3\n        /* \"#utility.yul\":6266:6359   */\n      tag_193\n      jump\t// in\n    tag_297:\n        /* \"#utility.yul\":6384:6385   */\n      0x06\n        /* \"#utility.yul\":6379:6382   */\n      dup3\n        /* \"#utility.yul\":6375:6386   */\n      add\n        /* \"#utility.yul\":6368:6386   */\n      swap1\n      pop\n        /* \"#utility.yul\":5992:6392   */\n      swap2\n      swap1\n      pop\n      jump\t// out\n        /* \"#utility.yul\":6398:6779   */\n    tag_77:\n        /* \"#utility.yul\":6583:6586   */\n      0x00\n        /* \"#utility.yul\":6605:6753   */\n      tag_299\n        /* \"#utility.yul\":6749:6752   */\n      dup3\n        /* \"#utility.yul\":6605:6753   */\n      tag_194\n      jump\t// in\n    tag_299:\n        /* \"#utility.yul\":6598:6753   */\n      swap2\n      pop\n        /* \"#utility.yul\":6770:6773   */\n      dup2\n        /* \"#utility.yul\":6763:6773   */\n      swap1\n      pop\n        /* \"#utility.yul\":6398:6779   */\n      swap2\n      swap1\n      pop\n      jump\t// out\n        /* \"#utility.yul\":6785:6954   */\n    tag_195:\n        /* \"#utility.yul\":6869:6880   */\n      0x00\n        /* \"#utility.yul\":6903:6909   */\n      dup3\n        /* \"#utility.yul\":6898:6901   */\n      dup3\n        /* \"#utility.yul\":6891:6910   */\n      mstore\n        /* \"#utility.yul\":6943:6947   */\n      0x20\n        /* \"#utility.yul\":6938:6941   */\n      dup3\n        /* \"#utility.yul\":6934:6948   */\n      add\n        /* \"#utility.yul\":6919:6948   */\n      swap1\n      pop\n        /* \"#utility.yul\":6785:6954   */\n      swap3\n      swap2\n      pop\n      pop\n      jump\t// out\n        /* \"#utility.yul\":6960:7140   */\n    tag_196:\n        /* \"#utility.yul\":7100:7132   */\n      0x596f752068617665206e6f74207374616b656420616e7920746f6b656e730000\n        /* \"#utility.yul\":7096:7097   */\n      0x00\n        /* \"#utility.yul\":7088:7094   */\n      dup3\n        /* \"#utility.yul\":7084:7098   */\n      add\n        /* \"#utility.yul\":7077:7133   */\n      mstore\n        /* \"#utility.yul\":6960:7140   */\n      pop\n      jump\t// out\n        /* \"#utility.yul\":7146:7512   */\n    tag_197:\n        /* \"#utility.yul\":7288:7291   */\n      0x00\n        /* \"#utility.yul\":7309:7376   */\n      tag_303\n        /* \"#utility.yul\":7373:7375   */\n      0x1e\n        /* \"#utility.yul\":7368:7371   */\n      dup4\n        /* \"#utility.yul\":7309:7376   */\n      tag_195\n      jump\t// in\n    tag_303:\n        /* \"#utility.yul\":7302:7376   */\n      swap2\n      pop\n        /* \"#utility.yul\":7385:7478   */\n      tag_304\n        /* \"#utility.yul\":7474:7477   */\n      dup3\n        /* \"#utility.yul\":7385:7478   */\n      tag_196\n      jump\t// in\n    tag_304:\n        /* \"#utility.yul\":7503:7505   */\n      0x20\n        /* \"#utility.yul\":7498:7501   */\n      dup3\n        /* \"#utility.yul\":7494:7506   */\n      add\n        /* \"#utility.yul\":7487:7506   */\n      swap1\n      pop\n        /* \"#utility.yul\":7146:7512   */\n      swap2\n      swap1\n      pop\n      jump\t// out\n        /* \"#utility.yul\":7518:7937   */\n    tag_80:\n        /* \"#utility.yul\":7684:7688   */\n      0x00\n        /* \"#utility.yul\":7722:7724   */\n      0x20\n        /* \"#utility.yul\":7711:7720   */\n      dup3\n        /* \"#utility.yul\":7707:7725   */\n      add\n        /* \"#utility.yul\":7699:7725   */\n      swap1\n      pop\n        /* \"#utility.yul\":7771:7780   */\n      dup2\n        /* \"#utility.yul\":7765:7769   */\n      dup2\n        /* \"#utility.yul\":7761:7781   */\n      sub\n        /* \"#utility.yul\":7757:7758   */\n      0x00\n        /* \"#utility.yul\":7746:7755   */\n      dup4\n        /* \"#utility.yul\":7742:7759   */\n      add\n        /* \"#utility.yul\":7735:7782   */\n      mstore\n        /* \"#utility.yul\":7799:7930   */\n      tag_306\n        /* \"#utility.yul\":7925:7929   */\n      dup2\n        /* \"#utility.yul\":7799:7930   */\n      tag_197\n      jump\t// in\n    tag_306:\n        /* \"#utility.yul\":7791:7930   */\n      swap1\n      pop\n        /* \"#utility.yul\":7518:7937   */\n      swap2\n      swap1\n      pop\n      jump\t// out\n        /* \"#utility.yul\":7943:8123   */\n    tag_198:\n        /* \"#utility.yul\":7991:8068   */\n      0x4e487b7100000000000000000000000000000000000000000000000000000000\n        /* \"#utility.yul\":7988:7989   */\n      0x00\n        /* \"#utility.yul\":7981:8069   */\n      mstore\n        /* \"#utility.yul\":8088:8092   */\n      0x11\n        /* \"#utility.yul\":8085:8086   */\n      0x04\n        /* \"#utility.yul\":8078:8093   */\n      mstore\n        /* \"#utility.yul\":8112:8116   */\n      0x24\n        /* \"#utility.yul\":8109:8110   */\n      0x00\n        /* \"#utility.yul\":8102:8117   */\n      revert\n        /* \"#utility.yul\":8129:8320   */\n    tag_84:\n        /* \"#utility.yul\":8169:8172   */\n      0x00\n        /* \"#utility.yul\":8188:8208   */\n      tag_309\n        /* \"#utility.yul\":8206:8207   */\n      dup3\n        /* \"#utility.yul\":8188:8208   */\n      tag_166\n      jump\t// in\n    tag_309:\n        /* \"#utility.yul\":8183:8208   */\n      swap2\n      pop\n        /* \"#utility.yul\":8222:8242   */\n      tag_310\n        /* \"#utility.yul\":8240:8241   */\n      dup4\n        /* \"#utility.yul\":8222:8242   */\n      tag_166\n      jump\t// in\n    tag_310:\n        /* \"#utility.yul\":8217:8242   */\n      swap3\n      pop\n        /* \"#utility.yul\":8265:8266   */\n      dup3\n        /* \"#utility.yul\":8262:8263   */\n      dup3\n        /* \"#utility.yul\":8258:8267   */\n      add\n        /* \"#utility.yul\":8251:8267   */\n      swap1\n      pop\n        /* \"#utility.yul\":8286:8289   */\n      dup1\n        /* \"#utility.yul\":8283:8284   */\n      dup3\n        /* \"#utility.yul\":8280:8290   */\n      gt\n        /* \"#utility.yul\":8277:8313   */\n      iszero\n      tag_311\n      jumpi\n        /* \"#utility.yul\":8293:8311   */\n      tag_312\n      tag_198\n      jump\t// in\n    tag_312:\n        /* \"#utility.yul\":8277:8313   */\n    tag_311:\n        /* \"#utility.yul\":8129:8320   */\n      swap3\n      swap2\n      pop\n      pop\n      jump\t// out\n        /* \"#utility.yul\":8326:8507   */\n    tag_199:\n        /* \"#utility.yul\":8466:8499   */\n      0x596f752068617665206e6f74206561726e656420616e79207265776172647300\n        /* \"#utility.yul\":8462:8463   */\n      0x00\n        /* \"#utility.yul\":8454:8460   */\n      dup3\n        /* \"#utility.yul\":8450:8464   */\n      add\n        /* \"#utility.yul\":8443:8500   */\n      mstore\n        /* \"#utility.yul\":8326:8507   */\n      pop\n      jump\t// out\n        /* \"#utility.yul\":8513:8879   */\n    tag_200:\n        /* \"#utility.yul\":8655:8658   */\n      0x00\n        /* \"#utility.yul\":8676:8743   */\n      tag_315\n        /* \"#utility.yul\":8740:8742   */\n      0x1f\n        /* \"#utility.yul\":8735:8738   */\n      dup4\n        /* \"#utility.yul\":8676:8743   */\n      tag_195\n      jump\t// in\n    tag_315:\n        /* \"#utility.yul\":8669:8743   */\n      swap2\n      pop\n        /* \"#utility.yul\":8752:8845   */\n      tag_316\n        /* \"#utility.yul\":8841:8844   */\n      dup3\n        /* \"#utility.yul\":8752:8845   */\n      tag_199\n      jump\t// in\n    tag_316:\n        /* \"#utility.yul\":8870:8872   */\n      0x20\n        /* \"#utility.yul\":8865:8868   */\n      dup3\n        /* \"#utility.yul\":8861:8873   */\n      add\n        /* \"#utility.yul\":8854:8873   */\n      swap1\n      pop\n        /* \"#utility.yul\":8513:8879   */\n      swap2\n      swap1\n      pop\n      jump\t// out\n        /* \"#utility.yul\":8885:9304   */\n    tag_91:\n        /* \"#utility.yul\":9051:9055   */\n      0x00\n        /* \"#utility.yul\":9089:9091   */\n      0x20\n        /* \"#utility.yul\":9078:9087   */\n      dup3\n        /* \"#utility.yul\":9074:9092   */\n      add\n        /* \"#utility.yul\":9066:9092   */\n      swap1\n      pop\n        /* \"#utility.yul\":9138:9147   */\n      dup2\n        /* \"#utility.yul\":9132:9136   */\n      dup2\n        /* \"#utility.yul\":9128:9148   */\n      sub\n        /* \"#utility.yul\":9124:9125   */\n      0x00\n        /* \"#utility.yul\":9113:9122   */\n      dup4\n        /* \"#utility.yul\":9109:9126   */\n      add\n        /* \"#utility.yul\":9102:9149   */\n      mstore\n        /* \"#utility.yul\":9166:9297   */\n      tag_318\n        /* \"#utility.yul\":9292:9296   */\n      dup2\n        /* \"#utility.yul\":9166:9297   */\n      tag_200\n      jump\t// in\n    tag_318:\n        /* \"#utility.yul\":9158:9297   */\n      swap1\n      pop\n        /* \"#utility.yul\":8885:9304   */\n      swap2\n      swap1\n      pop\n      jump\t// out\n        /* \"#utility.yul\":9310:9504   */\n    tag_95:\n        /* \"#utility.yul\":9350:9354   */\n      0x00\n        /* \"#utility.yul\":9370:9390   */\n      tag_320\n        /* \"#utility.yul\":9388:9389   */\n      dup3\n        /* \"#utility.yul\":9370:9390   */\n      tag_166\n      jump\t// in\n    tag_320:\n        /* \"#utility.yul\":9365:9390   */\n      swap2\n      pop\n        /* \"#utility.yul\":9404:9424   */\n      tag_321\n        /* \"#utility.yul\":9422:9423   */\n      dup4\n        /* \"#utility.yul\":9404:9424   */\n      tag_166\n      jump\t// in\n    tag_321:\n        /* \"#utility.yul\":9399:9424   */\n      swap3\n      pop\n        /* \"#utility.yul\":9448:9449   */\n      dup3\n        /* \"#utility.yul\":9445:9446   */\n      dup3\n        /* \"#utility.yul\":9441:9450   */\n      sub\n        /* \"#utility.yul\":9433:9450   */\n      swap1\n      pop\n        /* \"#utility.yul\":9472:9473   */\n      dup2\n        /* \"#utility.yul\":9466:9470   */\n      dup2\n        /* \"#utility.yul\":9463:9474   */\n      gt\n        /* \"#utility.yul\":9460:9497   */\n      iszero\n      tag_322\n      jumpi\n        /* \"#utility.yul\":9477:9495   */\n      tag_323\n      tag_198\n      jump\t// in\n    tag_323:\n        /* \"#utility.yul\":9460:9497   */\n    tag_322:\n        /* \"#utility.yul\":9310:9504   */\n      swap3\n      swap2\n      pop\n      pop\n      jump\t// out\n        /* \"#utility.yul\":9510:9730   */\n    tag_201:\n        /* \"#utility.yul\":9650:9684   */\n      0x596f7520646f6e2774206861766520656e6f75676820746f2077697468647261\n        /* \"#utility.yul\":9646:9647   */\n      0x00\n        /* \"#utility.yul\":9638:9644   */\n      dup3\n        /* \"#utility.yul\":9634:9648   */\n      add\n        /* \"#utility.yul\":9627:9685   */\n      mstore\n        /* \"#utility.yul\":9719:9722   */\n      0x7700000000000000000000000000000000000000000000000000000000000000\n        /* \"#utility.yul\":9714:9716   */\n      0x20\n        /* \"#utility.yul\":9706:9712   */\n      dup3\n        /* \"#utility.yul\":9702:9717   */\n      add\n        /* \"#utility.yul\":9695:9723   */\n      mstore\n        /* \"#utility.yul\":9510:9730   */\n      pop\n      jump\t// out\n        /* \"#utility.yul\":9736:10102   */\n    tag_202:\n        /* \"#utility.yul\":9878:9881   */\n      0x00\n        /* \"#utility.yul\":9899:9966   */\n      tag_326\n        /* \"#utility.yul\":9963:9965   */\n      0x21\n        /* \"#utility.yul\":9958:9961   */\n      dup4\n        /* \"#utility.yul\":9899:9966   */\n      tag_195\n      jump\t// in\n    tag_326:\n        /* \"#utility.yul\":9892:9966   */\n      swap2\n      pop\n        /* \"#utility.yul\":9975:10068   */\n      tag_327\n        /* \"#utility.yul\":10064:10067   */\n      dup3\n        /* \"#utility.yul\":9975:10068   */\n      tag_201\n      jump\t// in\n    tag_327:\n        /* \"#utility.yul\":10093:10095   */\n      0x40\n        /* \"#utility.yul\":10088:10091   */\n      dup3\n        /* \"#utility.yul\":10084:10096   */\n      add\n        /* \"#utility.yul\":10077:10096   */\n      swap1\n      pop\n        /* \"#utility.yul\":9736:10102   */\n      swap2\n      swap1\n      pop\n      jump\t// out\n        /* \"#utility.yul\":10108:10527   */\n    tag_98:\n        /* \"#utility.yul\":10274:10278   */\n      0x00\n        /* \"#utility.yul\":10312:10314   */\n      0x20\n        /* \"#utility.yul\":10301:10310   */\n      dup3\n        /* \"#utility.yul\":10297:10315   */\n      add\n        /* \"#utility.yul\":10289:10315   */\n      swap1\n      pop\n        /* \"#utility.yul\":10361:10370   */\n      dup2\n        /* \"#utility.yul\":10355:10359   */\n      dup2\n        /* \"#utility.yul\":10351:10371   */\n      sub\n        /* \"#utility.yul\":10347:10348   */\n      0x00\n        /* \"#utility.yul\":10336:10345   */\n      dup4\n        /* \"#utility.yul\":10332:10349   */\n      add\n        /* \"#utility.yul\":10325:10372   */\n      mstore\n        /* \"#utility.yul\":10389:10520   */\n      tag_329\n        /* \"#utility.yul\":10515:10519   */\n      dup2\n        /* \"#utility.yul\":10389:10520   */\n      tag_202\n      jump\t// in\n    tag_329:\n        /* \"#utility.yul\":10381:10520   */\n      swap1\n      pop\n        /* \"#utility.yul\":10108:10527   */\n      swap2\n      swap1\n      pop\n      jump\t// out\n        /* \"#utility.yul\":10533:10651   */\n    tag_203:\n        /* \"#utility.yul\":10620:10644   */\n      tag_331\n        /* \"#utility.yul\":10638:10643   */\n      dup2\n        /* \"#utility.yul\":10620:10644   */\n      tag_172\n      jump\t// in\n    tag_331:\n        /* \"#utility.yul\":10615:10618   */\n      dup3\n        /* \"#utility.yul\":10608:10645   */\n      mstore\n        /* \"#utility.yul\":10533:10651   */\n      pop\n      pop\n      jump\t// out\n        /* \"#utility.yul\":10657:10989   */\n    tag_100:\n        /* \"#utility.yul\":10778:10782   */\n      0x00\n        /* \"#utility.yul\":10816:10818   */\n      0x40\n        /* \"#utility.yul\":10805:10814   */\n      dup3\n        /* \"#utility.yul\":10801:10819   */\n      add\n        /* \"#utility.yul\":10793:10819   */\n      swap1\n      pop\n        /* \"#utility.yul\":10829:10900   */\n      tag_333\n        /* \"#utility.yul\":10897:10898   */\n      0x00\n        /* \"#utility.yul\":10886:10895   */\n      dup4\n        /* \"#utility.yul\":10882:10899   */\n      add\n        /* \"#utility.yul\":10873:10879   */\n      dup6\n        /* \"#utility.yul\":10829:10900   */\n      tag_203\n      jump\t// in\n    tag_333:\n        /* \"#utility.yul\":10910:10982   */\n      tag_334\n        /* \"#utility.yul\":10978:10980   */\n      0x20\n        /* \"#utility.yul\":10967:10976   */\n      dup4\n        /* \"#utility.yul\":10963:10981   */\n      add\n        /* \"#utility.yul\":10954:10960   */\n      dup5\n        /* \"#utility.yul\":10910:10982   */\n      tag_167\n      jump\t// in\n    tag_334:\n        /* \"#utility.yul\":10657:10989   */\n      swap4\n      swap3\n      pop\n      pop\n      pop\n      jump\t// out\n        /* \"#utility.yul\":10995:11085   */\n    tag_204:\n        /* \"#utility.yul\":11029:11036   */\n      0x00\n        /* \"#utility.yul\":11072:11077   */\n      dup2\n        /* \"#utility.yul\":11065:11078   */\n      iszero\n        /* \"#utility.yul\":11058:11079   */\n      iszero\n        /* \"#utility.yul\":11047:11079   */\n      swap1\n      pop\n        /* \"#utility.yul\":10995:11085   */\n      swap2\n      swap1\n      pop\n      jump\t// out\n        /* \"#utility.yul\":11091:11207   */\n    tag_205:\n        /* \"#utility.yul\":11161:11182   */\n      tag_337\n        /* \"#utility.yul\":11176:11181   */\n      dup2\n        /* \"#utility.yul\":11161:11182   */\n      tag_204\n      jump\t// in\n    tag_337:\n        /* \"#utility.yul\":11154:11159   */\n      dup2\n        /* \"#utility.yul\":11151:11183   */\n      eq\n        /* \"#utility.yul\":11141:11201   */\n      tag_338\n      jumpi\n        /* \"#utility.yul\":11197:11198   */\n      0x00\n        /* \"#utility.yul\":11194:11195   */\n      dup1\n        /* \"#utility.yul\":11187:11199   */\n      revert\n        /* \"#utility.yul\":11141:11201   */\n    tag_338:\n        /* \"#utility.yul\":11091:11207   */\n      pop\n      jump\t// out\n        /* \"#utility.yul\":11213:11350   */\n    tag_206:\n        /* \"#utility.yul\":11267:11272   */\n      0x00\n        /* \"#utility.yul\":11298:11304   */\n      dup2\n        /* \"#utility.yul\":11292:11305   */\n      mload\n        /* \"#utility.yul\":11283:11305   */\n      swap1\n      pop\n        /* \"#utility.yul\":11314:11344   */\n      tag_340\n        /* \"#utility.yul\":11338:11343   */\n      dup2\n        /* \"#utility.yul\":11314:11344   */\n      tag_205\n      jump\t// in\n    tag_340:\n        /* \"#utility.yul\":11213:11350   */\n      swap3\n      swap2\n      pop\n      pop\n      jump\t// out\n        /* \"#utility.yul\":11356:11701   */\n    tag_104:\n        /* \"#utility.yul\":11423:11429   */\n      0x00\n        /* \"#utility.yul\":11472:11474   */\n      0x20\n        /* \"#utility.yul\":11460:11469   */\n      dup3\n        /* \"#utility.yul\":11451:11458   */\n      dup5\n        /* \"#utility.yul\":11447:11470   */\n      sub\n        /* \"#utility.yul\":11443:11475   */\n      slt\n        /* \"#utility.yul\":11440:11559   */\n      iszero\n      tag_342\n      jumpi\n        /* \"#utility.yul\":11478:11557   */\n      tag_343\n      tag_169\n      jump\t// in\n    tag_343:\n        /* \"#utility.yul\":11440:11559   */\n    tag_342:\n        /* \"#utility.yul\":11598:11599   */\n      0x00\n        /* \"#utility.yul\":11623:11684   */\n      tag_344\n        /* \"#utility.yul\":11676:11683   */\n      dup5\n        /* \"#utility.yul\":11667:11673   */\n      dup3\n        /* \"#utility.yul\":11656:11665   */\n      dup6\n        /* \"#utility.yul\":11652:11674   */\n      add\n        /* \"#utility.yul\":11623:11684   */\n      tag_206\n      jump\t// in\n    tag_344:\n        /* \"#utility.yul\":11613:11684   */\n      swap2\n      pop\n        /* \"#utility.yul\":11569:11694   */\n      pop\n        /* \"#utility.yul\":11356:11701   */\n      swap3\n      swap2\n      pop\n      pop\n      jump\t// out\n        /* \"#utility.yul\":11707:11882   */\n    tag_207:\n        /* \"#utility.yul\":11847:11874   */\n      0x4661696c656420746f207472616e7366657220746f6b656e7300000000000000\n        /* \"#utility.yul\":11843:11844   */\n      0x00\n        /* \"#utility.yul\":11835:11841   */\n      dup3\n        /* \"#utility.yul\":11831:11845   */\n      add\n        /* \"#utility.yul\":11824:11875   */\n      mstore\n        /* \"#utility.yul\":11707:11882   */\n      pop\n      jump\t// out\n        /* \"#utility.yul\":11888:12254   */\n    tag_208:\n        /* \"#utility.yul\":12030:12033   */\n      0x00\n        /* \"#utility.yul\":12051:12118   */\n      tag_347\n        /* \"#utility.yul\":12115:12117   */\n      0x19\n        /* \"#utility.yul\":12110:12113   */\n      dup4\n        /* \"#utility.yul\":12051:12118   */\n      tag_195\n      jump\t// in\n    tag_347:\n        /* \"#utility.yul\":12044:12118   */\n      swap2\n      pop\n        /* \"#utility.yul\":12127:12220   */\n      tag_348\n        /* \"#utility.yul\":12216:12219   */\n      dup3\n        /* \"#utility.yul\":12127:12220   */\n      tag_207\n      jump\t// in\n    tag_348:\n        /* \"#utility.yul\":12245:12247   */\n      0x20\n        /* \"#utility.yul\":12240:12243   */\n      dup3\n        /* \"#utility.yul\":12236:12248   */\n      add\n        /* \"#utility.yul\":12229:12248   */\n      swap1\n      pop\n        /* \"#utility.yul\":11888:12254   */\n      swap2\n      swap1\n      pop\n      jump\t// out\n        /* \"#utility.yul\":12260:12679   */\n    tag_107:\n        /* \"#utility.yul\":12426:12430   */\n      0x00\n        /* \"#utility.yul\":12464:12466   */\n      0x20\n        /* \"#utility.yul\":12453:12462   */\n      dup3\n        /* \"#utility.yul\":12449:12467   */\n      add\n        /* \"#utility.yul\":12441:12467   */\n      swap1\n      pop\n        /* \"#utility.yul\":12513:12522   */\n      dup2\n        /* \"#utility.yul\":12507:12511   */\n      dup2\n        /* \"#utility.yul\":12503:12523   */\n      sub\n        /* \"#utility.yul\":12499:12500   */\n      0x00\n        /* \"#utility.yul\":12488:12497   */\n      dup4\n        /* \"#utility.yul\":12484:12501   */\n      add\n        /* \"#utility.yul\":12477:12524   */\n      mstore\n        /* \"#utility.yul\":12541:12672   */\n      tag_350\n        /* \"#utility.yul\":12667:12671   */\n      dup2\n        /* \"#utility.yul\":12541:12672   */\n      tag_208\n      jump\t// in\n    tag_350:\n        /* \"#utility.yul\":12533:12672   */\n      swap1\n      pop\n        /* \"#utility.yul\":12260:12679   */\n      swap2\n      swap1\n      pop\n      jump\t// out\n        /* \"#utility.yul\":12685:12860   */\n    tag_209:\n        /* \"#utility.yul\":12825:12852   */\n      0x5374616b696e67207374696c6c20696e2070726f677265737300000000000000\n        /* \"#utility.yul\":12821:12822   */\n      0x00\n        /* \"#utility.yul\":12813:12819   */\n      dup3\n        /* \"#utility.yul\":12809:12823   */\n      add\n        /* \"#utility.yul\":12802:12853   */\n      mstore\n        /* \"#utility.yul\":12685:12860   */\n      pop\n      jump\t// out\n        /* \"#utility.yul\":12866:13232   */\n    tag_210:\n        /* \"#utility.yul\":13008:13011   */\n      0x00\n        /* \"#utility.yul\":13029:13096   */\n      tag_353\n        /* \"#utility.yul\":13093:13095   */\n      0x19\n        /* \"#utility.yul\":13088:13091   */\n      dup4\n        /* \"#utility.yul\":13029:13096   */\n      tag_195\n      jump\t// in\n    tag_353:\n        /* \"#utility.yul\":13022:13096   */\n      swap2\n      pop\n        /* \"#utility.yul\":13105:13198   */\n      tag_354\n        /* \"#utility.yul\":13194:13197   */\n      dup3\n        /* \"#utility.yul\":13105:13198   */\n      tag_209\n      jump\t// in\n    tag_354:\n        /* \"#utility.yul\":13223:13225   */\n      0x20\n        /* \"#utility.yul\":13218:13221   */\n      dup3\n        /* \"#utility.yul\":13214:13226   */\n      add\n        /* \"#utility.yul\":13207:13226   */\n      swap1\n      pop\n        /* \"#utility.yul\":12866:13232   */\n      swap2\n      swap1\n      pop\n      jump\t// out\n        /* \"#utility.yul\":13238:13657   */\n    tag_112:\n        /* \"#utility.yul\":13404:13408   */\n      0x00\n        /* \"#utility.yul\":13442:13444   */\n      0x20\n        /* \"#utility.yul\":13431:13440   */\n      dup3\n        /* \"#utility.yul\":13427:13445   */\n      add\n        /* \"#utility.yul\":13419:13445   */\n      swap1\n      pop\n        /* \"#utility.yul\":13491:13500   */\n      dup2\n        /* \"#utility.yul\":13485:13489   */\n      dup2\n        /* \"#utility.yul\":13481:13501   */\n      sub\n        /* \"#utility.yul\":13477:13478   */\n      0x00\n        /* \"#utility.yul\":13466:13475   */\n      dup4\n        /* \"#utility.yul\":13462:13479   */\n      add\n        /* \"#utility.yul\":13455:13502   */\n      mstore\n        /* \"#utility.yul\":13519:13650   */\n      tag_356\n        /* \"#utility.yul\":13645:13649   */\n      dup2\n        /* \"#utility.yul\":13519:13650   */\n      tag_210\n      jump\t// in\n    tag_356:\n        /* \"#utility.yul\":13511:13650   */\n      swap1\n      pop\n        /* \"#utility.yul\":13238:13657   */\n      swap2\n      swap1\n      pop\n      jump\t// out\n        /* \"#utility.yul\":13663:13885   */\n    tag_118:\n        /* \"#utility.yul\":13756:13760   */\n      0x00\n        /* \"#utility.yul\":13794:13796   */\n      0x20\n        /* \"#utility.yul\":13783:13792   */\n      dup3\n        /* \"#utility.yul\":13779:13797   */\n      add\n        /* \"#utility.yul\":13771:13797   */\n      swap1\n      pop\n        /* \"#utility.yul\":13807:13878   */\n      tag_358\n        /* \"#utility.yul\":13875:13876   */\n      0x00\n        /* \"#utility.yul\":13864:13873   */\n      dup4\n        /* \"#utility.yul\":13860:13877   */\n      add\n        /* \"#utility.yul\":13851:13857   */\n      dup5\n        /* \"#utility.yul\":13807:13878   */\n      tag_203\n      jump\t// in\n    tag_358:\n        /* \"#utility.yul\":13663:13885   */\n      swap3\n      swap2\n      pop\n      pop\n      jump\t// out\n        /* \"#utility.yul\":13891:14034   */\n    tag_211:\n        /* \"#utility.yul\":13948:13953   */\n      0x00\n        /* \"#utility.yul\":13979:13985   */\n      dup2\n        /* \"#utility.yul\":13973:13986   */\n      mload\n        /* \"#utility.yul\":13964:13986   */\n      swap1\n      pop\n        /* \"#utility.yul\":13995:14028   */\n      tag_360\n        /* \"#utility.yul\":14022:14027   */\n      dup2\n        /* \"#utility.yul\":13995:14028   */\n      tag_185\n      jump\t// in\n    tag_360:\n        /* \"#utility.yul\":13891:14034   */\n      swap3\n      swap2\n      pop\n      pop\n      jump\t// out\n        /* \"#utility.yul\":14040:14391   */\n    tag_122:\n        /* \"#utility.yul\":14110:14116   */\n      0x00\n        /* \"#utility.yul\":14159:14161   */\n      0x20\n        /* \"#utility.yul\":14147:14156   */\n      dup3\n        /* \"#utility.yul\":14138:14145   */\n      dup5\n        /* \"#utility.yul\":14134:14157   */\n      sub\n        /* \"#utility.yul\":14130:14162   */\n      slt\n        /* \"#utility.yul\":14127:14246   */\n      iszero\n      tag_362\n      jumpi\n        /* \"#utility.yul\":14165:14244   */\n      tag_363\n      tag_169\n      jump\t// in\n    tag_363:\n        /* \"#utility.yul\":14127:14246   */\n    tag_362:\n        /* \"#utility.yul\":14285:14286   */\n      0x00\n        /* \"#utility.yul\":14310:14374   */\n      tag_364\n        /* \"#utility.yul\":14366:14373   */\n      dup5\n        /* \"#utility.yul\":14357:14363   */\n      dup3\n        /* \"#utility.yul\":14346:14355   */\n      dup6\n        /* \"#utility.yul\":14342:14364   */\n      add\n        /* \"#utility.yul\":14310:14374   */\n      tag_211\n      jump\t// in\n    tag_364:\n        /* \"#utility.yul\":14300:14374   */\n      swap2\n      pop\n        /* \"#utility.yul\":14256:14384   */\n      pop\n        /* \"#utility.yul\":14040:14391   */\n      swap3\n      swap2\n      pop\n      pop\n      jump\t// out\n        /* \"#utility.yul\":14397:14574   */\n    tag_212:\n        /* \"#utility.yul\":14537:14566   */\n      0x4e6f7420656e6f75676820746f6b656e7320666f72207374616b650000000000\n        /* \"#utility.yul\":14533:14534   */\n      0x00\n        /* \"#utility.yul\":14525:14531   */\n      dup3\n        /* \"#utility.yul\":14521:14535   */\n      add\n        /* \"#utility.yul\":14514:14567   */\n      mstore\n        /* \"#utility.yul\":14397:14574   */\n      pop\n      jump\t// out\n        /* \"#utility.yul\":14580:14946   */\n    tag_213:\n        /* \"#utility.yul\":14722:14725   */\n      0x00\n        /* \"#utility.yul\":14743:14810   */\n      tag_367\n        /* \"#utility.yul\":14807:14809   */\n      0x1b\n        /* \"#utility.yul\":14802:14805   */\n      dup4\n        /* \"#utility.yul\":14743:14810   */\n      tag_195\n      jump\t// in\n    tag_367:\n        /* \"#utility.yul\":14736:14810   */\n      swap2\n      pop\n        /* \"#utility.yul\":14819:14912   */\n      tag_368\n        /* \"#utility.yul\":14908:14911   */\n      dup3\n        /* \"#utility.yul\":14819:14912   */\n      tag_212\n      jump\t// in\n    tag_368:\n        /* \"#utility.yul\":14937:14939   */\n      0x20\n        /* \"#utility.yul\":14932:14935   */\n      dup3\n        /* \"#utility.yul\":14928:14940   */\n      add\n        /* \"#utility.yul\":14921:14940   */\n      swap1\n      pop\n        /* \"#utility.yul\":14580:14946   */\n      swap2\n      swap1\n      pop\n      jump\t// out\n        /* \"#utility.yul\":14952:15371   */\n    tag_125:\n        /* \"#utility.yul\":15118:15122   */\n      0x00\n        /* \"#utility.yul\":15156:15158   */\n      0x20\n        /* \"#utility.yul\":15145:15154   */\n      dup3\n        /* \"#utility.yul\":15141:15159   */\n      add\n        /* \"#utility.yul\":15133:15159   */\n      swap1\n      pop\n        /* \"#utility.yul\":15205:15214   */\n      dup2\n        /* \"#utility.yul\":15199:15203   */\n      dup2\n        /* \"#utility.yul\":15195:15215   */\n      sub\n        /* \"#utility.yul\":15191:15192   */\n      0x00\n        /* \"#utility.yul\":15180:15189   */\n      dup4\n        /* \"#utility.yul\":15176:15193   */\n      add\n        /* \"#utility.yul\":15169:15216   */\n      mstore\n        /* \"#utility.yul\":15233:15364   */\n      tag_370\n        /* \"#utility.yul\":15359:15363   */\n      dup2\n        /* \"#utility.yul\":15233:15364   */\n      tag_213\n      jump\t// in\n    tag_370:\n        /* \"#utility.yul\":15225:15364   */\n      swap1\n      pop\n        /* \"#utility.yul\":14952:15371   */\n      swap2\n      swap1\n      pop\n      jump\t// out\n        /* \"#utility.yul\":15377:15819   */\n    tag_127:\n        /* \"#utility.yul\":15526:15530   */\n      0x00\n        /* \"#utility.yul\":15564:15566   */\n      0x60\n        /* \"#utility.yul\":15553:15562   */\n      dup3\n        /* \"#utility.yul\":15549:15567   */\n      add\n        /* \"#utility.yul\":15541:15567   */\n      swap1\n      pop\n        /* \"#utility.yul\":15577:15648   */\n      tag_372\n        /* \"#utility.yul\":15645:15646   */\n      0x00\n        /* \"#utility.yul\":15634:15643   */\n      dup4\n        /* \"#utility.yul\":15630:15647   */\n      add\n        /* \"#utility.yul\":15621:15627   */\n      dup7\n        /* \"#utility.yul\":15577:15648   */\n      tag_203\n      jump\t// in\n    tag_372:\n        /* \"#utility.yul\":15658:15730   */\n      tag_373\n        /* \"#utility.yul\":15726:15728   */\n      0x20\n        /* \"#utility.yul\":15715:15724   */\n      dup4\n        /* \"#utility.yul\":15711:15729   */\n      add\n        /* \"#utility.yul\":15702:15708   */\n      dup6\n        /* \"#utility.yul\":15658:15730   */\n      tag_203\n      jump\t// in\n    tag_373:\n        /* \"#utility.yul\":15740:15812   */\n      tag_374\n        /* \"#utility.yul\":15808:15810   */\n      0x40\n        /* \"#utility.yul\":15797:15806   */\n      dup4\n        /* \"#utility.yul\":15793:15811   */\n      add\n        /* \"#utility.yul\":15784:15790   */\n      dup5\n        /* \"#utility.yul\":15740:15812   */\n      tag_167\n      jump\t// in\n    tag_374:\n        /* \"#utility.yul\":15377:15819   */\n      swap5\n      swap4\n      pop\n      pop\n      pop\n      pop\n      jump\t// out\n        /* \"#utility.yul\":15825:15996   */\n    tag_214:\n        /* \"#utility.yul\":15965:15988   */\n      0x4661696c656420746f207374616b6520746f6b656e0000000000000000000000\n        /* \"#utility.yul\":15961:15962   */\n      0x00\n        /* \"#utility.yul\":15953:15959   */\n      dup3\n        /* \"#utility.yul\":15949:15963   */\n      add\n        /* \"#utility.yul\":15942:15989   */\n      mstore\n        /* \"#utility.yul\":15825:15996   */\n      pop\n      jump\t// out\n        /* \"#utility.yul\":16002:16368   */\n    tag_215:\n        /* \"#utility.yul\":16144:16147   */\n      0x00\n        /* \"#utility.yul\":16165:16232   */\n      tag_377\n        /* \"#utility.yul\":16229:16231   */\n      0x15\n        /* \"#utility.yul\":16224:16227   */\n      dup4\n        /* \"#utility.yul\":16165:16232   */\n      tag_195\n      jump\t// in\n    tag_377:\n        /* \"#utility.yul\":16158:16232   */\n      swap2\n      pop\n        /* \"#utility.yul\":16241:16334   */\n      tag_378\n        /* \"#utility.yul\":16330:16333   */\n      dup3\n        /* \"#utility.yul\":16241:16334   */\n      tag_214\n      jump\t// in\n    tag_378:\n        /* \"#utility.yul\":16359:16361   */\n      0x20\n        /* \"#utility.yul\":16354:16357   */\n      dup3\n        /* \"#utility.yul\":16350:16362   */\n      add\n        /* \"#utility.yul\":16343:16362   */\n      swap1\n      pop\n        /* \"#utility.yul\":16002:16368   */\n      swap2\n      swap1\n      pop\n      jump\t// out\n        /* \"#utility.yul\":16374:16793   */\n    tag_133:\n        /* \"#utility.yul\":16540:16544   */\n      0x00\n        /* \"#utility.yul\":16578:16580   */\n      0x20\n        /* \"#utility.yul\":16567:16576   */\n      dup3\n        /* \"#utility.yul\":16563:16581   */\n      add\n        /* \"#utility.yul\":16555:16581   */\n      swap1\n      pop\n        /* \"#utility.yul\":16627:16636   */\n      dup2\n        /* \"#utility.yul\":16621:16625   */\n      dup2\n        /* \"#utility.yul\":16617:16637   */\n      sub\n        /* \"#utility.yul\":16613:16614   */\n      0x00\n        /* \"#utility.yul\":16602:16611   */\n      dup4\n        /* \"#utility.yul\":16598:16615   */\n      add\n        /* \"#utility.yul\":16591:16638   */\n      mstore\n        /* \"#utility.yul\":16655:16786   */\n      tag_380\n        /* \"#utility.yul\":16781:16785   */\n      dup2\n        /* \"#utility.yul\":16655:16786   */\n      tag_215\n      jump\t// in\n    tag_380:\n        /* \"#utility.yul\":16647:16786   */\n      swap1\n      pop\n        /* \"#utility.yul\":16374:16793   */\n      swap2\n      swap1\n      pop\n      jump\t// out\n        /* \"#utility.yul\":16799:16958   */\n    tag_216:\n        /* \"#utility.yul\":16939:16950   */\n      0x7570646174656441740000000000000000000000000000000000000000000000\n        /* \"#utility.yul\":16935:16936   */\n      0x00\n        /* \"#utility.yul\":16927:16933   */\n      dup3\n        /* \"#utility.yul\":16923:16937   */\n      add\n        /* \"#utility.yul\":16916:16951   */\n      mstore\n        /* \"#utility.yul\":16799:16958   */\n      pop\n      jump\t// out\n        /* \"#utility.yul\":16964:17364   */\n    tag_217:\n        /* \"#utility.yul\":17124:17127   */\n      0x00\n        /* \"#utility.yul\":17145:17229   */\n      tag_383\n        /* \"#utility.yul\":17227:17228   */\n      0x09\n        /* \"#utility.yul\":17222:17225   */\n      dup4\n        /* \"#utility.yul\":17145:17229   */\n      tag_192\n      jump\t// in\n    tag_383:\n        /* \"#utility.yul\":17138:17229   */\n      swap2\n      pop\n        /* \"#utility.yul\":17238:17331   */\n      tag_384\n        /* \"#utility.yul\":17327:17330   */\n      dup3\n        /* \"#utility.yul\":17238:17331   */\n      tag_216\n      jump\t// in\n    tag_384:\n        /* \"#utility.yul\":17356:17357   */\n      0x09\n        /* \"#utility.yul\":17351:17354   */\n      dup3\n        /* \"#utility.yul\":17347:17358   */\n      add\n        /* \"#utility.yul\":17340:17358   */\n      swap1\n      pop\n        /* \"#utility.yul\":16964:17364   */\n      swap2\n      swap1\n      pop\n      jump\t// out\n        /* \"#utility.yul\":17370:17751   */\n    tag_139:\n        /* \"#utility.yul\":17555:17558   */\n      0x00\n        /* \"#utility.yul\":17577:17725   */\n      tag_386\n        /* \"#utility.yul\":17721:17724   */\n      dup3\n        /* \"#utility.yul\":17577:17725   */\n      tag_217\n      jump\t// in\n    tag_386:\n        /* \"#utility.yul\":17570:17725   */\n      swap2\n      pop\n        /* \"#utility.yul\":17742:17745   */\n      dup2\n        /* \"#utility.yul\":17735:17745   */\n      swap1\n      pop\n        /* \"#utility.yul\":17370:17751   */\n      swap2\n      swap1\n      pop\n      jump\t// out\n        /* \"#utility.yul\":17757:17982   */\n    tag_218:\n        /* \"#utility.yul\":17897:17931   */\n      0x63616e277420736574206461746520746f20612070726576696f75732074696d\n        /* \"#utility.yul\":17893:17894   */\n      0x00\n        /* \"#utility.yul\":17885:17891   */\n      dup3\n        /* \"#utility.yul\":17881:17895   */\n      add\n        /* \"#utility.yul\":17874:17932   */\n      mstore\n        /* \"#utility.yul\":17966:17974   */\n      0x657374616d700000000000000000000000000000000000000000000000000000\n        /* \"#utility.yul\":17961:17963   */\n      0x20\n        /* \"#utility.yul\":17953:17959   */\n      dup3\n        /* \"#utility.yul\":17949:17964   */\n      add\n        /* \"#utility.yul\":17942:17975   */\n      mstore\n        /* \"#utility.yul\":17757:17982   */\n      pop\n      jump\t// out\n        /* \"#utility.yul\":17988:18354   */\n    tag_219:\n        /* \"#utility.yul\":18130:18133   */\n      0x00\n        /* \"#utility.yul\":18151:18218   */\n      tag_389\n        /* \"#utility.yul\":18215:18217   */\n      0x26\n        /* \"#utility.yul\":18210:18213   */\n      dup4\n        /* \"#utility.yul\":18151:18218   */\n      tag_195\n      jump\t// in\n    tag_389:\n        /* \"#utility.yul\":18144:18218   */\n      swap2\n      pop\n        /* \"#utility.yul\":18227:18320   */\n      tag_390\n        /* \"#utility.yul\":18316:18319   */\n      dup3\n        /* \"#utility.yul\":18227:18320   */\n      tag_218\n      jump\t// in\n    tag_390:\n        /* \"#utility.yul\":18345:18347   */\n      0x40\n        /* \"#utility.yul\":18340:18343   */\n      dup3\n        /* \"#utility.yul\":18336:18348   */\n      add\n        /* \"#utility.yul\":18329:18348   */\n      swap1\n      pop\n        /* \"#utility.yul\":17988:18354   */\n      swap2\n      swap1\n      pop\n      jump\t// out\n        /* \"#utility.yul\":18360:18779   */\n    tag_150:\n        /* \"#utility.yul\":18526:18530   */\n      0x00\n        /* \"#utility.yul\":18564:18566   */\n      0x20\n        /* \"#utility.yul\":18553:18562   */\n      dup3\n        /* \"#utility.yul\":18549:18567   */\n      add\n        /* \"#utility.yul\":18541:18567   */\n      swap1\n      pop\n        /* \"#utility.yul\":18613:18622   */\n      dup2\n        /* \"#utility.yul\":18607:18611   */\n      dup2\n        /* \"#utility.yul\":18603:18623   */\n      sub\n        /* \"#utility.yul\":18599:18600   */\n      0x00\n        /* \"#utility.yul\":18588:18597   */\n      dup4\n        /* \"#utility.yul\":18584:18601   */\n      add\n        /* \"#utility.yul\":18577:18624   */\n      mstore\n        /* \"#utility.yul\":18641:18772   */\n      tag_392\n        /* \"#utility.yul\":18767:18771   */\n      dup2\n        /* \"#utility.yul\":18641:18772   */\n      tag_219\n      jump\t// in\n    tag_392:\n        /* \"#utility.yul\":18633:18772   */\n      swap1\n      pop\n        /* \"#utility.yul\":18360:18779   */\n      swap2\n      swap1\n      pop\n      jump\t// out\n        /* \"#utility.yul\":18785:18965   */\n    tag_220:\n        /* \"#utility.yul\":18833:18910   */\n      0x4e487b7100000000000000000000000000000000000000000000000000000000\n        /* \"#utility.yul\":18830:18831   */\n      0x00\n        /* \"#utility.yul\":18823:18911   */\n      mstore\n        /* \"#utility.yul\":18930:18934   */\n      0x12\n        /* \"#utility.yul\":18927:18928   */\n      0x04\n        /* \"#utility.yul\":18920:18935   */\n      mstore\n        /* \"#utility.yul\":18954:18958   */\n      0x24\n        /* \"#utility.yul\":18951:18952   */\n      0x00\n        /* \"#utility.yul\":18944:18959   */\n      revert\n        /* \"#utility.yul\":18971:19156   */\n    tag_159:\n        /* \"#utility.yul\":19011:19012   */\n      0x00\n        /* \"#utility.yul\":19028:19048   */\n      tag_395\n        /* \"#utility.yul\":19046:19047   */\n      dup3\n        /* \"#utility.yul\":19028:19048   */\n      tag_166\n      jump\t// in\n    tag_395:\n        /* \"#utility.yul\":19023:19048   */\n      swap2\n      pop\n        /* \"#utility.yul\":19062:19082   */\n      tag_396\n        /* \"#utility.yul\":19080:19081   */\n      dup4\n        /* \"#utility.yul\":19062:19082   */\n      tag_166\n      jump\t// in\n    tag_396:\n        /* \"#utility.yul\":19057:19082   */\n      swap3\n      pop\n        /* \"#utility.yul\":19101:19102   */\n      dup3\n        /* \"#utility.yul\":19091:19126   */\n      tag_397\n      jumpi\n        /* \"#utility.yul\":19106:19124   */\n      tag_398\n      tag_220\n      jump\t// in\n    tag_398:\n        /* \"#utility.yul\":19091:19126   */\n    tag_397:\n        /* \"#utility.yul\":19148:19149   */\n      dup3\n        /* \"#utility.yul\":19145:19146   */\n      dup3\n        /* \"#utility.yul\":19141:19150   */\n      div\n        /* \"#utility.yul\":19136:19150   */\n      swap1\n      pop\n        /* \"#utility.yul\":18971:19156   */\n      swap3\n      swap2\n      pop\n      pop\n      jump\t// out\n        /* \"#utility.yul\":19162:19572   */\n    tag_162:\n        /* \"#utility.yul\":19202:19209   */\n      0x00\n        /* \"#utility.yul\":19225:19245   */\n      tag_400\n        /* \"#utility.yul\":19243:19244   */\n      dup3\n        /* \"#utility.yul\":19225:19245   */\n      tag_166\n      jump\t// in\n    tag_400:\n        /* \"#utility.yul\":19220:19245   */\n      swap2\n      pop\n        /* \"#utility.yul\":19259:19279   */\n      tag_401\n        /* \"#utility.yul\":19277:19278   */\n      dup4\n        /* \"#utility.yul\":19259:19279   */\n      tag_166\n      jump\t// in\n    tag_401:\n        /* \"#utility.yul\":19254:19279   */\n      swap3\n      pop\n        /* \"#utility.yul\":19314:19315   */\n      dup3\n        /* \"#utility.yul\":19311:19312   */\n      dup3\n        /* \"#utility.yul\":19307:19316   */\n      mul\n        /* \"#utility.yul\":19336:19366   */\n      tag_402\n        /* \"#utility.yul\":19354:19365   */\n      dup2\n        /* \"#utility.yul\":19336:19366   */\n      tag_166\n      jump\t// in\n    tag_402:\n        /* \"#utility.yul\":19325:19366   */\n      swap2\n      pop\n        /* \"#utility.yul\":19515:19516   */\n      dup3\n        /* \"#utility.yul\":19506:19513   */\n      dup3\n        /* \"#utility.yul\":19502:19517   */\n      div\n        /* \"#utility.yul\":19499:19500   */\n      dup5\n        /* \"#utility.yul\":19496:19518   */\n      eq\n        /* \"#utility.yul\":19476:19477   */\n      dup4\n        /* \"#utility.yul\":19469:19478   */\n      iszero\n        /* \"#utility.yul\":19449:19532   */\n      or\n        /* \"#utility.yul\":19426:19565   */\n      tag_403\n      jumpi\n        /* \"#utility.yul\":19545:19563   */\n      tag_404\n      tag_198\n      jump\t// in\n    tag_404:\n        /* \"#utility.yul\":19426:19565   */\n    tag_403:\n        /* \"#utility.yul\":19210:19572   */\n      pop\n        /* \"#utility.yul\":19162:19572   */\n      swap3\n      swap2\n      pop\n      pop\n      jump\t// out\n\n    auxdata: 0xa2646970667358221220e7e65ac8f70110d12fb742c01275a1848fbc3bf9a606addbda42fc6438c9755064736f6c63430008120033\n}\n",
				"bytecode": {
					"linkReferences": {},
					"object": "60806040523480156200001157600080fd5b50604051620019ea380380620019ea83398181016040528101906200003791906200012a565b816000806101000a81548173ffffffffffffffffffffffffffffffffffffffff021916908373ffffffffffffffffffffffffffffffffffffffff16021790555080600160006101000a81548173ffffffffffffffffffffffffffffffffffffffff021916908373ffffffffffffffffffffffffffffffffffffffff160217905550505062000171565b600080fd5b600073ffffffffffffffffffffffffffffffffffffffff82169050919050565b6000620000f282620000c5565b9050919050565b6200010481620000e5565b81146200011057600080fd5b50565b6000815190506200012481620000f9565b92915050565b60008060408385031215620001445762000143620000c0565b5b6000620001548582860162000113565b9250506020620001678582860162000113565b9150509250929050565b61186980620001816000396000f3fe608060405234801561001057600080fd5b50600436106101005760003560e01c80637519ab5011610097578063b69ef8a811610066578063b69ef8a81461027b578063cb82cc8f14610299578063d1af0c7d146102b5578063f6be71d1146102d357610100565b80637519ab50146102055780638b0e9f3f146102235780639e447fc614610241578063ad2e8c9b1461025d57610100565b806350d56aba116100d357806350d56aba1461017d578063523a3f08146101ad57806367d3b488146101c957806372f702f3146101e757610100565b80630fb5a6b4146101055780632c4e722e14610123578063327bcac5146101415780633e50de301461015f575b600080fd5b61010d6102ef565b60405161011a9190610e3d565b60405180910390f35b61012b6102f5565b6040516101389190610e3d565b60405180910390f35b6101496102fb565b6040516101569190610e3d565b60405180910390f35b610167610301565b6040516101749190610e3d565b60405180910390f35b61019760048036038101906101929190611010565b6103f5565b6040516101a49190610e3d565b60405180910390f35b6101c760048036038101906101c29190611098565b610430565b005b6101d16106e5565b6040516101de9190610e3d565b60405180910390f35b6101ef6106eb565b6040516101fc9190611124565b60405180910390f35b61020d61070f565b60405161021a9190610e3d565b60405180910390f35b61022b610715565b6040516102389190610e3d565b60405180910390f35b61025b60048036038101906102569190611098565b61071b565b005b610265610769565b6040516102729190610e3d565b60405180910390f35b610283610773565b6040516102909190610e3d565b60405180910390f35b6102b360048036038101906102ae9190611098565b6107d4565b005b6102bd610bf6565b6040516102ca9190611124565b60405180910390f35b6102ed60048036038101906102e89190611098565b610c1c565b005b60045481565b60075481565b60035481565b600080600860003373ffffffffffffffffffffffffffffffffffffffff1673ffffffffffffffffffffffffffffffffffffffff16815260200190815260200160002060405161034f90611196565b9081526020016040518091039020541161039e576040517f08c379a000000000000000000000000000000000000000000000000000000000815260040161039590611208565b60405180910390fd5b600a60003373ffffffffffffffffffffffffffffffffffffffff1673ffffffffffffffffffffffffffffffffffffffff168152602001908152602001600020546103e6610c8a565b6103f09190611257565b905090565b600860205281600052604060002081805160208101820180518482526020830160208501208183528095505050505050600091509150505481565b6000600a60003373ffffffffffffffffffffffffffffffffffffffff1673ffffffffffffffffffffffffffffffffffffffff1681526020019081526020016000205461047a610c8a565b6104849190611257565b1180156104915750600081115b6104d0576040517f08c379a00000000000000000000000000000000000000000000000000000000081526004016104c7906112d7565b60405180910390fd5b80600960003373ffffffffffffffffffffffffffffffffffffffff1673ffffffffffffffffffffffffffffffffffffffff16815260200190815260200160002054600a60003373ffffffffffffffffffffffffffffffffffffffff1673ffffffffffffffffffffffffffffffffffffffff16815260200190815260200160002054610559610c8a565b6105639190611257565b61056d91906112f7565b106105ad576040517f08c379a00000000000000000000000000000000000000000000000000000000081526004016105a49061139d565b60405180910390fd5b600160009054906101000a900473ffffffffffffffffffffffffffffffffffffffff1673ffffffffffffffffffffffffffffffffffffffff1663a9059cbb33836040518363ffffffff1660e01b815260040161060a9291906113cc565b6020604051808303816000875af1158015610629573d6000803e3d6000fd5b505050506040513d601f19601f8201168201806040525081019061064d919061142d565b61068c576040517f08c379a0000000000000000000000000000000000000000000000000000000008152600401610683906114a6565b60405180910390fd5b80600960003373ffffffffffffffffffffffffffffffffffffffff1673ffffffffffffffffffffffffffffffffffffffff16815260200190815260200160002060008282546106db9190611257565b9250508190555050565b60055481565b60008054906101000a900473ffffffffffffffffffffffffffffffffffffffff1681565b60065481565b60025481565b426005541061075f576040517f08c379a000000000000000000000000000000000000000000000000000000000815260040161075690611512565b60405180910390fd5b8060078190555050565b6000600454905090565b6000600860003373ffffffffffffffffffffffffffffffffffffffff1673ffffffffffffffffffffffffffffffffffffffff1681526020019081526020016000206040516107c090611196565b908152602001604051809103902054905090565b8060008054906101000a900473ffffffffffffffffffffffffffffffffffffffff1673ffffffffffffffffffffffffffffffffffffffff166370a08231336040518263ffffffff1660e01b815260040161082e9190611532565b602060405180830381865afa15801561084b573d6000803e3d6000fd5b505050506040513d601f19601f8201168201806040525081019061086f9190611562565b10156108b0576040517f08c379a00000000000000000000000000000000000000000000000000000000081526004016108a7906115db565b60405180910390fd5b60008054906101000a900473ffffffffffffffffffffffffffffffffffffffff1673ffffffffffffffffffffffffffffffffffffffff166323b872dd3330846040518463ffffffff1660e01b815260040161090d939291906115fb565b6020604051808303816000875af115801561092c573d6000803e3d6000fd5b505050506040513d601f19601f82011682018060405250810190610950919061142d565b61098f576040517f08c379a00000000000000000000000000000000000000000000000000000000081526004016109869061167e565b60405180910390fd5b6109fb81600860003373ffffffffffffffffffffffffffffffffffffffff1673ffffffffffffffffffffffffffffffffffffffff1681526020019081526020016000206040516109de90611196565b908152602001604051809103902054610e0e90919063ffffffff16565b600860003373ffffffffffffffffffffffffffffffffffffffff1673ffffffffffffffffffffffffffffffffffffffff168152602001908152602001600020604051610a4690611196565b9081526020016040518091039020819055506000600860003373ffffffffffffffffffffffffffffffffffffffff1673ffffffffffffffffffffffffffffffffffffffff168152602001908152602001600020604051610aa5906116ea565b90815260200160405180910390205403610b1c5742600860003373ffffffffffffffffffffffffffffffffffffffff1673ffffffffffffffffffffffffffffffffffffffff168152602001908152602001600020604051610b05906116ea565b908152602001604051809103902081905550610bd8565b610b24610c8a565b600a60003373ffffffffffffffffffffffffffffffffffffffff1673ffffffffffffffffffffffffffffffffffffffff1681526020019081526020016000206000828254610b729190611257565b9250508190555042600860003373ffffffffffffffffffffffffffffffffffffffff1673ffffffffffffffffffffffffffffffffffffffff168152602001908152602001600020604051610bc5906116ea565b9081526020016040518091039020819055505b610bed81600254610e0e90919063ffffffff16565b60028190555050565b600160009054906101000a900473ffffffffffffffffffffffffffffffffffffffff1681565b4260055410610c60576040517f08c379a0000000000000000000000000000000000000000000000000000000008152600401610c5790611771565b60405180910390fd5b80600481905550610c7a4282610e0e90919063ffffffff16565b6005819055504260068190555050565b600080600860003373ffffffffffffffffffffffffffffffffffffffff1673ffffffffffffffffffffffffffffffffffffffff168152602001908152602001600020604051610cd890611196565b90815260200160405180910390205411610d27576040517f08c379a0000000000000000000000000000000000000000000000000000000008152600401610d1e90611208565b60405180910390fd5b600860003373ffffffffffffffffffffffffffffffffffffffff1673ffffffffffffffffffffffffffffffffffffffff168152602001908152602001600020604051610d72906116ea565b90815260200160405180910390205442610d8c91906112f7565b6064600754610d9b91906117c0565b600860003373ffffffffffffffffffffffffffffffffffffffff1673ffffffffffffffffffffffffffffffffffffffff168152602001908152602001600020604051610de690611196565b908152602001604051809103902054610dff91906117f1565b610e0991906117f1565b905090565b60008183610e1c9190611257565b905092915050565b6000819050919050565b610e3781610e24565b82525050565b6000602082019050610e526000830184610e2e565b92915050565b6000604051905090565b600080fd5b600080fd5b600073ffffffffffffffffffffffffffffffffffffffff82169050919050565b6000610e9782610e6c565b9050919050565b610ea781610e8c565b8114610eb257600080fd5b50565b600081359050610ec481610e9e565b92915050565b600080fd5b600080fd5b6000601f19601f8301169050919050565b7f4e487b7100000000000000000000000000000000000000000000000000000000600052604160045260246000fd5b610f1d82610ed4565b810181811067ffffffffffffffff82111715610f3c57610f3b610ee5565b5b80604052505050565b6000610f4f610e58565b9050610f5b8282610f14565b919050565b600067ffffffffffffffff821115610f7b57610f7a610ee5565b5b610f8482610ed4565b9050602081019050919050565b82818337600083830152505050565b6000610fb3610fae84610f60565b610f45565b905082815260208101848484011115610fcf57610fce610ecf565b5b610fda848285610f91565b509392505050565b600082601f830112610ff757610ff6610eca565b5b8135611007848260208601610fa0565b91505092915050565b6000806040838503121561102757611026610e62565b5b600061103585828601610eb5565b925050602083013567ffffffffffffffff81111561105657611055610e67565b5b61106285828601610fe2565b9150509250929050565b61107581610e24565b811461108057600080fd5b50565b6000813590506110928161106c565b92915050565b6000602082840312156110ae576110ad610e62565b5b60006110bc84828501611083565b91505092915050565b6000819050919050565b60006110ea6110e56110e084610e6c565b6110c5565b610e6c565b9050919050565b60006110fc826110cf565b9050919050565b600061110e826110f1565b9050919050565b61111e81611103565b82525050565b60006020820190506111396000830184611115565b92915050565b600081905092915050565b7f616d6f756e740000000000000000000000000000000000000000000000000000600082015250565b600061118060068361113f565b915061118b8261114a565b600682019050919050565b60006111a182611173565b9150819050919050565b600082825260208201905092915050565b7f596f752068617665206e6f74207374616b656420616e7920746f6b656e730000600082015250565b60006111f2601e836111ab565b91506111fd826111bc565b602082019050919050565b60006020820190508181036000830152611221816111e5565b9050919050565b7f4e487b7100000000000000000000000000000000000000000000000000000000600052601160045260246000fd5b600061126282610e24565b915061126d83610e24565b925082820190508082111561128557611284611228565b5b92915050565b7f596f752068617665206e6f74206561726e656420616e79207265776172647300600082015250565b60006112c1601f836111ab565b91506112cc8261128b565b602082019050919050565b600060208201905081810360008301526112f0816112b4565b9050919050565b600061130282610e24565b915061130d83610e24565b925082820390508181111561132557611324611228565b5b92915050565b7f596f7520646f6e2774206861766520656e6f75676820746f207769746864726160008201527f7700000000000000000000000000000000000000000000000000000000000000602082015250565b60006113876021836111ab565b91506113928261132b565b604082019050919050565b600060208201905081810360008301526113b68161137a565b9050919050565b6113c681610e8c565b82525050565b60006040820190506113e160008301856113bd565b6113ee6020830184610e2e565b9392505050565b60008115159050919050565b61140a816113f5565b811461141557600080fd5b50565b60008151905061142781611401565b92915050565b60006020828403121561144357611442610e62565b5b600061145184828501611418565b91505092915050565b7f4661696c656420746f207472616e7366657220746f6b656e7300000000000000600082015250565b60006114906019836111ab565b915061149b8261145a565b602082019050919050565b600060208201905081810360008301526114bf81611483565b9050919050565b7f5374616b696e67207374696c6c20696e2070726f677265737300000000000000600082015250565b60006114fc6019836111ab565b9150611507826114c6565b602082019050919050565b6000602082019050818103600083015261152b816114ef565b9050919050565b600060208201905061154760008301846113bd565b92915050565b60008151905061155c8161106c565b92915050565b60006020828403121561157857611577610e62565b5b60006115868482850161154d565b91505092915050565b7f4e6f7420656e6f75676820746f6b656e7320666f72207374616b650000000000600082015250565b60006115c5601b836111ab565b91506115d08261158f565b602082019050919050565b600060208201905081810360008301526115f4816115b8565b9050919050565b600060608201905061161060008301866113bd565b61161d60208301856113bd565b61162a6040830184610e2e565b949350505050565b7f4661696c656420746f207374616b6520746f6b656e0000000000000000000000600082015250565b60006116686015836111ab565b915061167382611632565b602082019050919050565b600060208201905081810360008301526116978161165b565b9050919050565b7f7570646174656441740000000000000000000000000000000000000000000000600082015250565b60006116d460098361113f565b91506116df8261169e565b600982019050919050565b60006116f5826116c7565b9150819050919050565b7f63616e277420736574206461746520746f20612070726576696f75732074696d60008201527f657374616d700000000000000000000000000000000000000000000000000000602082015250565b600061175b6026836111ab565b9150611766826116ff565b604082019050919050565b6000602082019050818103600083015261178a8161174e565b9050919050565b7f4e487b7100000000000000000000000000000000000000000000000000000000600052601260045260246000fd5b60006117cb82610e24565b91506117d683610e24565b9250826117e6576117e5611791565b5b828204905092915050565b60006117fc82610e24565b915061180783610e24565b925082820261181581610e24565b9150828204841483151761182c5761182b611228565b5b509291505056fea2646970667358221220e7e65ac8f70110d12fb742c01275a1848fbc3bf9a606addbda42fc6438c9755064736f6c63430008120033",
					"opcodes": "PUSH1 0x80 PUSH1 0x40 MSTORE CALLVALUE DUP1 ISZERO PUSH3 0x11 JUMPI PUSH1 0x0 DUP1 REVERT JUMPDEST POP PUSH1 0x40 MLOAD PUSH3 0x19EA CODESIZE SUB DUP1 PUSH3 0x19EA DUP4 CODECOPY DUP2 DUP2 ADD PUSH1 0x40 MSTORE DUP2 ADD SWAP1 PUSH3 0x37 SWAP2 SWAP1 PUSH3 0x12A JUMP JUMPDEST DUP2 PUSH1 0x0 DUP1 PUSH2 0x100 EXP DUP2 SLOAD DUP2 PUSH20 0xFFFFFFFFFFFFFFFFFFFFFFFFFFFFFFFFFFFFFFFF MUL NOT AND SWAP1 DUP4 PUSH20 0xFFFFFFFFFFFFFFFFFFFFFFFFFFFFFFFFFFFFFFFF AND MUL OR SWAP1 SSTORE POP DUP1 PUSH1 0x1 PUSH1 0x0 PUSH2 0x100 EXP DUP2 SLOAD DUP2 PUSH20 0xFFFFFFFFFFFFFFFFFFFFFFFFFFFFFFFFFFFFFFFF MUL NOT AND SWAP1 DUP4 PUSH20 0xFFFFFFFFFFFFFFFFFFFFFFFFFFFFFFFFFFFFFFFF AND MUL OR SWAP1 SSTORE POP POP POP PUSH3 0x171 JUMP JUMPDEST PUSH1 0x0 DUP1 REVERT JUMPDEST PUSH1 0x0 PUSH20 0xFFFFFFFFFFFFFFFFFFFFFFFFFFFFFFFFFFFFFFFF DUP3 AND SWAP1 POP SWAP2 SWAP1 POP JUMP JUMPDEST PUSH1 0x0 PUSH3 0xF2 DUP3 PUSH3 0xC5 JUMP JUMPDEST SWAP1 POP SWAP2 SWAP1 POP JUMP JUMPDEST PUSH3 0x104 DUP2 PUSH3 0xE5 JUMP JUMPDEST DUP2 EQ PUSH3 0x110 JUMPI PUSH1 0x0 DUP1 REVERT JUMPDEST POP JUMP JUMPDEST PUSH1 0x0 DUP2 MLOAD SWAP1 POP PUSH3 0x124 DUP2 PUSH3 0xF9 JUMP JUMPDEST SWAP3 SWAP2 POP POP JUMP JUMPDEST PUSH1 0x0 DUP1 PUSH1 0x40 DUP4 DUP6 SUB SLT ISZERO PUSH3 0x144 JUMPI PUSH3 0x143 PUSH3 0xC0 JUMP JUMPDEST JUMPDEST PUSH1 0x0 PUSH3 0x154 DUP6 DUP3 DUP7 ADD PUSH3 0x113 JUMP JUMPDEST SWAP3 POP POP PUSH1 0x20 PUSH3 0x167 DUP6 DUP3 DUP7 ADD PUSH3 0x113 JUMP JUMPDEST SWAP2 POP POP SWAP3 POP SWAP3 SWAP1 POP JUMP JUMPDEST PUSH2 0x1869 DUP1 PUSH3 0x181 PUSH1 0x0 CODECOPY PUSH1 0x0 RETURN INVALID PUSH1 0x80 PUSH1 0x40 MSTORE CALLVALUE DUP1 ISZERO PUSH2 0x10 JUMPI PUSH1 0x0 DUP1 REVERT JUMPDEST POP PUSH1 0x4 CALLDATASIZE LT PUSH2 0x100 JUMPI PUSH1 0x0 CALLDATALOAD PUSH1 0xE0 SHR DUP1 PUSH4 0x7519AB50 GT PUSH2 0x97 JUMPI DUP1 PUSH4 0xB69EF8A8 GT PUSH2 0x66 JUMPI DUP1 PUSH4 0xB69EF8A8 EQ PUSH2 0x27B JUMPI DUP1 PUSH4 0xCB82CC8F EQ PUSH2 0x299 JUMPI DUP1 PUSH4 0xD1AF0C7D EQ PUSH2 0x2B5 JUMPI DUP1 PUSH4 0xF6BE71D1 EQ PUSH2 0x2D3 JUMPI PUSH2 0x100 JUMP JUMPDEST DUP1 PUSH4 0x7519AB50 EQ PUSH2 0x205 JUMPI DUP1 PUSH4 0x8B0E9F3F EQ PUSH2 0x223 JUMPI DUP1 PUSH4 0x9E447FC6 EQ PUSH2 0x241 JUMPI DUP1 PUSH4 0xAD2E8C9B EQ PUSH2 0x25D JUMPI PUSH2 0x100 JUMP JUMPDEST DUP1 PUSH4 0x50D56ABA GT PUSH2 0xD3 JUMPI DUP1 PUSH4 0x50D56ABA EQ PUSH2 0x17D JUMPI DUP1 PUSH4 0x523A3F08 EQ PUSH2 0x1AD JUMPI DUP1 PUSH4 0x67D3B488 EQ PUSH2 0x1C9 JUMPI DUP1 PUSH4 0x72F702F3 EQ PUSH2 0x1E7 JUMPI PUSH2 0x100 JUMP JUMPDEST DUP1 PUSH4 0xFB5A6B4 EQ PUSH2 0x105 JUMPI DUP1 PUSH4 0x2C4E722E EQ PUSH2 0x123 JUMPI DUP1 PUSH4 0x327BCAC5 EQ PUSH2 0x141 JUMPI DUP1 PUSH4 0x3E50DE30 EQ PUSH2 0x15F JUMPI JUMPDEST PUSH1 0x0 DUP1 REVERT JUMPDEST PUSH2 0x10D PUSH2 0x2EF JUMP JUMPDEST PUSH1 0x40 MLOAD PUSH2 0x11A SWAP2 SWAP1 PUSH2 0xE3D JUMP JUMPDEST PUSH1 0x40 MLOAD DUP1 SWAP2 SUB SWAP1 RETURN JUMPDEST PUSH2 0x12B PUSH2 0x2F5 JUMP JUMPDEST PUSH1 0x40 MLOAD PUSH2 0x138 SWAP2 SWAP1 PUSH2 0xE3D JUMP JUMPDEST PUSH1 0x40 MLOAD DUP1 SWAP2 SUB SWAP1 RETURN JUMPDEST PUSH2 0x149 PUSH2 0x2FB JUMP JUMPDEST PUSH1 0x40 MLOAD PUSH2 0x156 SWAP2 SWAP1 PUSH2 0xE3D JUMP JUMPDEST PUSH1 0x40 MLOAD DUP1 SWAP2 SUB SWAP1 RETURN JUMPDEST PUSH2 0x167 PUSH2 0x301 JUMP JUMPDEST PUSH1 0x40 MLOAD PUSH2 0x174 SWAP2 SWAP1 PUSH2 0xE3D JUMP JUMPDEST PUSH1 0x40 MLOAD DUP1 SWAP2 SUB SWAP1 RETURN JUMPDEST PUSH2 0x197 PUSH1 0x4 DUP1 CALLDATASIZE SUB DUP2 ADD SWAP1 PUSH2 0x192 SWAP2 SWAP1 PUSH2 0x1010 JUMP JUMPDEST PUSH2 0x3F5 JUMP JUMPDEST PUSH1 0x40 MLOAD PUSH2 0x1A4 SWAP2 SWAP1 PUSH2 0xE3D JUMP JUMPDEST PUSH1 0x40 MLOAD DUP1 SWAP2 SUB SWAP1 RETURN JUMPDEST PUSH2 0x1C7 PUSH1 0x4 DUP1 CALLDATASIZE SUB DUP2 ADD SWAP1 PUSH2 0x1C2 SWAP2 SWAP1 PUSH2 0x1098 JUMP JUMPDEST PUSH2 0x430 JUMP JUMPDEST STOP JUMPDEST PUSH2 0x1D1 PUSH2 0x6E5 JUMP JUMPDEST PUSH1 0x40 MLOAD PUSH2 0x1DE SWAP2 SWAP1 PUSH2 0xE3D JUMP JUMPDEST PUSH1 0x40 MLOAD DUP1 SWAP2 SUB SWAP1 RETURN JUMPDEST PUSH2 0x1EF PUSH2 0x6EB JUMP JUMPDEST PUSH1 0x40 MLOAD PUSH2 0x1FC SWAP2 SWAP1 PUSH2 0x1124 JUMP JUMPDEST PUSH1 0x40 MLOAD DUP1 SWAP2 SUB SWAP1 RETURN JUMPDEST PUSH2 0x20D PUSH2 0x70F JUMP JUMPDEST PUSH1 0x40 MLOAD PUSH2 0x21A SWAP2 SWAP1 PUSH2 0xE3D JUMP JUMPDEST PUSH1 0x40 MLOAD DUP1 SWAP2 SUB SWAP1 RETURN JUMPDEST PUSH2 0x22B PUSH2 0x715 JUMP JUMPDEST PUSH1 0x40 MLOAD PUSH2 0x238 SWAP2 SWAP1 PUSH2 0xE3D JUMP JUMPDEST PUSH1 0x40 MLOAD DUP1 SWAP2 SUB SWAP1 RETURN JUMPDEST PUSH2 0x25B PUSH1 0x4 DUP1 CALLDATASIZE SUB DUP2 ADD SWAP1 PUSH2 0x256 SWAP2 SWAP1 PUSH2 0x1098 JUMP JUMPDEST PUSH2 0x71B JUMP JUMPDEST STOP JUMPDEST PUSH2 0x265 PUSH2 0x769 JUMP JUMPDEST PUSH1 0x40 MLOAD PUSH2 0x272 SWAP2 SWAP1 PUSH2 0xE3D JUMP JUMPDEST PUSH1 0x40 MLOAD DUP1 SWAP2 SUB SWAP1 RETURN JUMPDEST PUSH2 0x283 PUSH2 0x773 JUMP JUMPDEST PUSH1 0x40 MLOAD PUSH2 0x290 SWAP2 SWAP1 PUSH2 0xE3D JUMP JUMPDEST PUSH1 0x40 MLOAD DUP1 SWAP2 SUB SWAP1 RETURN JUMPDEST PUSH2 0x2B3 PUSH1 0x4 DUP1 CALLDATASIZE SUB DUP2 ADD SWAP1 PUSH2 0x2AE SWAP2 SWAP1 PUSH2 0x1098 JUMP JUMPDEST PUSH2 0x7D4 JUMP JUMPDEST STOP JUMPDEST PUSH2 0x2BD PUSH2 0xBF6 JUMP JUMPDEST PUSH1 0x40 MLOAD PUSH2 0x2CA SWAP2 SWAP1 PUSH2 0x1124 JUMP JUMPDEST PUSH1 0x40 MLOAD DUP1 SWAP2 SUB SWAP1 RETURN JUMPDEST PUSH2 0x2ED PUSH1 0x4 DUP1 CALLDATASIZE SUB DUP2 ADD SWAP1 PUSH2 0x2E8 SWAP2 SWAP1 PUSH2 0x1098 JUMP JUMPDEST PUSH2 0xC1C JUMP JUMPDEST STOP JUMPDEST PUSH1 0x4 SLOAD DUP2 JUMP JUMPDEST PUSH1 0x7 SLOAD DUP2 JUMP JUMPDEST PUSH1 0x3 SLOAD DUP2 JUMP JUMPDEST PUSH1 0x0 DUP1 PUSH1 0x8 PUSH1 0x0 CALLER PUSH20 0xFFFFFFFFFFFFFFFFFFFFFFFFFFFFFFFFFFFFFFFF AND PUSH20 0xFFFFFFFFFFFFFFFFFFFFFFFFFFFFFFFFFFFFFFFF AND DUP2 MSTORE PUSH1 0x20 ADD SWAP1 DUP2 MSTORE PUSH1 0x20 ADD PUSH1 0x0 KECCAK256 PUSH1 0x40 MLOAD PUSH2 0x34F SWAP1 PUSH2 0x1196 JUMP JUMPDEST SWAP1 DUP2 MSTORE PUSH1 0x20 ADD PUSH1 0x40 MLOAD DUP1 SWAP2 SUB SWAP1 KECCAK256 SLOAD GT PUSH2 0x39E JUMPI PUSH1 0x40 MLOAD PUSH32 0x8C379A000000000000000000000000000000000000000000000000000000000 DUP2 MSTORE PUSH1 0x4 ADD PUSH2 0x395 SWAP1 PUSH2 0x1208 JUMP JUMPDEST PUSH1 0x40 MLOAD DUP1 SWAP2 SUB SWAP1 REVERT JUMPDEST PUSH1 0xA PUSH1 0x0 CALLER PUSH20 0xFFFFFFFFFFFFFFFFFFFFFFFFFFFFFFFFFFFFFFFF AND PUSH20 0xFFFFFFFFFFFFFFFFFFFFFFFFFFFFFFFFFFFFFFFF AND DUP2 MSTORE PUSH1 0x20 ADD SWAP1 DUP2 MSTORE PUSH1 0x20 ADD PUSH1 0x0 KECCAK256 SLOAD PUSH2 0x3E6 PUSH2 0xC8A JUMP JUMPDEST PUSH2 0x3F0 SWAP2 SWAP1 PUSH2 0x1257 JUMP JUMPDEST SWAP1 POP SWAP1 JUMP JUMPDEST PUSH1 0x8 PUSH1 0x20 MSTORE DUP2 PUSH1 0x0 MSTORE PUSH1 0x40 PUSH1 0x0 KECCAK256 DUP2 DUP1 MLOAD PUSH1 0x20 DUP2 ADD DUP3 ADD DUP1 MLOAD DUP5 DUP3 MSTORE PUSH1 0x20 DUP4 ADD PUSH1 0x20 DUP6 ADD KECCAK256 DUP2 DUP4 MSTORE DUP1 SWAP6 POP POP POP POP POP POP PUSH1 0x0 SWAP2 POP SWAP2 POP POP SLOAD DUP2 JUMP JUMPDEST PUSH1 0x0 PUSH1 0xA PUSH1 0x0 CALLER PUSH20 0xFFFFFFFFFFFFFFFFFFFFFFFFFFFFFFFFFFFFFFFF AND PUSH20 0xFFFFFFFFFFFFFFFFFFFFFFFFFFFFFFFFFFFFFFFF AND DUP2 MSTORE PUSH1 0x20 ADD SWAP1 DUP2 MSTORE PUSH1 0x20 ADD PUSH1 0x0 KECCAK256 SLOAD PUSH2 0x47A PUSH2 0xC8A JUMP JUMPDEST PUSH2 0x484 SWAP2 SWAP1 PUSH2 0x1257 JUMP JUMPDEST GT DUP1 ISZERO PUSH2 0x491 JUMPI POP PUSH1 0x0 DUP2 GT JUMPDEST PUSH2 0x4D0 JUMPI PUSH1 0x40 MLOAD PUSH32 0x8C379A000000000000000000000000000000000000000000000000000000000 DUP2 MSTORE PUSH1 0x4 ADD PUSH2 0x4C7 SWAP1 PUSH2 0x12D7 JUMP JUMPDEST PUSH1 0x40 MLOAD DUP1 SWAP2 SUB SWAP1 REVERT JUMPDEST DUP1 PUSH1 0x9 PUSH1 0x0 CALLER PUSH20 0xFFFFFFFFFFFFFFFFFFFFFFFFFFFFFFFFFFFFFFFF AND PUSH20 0xFFFFFFFFFFFFFFFFFFFFFFFFFFFFFFFFFFFFFFFF AND DUP2 MSTORE PUSH1 0x20 ADD SWAP1 DUP2 MSTORE PUSH1 0x20 ADD PUSH1 0x0 KECCAK256 SLOAD PUSH1 0xA PUSH1 0x0 CALLER PUSH20 0xFFFFFFFFFFFFFFFFFFFFFFFFFFFFFFFFFFFFFFFF AND PUSH20 0xFFFFFFFFFFFFFFFFFFFFFFFFFFFFFFFFFFFFFFFF AND DUP2 MSTORE PUSH1 0x20 ADD SWAP1 DUP2 MSTORE PUSH1 0x20 ADD PUSH1 0x0 KECCAK256 SLOAD PUSH2 0x559 PUSH2 0xC8A JUMP JUMPDEST PUSH2 0x563 SWAP2 SWAP1 PUSH2 0x1257 JUMP JUMPDEST PUSH2 0x56D SWAP2 SWAP1 PUSH2 0x12F7 JUMP JUMPDEST LT PUSH2 0x5AD JUMPI PUSH1 0x40 MLOAD PUSH32 0x8C379A000000000000000000000000000000000000000000000000000000000 DUP2 MSTORE PUSH1 0x4 ADD PUSH2 0x5A4 SWAP1 PUSH2 0x139D JUMP JUMPDEST PUSH1 0x40 MLOAD DUP1 SWAP2 SUB SWAP1 REVERT JUMPDEST PUSH1 0x1 PUSH1 0x0 SWAP1 SLOAD SWAP1 PUSH2 0x100 EXP SWAP1 DIV PUSH20 0xFFFFFFFFFFFFFFFFFFFFFFFFFFFFFFFFFFFFFFFF AND PUSH20 0xFFFFFFFFFFFFFFFFFFFFFFFFFFFFFFFFFFFFFFFF AND PUSH4 0xA9059CBB CALLER DUP4 PUSH1 0x40 MLOAD DUP4 PUSH4 0xFFFFFFFF AND PUSH1 0xE0 SHL DUP2 MSTORE PUSH1 0x4 ADD PUSH2 0x60A SWAP3 SWAP2 SWAP1 PUSH2 0x13CC JUMP JUMPDEST PUSH1 0x20 PUSH1 0x40 MLOAD DUP1 DUP4 SUB DUP2 PUSH1 0x0 DUP8 GAS CALL ISZERO DUP1 ISZERO PUSH2 0x629 JUMPI RETURNDATASIZE PUSH1 0x0 DUP1 RETURNDATACOPY RETURNDATASIZE PUSH1 0x0 REVERT JUMPDEST POP POP POP POP PUSH1 0x40 MLOAD RETURNDATASIZE PUSH1 0x1F NOT PUSH1 0x1F DUP3 ADD AND DUP3 ADD DUP1 PUSH1 0x40 MSTORE POP DUP2 ADD SWAP1 PUSH2 0x64D SWAP2 SWAP1 PUSH2 0x142D JUMP JUMPDEST PUSH2 0x68C JUMPI PUSH1 0x40 MLOAD PUSH32 0x8C379A000000000000000000000000000000000000000000000000000000000 DUP2 MSTORE PUSH1 0x4 ADD PUSH2 0x683 SWAP1 PUSH2 0x14A6 JUMP JUMPDEST PUSH1 0x40 MLOAD DUP1 SWAP2 SUB SWAP1 REVERT JUMPDEST DUP1 PUSH1 0x9 PUSH1 0x0 CALLER PUSH20 0xFFFFFFFFFFFFFFFFFFFFFFFFFFFFFFFFFFFFFFFF AND PUSH20 0xFFFFFFFFFFFFFFFFFFFFFFFFFFFFFFFFFFFFFFFF AND DUP2 MSTORE PUSH1 0x20 ADD SWAP1 DUP2 MSTORE PUSH1 0x20 ADD PUSH1 0x0 KECCAK256 PUSH1 0x0 DUP3 DUP3 SLOAD PUSH2 0x6DB SWAP2 SWAP1 PUSH2 0x1257 JUMP JUMPDEST SWAP3 POP POP DUP2 SWAP1 SSTORE POP POP JUMP JUMPDEST PUSH1 0x5 SLOAD DUP2 JUMP JUMPDEST PUSH1 0x0 DUP1 SLOAD SWAP1 PUSH2 0x100 EXP SWAP1 DIV PUSH20 0xFFFFFFFFFFFFFFFFFFFFFFFFFFFFFFFFFFFFFFFF AND DUP2 JUMP JUMPDEST PUSH1 0x6 SLOAD DUP2 JUMP JUMPDEST PUSH1 0x2 SLOAD DUP2 JUMP JUMPDEST TIMESTAMP PUSH1 0x5 SLOAD LT PUSH2 0x75F JUMPI PUSH1 0x40 MLOAD PUSH32 0x8C379A000000000000000000000000000000000000000000000000000000000 DUP2 MSTORE PUSH1 0x4 ADD PUSH2 0x756 SWAP1 PUSH2 0x1512 JUMP JUMPDEST PUSH1 0x40 MLOAD DUP1 SWAP2 SUB SWAP1 REVERT JUMPDEST DUP1 PUSH1 0x7 DUP2 SWAP1 SSTORE POP POP JUMP JUMPDEST PUSH1 0x0 PUSH1 0x4 SLOAD SWAP1 POP SWAP1 JUMP JUMPDEST PUSH1 0x0 PUSH1 0x8 PUSH1 0x0 CALLER PUSH20 0xFFFFFFFFFFFFFFFFFFFFFFFFFFFFFFFFFFFFFFFF AND PUSH20 0xFFFFFFFFFFFFFFFFFFFFFFFFFFFFFFFFFFFFFFFF AND DUP2 MSTORE PUSH1 0x20 ADD SWAP1 DUP2 MSTORE PUSH1 0x20 ADD PUSH1 0x0 KECCAK256 PUSH1 0x40 MLOAD PUSH2 0x7C0 SWAP1 PUSH2 0x1196 JUMP JUMPDEST SWAP1 DUP2 MSTORE PUSH1 0x20 ADD PUSH1 0x40 MLOAD DUP1 SWAP2 SUB SWAP1 KECCAK256 SLOAD SWAP1 POP SWAP1 JUMP JUMPDEST DUP1 PUSH1 0x0 DUP1 SLOAD SWAP1 PUSH2 0x100 EXP SWAP1 DIV PUSH20 0xFFFFFFFFFFFFFFFFFFFFFFFFFFFFFFFFFFFFFFFF AND PUSH20 0xFFFFFFFFFFFFFFFFFFFFFFFFFFFFFFFFFFFFFFFF AND PUSH4 0x70A08231 CALLER PUSH1 0x40 MLOAD DUP3 PUSH4 0xFFFFFFFF AND PUSH1 0xE0 SHL DUP2 MSTORE PUSH1 0x4 ADD PUSH2 0x82E SWAP2 SWAP1 PUSH2 0x1532 JUMP JUMPDEST PUSH1 0x20 PUSH1 0x40 MLOAD DUP1 DUP4 SUB DUP2 DUP7 GAS STATICCALL ISZERO DUP1 ISZERO PUSH2 0x84B JUMPI RETURNDATASIZE PUSH1 0x0 DUP1 RETURNDATACOPY RETURNDATASIZE PUSH1 0x0 REVERT JUMPDEST POP POP POP POP PUSH1 0x40 MLOAD RETURNDATASIZE PUSH1 0x1F NOT PUSH1 0x1F DUP3 ADD AND DUP3 ADD DUP1 PUSH1 0x40 MSTORE POP DUP2 ADD SWAP1 PUSH2 0x86F SWAP2 SWAP1 PUSH2 0x1562 JUMP JUMPDEST LT ISZERO PUSH2 0x8B0 JUMPI PUSH1 0x40 MLOAD PUSH32 0x8C379A000000000000000000000000000000000000000000000000000000000 DUP2 MSTORE PUSH1 0x4 ADD PUSH2 0x8A7 SWAP1 PUSH2 0x15DB JUMP JUMPDEST PUSH1 0x40 MLOAD DUP1 SWAP2 SUB SWAP1 REVERT JUMPDEST PUSH1 0x0 DUP1 SLOAD SWAP1 PUSH2 0x100 EXP SWAP1 DIV PUSH20 0xFFFFFFFFFFFFFFFFFFFFFFFFFFFFFFFFFFFFFFFF AND PUSH20 0xFFFFFFFFFFFFFFFFFFFFFFFFFFFFFFFFFFFFFFFF AND PUSH4 0x23B872DD CALLER ADDRESS DUP5 PUSH1 0x40 MLOAD DUP5 PUSH4 0xFFFFFFFF AND PUSH1 0xE0 SHL DUP2 MSTORE PUSH1 0x4 ADD PUSH2 0x90D SWAP4 SWAP3 SWAP2 SWAP1 PUSH2 0x15FB JUMP JUMPDEST PUSH1 0x20 PUSH1 0x40 MLOAD DUP1 DUP4 SUB DUP2 PUSH1 0x0 DUP8 GAS CALL ISZERO DUP1 ISZERO PUSH2 0x92C JUMPI RETURNDATASIZE PUSH1 0x0 DUP1 RETURNDATACOPY RETURNDATASIZE PUSH1 0x0 REVERT JUMPDEST POP POP POP POP PUSH1 0x40 MLOAD RETURNDATASIZE PUSH1 0x1F NOT PUSH1 0x1F DUP3 ADD AND DUP3 ADD DUP1 PUSH1 0x40 MSTORE POP DUP2 ADD SWAP1 PUSH2 0x950 SWAP2 SWAP1 PUSH2 0x142D JUMP JUMPDEST PUSH2 0x98F JUMPI PUSH1 0x40 MLOAD PUSH32 0x8C379A000000000000000000000000000000000000000000000000000000000 DUP2 MSTORE PUSH1 0x4 ADD PUSH2 0x986 SWAP1 PUSH2 0x167E JUMP JUMPDEST PUSH1 0x40 MLOAD DUP1 SWAP2 SUB SWAP1 REVERT JUMPDEST PUSH2 0x9FB DUP2 PUSH1 0x8 PUSH1 0x0 CALLER PUSH20 0xFFFFFFFFFFFFFFFFFFFFFFFFFFFFFFFFFFFFFFFF AND PUSH20 0xFFFFFFFFFFFFFFFFFFFFFFFFFFFFFFFFFFFFFFFF AND DUP2 MSTORE PUSH1 0x20 ADD SWAP1 DUP2 MSTORE PUSH1 0x20 ADD PUSH1 0x0 KECCAK256 PUSH1 0x40 MLOAD PUSH2 0x9DE SWAP1 PUSH2 0x1196 JUMP JUMPDEST SWAP1 DUP2 MSTORE PUSH1 0x20 ADD PUSH1 0x40 MLOAD DUP1 SWAP2 SUB SWAP1 KECCAK256 SLOAD PUSH2 0xE0E SWAP1 SWAP2 SWAP1 PUSH4 0xFFFFFFFF AND JUMP JUMPDEST PUSH1 0x8 PUSH1 0x0 CALLER PUSH20 0xFFFFFFFFFFFFFFFFFFFFFFFFFFFFFFFFFFFFFFFF AND PUSH20 0xFFFFFFFFFFFFFFFFFFFFFFFFFFFFFFFFFFFFFFFF AND DUP2 MSTORE PUSH1 0x20 ADD SWAP1 DUP2 MSTORE PUSH1 0x20 ADD PUSH1 0x0 KECCAK256 PUSH1 0x40 MLOAD PUSH2 0xA46 SWAP1 PUSH2 0x1196 JUMP JUMPDEST SWAP1 DUP2 MSTORE PUSH1 0x20 ADD PUSH1 0x40 MLOAD DUP1 SWAP2 SUB SWAP1 KECCAK256 DUP2 SWAP1 SSTORE POP PUSH1 0x0 PUSH1 0x8 PUSH1 0x0 CALLER PUSH20 0xFFFFFFFFFFFFFFFFFFFFFFFFFFFFFFFFFFFFFFFF AND PUSH20 0xFFFFFFFFFFFFFFFFFFFFFFFFFFFFFFFFFFFFFFFF AND DUP2 MSTORE PUSH1 0x20 ADD SWAP1 DUP2 MSTORE PUSH1 0x20 ADD PUSH1 0x0 KECCAK256 PUSH1 0x40 MLOAD PUSH2 0xAA5 SWAP1 PUSH2 0x16EA JUMP JUMPDEST SWAP1 DUP2 MSTORE PUSH1 0x20 ADD PUSH1 0x40 MLOAD DUP1 SWAP2 SUB SWAP1 KECCAK256 SLOAD SUB PUSH2 0xB1C JUMPI TIMESTAMP PUSH1 0x8 PUSH1 0x0 CALLER PUSH20 0xFFFFFFFFFFFFFFFFFFFFFFFFFFFFFFFFFFFFFFFF AND PUSH20 0xFFFFFFFFFFFFFFFFFFFFFFFFFFFFFFFFFFFFFFFF AND DUP2 MSTORE PUSH1 0x20 ADD SWAP1 DUP2 MSTORE PUSH1 0x20 ADD PUSH1 0x0 KECCAK256 PUSH1 0x40 MLOAD PUSH2 0xB05 SWAP1 PUSH2 0x16EA JUMP JUMPDEST SWAP1 DUP2 MSTORE PUSH1 0x20 ADD PUSH1 0x40 MLOAD DUP1 SWAP2 SUB SWAP1 KECCAK256 DUP2 SWAP1 SSTORE POP PUSH2 0xBD8 JUMP JUMPDEST PUSH2 0xB24 PUSH2 0xC8A JUMP JUMPDEST PUSH1 0xA PUSH1 0x0 CALLER PUSH20 0xFFFFFFFFFFFFFFFFFFFFFFFFFFFFFFFFFFFFFFFF AND PUSH20 0xFFFFFFFFFFFFFFFFFFFFFFFFFFFFFFFFFFFFFFFF AND DUP2 MSTORE PUSH1 0x20 ADD SWAP1 DUP2 MSTORE PUSH1 0x20 ADD PUSH1 0x0 KECCAK256 PUSH1 0x0 DUP3 DUP3 SLOAD PUSH2 0xB72 SWAP2 SWAP1 PUSH2 0x1257 JUMP JUMPDEST SWAP3 POP POP DUP2 SWAP1 SSTORE POP TIMESTAMP PUSH1 0x8 PUSH1 0x0 CALLER PUSH20 0xFFFFFFFFFFFFFFFFFFFFFFFFFFFFFFFFFFFFFFFF AND PUSH20 0xFFFFFFFFFFFFFFFFFFFFFFFFFFFFFFFFFFFFFFFF AND DUP2 MSTORE PUSH1 0x20 ADD SWAP1 DUP2 MSTORE PUSH1 0x20 ADD PUSH1 0x0 KECCAK256 PUSH1 0x40 MLOAD PUSH2 0xBC5 SWAP1 PUSH2 0x16EA JUMP JUMPDEST SWAP1 DUP2 MSTORE PUSH1 0x20 ADD PUSH1 0x40 MLOAD DUP1 SWAP2 SUB SWAP1 KECCAK256 DUP2 SWAP1 SSTORE POP JUMPDEST PUSH2 0xBED DUP2 PUSH1 0x2 SLOAD PUSH2 0xE0E SWAP1 SWAP2 SWAP1 PUSH4 0xFFFFFFFF AND JUMP JUMPDEST PUSH1 0x2 DUP2 SWAP1 SSTORE POP POP JUMP JUMPDEST PUSH1 0x1 PUSH1 0x0 SWAP1 SLOAD SWAP1 PUSH2 0x100 EXP SWAP1 DIV PUSH20 0xFFFFFFFFFFFFFFFFFFFFFFFFFFFFFFFFFFFFFFFF AND DUP2 JUMP JUMPDEST TIMESTAMP PUSH1 0x5 SLOAD LT PUSH2 0xC60 JUMPI PUSH1 0x40 MLOAD PUSH32 0x8C379A000000000000000000000000000000000000000000000000000000000 DUP2 MSTORE PUSH1 0x4 ADD PUSH2 0xC57 SWAP1 PUSH2 0x1771 JUMP JUMPDEST PUSH1 0x40 MLOAD DUP1 SWAP2 SUB SWAP1 REVERT JUMPDEST DUP1 PUSH1 0x4 DUP2 SWAP1 SSTORE POP PUSH2 0xC7A TIMESTAMP DUP3 PUSH2 0xE0E SWAP1 SWAP2 SWAP1 PUSH4 0xFFFFFFFF AND JUMP JUMPDEST PUSH1 0x5 DUP2 SWAP1 SSTORE POP TIMESTAMP PUSH1 0x6 DUP2 SWAP1 SSTORE POP POP JUMP JUMPDEST PUSH1 0x0 DUP1 PUSH1 0x8 PUSH1 0x0 CALLER PUSH20 0xFFFFFFFFFFFFFFFFFFFFFFFFFFFFFFFFFFFFFFFF AND PUSH20 0xFFFFFFFFFFFFFFFFFFFFFFFFFFFFFFFFFFFFFFFF AND DUP2 MSTORE PUSH1 0x20 ADD SWAP1 DUP2 MSTORE PUSH1 0x20 ADD PUSH1 0x0 KECCAK256 PUSH1 0x40 MLOAD PUSH2 0xCD8 SWAP1 PUSH2 0x1196 JUMP JUMPDEST SWAP1 DUP2 MSTORE PUSH1 0x20 ADD PUSH1 0x40 MLOAD DUP1 SWAP2 SUB SWAP1 KECCAK256 SLOAD GT PUSH2 0xD27 JUMPI PUSH1 0x40 MLOAD PUSH32 0x8C379A000000000000000000000000000000000000000000000000000000000 DUP2 MSTORE PUSH1 0x4 ADD PUSH2 0xD1E SWAP1 PUSH2 0x1208 JUMP JUMPDEST PUSH1 0x40 MLOAD DUP1 SWAP2 SUB SWAP1 REVERT JUMPDEST PUSH1 0x8 PUSH1 0x0 CALLER PUSH20 0xFFFFFFFFFFFFFFFFFFFFFFFFFFFFFFFFFFFFFFFF AND PUSH20 0xFFFFFFFFFFFFFFFFFFFFFFFFFFFFFFFFFFFFFFFF AND DUP2 MSTORE PUSH1 0x20 ADD SWAP1 DUP2 MSTORE PUSH1 0x20 ADD PUSH1 0x0 KECCAK256 PUSH1 0x40 MLOAD PUSH2 0xD72 SWAP1 PUSH2 0x16EA JUMP JUMPDEST SWAP1 DUP2 MSTORE PUSH1 0x20 ADD PUSH1 0x40 MLOAD DUP1 SWAP2 SUB SWAP1 KECCAK256 SLOAD TIMESTAMP PUSH2 0xD8C SWAP2 SWAP1 PUSH2 0x12F7 JUMP JUMPDEST PUSH1 0x64 PUSH1 0x7 SLOAD PUSH2 0xD9B SWAP2 SWAP1 PUSH2 0x17C0 JUMP JUMPDEST PUSH1 0x8 PUSH1 0x0 CALLER PUSH20 0xFFFFFFFFFFFFFFFFFFFFFFFFFFFFFFFFFFFFFFFF AND PUSH20 0xFFFFFFFFFFFFFFFFFFFFFFFFFFFFFFFFFFFFFFFF AND DUP2 MSTORE PUSH1 0x20 ADD SWAP1 DUP2 MSTORE PUSH1 0x20 ADD PUSH1 0x0 KECCAK256 PUSH1 0x40 MLOAD PUSH2 0xDE6 SWAP1 PUSH2 0x1196 JUMP JUMPDEST SWAP1 DUP2 MSTORE PUSH1 0x20 ADD PUSH1 0x40 MLOAD DUP1 SWAP2 SUB SWAP1 KECCAK256 SLOAD PUSH2 0xDFF SWAP2 SWAP1 PUSH2 0x17F1 JUMP JUMPDEST PUSH2 0xE09 SWAP2 SWAP1 PUSH2 0x17F1 JUMP JUMPDEST SWAP1 POP SWAP1 JUMP JUMPDEST PUSH1 0x0 DUP2 DUP4 PUSH2 0xE1C SWAP2 SWAP1 PUSH2 0x1257 JUMP JUMPDEST SWAP1 POP SWAP3 SWAP2 POP POP JUMP JUMPDEST PUSH1 0x0 DUP2 SWAP1 POP SWAP2 SWAP1 POP JUMP JUMPDEST PUSH2 0xE37 DUP2 PUSH2 0xE24 JUMP JUMPDEST DUP3 MSTORE POP POP JUMP JUMPDEST PUSH1 0x0 PUSH1 0x20 DUP3 ADD SWAP1 POP PUSH2 0xE52 PUSH1 0x0 DUP4 ADD DUP5 PUSH2 0xE2E JUMP JUMPDEST SWAP3 SWAP2 POP POP JUMP JUMPDEST PUSH1 0x0 PUSH1 0x40 MLOAD SWAP1 POP SWAP1 JUMP JUMPDEST PUSH1 0x0 DUP1 REVERT JUMPDEST PUSH1 0x0 DUP1 REVERT JUMPDEST PUSH1 0x0 PUSH20 0xFFFFFFFFFFFFFFFFFFFFFFFFFFFFFFFFFFFFFFFF DUP3 AND SWAP1 POP SWAP2 SWAP1 POP JUMP JUMPDEST PUSH1 0x0 PUSH2 0xE97 DUP3 PUSH2 0xE6C JUMP JUMPDEST SWAP1 POP SWAP2 SWAP1 POP JUMP JUMPDEST PUSH2 0xEA7 DUP2 PUSH2 0xE8C JUMP JUMPDEST DUP2 EQ PUSH2 0xEB2 JUMPI PUSH1 0x0 DUP1 REVERT JUMPDEST POP JUMP JUMPDEST PUSH1 0x0 DUP2 CALLDATALOAD SWAP1 POP PUSH2 0xEC4 DUP2 PUSH2 0xE9E JUMP JUMPDEST SWAP3 SWAP2 POP POP JUMP JUMPDEST PUSH1 0x0 DUP1 REVERT JUMPDEST PUSH1 0x0 DUP1 REVERT JUMPDEST PUSH1 0x0 PUSH1 0x1F NOT PUSH1 0x1F DUP4 ADD AND SWAP1 POP SWAP2 SWAP1 POP JUMP JUMPDEST PUSH32 0x4E487B7100000000000000000000000000000000000000000000000000000000 PUSH1 0x0 MSTORE PUSH1 0x41 PUSH1 0x4 MSTORE PUSH1 0x24 PUSH1 0x0 REVERT JUMPDEST PUSH2 0xF1D DUP3 PUSH2 0xED4 JUMP JUMPDEST DUP2 ADD DUP2 DUP2 LT PUSH8 0xFFFFFFFFFFFFFFFF DUP3 GT OR ISZERO PUSH2 0xF3C JUMPI PUSH2 0xF3B PUSH2 0xEE5 JUMP JUMPDEST JUMPDEST DUP1 PUSH1 0x40 MSTORE POP POP POP JUMP JUMPDEST PUSH1 0x0 PUSH2 0xF4F PUSH2 0xE58 JUMP JUMPDEST SWAP1 POP PUSH2 0xF5B DUP3 DUP3 PUSH2 0xF14 JUMP JUMPDEST SWAP2 SWAP1 POP JUMP JUMPDEST PUSH1 0x0 PUSH8 0xFFFFFFFFFFFFFFFF DUP3 GT ISZERO PUSH2 0xF7B JUMPI PUSH2 0xF7A PUSH2 0xEE5 JUMP JUMPDEST JUMPDEST PUSH2 0xF84 DUP3 PUSH2 0xED4 JUMP JUMPDEST SWAP1 POP PUSH1 0x20 DUP2 ADD SWAP1 POP SWAP2 SWAP1 POP JUMP JUMPDEST DUP3 DUP2 DUP4 CALLDATACOPY PUSH1 0x0 DUP4 DUP4 ADD MSTORE POP POP POP JUMP JUMPDEST PUSH1 0x0 PUSH2 0xFB3 PUSH2 0xFAE DUP5 PUSH2 0xF60 JUMP JUMPDEST PUSH2 0xF45 JUMP JUMPDEST SWAP1 POP DUP3 DUP2 MSTORE PUSH1 0x20 DUP2 ADD DUP5 DUP5 DUP5 ADD GT ISZERO PUSH2 0xFCF JUMPI PUSH2 0xFCE PUSH2 0xECF JUMP JUMPDEST JUMPDEST PUSH2 0xFDA DUP5 DUP3 DUP6 PUSH2 0xF91 JUMP JUMPDEST POP SWAP4 SWAP3 POP POP POP JUMP JUMPDEST PUSH1 0x0 DUP3 PUSH1 0x1F DUP4 ADD SLT PUSH2 0xFF7 JUMPI PUSH2 0xFF6 PUSH2 0xECA JUMP JUMPDEST JUMPDEST DUP2 CALLDATALOAD PUSH2 0x1007 DUP5 DUP3 PUSH1 0x20 DUP7 ADD PUSH2 0xFA0 JUMP JUMPDEST SWAP2 POP POP SWAP3 SWAP2 POP POP JUMP JUMPDEST PUSH1 0x0 DUP1 PUSH1 0x40 DUP4 DUP6 SUB SLT ISZERO PUSH2 0x1027 JUMPI PUSH2 0x1026 PUSH2 0xE62 JUMP JUMPDEST JUMPDEST PUSH1 0x0 PUSH2 0x1035 DUP6 DUP3 DUP7 ADD PUSH2 0xEB5 JUMP JUMPDEST SWAP3 POP POP PUSH1 0x20 DUP4 ADD CALLDATALOAD PUSH8 0xFFFFFFFFFFFFFFFF DUP2 GT ISZERO PUSH2 0x1056 JUMPI PUSH2 0x1055 PUSH2 0xE67 JUMP JUMPDEST JUMPDEST PUSH2 0x1062 DUP6 DUP3 DUP7 ADD PUSH2 0xFE2 JUMP JUMPDEST SWAP2 POP POP SWAP3 POP SWAP3 SWAP1 POP JUMP JUMPDEST PUSH2 0x1075 DUP2 PUSH2 0xE24 JUMP JUMPDEST DUP2 EQ PUSH2 0x1080 JUMPI PUSH1 0x0 DUP1 REVERT JUMPDEST POP JUMP JUMPDEST PUSH1 0x0 DUP2 CALLDATALOAD SWAP1 POP PUSH2 0x1092 DUP2 PUSH2 0x106C JUMP JUMPDEST SWAP3 SWAP2 POP POP JUMP JUMPDEST PUSH1 0x0 PUSH1 0x20 DUP3 DUP5 SUB SLT ISZERO PUSH2 0x10AE JUMPI PUSH2 0x10AD PUSH2 0xE62 JUMP JUMPDEST JUMPDEST PUSH1 0x0 PUSH2 0x10BC DUP5 DUP3 DUP6 ADD PUSH2 0x1083 JUMP JUMPDEST SWAP2 POP POP SWAP3 SWAP2 POP POP JUMP JUMPDEST PUSH1 0x0 DUP2 SWAP1 POP SWAP2 SWAP1 POP JUMP JUMPDEST PUSH1 0x0 PUSH2 0x10EA PUSH2 0x10E5 PUSH2 0x10E0 DUP5 PUSH2 0xE6C JUMP JUMPDEST PUSH2 0x10C5 JUMP JUMPDEST PUSH2 0xE6C JUMP JUMPDEST SWAP1 POP SWAP2 SWAP1 POP JUMP JUMPDEST PUSH1 0x0 PUSH2 0x10FC DUP3 PUSH2 0x10CF JUMP JUMPDEST SWAP1 POP SWAP2 SWAP1 POP JUMP JUMPDEST PUSH1 0x0 PUSH2 0x110E DUP3 PUSH2 0x10F1 JUMP JUMPDEST SWAP1 POP SWAP2 SWAP1 POP JUMP JUMPDEST PUSH2 0x111E DUP2 PUSH2 0x1103 JUMP JUMPDEST DUP3 MSTORE POP POP JUMP JUMPDEST PUSH1 0x0 PUSH1 0x20 DUP3 ADD SWAP1 POP PUSH2 0x1139 PUSH1 0x0 DUP4 ADD DUP5 PUSH2 0x1115 JUMP JUMPDEST SWAP3 SWAP2 POP POP JUMP JUMPDEST PUSH1 0x0 DUP2 SWAP1 POP SWAP3 SWAP2 POP POP JUMP JUMPDEST PUSH32 0x616D6F756E740000000000000000000000000000000000000000000000000000 PUSH1 0x0 DUP3 ADD MSTORE POP JUMP JUMPDEST PUSH1 0x0 PUSH2 0x1180 PUSH1 0x6 DUP4 PUSH2 0x113F JUMP JUMPDEST SWAP2 POP PUSH2 0x118B DUP3 PUSH2 0x114A JUMP JUMPDEST PUSH1 0x6 DUP3 ADD SWAP1 POP SWAP2 SWAP1 POP JUMP JUMPDEST PUSH1 0x0 PUSH2 0x11A1 DUP3 PUSH2 0x1173 JUMP JUMPDEST SWAP2 POP DUP2 SWAP1 POP SWAP2 SWAP1 POP JUMP JUMPDEST PUSH1 0x0 DUP3 DUP3 MSTORE PUSH1 0x20 DUP3 ADD SWAP1 POP SWAP3 SWAP2 POP POP JUMP JUMPDEST PUSH32 0x596F752068617665206E6F74207374616B656420616E7920746F6B656E730000 PUSH1 0x0 DUP3 ADD MSTORE POP JUMP JUMPDEST PUSH1 0x0 PUSH2 0x11F2 PUSH1 0x1E DUP4 PUSH2 0x11AB JUMP JUMPDEST SWAP2 POP PUSH2 0x11FD DUP3 PUSH2 0x11BC JUMP JUMPDEST PUSH1 0x20 DUP3 ADD SWAP1 POP SWAP2 SWAP1 POP JUMP JUMPDEST PUSH1 0x0 PUSH1 0x20 DUP3 ADD SWAP1 POP DUP2 DUP2 SUB PUSH1 0x0 DUP4 ADD MSTORE PUSH2 0x1221 DUP2 PUSH2 0x11E5 JUMP JUMPDEST SWAP1 POP SWAP2 SWAP1 POP JUMP JUMPDEST PUSH32 0x4E487B7100000000000000000000000000000000000000000000000000000000 PUSH1 0x0 MSTORE PUSH1 0x11 PUSH1 0x4 MSTORE PUSH1 0x24 PUSH1 0x0 REVERT JUMPDEST PUSH1 0x0 PUSH2 0x1262 DUP3 PUSH2 0xE24 JUMP JUMPDEST SWAP2 POP PUSH2 0x126D DUP4 PUSH2 0xE24 JUMP JUMPDEST SWAP3 POP DUP3 DUP3 ADD SWAP1 POP DUP1 DUP3 GT ISZERO PUSH2 0x1285 JUMPI PUSH2 0x1284 PUSH2 0x1228 JUMP JUMPDEST JUMPDEST SWAP3 SWAP2 POP POP JUMP JUMPDEST PUSH32 0x596F752068617665206E6F74206561726E656420616E79207265776172647300 PUSH1 0x0 DUP3 ADD MSTORE POP JUMP JUMPDEST PUSH1 0x0 PUSH2 0x12C1 PUSH1 0x1F DUP4 PUSH2 0x11AB JUMP JUMPDEST SWAP2 POP PUSH2 0x12CC DUP3 PUSH2 0x128B JUMP JUMPDEST PUSH1 0x20 DUP3 ADD SWAP1 POP SWAP2 SWAP1 POP JUMP JUMPDEST PUSH1 0x0 PUSH1 0x20 DUP3 ADD SWAP1 POP DUP2 DUP2 SUB PUSH1 0x0 DUP4 ADD MSTORE PUSH2 0x12F0 DUP2 PUSH2 0x12B4 JUMP JUMPDEST SWAP1 POP SWAP2 SWAP1 POP JUMP JUMPDEST PUSH1 0x0 PUSH2 0x1302 DUP3 PUSH2 0xE24 JUMP JUMPDEST SWAP2 POP PUSH2 0x130D DUP4 PUSH2 0xE24 JUMP JUMPDEST SWAP3 POP DUP3 DUP3 SUB SWAP1 POP DUP2 DUP2 GT ISZERO PUSH2 0x1325 JUMPI PUSH2 0x1324 PUSH2 0x1228 JUMP JUMPDEST JUMPDEST SWAP3 SWAP2 POP POP JUMP JUMPDEST PUSH32 0x596F7520646F6E2774206861766520656E6F75676820746F2077697468647261 PUSH1 0x0 DUP3 ADD MSTORE PUSH32 0x7700000000000000000000000000000000000000000000000000000000000000 PUSH1 0x20 DUP3 ADD MSTORE POP JUMP JUMPDEST PUSH1 0x0 PUSH2 0x1387 PUSH1 0x21 DUP4 PUSH2 0x11AB JUMP JUMPDEST SWAP2 POP PUSH2 0x1392 DUP3 PUSH2 0x132B JUMP JUMPDEST PUSH1 0x40 DUP3 ADD SWAP1 POP SWAP2 SWAP1 POP JUMP JUMPDEST PUSH1 0x0 PUSH1 0x20 DUP3 ADD SWAP1 POP DUP2 DUP2 SUB PUSH1 0x0 DUP4 ADD MSTORE PUSH2 0x13B6 DUP2 PUSH2 0x137A JUMP JUMPDEST SWAP1 POP SWAP2 SWAP1 POP JUMP JUMPDEST PUSH2 0x13C6 DUP2 PUSH2 0xE8C JUMP JUMPDEST DUP3 MSTORE POP POP JUMP JUMPDEST PUSH1 0x0 PUSH1 0x40 DUP3 ADD SWAP1 POP PUSH2 0x13E1 PUSH1 0x0 DUP4 ADD DUP6 PUSH2 0x13BD JUMP JUMPDEST PUSH2 0x13EE PUSH1 0x20 DUP4 ADD DUP5 PUSH2 0xE2E JUMP JUMPDEST SWAP4 SWAP3 POP POP POP JUMP JUMPDEST PUSH1 0x0 DUP2 ISZERO ISZERO SWAP1 POP SWAP2 SWAP1 POP JUMP JUMPDEST PUSH2 0x140A DUP2 PUSH2 0x13F5 JUMP JUMPDEST DUP2 EQ PUSH2 0x1415 JUMPI PUSH1 0x0 DUP1 REVERT JUMPDEST POP JUMP JUMPDEST PUSH1 0x0 DUP2 MLOAD SWAP1 POP PUSH2 0x1427 DUP2 PUSH2 0x1401 JUMP JUMPDEST SWAP3 SWAP2 POP POP JUMP JUMPDEST PUSH1 0x0 PUSH1 0x20 DUP3 DUP5 SUB SLT ISZERO PUSH2 0x1443 JUMPI PUSH2 0x1442 PUSH2 0xE62 JUMP JUMPDEST JUMPDEST PUSH1 0x0 PUSH2 0x1451 DUP5 DUP3 DUP6 ADD PUSH2 0x1418 JUMP JUMPDEST SWAP2 POP POP SWAP3 SWAP2 POP POP JUMP JUMPDEST PUSH32 0x4661696C656420746F207472616E7366657220746F6B656E7300000000000000 PUSH1 0x0 DUP3 ADD MSTORE POP JUMP JUMPDEST PUSH1 0x0 PUSH2 0x1490 PUSH1 0x19 DUP4 PUSH2 0x11AB JUMP JUMPDEST SWAP2 POP PUSH2 0x149B DUP3 PUSH2 0x145A JUMP JUMPDEST PUSH1 0x20 DUP3 ADD SWAP1 POP SWAP2 SWAP1 POP JUMP JUMPDEST PUSH1 0x0 PUSH1 0x20 DUP3 ADD SWAP1 POP DUP2 DUP2 SUB PUSH1 0x0 DUP4 ADD MSTORE PUSH2 0x14BF DUP2 PUSH2 0x1483 JUMP JUMPDEST SWAP1 POP SWAP2 SWAP1 POP JUMP JUMPDEST PUSH32 0x5374616B696E67207374696C6C20696E2070726F677265737300000000000000 PUSH1 0x0 DUP3 ADD MSTORE POP JUMP JUMPDEST PUSH1 0x0 PUSH2 0x14FC PUSH1 0x19 DUP4 PUSH2 0x11AB JUMP JUMPDEST SWAP2 POP PUSH2 0x1507 DUP3 PUSH2 0x14C6 JUMP JUMPDEST PUSH1 0x20 DUP3 ADD SWAP1 POP SWAP2 SWAP1 POP JUMP JUMPDEST PUSH1 0x0 PUSH1 0x20 DUP3 ADD SWAP1 POP DUP2 DUP2 SUB PUSH1 0x0 DUP4 ADD MSTORE PUSH2 0x152B DUP2 PUSH2 0x14EF JUMP JUMPDEST SWAP1 POP SWAP2 SWAP1 POP JUMP JUMPDEST PUSH1 0x0 PUSH1 0x20 DUP3 ADD SWAP1 POP PUSH2 0x1547 PUSH1 0x0 DUP4 ADD DUP5 PUSH2 0x13BD JUMP JUMPDEST SWAP3 SWAP2 POP POP JUMP JUMPDEST PUSH1 0x0 DUP2 MLOAD SWAP1 POP PUSH2 0x155C DUP2 PUSH2 0x106C JUMP JUMPDEST SWAP3 SWAP2 POP POP JUMP JUMPDEST PUSH1 0x0 PUSH1 0x20 DUP3 DUP5 SUB SLT ISZERO PUSH2 0x1578 JUMPI PUSH2 0x1577 PUSH2 0xE62 JUMP JUMPDEST JUMPDEST PUSH1 0x0 PUSH2 0x1586 DUP5 DUP3 DUP6 ADD PUSH2 0x154D JUMP JUMPDEST SWAP2 POP POP SWAP3 SWAP2 POP POP JUMP JUMPDEST PUSH32 0x4E6F7420656E6F75676820746F6B656E7320666F72207374616B650000000000 PUSH1 0x0 DUP3 ADD MSTORE POP JUMP JUMPDEST PUSH1 0x0 PUSH2 0x15C5 PUSH1 0x1B DUP4 PUSH2 0x11AB JUMP JUMPDEST SWAP2 POP PUSH2 0x15D0 DUP3 PUSH2 0x158F JUMP JUMPDEST PUSH1 0x20 DUP3 ADD SWAP1 POP SWAP2 SWAP1 POP JUMP JUMPDEST PUSH1 0x0 PUSH1 0x20 DUP3 ADD SWAP1 POP DUP2 DUP2 SUB PUSH1 0x0 DUP4 ADD MSTORE PUSH2 0x15F4 DUP2 PUSH2 0x15B8 JUMP JUMPDEST SWAP1 POP SWAP2 SWAP1 POP JUMP JUMPDEST PUSH1 0x0 PUSH1 0x60 DUP3 ADD SWAP1 POP PUSH2 0x1610 PUSH1 0x0 DUP4 ADD DUP7 PUSH2 0x13BD JUMP JUMPDEST PUSH2 0x161D PUSH1 0x20 DUP4 ADD DUP6 PUSH2 0x13BD JUMP JUMPDEST PUSH2 0x162A PUSH1 0x40 DUP4 ADD DUP5 PUSH2 0xE2E JUMP JUMPDEST SWAP5 SWAP4 POP POP POP POP JUMP JUMPDEST PUSH32 0x4661696C656420746F207374616B6520746F6B656E0000000000000000000000 PUSH1 0x0 DUP3 ADD MSTORE POP JUMP JUMPDEST PUSH1 0x0 PUSH2 0x1668 PUSH1 0x15 DUP4 PUSH2 0x11AB JUMP JUMPDEST SWAP2 POP PUSH2 0x1673 DUP3 PUSH2 0x1632 JUMP JUMPDEST PUSH1 0x20 DUP3 ADD SWAP1 POP SWAP2 SWAP1 POP JUMP JUMPDEST PUSH1 0x0 PUSH1 0x20 DUP3 ADD SWAP1 POP DUP2 DUP2 SUB PUSH1 0x0 DUP4 ADD MSTORE PUSH2 0x1697 DUP2 PUSH2 0x165B JUMP JUMPDEST SWAP1 POP SWAP2 SWAP1 POP JUMP JUMPDEST PUSH32 0x7570646174656441740000000000000000000000000000000000000000000000 PUSH1 0x0 DUP3 ADD MSTORE POP JUMP JUMPDEST PUSH1 0x0 PUSH2 0x16D4 PUSH1 0x9 DUP4 PUSH2 0x113F JUMP JUMPDEST SWAP2 POP PUSH2 0x16DF DUP3 PUSH2 0x169E JUMP JUMPDEST PUSH1 0x9 DUP3 ADD SWAP1 POP SWAP2 SWAP1 POP JUMP JUMPDEST PUSH1 0x0 PUSH2 0x16F5 DUP3 PUSH2 0x16C7 JUMP JUMPDEST SWAP2 POP DUP2 SWAP1 POP SWAP2 SWAP1 POP JUMP JUMPDEST PUSH32 0x63616E277420736574206461746520746F20612070726576696F75732074696D PUSH1 0x0 DUP3 ADD MSTORE PUSH32 0x657374616D700000000000000000000000000000000000000000000000000000 PUSH1 0x20 DUP3 ADD MSTORE POP JUMP JUMPDEST PUSH1 0x0 PUSH2 0x175B PUSH1 0x26 DUP4 PUSH2 0x11AB JUMP JUMPDEST SWAP2 POP PUSH2 0x1766 DUP3 PUSH2 0x16FF JUMP JUMPDEST PUSH1 0x40 DUP3 ADD SWAP1 POP SWAP2 SWAP1 POP JUMP JUMPDEST PUSH1 0x0 PUSH1 0x20 DUP3 ADD SWAP1 POP DUP2 DUP2 SUB PUSH1 0x0 DUP4 ADD MSTORE PUSH2 0x178A DUP2 PUSH2 0x174E JUMP JUMPDEST SWAP1 POP SWAP2 SWAP1 POP JUMP JUMPDEST PUSH32 0x4E487B7100000000000000000000000000000000000000000000000000000000 PUSH1 0x0 MSTORE PUSH1 0x12 PUSH1 0x4 MSTORE PUSH1 0x24 PUSH1 0x0 REVERT JUMPDEST PUSH1 0x0 PUSH2 0x17CB DUP3 PUSH2 0xE24 JUMP JUMPDEST SWAP2 POP PUSH2 0x17D6 DUP4 PUSH2 0xE24 JUMP JUMPDEST SWAP3 POP DUP3 PUSH2 0x17E6 JUMPI PUSH2 0x17E5 PUSH2 0x1791 JUMP JUMPDEST JUMPDEST DUP3 DUP3 DIV SWAP1 POP SWAP3 SWAP2 POP POP JUMP JUMPDEST PUSH1 0x0 PUSH2 0x17FC DUP3 PUSH2 0xE24 JUMP JUMPDEST SWAP2 POP PUSH2 0x1807 DUP4 PUSH2 0xE24 JUMP JUMPDEST SWAP3 POP DUP3 DUP3 MUL PUSH2 0x1815 DUP2 PUSH2 0xE24 JUMP JUMPDEST SWAP2 POP DUP3 DUP3 DIV DUP5 EQ DUP4 ISZERO OR PUSH2 0x182C JUMPI PUSH2 0x182B PUSH2 0x1228 JUMP JUMPDEST JUMPDEST POP SWAP3 SWAP2 POP POP JUMP INVALID LOG2 PUSH5 0x6970667358 0x22 SLT KECCAK256 0xE7 0xE6 GAS 0xC8 0xF7 ADD LT 0xD1 0x2F 0xB7 TIMESTAMP 0xC0 SLT PUSH22 0xA1848FBC3BF9A606ADDBDA42FC6438C9755064736F6C PUSH4 0x43000812 STOP CALLER "
				},
				"gasEstimates": {
					"creation": {
						"codeDepositCost": "1249800",
						"executionCost": "infinite",
						"totalCost": "infinite"
					},
					"external": {
						"_balance(address,string)": "infinite",
						"balance()": "2835",
						"calculateRewards()": "infinite",
						"depositStake(uint256)": "infinite",
						"duration()": "2453",
						"finishAt()": "2496",
						"getDuration()": "2526",
						"rate()": "2475",
						"rewardsToken()": "infinite",
						"setDuration(uint256)": "infinite",
						"setRewardRate(uint256)": "24709",
						"stakingToken()": "infinite",
						"totalStake()": "2474",
						"totalStakeRewards()": "2497",
						"updatedAt()": "2452",
						"withdrawReward(uint256)": "infinite"
					},
					"internal": {
						"earned()": "infinite"
					}
				},
				"methodIdentifiers": {
					"_balance(address,string)": "50d56aba",
					"balance()": "b69ef8a8",
					"calculateRewards()": "3e50de30",
					"depositStake(uint256)": "cb82cc8f",
					"duration()": "0fb5a6b4",
					"finishAt()": "67d3b488",
					"getDuration()": "ad2e8c9b",
					"rate()": "2c4e722e",
					"rewardsToken()": "d1af0c7d",
					"setDuration(uint256)": "f6be71d1",
					"setRewardRate(uint256)": "9e447fc6",
					"stakingToken()": "72f702f3",
					"totalStake()": "8b0e9f3f",
					"totalStakeRewards()": "327bcac5",
					"updatedAt()": "7519ab50",
					"withdrawReward(uint256)": "523a3f08"
				}
			},
			"storageLayout": {
				"storage": [
					{
						"astId": 43,
						"contract": "contracts/staking.sol:Staking",
						"label": "stakingToken",
						"offset": 0,
						"slot": "0",
						"type": "t_contract(IERC20)461"
					},
					{
						"astId": 46,
						"contract": "contracts/staking.sol:Staking",
						"label": "rewardsToken",
						"offset": 0,
						"slot": "1",
						"type": "t_contract(IERC20)461"
					},
					{
						"astId": 48,
						"contract": "contracts/staking.sol:Staking",
						"label": "totalStake",
						"offset": 0,
						"slot": "2",
						"type": "t_uint256"
					},
					{
						"astId": 50,
						"contract": "contracts/staking.sol:Staking",
						"label": "totalStakeRewards",
						"offset": 0,
						"slot": "3",
						"type": "t_uint256"
					},
					{
						"astId": 52,
						"contract": "contracts/staking.sol:Staking",
						"label": "duration",
						"offset": 0,
						"slot": "4",
						"type": "t_uint256"
					},
					{
						"astId": 54,
						"contract": "contracts/staking.sol:Staking",
						"label": "finishAt",
						"offset": 0,
						"slot": "5",
						"type": "t_uint256"
					},
					{
						"astId": 56,
						"contract": "contracts/staking.sol:Staking",
						"label": "updatedAt",
						"offset": 0,
						"slot": "6",
						"type": "t_uint256"
					},
					{
						"astId": 58,
						"contract": "contracts/staking.sol:Staking",
						"label": "rate",
						"offset": 0,
						"slot": "7",
						"type": "t_uint256"
					},
					{
						"astId": 64,
						"contract": "contracts/staking.sol:Staking",
						"label": "_balance",
						"offset": 0,
						"slot": "8",
						"type": "t_mapping(t_address,t_mapping(t_string_memory_ptr,t_uint256))"
					},
					{
						"astId": 68,
						"contract": "contracts/staking.sol:Staking",
						"label": "_rewardsWithdrawals",
						"offset": 0,
						"slot": "9",
						"type": "t_mapping(t_address,t_uint256)"
					},
					{
						"astId": 72,
						"contract": "contracts/staking.sol:Staking",
						"label": "accBeforeUpdate",
						"offset": 0,
						"slot": "10",
						"type": "t_mapping(t_address,t_uint256)"
					}
				],
				"types": {
					"t_address": {
						"encoding": "inplace",
						"label": "address",
						"numberOfBytes": "20"
					},
					"t_contract(IERC20)461": {
						"encoding": "inplace",
						"label": "contract IERC20",
						"numberOfBytes": "20"
					},
					"t_mapping(t_address,t_mapping(t_string_memory_ptr,t_uint256))": {
						"encoding": "mapping",
						"key": "t_address",
						"label": "mapping(address => mapping(string => uint256))",
						"numberOfBytes": "32",
						"value": "t_mapping(t_string_memory_ptr,t_uint256)"
					},
					"t_mapping(t_address,t_uint256)": {
						"encoding": "mapping",
						"key": "t_address",
						"label": "mapping(address => uint256)",
						"numberOfBytes": "32",
						"value": "t_uint256"
					},
					"t_mapping(t_string_memory_ptr,t_uint256)": {
						"encoding": "mapping",
						"key": "t_string_memory_ptr",
						"label": "mapping(string => uint256)",
						"numberOfBytes": "32",
						"value": "t_uint256"
					},
					"t_string_memory_ptr": {
						"encoding": "bytes",
						"label": "string",
						"numberOfBytes": "32"
					},
					"t_uint256": {
						"encoding": "inplace",
						"label": "uint256",
						"numberOfBytes": "32"
					}
				}
			},
			"userdoc": {
				"kind": "user",
				"methods": {},
				"version": 1
			}
		}
	}
}