{
	"data": {
		"bytecode": {
			"linkReferences": {},
			"object": "608060405234801561000f575f80fd5b5061052c8061001d5f395ff3fe608060405234801561000f575f80fd5b5060043610610034575f3560e01c80630bca236a14610038578063c0f5419714610068575b5f80fd5b610052600480360381019061004d9190610195565b610098565b60405161005f91906101e2565b60405180910390f35b610082600480360381019061007d9190610195565b6100e5565b60405161008f91906101e2565b60405180910390f35b5f806002600a6100a89190610363565b90505f8182856100b891906103ad565b83876100c491906103ad565b6100ce91906103ee565b6100d8919061044e565b9050809250505092915050565b5f808203610128576040517f08c379a000000000000000000000000000000000000000000000000000000000815260040161011f906104d8565b60405180910390fd5b5f6002600a6101379190610363565b90505f83828661014791906103ad565b610151919061044e565b9050809250505092915050565b5f80fd5b5f819050919050565b61017481610162565b811461017e575f80fd5b50565b5f8135905061018f8161016b565b92915050565b5f80604083850312156101ab576101aa61015e565b5b5f6101b885828601610181565b92505060206101c985828601610181565b9150509250929050565b6101dc81610162565b82525050565b5f6020820190506101f55f8301846101d3565b92915050565b7f4e487b71000000000000000000000000000000000000000000000000000000005f52601160045260245ffd5b5f8160011c9050919050565b5f808291508390505b600185111561027d57808604811115610259576102586101fb565b5b60018516156102685780820291505b808102905061027685610228565b945061023d565b94509492505050565b5f826102955760019050610350565b816102a2575f9050610350565b81600181146102b857600281146102c2576102f1565b6001915050610350565b60ff8411156102d4576102d36101fb565b5b8360020a9150848211156102eb576102ea6101fb565b5b50610350565b5060208310610133831016604e8410600b84101617156103265782820a905083811115610321576103206101fb565b5b610350565b6103338484846001610234565b9250905081840481111561034a576103496101fb565b5b81810290505b9392505050565b5f60ff82169050919050565b5f61036d82610162565b915061037883610357565b92506103a57fffffffffffffffffffffffffffffffffffffffffffffffffffffffffffffffff8484610286565b905092915050565b5f6103b782610162565b91506103c283610162565b92508282026103d081610162565b915082820484148315176103e7576103e66101fb565b5b5092915050565b5f6103f882610162565b915061040383610162565b925082820190508082111561041b5761041a6101fb565b5b92915050565b7f4e487b71000000000000000000000000000000000000000000000000000000005f52601260045260245ffd5b5f61045882610162565b915061046383610162565b92508261047357610472610421565b5b828204905092915050565b5f82825260208201905092915050565b7f43616e6e6f7420646976696465206279207a65726f00000000000000000000005f82015250565b5f6104c260158361047e565b91506104cd8261048e565b602082019050919050565b5f6020820190508181035f8301526104ef816104b6565b905091905056fea264697066735822122003485dcfcc0ef425d6d3e455c9e6ca531c60c99e4fe86e005377031343e3914f64736f6c63430008140033",
			"opcodes": "PUSH1 0x80 PUSH1 0x40 MSTORE CALLVALUE DUP1 ISZERO PUSH2 0xF JUMPI PUSH0 DUP1 REVERT JUMPDEST POP PUSH2 0x52C DUP1 PUSH2 0x1D PUSH0 CODECOPY PUSH0 RETURN INVALID PUSH1 0x80 PUSH1 0x40 MSTORE CALLVALUE DUP1 ISZERO PUSH2 0xF JUMPI PUSH0 DUP1 REVERT JUMPDEST POP PUSH1 0x4 CALLDATASIZE LT PUSH2 0x34 JUMPI PUSH0 CALLDATALOAD PUSH1 0xE0 SHR DUP1 PUSH4 0xBCA236A EQ PUSH2 0x38 JUMPI DUP1 PUSH4 0xC0F54197 EQ PUSH2 0x68 JUMPI JUMPDEST PUSH0 DUP1 REVERT JUMPDEST PUSH2 0x52 PUSH1 0x4 DUP1 CALLDATASIZE SUB DUP2 ADD SWAP1 PUSH2 0x4D SWAP2 SWAP1 PUSH2 0x195 JUMP JUMPDEST PUSH2 0x98 JUMP JUMPDEST PUSH1 0x40 MLOAD PUSH2 0x5F SWAP2 SWAP1 PUSH2 0x1E2 JUMP JUMPDEST PUSH1 0x40 MLOAD DUP1 SWAP2 SUB SWAP1 RETURN JUMPDEST PUSH2 0x82 PUSH1 0x4 DUP1 CALLDATASIZE SUB DUP2 ADD SWAP1 PUSH2 0x7D SWAP2 SWAP1 PUSH2 0x195 JUMP JUMPDEST PUSH2 0xE5 JUMP JUMPDEST PUSH1 0x40 MLOAD PUSH2 0x8F SWAP2 SWAP1 PUSH2 0x1E2 JUMP JUMPDEST PUSH1 0x40 MLOAD DUP1 SWAP2 SUB SWAP1 RETURN JUMPDEST PUSH0 DUP1 PUSH1 0x2 PUSH1 0xA PUSH2 0xA8 SWAP2 SWAP1 PUSH2 0x363 JUMP JUMPDEST SWAP1 POP PUSH0 DUP2 DUP3 DUP6 PUSH2 0xB8 SWAP2 SWAP1 PUSH2 0x3AD JUMP JUMPDEST DUP4 DUP8 PUSH2 0xC4 SWAP2 SWAP1 PUSH2 0x3AD JUMP JUMPDEST PUSH2 0xCE SWAP2 SWAP1 PUSH2 0x3EE JUMP JUMPDEST PUSH2 0xD8 SWAP2 SWAP1 PUSH2 0x44E JUMP JUMPDEST SWAP1 POP DUP1 SWAP3 POP POP POP SWAP3 SWAP2 POP POP JUMP JUMPDEST PUSH0 DUP1 DUP3 SUB PUSH2 0x128 JUMPI PUSH1 0x40 MLOAD PUSH32 0x8C379A000000000000000000000000000000000000000000000000000000000 DUP2 MSTORE PUSH1 0x4 ADD PUSH2 0x11F SWAP1 PUSH2 0x4D8 JUMP JUMPDEST PUSH1 0x40 MLOAD DUP1 SWAP2 SUB SWAP1 REVERT JUMPDEST PUSH0 PUSH1 0x2 PUSH1 0xA PUSH2 0x137 SWAP2 SWAP1 PUSH2 0x363 JUMP JUMPDEST SWAP1 POP PUSH0 DUP4 DUP3 DUP7 PUSH2 0x147 SWAP2 SWAP1 PUSH2 0x3AD JUMP JUMPDEST PUSH2 0x151 SWAP2 SWAP1 PUSH2 0x44E JUMP JUMPDEST SWAP1 POP DUP1 SWAP3 POP POP POP SWAP3 SWAP2 POP POP JUMP JUMPDEST PUSH0 DUP1 REVERT JUMPDEST PUSH0 DUP2 SWAP1 POP SWAP2 SWAP1 POP JUMP JUMPDEST PUSH2 0x174 DUP2 PUSH2 0x162 JUMP JUMPDEST DUP2 EQ PUSH2 0x17E JUMPI PUSH0 DUP1 REVERT JUMPDEST POP JUMP JUMPDEST PUSH0 DUP2 CALLDATALOAD SWAP1 POP PUSH2 0x18F DUP2 PUSH2 0x16B JUMP JUMPDEST SWAP3 SWAP2 POP POP JUMP JUMPDEST PUSH0 DUP1 PUSH1 0x40 DUP4 DUP6 SUB SLT ISZERO PUSH2 0x1AB JUMPI PUSH2 0x1AA PUSH2 0x15E JUMP JUMPDEST JUMPDEST PUSH0 PUSH2 0x1B8 DUP6 DUP3 DUP7 ADD PUSH2 0x181 JUMP JUMPDEST SWAP3 POP POP PUSH1 0x20 PUSH2 0x1C9 DUP6 DUP3 DUP7 ADD PUSH2 0x181 JUMP JUMPDEST SWAP2 POP POP SWAP3 POP SWAP3 SWAP1 POP JUMP JUMPDEST PUSH2 0x1DC DUP2 PUSH2 0x162 JUMP JUMPDEST DUP3 MSTORE POP POP JUMP JUMPDEST PUSH0 PUSH1 0x20 DUP3 ADD SWAP1 POP PUSH2 0x1F5 PUSH0 DUP4 ADD DUP5 PUSH2 0x1D3 JUMP JUMPDEST SWAP3 SWAP2 POP POP JUMP JUMPDEST PUSH32 0x4E487B7100000000000000000000000000000000000000000000000000000000 PUSH0 MSTORE PUSH1 0x11 PUSH1 0x4 MSTORE PUSH1 0x24 PUSH0 REVERT JUMPDEST PUSH0 DUP2 PUSH1 0x1 SHR SWAP1 POP SWAP2 SWAP1 POP JUMP JUMPDEST PUSH0 DUP1 DUP3 SWAP2 POP DUP4 SWAP1 POP JUMPDEST PUSH1 0x1 DUP6 GT ISZERO PUSH2 0x27D JUMPI DUP1 DUP7 DIV DUP2 GT ISZERO PUSH2 0x259 JUMPI PUSH2 0x258 PUSH2 0x1FB JUMP JUMPDEST JUMPDEST PUSH1 0x1 DUP6 AND ISZERO PUSH2 0x268 JUMPI DUP1 DUP3 MUL SWAP2 POP JUMPDEST DUP1 DUP2 MUL SWAP1 POP PUSH2 0x276 DUP6 PUSH2 0x228 JUMP JUMPDEST SWAP5 POP PUSH2 0x23D JUMP JUMPDEST SWAP5 POP SWAP5 SWAP3 POP POP POP JUMP JUMPDEST PUSH0 DUP3 PUSH2 0x295 JUMPI PUSH1 0x1 SWAP1 POP PUSH2 0x350 JUMP JUMPDEST DUP2 PUSH2 0x2A2 JUMPI PUSH0 SWAP1 POP PUSH2 0x350 JUMP JUMPDEST DUP2 PUSH1 0x1 DUP2 EQ PUSH2 0x2B8 JUMPI PUSH1 0x2 DUP2 EQ PUSH2 0x2C2 JUMPI PUSH2 0x2F1 JUMP JUMPDEST PUSH1 0x1 SWAP2 POP POP PUSH2 0x350 JUMP JUMPDEST PUSH1 0xFF DUP5 GT ISZERO PUSH2 0x2D4 JUMPI PUSH2 0x2D3 PUSH2 0x1FB JUMP JUMPDEST JUMPDEST DUP4 PUSH1 0x2 EXP SWAP2 POP DUP5 DUP3 GT ISZERO PUSH2 0x2EB JUMPI PUSH2 0x2EA PUSH2 0x1FB JUMP JUMPDEST JUMPDEST POP PUSH2 0x350 JUMP JUMPDEST POP PUSH1 0x20 DUP4 LT PUSH2 0x133 DUP4 LT AND PUSH1 0x4E DUP5 LT PUSH1 0xB DUP5 LT AND OR ISZERO PUSH2 0x326 JUMPI DUP3 DUP3 EXP SWAP1 POP DUP4 DUP2 GT ISZERO PUSH2 0x321 JUMPI PUSH2 0x320 PUSH2 0x1FB JUMP JUMPDEST JUMPDEST PUSH2 0x350 JUMP JUMPDEST PUSH2 0x333 DUP5 DUP5 DUP5 PUSH1 0x1 PUSH2 0x234 JUMP JUMPDEST SWAP3 POP SWAP1 POP DUP2 DUP5 DIV DUP2 GT ISZERO PUSH2 0x34A JUMPI PUSH2 0x349 PUSH2 0x1FB JUMP JUMPDEST JUMPDEST DUP2 DUP2 MUL SWAP1 POP JUMPDEST SWAP4 SWAP3 POP POP POP JUMP JUMPDEST PUSH0 PUSH1 0xFF DUP3 AND SWAP1 POP SWAP2 SWAP1 POP JUMP JUMPDEST PUSH0 PUSH2 0x36D DUP3 PUSH2 0x162 JUMP JUMPDEST SWAP2 POP PUSH2 0x378 DUP4 PUSH2 0x357 JUMP JUMPDEST SWAP3 POP PUSH2 0x3A5 PUSH32 0xFFFFFFFFFFFFFFFFFFFFFFFFFFFFFFFFFFFFFFFFFFFFFFFFFFFFFFFFFFFFFFFF DUP5 DUP5 PUSH2 0x286 JUMP JUMPDEST SWAP1 POP SWAP3 SWAP2 POP POP JUMP JUMPDEST PUSH0 PUSH2 0x3B7 DUP3 PUSH2 0x162 JUMP JUMPDEST SWAP2 POP PUSH2 0x3C2 DUP4 PUSH2 0x162 JUMP JUMPDEST SWAP3 POP DUP3 DUP3 MUL PUSH2 0x3D0 DUP2 PUSH2 0x162 JUMP JUMPDEST SWAP2 POP DUP3 DUP3 DIV DUP5 EQ DUP4 ISZERO OR PUSH2 0x3E7 JUMPI PUSH2 0x3E6 PUSH2 0x1FB JUMP JUMPDEST JUMPDEST POP SWAP3 SWAP2 POP POP JUMP JUMPDEST PUSH0 PUSH2 0x3F8 DUP3 PUSH2 0x162 JUMP JUMPDEST SWAP2 POP PUSH2 0x403 DUP4 PUSH2 0x162 JUMP JUMPDEST SWAP3 POP DUP3 DUP3 ADD SWAP1 POP DUP1 DUP3 GT ISZERO PUSH2 0x41B JUMPI PUSH2 0x41A PUSH2 0x1FB JUMP JUMPDEST JUMPDEST SWAP3 SWAP2 POP POP JUMP JUMPDEST PUSH32 0x4E487B7100000000000000000000000000000000000000000000000000000000 PUSH0 MSTORE PUSH1 0x12 PUSH1 0x4 MSTORE PUSH1 0x24 PUSH0 REVERT JUMPDEST PUSH0 PUSH2 0x458 DUP3 PUSH2 0x162 JUMP JUMPDEST SWAP2 POP PUSH2 0x463 DUP4 PUSH2 0x162 JUMP JUMPDEST SWAP3 POP DUP3 PUSH2 0x473 JUMPI PUSH2 0x472 PUSH2 0x421 JUMP JUMPDEST JUMPDEST DUP3 DUP3 DIV SWAP1 POP SWAP3 SWAP2 POP POP JUMP JUMPDEST PUSH0 DUP3 DUP3 MSTORE PUSH1 0x20 DUP3 ADD SWAP1 POP SWAP3 SWAP2 POP POP JUMP JUMPDEST PUSH32 0x43616E6E6F7420646976696465206279207A65726F0000000000000000000000 PUSH0 DUP3 ADD MSTORE POP JUMP JUMPDEST PUSH0 PUSH2 0x4C2 PUSH1 0x15 DUP4 PUSH2 0x47E JUMP JUMPDEST SWAP2 POP PUSH2 0x4CD DUP3 PUSH2 0x48E JUMP JUMPDEST PUSH1 0x20 DUP3 ADD SWAP1 POP SWAP2 SWAP1 POP JUMP JUMPDEST PUSH0 PUSH1 0x20 DUP3 ADD SWAP1 POP DUP2 DUP2 SUB PUSH0 DUP4 ADD MSTORE PUSH2 0x4EF DUP2 PUSH2 0x4B6 JUMP JUMPDEST SWAP1 POP SWAP2 SWAP1 POP JUMP INVALID LOG2 PUSH5 0x6970667358 0x22 SLT KECCAK256 SUB BASEFEE 0x5D 0xCF 0xCC 0xE DELEGATECALL 0x25 0xD6 0xD3 0xE4 SSTORE 0xC9 0xE6 0xCA MSTORE8 SHR PUSH1 0xC9 SWAP15 0x4F 0xE8 PUSH15 0x5377031343E3914F64736F6C6343 STOP ADDMOD EQ STOP CALLER "
		},
		"gasEstimates": {
			"creation": {
				"codeDepositCost": "264800",
				"executionCost": "304",
				"totalCost": "265104"
			},
			"external": {
				"addFloatingPoint(uint256,uint256)": "infinite",
				"divideFloatingPoint(uint256,uint256)": "infinite"
			}
		},
		"methodIdentifiers": {
			"addFloatingPoint(uint256,uint256)": "0bca236a",
			"divideFloatingPoint(uint256,uint256)": "c0f54197"
		}
	},
	"abi": [
		{
			"inputs": [
				{
					"internalType": "uint256",
					"name": "x",
					"type": "uint256"
				},
				{
					"internalType": "uint256",
					"name": "y",
					"type": "uint256"
				}
			],
			"name": "addFloatingPoint",
			"outputs": [
				{
					"internalType": "uint256",
					"name": "",
					"type": "uint256"
				}
			],
			"stateMutability": "pure",
			"type": "function"
		},
		{
			"inputs": [
				{
					"internalType": "uint256",
					"name": "x",
					"type": "uint256"
				},
				{
					"internalType": "uint256",
					"name": "y",
					"type": "uint256"
				}
			],
			"name": "divideFloatingPoint",
			"outputs": [
				{
					"internalType": "uint256",
					"name": "",
					"type": "uint256"
				}
			],
			"stateMutability": "pure",
			"type": "function"
		}
	]
}