{
	"data": {
		"bytecode": {
			"linkReferences": {},
			"object": "60806040523480156200001157600080fd5b506040516200138b3803806200138b83398181016040528101906200003791906200012a565b816000806101000a81548173ffffffffffffffffffffffffffffffffffffffff021916908373ffffffffffffffffffffffffffffffffffffffff16021790555080600160006101000a81548173ffffffffffffffffffffffffffffffffffffffff021916908373ffffffffffffffffffffffffffffffffffffffff160217905550505062000171565b600080fd5b600073ffffffffffffffffffffffffffffffffffffffff82169050919050565b6000620000f282620000c5565b9050919050565b6200010481620000e5565b81146200011057600080fd5b50565b6000815190506200012481620000f9565b92915050565b60008060408385031215620001445762000143620000c0565b5b6000620001548582860162000113565b9250506020620001678582860162000113565b9150509250929050565b61120a80620001816000396000f3fe608060405234801561001057600080fd5b50600436106101005760003560e01c80639e447fc611610097578063d1af0c7d11610066578063d1af0c7d14610267578063d3aceae214610285578063d6f19262146102b5578063f6be71d1146102d357610100565b80639e447fc6146101f3578063ad2e8c9b1461020f578063b69ef8a81461022d578063cb82cc8f1461024b57610100565b806367d3b488116100d357806367d3b4881461017b57806372f702f3146101995780637519ab50146101b75780638b0e9f3f146101d557610100565b80630fb5a6b4146101055780632c4e722e14610123578063327bcac514610141578063523a3f081461015f575b600080fd5b61010d6102ef565b60405161011a9190610a2f565b60405180910390f35b61012b6102f5565b6040516101389190610a2f565b60405180910390f35b6101496102fb565b6040516101569190610a2f565b60405180910390f35b61017960048036038101906101749190610a7b565b610301565b005b610183610516565b6040516101909190610a2f565b60405180910390f35b6101a161051c565b6040516101ae9190610b27565b60405180910390f35b6101bf610540565b6040516101cc9190610a2f565b60405180910390f35b6101dd610546565b6040516101ea9190610a2f565b60405180910390f35b61020d60048036038101906102089190610a7b565b61054c565b005b61021761059a565b6040516102249190610a2f565b60405180910390f35b6102356105a4565b6040516102429190610a2f565b60405180910390f35b61026560048036038101906102609190610a7b565b6105eb565b005b61026f610859565b60405161027c9190610b27565b60405180910390f35b61029f600480360381019061029a9190610b80565b61087f565b6040516102ac9190610a2f565b60405180910390f35b6102bd610897565b6040516102ca9190610a2f565b60405180910390f35b6102ed60048036038101906102e89190610a7b565b610990565b005b60045481565b60075481565b60035481565b600061030b610897565b1161034b576040517f08c379a000000000000000000000000000000000000000000000000000000000815260040161034290610c0a565b60405180910390fd5b80600960003373ffffffffffffffffffffffffffffffffffffffff1673ffffffffffffffffffffffffffffffffffffffff16815260200190815260200160002054610394610897565b61039e9190610c59565b106103de576040517f08c379a00000000000000000000000000000000000000000000000000000000081526004016103d590610cff565b60405180910390fd5b600160009054906101000a900473ffffffffffffffffffffffffffffffffffffffff1673ffffffffffffffffffffffffffffffffffffffff1663a9059cbb33836040518363ffffffff1660e01b815260040161043b929190610d2e565b6020604051808303816000875af115801561045a573d6000803e3d6000fd5b505050506040513d601f19601f8201168201806040525081019061047e9190610d8f565b6104bd576040517f08c379a00000000000000000000000000000000000000000000000000000000081526004016104b490610e08565b60405180910390fd5b80600960003373ffffffffffffffffffffffffffffffffffffffff1673ffffffffffffffffffffffffffffffffffffffff168152602001908152602001600020600082825461050c9190610e28565b9250508190555050565b60055481565b60008054906101000a900473ffffffffffffffffffffffffffffffffffffffff1681565b60065481565b60025481565b4260055410610590576040517f08c379a000000000000000000000000000000000000000000000000000000000815260040161058790610ea8565b60405180910390fd5b8060078190555050565b6000600454905090565b6000600860003373ffffffffffffffffffffffffffffffffffffffff1673ffffffffffffffffffffffffffffffffffffffff16815260200190815260200160002054905090565b8060008054906101000a900473ffffffffffffffffffffffffffffffffffffffff1673ffffffffffffffffffffffffffffffffffffffff166370a08231336040518263ffffffff1660e01b81526004016106459190610ec8565b602060405180830381865afa158015610662573d6000803e3d6000fd5b505050506040513d601f19601f820116820180604052508101906106869190610ef8565b10156106c7576040517f08c379a00000000000000000000000000000000000000000000000000000000081526004016106be90610f71565b60405180910390fd5b60008054906101000a900473ffffffffffffffffffffffffffffffffffffffff1673ffffffffffffffffffffffffffffffffffffffff166323b872dd3330846040518463ffffffff1660e01b815260040161072493929190610f91565b6020604051808303816000875af1158015610743573d6000803e3d6000fd5b505050506040513d601f19601f820116820180604052508101906107679190610d8f565b6107a6576040517f08c379a000000000000000000000000000000000000000000000000000000000815260040161079d90611014565b60405180910390fd5b6107f881600860003373ffffffffffffffffffffffffffffffffffffffff1673ffffffffffffffffffffffffffffffffffffffff16815260200190815260200160002054610a0090919063ffffffff16565b600860003373ffffffffffffffffffffffffffffffffffffffff1673ffffffffffffffffffffffffffffffffffffffff1681526020019081526020016000208190555061085081600254610a0090919063ffffffff16565b60028190555050565b600160009054906101000a900473ffffffffffffffffffffffffffffffffffffffff1681565b60086020528060005260406000206000915090505481565b600080600860003373ffffffffffffffffffffffffffffffffffffffff1673ffffffffffffffffffffffffffffffffffffffff168152602001908152602001600020541161091a576040517f08c379a000000000000000000000000000000000000000000000000000000000815260040161091190611080565b60405180910390fd5b600654426109289190610c59565b606460075461093791906110cf565b600860003373ffffffffffffffffffffffffffffffffffffffff1673ffffffffffffffffffffffffffffffffffffffff168152602001908152602001600020546109819190611100565b61098b9190611100565b905090565b42600554106109d4576040517f08c379a00000000000000000000000000000000000000000000000000000000081526004016109cb906111b4565b60405180910390fd5b806004819055506109f081600554610a0090919063ffffffff16565b6005819055504260068190555050565b60008183610a0e9190610e28565b905092915050565b6000819050919050565b610a2981610a16565b82525050565b6000602082019050610a446000830184610a20565b92915050565b600080fd5b610a5881610a16565b8114610a6357600080fd5b50565b600081359050610a7581610a4f565b92915050565b600060208284031215610a9157610a90610a4a565b5b6000610a9f84828501610a66565b91505092915050565b600073ffffffffffffffffffffffffffffffffffffffff82169050919050565b6000819050919050565b6000610aed610ae8610ae384610aa8565b610ac8565b610aa8565b9050919050565b6000610aff82610ad2565b9050919050565b6000610b1182610af4565b9050919050565b610b2181610b06565b82525050565b6000602082019050610b3c6000830184610b18565b92915050565b6000610b4d82610aa8565b9050919050565b610b5d81610b42565b8114610b6857600080fd5b50565b600081359050610b7a81610b54565b92915050565b600060208284031215610b9657610b95610a4a565b5b6000610ba484828501610b6b565b91505092915050565b600082825260208201905092915050565b7f596f752068617665206e6f74206561726e656420616e79207265776172647300600082015250565b6000610bf4601f83610bad565b9150610bff82610bbe565b602082019050919050565b60006020820190508181036000830152610c2381610be7565b9050919050565b7f4e487b7100000000000000000000000000000000000000000000000000000000600052601160045260246000fd5b6000610c6482610a16565b9150610c6f83610a16565b9250828203905081811115610c8757610c86610c2a565b5b92915050565b7f596f7520646f6e2774206861766520656e6f75676820746f207769746864726160008201527f7700000000000000000000000000000000000000000000000000000000000000602082015250565b6000610ce9602183610bad565b9150610cf482610c8d565b604082019050919050565b60006020820190508181036000830152610d1881610cdc565b9050919050565b610d2881610b42565b82525050565b6000604082019050610d436000830185610d1f565b610d506020830184610a20565b9392505050565b60008115159050919050565b610d6c81610d57565b8114610d7757600080fd5b50565b600081519050610d8981610d63565b92915050565b600060208284031215610da557610da4610a4a565b5b6000610db384828501610d7a565b91505092915050565b7f4661696c656420746f207472616e7366657220746f6b656e7300000000000000600082015250565b6000610df2601983610bad565b9150610dfd82610dbc565b602082019050919050565b60006020820190508181036000830152610e2181610de5565b9050919050565b6000610e3382610a16565b9150610e3e83610a16565b9250828201905080821115610e5657610e55610c2a565b5b92915050565b7f5374616b696e67207374696c6c20696e2070726f677265737300000000000000600082015250565b6000610e92601983610bad565b9150610e9d82610e5c565b602082019050919050565b60006020820190508181036000830152610ec181610e85565b9050919050565b6000602082019050610edd6000830184610d1f565b92915050565b600081519050610ef281610a4f565b92915050565b600060208284031215610f0e57610f0d610a4a565b5b6000610f1c84828501610ee3565b91505092915050565b7f4e6f7420656e6f75676820746f6b656e7320666f72207374616b650000000000600082015250565b6000610f5b601b83610bad565b9150610f6682610f25565b602082019050919050565b60006020820190508181036000830152610f8a81610f4e565b9050919050565b6000606082019050610fa66000830186610d1f565b610fb36020830185610d1f565b610fc06040830184610a20565b949350505050565b7f4661696c656420746f207374616b6520746f6b656e0000000000000000000000600082015250565b6000610ffe601583610bad565b915061100982610fc8565b602082019050919050565b6000602082019050818103600083015261102d81610ff1565b9050919050565b7f596f752068617665206e6f74207374616b656420616e7920746f6b656e730000600082015250565b600061106a601e83610bad565b915061107582611034565b602082019050919050565b600060208201905081810360008301526110998161105d565b9050919050565b7f4e487b7100000000000000000000000000000000000000000000000000000000600052601260045260246000fd5b60006110da82610a16565b91506110e583610a16565b9250826110f5576110f46110a0565b5b828204905092915050565b600061110b82610a16565b915061111683610a16565b925082820261112481610a16565b9150828204841483151761113b5761113a610c2a565b5b5092915050565b7f63616e277420736574206461746520746f20612070726576696f75732074696d60008201527f657374616d700000000000000000000000000000000000000000000000000000602082015250565b600061119e602683610bad565b91506111a982611142565b604082019050919050565b600060208201905081810360008301526111cd81611191565b905091905056fea2646970667358221220e2d0ecfe1fc792dfc9c7b7f0d6078b9d0ecd17c1a36057d0bbb65975a1bc1fb264736f6c63430008120033",
			"opcodes": "PUSH1 0x80 PUSH1 0x40 MSTORE CALLVALUE DUP1 ISZERO PUSH3 0x11 JUMPI PUSH1 0x0 DUP1 REVERT JUMPDEST POP PUSH1 0x40 MLOAD PUSH3 0x138B CODESIZE SUB DUP1 PUSH3 0x138B DUP4 CODECOPY DUP2 DUP2 ADD PUSH1 0x40 MSTORE DUP2 ADD SWAP1 PUSH3 0x37 SWAP2 SWAP1 PUSH3 0x12A JUMP JUMPDEST DUP2 PUSH1 0x0 DUP1 PUSH2 0x100 EXP DUP2 SLOAD DUP2 PUSH20 0xFFFFFFFFFFFFFFFFFFFFFFFFFFFFFFFFFFFFFFFF MUL NOT AND SWAP1 DUP4 PUSH20 0xFFFFFFFFFFFFFFFFFFFFFFFFFFFFFFFFFFFFFFFF AND MUL OR SWAP1 SSTORE POP DUP1 PUSH1 0x1 PUSH1 0x0 PUSH2 0x100 EXP DUP2 SLOAD DUP2 PUSH20 0xFFFFFFFFFFFFFFFFFFFFFFFFFFFFFFFFFFFFFFFF MUL NOT AND SWAP1 DUP4 PUSH20 0xFFFFFFFFFFFFFFFFFFFFFFFFFFFFFFFFFFFFFFFF AND MUL OR SWAP1 SSTORE POP POP POP PUSH3 0x171 JUMP JUMPDEST PUSH1 0x0 DUP1 REVERT JUMPDEST PUSH1 0x0 PUSH20 0xFFFFFFFFFFFFFFFFFFFFFFFFFFFFFFFFFFFFFFFF DUP3 AND SWAP1 POP SWAP2 SWAP1 POP JUMP JUMPDEST PUSH1 0x0 PUSH3 0xF2 DUP3 PUSH3 0xC5 JUMP JUMPDEST SWAP1 POP SWAP2 SWAP1 POP JUMP JUMPDEST PUSH3 0x104 DUP2 PUSH3 0xE5 JUMP JUMPDEST DUP2 EQ PUSH3 0x110 JUMPI PUSH1 0x0 DUP1 REVERT JUMPDEST POP JUMP JUMPDEST PUSH1 0x0 DUP2 MLOAD SWAP1 POP PUSH3 0x124 DUP2 PUSH3 0xF9 JUMP JUMPDEST SWAP3 SWAP2 POP POP JUMP JUMPDEST PUSH1 0x0 DUP1 PUSH1 0x40 DUP4 DUP6 SUB SLT ISZERO PUSH3 0x144 JUMPI PUSH3 0x143 PUSH3 0xC0 JUMP JUMPDEST JUMPDEST PUSH1 0x0 PUSH3 0x154 DUP6 DUP3 DUP7 ADD PUSH3 0x113 JUMP JUMPDEST SWAP3 POP POP PUSH1 0x20 PUSH3 0x167 DUP6 DUP3 DUP7 ADD PUSH3 0x113 JUMP JUMPDEST SWAP2 POP POP SWAP3 POP SWAP3 SWAP1 POP JUMP JUMPDEST PUSH2 0x120A DUP1 PUSH3 0x181 PUSH1 0x0 CODECOPY PUSH1 0x0 RETURN INVALID PUSH1 0x80 PUSH1 0x40 MSTORE CALLVALUE DUP1 ISZERO PUSH2 0x10 JUMPI PUSH1 0x0 DUP1 REVERT JUMPDEST POP PUSH1 0x4 CALLDATASIZE LT PUSH2 0x100 JUMPI PUSH1 0x0 CALLDATALOAD PUSH1 0xE0 SHR DUP1 PUSH4 0x9E447FC6 GT PUSH2 0x97 JUMPI DUP1 PUSH4 0xD1AF0C7D GT PUSH2 0x66 JUMPI DUP1 PUSH4 0xD1AF0C7D EQ PUSH2 0x267 JUMPI DUP1 PUSH4 0xD3ACEAE2 EQ PUSH2 0x285 JUMPI DUP1 PUSH4 0xD6F19262 EQ PUSH2 0x2B5 JUMPI DUP1 PUSH4 0xF6BE71D1 EQ PUSH2 0x2D3 JUMPI PUSH2 0x100 JUMP JUMPDEST DUP1 PUSH4 0x9E447FC6 EQ PUSH2 0x1F3 JUMPI DUP1 PUSH4 0xAD2E8C9B EQ PUSH2 0x20F JUMPI DUP1 PUSH4 0xB69EF8A8 EQ PUSH2 0x22D JUMPI DUP1 PUSH4 0xCB82CC8F EQ PUSH2 0x24B JUMPI PUSH2 0x100 JUMP JUMPDEST DUP1 PUSH4 0x67D3B488 GT PUSH2 0xD3 JUMPI DUP1 PUSH4 0x67D3B488 EQ PUSH2 0x17B JUMPI DUP1 PUSH4 0x72F702F3 EQ PUSH2 0x199 JUMPI DUP1 PUSH4 0x7519AB50 EQ PUSH2 0x1B7 JUMPI DUP1 PUSH4 0x8B0E9F3F EQ PUSH2 0x1D5 JUMPI PUSH2 0x100 JUMP JUMPDEST DUP1 PUSH4 0xFB5A6B4 EQ PUSH2 0x105 JUMPI DUP1 PUSH4 0x2C4E722E EQ PUSH2 0x123 JUMPI DUP1 PUSH4 0x327BCAC5 EQ PUSH2 0x141 JUMPI DUP1 PUSH4 0x523A3F08 EQ PUSH2 0x15F JUMPI JUMPDEST PUSH1 0x0 DUP1 REVERT JUMPDEST PUSH2 0x10D PUSH2 0x2EF JUMP JUMPDEST PUSH1 0x40 MLOAD PUSH2 0x11A SWAP2 SWAP1 PUSH2 0xA2F JUMP JUMPDEST PUSH1 0x40 MLOAD DUP1 SWAP2 SUB SWAP1 RETURN JUMPDEST PUSH2 0x12B PUSH2 0x2F5 JUMP JUMPDEST PUSH1 0x40 MLOAD PUSH2 0x138 SWAP2 SWAP1 PUSH2 0xA2F JUMP JUMPDEST PUSH1 0x40 MLOAD DUP1 SWAP2 SUB SWAP1 RETURN JUMPDEST PUSH2 0x149 PUSH2 0x2FB JUMP JUMPDEST PUSH1 0x40 MLOAD PUSH2 0x156 SWAP2 SWAP1 PUSH2 0xA2F JUMP JUMPDEST PUSH1 0x40 MLOAD DUP1 SWAP2 SUB SWAP1 RETURN JUMPDEST PUSH2 0x179 PUSH1 0x4 DUP1 CALLDATASIZE SUB DUP2 ADD SWAP1 PUSH2 0x174 SWAP2 SWAP1 PUSH2 0xA7B JUMP JUMPDEST PUSH2 0x301 JUMP JUMPDEST STOP JUMPDEST PUSH2 0x183 PUSH2 0x516 JUMP JUMPDEST PUSH1 0x40 MLOAD PUSH2 0x190 SWAP2 SWAP1 PUSH2 0xA2F JUMP JUMPDEST PUSH1 0x40 MLOAD DUP1 SWAP2 SUB SWAP1 RETURN JUMPDEST PUSH2 0x1A1 PUSH2 0x51C JUMP JUMPDEST PUSH1 0x40 MLOAD PUSH2 0x1AE SWAP2 SWAP1 PUSH2 0xB27 JUMP JUMPDEST PUSH1 0x40 MLOAD DUP1 SWAP2 SUB SWAP1 RETURN JUMPDEST PUSH2 0x1BF PUSH2 0x540 JUMP JUMPDEST PUSH1 0x40 MLOAD PUSH2 0x1CC SWAP2 SWAP1 PUSH2 0xA2F JUMP JUMPDEST PUSH1 0x40 MLOAD DUP1 SWAP2 SUB SWAP1 RETURN JUMPDEST PUSH2 0x1DD PUSH2 0x546 JUMP JUMPDEST PUSH1 0x40 MLOAD PUSH2 0x1EA SWAP2 SWAP1 PUSH2 0xA2F JUMP JUMPDEST PUSH1 0x40 MLOAD DUP1 SWAP2 SUB SWAP1 RETURN JUMPDEST PUSH2 0x20D PUSH1 0x4 DUP1 CALLDATASIZE SUB DUP2 ADD SWAP1 PUSH2 0x208 SWAP2 SWAP1 PUSH2 0xA7B JUMP JUMPDEST PUSH2 0x54C JUMP JUMPDEST STOP JUMPDEST PUSH2 0x217 PUSH2 0x59A JUMP JUMPDEST PUSH1 0x40 MLOAD PUSH2 0x224 SWAP2 SWAP1 PUSH2 0xA2F JUMP JUMPDEST PUSH1 0x40 MLOAD DUP1 SWAP2 SUB SWAP1 RETURN JUMPDEST PUSH2 0x235 PUSH2 0x5A4 JUMP JUMPDEST PUSH1 0x40 MLOAD PUSH2 0x242 SWAP2 SWAP1 PUSH2 0xA2F JUMP JUMPDEST PUSH1 0x40 MLOAD DUP1 SWAP2 SUB SWAP1 RETURN JUMPDEST PUSH2 0x265 PUSH1 0x4 DUP1 CALLDATASIZE SUB DUP2 ADD SWAP1 PUSH2 0x260 SWAP2 SWAP1 PUSH2 0xA7B JUMP JUMPDEST PUSH2 0x5EB JUMP JUMPDEST STOP JUMPDEST PUSH2 0x26F PUSH2 0x859 JUMP JUMPDEST PUSH1 0x40 MLOAD PUSH2 0x27C SWAP2 SWAP1 PUSH2 0xB27 JUMP JUMPDEST PUSH1 0x40 MLOAD DUP1 SWAP2 SUB SWAP1 RETURN JUMPDEST PUSH2 0x29F PUSH1 0x4 DUP1 CALLDATASIZE SUB DUP2 ADD SWAP1 PUSH2 0x29A SWAP2 SWAP1 PUSH2 0xB80 JUMP JUMPDEST PUSH2 0x87F JUMP JUMPDEST PUSH1 0x40 MLOAD PUSH2 0x2AC SWAP2 SWAP1 PUSH2 0xA2F JUMP JUMPDEST PUSH1 0x40 MLOAD DUP1 SWAP2 SUB SWAP1 RETURN JUMPDEST PUSH2 0x2BD PUSH2 0x897 JUMP JUMPDEST PUSH1 0x40 MLOAD PUSH2 0x2CA SWAP2 SWAP1 PUSH2 0xA2F JUMP JUMPDEST PUSH1 0x40 MLOAD DUP1 SWAP2 SUB SWAP1 RETURN JUMPDEST PUSH2 0x2ED PUSH1 0x4 DUP1 CALLDATASIZE SUB DUP2 ADD SWAP1 PUSH2 0x2E8 SWAP2 SWAP1 PUSH2 0xA7B JUMP JUMPDEST PUSH2 0x990 JUMP JUMPDEST STOP JUMPDEST PUSH1 0x4 SLOAD DUP2 JUMP JUMPDEST PUSH1 0x7 SLOAD DUP2 JUMP JUMPDEST PUSH1 0x3 SLOAD DUP2 JUMP JUMPDEST PUSH1 0x0 PUSH2 0x30B PUSH2 0x897 JUMP JUMPDEST GT PUSH2 0x34B JUMPI PUSH1 0x40 MLOAD PUSH32 0x8C379A000000000000000000000000000000000000000000000000000000000 DUP2 MSTORE PUSH1 0x4 ADD PUSH2 0x342 SWAP1 PUSH2 0xC0A JUMP JUMPDEST PUSH1 0x40 MLOAD DUP1 SWAP2 SUB SWAP1 REVERT JUMPDEST DUP1 PUSH1 0x9 PUSH1 0x0 CALLER PUSH20 0xFFFFFFFFFFFFFFFFFFFFFFFFFFFFFFFFFFFFFFFF AND PUSH20 0xFFFFFFFFFFFFFFFFFFFFFFFFFFFFFFFFFFFFFFFF AND DUP2 MSTORE PUSH1 0x20 ADD SWAP1 DUP2 MSTORE PUSH1 0x20 ADD PUSH1 0x0 KECCAK256 SLOAD PUSH2 0x394 PUSH2 0x897 JUMP JUMPDEST PUSH2 0x39E SWAP2 SWAP1 PUSH2 0xC59 JUMP JUMPDEST LT PUSH2 0x3DE JUMPI PUSH1 0x40 MLOAD PUSH32 0x8C379A000000000000000000000000000000000000000000000000000000000 DUP2 MSTORE PUSH1 0x4 ADD PUSH2 0x3D5 SWAP1 PUSH2 0xCFF JUMP JUMPDEST PUSH1 0x40 MLOAD DUP1 SWAP2 SUB SWAP1 REVERT JUMPDEST PUSH1 0x1 PUSH1 0x0 SWAP1 SLOAD SWAP1 PUSH2 0x100 EXP SWAP1 DIV PUSH20 0xFFFFFFFFFFFFFFFFFFFFFFFFFFFFFFFFFFFFFFFF AND PUSH20 0xFFFFFFFFFFFFFFFFFFFFFFFFFFFFFFFFFFFFFFFF AND PUSH4 0xA9059CBB CALLER DUP4 PUSH1 0x40 MLOAD DUP4 PUSH4 0xFFFFFFFF AND PUSH1 0xE0 SHL DUP2 MSTORE PUSH1 0x4 ADD PUSH2 0x43B SWAP3 SWAP2 SWAP1 PUSH2 0xD2E JUMP JUMPDEST PUSH1 0x20 PUSH1 0x40 MLOAD DUP1 DUP4 SUB DUP2 PUSH1 0x0 DUP8 GAS CALL ISZERO DUP1 ISZERO PUSH2 0x45A JUMPI RETURNDATASIZE PUSH1 0x0 DUP1 RETURNDATACOPY RETURNDATASIZE PUSH1 0x0 REVERT JUMPDEST POP POP POP POP PUSH1 0x40 MLOAD RETURNDATASIZE PUSH1 0x1F NOT PUSH1 0x1F DUP3 ADD AND DUP3 ADD DUP1 PUSH1 0x40 MSTORE POP DUP2 ADD SWAP1 PUSH2 0x47E SWAP2 SWAP1 PUSH2 0xD8F JUMP JUMPDEST PUSH2 0x4BD JUMPI PUSH1 0x40 MLOAD PUSH32 0x8C379A000000000000000000000000000000000000000000000000000000000 DUP2 MSTORE PUSH1 0x4 ADD PUSH2 0x4B4 SWAP1 PUSH2 0xE08 JUMP JUMPDEST PUSH1 0x40 MLOAD DUP1 SWAP2 SUB SWAP1 REVERT JUMPDEST DUP1 PUSH1 0x9 PUSH1 0x0 CALLER PUSH20 0xFFFFFFFFFFFFFFFFFFFFFFFFFFFFFFFFFFFFFFFF AND PUSH20 0xFFFFFFFFFFFFFFFFFFFFFFFFFFFFFFFFFFFFFFFF AND DUP2 MSTORE PUSH1 0x20 ADD SWAP1 DUP2 MSTORE PUSH1 0x20 ADD PUSH1 0x0 KECCAK256 PUSH1 0x0 DUP3 DUP3 SLOAD PUSH2 0x50C SWAP2 SWAP1 PUSH2 0xE28 JUMP JUMPDEST SWAP3 POP POP DUP2 SWAP1 SSTORE POP POP JUMP JUMPDEST PUSH1 0x5 SLOAD DUP2 JUMP JUMPDEST PUSH1 0x0 DUP1 SLOAD SWAP1 PUSH2 0x100 EXP SWAP1 DIV PUSH20 0xFFFFFFFFFFFFFFFFFFFFFFFFFFFFFFFFFFFFFFFF AND DUP2 JUMP JUMPDEST PUSH1 0x6 SLOAD DUP2 JUMP JUMPDEST PUSH1 0x2 SLOAD DUP2 JUMP JUMPDEST TIMESTAMP PUSH1 0x5 SLOAD LT PUSH2 0x590 JUMPI PUSH1 0x40 MLOAD PUSH32 0x8C379A000000000000000000000000000000000000000000000000000000000 DUP2 MSTORE PUSH1 0x4 ADD PUSH2 0x587 SWAP1 PUSH2 0xEA8 JUMP JUMPDEST PUSH1 0x40 MLOAD DUP1 SWAP2 SUB SWAP1 REVERT JUMPDEST DUP1 PUSH1 0x7 DUP2 SWAP1 SSTORE POP POP JUMP JUMPDEST PUSH1 0x0 PUSH1 0x4 SLOAD SWAP1 POP SWAP1 JUMP JUMPDEST PUSH1 0x0 PUSH1 0x8 PUSH1 0x0 CALLER PUSH20 0xFFFFFFFFFFFFFFFFFFFFFFFFFFFFFFFFFFFFFFFF AND PUSH20 0xFFFFFFFFFFFFFFFFFFFFFFFFFFFFFFFFFFFFFFFF AND DUP2 MSTORE PUSH1 0x20 ADD SWAP1 DUP2 MSTORE PUSH1 0x20 ADD PUSH1 0x0 KECCAK256 SLOAD SWAP1 POP SWAP1 JUMP JUMPDEST DUP1 PUSH1 0x0 DUP1 SLOAD SWAP1 PUSH2 0x100 EXP SWAP1 DIV PUSH20 0xFFFFFFFFFFFFFFFFFFFFFFFFFFFFFFFFFFFFFFFF AND PUSH20 0xFFFFFFFFFFFFFFFFFFFFFFFFFFFFFFFFFFFFFFFF AND PUSH4 0x70A08231 CALLER PUSH1 0x40 MLOAD DUP3 PUSH4 0xFFFFFFFF AND PUSH1 0xE0 SHL DUP2 MSTORE PUSH1 0x4 ADD PUSH2 0x645 SWAP2 SWAP1 PUSH2 0xEC8 JUMP JUMPDEST PUSH1 0x20 PUSH1 0x40 MLOAD DUP1 DUP4 SUB DUP2 DUP7 GAS STATICCALL ISZERO DUP1 ISZERO PUSH2 0x662 JUMPI RETURNDATASIZE PUSH1 0x0 DUP1 RETURNDATACOPY RETURNDATASIZE PUSH1 0x0 REVERT JUMPDEST POP POP POP POP PUSH1 0x40 MLOAD RETURNDATASIZE PUSH1 0x1F NOT PUSH1 0x1F DUP3 ADD AND DUP3 ADD DUP1 PUSH1 0x40 MSTORE POP DUP2 ADD SWAP1 PUSH2 0x686 SWAP2 SWAP1 PUSH2 0xEF8 JUMP JUMPDEST LT ISZERO PUSH2 0x6C7 JUMPI PUSH1 0x40 MLOAD PUSH32 0x8C379A000000000000000000000000000000000000000000000000000000000 DUP2 MSTORE PUSH1 0x4 ADD PUSH2 0x6BE SWAP1 PUSH2 0xF71 JUMP JUMPDEST PUSH1 0x40 MLOAD DUP1 SWAP2 SUB SWAP1 REVERT JUMPDEST PUSH1 0x0 DUP1 SLOAD SWAP1 PUSH2 0x100 EXP SWAP1 DIV PUSH20 0xFFFFFFFFFFFFFFFFFFFFFFFFFFFFFFFFFFFFFFFF AND PUSH20 0xFFFFFFFFFFFFFFFFFFFFFFFFFFFFFFFFFFFFFFFF AND PUSH4 0x23B872DD CALLER ADDRESS DUP5 PUSH1 0x40 MLOAD DUP5 PUSH4 0xFFFFFFFF AND PUSH1 0xE0 SHL DUP2 MSTORE PUSH1 0x4 ADD PUSH2 0x724 SWAP4 SWAP3 SWAP2 SWAP1 PUSH2 0xF91 JUMP JUMPDEST PUSH1 0x20 PUSH1 0x40 MLOAD DUP1 DUP4 SUB DUP2 PUSH1 0x0 DUP8 GAS CALL ISZERO DUP1 ISZERO PUSH2 0x743 JUMPI RETURNDATASIZE PUSH1 0x0 DUP1 RETURNDATACOPY RETURNDATASIZE PUSH1 0x0 REVERT JUMPDEST POP POP POP POP PUSH1 0x40 MLOAD RETURNDATASIZE PUSH1 0x1F NOT PUSH1 0x1F DUP3 ADD AND DUP3 ADD DUP1 PUSH1 0x40 MSTORE POP DUP2 ADD SWAP1 PUSH2 0x767 SWAP2 SWAP1 PUSH2 0xD8F JUMP JUMPDEST PUSH2 0x7A6 JUMPI PUSH1 0x40 MLOAD PUSH32 0x8C379A000000000000000000000000000000000000000000000000000000000 DUP2 MSTORE PUSH1 0x4 ADD PUSH2 0x79D SWAP1 PUSH2 0x1014 JUMP JUMPDEST PUSH1 0x40 MLOAD DUP1 SWAP2 SUB SWAP1 REVERT JUMPDEST PUSH2 0x7F8 DUP2 PUSH1 0x8 PUSH1 0x0 CALLER PUSH20 0xFFFFFFFFFFFFFFFFFFFFFFFFFFFFFFFFFFFFFFFF AND PUSH20 0xFFFFFFFFFFFFFFFFFFFFFFFFFFFFFFFFFFFFFFFF AND DUP2 MSTORE PUSH1 0x20 ADD SWAP1 DUP2 MSTORE PUSH1 0x20 ADD PUSH1 0x0 KECCAK256 SLOAD PUSH2 0xA00 SWAP1 SWAP2 SWAP1 PUSH4 0xFFFFFFFF AND JUMP JUMPDEST PUSH1 0x8 PUSH1 0x0 CALLER PUSH20 0xFFFFFFFFFFFFFFFFFFFFFFFFFFFFFFFFFFFFFFFF AND PUSH20 0xFFFFFFFFFFFFFFFFFFFFFFFFFFFFFFFFFFFFFFFF AND DUP2 MSTORE PUSH1 0x20 ADD SWAP1 DUP2 MSTORE PUSH1 0x20 ADD PUSH1 0x0 KECCAK256 DUP2 SWAP1 SSTORE POP PUSH2 0x850 DUP2 PUSH1 0x2 SLOAD PUSH2 0xA00 SWAP1 SWAP2 SWAP1 PUSH4 0xFFFFFFFF AND JUMP JUMPDEST PUSH1 0x2 DUP2 SWAP1 SSTORE POP POP JUMP JUMPDEST PUSH1 0x1 PUSH1 0x0 SWAP1 SLOAD SWAP1 PUSH2 0x100 EXP SWAP1 DIV PUSH20 0xFFFFFFFFFFFFFFFFFFFFFFFFFFFFFFFFFFFFFFFF AND DUP2 JUMP JUMPDEST PUSH1 0x8 PUSH1 0x20 MSTORE DUP1 PUSH1 0x0 MSTORE PUSH1 0x40 PUSH1 0x0 KECCAK256 PUSH1 0x0 SWAP2 POP SWAP1 POP SLOAD DUP2 JUMP JUMPDEST PUSH1 0x0 DUP1 PUSH1 0x8 PUSH1 0x0 CALLER PUSH20 0xFFFFFFFFFFFFFFFFFFFFFFFFFFFFFFFFFFFFFFFF AND PUSH20 0xFFFFFFFFFFFFFFFFFFFFFFFFFFFFFFFFFFFFFFFF AND DUP2 MSTORE PUSH1 0x20 ADD SWAP1 DUP2 MSTORE PUSH1 0x20 ADD PUSH1 0x0 KECCAK256 SLOAD GT PUSH2 0x91A JUMPI PUSH1 0x40 MLOAD PUSH32 0x8C379A000000000000000000000000000000000000000000000000000000000 DUP2 MSTORE PUSH1 0x4 ADD PUSH2 0x911 SWAP1 PUSH2 0x1080 JUMP JUMPDEST PUSH1 0x40 MLOAD DUP1 SWAP2 SUB SWAP1 REVERT JUMPDEST PUSH1 0x6 SLOAD TIMESTAMP PUSH2 0x928 SWAP2 SWAP1 PUSH2 0xC59 JUMP JUMPDEST PUSH1 0x64 PUSH1 0x7 SLOAD PUSH2 0x937 SWAP2 SWAP1 PUSH2 0x10CF JUMP JUMPDEST PUSH1 0x8 PUSH1 0x0 CALLER PUSH20 0xFFFFFFFFFFFFFFFFFFFFFFFFFFFFFFFFFFFFFFFF AND PUSH20 0xFFFFFFFFFFFFFFFFFFFFFFFFFFFFFFFFFFFFFFFF AND DUP2 MSTORE PUSH1 0x20 ADD SWAP1 DUP2 MSTORE PUSH1 0x20 ADD PUSH1 0x0 KECCAK256 SLOAD PUSH2 0x981 SWAP2 SWAP1 PUSH2 0x1100 JUMP JUMPDEST PUSH2 0x98B SWAP2 SWAP1 PUSH2 0x1100 JUMP JUMPDEST SWAP1 POP SWAP1 JUMP JUMPDEST TIMESTAMP PUSH1 0x5 SLOAD LT PUSH2 0x9D4 JUMPI PUSH1 0x40 MLOAD PUSH32 0x8C379A000000000000000000000000000000000000000000000000000000000 DUP2 MSTORE PUSH1 0x4 ADD PUSH2 0x9CB SWAP1 PUSH2 0x11B4 JUMP JUMPDEST PUSH1 0x40 MLOAD DUP1 SWAP2 SUB SWAP1 REVERT JUMPDEST DUP1 PUSH1 0x4 DUP2 SWAP1 SSTORE POP PUSH2 0x9F0 DUP2 PUSH1 0x5 SLOAD PUSH2 0xA00 SWAP1 SWAP2 SWAP1 PUSH4 0xFFFFFFFF AND JUMP JUMPDEST PUSH1 0x5 DUP2 SWAP1 SSTORE POP TIMESTAMP PUSH1 0x6 DUP2 SWAP1 SSTORE POP POP JUMP JUMPDEST PUSH1 0x0 DUP2 DUP4 PUSH2 0xA0E SWAP2 SWAP1 PUSH2 0xE28 JUMP JUMPDEST SWAP1 POP SWAP3 SWAP2 POP POP JUMP JUMPDEST PUSH1 0x0 DUP2 SWAP1 POP SWAP2 SWAP1 POP JUMP JUMPDEST PUSH2 0xA29 DUP2 PUSH2 0xA16 JUMP JUMPDEST DUP3 MSTORE POP POP JUMP JUMPDEST PUSH1 0x0 PUSH1 0x20 DUP3 ADD SWAP1 POP PUSH2 0xA44 PUSH1 0x0 DUP4 ADD DUP5 PUSH2 0xA20 JUMP JUMPDEST SWAP3 SWAP2 POP POP JUMP JUMPDEST PUSH1 0x0 DUP1 REVERT JUMPDEST PUSH2 0xA58 DUP2 PUSH2 0xA16 JUMP JUMPDEST DUP2 EQ PUSH2 0xA63 JUMPI PUSH1 0x0 DUP1 REVERT JUMPDEST POP JUMP JUMPDEST PUSH1 0x0 DUP2 CALLDATALOAD SWAP1 POP PUSH2 0xA75 DUP2 PUSH2 0xA4F JUMP JUMPDEST SWAP3 SWAP2 POP POP JUMP JUMPDEST PUSH1 0x0 PUSH1 0x20 DUP3 DUP5 SUB SLT ISZERO PUSH2 0xA91 JUMPI PUSH2 0xA90 PUSH2 0xA4A JUMP JUMPDEST JUMPDEST PUSH1 0x0 PUSH2 0xA9F DUP5 DUP3 DUP6 ADD PUSH2 0xA66 JUMP JUMPDEST SWAP2 POP POP SWAP3 SWAP2 POP POP JUMP JUMPDEST PUSH1 0x0 PUSH20 0xFFFFFFFFFFFFFFFFFFFFFFFFFFFFFFFFFFFFFFFF DUP3 AND SWAP1 POP SWAP2 SWAP1 POP JUMP JUMPDEST PUSH1 0x0 DUP2 SWAP1 POP SWAP2 SWAP1 POP JUMP JUMPDEST PUSH1 0x0 PUSH2 0xAED PUSH2 0xAE8 PUSH2 0xAE3 DUP5 PUSH2 0xAA8 JUMP JUMPDEST PUSH2 0xAC8 JUMP JUMPDEST PUSH2 0xAA8 JUMP JUMPDEST SWAP1 POP SWAP2 SWAP1 POP JUMP JUMPDEST PUSH1 0x0 PUSH2 0xAFF DUP3 PUSH2 0xAD2 JUMP JUMPDEST SWAP1 POP SWAP2 SWAP1 POP JUMP JUMPDEST PUSH1 0x0 PUSH2 0xB11 DUP3 PUSH2 0xAF4 JUMP JUMPDEST SWAP1 POP SWAP2 SWAP1 POP JUMP JUMPDEST PUSH2 0xB21 DUP2 PUSH2 0xB06 JUMP JUMPDEST DUP3 MSTORE POP POP JUMP JUMPDEST PUSH1 0x0 PUSH1 0x20 DUP3 ADD SWAP1 POP PUSH2 0xB3C PUSH1 0x0 DUP4 ADD DUP5 PUSH2 0xB18 JUMP JUMPDEST SWAP3 SWAP2 POP POP JUMP JUMPDEST PUSH1 0x0 PUSH2 0xB4D DUP3 PUSH2 0xAA8 JUMP JUMPDEST SWAP1 POP SWAP2 SWAP1 POP JUMP JUMPDEST PUSH2 0xB5D DUP2 PUSH2 0xB42 JUMP JUMPDEST DUP2 EQ PUSH2 0xB68 JUMPI PUSH1 0x0 DUP1 REVERT JUMPDEST POP JUMP JUMPDEST PUSH1 0x0 DUP2 CALLDATALOAD SWAP1 POP PUSH2 0xB7A DUP2 PUSH2 0xB54 JUMP JUMPDEST SWAP3 SWAP2 POP POP JUMP JUMPDEST PUSH1 0x0 PUSH1 0x20 DUP3 DUP5 SUB SLT ISZERO PUSH2 0xB96 JUMPI PUSH2 0xB95 PUSH2 0xA4A JUMP JUMPDEST JUMPDEST PUSH1 0x0 PUSH2 0xBA4 DUP5 DUP3 DUP6 ADD PUSH2 0xB6B JUMP JUMPDEST SWAP2 POP POP SWAP3 SWAP2 POP POP JUMP JUMPDEST PUSH1 0x0 DUP3 DUP3 MSTORE PUSH1 0x20 DUP3 ADD SWAP1 POP SWAP3 SWAP2 POP POP JUMP JUMPDEST PUSH32 0x596F752068617665206E6F74206561726E656420616E79207265776172647300 PUSH1 0x0 DUP3 ADD MSTORE POP JUMP JUMPDEST PUSH1 0x0 PUSH2 0xBF4 PUSH1 0x1F DUP4 PUSH2 0xBAD JUMP JUMPDEST SWAP2 POP PUSH2 0xBFF DUP3 PUSH2 0xBBE JUMP JUMPDEST PUSH1 0x20 DUP3 ADD SWAP1 POP SWAP2 SWAP1 POP JUMP JUMPDEST PUSH1 0x0 PUSH1 0x20 DUP3 ADD SWAP1 POP DUP2 DUP2 SUB PUSH1 0x0 DUP4 ADD MSTORE PUSH2 0xC23 DUP2 PUSH2 0xBE7 JUMP JUMPDEST SWAP1 POP SWAP2 SWAP1 POP JUMP JUMPDEST PUSH32 0x4E487B7100000000000000000000000000000000000000000000000000000000 PUSH1 0x0 MSTORE PUSH1 0x11 PUSH1 0x4 MSTORE PUSH1 0x24 PUSH1 0x0 REVERT JUMPDEST PUSH1 0x0 PUSH2 0xC64 DUP3 PUSH2 0xA16 JUMP JUMPDEST SWAP2 POP PUSH2 0xC6F DUP4 PUSH2 0xA16 JUMP JUMPDEST SWAP3 POP DUP3 DUP3 SUB SWAP1 POP DUP2 DUP2 GT ISZERO PUSH2 0xC87 JUMPI PUSH2 0xC86 PUSH2 0xC2A JUMP JUMPDEST JUMPDEST SWAP3 SWAP2 POP POP JUMP JUMPDEST PUSH32 0x596F7520646F6E2774206861766520656E6F75676820746F2077697468647261 PUSH1 0x0 DUP3 ADD MSTORE PUSH32 0x7700000000000000000000000000000000000000000000000000000000000000 PUSH1 0x20 DUP3 ADD MSTORE POP JUMP JUMPDEST PUSH1 0x0 PUSH2 0xCE9 PUSH1 0x21 DUP4 PUSH2 0xBAD JUMP JUMPDEST SWAP2 POP PUSH2 0xCF4 DUP3 PUSH2 0xC8D JUMP JUMPDEST PUSH1 0x40 DUP3 ADD SWAP1 POP SWAP2 SWAP1 POP JUMP JUMPDEST PUSH1 0x0 PUSH1 0x20 DUP3 ADD SWAP1 POP DUP2 DUP2 SUB PUSH1 0x0 DUP4 ADD MSTORE PUSH2 0xD18 DUP2 PUSH2 0xCDC JUMP JUMPDEST SWAP1 POP SWAP2 SWAP1 POP JUMP JUMPDEST PUSH2 0xD28 DUP2 PUSH2 0xB42 JUMP JUMPDEST DUP3 MSTORE POP POP JUMP JUMPDEST PUSH1 0x0 PUSH1 0x40 DUP3 ADD SWAP1 POP PUSH2 0xD43 PUSH1 0x0 DUP4 ADD DUP6 PUSH2 0xD1F JUMP JUMPDEST PUSH2 0xD50 PUSH1 0x20 DUP4 ADD DUP5 PUSH2 0xA20 JUMP JUMPDEST SWAP4 SWAP3 POP POP POP JUMP JUMPDEST PUSH1 0x0 DUP2 ISZERO ISZERO SWAP1 POP SWAP2 SWAP1 POP JUMP JUMPDEST PUSH2 0xD6C DUP2 PUSH2 0xD57 JUMP JUMPDEST DUP2 EQ PUSH2 0xD77 JUMPI PUSH1 0x0 DUP1 REVERT JUMPDEST POP JUMP JUMPDEST PUSH1 0x0 DUP2 MLOAD SWAP1 POP PUSH2 0xD89 DUP2 PUSH2 0xD63 JUMP JUMPDEST SWAP3 SWAP2 POP POP JUMP JUMPDEST PUSH1 0x0 PUSH1 0x20 DUP3 DUP5 SUB SLT ISZERO PUSH2 0xDA5 JUMPI PUSH2 0xDA4 PUSH2 0xA4A JUMP JUMPDEST JUMPDEST PUSH1 0x0 PUSH2 0xDB3 DUP5 DUP3 DUP6 ADD PUSH2 0xD7A JUMP JUMPDEST SWAP2 POP POP SWAP3 SWAP2 POP POP JUMP JUMPDEST PUSH32 0x4661696C656420746F207472616E7366657220746F6B656E7300000000000000 PUSH1 0x0 DUP3 ADD MSTORE POP JUMP JUMPDEST PUSH1 0x0 PUSH2 0xDF2 PUSH1 0x19 DUP4 PUSH2 0xBAD JUMP JUMPDEST SWAP2 POP PUSH2 0xDFD DUP3 PUSH2 0xDBC JUMP JUMPDEST PUSH1 0x20 DUP3 ADD SWAP1 POP SWAP2 SWAP1 POP JUMP JUMPDEST PUSH1 0x0 PUSH1 0x20 DUP3 ADD SWAP1 POP DUP2 DUP2 SUB PUSH1 0x0 DUP4 ADD MSTORE PUSH2 0xE21 DUP2 PUSH2 0xDE5 JUMP JUMPDEST SWAP1 POP SWAP2 SWAP1 POP JUMP JUMPDEST PUSH1 0x0 PUSH2 0xE33 DUP3 PUSH2 0xA16 JUMP JUMPDEST SWAP2 POP PUSH2 0xE3E DUP4 PUSH2 0xA16 JUMP JUMPDEST SWAP3 POP DUP3 DUP3 ADD SWAP1 POP DUP1 DUP3 GT ISZERO PUSH2 0xE56 JUMPI PUSH2 0xE55 PUSH2 0xC2A JUMP JUMPDEST JUMPDEST SWAP3 SWAP2 POP POP JUMP JUMPDEST PUSH32 0x5374616B696E67207374696C6C20696E2070726F677265737300000000000000 PUSH1 0x0 DUP3 ADD MSTORE POP JUMP JUMPDEST PUSH1 0x0 PUSH2 0xE92 PUSH1 0x19 DUP4 PUSH2 0xBAD JUMP JUMPDEST SWAP2 POP PUSH2 0xE9D DUP3 PUSH2 0xE5C JUMP JUMPDEST PUSH1 0x20 DUP3 ADD SWAP1 POP SWAP2 SWAP1 POP JUMP JUMPDEST PUSH1 0x0 PUSH1 0x20 DUP3 ADD SWAP1 POP DUP2 DUP2 SUB PUSH1 0x0 DUP4 ADD MSTORE PUSH2 0xEC1 DUP2 PUSH2 0xE85 JUMP JUMPDEST SWAP1 POP SWAP2 SWAP1 POP JUMP JUMPDEST PUSH1 0x0 PUSH1 0x20 DUP3 ADD SWAP1 POP PUSH2 0xEDD PUSH1 0x0 DUP4 ADD DUP5 PUSH2 0xD1F JUMP JUMPDEST SWAP3 SWAP2 POP POP JUMP JUMPDEST PUSH1 0x0 DUP2 MLOAD SWAP1 POP PUSH2 0xEF2 DUP2 PUSH2 0xA4F JUMP JUMPDEST SWAP3 SWAP2 POP POP JUMP JUMPDEST PUSH1 0x0 PUSH1 0x20 DUP3 DUP5 SUB SLT ISZERO PUSH2 0xF0E JUMPI PUSH2 0xF0D PUSH2 0xA4A JUMP JUMPDEST JUMPDEST PUSH1 0x0 PUSH2 0xF1C DUP5 DUP3 DUP6 ADD PUSH2 0xEE3 JUMP JUMPDEST SWAP2 POP POP SWAP3 SWAP2 POP POP JUMP JUMPDEST PUSH32 0x4E6F7420656E6F75676820746F6B656E7320666F72207374616B650000000000 PUSH1 0x0 DUP3 ADD MSTORE POP JUMP JUMPDEST PUSH1 0x0 PUSH2 0xF5B PUSH1 0x1B DUP4 PUSH2 0xBAD JUMP JUMPDEST SWAP2 POP PUSH2 0xF66 DUP3 PUSH2 0xF25 JUMP JUMPDEST PUSH1 0x20 DUP3 ADD SWAP1 POP SWAP2 SWAP1 POP JUMP JUMPDEST PUSH1 0x0 PUSH1 0x20 DUP3 ADD SWAP1 POP DUP2 DUP2 SUB PUSH1 0x0 DUP4 ADD MSTORE PUSH2 0xF8A DUP2 PUSH2 0xF4E JUMP JUMPDEST SWAP1 POP SWAP2 SWAP1 POP JUMP JUMPDEST PUSH1 0x0 PUSH1 0x60 DUP3 ADD SWAP1 POP PUSH2 0xFA6 PUSH1 0x0 DUP4 ADD DUP7 PUSH2 0xD1F JUMP JUMPDEST PUSH2 0xFB3 PUSH1 0x20 DUP4 ADD DUP6 PUSH2 0xD1F JUMP JUMPDEST PUSH2 0xFC0 PUSH1 0x40 DUP4 ADD DUP5 PUSH2 0xA20 JUMP JUMPDEST SWAP5 SWAP4 POP POP POP POP JUMP JUMPDEST PUSH32 0x4661696C656420746F207374616B6520746F6B656E0000000000000000000000 PUSH1 0x0 DUP3 ADD MSTORE POP JUMP JUMPDEST PUSH1 0x0 PUSH2 0xFFE PUSH1 0x15 DUP4 PUSH2 0xBAD JUMP JUMPDEST SWAP2 POP PUSH2 0x1009 DUP3 PUSH2 0xFC8 JUMP JUMPDEST PUSH1 0x20 DUP3 ADD SWAP1 POP SWAP2 SWAP1 POP JUMP JUMPDEST PUSH1 0x0 PUSH1 0x20 DUP3 ADD SWAP1 POP DUP2 DUP2 SUB PUSH1 0x0 DUP4 ADD MSTORE PUSH2 0x102D DUP2 PUSH2 0xFF1 JUMP JUMPDEST SWAP1 POP SWAP2 SWAP1 POP JUMP JUMPDEST PUSH32 0x596F752068617665206E6F74207374616B656420616E7920746F6B656E730000 PUSH1 0x0 DUP3 ADD MSTORE POP JUMP JUMPDEST PUSH1 0x0 PUSH2 0x106A PUSH1 0x1E DUP4 PUSH2 0xBAD JUMP JUMPDEST SWAP2 POP PUSH2 0x1075 DUP3 PUSH2 0x1034 JUMP JUMPDEST PUSH1 0x20 DUP3 ADD SWAP1 POP SWAP2 SWAP1 POP JUMP JUMPDEST PUSH1 0x0 PUSH1 0x20 DUP3 ADD SWAP1 POP DUP2 DUP2 SUB PUSH1 0x0 DUP4 ADD MSTORE PUSH2 0x1099 DUP2 PUSH2 0x105D JUMP JUMPDEST SWAP1 POP SWAP2 SWAP1 POP JUMP JUMPDEST PUSH32 0x4E487B7100000000000000000000000000000000000000000000000000000000 PUSH1 0x0 MSTORE PUSH1 0x12 PUSH1 0x4 MSTORE PUSH1 0x24 PUSH1 0x0 REVERT JUMPDEST PUSH1 0x0 PUSH2 0x10DA DUP3 PUSH2 0xA16 JUMP JUMPDEST SWAP2 POP PUSH2 0x10E5 DUP4 PUSH2 0xA16 JUMP JUMPDEST SWAP3 POP DUP3 PUSH2 0x10F5 JUMPI PUSH2 0x10F4 PUSH2 0x10A0 JUMP JUMPDEST JUMPDEST DUP3 DUP3 DIV SWAP1 POP SWAP3 SWAP2 POP POP JUMP JUMPDEST PUSH1 0x0 PUSH2 0x110B DUP3 PUSH2 0xA16 JUMP JUMPDEST SWAP2 POP PUSH2 0x1116 DUP4 PUSH2 0xA16 JUMP JUMPDEST SWAP3 POP DUP3 DUP3 MUL PUSH2 0x1124 DUP2 PUSH2 0xA16 JUMP JUMPDEST SWAP2 POP DUP3 DUP3 DIV DUP5 EQ DUP4 ISZERO OR PUSH2 0x113B JUMPI PUSH2 0x113A PUSH2 0xC2A JUMP JUMPDEST JUMPDEST POP SWAP3 SWAP2 POP POP JUMP JUMPDEST PUSH32 0x63616E277420736574206461746520746F20612070726576696F75732074696D PUSH1 0x0 DUP3 ADD MSTORE PUSH32 0x657374616D700000000000000000000000000000000000000000000000000000 PUSH1 0x20 DUP3 ADD MSTORE POP JUMP JUMPDEST PUSH1 0x0 PUSH2 0x119E PUSH1 0x26 DUP4 PUSH2 0xBAD JUMP JUMPDEST SWAP2 POP PUSH2 0x11A9 DUP3 PUSH2 0x1142 JUMP JUMPDEST PUSH1 0x40 DUP3 ADD SWAP1 POP SWAP2 SWAP1 POP JUMP JUMPDEST PUSH1 0x0 PUSH1 0x20 DUP3 ADD SWAP1 POP DUP2 DUP2 SUB PUSH1 0x0 DUP4 ADD MSTORE PUSH2 0x11CD DUP2 PUSH2 0x1191 JUMP JUMPDEST SWAP1 POP SWAP2 SWAP1 POP JUMP INVALID LOG2 PUSH5 0x6970667358 0x22 SLT KECCAK256 0xE2 0xD0 0xEC INVALID 0x1F 0xC7 SWAP3 0xDF 0xC9 0xC7 0xB7 CREATE 0xD6 SMOD DUP12 SWAP14 0xE 0xCD OR 0xC1 LOG3 PUSH1 0x57 0xD0 0xBB 0xB6 MSIZE PUSH22 0xA1BC1FB264736F6C6343000812003300000000000000 "
		},
		"gasEstimates": {
			"creation": {
				"codeDepositCost": "923600",
				"executionCost": "infinite",
				"totalCost": "infinite"
			},
			"external": {
				"_balance(address)": "2858",
				"balance()": "2593",
				"depositStake(uint256)": "infinite",
				"duration()": "2453",
				"earned()": "infinite",
				"finishAt()": "2452",
				"getDuration()": "2482",
				"rate()": "2475",
				"rewardsToken()": "infinite",
				"setDuration(uint256)": "infinite",
				"setRewardRate(uint256)": "24665",
				"stakingToken()": "infinite",
				"totalStake()": "2518",
				"totalStakeRewards()": "2497",
				"updatedAt()": "2496",
				"withdrawReward(uint256)": "infinite"
			}
		},
		"methodIdentifiers": {
			"_balance(address)": "d3aceae2",
			"balance()": "b69ef8a8",
			"depositStake(uint256)": "cb82cc8f",
			"duration()": "0fb5a6b4",
			"earned()": "d6f19262",
			"finishAt()": "67d3b488",
			"getDuration()": "ad2e8c9b",
			"rate()": "2c4e722e",
			"rewardsToken()": "d1af0c7d",
			"setDuration(uint256)": "f6be71d1",
			"setRewardRate(uint256)": "9e447fc6",
			"stakingToken()": "72f702f3",
			"totalStake()": "8b0e9f3f",
			"totalStakeRewards()": "327bcac5",
			"updatedAt()": "7519ab50",
			"withdrawReward(uint256)": "523a3f08"
		}
	},
	"abi": [
		{
			"inputs": [
				{
					"internalType": "address",
					"name": "_stakeToken",
					"type": "address"
				},
				{
					"internalType": "address",
					"name": "_rewardsToken",
					"type": "address"
				}
			],
			"stateMutability": "nonpayable",
			"type": "constructor"
		},
		{
			"inputs": [
				{
					"internalType": "address",
					"name": "",
					"type": "address"
				}
			],
			"name": "_balance",
			"outputs": [
				{
					"internalType": "uint256",
					"name": "",
					"type": "uint256"
				}
			],
			"stateMutability": "view",
			"type": "function"
		},
		{
			"inputs": [],
			"name": "balance",
			"outputs": [
				{
					"internalType": "uint256",
					"name": "",
					"type": "uint256"
				}
			],
			"stateMutability": "view",
			"type": "function"
		},
		{
			"inputs": [
				{
					"internalType": "uint256",
					"name": "amount",
					"type": "uint256"
				}
			],
			"name": "depositStake",
			"outputs": [],
			"stateMutability": "nonpayable",
			"type": "function"
		},
		{
			"inputs": [],
			"name": "duration",
			"outputs": [
				{
					"internalType": "uint256",
					"name": "",
					"type": "uint256"
				}
			],
			"stateMutability": "view",
			"type": "function"
		},
		{
			"inputs": [],
			"name": "earned",
			"outputs": [
				{
					"internalType": "uint256",
					"name": "",
					"type": "uint256"
				}
			],
			"stateMutability": "view",
			"type": "function"
		},
		{
			"inputs": [],
			"name": "finishAt",
			"outputs": [
				{
					"internalType": "uint256",
					"name": "",
					"type": "uint256"
				}
			],
			"stateMutability": "view",
			"type": "function"
		},
		{
			"inputs": [],
			"name": "getDuration",
			"outputs": [
				{
					"internalType": "uint256",
					"name": "",
					"type": "uint256"
				}
			],
			"stateMutability": "view",
			"type": "function"
		},
		{
			"inputs": [],
			"name": "rate",
			"outputs": [
				{
					"internalType": "uint256",
					"name": "",
					"type": "uint256"
				}
			],
			"stateMutability": "view",
			"type": "function"
		},
		{
			"inputs": [],
			"name": "rewardsToken",
			"outputs": [
				{
					"internalType": "contract IERC20",
					"name": "",
					"type": "address"
				}
			],
			"stateMutability": "view",
			"type": "function"
		},
		{
			"inputs": [
				{
					"internalType": "uint256",
					"name": "_duration",
					"type": "uint256"
				}
			],
			"name": "setDuration",
			"outputs": [],
			"stateMutability": "nonpayable",
			"type": "function"
		},
		{
			"inputs": [
				{
					"internalType": "uint256",
					"name": "_rate",
					"type": "uint256"
				}
			],
			"name": "setRewardRate",
			"outputs": [],
			"stateMutability": "nonpayable",
			"type": "function"
		},
		{
			"inputs": [],
			"name": "stakingToken",
			"outputs": [
				{
					"internalType": "contract IERC20",
					"name": "",
					"type": "address"
				}
			],
			"stateMutability": "view",
			"type": "function"
		},
		{
			"inputs": [],
			"name": "totalStake",
			"outputs": [
				{
					"internalType": "uint256",
					"name": "",
					"type": "uint256"
				}
			],
			"stateMutability": "view",
			"type": "function"
		},
		{
			"inputs": [],
			"name": "totalStakeRewards",
			"outputs": [
				{
					"internalType": "uint256",
					"name": "",
					"type": "uint256"
				}
			],
			"stateMutability": "view",
			"type": "function"
		},
		{
			"inputs": [],
			"name": "updatedAt",
			"outputs": [
				{
					"internalType": "uint256",
					"name": "",
					"type": "uint256"
				}
			],
			"stateMutability": "view",
			"type": "function"
		},
		{
			"inputs": [
				{
					"internalType": "uint256",
					"name": "_amount",
					"type": "uint256"
				}
			],
			"name": "withdrawReward",
			"outputs": [],
			"stateMutability": "nonpayable",
			"type": "function"
		}
	]
}